{
  "contractName": "DSGuardFactory",
  "abi": [
    {
      "constant": true,
      "inputs": [
        {
          "name": "",
          "type": "address"
        }
      ],
      "name": "isGuard",
      "outputs": [
        {
          "name": "",
          "type": "bool"
        }
      ],
      "payable": false,
      "stateMutability": "view",
      "type": "function"
    },
    {
      "constant": false,
      "inputs": [],
      "name": "newGuard",
      "outputs": [
        {
          "name": "guard",
          "type": "address"
        }
      ],
      "payable": false,
      "stateMutability": "nonpayable",
      "type": "function"
    }
  ],
  "bytecode": "0x6060604052341561000f57600080fd5b6113508061001e6000396000f30060606040526004361061004c576000357c0100000000000000000000000000000000000000000000000000000000900463ffffffff168063489c12021461005157806365688cc9146100a2575b600080fd5b341561005c57600080fd5b610088600480803573ffffffffffffffffffffffffffffffffffffffff169060200190919050506100f7565b604051808215151515815260200191505060405180910390f35b34156100ad57600080fd5b6100b5610117565b604051808273ffffffffffffffffffffffffffffffffffffffff1673ffffffffffffffffffffffffffffffffffffffff16815260200191505060405180910390f35b60006020528060005260406000206000915054906101000a900460ff1681565b6000610121610241565b604051809103906000f080151561013757600080fd5b90508073ffffffffffffffffffffffffffffffffffffffff166313af4035336040518263ffffffff167c0100000000000000000000000000000000000000000000000000000000028152600401808273ffffffffffffffffffffffffffffffffffffffff1673ffffffffffffffffffffffffffffffffffffffff168152602001915050600060405180830381600087803b15156101d357600080fd5b6102c65a03f115156101e457600080fd5b50505060016000808373ffffffffffffffffffffffffffffffffffffffff1673ffffffffffffffffffffffffffffffffffffffff16815260200190815260200160002060006101000a81548160ff02191690831515021790555090565b6040516110d380610252833901905600606060405233600160006101000a81548173ffffffffffffffffffffffffffffffffffffffff021916908373ffffffffffffffffffffffffffffffffffffffff1602179055503373ffffffffffffffffffffffffffffffffffffffff167fce241d7ca1f669fee44b6fc00b8eba2df3bb514eed0f6f668f8f89096e81ed9460405160405180910390a261103c806100976000396000f3006060604052600436106100a4576000357c0100000000000000000000000000000000000000000000000000000000900463ffffffff16806313af4035146100a95780632bc3217d146100e257806379d88d87146101475780637a9e5e4b146101885780638da5cb5b146101c1578063a8542f6614610216578063b700961314610247578063bf7e214f146102df578063cbeea68c14610334578063f0217ce514610399575b600080fd5b34156100b457600080fd5b6100e0600480803573ffffffffffffffffffffffffffffffffffffffff169060200190919050506103da565b005b34156100ed57600080fd5b610145600480803573ffffffffffffffffffffffffffffffffffffffff1690602001909190803573ffffffffffffffffffffffffffffffffffffffff16906020019091908035600019169060200190919050506104bc565b005b341561015257600080fd5b61018660048080356000191690602001909190803560001916906020019091908035600019169060200190919050506104fe565b005b341561019357600080fd5b6101bf600480803573ffffffffffffffffffffffffffffffffffffffff169060200190919050506105dd565b005b34156101cc57600080fd5b6101d46106bd565b604051808273ffffffffffffffffffffffffffffffffffffffff1673ffffffffffffffffffffffffffffffffffffffff16815260200191505060405180910390f35b341561022157600080fd5b6102296106e3565b60405180826000191660001916815260200191505060405180910390f35b341561025257600080fd5b6102c5600480803573ffffffffffffffffffffffffffffffffffffffff1690602001909190803573ffffffffffffffffffffffffffffffffffffffff169060200190919080357bffffffffffffffffffffffffffffffffffffffffffffffffffffffff191690602001909190505061070a565b604051808215151515815260200191505060405180910390f35b34156102ea57600080fd5b6102f2610c6b565b604051808273ffffffffffffffffffffffffffffffffffffffff1673ffffffffffffffffffffffffffffffffffffffff16815260200191505060405180910390f35b341561033f57600080fd5b610397600480803573ffffffffffffffffffffffffffffffffffffffff1690602001909190803573ffffffffffffffffffffffffffffffffffffffff1690602001909190803560001916906020019091905050610c90565b005b34156103a457600080fd5b6103d86004808035600019169060200190919080356000191690602001909190803560001916906020019091905050610cd2565b005b610408336000357fffffffff0000000000000000000000000000000000000000000000000000000016610db1565b151561041357600080fd5b80600160006101000a81548173ffffffffffffffffffffffffffffffffffffffff021916908373ffffffffffffffffffffffffffffffffffffffff160217905550600160009054906101000a900473ffffffffffffffffffffffffffffffffffffffff1673ffffffffffffffffffffffffffffffffffffffff167fce241d7ca1f669fee44b6fc00b8eba2df3bb514eed0f6f668f8f89096e81ed9460405160405180910390a250565b6104f98373ffffffffffffffffffffffffffffffffffffffff166001028373ffffffffffffffffffffffffffffffffffffffff16600102836104fe565b505050565b61052c336000357fffffffff0000000000000000000000000000000000000000000000000000000016610db1565b151561053757600080fd5b6000600260008560001916600019168152602001908152602001600020600084600019166000191681526020019081526020016000206000836000191660001916815260200190815260200160002060006101000a81548160ff0219169083151502179055508060001916826000191684600019167f95ba64c95d85e67ac83a0476c4a62ac2cf8ab2d0407545b8c9d79c3eefa6282960405160405180910390a4505050565b61060b336000357fffffffff0000000000000000000000000000000000000000000000000000000016610db1565b151561061657600080fd5b806000806101000a81548173ffffffffffffffffffffffffffffffffffffffff021916908373ffffffffffffffffffffffffffffffffffffffff1602179055506000809054906101000a900473ffffffffffffffffffffffffffffffffffffffff1673ffffffffffffffffffffffffffffffffffffffff167f1abebea81bfa2637f28358c371278fb15ede7ea8dd28d2e03b112ff6d936ada460405160405180910390a250565b600160009054906101000a900473ffffffffffffffffffffffffffffffffffffffff1681565b7fffffffffffffffffffffffffffffffffffffffffffffffffffffffffffffffff60010281565b60008060008573ffffffffffffffffffffffffffffffffffffffff1660010291508473ffffffffffffffffffffffffffffffffffffffff166001029050600260008360001916600019168152602001908152602001600020600082600019166000191681526020019081526020016000206000857bffffffffffffffffffffffffffffffffffffffffffffffffffffffff191660001916815260200190815260200160002060009054906101000a900460ff168061084257506002600083600019166000191681526020019081526020016000206000826000191660001916815260200190815260200160002060007fffffffffffffffffffffffffffffffffffffffffffffffffffffffffffffffff6001026000191660001916815260200190815260200160002060009054906101000a900460ff165b806108e2575060026000836000191660001916815260200190815260200160002060007fffffffffffffffffffffffffffffffffffffffffffffffffffffffffffffffff600102600019166000191681526020019081526020016000206000857bffffffffffffffffffffffffffffffffffffffffffffffffffffffff191660001916815260200190815260200160002060009054906101000a900460ff165b8061098a575060026000836000191660001916815260200190815260200160002060007fffffffffffffffffffffffffffffffffffffffffffffffffffffffffffffffff6001026000191660001916815260200190815260200160002060007fffffffffffffffffffffffffffffffffffffffffffffffffffffffffffffffff6001026000191660001916815260200190815260200160002060009054906101000a900460ff165b80610a2a5750600260007fffffffffffffffffffffffffffffffffffffffffffffffffffffffffffffffff60010260001916600019168152602001908152602001600020600082600019166000191681526020019081526020016000206000857bffffffffffffffffffffffffffffffffffffffffffffffffffffffff191660001916815260200190815260200160002060009054906101000a900460ff165b80610ad25750600260007fffffffffffffffffffffffffffffffffffffffffffffffffffffffffffffffff600102600019166000191681526020019081526020016000206000826000191660001916815260200190815260200160002060007fffffffffffffffffffffffffffffffffffffffffffffffffffffffffffffffff6001026000191660001916815260200190815260200160002060009054906101000a900460ff165b80610b955750600260007fffffffffffffffffffffffffffffffffffffffffffffffffffffffffffffffff6001026000191660001916815260200190815260200160002060007fffffffffffffffffffffffffffffffffffffffffffffffffffffffffffffffff600102600019166000191681526020019081526020016000206000857bffffffffffffffffffffffffffffffffffffffffffffffffffffffff191660001916815260200190815260200160002060009054906101000a900460ff165b80610c605750600260007fffffffffffffffffffffffffffffffffffffffffffffffffffffffffffffffff6001026000191660001916815260200190815260200160002060007fffffffffffffffffffffffffffffffffffffffffffffffffffffffffffffffff6001026000191660001916815260200190815260200160002060007fffffffffffffffffffffffffffffffffffffffffffffffffffffffffffffffff6001026000191660001916815260200190815260200160002060009054906101000a900460ff165b925050509392505050565b6000809054906101000a900473ffffffffffffffffffffffffffffffffffffffff1681565b610ccd8373ffffffffffffffffffffffffffffffffffffffff166001028373ffffffffffffffffffffffffffffffffffffffff1660010283610cd2565b505050565b610d00336000357fffffffff0000000000000000000000000000000000000000000000000000000016610db1565b1515610d0b57600080fd5b6001600260008560001916600019168152602001908152602001600020600084600019166000191681526020019081526020016000206000836000191660001916815260200190815260200160002060006101000a81548160ff0219169083151502179055508060001916826000191684600019167f6f50375045128971c5469d343039ba7b8e30a5b190453737b28bda6f7a30677160405160405180910390a4505050565b60003073ffffffffffffffffffffffffffffffffffffffff168373ffffffffffffffffffffffffffffffffffffffff161415610df0576001905061100a565b600160009054906101000a900473ffffffffffffffffffffffffffffffffffffffff1673ffffffffffffffffffffffffffffffffffffffff168373ffffffffffffffffffffffffffffffffffffffff161415610e4f576001905061100a565b600073ffffffffffffffffffffffffffffffffffffffff166000809054906101000a900473ffffffffffffffffffffffffffffffffffffffff1673ffffffffffffffffffffffffffffffffffffffff161415610eae576000905061100a565b6000809054906101000a900473ffffffffffffffffffffffffffffffffffffffff1673ffffffffffffffffffffffffffffffffffffffff1663b70096138430856000604051602001526040518463ffffffff167c0100000000000000000000000000000000000000000000000000000000028152600401808473ffffffffffffffffffffffffffffffffffffffff1673ffffffffffffffffffffffffffffffffffffffff1681526020018373ffffffffffffffffffffffffffffffffffffffff1673ffffffffffffffffffffffffffffffffffffffff168152602001827bffffffffffffffffffffffffffffffffffffffffffffffffffffffff19167bffffffffffffffffffffffffffffffffffffffffffffffffffffffff191681526020019350505050602060405180830381600087803b1515610fec57600080fd5b6102c65a03f11515610ffd57600080fd5b5050506040518051905090505b929150505600a165627a7a7230582000e854e1f5a896b080d709872ba1248e0e33823a8f1fc044ab5fef149f1faaf50029a165627a7a723058204de7be39ea24a691bc4c1950f9dadefeb973670c9012730997c5308f0928dc1e0029",
  "source": "// guard.sol -- simple whitelist implementation of DSAuthority\n\n// Copyright (C) 2017  DappHub, LLC\n\n// This program is free software: you can redistribute it and/or modify\n// it under the terms of the GNU General Public License as published by\n// the Free Software Foundation, either version 3 of the License, or\n// (at your option) any later version.\n\n// This program is distributed in the hope that it will be useful,\n// but WITHOUT ANY WARRANTY; without even the implied warranty of\n// MERCHANTABILITY or FITNESS FOR A PARTICULAR PURPOSE.  See the\n// GNU General Public License for more details.\n\n// You should have received a copy of the GNU General Public License\n// along with this program.  If not, see <http://www.gnu.org/licenses/>.\n\npragma solidity ^0.4.13;\n\nimport \"./auth.sol\";\n\ncontract DSGuardEvents {\n    event LogPermit(\n        bytes32 indexed src,\n        bytes32 indexed dst,\n        bytes32 indexed sig\n    );\n\n    event LogForbid(\n        bytes32 indexed src,\n        bytes32 indexed dst,\n        bytes32 indexed sig\n    );\n}\n\ncontract DSGuard is DSAuth, DSAuthority, DSGuardEvents {\n    bytes32 constant public ANY = bytes32(uint(-1));\n\n    mapping (bytes32 => mapping (bytes32 => mapping (bytes32 => bool))) acl;\n\n    function canCall(\n        address src_, address dst_, bytes4 sig\n    ) public view returns (bool) {\n        var src = bytes32(src_);\n        var dst = bytes32(dst_);\n\n        return acl[src][dst][sig]\n            || acl[src][dst][ANY]\n            || acl[src][ANY][sig]\n            || acl[src][ANY][ANY]\n            || acl[ANY][dst][sig]\n            || acl[ANY][dst][ANY]\n            || acl[ANY][ANY][sig]\n            || acl[ANY][ANY][ANY];\n    }\n\n    function permit(bytes32 src, bytes32 dst, bytes32 sig) public auth {\n        acl[src][dst][sig] = true;\n        LogPermit(src, dst, sig);\n    }\n\n    function forbid(bytes32 src, bytes32 dst, bytes32 sig) public auth {\n        acl[src][dst][sig] = false;\n        LogForbid(src, dst, sig);\n    }\n\n    function permit(address src, address dst, bytes32 sig) public {\n        permit(bytes32(src), bytes32(dst), sig);\n    }\n    function forbid(address src, address dst, bytes32 sig) public {\n        forbid(bytes32(src), bytes32(dst), sig);\n    }\n\n}\n\ncontract DSGuardFactory {\n    mapping (address => bool)  public  isGuard;\n\n    function newGuard() public returns (DSGuard guard) {\n        guard = new DSGuard();\n        guard.setOwner(msg.sender);\n        isGuard[guard] = true;\n    }\n}",
  "sourcePath": "/Users/vii/Desktop/lendroid/development/protocol-demo/contracts/helpers/guard.sol",
  "compiler": {
    "name": "solc",
    "version": "0.4.18+commit.9cf6e910.Emscripten.clang"
  },
  "schemaVersion": "1.0.1",
  "updatedAt": "2017-11-15T08:54:14.799Z"
}