{
  "contractName": "LoanManager",
  "abi": [
    {
      "constant": false,
      "inputs": [],
      "name": "stop",
      "outputs": [],
      "payable": false,
      "stateMutability": "nonpayable",
      "type": "function"
    },
    {
      "constant": true,
      "inputs": [
        {
          "name": "timestamp",
          "type": "uint256"
        },
        {
          "name": "borrower",
          "type": "address"
        },
        {
          "name": "amount",
          "type": "uint256"
        },
        {
          "name": "expiresOn",
          "type": "uint256"
        },
        {
          "name": "interestRate",
          "type": "uint256"
        }
      ],
      "name": "getLoanHash",
      "outputs": [
        {
          "name": "",
          "type": "bytes32"
        }
      ],
      "payable": false,
      "stateMutability": "view",
      "type": "function"
    },
    {
      "constant": false,
      "inputs": [
        {
          "name": "owner_",
          "type": "address"
        },
        {
          "name": "borrower",
          "type": "address"
        },
        {
          "name": "amount",
          "type": "uint256"
        },
        {
          "name": "expiresOn",
          "type": "uint256"
        },
        {
          "name": "interestRate",
          "type": "uint256"
        }
      ],
      "name": "setOwner",
      "outputs": [
        {
          "name": "",
          "type": "bytes32"
        }
      ],
      "payable": false,
      "stateMutability": "nonpayable",
      "type": "function"
    },
    {
      "constant": true,
      "inputs": [
        {
          "name": "owner_",
          "type": "address"
        }
      ],
      "name": "LendroidWallet",
      "outputs": [
        {
          "name": "",
          "type": "address"
        }
      ],
      "payable": false,
      "stateMutability": "view",
      "type": "function"
    },
    {
      "constant": true,
      "inputs": [],
      "name": "LendroidNetworkParameters",
      "outputs": [
        {
          "name": "",
          "type": "address"
        }
      ],
      "payable": false,
      "stateMutability": "view",
      "type": "function"
    },
    {
      "constant": true,
      "inputs": [
        {
          "name": "_loanHash",
          "type": "bytes32"
        }
      ],
      "name": "amountOwed",
      "outputs": [
        {
          "name": "",
          "type": "uint256"
        }
      ],
      "payable": false,
      "stateMutability": "view",
      "type": "function"
    },
    {
      "constant": true,
      "inputs": [
        {
          "name": "_loanHash",
          "type": "bytes32"
        }
      ],
      "name": "stopped",
      "outputs": [
        {
          "name": "",
          "type": "bool"
        }
      ],
      "payable": false,
      "stateMutability": "view",
      "type": "function"
    },
    {
      "constant": false,
      "inputs": [
        {
          "name": "authority_",
          "type": "address"
        }
      ],
      "name": "setAuthority",
      "outputs": [
        {
          "name": "",
          "type": "bool"
        }
      ],
      "payable": false,
      "stateMutability": "nonpayable",
      "type": "function"
    },
    {
      "constant": false,
      "inputs": [
        {
          "name": "_address",
          "type": "address"
        }
      ],
      "name": "setLendroidNetworkParameters",
      "outputs": [
        {
          "name": "",
          "type": "bool"
        }
      ],
      "payable": false,
      "stateMutability": "nonpayable",
      "type": "function"
    },
    {
      "constant": true,
      "inputs": [
        {
          "name": "authority_",
          "type": "address"
        }
      ],
      "name": "owner",
      "outputs": [
        {
          "name": "",
          "type": "address"
        }
      ],
      "payable": false,
      "stateMutability": "view",
      "type": "function"
    },
    {
      "constant": false,
      "inputs": [
        {
          "name": "_loanAmount",
          "type": "uint256"
        }
      ],
      "name": "availLoan",
      "outputs": [
        {
          "name": "",
          "type": "bool"
        }
      ],
      "payable": false,
      "stateMutability": "nonpayable",
      "type": "function"
    },
    {
      "constant": false,
      "inputs": [],
      "name": "start",
      "outputs": [
        {
          "name": "",
          "type": "address"
        }
      ],
      "payable": false,
      "stateMutability": "nonpayable",
      "type": "function"
    },
    {
      "constant": true,
      "inputs": [],
      "name": "authority",
      "outputs": [
        {
          "name": "",
          "type": "address"
        }
      ],
      "payable": false,
      "stateMutability": "view",
      "type": "function"
    },
    {
      "constant": true,
      "inputs": [
        {
          "name": "",
          "type": "bytes32"
        }
      ],
      "name": "loans",
      "outputs": [
        {
          "name": "timestamp",
          "type": "uint256"
        },
        {
          "name": "borrower",
          "type": "address"
        },
        {
          "name": "amount",
          "type": "uint256"
        },
        {
          "name": "amountPaid",
          "type": "uint256"
        },
        {
          "name": "lastUpdated",
          "type": "uint256"
        },
        {
          "name": "expiresOn",
          "type": "uint256"
        },
        {
          "name": "interestRate",
          "type": "uint256"
        },
        {
          "name": "status",
          "type": "uint8"
        },
        {
          "name": "loanHash",
          "type": "bytes32"
        }
      ],
      "payable": false,
      "stateMutability": "view",
      "type": "function"
    },
    {
      "constant": false,
      "inputs": [
        {
          "name": "_address",
          "type": "address"
        }
      ],
      "name": "setLendroidWallet",
      "outputs": [
        {
          "name": "",
          "type": "bool"
        },
        {
          "name": "borrower",
          "type": "address"
        },
        {
          "name": "amount",
          "type": "uint256"
        },
        {
          "name": "amountPaid",
          "type": "uint256"
        },
        {
          "name": "lastUpdated",
          "type": "uint256"
        },
        {
          "name": "expiresOn",
          "type": "uint256"
        },
        {
          "name": "interestRate",
          "type": "uint256"
        },
        {
          "name": "status",
          "type": "uint8"
        },
        {
          "name": "loanHash",
          "type": "bytes32"
        }
      ],
      "payable": false,
      "stateMutability": "nonpayable",
      "type": "function"
    },
    {
      "constant": false,
      "inputs": [
        {
          "name": "_loanHash",
          "type": "bytes32"
        }
      ],
      "name": "closeLoan",
      "outputs": [
        {
          "name": "",
          "type": "bool"
        }
      ],
      "payable": true,
      "stateMutability": "payable",
      "type": "function"
    },
    {
      "constant": false,
      "inputs": [
        {
          "name": "_address",
          "type": "address"
        }
      ],
      "name": "setLendroidWallet",
      "outputs": [
        {
          "name": "",
          "type": "bool"
        }
      ],
      "payable": false,
      "stateMutability": "nonpayable",
      "type": "fallback"
    },
    {
      "constant": false,
      "inputs": [
        {
          "name": "_loanHash",
          "type": "bytes32",
          "indexed": false
        },
        {
          "indexed": false,
          "name": "_address",
          "type": "address"
        },
        {
          "indexed": false,
          "name": "_amount",
          "type": "uint256"
        },
        {
          "indexed": false,
          "name": "_action",
          "type": "bytes32"
        }
      ],
      "name": "LogLoanUpdated",
      "outputs": [
        {
          "name": "",
          "type": "bool"
        }
      ],
      "payable": true,
      "stateMutability": "payable",
      "type": "event",
      "anonymous": false
    },
    {
      "payable": false,
      "stateMutability": "nonpayable",
      "type": "event",
      "anonymous": false,
      "inputs": [
        {
          "indexed": true,
          "name": "authority",
          "type": "address"
        }
      ],
      "name": "LogSetAuthority"
    },
    {
      "anonymous": false,
      "inputs": [
        {
          "indexed": true,
          "name": "owner",
          "type": "address"
        },
        {
          "indexed": false,
          "name": "_address",
          "type": "address"
        },
        {
          "indexed": false,
          "name": "_amount",
          "type": "uint256"
        },
        {
          "indexed": false,
          "name": "_action",
          "type": "bytes32"
        }
      ],
      "name": "LogSetOwner",
      "type": "event"
    },
    {
      "anonymous": true,
      "inputs": [
        {
          "indexed": true,
          "name": "sig",
          "type": "bytes4"
        },
        {
          "indexed": true,
          "name": "guy",
          "type": "address"
        },
        {
          "indexed": true,
          "name": "foo",
          "type": "bytes32"
        },
        {
          "indexed": true,
          "name": "bar",
          "type": "bytes32"
        },
        {
          "indexed": false,
          "name": "wad",
          "type": "uint256"
        },
        {
          "indexed": false,
          "name": "fax",
          "type": "bytes"
        }
      ],
      "name": "LogNote",
      "type": "event"
    },
    {
      "anonymous": false,
      "inputs": [
        {
          "indexed": true,
          "name": "owner",
          "type": "address"
        }
      ],
      "name": "LogSetOwner",
      "type": "event"
    },
    {
      "anonymous": true,
      "inputs": [
        {
          "indexed": true,
          "name": "sig",
          "type": "bytes4"
        },
        {
          "indexed": true,
          "name": "guy",
          "type": "address"
        },
        {
          "indexed": true,
          "name": "foo",
          "type": "bytes32"
        },
        {
          "indexed": true,
          "name": "bar",
          "type": "bytes32"
        },
        {
          "indexed": false,
          "name": "wad",
          "type": "uint256"
        },
        {
          "indexed": false,
          "name": "fax",
          "type": "bytes"
        }
      ],
      "name": "LogNote",
      "type": "event"
    }
  ],
  "bytecode": "0x606060405233600160006101000a81548173ffffffffffffffffffffffffffffffffffffffff021916908373ffffffffffffffffffffffffffffffffffffffff1602179055503373ffffffffffffffffffffffffffffffffffffffff167fce241d7ca1f669fee44b6fc00b8eba2df3bb514eed0f6f668f8f89096e81ed9460405160405180910390a2611c40806100976000396000f3006060604052600436106100e6576000357c0100000000000000000000000000000000000000000000000000000000900463ffffffff16806307da68f5146100f65780630ddcad5f1461010b57806313af4035146101845780632951bca3146101bd57806353ebc3d81461021257806358db57ed1461026757806375f12b21146102a25780637a9e5e4b146102cf578063885c43cd146103085780638da5cb5b1461035957806398c20c22146103ae578063be9a6555146103e9578063bf7e214f146103fe578063c4a9081514610453578063e9831f8a14610508578063f4ff7d2d14610559575b34156100f157600080fd5b600080fd5b341561010157600080fd5b61010961058d565b005b341561011657600080fd5b610166600480803590602001909190803573ffffffffffffffffffffffffffffffffffffffff1690602001909190803590602001909190803590602001909190803590602001909190505061068f565b60405180826000191660001916815260200191505060405180910390f35b341561018f57600080fd5b6101bb600480803573ffffffffffffffffffffffffffffffffffffffff16906020019091905050610750565b005b34156101c857600080fd5b6101d0610832565b604051808273ffffffffffffffffffffffffffffffffffffffff1673ffffffffffffffffffffffffffffffffffffffff16815260200191505060405180910390f35b341561021d57600080fd5b610225610858565b604051808273ffffffffffffffffffffffffffffffffffffffff1673ffffffffffffffffffffffffffffffffffffffff16815260200191505060405180910390f35b341561027257600080fd5b61028c60048080356000191690602001909190505061087e565b6040518082815260200191505060405180910390f35b34156102ad57600080fd5b6102b56109c1565b604051808215151515815260200191505060405180910390f35b34156102da57600080fd5b610306600480803573ffffffffffffffffffffffffffffffffffffffff169060200190919050506109d4565b005b341561031357600080fd5b61033f600480803573ffffffffffffffffffffffffffffffffffffffff16906020019091905050610ab4565b604051808215151515815260200191505060405180910390f35b341561036457600080fd5b61036c610b55565b604051808273ffffffffffffffffffffffffffffffffffffffff1673ffffffffffffffffffffffffffffffffffffffff16815260200191505060405180910390f35b34156103b957600080fd5b6103cf6004808035906020019091905050610b7b565b604051808215151515815260200191505060405180910390f35b34156103f457600080fd5b6103fc611128565b005b341561040957600080fd5b61041161122b565b604051808273ffffffffffffffffffffffffffffffffffffffff1673ffffffffffffffffffffffffffffffffffffffff16815260200191505060405180910390f35b341561045e57600080fd5b610478600480803560001916906020019091905050611250565b604051808a81526020018973ffffffffffffffffffffffffffffffffffffffff1673ffffffffffffffffffffffffffffffffffffffff1681526020018881526020018781526020018681526020018581526020018481526020018360038111156104de57fe5b60ff1681526020018260001916600019168152602001995050505050505050505060405180910390f35b341561051357600080fd5b61053f600480803573ffffffffffffffffffffffffffffffffffffffff169060200190919050506112cb565b604051808215151515815260200191505060405180910390f35b61057360048080356000191690602001909190505061136c565b604051808215151515815260200191505060405180910390f35b6105bb336000357fffffffff00000000000000000000000000000000000000000000000000000000166117b0565b15156105c657600080fd5b60008060043591506024359050806000191682600019163373ffffffffffffffffffffffffffffffffffffffff166000357fffffffff00000000000000000000000000000000000000000000000000000000167bffffffffffffffffffffffffffffffffffffffffffffffffffffffff19163460003660405180848152602001806020018281038252848482818152602001925080828437820191505094505050505060405180910390a460018060146101000a81548160ff0219169083151502179055505050565b6000308686868686604051808773ffffffffffffffffffffffffffffffffffffffff1673ffffffffffffffffffffffffffffffffffffffff166c010000000000000000000000000281526014018681526020018573ffffffffffffffffffffffffffffffffffffffff1673ffffffffffffffffffffffffffffffffffffffff166c0100000000000000000000000002815260140184815260200183815260200182815260200196505050505050506040518091039020905095945050505050565b61077e336000357fffffffff00000000000000000000000000000000000000000000000000000000166117b0565b151561078957600080fd5b80600160006101000a81548173ffffffffffffffffffffffffffffffffffffffff021916908373ffffffffffffffffffffffffffffffffffffffff160217905550600160009054906101000a900473ffffffffffffffffffffffffffffffffffffffff1673ffffffffffffffffffffffffffffffffffffffff167fce241d7ca1f669fee44b6fc00b8eba2df3bb514eed0f6f668f8f89096e81ed9460405160405180910390a250565b600260009054906101000a900473ffffffffffffffffffffffffffffffffffffffff1681565b600360009054906101000a900473ffffffffffffffffffffffffffffffffffffffff1681565b600080600080600160149054906101000a900460ff161515156108a057600080fd5b60046000866000191660001916815260200190815260200160002092506108d08360000154420362015180611a0f565b915061099161098b8460020154600360009054906101000a900473ffffffffffffffffffffffffffffffffffffffff1673ffffffffffffffffffffffffffffffffffffffff16637c3a00fd6000604051602001526040518163ffffffff167c0100000000000000000000000000000000000000000000000000000000028152600401602060405180830381600087803b151561096b57600080fd5b6102c65a03f1151561097c57600080fd5b50505060405180519050611a4b565b83611b13565b905042836005015410156109a857600093506109b9565b6109b6818460020154611b57565b93505b505050919050565b600160149054906101000a900460ff1681565b610a02336000357fffffffff00000000000000000000000000000000000000000000000000000000166117b0565b1515610a0d57600080fd5b806000806101000a81548173ffffffffffffffffffffffffffffffffffffffff021916908373ffffffffffffffffffffffffffffffffffffffff1602179055506000809054906101000a900473ffffffffffffffffffffffffffffffffffffffff1673ffffffffffffffffffffffffffffffffffffffff167f1abebea81bfa2637f28358c371278fb15ede7ea8dd28d2e03b112ff6d936ada460405160405180910390a250565b6000600160149054906101000a900460ff16151515610ad257600080fd5b610b00336000357fffffffff00000000000000000000000000000000000000000000000000000000166117b0565b1515610b0b57600080fd5b81600360006101000a81548173ffffffffffffffffffffffffffffffffffffffff021916908373ffffffffffffffffffffffffffffffffffffffff16021790555060019050919050565b600160009054906101000a900473ffffffffffffffffffffffffffffffffffffffff1681565b600080610b86611ba3565b600160149054906101000a900460ff16151515610ba257600080fd5b600260009054906101000a900473ffffffffffffffffffffffffffffffffffffffff1673ffffffffffffffffffffffffffffffffffffffff1663b11b97f5336000604051602001526040518263ffffffff167c0100000000000000000000000000000000000000000000000000000000028152600401808273ffffffffffffffffffffffffffffffffffffffff1673ffffffffffffffffffffffffffffffffffffffff168152602001915050602060405180830381600087803b1515610c6757600080fd5b6102c65a03f11515610c7857600080fd5b505050604051805190509150838210151515610c9357600080fd5b600260009054906101000a900473ffffffffffffffffffffffffffffffffffffffff1673ffffffffffffffffffffffffffffffffffffffff16633c40b30833866000604051602001526040518363ffffffff167c0100000000000000000000000000000000000000000000000000000000028152600401808373ffffffffffffffffffffffffffffffffffffffff1673ffffffffffffffffffffffffffffffffffffffff16815260200182815260200192505050602060405180830381600087803b1515610d6057600080fd5b6102c65a03f11515610d7157600080fd5b505050604051805190501515610d8657600080fd5b4281600001818152505033816020019073ffffffffffffffffffffffffffffffffffffffff16908173ffffffffffffffffffffffffffffffffffffffff168152505083816040018181525050600360009054906101000a900473ffffffffffffffffffffffffffffffffffffffff1673ffffffffffffffffffffffffffffffffffffffff166326e86cd76000604051602001526040518163ffffffff167c0100000000000000000000000000000000000000000000000000000000028152600401602060405180830381600087803b1515610e6057600080fd5b6102c65a03f11515610e7157600080fd5b5050506040518051905042018160a0018181525050600360009054906101000a900473ffffffffffffffffffffffffffffffffffffffff1673ffffffffffffffffffffffffffffffffffffffff16637c3a00fd6000604051602001526040518163ffffffff167c0100000000000000000000000000000000000000000000000000000000028152600401602060405180830381600087803b1515610f1457600080fd5b6102c65a03f11515610f2557600080fd5b505050604051805190508160c001818152505060018160e001906003811115610f4a57fe5b90816003811115610f5757fe5b81525050610f7c8160000151826020015183604001518460a001518560c0015161068f565b81610100019060001916908160001916815250508060046000836101000151600019166000191681526020019081526020016000206000820151816000015560208201518160010160006101000a81548173ffffffffffffffffffffffffffffffffffffffff021916908373ffffffffffffffffffffffffffffffffffffffff16021790555060408201518160020155606082015181600301556080820151816004015560a0820151816005015560c0820151816006015560e08201518160070160006101000a81548160ff0219169083600381111561105857fe5b021790555061010082015181600801906000191690559050507fde2c0e5cded59e6aa128ac8a924e36ac8f0a76a3fea5cbd58f5278318ebca44e8161010001513383604001516040518084600019166000191681526020018373ffffffffffffffffffffffffffffffffffffffff1673ffffffffffffffffffffffffffffffffffffffff168152602001828152602001807f6c6f616e20617661696c65640000000000000000000000000000000000000000815250602001935050505060405180910390a1600192505050919050565b611156336000357fffffffff00000000000000000000000000000000000000000000000000000000166117b0565b151561116157600080fd5b60008060043591506024359050806000191682600019163373ffffffffffffffffffffffffffffffffffffffff166000357fffffffff00000000000000000000000000000000000000000000000000000000167bffffffffffffffffffffffffffffffffffffffffffffffffffffffff19163460003660405180848152602001806020018281038252848482818152602001925080828437820191505094505050505060405180910390a46000600160146101000a81548160ff0219169083151502179055505050565b6000809054906101000a900473ffffffffffffffffffffffffffffffffffffffff1681565b60046020528060005260406000206000915090508060000154908060010160009054906101000a900473ffffffffffffffffffffffffffffffffffffffff16908060020154908060030154908060040154908060050154908060060154908060070160009054906101000a900460ff16908060080154905089565b6000600160149054906101000a900460ff161515156112e957600080fd5b611317336000357fffffffff00000000000000000000000000000000000000000000000000000000166117b0565b151561132257600080fd5b81600260006101000a81548173ffffffffffffffffffffffffffffffffffffffff021916908373ffffffffffffffffffffffffffffffffffffffff16021790555060019050919050565b600080600080600160149054906101000a900460ff1615151561138e57600080fd5b60046000866000191660001916815260200190815260200160002092503373ffffffffffffffffffffffffffffffffffffffff168360010160009054906101000a900473ffffffffffffffffffffffffffffffffffffffff1673ffffffffffffffffffffffffffffffffffffffff1614151561140957600080fd5b426114c08460050154600360009054906101000a900473ffffffffffffffffffffffffffffffffffffffff1673ffffffffffffffffffffffffffffffffffffffff16631348ed5e6000604051602001526040518163ffffffff167c0100000000000000000000000000000000000000000000000000000000028152600401602060405180830381600087803b15156114a057600080fd5b6102c65a03f115156114b157600080fd5b50505060405180519050611b57565b101515156114cd57600080fd5b6114e08360000154420362015180611a0f565b91506115a161159b8460020154600360009054906101000a900473ffffffffffffffffffffffffffffffffffffffff1673ffffffffffffffffffffffffffffffffffffffff16637c3a00fd6000604051602001526040518163ffffffff167c0100000000000000000000000000000000000000000000000000000000028152600401602060405180830381600087803b151561157b57600080fd5b6102c65a03f1151561158c57600080fd5b50505060405180519050611a4b565b83611b13565b9050346115b2828560020154611b57565b1415156115be57600080fd5b60028360070160006101000a81548160ff021916908360038111156115df57fe5b0217905550348360030181905550428360040181905550600260009054906101000a900473ffffffffffffffffffffffffffffffffffffffff1673ffffffffffffffffffffffffffffffffffffffff16635ac6d8ab33856002015486600301546000604051602001526040518463ffffffff167c0100000000000000000000000000000000000000000000000000000000028152600401808473ffffffffffffffffffffffffffffffffffffffff1673ffffffffffffffffffffffffffffffffffffffff1681526020018381526020018281526020019350505050602060405180830381600087803b15156116d357600080fd5b6102c65a03f115156116e457600080fd5b5050506040518051905015156116f957600080fd5b7fde2c0e5cded59e6aa128ac8a924e36ac8f0a76a3fea5cbd58f5278318ebca44e83600801543385600301546040518084600019166000191681526020018373ffffffffffffffffffffffffffffffffffffffff1673ffffffffffffffffffffffffffffffffffffffff168152602001828152602001807f6c6f616e20636c6f736564000000000000000000000000000000000000000000815250602001935050505060405180910390a160019350505050919050565b60003073ffffffffffffffffffffffffffffffffffffffff168373ffffffffffffffffffffffffffffffffffffffff1614156117ef5760019050611a09565b600160009054906101000a900473ffffffffffffffffffffffffffffffffffffffff1673ffffffffffffffffffffffffffffffffffffffff168373ffffffffffffffffffffffffffffffffffffffff16141561184e5760019050611a09565b600073ffffffffffffffffffffffffffffffffffffffff166000809054906101000a900473ffffffffffffffffffffffffffffffffffffffff1673ffffffffffffffffffffffffffffffffffffffff1614156118ad5760009050611a09565b6000809054906101000a900473ffffffffffffffffffffffffffffffffffffffff1673ffffffffffffffffffffffffffffffffffffffff1663b70096138430856000604051602001526040518463ffffffff167c0100000000000000000000000000000000000000000000000000000000028152600401808473ffffffffffffffffffffffffffffffffffffffff1673ffffffffffffffffffffffffffffffffffffffff1681526020018373ffffffffffffffffffffffffffffffffffffffff1673ffffffffffffffffffffffffffffffffffffffff168152602001827bffffffffffffffffffffffffffffffffffffffffffffffffffffffff19167bffffffffffffffffffffffffffffffffffffffffffffffffffffffff191681526020019350505050602060405180830381600087803b15156119eb57600080fd5b6102c65a03f115156119fc57600080fd5b5050506040518051905090505b92915050565b600081611a39611a2785670de0b6b3a7640000611b73565b600285811515611a3357fe5b04611b57565b811515611a4257fe5b04905092915050565b6000611b0b611a5a8484611b13565b600360009054906101000a900473ffffffffffffffffffffffffffffffffffffffff1673ffffffffffffffffffffffffffffffffffffffff1663313ce5676000604051602001526040518163ffffffff167c0100000000000000000000000000000000000000000000000000000000028152600401602060405180830381600087803b1515611ae857600080fd5b6102c65a03f11515611af957600080fd5b50505060405180519050600a0a611a0f565b905092915050565b6000670de0b6b3a7640000611b45611b2b8585611b73565b6002670de0b6b3a7640000811515611b3f57fe5b04611b57565b811515611b4e57fe5b04905092915050565b60008282840191508110151515611b6d57600080fd5b92915050565b600080821480611b9257508282838502925082811515611b8f57fe5b04145b1515611b9d57600080fd5b92915050565b6101206040519081016040528060008152602001600073ffffffffffffffffffffffffffffffffffffffff168152602001600081526020016000815260200160008152602001600081526020016000815260200160006003811115611c0457fe5b81526020016000801916815250905600a165627a7a723058207994a287aa5d3c031f358580ed028b6a9354d9712aaf8ed6d8a1d15632d4453b0029",
  "source": "pragma solidity ^0.4.2;\r\n\r\nimport './math.sol';\r\nimport './stop.sol';\r\n\r\nimport './Wallet.sol';\r\nimport \"./NetworkParameters.sol\";\r\n\r\n/**\r\n    @title LoanManager\r\n    @notice The LoanManager contract inherits the Ownable contract, and manages loans on Lendroid.\r\n */\r\ncontract LoanManager is DSMath, DSStop {\r\n\r\n    Wallet public LendroidWallet;\r\n    NetworkParameters public LendroidNetworkParameters;\r\n\r\n    enum Status {\r\n        UNISSUED,\r\n        ACTIVE,\r\n        CLOSED,\r\n        DEFAULTED\r\n    }\r\n\r\n    struct Loan {\r\n        uint timestamp;\r\n        address borrower;\r\n        uint amount;\r\n        uint amountPaid;\r\n        uint lastUpdated;\r\n        uint expiresOn;\r\n        uint interestRate;\r\n        Status status;\r\n        bytes32 loanHash;\r\n    }\r\n\r\n    mapping (bytes32 => Loan) public loans;\r\n\r\n    event LogLoanUpdated(\r\n        bytes32 _loanHash,  // The Hash of the Loan\r\n        address _address,   // The address that caused the action\r\n        uint256 _amount,    // The amount associated with the action\r\n        bytes32 _action     // The tyoe of action: \"loan availed\", \"loan closed\"\r\n    );\r\n\r\n    function percentOf(uint _quantity, uint _percentage) internal view returns (uint256){\r\n        return wdiv(wmul(_quantity, _percentage), 10 ** LendroidNetworkParameters.decimals());\r\n    }\r\n\r\n    /**\r\n        @dev Throws if called by any account.\r\n    */\r\n    function() {\r\n        revert();\r\n    }\r\n\r\n    /// @dev Allows owner to set the NetworkParameters contract.\r\n    /// @param _address Address of the NetworkParameters contract.\r\n    function setLendroidNetworkParameters(address _address)\r\n        public\r\n        stoppable\r\n        auth\r\n        returns (bool) \r\n    {\r\n        LendroidNetworkParameters = NetworkParameters(_address);\r\n        return true;\r\n    }\r\n\r\n    /// @dev Allows owner to set the Wallet contract.\r\n    /// @param _address Address of the Wallet contract.\r\n    function setLendroidWallet(address _address)\r\n        public\r\n        stoppable\r\n        auth\r\n        returns (bool) \r\n    {\r\n        LendroidWallet = Wallet(_address);\r\n        return true;\r\n    }\r\n\r\n    /**\r\n        @notice Avail a loan\r\n        @return true the loan was successfully created\r\n    */\r\n    function availLoan(\r\n            uint _loanAmount\r\n        ) \r\n        public \r\n        stoppable\r\n        returns (bool) \r\n    {\r\n        // TODO: Check if borrower account is healthy\r\n        var _borrowableAmount = LendroidWallet.getMaximumBorrowableAmount(msg.sender);\r\n        require(_borrowableAmount >= _loanAmount);\r\n        require(LendroidWallet.encumberCollateral(msg.sender, _loanAmount));\r\n        // Set loan fields and save loan\r\n        Loan memory loan;\r\n        loan.timestamp = now;\r\n        loan.borrower = msg.sender;\r\n        loan.amount = _loanAmount;\r\n        loan.expiresOn = now + LendroidNetworkParameters.maxLoanPeriodDays();\r\n        loan.interestRate = LendroidNetworkParameters.interestRate();\r\n        loan.status = Status.ACTIVE;\r\n\r\n        loan.loanHash = getLoanHash(\r\n            loan.timestamp,\r\n            loan.borrower,\r\n            loan.amount,\r\n            loan.expiresOn,\r\n            loan.interestRate\r\n        );\r\n        loans[loan.loanHash] = loan;\r\n        // msg.sender.transfer(loan.amount);\r\n        LogLoanUpdated(\r\n            loan.loanHash,  // The Hash of the Loan\r\n            msg.sender,   // The address that caused the action\r\n            loan.amount,    // The amount associated with the action\r\n            \"loan availed\"     // The tyoe of action: \"loan availed\", \"loan closed\"\r\n        );\r\n        return true;\r\n    }\r\n\r\n    /**\r\n        @param _loanHash the hash of the loan that has to be closed\r\n        @return true the loan was successfully closed\r\n    */\r\n    function closeLoan(bytes32 _loanHash) \r\n        public\r\n        payable \r\n        stoppable\r\n        returns (bool) \r\n    {\r\n        // TODO: Check if borrower account is healthy\r\n        // Get Active loan based on hash\r\n        Loan storage activeLoan = loans[_loanHash];\r\n        // Validations\r\n        // Verify borrower\r\n        require(activeLoan.borrower == msg.sender);\r\n        // Verify expiry date\r\n        require(add(activeLoan.expiresOn, LendroidNetworkParameters.gracePeriodDays()) >= now);\r\n        // Verify interest\r\n        uint daysSinceLoan = wdiv(now - activeLoan.timestamp, 86400);\r\n        uint interestAccrued = wmul(percentOf(activeLoan.amount , LendroidNetworkParameters.interestRate()), daysSinceLoan);\r\n        require(add(interestAccrued, activeLoan.amount) == msg.value);\r\n        // Archive the active loan\r\n        activeLoan.status = Status.CLOSED;\r\n        activeLoan.amountPaid = msg.value;\r\n        activeLoan.lastUpdated = now;\r\n        require(LendroidWallet.unEncumberCollateral(\r\n            msg.sender,\r\n            activeLoan.amount,\r\n            activeLoan.amountPaid\r\n        ));\r\n        LogLoanUpdated(\r\n            activeLoan.loanHash,  // The Hash of the Loan\r\n            msg.sender,   // The address that caused the action\r\n            activeLoan.amountPaid,    // The amount associated with the action\r\n            \"loan closed\"     // The tyoe of action: \"loan availed\", \"loan closed\"\r\n        );\r\n        \r\n        return true;\r\n    }\r\n\r\n    /// @return Keccak-256 hash of loan.\r\n    function getLoanHash(\r\n            uint timestamp,\r\n            address borrower,\r\n            uint amount,\r\n            uint expiresOn,\r\n            uint interestRate\r\n        )\r\n        public\r\n        constant\r\n        returns (bytes32)\r\n    {\r\n        return keccak256(\r\n            address(this),\r\n            timestamp,\r\n            borrower,\r\n            amount,\r\n            expiresOn,\r\n            interestRate\r\n        );\r\n    }\r\n\r\n    /**\r\n        @param _loanHash the hash of the loan whose amount is owed\r\n        @return uint the owed amount\r\n    */\r\n    function amountOwed(bytes32 _loanHash) public stoppable constant returns (uint) {\r\n        Loan storage activeLoan = loans[_loanHash];\r\n        uint daysSinceLoan = wdiv(now - activeLoan.timestamp, 86400);\r\n        uint interestAccrued = wmul(percentOf(activeLoan.amount, LendroidNetworkParameters.interestRate()), daysSinceLoan);\r\n        if (activeLoan.expiresOn < now) {\r\n            return 0;\r\n        }\r\n        return add(interestAccrued, activeLoan.amount);\r\n    }\r\n\r\n}",
  "sourcePath": "C:\\work\\programming\\ethereum\\lendroid\\protocol-demo\\contracts\\LoanManager.sol",
  "compiler": {
    "name": "solc",
    "version": "0.4.18+commit.9cf6e910.Emscripten.clang"
  },
  "schemaVersion": "1.0.1",
  "updatedAt": "2017-11-11T14:40:10.619Z"
}