{
  "contractName": "LoanManager",
  "abi": [
    {
      "constant": false,
      "inputs": [],
      "name": "stop",
      "outputs": [],
      "payable": false,
      "stateMutability": "nonpayable",
      "type": "function"
    },
    {
      "constant": false,
      "inputs": [
        {
          "name": "owner_",
          "type": "address"
        },
        {
          "name": "borrower",
          "type": "address"
        },
        {
          "name": "amount",
          "type": "uint256"
        },
        {
          "name": "expiresOn",
          "type": "uint256"
        },
        {
          "name": "interestRate",
          "type": "uint256"
        }
      ],
      "name": "setOwner",
      "outputs": [
        {
          "name": "",
          "type": "bytes32"
        }
      ],
      "payable": false,
      "stateMutability": "nonpayable",
      "type": "function"
    },
    {
      "constant": true,
      "inputs": [
        {
          "name": "owner_",
          "type": "address"
        },
        {
          "name": "borrower",
          "type": "address"
        },
        {
          "name": "amount",
          "type": "uint256"
        },
        {
          "name": "expiresOn",
          "type": "uint256"
        },
        {
          "name": "interestRate",
          "type": "uint256"
        }
      ],
      "name": "LendroidWallet",
      "outputs": [
        {
          "name": "",
          "type": "address"
        }
      ],
      "payable": false,
      "stateMutability": "view",
      "type": "function"
    },
    {
      "constant": true,
      "inputs": [
        {
          "name": "_borrower",
          "type": "address"
        }
      ],
      "name": "loansBorrowed",
      "outputs": [
        {
          "name": "",
          "type": "bytes32[]"
        }
      ],
      "payable": false,
      "stateMutability": "view",
      "type": "function"
    },
    {
      "constant": true,
      "inputs": [
        {
          "name": "_loanHash",
          "type": "bytes32"
        }
      ],
      "name": "unRealizedLendingFee",
      "outputs": [
        {
          "name": "",
          "type": "uint256"
        }
      ],
      "payable": false,
      "stateMutability": "view",
      "type": "function"
    },
    {
      "constant": true,
      "inputs": [
        {
          "name": "_loanHash",
          "type": "bytes32"
        }
      ],
      "name": "LendroidNetworkParameters",
      "outputs": [
        {
          "name": "",
          "type": "address"
        }
      ],
      "payable": false,
      "stateMutability": "view",
      "type": "function"
    },
    {
      "constant": true,
      "inputs": [
        {
          "name": "_loanHash",
          "type": "bytes32"
        }
      ],
      "name": "amountOwed",
      "outputs": [
        {
          "name": "",
          "type": "uint256"
        }
      ],
      "payable": false,
      "stateMutability": "view",
      "type": "function"
    },
    {
      "constant": true,
      "inputs": [
        {
          "name": "_address",
          "type": "address"
        }
      ],
      "name": "stopped",
      "outputs": [
        {
          "name": "",
          "type": "bool"
        }
      ],
      "payable": false,
      "stateMutability": "view",
      "type": "function"
    },
    {
      "constant": false,
      "inputs": [
        {
          "name": "authority_",
          "type": "address"
        }
      ],
      "name": "setAuthority",
      "outputs": [
        {
          "name": "",
          "type": "address"
        }
      ],
      "payable": false,
      "stateMutability": "nonpayable",
      "type": "function"
    },
    {
      "constant": false,
      "inputs": [
        {
          "name": "_address",
          "type": "address"
        }
      ],
      "name": "setLendroidNetworkParameters",
      "outputs": [
        {
          "name": "",
          "type": "bool"
        }
      ],
      "payable": false,
      "stateMutability": "nonpayable",
      "type": "function"
    },
    {
      "constant": true,
      "inputs": [
        {
          "name": "_loanAmount",
          "type": "uint256"
        }
      ],
      "name": "owner",
      "outputs": [
        {
          "name": "",
          "type": "address"
        }
      ],
      "payable": false,
      "stateMutability": "view",
      "type": "function"
    },
    {
      "constant": true,
      "inputs": [
        {
          "name": "_borrower",
          "type": "address"
        }
      ],
      "name": "unRealizedLendingFees",
      "outputs": [
        {
          "name": "",
          "type": "uint256"
        }
      ],
      "payable": false,
      "stateMutability": "view",
      "type": "function"
    },
    {
      "constant": false,
      "inputs": [
        {
          "name": "_loanAmount",
          "type": "uint256"
        }
      ],
      "name": "availLoan",
      "outputs": [
        {
          "name": "",
          "type": "bool"
        },
        {
          "name": "borrower",
          "type": "address"
        },
        {
          "name": "amount",
          "type": "uint256"
        },
        {
          "name": "amountPaid",
          "type": "uint256"
        },
        {
          "name": "lastUpdated",
          "type": "uint256"
        },
        {
          "name": "expiresOn",
          "type": "uint256"
        },
        {
          "name": "interestRate",
          "type": "uint256"
        },
        {
          "name": "status",
          "type": "uint8"
        },
        {
          "name": "loanHash",
          "type": "bytes32"
        }
      ],
      "payable": false,
      "stateMutability": "nonpayable",
      "type": "function"
    },
    {
      "constant": false,
      "inputs": [
        {
          "name": "",
          "type": "bytes32"
        }
      ],
      "name": "start",
      "outputs": [
        {
          "name": "timestamp",
          "type": "uint256"
        },
        {
          "name": "borrower",
          "type": "address"
        },
        {
          "name": "amount",
          "type": "uint256"
        },
        {
          "name": "amountPaid",
          "type": "uint256"
        },
        {
          "name": "lastUpdated",
          "type": "uint256"
        },
        {
          "name": "expiresOn",
          "type": "uint256"
        },
        {
          "name": "interestRate",
          "type": "uint256"
        },
        {
          "name": "status",
          "type": "uint8"
        },
        {
          "name": "loanHash",
          "type": "bytes32"
        },
        {
          "name": "loanId",
          "type": "uint256"
        }
      ],
      "payable": false,
      "stateMutability": "nonpayable",
      "type": "function"
    },
    {
      "constant": true,
      "inputs": [
        {
          "name": "_address",
          "type": "address"
        }
      ],
      "name": "authority",
      "outputs": [
        {
          "name": "",
          "type": "address"
        },
        {
          "name": "borrower",
          "type": "address"
        },
        {
          "name": "amount",
          "type": "uint256"
        },
        {
          "name": "amountPaid",
          "type": "uint256"
        },
        {
          "name": "lastUpdated",
          "type": "uint256"
        },
        {
          "name": "expiresOn",
          "type": "uint256"
        },
        {
          "name": "interestRate",
          "type": "uint256"
        },
        {
          "name": "status",
          "type": "uint8"
        },
        {
          "name": "loanHash",
          "type": "bytes32"
        }
      ],
      "payable": false,
      "stateMutability": "view",
      "type": "function"
    },
    {
      "constant": true,
      "inputs": [
        {
          "name": "",
          "type": "bytes32"
        }
      ],
      "name": "loans",
      "outputs": [
        {
          "name": "timestamp",
          "type": "uint256"
        },
        {
          "name": "borrower",
          "type": "address"
        },
        {
          "name": "amount",
          "type": "uint256"
        },
        {
          "name": "amountPaid",
          "type": "uint256"
        },
        {
          "name": "lastUpdated",
          "type": "uint256"
        },
        {
          "name": "expiresOn",
          "type": "uint256"
        },
        {
          "name": "interestRate",
          "type": "uint256"
        },
        {
          "name": "status",
          "type": "uint8"
        },
        {
          "name": "loanHash",
          "type": "bytes32"
        },
        {
          "name": "loanId",
          "type": "uint256"
        }
      ],
      "payable": false,
      "stateMutability": "view",
      "type": "function"
    },
    {
      "constant": false,
      "inputs": [
        {
          "name": "_address",
          "type": "address",
          "indexed": false
        },
        {
          "indexed": false,
          "name": "_address",
          "type": "address"
        },
        {
          "indexed": false,
          "name": "_amount",
          "type": "uint256"
        },
        {
          "indexed": false,
          "name": "_action",
          "type": "bytes32"
        }
      ],
      "name": "setLendroidWallet",
      "outputs": [
        {
          "name": "",
          "type": "bool"
        }
      ],
      "payable": false,
      "stateMutability": "nonpayable",
      "type": "function",
      "anonymous": false
    },
    {
      "constant": false,
      "inputs": [
        {
          "name": "_loanHash",
          "type": "bytes32",
          "indexed": false
        },
        {
          "indexed": false,
          "name": "_address",
          "type": "address"
        },
        {
          "indexed": false,
          "name": "_amount",
          "type": "uint256"
        },
        {
          "indexed": false,
          "name": "_action",
          "type": "bytes32"
        }
      ],
      "name": "closeLoan",
      "outputs": [
        {
          "name": "",
          "type": "bool"
        }
      ],
      "payable": true,
      "stateMutability": "payable",
      "type": "function",
      "anonymous": false
    },
    {
      "payable": false,
      "stateMutability": "nonpayable",
      "type": "fallback",
      "anonymous": false,
      "inputs": [
        {
          "indexed": true,
          "name": "authority",
          "type": "address"
        }
      ],
      "name": "LogSetAuthority"
    },
    {
      "anonymous": false,
      "inputs": [
        {
          "indexed": false,
          "name": "_loanHash",
          "type": "bytes32"
        },
        {
          "indexed": false,
          "name": "_address",
          "type": "address"
        },
        {
          "indexed": false,
          "name": "_amount",
          "type": "uint256"
        },
        {
          "indexed": false,
          "name": "_action",
          "type": "bytes32"
        },
        {
          "indexed": false,
          "name": "wad",
          "type": "uint256"
        },
        {
          "indexed": false,
          "name": "fax",
          "type": "bytes"
        }
      ],
      "name": "LogLoanUpdated",
      "type": "event"
    },
    {
      "anonymous": false,
      "inputs": [
        {
          "indexed": true,
          "name": "authority",
          "type": "address"
        },
        {
          "indexed": true,
          "name": "guy",
          "type": "address"
        },
        {
          "indexed": true,
          "name": "foo",
          "type": "bytes32"
        },
        {
          "indexed": true,
          "name": "bar",
          "type": "bytes32"
        },
        {
          "indexed": false,
          "name": "wad",
          "type": "uint256"
        },
        {
          "indexed": false,
          "name": "fax",
          "type": "bytes"
        }
      ],
      "name": "LogSetAuthority",
      "type": "event"
    },
    {
      "anonymous": false,
      "inputs": [
        {
          "indexed": true,
          "name": "owner",
          "type": "address"
        }
      ],
      "name": "LogSetOwner",
      "type": "event"
    },
    {
      "anonymous": true,
      "inputs": [
        {
          "indexed": true,
          "name": "sig",
          "type": "bytes4"
        },
        {
          "indexed": true,
          "name": "guy",
          "type": "address"
        },
        {
          "indexed": true,
          "name": "foo",
          "type": "bytes32"
        },
        {
          "indexed": true,
          "name": "bar",
          "type": "bytes32"
        },
        {
          "indexed": false,
          "name": "wad",
          "type": "uint256"
        },
        {
          "indexed": false,
          "name": "fax",
          "type": "bytes"
        }
      ],
      "name": "LogNote",
      "type": "event"
    }
  ],
  "bytecode": "0x606060405233600160006101000a81548173ffffffffffffffffffffffffffffffffffffffff021916908373ffffffffffffffffffffffffffffffffffffffff1602179055503373ffffffffffffffffffffffffffffffffffffffff167fce241d7ca1f669fee44b6fc00b8eba2df3bb514eed0f6f668f8f89096e81ed9460405160405180910390a261224d806100976000396000f3006060604052600436106100fc576000357c0100000000000000000000000000000000000000000000000000000000900463ffffffff16806307da68f51461010c57806313af4035146101215780632951bca31461015a578063477684da146101af57806350ce930f1461023d57806353ebc3d81461027857806358db57ed146102cd57806375f12b21146103085780637a9e5e4b14610335578063885c43cd1461036e5780638da5cb5b146103bf5780638f32a16c1461041457806398c20c2214610461578063be9a65551461049c578063bf7e214f146104b1578063c4a9081514610506578063e9831f8a146105c2578063f4ff7d2d14610613575b341561010757600080fd5b600080fd5b341561011757600080fd5b61011f610647565b005b341561012c57600080fd5b610158600480803573ffffffffffffffffffffffffffffffffffffffff16906020019091905050610749565b005b341561016557600080fd5b61016d61082b565b604051808273ffffffffffffffffffffffffffffffffffffffff1673ffffffffffffffffffffffffffffffffffffffff16815260200191505060405180910390f35b34156101ba57600080fd5b6101e6600480803573ffffffffffffffffffffffffffffffffffffffff16906020019091905050610851565b6040518080602001828103825283818151815260200191508051906020019060200280838360005b8381101561022957808201518184015260208101905061020e565b505050509050019250505060405180910390f35b341561024857600080fd5b61026260048080356000191690602001909190505061090e565b6040518082815260200191505060405180910390f35b341561028357600080fd5b61028b610a3b565b604051808273ffffffffffffffffffffffffffffffffffffffff1673ffffffffffffffffffffffffffffffffffffffff16815260200191505060405180910390f35b34156102d857600080fd5b6102f2600480803560001916906020019091905050610a61565b6040518082815260200191505060405180910390f35b341561031357600080fd5b61031b610bb6565b604051808215151515815260200191505060405180910390f35b341561034057600080fd5b61036c600480803573ffffffffffffffffffffffffffffffffffffffff16906020019091905050610bc9565b005b341561037957600080fd5b6103a5600480803573ffffffffffffffffffffffffffffffffffffffff16906020019091905050610ca9565b604051808215151515815260200191505060405180910390f35b34156103ca57600080fd5b6103d2610d4a565b604051808273ffffffffffffffffffffffffffffffffffffffff1673ffffffffffffffffffffffffffffffffffffffff16815260200191505060405180910390f35b341561041f57600080fd5b61044b600480803573ffffffffffffffffffffffffffffffffffffffff16906020019091905050610d70565b6040518082815260200191505060405180910390f35b341561046c57600080fd5b6104826004808035906020019091905050610ec2565b604051808215151515815260200191505060405180910390f35b34156104a757600080fd5b6104af61153e565b005b34156104bc57600080fd5b6104c4611641565b604051808273ffffffffffffffffffffffffffffffffffffffff1673ffffffffffffffffffffffffffffffffffffffff16815260200191505060405180910390f35b341561051157600080fd5b61052b600480803560001916906020019091905050611666565b604051808b81526020018a73ffffffffffffffffffffffffffffffffffffffff1673ffffffffffffffffffffffffffffffffffffffff16815260200189815260200188815260200187815260200186815260200185815260200184600381111561059157fe5b60ff16815260200183600019166000191681526020018281526020019a505050505050505050505060405180910390f35b34156105cd57600080fd5b6105f9600480803573ffffffffffffffffffffffffffffffffffffffff169060200190919050506116e7565b604051808215151515815260200191505060405180910390f35b61062d600480803560001916906020019091905050611788565b604051808215151515815260200191505060405180910390f35b610675336000357fffffffff0000000000000000000000000000000000000000000000000000000016611c3f565b151561068057600080fd5b60008060043591506024359050806000191682600019163373ffffffffffffffffffffffffffffffffffffffff166000357fffffffff00000000000000000000000000000000000000000000000000000000167bffffffffffffffffffffffffffffffffffffffffffffffffffffffff19163460003660405180848152602001806020018281038252848482818152602001925080828437820191505094505050505060405180910390a460018060146101000a81548160ff0219169083151502179055505050565b610777336000357fffffffff0000000000000000000000000000000000000000000000000000000016611c3f565b151561078257600080fd5b80600160006101000a81548173ffffffffffffffffffffffffffffffffffffffff021916908373ffffffffffffffffffffffffffffffffffffffff160217905550600160009054906101000a900473ffffffffffffffffffffffffffffffffffffffff1673ffffffffffffffffffffffffffffffffffffffff167fce241d7ca1f669fee44b6fc00b8eba2df3bb514eed0f6f668f8f89096e81ed9460405160405180910390a250565b600260009054906101000a900473ffffffffffffffffffffffffffffffffffffffff1681565b610859612118565b600160149054906101000a900460ff1615151561087557600080fd5b600560008373ffffffffffffffffffffffffffffffffffffffff1673ffffffffffffffffffffffffffffffffffffffff16815260200190815260200160002080548060200260200160405190810160405280929190818152602001828054801561090257602002820191906000526020600020905b815460001916815260200190600101908083116108ea575b50505050509050919050565b6000806000600160149054906101000a900460ff1615151561092f57600080fd5b600460008560001916600019168152602001908152602001600020915061097161095d428460000154611e9e565b61096c62015180610e10611eba565b611eba565b9050610a32610a2c8360020154600360009054906101000a900473ffffffffffffffffffffffffffffffffffffffff1673ffffffffffffffffffffffffffffffffffffffff16637c3a00fd6000604051602001526040518163ffffffff167c0100000000000000000000000000000000000000000000000000000000028152600401602060405180830381600087803b1515610a0c57600080fd5b6102c65a03f11515610a1d57600080fd5b50505060405180519050611ef6565b82611fbe565b92505050919050565b600360009054906101000a900473ffffffffffffffffffffffffffffffffffffffff1681565b600080600080600160149054906101000a900460ff16151515610a8357600080fd5b6004600086600019166000191681526020019081526020016000209250610ac5610ab1428560000154611e9e565b610ac062015180610e10611eba565b611eba565b9150610b86610b808460020154600360009054906101000a900473ffffffffffffffffffffffffffffffffffffffff1673ffffffffffffffffffffffffffffffffffffffff16637c3a00fd6000604051602001526040518163ffffffff167c0100000000000000000000000000000000000000000000000000000000028152600401602060405180830381600087803b1515610b6057600080fd5b6102c65a03f11515610b7157600080fd5b50505060405180519050611ef6565b83611fbe565b90504283600501541015610b9d5760009350610bae565b610bab818460020154612002565b93505b505050919050565b600160149054906101000a900460ff1681565b610bf7336000357fffffffff0000000000000000000000000000000000000000000000000000000016611c3f565b1515610c0257600080fd5b806000806101000a81548173ffffffffffffffffffffffffffffffffffffffff021916908373ffffffffffffffffffffffffffffffffffffffff1602179055506000809054906101000a900473ffffffffffffffffffffffffffffffffffffffff1673ffffffffffffffffffffffffffffffffffffffff167f1abebea81bfa2637f28358c371278fb15ede7ea8dd28d2e03b112ff6d936ada460405160405180910390a250565b6000600160149054906101000a900460ff16151515610cc757600080fd5b610cf5336000357fffffffff0000000000000000000000000000000000000000000000000000000016611c3f565b1515610d0057600080fd5b81600360006101000a81548173ffffffffffffffffffffffffffffffffffffffff021916908373ffffffffffffffffffffffffffffffffffffffff16021790555060019050919050565b600160009054906101000a900473ffffffffffffffffffffffffffffffffffffffff1681565b6000806000600160149054906101000a900460ff16151515610d9157600080fd5b600260009054906101000a900473ffffffffffffffffffffffffffffffffffffffff1673ffffffffffffffffffffffffffffffffffffffff163373ffffffffffffffffffffffffffffffffffffffff16141515610ded57600080fd5b60009150600090505b600560008573ffffffffffffffffffffffffffffffffffffffff1673ffffffffffffffffffffffffffffffffffffffff16815260200190815260200160002080549050811015610eb857610ea982610ea4600560008873ffffffffffffffffffffffffffffffffffffffff1673ffffffffffffffffffffffffffffffffffffffff16815260200190815260200160002084815481101515610e9357fe5b90600052602060002090015461090e565b612002565b91508080600101915050610df6565b8192505050919050565b600080610ecd61212c565b600160149054906101000a900460ff16151515610ee957600080fd5b600260009054906101000a900473ffffffffffffffffffffffffffffffffffffffff1673ffffffffffffffffffffffffffffffffffffffff1663b11b97f5336000604051602001526040518263ffffffff167c0100000000000000000000000000000000000000000000000000000000028152600401808273ffffffffffffffffffffffffffffffffffffffff1673ffffffffffffffffffffffffffffffffffffffff168152602001915050602060405180830381600087803b1515610fae57600080fd5b6102c65a03f11515610fbf57600080fd5b505050604051805190509150838210151515610fda57600080fd5b600260009054906101000a900473ffffffffffffffffffffffffffffffffffffffff1673ffffffffffffffffffffffffffffffffffffffff16633c40b30833866000604051602001526040518363ffffffff167c0100000000000000000000000000000000000000000000000000000000028152600401808373ffffffffffffffffffffffffffffffffffffffff1673ffffffffffffffffffffffffffffffffffffffff16815260200182815260200192505050602060405180830381600087803b15156110a757600080fd5b6102c65a03f115156110b857600080fd5b5050506040518051905015156110cd57600080fd5b4281600001818152505033816020019073ffffffffffffffffffffffffffffffffffffffff16908173ffffffffffffffffffffffffffffffffffffffff168152505083816040018181525050600360009054906101000a900473ffffffffffffffffffffffffffffffffffffffff1673ffffffffffffffffffffffffffffffffffffffff166326e86cd76000604051602001526040518163ffffffff167c0100000000000000000000000000000000000000000000000000000000028152600401602060405180830381600087803b15156111a757600080fd5b6102c65a03f115156111b857600080fd5b5050506040518051905042018160a0018181525050600360009054906101000a900473ffffffffffffffffffffffffffffffffffffffff1673ffffffffffffffffffffffffffffffffffffffff16637c3a00fd6000604051602001526040518163ffffffff167c0100000000000000000000000000000000000000000000000000000000028152600401602060405180830381600087803b151561125b57600080fd5b6102c65a03f1151561126c57600080fd5b505050604051805190508160c0018181525050600560003373ffffffffffffffffffffffffffffffffffffffff1673ffffffffffffffffffffffffffffffffffffffff168152602001908152602001600020805490508161012001818152505060018160e0019060038111156112de57fe5b908160038111156112eb57fe5b815250506113168160000151826020015183604001518460a001518560c0015186610120015161201e565b81610100019060001916908160001916815250508060046000836101000151600019166000191681526020019081526020016000206000820151816000015560208201518160010160006101000a81548173ffffffffffffffffffffffffffffffffffffffff021916908373ffffffffffffffffffffffffffffffffffffffff16021790555060408201518160020155606082015181600301556080820151816004015560a0820151816005015560c0820151816006015560e08201518160070160006101000a81548160ff021916908360038111156113f257fe5b021790555061010082015181600801906000191690556101208201518160090155905050600560003373ffffffffffffffffffffffffffffffffffffffff1673ffffffffffffffffffffffffffffffffffffffff168152602001908152602001600020805480600101828161146791906121a4565b91600052602060002090016000836101000151909190915090600019169055507fde2c0e5cded59e6aa128ac8a924e36ac8f0a76a3fea5cbd58f5278318ebca44e8161010001513383604001516040518084600019166000191681526020018373ffffffffffffffffffffffffffffffffffffffff1673ffffffffffffffffffffffffffffffffffffffff168152602001828152602001807f6c6f616e20617661696c65640000000000000000000000000000000000000000815250602001935050505060405180910390a1600192505050919050565b61156c336000357fffffffff0000000000000000000000000000000000000000000000000000000016611c3f565b151561157757600080fd5b60008060043591506024359050806000191682600019163373ffffffffffffffffffffffffffffffffffffffff166000357fffffffff00000000000000000000000000000000000000000000000000000000167bffffffffffffffffffffffffffffffffffffffffffffffffffffffff19163460003660405180848152602001806020018281038252848482818152602001925080828437820191505094505050505060405180910390a46000600160146101000a81548160ff0219169083151502179055505050565b6000809054906101000a900473ffffffffffffffffffffffffffffffffffffffff1681565b60046020528060005260406000206000915090508060000154908060010160009054906101000a900473ffffffffffffffffffffffffffffffffffffffff16908060020154908060030154908060040154908060050154908060060154908060070160009054906101000a900460ff1690806008015490806009015490508a565b6000600160149054906101000a900460ff1615151561170557600080fd5b611733336000357fffffffff0000000000000000000000000000000000000000000000000000000016611c3f565b151561173e57600080fd5b81600260006101000a81548173ffffffffffffffffffffffffffffffffffffffff021916908373ffffffffffffffffffffffffffffffffffffffff16021790555060019050919050565b600080600160149054906101000a900460ff161515156117a757600080fd5b60046000846000191660001916815260200190815260200160002090503373ffffffffffffffffffffffffffffffffffffffff168160010160009054906101000a900473ffffffffffffffffffffffffffffffffffffffff1673ffffffffffffffffffffffffffffffffffffffff1614151561182257600080fd5b426118d98260050154600360009054906101000a900473ffffffffffffffffffffffffffffffffffffffff1673ffffffffffffffffffffffffffffffffffffffff16631348ed5e6000604051602001526040518163ffffffff167c0100000000000000000000000000000000000000000000000000000000028152600401602060405180830381600087803b15156118b957600080fd5b6102c65a03f115156118ca57600080fd5b50505060405180519050612002565b101515156118e657600080fd5b346118f084610a61565b1415156118fc57600080fd5b60028160070160006101000a81548160ff0219169083600381111561191d57fe5b0217905550348160030181905550428160040181905550600260009054906101000a900473ffffffffffffffffffffffffffffffffffffffff1673ffffffffffffffffffffffffffffffffffffffff16635ac6d8ab33836002015484600301546000604051602001526040518463ffffffff167c0100000000000000000000000000000000000000000000000000000000028152600401808473ffffffffffffffffffffffffffffffffffffffff1673ffffffffffffffffffffffffffffffffffffffff1681526020018381526020018281526020019350505050602060405180830381600087803b1515611a1157600080fd5b6102c65a03f11515611a2257600080fd5b505050604051805190501515611a3757600080fd5b600560003373ffffffffffffffffffffffffffffffffffffffff1673ffffffffffffffffffffffffffffffffffffffff1681526020019081526020016000206001600560003373ffffffffffffffffffffffffffffffffffffffff1673ffffffffffffffffffffffffffffffffffffffff1681526020019081526020016000208054905003815481101515611ac857fe5b906000526020600020900154600560003373ffffffffffffffffffffffffffffffffffffffff1673ffffffffffffffffffffffffffffffffffffffff1681526020019081526020016000208260090154815481101515611b2457fe5b90600052602060002090018160001916905550600560003373ffffffffffffffffffffffffffffffffffffffff1673ffffffffffffffffffffffffffffffffffffffff168152602001908152602001600020805480919060019003611b8991906121d0565b507fde2c0e5cded59e6aa128ac8a924e36ac8f0a76a3fea5cbd58f5278318ebca44e81600801543383600301546040518084600019166000191681526020018373ffffffffffffffffffffffffffffffffffffffff1673ffffffffffffffffffffffffffffffffffffffff168152602001828152602001807f6c6f616e20636c6f736564000000000000000000000000000000000000000000815250602001935050505060405180910390a16001915050919050565b60003073ffffffffffffffffffffffffffffffffffffffff168373ffffffffffffffffffffffffffffffffffffffff161415611c7e5760019050611e98565b600160009054906101000a900473ffffffffffffffffffffffffffffffffffffffff1673ffffffffffffffffffffffffffffffffffffffff168373ffffffffffffffffffffffffffffffffffffffff161415611cdd5760019050611e98565b600073ffffffffffffffffffffffffffffffffffffffff166000809054906101000a900473ffffffffffffffffffffffffffffffffffffffff1673ffffffffffffffffffffffffffffffffffffffff161415611d3c5760009050611e98565b6000809054906101000a900473ffffffffffffffffffffffffffffffffffffffff1673ffffffffffffffffffffffffffffffffffffffff1663b70096138430856000604051602001526040518463ffffffff167c0100000000000000000000000000000000000000000000000000000000028152600401808473ffffffffffffffffffffffffffffffffffffffff1673ffffffffffffffffffffffffffffffffffffffff1681526020018373ffffffffffffffffffffffffffffffffffffffff1673ffffffffffffffffffffffffffffffffffffffff168152602001827bffffffffffffffffffffffffffffffffffffffffffffffffffffffff19167bffffffffffffffffffffffffffffffffffffffffffffffffffffffff191681526020019350505050602060405180830381600087803b1515611e7a57600080fd5b6102c65a03f11515611e8b57600080fd5b5050506040518051905090505b92915050565b60008282840391508111151515611eb457600080fd5b92915050565b600081611ee4611ed285670de0b6b3a76400006120e8565b600285811515611ede57fe5b04612002565b811515611eed57fe5b04905092915050565b6000611fb6611f058484611fbe565b600360009054906101000a900473ffffffffffffffffffffffffffffffffffffffff1673ffffffffffffffffffffffffffffffffffffffff1663313ce5676000604051602001526040518163ffffffff167c0100000000000000000000000000000000000000000000000000000000028152600401602060405180830381600087803b1515611f9357600080fd5b6102c65a03f11515611fa457600080fd5b50505060405180519050600a0a611eba565b905092915050565b6000670de0b6b3a7640000611ff0611fd685856120e8565b6002670de0b6b3a7640000811515611fea57fe5b04612002565b811515611ff957fe5b04905092915050565b6000828284019150811015151561201857600080fd5b92915050565b600030878787878787604051808873ffffffffffffffffffffffffffffffffffffffff1673ffffffffffffffffffffffffffffffffffffffff166c010000000000000000000000000281526014018781526020018673ffffffffffffffffffffffffffffffffffffffff1673ffffffffffffffffffffffffffffffffffffffff166c01000000000000000000000000028152601401858152602001848152602001838152602001828152602001975050505050505050604051809103902090509695505050505050565b6000808214806121075750828283850292508281151561210457fe5b04145b151561211257600080fd5b92915050565b602060405190810160405280600081525090565b6101406040519081016040528060008152602001600073ffffffffffffffffffffffffffffffffffffffff16815260200160008152602001600081526020016000815260200160008152602001600081526020016000600381111561218d57fe5b815260200160008019168152602001600081525090565b8154818355818115116121cb578183600052602060002091820191016121ca91906121fc565b5b505050565b8154818355818115116121f7578183600052602060002091820191016121f691906121fc565b5b505050565b61221e91905b8082111561221a576000816000905550600101612202565b5090565b905600a165627a7a72305820e5bd4b14a3081042a54e31caf5998529b797cbdc3441abc6e5ab42431f16b5a10029",
  "source": "pragma solidity ^0.4.2;\n\nimport './helpers/math.sol';\nimport './helpers/stop.sol';\n\nimport './Wallet.sol';\nimport \"./NetworkParameters.sol\";\n\n/**\n    @title LoanManager\n    @notice The LoanManager contract inherits the DSMath & DSStop contracts,\n        and manages loans on Lendroid.\n */\ncontract LoanManager is DSMath, DSStop {\n\n    Wallet public LendroidWallet;\n    NetworkParameters public LendroidNetworkParameters;\n\n    enum Status {\n        UNISSUED,\n        ACTIVE,\n        CLOSED,\n        DEFAULTED\n    }\n\n    struct Loan {\n        uint timestamp;\n        address borrower;\n        uint amount;\n        uint amountPaid;\n        uint lastUpdated;\n        uint expiresOn;\n        uint interestRate;\n        Status status;\n        bytes32 loanHash;\n        uint loanId;\n    }\n\n    mapping (bytes32 => Loan) public loans;\n    mapping (address => bytes32[]) borrowedLoans;\n\n    event LogLoanUpdated(\n        bytes32 _loanHash,  // The Hash of the Loan\n        address _address,   // The address that caused the action\n        uint256 _amount,    // The amount associated with the action\n        bytes32 _action     // The tyoe of action: \"loan availed\", \"loan closed\"\n    );\n\n    modifier onlyLendroidWallet() {\n        require(msg.sender == address(LendroidWallet));\n        _;\n    }\n\n    function percentOf(uint _quantity, uint _percentage) internal view returns (uint256){\n        return wdiv(wmul(_quantity, _percentage), 10 ** LendroidNetworkParameters.decimals());\n    }\n\n    /**\n        @dev Throws if called by any account.\n    */\n    function() public {\n        revert();\n    }\n\n    /// @dev Allows owner to set the NetworkParameters contract.\n    /// @param _address Address of the NetworkParameters contract.\n    function setLendroidNetworkParameters(address _address)\n        public\n        stoppable\n        auth\n        returns (bool)\n    {\n        LendroidNetworkParameters = NetworkParameters(_address);\n        return true;\n    }\n\n    /// @dev Allows owner to set the Wallet contract.\n    /// @param _address Address of the Wallet contract.\n    function setLendroidWallet(address _address)\n        public\n        stoppable\n        auth\n        returns (bool)\n    {\n        LendroidWallet = Wallet(_address);\n        return true;\n    }\n\n    /**\n        @notice Avail a loan\n        @return true the loan was successfully created\n    */\n    function availLoan(\n            uint _loanAmount\n        )\n        public\n        stoppable\n        returns (bool)\n    {\n        // TODO: Check if borrower account is healthy\n        var _borrowableAmount = LendroidWallet.getMaximumBorrowableAmount(msg.sender);\n        require(_borrowableAmount >= _loanAmount);\n        require(LendroidWallet.encumberCollateral(msg.sender, _loanAmount));\n        // Set loan fields and save loan\n        Loan memory loan;\n        loan.timestamp = now;\n        loan.borrower = msg.sender;\n        loan.amount = _loanAmount;\n        loan.expiresOn = now + LendroidNetworkParameters.maxLoanPeriodDays();\n        loan.interestRate = LendroidNetworkParameters.interestRate();\n        loan.loanId = borrowedLoans[msg.sender].length;\n        loan.status = Status.ACTIVE;\n\n        loan.loanHash = getLoanHash(\n            loan.timestamp,\n            loan.borrower,\n            loan.amount,\n            loan.expiresOn,\n            loan.interestRate,\n            loan.loanId\n        );\n        loans[loan.loanHash] = loan;\n        borrowedLoans[msg.sender].push(loan.loanHash);\n        // msg.sender.transfer(loan.amount);\n        LogLoanUpdated(\n            loan.loanHash,  // The Hash of the Loan\n            msg.sender,   // The address that caused the action\n            loan.amount,    // The amount associated with the action\n            \"loan availed\"     // The tyoe of action: \"loan availed\", \"loan closed\"\n        );\n        return true;\n    }\n\n    /**\n        @param _loanHash the hash of the loan that has to be closed\n        @return true the loan was successfully closed\n    */\n    function closeLoan(bytes32 _loanHash)\n        public\n        payable\n        stoppable\n        returns (bool)\n    {\n        // TODO: Check if borrower account is healthy\n        // Get Active loan based on hash\n        Loan storage activeLoan = loans[_loanHash];\n        // Validations\n        // Verify borrower\n        require(activeLoan.borrower == msg.sender);\n        // Verify expiry date\n        require(add(activeLoan.expiresOn, LendroidNetworkParameters.gracePeriodDays()) >= now);\n        // Verify interest\n        require(amountOwed(_loanHash) == msg.value);\n        // Archive the active loan\n        activeLoan.status = Status.CLOSED;\n        activeLoan.amountPaid = msg.value;\n        activeLoan.lastUpdated = now;\n        require(LendroidWallet.unEncumberCollateral(\n            msg.sender,\n            activeLoan.amount,\n            activeLoan.amountPaid\n        ));\n        borrowedLoans[msg.sender][activeLoan.loanId] = borrowedLoans[msg.sender][borrowedLoans[msg.sender].length - 1];\n        borrowedLoans[msg.sender].length--;\n        LogLoanUpdated(\n            activeLoan.loanHash,  // The Hash of the Loan\n            msg.sender,   // The address that caused the action\n            activeLoan.amountPaid,    // The amount associated with the action\n            \"loan closed\"     // The tyoe of action: \"loan availed\", \"loan closed\"\n        );\n\n        return true;\n    }\n\n    /// @return Keccak-256 hash of loan.\n    function getLoanHash(\n            uint timestamp,\n            address borrower,\n            uint amount,\n            uint expiresOn,\n            uint interestRate,\n            uint loanId\n        )\n        internal\n        constant\n        returns (bytes32)\n    {\n        return keccak256(\n            address(this),\n            timestamp,\n            borrower,\n            amount,\n            expiresOn,\n            interestRate,\n            loanId\n        );\n    }\n\n    /**\n        @param _loanHash the hash of the loan whose amount is owed\n        @return uint the owed amount\n    */\n    function amountOwed(bytes32 _loanHash)\n        public\n        stoppable\n        constant\n        returns (uint)\n    {\n        Loan storage activeLoan = loans[_loanHash];\n        uint daysSinceLoan = wdiv(sub(now, activeLoan.timestamp), wdiv(86400, 3600));\n        uint interestAccrued = wmul(percentOf(activeLoan.amount, LendroidNetworkParameters.interestRate()), daysSinceLoan);\n        if (activeLoan.expiresOn < now) {\n            return 0;\n        }\n        return add(interestAccrued, activeLoan.amount);\n    }\n\n    /**\n        @param _loanHash the hash of the loan whose interest is owed\n        @return uint the owed interest\n    */\n    function unRealizedLendingFee(bytes32 _loanHash)\n        public\n        stoppable\n        constant\n        returns (uint)\n    {\n        Loan storage activeLoan = loans[_loanHash];\n        uint daysSinceLoan = wdiv(sub(now, activeLoan.timestamp), wdiv(86400, 3600));\n\n        return wmul(percentOf(activeLoan.amount, LendroidNetworkParameters.interestRate()), daysSinceLoan);\n    }\n\n    /**\n        @param _borrower the address of the account that has borrowed loans\n        @return uint the total owed amount\n    */\n    function unRealizedLendingFees(address _borrower)\n        public\n        stoppable\n        onlyLendroidWallet\n        constant\n        returns (uint)\n    {\n        uint totalInterestAccrued = 0;\n        for (uint loanId = 0; loanId < borrowedLoans[_borrower].length; loanId++) {\n            totalInterestAccrued = add(totalInterestAccrued, unRealizedLendingFee(borrowedLoans[_borrower][loanId]));\n        }\n\n        return totalInterestAccrued;\n    }\n\n    /**\n        @param _borrower the address that has borrowed loans\n        @return bytes32[] array of loan hashes\n    */\n    function loansBorrowed(address _borrower)\n        public\n        stoppable\n        constant\n        returns (bytes32[]) {\n            return borrowedLoans[_borrower];\n        }\n\n}\n",
  "sourcePath": "/Users/vii/Desktop/lendroid/development/protocol-demo/contracts/LoanManager.sol",
  "compiler": {
    "name": "solc",
    "version": "0.4.18+commit.9cf6e910.Emscripten.clang"
  },
  "schemaVersion": "1.0.1",
  "updatedAt": "2017-11-19T15:58:31.255Z"
}