{
  "contractName": "LoanManager",
  "abi": [
    {
      "constant": false,
      "inputs": [],
      "name": "stop",
      "outputs": [],
      "payable": false,
      "stateMutability": "nonpayable",
      "type": "function"
    },
    {
      "constant": false,
      "inputs": [],
      "name": "refillBalance",
      "outputs": [
        {
          "name": "",
          "type": "bool"
        }
      ],
      "payable": true,
      "stateMutability": "payable",
      "type": "function"
    },
    {
      "constant": true,
      "inputs": [
        {
          "name": "timestamp",
          "type": "uint256"
        },
        {
          "name": "borrower",
          "type": "address"
        },
        {
          "name": "amount",
          "type": "uint256"
        },
        {
          "name": "expiresOn",
          "type": "uint256"
        },
        {
          "name": "interestRate",
          "type": "uint256"
        }
      ],
      "name": "getLoanHash",
      "outputs": [
        {
          "name": "",
          "type": "bytes32"
        }
      ],
      "payable": false,
      "stateMutability": "view",
      "type": "function"
    },
    {
      "constant": false,
      "inputs": [
        {
          "name": "owner_",
          "type": "address"
        }
      ],
      "name": "setOwner",
      "outputs": [],
      "payable": false,
      "stateMutability": "nonpayable",
      "type": "function"
    },
    {
      "constant": true,
      "inputs": [],
      "name": "LendroidWallet",
      "outputs": [
        {
          "name": "",
          "type": "address"
        }
      ],
      "payable": false,
      "stateMutability": "view",
      "type": "function"
    },
    {
      "constant": true,
      "inputs": [],
      "name": "LendroidNetworkParameters",
      "outputs": [
        {
          "name": "",
          "type": "address"
        }
      ],
      "payable": false,
      "stateMutability": "view",
      "type": "function"
    },
    {
      "constant": true,
      "inputs": [
        {
          "name": "_loanHash",
          "type": "bytes32"
        }
      ],
      "name": "amountOwed",
      "outputs": [
        {
          "name": "",
          "type": "uint256"
        }
      ],
      "payable": false,
      "stateMutability": "view",
      "type": "function"
    },
    {
      "constant": true,
      "inputs": [],
      "name": "stopped",
      "outputs": [
        {
          "name": "",
          "type": "bool"
        }
      ],
      "payable": false,
      "stateMutability": "view",
      "type": "function"
    },
    {
      "constant": false,
      "inputs": [],
      "name": "availLoan",
      "outputs": [
        {
          "name": "",
          "type": "bool"
        }
      ],
      "payable": false,
      "stateMutability": "nonpayable",
      "type": "function"
    },
    {
      "constant": false,
      "inputs": [
        {
          "name": "authority_",
          "type": "address"
        }
      ],
      "name": "setAuthority",
      "outputs": [],
      "payable": false,
      "stateMutability": "nonpayable",
      "type": "function"
    },
    {
      "constant": false,
      "inputs": [
        {
          "name": "_address",
          "type": "address"
        }
      ],
      "name": "setLendroidNetworkParameters",
      "outputs": [
        {
          "name": "",
          "type": "bool"
        }
      ],
      "payable": false,
      "stateMutability": "nonpayable",
      "type": "function"
    },
    {
      "constant": true,
      "inputs": [],
      "name": "owner",
      "outputs": [
        {
          "name": "",
          "type": "address"
        }
      ],
      "payable": false,
      "stateMutability": "view",
      "type": "function"
    },
    {
      "constant": false,
      "inputs": [],
      "name": "start",
      "outputs": [],
      "payable": false,
      "stateMutability": "nonpayable",
      "type": "function"
    },
    {
      "constant": true,
      "inputs": [],
      "name": "authority",
      "outputs": [
        {
          "name": "",
          "type": "address"
        }
      ],
      "payable": false,
      "stateMutability": "view",
      "type": "function"
    },
    {
      "constant": true,
      "inputs": [
        {
          "name": "",
          "type": "bytes32"
        }
      ],
      "name": "loans",
      "outputs": [
        {
          "name": "timestamp",
          "type": "uint256"
        },
        {
          "name": "borrower",
          "type": "address"
        },
        {
          "name": "amount",
          "type": "uint256"
        },
        {
          "name": "amountPaid",
          "type": "uint256"
        },
        {
          "name": "lastUpdated",
          "type": "uint256"
        },
        {
          "name": "expiresOn",
          "type": "uint256"
        },
        {
          "name": "interestRate",
          "type": "uint256"
        },
        {
          "name": "status",
          "type": "uint8"
        },
        {
          "name": "loanHash",
          "type": "bytes32"
        }
      ],
      "payable": false,
      "stateMutability": "view",
      "type": "function"
    },
    {
      "constant": false,
      "inputs": [
        {
          "name": "_amount",
          "type": "uint256"
        }
      ],
      "name": "withdrawBalance",
      "outputs": [
        {
          "name": "",
          "type": "bool"
        }
      ],
      "payable": false,
      "stateMutability": "nonpayable",
      "type": "function"
    },
    {
      "constant": false,
      "inputs": [
        {
          "name": "_address",
          "type": "address"
        }
      ],
      "name": "setLendroidWallet",
      "outputs": [
        {
          "name": "",
          "type": "bool"
        }
      ],
      "payable": false,
      "stateMutability": "nonpayable",
      "type": "function"
    },
    {
      "constant": false,
      "inputs": [
        {
          "name": "_loanHash",
          "type": "bytes32"
        }
      ],
      "name": "closeLoan",
      "outputs": [
        {
          "name": "",
          "type": "bool"
        }
      ],
      "payable": true,
      "stateMutability": "payable",
      "type": "function"
    },
    {
      "payable": false,
      "stateMutability": "nonpayable",
      "type": "fallback"
    },
    {
      "anonymous": false,
      "inputs": [
        {
          "indexed": false,
          "name": "_loanHash",
          "type": "bytes32"
        },
        {
          "indexed": false,
          "name": "_address",
          "type": "address"
        },
        {
          "indexed": false,
          "name": "_amount",
          "type": "uint256"
        },
        {
          "indexed": false,
          "name": "_action",
          "type": "bytes32"
        }
      ],
      "name": "LogLoanUpdated",
      "type": "event"
    },
    {
      "anonymous": false,
      "inputs": [
        {
          "indexed": true,
          "name": "authority",
          "type": "address"
        }
      ],
      "name": "LogSetAuthority",
      "type": "event"
    },
    {
      "anonymous": false,
      "inputs": [
        {
          "indexed": true,
          "name": "owner",
          "type": "address"
        }
      ],
      "name": "LogSetOwner",
      "type": "event"
    },
    {
      "anonymous": true,
      "inputs": [
        {
          "indexed": true,
          "name": "sig",
          "type": "bytes4"
        },
        {
          "indexed": true,
          "name": "guy",
          "type": "address"
        },
        {
          "indexed": true,
          "name": "foo",
          "type": "bytes32"
        },
        {
          "indexed": true,
          "name": "bar",
          "type": "bytes32"
        },
        {
          "indexed": false,
          "name": "wad",
          "type": "uint256"
        },
        {
          "indexed": false,
          "name": "fax",
          "type": "bytes"
        }
      ],
      "name": "LogNote",
      "type": "event"
    }
  ],
  "bytecode": "0x606060405233600160006101000a81548173ffffffffffffffffffffffffffffffffffffffff021916908373ffffffffffffffffffffffffffffffffffffffff1602179055503373ffffffffffffffffffffffffffffffffffffffff167fce241d7ca1f669fee44b6fc00b8eba2df3bb514eed0f6f668f8f89096e81ed9460405160405180910390a2611d5a806100976000396000f3006060604052600436106100fc576000357c0100000000000000000000000000000000000000000000000000000000900463ffffffff16806307da68f51461010c57806309af014f146101215780630ddcad5f1461014357806313af4035146101bc5780632951bca3146101f557806353ebc3d81461024a57806358db57ed1461029f57806375f12b21146102da578063794e9548146103075780637a9e5e4b14610334578063885c43cd1461036d5780638da5cb5b146103be578063be9a655514610413578063bf7e214f14610428578063c4a908151461047d578063da76d5cd14610532578063e9831f8a1461056d578063f4ff7d2d146105be575b341561010757600080fd5b600080fd5b341561011757600080fd5b61011f6105f2565b005b6101296106f4565b604051808215151515815260200191505060405180910390f35b341561014e57600080fd5b61019e600480803590602001909190803573ffffffffffffffffffffffffffffffffffffffff16906020019091908035906020019091908035906020019091908035906020019091905050610736565b60405180826000191660001916815260200191505060405180910390f35b34156101c757600080fd5b6101f3600480803573ffffffffffffffffffffffffffffffffffffffff169060200190919050506107f7565b005b341561020057600080fd5b6102086108d9565b604051808273ffffffffffffffffffffffffffffffffffffffff1673ffffffffffffffffffffffffffffffffffffffff16815260200191505060405180910390f35b341561025557600080fd5b61025d6108ff565b604051808273ffffffffffffffffffffffffffffffffffffffff1673ffffffffffffffffffffffffffffffffffffffff16815260200191505060405180910390f35b34156102aa57600080fd5b6102c4600480803560001916906020019091905050610925565b6040518082815260200191505060405180910390f35b34156102e557600080fd5b6102ed610a68565b604051808215151515815260200191505060405180910390f35b341561031257600080fd5b61031a610a7b565b604051808215151515815260200191505060405180910390f35b341561033f57600080fd5b61036b600480803573ffffffffffffffffffffffffffffffffffffffff1690602001909190505061105b565b005b341561037857600080fd5b6103a4600480803573ffffffffffffffffffffffffffffffffffffffff1690602001909190505061113b565b604051808215151515815260200191505060405180910390f35b34156103c957600080fd5b6103d16111dc565b604051808273ffffffffffffffffffffffffffffffffffffffff1673ffffffffffffffffffffffffffffffffffffffff16815260200191505060405180910390f35b341561041e57600080fd5b610426611202565b005b341561043357600080fd5b61043b611305565b604051808273ffffffffffffffffffffffffffffffffffffffff1673ffffffffffffffffffffffffffffffffffffffff16815260200191505060405180910390f35b341561048857600080fd5b6104a260048080356000191690602001909190505061132a565b604051808a81526020018973ffffffffffffffffffffffffffffffffffffffff1673ffffffffffffffffffffffffffffffffffffffff16815260200188815260200187815260200186815260200185815260200184815260200183600381111561050857fe5b60ff1681526020018260001916600019168152602001995050505050505050505060405180910390f35b341561053d57600080fd5b61055360048080359060200190919050506113a5565b604051808215151515815260200191505060405180910390f35b341561057857600080fd5b6105a4600480803573ffffffffffffffffffffffffffffffffffffffff16906020019091905050611429565b604051808215151515815260200191505060405180910390f35b6105d86004808035600019169060200190919050506114ca565b604051808215151515815260200191505060405180910390f35b610620336000357fffffffff000000000000000000000000000000000000000000000000000000001661190e565b151561062b57600080fd5b60008060043591506024359050806000191682600019163373ffffffffffffffffffffffffffffffffffffffff166000357fffffffff00000000000000000000000000000000000000000000000000000000167bffffffffffffffffffffffffffffffffffffffffffffffffffffffff19163460003660405180848152602001806020018281038252848482818152602001925080828437820191505094505050505060405180910390a460018060146101000a81548160ff0219169083151502179055505050565b6000610724336000357fffffffff000000000000000000000000000000000000000000000000000000001661190e565b151561072f57600080fd5b6001905090565b6000308686868686604051808773ffffffffffffffffffffffffffffffffffffffff1673ffffffffffffffffffffffffffffffffffffffff166c010000000000000000000000000281526014018681526020018573ffffffffffffffffffffffffffffffffffffffff1673ffffffffffffffffffffffffffffffffffffffff166c0100000000000000000000000002815260140184815260200183815260200182815260200196505050505050506040518091039020905095945050505050565b610825336000357fffffffff000000000000000000000000000000000000000000000000000000001661190e565b151561083057600080fd5b80600160006101000a81548173ffffffffffffffffffffffffffffffffffffffff021916908373ffffffffffffffffffffffffffffffffffffffff160217905550600160009054906101000a900473ffffffffffffffffffffffffffffffffffffffff1673ffffffffffffffffffffffffffffffffffffffff167fce241d7ca1f669fee44b6fc00b8eba2df3bb514eed0f6f668f8f89096e81ed9460405160405180910390a250565b600260009054906101000a900473ffffffffffffffffffffffffffffffffffffffff1681565b600360009054906101000a900473ffffffffffffffffffffffffffffffffffffffff1681565b600080600080600160149054906101000a900460ff1615151561094757600080fd5b60046000866000191660001916815260200190815260200160002092506109778360000154420362015180611b6d565b9150610a38610a328460020154600360009054906101000a900473ffffffffffffffffffffffffffffffffffffffff1673ffffffffffffffffffffffffffffffffffffffff1663c935e1ab6000604051602001526040518163ffffffff167c0100000000000000000000000000000000000000000000000000000000028152600401602060405180830381600087803b1515610a1257600080fd5b6102c65a03f11515610a2357600080fd5b50505060405180519050611ba9565b83611c71565b90504283600501541015610a4f5760009350610a60565b610a5d818460020154611ca1565b93505b505050919050565b600160149054906101000a900460ff1681565b600080610a86611cbd565b600160149054906101000a900460ff16151515610aa257600080fd5b600260009054906101000a900473ffffffffffffffffffffffffffffffffffffffff1673ffffffffffffffffffffffffffffffffffffffff1663b11b97f5336000604051602001526040518263ffffffff167c0100000000000000000000000000000000000000000000000000000000028152600401808273ffffffffffffffffffffffffffffffffffffffff1673ffffffffffffffffffffffffffffffffffffffff168152602001915050602060405180830381600087803b1515610b6757600080fd5b6102c65a03f11515610b7857600080fd5b505050604051805190509150600260009054906101000a900473ffffffffffffffffffffffffffffffffffffffff1673ffffffffffffffffffffffffffffffffffffffff16633c40b30833846000604051602001526040518363ffffffff167c0100000000000000000000000000000000000000000000000000000000028152600401808373ffffffffffffffffffffffffffffffffffffffff1673ffffffffffffffffffffffffffffffffffffffff16815260200182815260200192505050602060405180830381600087803b1515610c5157600080fd5b6102c65a03f11515610c6257600080fd5b505050604051805190501515610c7757600080fd5b4281600001818152505033816020019073ffffffffffffffffffffffffffffffffffffffff16908173ffffffffffffffffffffffffffffffffffffffff168152505081816040018181525050600360009054906101000a900473ffffffffffffffffffffffffffffffffffffffff1673ffffffffffffffffffffffffffffffffffffffff166326e86cd76000604051602001526040518163ffffffff167c0100000000000000000000000000000000000000000000000000000000028152600401602060405180830381600087803b1515610d5157600080fd5b6102c65a03f11515610d6257600080fd5b5050506040518051905042018160a0018181525050600360009054906101000a900473ffffffffffffffffffffffffffffffffffffffff1673ffffffffffffffffffffffffffffffffffffffff1663c935e1ab6000604051602001526040518163ffffffff167c0100000000000000000000000000000000000000000000000000000000028152600401602060405180830381600087803b1515610e0557600080fd5b6102c65a03f11515610e1657600080fd5b505050604051805190508160c001818152505060018160e001906003811115610e3b57fe5b90816003811115610e4857fe5b81525050610e6d8160000151826020015183604001518460a001518560c00151610736565b81610100019060001916908160001916815250508060046000836101000151600019166000191681526020019081526020016000206000820151816000015560208201518160010160006101000a81548173ffffffffffffffffffffffffffffffffffffffff021916908373ffffffffffffffffffffffffffffffffffffffff16021790555060408201518160020155606082015181600301556080820151816004015560a0820151816005015560c0820151816006015560e08201518160070160006101000a81548160ff02191690836003811115610f4957fe5b021790555061010082015181600801906000191690559050503373ffffffffffffffffffffffffffffffffffffffff166108fc82604001519081150290604051600060405180830381858888f193505050501515610fa657600080fd5b7fde2c0e5cded59e6aa128ac8a924e36ac8f0a76a3fea5cbd58f5278318ebca44e8161010001513383604001516040518084600019166000191681526020018373ffffffffffffffffffffffffffffffffffffffff1673ffffffffffffffffffffffffffffffffffffffff168152602001828152602001807f6c6f616e20617661696c65640000000000000000000000000000000000000000815250602001935050505060405180910390a160019250505090565b611089336000357fffffffff000000000000000000000000000000000000000000000000000000001661190e565b151561109457600080fd5b806000806101000a81548173ffffffffffffffffffffffffffffffffffffffff021916908373ffffffffffffffffffffffffffffffffffffffff1602179055506000809054906101000a900473ffffffffffffffffffffffffffffffffffffffff1673ffffffffffffffffffffffffffffffffffffffff167f1abebea81bfa2637f28358c371278fb15ede7ea8dd28d2e03b112ff6d936ada460405160405180910390a250565b6000600160149054906101000a900460ff1615151561115957600080fd5b611187336000357fffffffff000000000000000000000000000000000000000000000000000000001661190e565b151561119257600080fd5b81600360006101000a81548173ffffffffffffffffffffffffffffffffffffffff021916908373ffffffffffffffffffffffffffffffffffffffff16021790555060019050919050565b600160009054906101000a900473ffffffffffffffffffffffffffffffffffffffff1681565b611230336000357fffffffff000000000000000000000000000000000000000000000000000000001661190e565b151561123b57600080fd5b60008060043591506024359050806000191682600019163373ffffffffffffffffffffffffffffffffffffffff166000357fffffffff00000000000000000000000000000000000000000000000000000000167bffffffffffffffffffffffffffffffffffffffffffffffffffffffff19163460003660405180848152602001806020018281038252848482818152602001925080828437820191505094505050505060405180910390a46000600160146101000a81548160ff0219169083151502179055505050565b6000809054906101000a900473ffffffffffffffffffffffffffffffffffffffff1681565b60046020528060005260406000206000915090508060000154908060010160009054906101000a900473ffffffffffffffffffffffffffffffffffffffff16908060020154908060030154908060040154908060050154908060060154908060070160009054906101000a900460ff16908060080154905089565b60006113d5336000357fffffffff000000000000000000000000000000000000000000000000000000001661190e565b15156113e057600080fd5b3373ffffffffffffffffffffffffffffffffffffffff166108fc839081150290604051600060405180830381858888f19350505050151561142057600080fd5b60019050919050565b6000600160149054906101000a900460ff1615151561144757600080fd5b611475336000357fffffffff000000000000000000000000000000000000000000000000000000001661190e565b151561148057600080fd5b81600260006101000a81548173ffffffffffffffffffffffffffffffffffffffff021916908373ffffffffffffffffffffffffffffffffffffffff16021790555060019050919050565b600080600080600160149054906101000a900460ff161515156114ec57600080fd5b60046000866000191660001916815260200190815260200160002092503373ffffffffffffffffffffffffffffffffffffffff168360010160009054906101000a900473ffffffffffffffffffffffffffffffffffffffff1673ffffffffffffffffffffffffffffffffffffffff1614151561156757600080fd5b4261161e8460050154600360009054906101000a900473ffffffffffffffffffffffffffffffffffffffff1673ffffffffffffffffffffffffffffffffffffffff16631348ed5e6000604051602001526040518163ffffffff167c0100000000000000000000000000000000000000000000000000000000028152600401602060405180830381600087803b15156115fe57600080fd5b6102c65a03f1151561160f57600080fd5b50505060405180519050611ca1565b1015151561162b57600080fd5b61163e8360000154420362015180611b6d565b91506116ff6116f98460020154600360009054906101000a900473ffffffffffffffffffffffffffffffffffffffff1673ffffffffffffffffffffffffffffffffffffffff1663c935e1ab6000604051602001526040518163ffffffff167c0100000000000000000000000000000000000000000000000000000000028152600401602060405180830381600087803b15156116d957600080fd5b6102c65a03f115156116ea57600080fd5b50505060405180519050611ba9565b83611c71565b905034611710828560020154611ca1565b14151561171c57600080fd5b60028360070160006101000a81548160ff0219169083600381111561173d57fe5b0217905550348360030181905550428360040181905550600260009054906101000a900473ffffffffffffffffffffffffffffffffffffffff1673ffffffffffffffffffffffffffffffffffffffff16635ac6d8ab33856002015486600301546000604051602001526040518463ffffffff167c0100000000000000000000000000000000000000000000000000000000028152600401808473ffffffffffffffffffffffffffffffffffffffff1673ffffffffffffffffffffffffffffffffffffffff1681526020018381526020018281526020019350505050602060405180830381600087803b151561183157600080fd5b6102c65a03f1151561184257600080fd5b50505060405180519050151561185757600080fd5b7fde2c0e5cded59e6aa128ac8a924e36ac8f0a76a3fea5cbd58f5278318ebca44e83600801543385600301546040518084600019166000191681526020018373ffffffffffffffffffffffffffffffffffffffff1673ffffffffffffffffffffffffffffffffffffffff168152602001828152602001807f6c6f616e20636c6f736564000000000000000000000000000000000000000000815250602001935050505060405180910390a160019350505050919050565b60003073ffffffffffffffffffffffffffffffffffffffff168373ffffffffffffffffffffffffffffffffffffffff16141561194d5760019050611b67565b600160009054906101000a900473ffffffffffffffffffffffffffffffffffffffff1673ffffffffffffffffffffffffffffffffffffffff168373ffffffffffffffffffffffffffffffffffffffff1614156119ac5760019050611b67565b600073ffffffffffffffffffffffffffffffffffffffff166000809054906101000a900473ffffffffffffffffffffffffffffffffffffffff1673ffffffffffffffffffffffffffffffffffffffff161415611a0b5760009050611b67565b6000809054906101000a900473ffffffffffffffffffffffffffffffffffffffff1673ffffffffffffffffffffffffffffffffffffffff1663b70096138430856000604051602001526040518463ffffffff167c0100000000000000000000000000000000000000000000000000000000028152600401808473ffffffffffffffffffffffffffffffffffffffff1673ffffffffffffffffffffffffffffffffffffffff1681526020018373ffffffffffffffffffffffffffffffffffffffff1673ffffffffffffffffffffffffffffffffffffffff168152602001827bffffffffffffffffffffffffffffffffffffffffffffffffffffffff19167bffffffffffffffffffffffffffffffffffffffffffffffffffffffff191681526020019350505050602060405180830381600087803b1515611b4957600080fd5b6102c65a03f11515611b5a57600080fd5b5050506040518051905090505b92915050565b600081611b97611b8585670de0b6b3a7640000611c71565b600285811515611b9157fe5b04611ca1565b811515611ba057fe5b04905092915050565b6000611c69611bb88484611c71565b600360009054906101000a900473ffffffffffffffffffffffffffffffffffffffff1673ffffffffffffffffffffffffffffffffffffffff1663313ce5676000604051602001526040518163ffffffff167c0100000000000000000000000000000000000000000000000000000000028152600401602060405180830381600087803b1515611c4657600080fd5b6102c65a03f11515611c5757600080fd5b50505060405180519050600a0a611b6d565b905092915050565b600080821480611c9057508282838502925082811515611c8d57fe5b04145b1515611c9b57600080fd5b92915050565b60008282840191508110151515611cb757600080fd5b92915050565b6101206040519081016040528060008152602001600073ffffffffffffffffffffffffffffffffffffffff168152602001600081526020016000815260200160008152602001600081526020016000815260200160006003811115611d1e57fe5b81526020016000801916815250905600a165627a7a723058205377e49d32da8cfb33092e7fa4fab54f1cc2d2dd2d40ceb04cf39c118c0624730029",
  "source": "pragma solidity ^0.4.2;\r\n\r\nimport './math.sol';\r\nimport './stop.sol';\r\n\r\nimport './Wallet.sol';\r\nimport \"./NetworkParameters.sol\";\r\n\r\n/**\r\n    @title LoanManager\r\n    @notice The LoanManager contract inherits the Ownable contract, and manages loans on Lendroid.\r\n */\r\ncontract LoanManager is DSMath, DSStop {\r\n\r\n    Wallet public LendroidWallet;\r\n    NetworkParameters public LendroidNetworkParameters;\r\n\r\n    enum Status {\r\n        UNISSUED,\r\n        ACTIVE,\r\n        CLOSED,\r\n        DEFAULTED\r\n    }\r\n\r\n    struct Loan {\r\n        uint timestamp;\r\n        address borrower;\r\n        uint amount;\r\n        uint amountPaid;\r\n        uint lastUpdated;\r\n        uint expiresOn;\r\n        uint interestRate;\r\n        Status status;\r\n        bytes32 loanHash;\r\n    }\r\n\r\n    mapping (bytes32 => Loan) public loans;\r\n\r\n    event LogLoanUpdated(\r\n        bytes32 _loanHash,  // The Hash of the Loan\r\n        address _address,   // The address that caused the action\r\n        uint256 _amount,    // The amount associated with the action\r\n        bytes32 _action     // The tyoe of action: \"loan availed\", \"loan closed\"\r\n    );\r\n\r\n    function percentOf(uint _quantity, uint _percentage) internal returns (uint256){\r\n        return wdiv(mul(_quantity, _percentage), 10 ** LendroidNetworkParameters.decimals());\r\n    }\r\n\r\n    /**\r\n        @dev Throws if called by any account.\r\n    */\r\n    function() {\r\n        revert();\r\n    }\r\n\r\n    /// @dev Allows owner to set the NetworkParameters contract.\r\n    /// @param _address Address of the NetworkParameters contract.\r\n    function setLendroidNetworkParameters(address _address)\r\n        public\r\n        stoppable\r\n        auth\r\n        returns (bool) \r\n    {\r\n        LendroidNetworkParameters = NetworkParameters(_address);\r\n        return true;\r\n    }\r\n\r\n    /// @dev Allows owner to set the Wallet contract.\r\n    /// @param _address Address of the Wallet contract.\r\n    function setLendroidWallet(address _address)\r\n        public\r\n        stoppable\r\n        auth\r\n        returns (bool) \r\n    {\r\n        LendroidWallet = Wallet(_address);\r\n        return true;\r\n    }\r\n\r\n    /**\r\n        @notice Avail a loan\r\n        @return true the loan was successfully created\r\n    */\r\n    function availLoan() \r\n        public \r\n        stoppable\r\n        returns (bool) \r\n    {\r\n        // TODO: Check if borrower account is healthy\r\n        var _loanAmount = LendroidWallet.getMaximumBorrowableAmount(msg.sender);\r\n        require(LendroidWallet.encumberCollateral(msg.sender, _loanAmount));\r\n        // Set loan fields and save loan\r\n        Loan memory loan;\r\n        loan.timestamp = now;\r\n        loan.borrower = msg.sender;\r\n        loan.amount = _loanAmount;\r\n        loan.expiresOn = now + LendroidNetworkParameters.maxLoanPeriodDays();\r\n        loan.interestRate = LendroidNetworkParameters.interestRatePerDay();\r\n        loan.status = Status.ACTIVE;\r\n\r\n        loan.loanHash = getLoanHash(\r\n            loan.timestamp,\r\n            loan.borrower,\r\n            loan.amount,\r\n            loan.expiresOn,\r\n            loan.interestRate\r\n        );\r\n        loans[loan.loanHash] = loan;\r\n        msg.sender.transfer(loan.amount);\r\n        LogLoanUpdated(\r\n            loan.loanHash,  // The Hash of the Loan\r\n            msg.sender,   // The address that caused the action\r\n            loan.amount,    // The amount associated with the action\r\n            \"loan availed\"     // The tyoe of action: \"loan availed\", \"loan closed\"\r\n        );\r\n        return true;\r\n    }\r\n\r\n    /**\r\n        @param _loanHash the hash of the loan that has to be closed\r\n        @return true the loan was successfully closed\r\n    */\r\n    function closeLoan(bytes32 _loanHash) \r\n        public\r\n        payable \r\n        stoppable\r\n        returns (bool) \r\n    {\r\n        // TODO: Check if borrower account is healthy\r\n        // Get Active loan based on hash\r\n        Loan storage activeLoan = loans[_loanHash];\r\n        // Validations\r\n        // Verify borrower\r\n        require(activeLoan.borrower == msg.sender);\r\n        // Verify expiry date\r\n        require(add(activeLoan.expiresOn, LendroidNetworkParameters.gracePeriodDays()) >= now);\r\n        // Verify interest\r\n        uint daysSinceLoan = wdiv(now - activeLoan.timestamp, 86400);\r\n        uint interestAccrued = mul(percentOf(activeLoan.amount , LendroidNetworkParameters.interestRatePerDay()), daysSinceLoan);\r\n        require(add(interestAccrued, activeLoan.amount) == msg.value);\r\n        // Archive the active loan\r\n        activeLoan.status = Status.CLOSED;\r\n        activeLoan.amountPaid = msg.value;\r\n        activeLoan.lastUpdated = now;\r\n        require(LendroidWallet.unEncumberCollateral(\r\n            msg.sender,\r\n            activeLoan.amount,\r\n            activeLoan.amountPaid\r\n        ));\r\n        LogLoanUpdated(\r\n            activeLoan.loanHash,  // The Hash of the Loan\r\n            msg.sender,   // The address that caused the action\r\n            activeLoan.amountPaid,    // The amount associated with the action\r\n            \"loan closed\"     // The tyoe of action: \"loan availed\", \"loan closed\"\r\n        );\r\n        \r\n        return true;\r\n    }\r\n\r\n    /// @return Keccak-256 hash of loan.\r\n    function getLoanHash(\r\n            uint timestamp,\r\n            address borrower,\r\n            uint amount,\r\n            uint expiresOn,\r\n            uint interestRate\r\n        )\r\n        public\r\n        constant\r\n        returns (bytes32)\r\n    {\r\n        return keccak256(\r\n            address(this),\r\n            timestamp,\r\n            borrower,\r\n            amount,\r\n            expiresOn,\r\n            interestRate\r\n        );\r\n    }\r\n\r\n    /**\r\n        @param _loanHash the hash of the loan whose amount is owed\r\n        @return uint the owed amount\r\n    */\r\n    function amountOwed(bytes32 _loanHash) public stoppable constant returns (uint) {\r\n        Loan storage activeLoan = loans[_loanHash];\r\n        uint daysSinceLoan = wdiv(now - activeLoan.timestamp, 86400);\r\n        uint interestAccrued = mul(percentOf(activeLoan.amount, LendroidNetworkParameters.interestRatePerDay()), daysSinceLoan);\r\n        if (activeLoan.expiresOn < now) {\r\n            return 0;\r\n        }\r\n        return add(interestAccrued, activeLoan.amount);\r\n    }\r\n\r\n    /**\r\n        @dev Payable which can be called only by the contract owner.\r\n        @return true the contract's balance was successfully refilled\r\n    */\r\n    function refillBalance() payable auth returns (bool) {\r\n        return true;\r\n    }\r\n\r\n    /**\r\n        @dev Payable function which can be called only by the contract owner.\r\n        @return true the contract's balance was successfully withdrawn\r\n    */\r\n    function withdrawBalance(uint256 _amount) auth returns (bool) {\r\n        msg.sender.transfer(_amount);\r\n        return true;\r\n    }\r\n\r\n}",
  "sourcePath": "C:\\work\\programming\\ethereum\\lendroid\\protocol-demo\\contracts\\LoanManager.sol",
  "compiler": {
    "name": "solc",
    "version": "0.4.18+commit.9cf6e910.Emscripten.clang"
  },
  "schemaVersion": "1.0.1",
  "updatedAt": "2017-11-08T14:01:06.876Z"
}