{
  "contractName": "NetworkParameters",
  "abi": [
    {
      "constant": false,
      "inputs": [
        {
          "name": "_type",
          "type": "bytes32"
        },
        {
          "name": "_token",
          "type": "address"
        },
        {
          "name": "_index",
          "type": "uint256"
        }
      ],
      "name": "stop",
      "outputs": [
        {
          "name": "",
          "type": "uint256"
        }
      ],
      "payable": false,
      "stateMutability": "nonpayable",
      "type": "function"
    },
    {
      "constant": false,
      "inputs": [
        {
          "name": "_d",
          "type": "uint256"
        },
        {
          "name": "_index",
          "type": "uint256"
        }
      ],
      "name": "setGracePeriodDays",
      "outputs": [
        {
          "name": "",
          "type": "bool"
        }
      ],
      "payable": false,
      "stateMutability": "nonpayable",
      "type": "function"
    },
    {
      "constant": true,
      "inputs": [
        {
          "name": "_symbol",
          "type": "bytes32"
        },
        {
          "name": "_type",
          "type": "bytes32"
        }
      ],
      "name": "initialMargin",
      "outputs": [
        {
          "name": "",
          "type": "uint256"
        },
        {
          "name": "",
          "type": "bytes32"
        },
        {
          "name": "",
          "type": "bytes32"
        },
        {
          "name": "",
          "type": "uint256"
        },
        {
          "name": "",
          "type": "uint8"
        },
        {
          "name": "",
          "type": "uint256"
        }
      ],
      "payable": false,
      "stateMutability": "view",
      "type": "function"
    },
    {
      "constant": true,
      "inputs": [
        {
          "name": "_symbol",
          "type": "bytes32"
        },
        {
          "name": "_type",
          "type": "bytes32"
        }
      ],
      "name": "gracePeriodDays",
      "outputs": [
        {
          "name": "",
          "type": "uint256"
        },
        {
          "name": "",
          "type": "bytes32"
        },
        {
          "name": "",
          "type": "bytes32"
        },
        {
          "name": "",
          "type": "uint256"
        },
        {
          "name": "",
          "type": "uint8"
        },
        {
          "name": "",
          "type": "uint256"
        }
      ],
      "payable": false,
      "stateMutability": "view",
      "type": "function"
    },
    {
      "constant": false,
      "inputs": [
        {
          "name": "owner_",
          "type": "address"
        }
      ],
      "name": "setOwner",
      "outputs": [
        {
          "name": "",
          "type": "address"
        }
      ],
      "payable": false,
      "stateMutability": "nonpayable",
      "type": "function"
    },
    {
      "constant": false,
      "inputs": [
        {
          "name": "_token",
          "type": "address"
        },
        {
          "name": "_index",
          "type": "uint256"
        }
      ],
      "name": "removeToken",
      "outputs": [
        {
          "name": "",
          "type": "bool"
        }
      ],
      "payable": false,
      "stateMutability": "nonpayable",
      "type": "function"
    },
    {
      "constant": false,
      "inputs": [
        {
          "name": "_d",
          "type": "uint256"
        }
      ],
      "name": "setMaxLoanPeriodDays",
      "outputs": [
        {
          "name": "",
          "type": "bool"
        }
      ],
      "payable": false,
      "stateMutability": "nonpayable",
      "type": "function"
    },
    {
      "constant": true,
      "inputs": [
        {
          "name": "_symbol",
          "type": "bytes32"
        },
        {
          "name": "_name",
          "type": "bytes32"
        },
        {
          "name": "_symbol",
          "type": "bytes32"
        },
        {
          "name": "_decimals",
          "type": "uint256"
        },
        {
          "name": "_value",
          "type": "uint256"
        },
        {
          "name": "supportedTypes",
          "type": "bytes32[3]"
        }
      ],
      "name": "getTokenBySymbol",
      "outputs": [
        {
          "name": "",
          "type": "address"
        },
        {
          "name": "",
          "type": "bytes32"
        },
        {
          "name": "",
          "type": "bytes32"
        },
        {
          "name": "",
          "type": "uint256"
        },
        {
          "name": "",
          "type": "uint8"
        },
        {
          "name": "",
          "type": "uint256"
        }
      ],
      "payable": false,
      "stateMutability": "view",
      "type": "function"
    },
    {
      "constant": true,
      "inputs": [
        {
          "name": "",
          "type": "bytes32"
        },
        {
          "name": "",
          "type": "address"
        }
      ],
      "name": "liquidationMargin",
      "outputs": [
        {
          "name": "",
          "type": "uint256"
        },
        {
          "name": "name",
          "type": "bytes32"
        },
        {
          "name": "symbol",
          "type": "bytes32"
        },
        {
          "name": "decimals",
          "type": "uint256"
        },
        {
          "name": "status",
          "type": "uint8"
        },
        {
          "name": "value",
          "type": "uint256"
        }
      ],
      "payable": false,
      "stateMutability": "view",
      "type": "function"
    },
    {
      "constant": true,
      "inputs": [
        {
          "name": "",
          "type": "bytes32"
        }
      ],
      "name": "tokenBySymbol",
      "outputs": [
        {
          "name": "",
          "type": "address"
        }
      ],
      "payable": false,
      "stateMutability": "view",
      "type": "function"
    },
    {
      "constant": true,
      "inputs": [
        {
          "name": "_symbol",
          "type": "bytes32"
        },
        {
          "name": "_tokenTypes",
          "type": "bytes32[3]"
        }
      ],
      "name": "maxLoanPeriodDays",
      "outputs": [
        {
          "name": "",
          "type": "uint256"
        },
        {
          "name": "",
          "type": "bytes32"
        },
        {
          "name": "",
          "type": "bytes32"
        },
        {
          "name": "",
          "type": "uint256"
        },
        {
          "name": "",
          "type": "uint8"
        },
        {
          "name": "",
          "type": "uint256"
        }
      ],
      "payable": false,
      "stateMutability": "view",
      "type": "function"
    },
    {
      "constant": true,
      "inputs": [
        {
          "name": "",
          "type": "bytes32"
        },
        {
          "name": "_name",
          "type": "bytes32"
        },
        {
          "name": "_symbol",
          "type": "bytes32"
        },
        {
          "name": "_decimals",
          "type": "uint256"
        },
        {
          "name": "_value",
          "type": "uint256"
        },
        {
          "name": "_type",
          "type": "bytes32"
        }
      ],
      "name": "tradingTokens",
      "outputs": [
        {
          "name": "",
          "type": "bool"
        },
        {
          "name": "",
          "type": "bytes32"
        },
        {
          "name": "",
          "type": "bytes32"
        },
        {
          "name": "",
          "type": "uint256"
        },
        {
          "name": "",
          "type": "uint8"
        },
        {
          "name": "",
          "type": "uint256"
        }
      ],
      "payable": false,
      "stateMutability": "view",
      "type": "function"
    },
    {
      "constant": false,
      "inputs": [
        {
          "name": "_margin",
          "type": "uint256"
        }
      ],
      "name": "setLendableLevel",
      "outputs": [
        {
          "name": "",
          "type": "bool"
        }
      ],
      "payable": false,
      "stateMutability": "nonpayable",
      "type": "function"
    },
    {
      "constant": true,
      "inputs": [
        {
          "name": "_symbol",
          "type": "bytes32"
        },
        {
          "name": "_tokenTypes",
          "type": "bytes32[3]"
        }
      ],
      "name": "decimals",
      "outputs": [
        {
          "name": "",
          "type": "uint256"
        }
      ],
      "payable": false,
      "stateMutability": "view",
      "type": "function"
    },
    {
      "constant": false,
      "inputs": [
        {
          "name": "_token",
          "type": "address"
        },
        {
          "name": "_name",
          "type": "bytes32"
        },
        {
          "name": "_symbol",
          "type": "bytes32"
        },
        {
          "name": "_decimals",
          "type": "uint256"
        },
        {
          "name": "_value",
          "type": "uint256"
        },
        {
          "name": "supportedTypes",
          "type": "bytes32[3]"
        }
      ],
      "name": "addToken",
      "outputs": [
        {
          "name": "",
          "type": "uint256"
        }
      ],
      "payable": false,
      "stateMutability": "nonpayable",
      "type": "function"
    },
    {
      "constant": true,
      "inputs": [
        {
          "name": "",
          "type": "bytes32"
        }
      ],
      "name": "maximumAllowedMarginAccounts",
      "outputs": [
        {
          "name": "",
          "type": "uint256"
        }
      ],
      "payable": false,
      "stateMutability": "view",
      "type": "function"
    },
    {
      "inputs": [
        {
          "name": "_address",
          "type": "address"
        }
      ],
      "payable": false,
      "stateMutability": "view",
      "type": "function",
      "constant": true,
      "name": "tradingAllowed",
      "outputs": [
        {
          "name": "",
          "type": "bool"
        }
      ]
    },
    {
      "anonymous": false,
      "inputs": [
        {
          "indexed": true,
          "name": "_address",
          "type": "address"
        },
        {
          "indexed": false,
          "name": "name",
          "type": "bytes32"
        },
        {
          "indexed": false,
          "name": "symbol",
          "type": "bytes32"
        },
        {
          "indexed": false,
          "name": "decimals",
          "type": "uint256"
        },
        {
          "indexed": false,
          "name": "status",
          "type": "uint8"
        },
        {
          "indexed": false,
          "name": "value",
          "type": "uint256"
        },
        {
          "indexed": false,
          "name": "tokenType",
          "type": "bytes32"
        },
        {
          "indexed": false,
          "name": "action",
          "type": "bytes32"
        }
      ],
      "name": "getTokenSymbolByAddress",
      "type": "function",
      "constant": true,
      "outputs": [
        {
          "name": "",
          "type": "bytes32"
        }
      ],
      "payable": false,
      "stateMutability": "view"
    },
    {
      "constant": false,
      "inputs": [
        {
          "name": "_symbol",
          "type": "bytes32"
        },
        {
          "name": "_tokenTypes",
          "type": "bytes32[3]"
        }
      ],
      "name": "removeSupport",
      "outputs": [
        {
          "name": "",
          "type": "bool"
        },
        {
          "name": "name",
          "type": "bytes32"
        },
        {
          "name": "symbol",
          "type": "bytes32"
        },
        {
          "name": "decimals",
          "type": "uint256"
        },
        {
          "name": "status",
          "type": "uint8"
        },
        {
          "name": "value",
          "type": "uint256"
        }
      ],
      "payable": false,
      "stateMutability": "nonpayable",
      "type": "function"
    },
    {
      "constant": true,
      "inputs": [
        {
          "name": "",
          "type": "uint256"
        }
      ],
      "name": "stopped",
      "outputs": [
        {
          "name": "",
          "type": "bool"
        }
      ],
      "payable": false,
      "stateMutability": "view",
      "type": "function"
    },
    {
      "constant": false,
      "inputs": [
        {
          "name": "authority_",
          "type": "address"
        }
      ],
      "name": "setAuthority",
      "outputs": [
        {
          "name": "",
          "type": "address[]"
        }
      ],
      "payable": false,
      "stateMutability": "nonpayable",
      "type": "function"
    },
    {
      "constant": true,
      "inputs": [
        {
          "name": "_token",
          "type": "address"
        }
      ],
      "name": "getTokenMetaData",
      "outputs": [
        {
          "name": "",
          "type": "address"
        },
        {
          "name": "",
          "type": "bytes32"
        },
        {
          "name": "",
          "type": "bytes32"
        },
        {
          "name": "",
          "type": "uint256"
        },
        {
          "name": "",
          "type": "uint8"
        },
        {
          "name": "",
          "type": "uint256"
        }
      ],
      "payable": false,
      "stateMutability": "view",
      "type": "function"
    },
    {
      "constant": true,
      "inputs": [
        {
          "name": "newOwner",
          "type": "address"
        }
      ],
      "name": "owner",
      "outputs": [
        {
          "name": "",
          "type": "address"
        }
      ],
      "payable": false,
      "stateMutability": "view",
      "type": "function"
    },
    {
      "inputs": [
        {
          "name": "_symbol",
          "type": "bytes32"
        },
        {
          "name": "_tokenTypes",
          "type": "bytes32[3]"
        }
      ],
      "payable": false,
      "stateMutability": "nonpayable",
      "type": "function",
      "constant": false,
      "name": "addSupport",
      "outputs": [
        {
          "name": "",
          "type": "bool"
        }
      ]
    },
    {
      "anonymous": false,
      "inputs": [
        {
          "indexed": true,
          "name": "token",
          "type": "address"
        },
        {
          "indexed": false,
          "name": "name",
          "type": "bytes32"
        },
        {
          "indexed": false,
          "name": "symbol",
          "type": "bytes32"
        },
        {
          "indexed": false,
          "name": "decimals",
          "type": "uint256"
        },
        {
          "indexed": false,
          "name": "status",
          "type": "uint8"
        },
        {
          "indexed": false,
          "name": "value",
          "type": "uint256"
        },
        {
          "indexed": false,
          "name": "action",
          "type": "bytes32"
        }
      ],
      "name": "start",
      "type": "function",
      "constant": false,
      "outputs": [],
      "payable": false,
      "stateMutability": "nonpayable"
    },
    {
      "constant": true,
      "inputs": [],
      "name": "authority",
      "outputs": [
        {
          "name": "",
          "type": "address"
        }
      ],
      "payable": false,
      "stateMutability": "view",
      "type": "function"
    },
    {
      "constant": true,
      "inputs": [],
      "name": "interestRatePerDay",
      "outputs": [
        {
          "name": "",
          "type": "uint256"
        }
      ],
      "payable": false,
      "stateMutability": "view",
      "type": "function"
    },
    {
      "constant": true,
      "inputs": [
        {
          "name": "_symbol",
          "type": "bytes32"
        }
      ],
      "name": "getTokenDecimalsBySymbol",
      "outputs": [
        {
          "name": "",
          "type": "uint256"
        }
      ],
      "payable": false,
      "stateMutability": "view",
      "type": "function"
    },
    {
      "constant": true,
      "inputs": [
        {
          "name": "",
          "type": "bytes32"
        }
      ],
      "name": "collateralTokens",
      "outputs": [
        {
          "name": "",
          "type": "bool"
        }
      ],
      "payable": false,
      "stateMutability": "view",
      "type": "function"
    },
    {
      "constant": true,
      "inputs": [
        {
          "name": "_address",
          "type": "address"
        }
      ],
      "name": "getTokenDecimalsByAddress",
      "outputs": [
        {
          "name": "",
          "type": "uint256"
        }
      ],
      "payable": false,
      "stateMutability": "view",
      "type": "function"
    },
    {
      "constant": true,
      "inputs": [
        {
          "name": "_symbol",
          "type": "bytes32"
        }
      ],
      "name": "isValidSymbol",
      "outputs": [
        {
          "name": "",
          "type": "bool"
        }
      ],
      "payable": false,
      "stateMutability": "view",
      "type": "function"
    },
    {
      "constant": true,
      "inputs": [
        {
          "name": "",
          "type": "address"
        }
      ],
      "name": "tokens",
      "outputs": [
        {
          "name": "token",
          "type": "address"
        },
        {
          "name": "name",
          "type": "bytes32"
        },
        {
          "name": "symbol",
          "type": "bytes32"
        },
        {
          "name": "decimals",
          "type": "uint256"
        },
        {
          "name": "status",
          "type": "uint8"
        },
        {
          "name": "value",
          "type": "uint256"
        }
      ],
      "payable": false,
      "stateMutability": "view",
      "type": "function"
    },
    {
      "constant": true,
      "inputs": [
        {
          "name": "",
          "type": "uint256"
        }
      ],
      "name": "tokenAddresses",
      "outputs": [
        {
          "name": "",
          "type": "address"
        }
      ],
      "payable": false,
      "stateMutability": "view",
      "type": "function"
    },
    {
      "constant": false,
      "inputs": [
        {
          "name": "_i",
          "type": "uint256"
        }
      ],
      "name": "setInterestRatePerDay",
      "outputs": [
        {
          "name": "",
          "type": "bool"
        }
      ],
      "payable": false,
      "stateMutability": "nonpayable",
      "type": "function"
    },
    {
      "constant": true,
      "inputs": [],
      "name": "getTokenAddresses",
      "outputs": [
        {
          "name": "",
          "type": "address[]"
        }
      ],
      "payable": false,
      "stateMutability": "view",
      "type": "function"
    },
    {
      "constant": true,
      "inputs": [
        {
          "name": "",
          "type": "bytes32"
        }
      ],
      "name": "lendingTokens",
      "outputs": [
        {
          "name": "",
          "type": "bool"
        }
      ],
      "payable": false,
      "stateMutability": "view",
      "type": "function"
    },
    {
      "constant": true,
      "inputs": [
        {
          "name": "_symbol",
          "type": "bytes32"
        }
      ],
      "name": "getTokenAddressBySymbol",
      "outputs": [
        {
          "name": "",
          "type": "address"
        }
      ],
      "payable": false,
      "stateMutability": "view",
      "type": "function"
    },
    {
      "inputs": [],
      "payable": false,
      "stateMutability": "nonpayable",
      "type": "constructor"
    },
    {
      "anonymous": false,
      "inputs": [
        {
          "indexed": true,
          "name": "token",
          "type": "address"
        },
        {
          "indexed": false,
          "name": "name",
          "type": "bytes32"
        },
        {
          "indexed": false,
          "name": "symbol",
          "type": "bytes32"
        },
        {
          "indexed": false,
          "name": "decimals",
          "type": "uint256"
        },
        {
          "indexed": false,
          "name": "status",
          "type": "uint8"
        },
        {
          "indexed": false,
          "name": "value",
          "type": "uint256"
        },
        {
          "indexed": false,
          "name": "action",
          "type": "bytes32"
        }
      ],
      "name": "LogTokenUpdated",
      "type": "event"
    },
    {
      "anonymous": false,
      "inputs": [
        {
          "indexed": true,
          "name": "authority",
          "type": "address"
        }
      ],
      "name": "LogSetAuthority",
      "type": "event"
    },
    {
      "anonymous": false,
      "inputs": [
        {
          "indexed": true,
          "name": "owner",
          "type": "address"
        }
      ],
      "name": "LogSetOwner",
      "type": "event"
    },
    {
      "anonymous": true,
      "inputs": [
        {
          "indexed": true,
          "name": "sig",
          "type": "bytes4"
        },
        {
          "indexed": true,
          "name": "guy",
          "type": "address"
        },
        {
          "indexed": true,
          "name": "foo",
          "type": "bytes32"
        },
        {
          "indexed": true,
          "name": "bar",
          "type": "bytes32"
        },
        {
          "indexed": false,
          "name": "wad",
          "type": "uint256"
        },
        {
          "indexed": false,
          "name": "fax",
          "type": "bytes"
        }
      ],
      "name": "LogNote",
      "type": "event"
    }
  ],
  "bytecode": "0x60606040527f6c656e64696e67000000000000000000000000000000000000000000000000006009906000191690557f636f6c6c61746572616c00000000000000000000000000000000000000000000600a906000191690557f74726164696e6700000000000000000000000000000000000000000000000000600b90600019169055341561008d57600080fd5b33600160006101000a81548173ffffffffffffffffffffffffffffffffffffffff021916908373ffffffffffffffffffffffffffffffffffffffff1602179055503373ffffffffffffffffffffffffffffffffffffffff167fce241d7ca1f669fee44b6fc00b8eba2df3bb514eed0f6f668f8f89096e81ed9460405160405180910390a260018060156101000a81548160ff02191690831515021790555060326002819055506004600381905550610fa06004819055506107d0600581905550606460068190555062278d006007819055506283d600600881905550612c4a806101786000396000f3006060604052600436106101cd576000357c0100000000000000000000000000000000000000000000000000000000900463ffffffff16806307da68f5146101d25780630ce6b419146101e75780631029e85b146102225780631348ed5e1461024b57806313af40351461027457806313baf1e6146102ad5780631d6a3ea0146102ef5780631f76fa341461032a5780632262697e146103d257806326a2a16d146103fb57806326e86cd71461046257806328ad119c1461048b5780632ef743a3146104ca578063313ce567146105055780635289111c1461052e57806352e9e10f146105bf57806353371be0146105e8578063667a5f9d14610615578063712c0cc91461066a57806375f12b21146106d55780637a9e5e4b146107025780637abccac91461073b5780638da5cb5b146107f5578063be291c4f1461084a578063be9a6555146108b5578063bf7e214f146108ca578063c935e1ab1461091f578063d12c7b1014610948578063d1a294c414610983578063d9025229146109c2578063e19f86df14610a0f578063e486033914610a4e578063e5df8b8414610b08578063e719dd6c14610b6b578063ee8c24b814610ba6578063eeeaddef14610c10578063fa7fdeb714610c4f575b600080fd5b34156101dd57600080fd5b6101e5610cb6565b005b34156101f257600080fd5b6102086004808035906020019091905050610db8565b604051808215151515815260200191505060405180910390f35b341561022d57600080fd5b610235610e03565b6040518082815260200191505060405180910390f35b341561025657600080fd5b61025e610e09565b6040518082815260200191505060405180910390f35b341561027f57600080fd5b6102ab600480803573ffffffffffffffffffffffffffffffffffffffff16906020019091905050610e0f565b005b34156102b857600080fd5b6102ed600480803573ffffffffffffffffffffffffffffffffffffffff16906020019091908035906020019091905050610ef1565b005b34156102fa57600080fd5b6103106004808035906020019091905050611390565b604051808215151515815260200191505060405180910390f35b341561033557600080fd5b61034f6004808035600019169060200190919050506113db565b604051808773ffffffffffffffffffffffffffffffffffffffff1673ffffffffffffffffffffffffffffffffffffffff168152602001866000191660001916815260200185600019166000191681526020018481526020018360018111156103b357fe5b60ff168152602001828152602001965050505050505060405180910390f35b34156103dd57600080fd5b6103e5611443565b6040518082815260200191505060405180910390f35b341561040657600080fd5b610420600480803560001916906020019091905050611449565b604051808273ffffffffffffffffffffffffffffffffffffffff1673ffffffffffffffffffffffffffffffffffffffff16815260200191505060405180910390f35b341561046d57600080fd5b61047561147c565b6040518082815260200191505060405180910390f35b341561049657600080fd5b6104b0600480803560001916906020019091905050611482565b604051808215151515815260200191505060405180910390f35b34156104d557600080fd5b6104eb60048080359060200190919050506114a2565b604051808215151515815260200191505060405180910390f35b341561051057600080fd5b610518611500565b6040518082815260200191505060405180910390f35b341561053957600080fd5b6105bd600480803573ffffffffffffffffffffffffffffffffffffffff1690602001909190803560001916906020019091908035600019169060200190919080359060200190919080359060200190919080606001906003806020026040519081016040528092919082600360200280828437820191505050505091905050611506565b005b34156105ca57600080fd5b6105d26119d4565b6040518082815260200191505060405180910390f35b34156105f357600080fd5b6105fb6119da565b604051808215151515815260200191505060405180910390f35b341561062057600080fd5b61064c600480803573ffffffffffffffffffffffffffffffffffffffff169060200190919050506119ed565b60405180826000191660001916815260200191505060405180910390f35b341561067557600080fd5b6106bb6004808035600019169060200190919080606001906003806020026040519081016040528092919082600360200280828437820191505050505091905050611b0c565b604051808215151515815260200191505060405180910390f35b34156106e057600080fd5b6106e8611d2b565b604051808215151515815260200191505060405180910390f35b341561070d57600080fd5b610739600480803573ffffffffffffffffffffffffffffffffffffffff16906020019091905050611d3e565b005b341561074657600080fd5b610772600480803573ffffffffffffffffffffffffffffffffffffffff16906020019091905050611e1e565b604051808773ffffffffffffffffffffffffffffffffffffffff1673ffffffffffffffffffffffffffffffffffffffff168152602001866000191660001916815260200185600019166000191681526020018481526020018360018111156107d657fe5b60ff168152602001828152602001965050505050505060405180910390f35b341561080057600080fd5b610808611f6b565b604051808273ffffffffffffffffffffffffffffffffffffffff1673ffffffffffffffffffffffffffffffffffffffff16815260200191505060405180910390f35b341561085557600080fd5b61089b6004808035600019169060200190919080606001906003806020026040519081016040528092919082600360200280828437820191505050505091905050611f91565b604051808215151515815260200191505060405180910390f35b34156108c057600080fd5b6108c86121b0565b005b34156108d557600080fd5b6108dd6122b3565b604051808273ffffffffffffffffffffffffffffffffffffffff1673ffffffffffffffffffffffffffffffffffffffff16815260200191505060405180910390f35b341561092a57600080fd5b6109326122d8565b6040518082815260200191505060405180910390f35b341561095357600080fd5b61096d6004808035600019169060200190919050506122de565b6040518082815260200191505060405180910390f35b341561098e57600080fd5b6109a8600480803560001916906020019091905050612438565b604051808215151515815260200191505060405180910390f35b34156109cd57600080fd5b6109f9600480803573ffffffffffffffffffffffffffffffffffffffff16906020019091905050612458565b6040518082815260200191505060405180910390f35b3415610a1a57600080fd5b610a34600480803560001916906020019091905050612577565b604051808215151515815260200191505060405180910390f35b3415610a5957600080fd5b610a85600480803573ffffffffffffffffffffffffffffffffffffffff169060200190919050506126e4565b604051808773ffffffffffffffffffffffffffffffffffffffff1673ffffffffffffffffffffffffffffffffffffffff16815260200186600019166000191681526020018560001916600019168152602001848152602001836001811115610ae957fe5b60ff168152602001828152602001965050505050505060405180910390f35b3415610b1357600080fd5b610b29600480803590602001909190505061274d565b604051808273ffffffffffffffffffffffffffffffffffffffff1673ffffffffffffffffffffffffffffffffffffffff16815260200191505060405180910390f35b3415610b7657600080fd5b610b8c600480803590602001909190505061278c565b604051808215151515815260200191505060405180910390f35b3415610bb157600080fd5b610bb96127d7565b6040518080602001828103825283818151815260200191508051906020019060200280838360005b83811015610bfc578082015181840152602081019050610be1565b505050509050019250505060405180910390f35b3415610c1b57600080fd5b610c3560048080356000191690602001909190505061286b565b604051808215151515815260200191505060405180910390f35b3415610c5a57600080fd5b610c7460048080356000191690602001909190505061288b565b604051808273ffffffffffffffffffffffffffffffffffffffff1673ffffffffffffffffffffffffffffffffffffffff16815260200191505060405180910390f35b610ce4336000357fffffffff00000000000000000000000000000000000000000000000000000000166128d0565b1515610cef57600080fd5b60008060043591506024359050806000191682600019163373ffffffffffffffffffffffffffffffffffffffff166000357fffffffff00000000000000000000000000000000000000000000000000000000167bffffffffffffffffffffffffffffffffffffffffffffffffffffffff19163460003660405180848152602001806020018281038252848482818152602001925080828437820191505094505050505060405180910390a460018060146101000a81548160ff0219169083151502179055505050565b6000610de8336000357fffffffff00000000000000000000000000000000000000000000000000000000166128d0565b1515610df357600080fd5b8160088190555060019050919050565b60045481565b60085481565b610e3d336000357fffffffff00000000000000000000000000000000000000000000000000000000166128d0565b1515610e4857600080fd5b80600160006101000a81548173ffffffffffffffffffffffffffffffffffffffff021916908373ffffffffffffffffffffffffffffffffffffffff160217905550600160009054906101000a900473ffffffffffffffffffffffffffffffffffffffff1673ffffffffffffffffffffffffffffffffffffffff167fce241d7ca1f669fee44b6fc00b8eba2df3bb514eed0f6f668f8f89096e81ed9460405160405180910390a250565b600082600180811115610f0057fe5b600c60008373ffffffffffffffffffffffffffffffffffffffff1673ffffffffffffffffffffffffffffffffffffffff16815260200190815260200160002060040160009054906101000a900460ff166001811115610f5b57fe5b141515610f6757600080fd5b600160149054906101000a900460ff16151515610f8357600080fd5b610fb1336000357fffffffff00000000000000000000000000000000000000000000000000000000166128d0565b1515610fbc57600080fd5b8373ffffffffffffffffffffffffffffffffffffffff16601184815481101515610fe257fe5b906000526020600020900160009054906101000a900473ffffffffffffffffffffffffffffffffffffffff1673ffffffffffffffffffffffffffffffffffffffff1614151561103057600080fd5b601160016011805490500381548110151561104757fe5b906000526020600020900160009054906101000a900473ffffffffffffffffffffffffffffffffffffffff1660118481548110151561108257fe5b906000526020600020900160006101000a81548173ffffffffffffffffffffffffffffffffffffffff021916908373ffffffffffffffffffffffffffffffffffffffff16021790555060016011818180549050039150816110e39190612b2f565b50600c60008573ffffffffffffffffffffffffffffffffffffffff1673ffffffffffffffffffffffffffffffffffffffff16815260200190815260200160002091508160000160009054906101000a900473ffffffffffffffffffffffffffffffffffffffff1673ffffffffffffffffffffffffffffffffffffffff167f7beca59326c8f30286f798d4f9b394e7c533cc36ea405f230771e8012689c1b18360010154846002015485600301548660040160009054906101000a900460ff16876005015460405180866000191660001916815260200185600019166000191681526020018481526020018360018111156111d957fe5b60ff168152602001828152602001807f746f6b656e2072656d6f766564000000000000000000000000000000000000008152506020019550505050505060405180910390a26010600083600201546000191660001916815260200190815260200160002060006101000a81549073ffffffffffffffffffffffffffffffffffffffff0219169055600d600083600201546000191660001916815260200190815260200160002060006101000a81549060ff0219169055600e600083600201546000191660001916815260200190815260200160002060006101000a81549060ff0219169055600f600083600201546000191660001916815260200190815260200160002060006101000a81549060ff0219169055600c60008573ffffffffffffffffffffffffffffffffffffffff1673ffffffffffffffffffffffffffffffffffffffff168152602001908152602001600020600080820160006101000a81549073ffffffffffffffffffffffffffffffffffffffff02191690556001820160009055600282016000905560038201600090556004820160006101000a81549060ff02191690556005820160009055505050505050565b60006113c0336000357fffffffff00000000000000000000000000000000000000000000000000000000166128d0565b15156113cb57600080fd5b8160078190555060019050919050565b600080600080600080600060106000896000191660001916815260200190815260200160002060009054906101000a900473ffffffffffffffffffffffffffffffffffffffff16905061142d81611e1e565b9650965096509650965096505091939550919395565b60055481565b60106020528060005260406000206000915054906101000a900473ffffffffffffffffffffffffffffffffffffffff1681565b60075481565b600f6020528060005260406000206000915054906101000a900460ff1681565b60006114d2336000357fffffffff00000000000000000000000000000000000000000000000000000000166128d0565b15156114dd57600080fd5b600354600a0a821115156114f057600080fd5b8160048190555060019050919050565b60035481565b8560018081111561151357fe5b600c60008373ffffffffffffffffffffffffffffffffffffffff1673ffffffffffffffffffffffffffffffffffffffff16815260200190815260200160002060040160009054906101000a900460ff16600181111561156e57fe5b1415151561157b57600080fd5b86600073ffffffffffffffffffffffffffffffffffffffff168173ffffffffffffffffffffffffffffffffffffffff16141515156115b857600080fd5b600160149054906101000a900460ff161515156115d457600080fd5b611602336000357fffffffff00000000000000000000000000000000000000000000000000000000166128d0565b151561160d57600080fd5b60c0604051908101604052808973ffffffffffffffffffffffffffffffffffffffff168152602001886000191681526020018760001916815260200186815260200160018081111561165b57fe5b815260200185815250600c60008a73ffffffffffffffffffffffffffffffffffffffff1673ffffffffffffffffffffffffffffffffffffffff16815260200190815260200160002060008201518160000160006101000a81548173ffffffffffffffffffffffffffffffffffffffff021916908373ffffffffffffffffffffffffffffffffffffffff16021790555060208201518160010190600019169055604082015181600201906000191690556060820151816003015560808201518160040160006101000a81548160ff0219169083600181111561173857fe5b021790555060a082015181600501559050506011805480600101828161175e9190612b5b565b916000526020600020900160008a909190916101000a81548173ffffffffffffffffffffffffffffffffffffffff021916908373ffffffffffffffffffffffffffffffffffffffff160217905550508760106000886000191660001916815260200190815260200160002060006101000a81548173ffffffffffffffffffffffffffffffffffffffff021916908373ffffffffffffffffffffffffffffffffffffffff1602179055506009546000191683600060038110151561181d57fe5b6020020151600019161415611861576001600d6000886000191660001916815260200190815260200160002060006101000a81548160ff0219169083151502179055505b600a546000191683600160038110151561187757fe5b60200201516000191614156118bb576001600e6000886000191660001916815260200190815260200160002060006101000a81548160ff0219169083151502179055505b600b54600019168360026003811015156118d157fe5b6020020151600019161415611915576001600f6000886000191660001916815260200190815260200160002060006101000a81548160ff0219169083151502179055505b8773ffffffffffffffffffffffffffffffffffffffff167f7beca59326c8f30286f798d4f9b394e7c533cc36ea405f230771e8012689c1b1888888600189604051808660001916600019168152602001856000191660001916815260200184815260200183600181111561198557fe5b60ff168152602001828152602001807f746f6b656e2061646465640000000000000000000000000000000000000000008152506020019550505050505060405180910390a25050505050505050565b60025481565b600160159054906101000a900460ff1681565b60006119f7612b87565b600c60008473ffffffffffffffffffffffffffffffffffffffff1673ffffffffffffffffffffffffffffffffffffffff16815260200190815260200160002060c060405190810160405290816000820160009054906101000a900473ffffffffffffffffffffffffffffffffffffffff1673ffffffffffffffffffffffffffffffffffffffff1673ffffffffffffffffffffffffffffffffffffffff168152602001600182015460001916600019168152602001600282015460001916600019168152602001600382015481526020016004820160009054906101000a900460ff166001811115611ae457fe5b6001811115611aef57fe5b815260200160058201548152505090508060400151915050919050565b600082600180811115611b1b57fe5b600c600060106000856000191660001916815260200190815260200160002060009054906101000a900473ffffffffffffffffffffffffffffffffffffffff1673ffffffffffffffffffffffffffffffffffffffff1673ffffffffffffffffffffffffffffffffffffffff16815260200190815260200160002060040160009054906101000a900460ff166001811115611bb157fe5b141515611bbd57600080fd5b600160149054906101000a900460ff16151515611bd957600080fd5b611c07336000357fffffffff00000000000000000000000000000000000000000000000000000000166128d0565b1515611c1257600080fd5b60095460001916836000600381101515611c2857fe5b6020020151600019161415611c6c576000600d6000866000191660001916815260200190815260200160002060006101000a81548160ff0219169083151502179055505b600a5460001916836001600381101515611c8257fe5b6020020151600019161415611cc6576000600e6000866000191660001916815260200190815260200160002060006101000a81548160ff0219169083151502179055505b600b5460001916836002600381101515611cdc57fe5b6020020151600019161415611d20576000600f6000866000191660001916815260200190815260200160002060006101000a81548160ff0219169083151502179055505b600191505092915050565b600160149054906101000a900460ff1681565b611d6c336000357fffffffff00000000000000000000000000000000000000000000000000000000166128d0565b1515611d7757600080fd5b806000806101000a81548173ffffffffffffffffffffffffffffffffffffffff021916908373ffffffffffffffffffffffffffffffffffffffff1602179055506000809054906101000a900473ffffffffffffffffffffffffffffffffffffffff1673ffffffffffffffffffffffffffffffffffffffff167f1abebea81bfa2637f28358c371278fb15ede7ea8dd28d2e03b112ff6d936ada460405160405180910390a250565b600080600080600080611e2f612b87565b600c60008973ffffffffffffffffffffffffffffffffffffffff1673ffffffffffffffffffffffffffffffffffffffff16815260200190815260200160002060c060405190810160405290816000820160009054906101000a900473ffffffffffffffffffffffffffffffffffffffff1673ffffffffffffffffffffffffffffffffffffffff1673ffffffffffffffffffffffffffffffffffffffff168152602001600182015460001916600019168152602001600282015460001916600019168152602001600382015481526020016004820160009054906101000a900460ff166001811115611f1c57fe5b6001811115611f2757fe5b81526020016005820154815250509050806000015181602001518260400151836060015184608001518560a001519650965096509650965096505091939550919395565b600160009054906101000a900473ffffffffffffffffffffffffffffffffffffffff1681565b600082600180811115611fa057fe5b600c600060106000856000191660001916815260200190815260200160002060009054906101000a900473ffffffffffffffffffffffffffffffffffffffff1673ffffffffffffffffffffffffffffffffffffffff1673ffffffffffffffffffffffffffffffffffffffff16815260200190815260200160002060040160009054906101000a900460ff16600181111561203657fe5b14151561204257600080fd5b600160149054906101000a900460ff1615151561205e57600080fd5b61208c336000357fffffffff00000000000000000000000000000000000000000000000000000000166128d0565b151561209757600080fd5b600954600019168360006003811015156120ad57fe5b60200201516000191614156120f1576001600d6000866000191660001916815260200190815260200160002060006101000a81548160ff0219169083151502179055505b600a546000191683600160038110151561210757fe5b602002015160001916141561214b576001600e6000866000191660001916815260200190815260200160002060006101000a81548160ff0219169083151502179055505b600b546000191683600260038110151561216157fe5b60200201516000191614156121a5576001600f6000866000191660001916815260200190815260200160002060006101000a81548160ff0219169083151502179055505b600191505092915050565b6121de336000357fffffffff00000000000000000000000000000000000000000000000000000000166128d0565b15156121e957600080fd5b60008060043591506024359050806000191682600019163373ffffffffffffffffffffffffffffffffffffffff166000357fffffffff00000000000000000000000000000000000000000000000000000000167bffffffffffffffffffffffffffffffffffffffffffffffffffffffff19163460003660405180848152602001806020018281038252848482818152602001925080828437820191505094505050505060405180910390a46000600160146101000a81548160ff0219169083151502179055505050565b6000809054906101000a900473ffffffffffffffffffffffffffffffffffffffff1681565b60065481565b60006122e8612b87565b600c600060106000866000191660001916815260200190815260200160002060009054906101000a900473ffffffffffffffffffffffffffffffffffffffff1673ffffffffffffffffffffffffffffffffffffffff1673ffffffffffffffffffffffffffffffffffffffff16815260200190815260200160002060c060405190810160405290816000820160009054906101000a900473ffffffffffffffffffffffffffffffffffffffff1673ffffffffffffffffffffffffffffffffffffffff1673ffffffffffffffffffffffffffffffffffffffff168152602001600182015460001916600019168152602001600282015460001916600019168152602001600382015481526020016004820160009054906101000a900460ff16600181111561241057fe5b600181111561241b57fe5b815260200160058201548152505090508060600151915050919050565b600e6020528060005260406000206000915054906101000a900460ff1681565b6000612462612b87565b600c60008473ffffffffffffffffffffffffffffffffffffffff1673ffffffffffffffffffffffffffffffffffffffff16815260200190815260200160002060c060405190810160405290816000820160009054906101000a900473ffffffffffffffffffffffffffffffffffffffff1673ffffffffffffffffffffffffffffffffffffffff1673ffffffffffffffffffffffffffffffffffffffff168152602001600182015460001916600019168152602001600282015460001916600019168152602001600382015481526020016004820160009054906101000a900460ff16600181111561254f57fe5b600181111561255a57fe5b815260200160058201548152505090508060600151915050919050565b60008160018081111561258657fe5b600c600060106000856000191660001916815260200190815260200160002060009054906101000a900473ffffffffffffffffffffffffffffffffffffffff1673ffffffffffffffffffffffffffffffffffffffff1673ffffffffffffffffffffffffffffffffffffffff16815260200190815260200160002060040160009054906101000a900460ff16600181111561261c57fe5b14151561262857600080fd5b60018081111561263457fe5b600c600060106000876000191660001916815260200190815260200160002060009054906101000a900473ffffffffffffffffffffffffffffffffffffffff1673ffffffffffffffffffffffffffffffffffffffff1673ffffffffffffffffffffffffffffffffffffffff16815260200190815260200160002060040160009054906101000a900460ff1660018111156126ca57fe5b14156126d957600191506126de565b600091505b50919050565b600c6020528060005260406000206000915090508060000160009054906101000a900473ffffffffffffffffffffffffffffffffffffffff16908060010154908060020154908060030154908060040160009054906101000a900460ff16908060050154905086565b60118181548110151561275c57fe5b90600052602060002090016000915054906101000a900473ffffffffffffffffffffffffffffffffffffffff1681565b60006127bc336000357fffffffff00000000000000000000000000000000000000000000000000000000166128d0565b15156127c757600080fd5b8160068190555060019050919050565b6127df612be5565b601180548060200260200160405190810160405280929190818152602001828054801561286157602002820191906000526020600020905b8160009054906101000a900473ffffffffffffffffffffffffffffffffffffffff1673ffffffffffffffffffffffffffffffffffffffff1681526020019060010190808311612817575b5050505050905090565b600d6020528060005260406000206000915054906101000a900460ff1681565b600060106000836000191660001916815260200190815260200160002060009054906101000a900473ffffffffffffffffffffffffffffffffffffffff169050919050565b60003073ffffffffffffffffffffffffffffffffffffffff168373ffffffffffffffffffffffffffffffffffffffff16141561290f5760019050612b29565b600160009054906101000a900473ffffffffffffffffffffffffffffffffffffffff1673ffffffffffffffffffffffffffffffffffffffff168373ffffffffffffffffffffffffffffffffffffffff16141561296e5760019050612b29565b600073ffffffffffffffffffffffffffffffffffffffff166000809054906101000a900473ffffffffffffffffffffffffffffffffffffffff1673ffffffffffffffffffffffffffffffffffffffff1614156129cd5760009050612b29565b6000809054906101000a900473ffffffffffffffffffffffffffffffffffffffff1673ffffffffffffffffffffffffffffffffffffffff1663b70096138430856000604051602001526040518463ffffffff167c0100000000000000000000000000000000000000000000000000000000028152600401808473ffffffffffffffffffffffffffffffffffffffff1673ffffffffffffffffffffffffffffffffffffffff1681526020018373ffffffffffffffffffffffffffffffffffffffff1673ffffffffffffffffffffffffffffffffffffffff168152602001827bffffffffffffffffffffffffffffffffffffffffffffffffffffffff19167bffffffffffffffffffffffffffffffffffffffffffffffffffffffff191681526020019350505050602060405180830381600087803b1515612b0b57600080fd5b6102c65a03f11515612b1c57600080fd5b5050506040518051905090505b92915050565b815481835581811511612b5657818360005260206000209182019101612b559190612bf9565b5b505050565b815481835581811511612b8257818360005260206000209182019101612b819190612bf9565b5b505050565b60c060405190810160405280600073ffffffffffffffffffffffffffffffffffffffff16815260200160008019168152602001600080191681526020016000815260200160006001811115612bd857fe5b8152602001600081525090565b602060405190810160405280600081525090565b612c1b91905b80821115612c17576000816000905550600101612bff565b5090565b905600a165627a7a7230582088dc91d8a51df872678d5dbd85f7ae8c915624dafbc071f81f44b944a6d674770029",
  "source": "pragma solidity 0.4.18;\r\n\r\nimport \"./stop.sol\";\r\n\r\n// FOR DEMO\r\n\r\ncontract NetworkParameters is DSStop {\r\n    bool public tradingAllowed;\r\n    uint public maximumAllowedMarginAccounts;\r\n    uint public decimals;\r\n    uint public initialMargin;\r\n    uint public liquidationMargin;\r\n    \r\n    uint public interestRatePerDay;\r\n    uint public maxLoanPeriodDays;\r\n    uint public gracePeriodDays;\r\n    \r\n    bytes32 internal TOKEN_TYPE_LENDING = \"lending\";\r\n    bytes32 internal TOKEN_TYPE_COLLATERAL = \"collateral\";\r\n    bytes32 internal TOKEN_TYPE_TRADING = \"trading\";\r\n    \r\n    mapping (address => TokenMetadata) public tokens;\r\n    mapping (bytes32 => bool) public lendingTokens;\r\n    mapping (bytes32 => bool) public collateralTokens;\r\n    mapping (bytes32 => bool) public tradingTokens;\r\n    mapping (bytes32 => address) public tokenBySymbol;\r\n\r\n    address[] public tokenAddresses;\r\n    \r\n    // Token Registry\r\n    event LogTokenUpdated(\r\n        address indexed token,\r\n        bytes32 name,\r\n        bytes32 symbol,\r\n        uint decimals,\r\n        Status status,\r\n        uint value,\r\n        bytes32 action\r\n    );\r\n    \r\n    enum Status {\r\n        INACTIVE, // Set to inactive when a token is deactivated\r\n        ACTIVE    // Default status when a new token is added\r\n    }\r\n\r\n    struct TokenMetadata {\r\n        address token;\r\n        bytes32 name;\r\n        bytes32 symbol;\r\n        uint decimals;\r\n        Status status;\r\n        uint value;\r\n    }\r\n\r\n    modifier tokenExists(address _token) {\r\n        require(tokens[_token].status == Status.ACTIVE);\r\n        _;\r\n    }\r\n\r\n    modifier tokenDoesNotExist(address _token) {\r\n        require(tokens[_token].status != Status.ACTIVE);\r\n        _;\r\n    }\r\n\r\n    modifier symbolExists(bytes32 _symbol) {\r\n        require(tokens[tokenBySymbol[_symbol]].status == Status.ACTIVE);\r\n        _;\r\n    }\r\n\r\n    modifier addressNotNull(address _address) {\r\n        require(_address != address(0));\r\n        _;\r\n    }\r\n\r\n    function NetworkParameters() public {\r\n        \r\n        tradingAllowed = true;\r\n        maximumAllowedMarginAccounts = 50;\r\n        decimals = 4;\r\n        initialMargin = 4000;\r\n        liquidationMargin = 2000;\r\n        \r\n        interestRatePerDay = 100;\r\n        maxLoanPeriodDays = 30 days;\r\n        gracePeriodDays = 100 days;\r\n    }\r\n\r\n    function isValidSymbol(bytes32 _symbol)\r\n        public\r\n        constant\r\n        symbolExists(_symbol)\r\n        returns (bool)\r\n    {\r\n        if (tokens[tokenBySymbol[_symbol]].status == Status.ACTIVE) {\r\n            return true;\r\n        }\r\n        else {\r\n            return false;\r\n        }\r\n    }\r\n\r\n    /// @dev Allows owner to add a new token to the registry.\r\n    /// @param _token Address of new token.\r\n    /// @param _name Name of new token.\r\n    /// @param _symbol Symbol for new token.\r\n    /// @param _decimals Number of decimals, divisibility of new token.\r\n    function addToken(\r\n            address _token,\r\n            bytes32 _name,\r\n            bytes32 _symbol,\r\n            uint _decimals,\r\n            uint _value,\r\n            bytes32[3] supportedTypes\r\n        )\r\n        public\r\n        tokenDoesNotExist(_token)\r\n        addressNotNull(_token)\r\n        stoppable\r\n        auth\r\n    {\r\n        tokens[_token] = TokenMetadata({\r\n            token: _token,\r\n            name: _name,\r\n            symbol: _symbol,\r\n            decimals: _decimals,\r\n            status: Status.ACTIVE,\r\n            value: _value\r\n        });\r\n        tokenAddresses.push(_token);\r\n        tokenBySymbol[_symbol] = _token;\r\n        \r\n        if (supportedTypes[0] == TOKEN_TYPE_LENDING) {\r\n            lendingTokens[_symbol] = true;\r\n        }\r\n        if (supportedTypes[1] == TOKEN_TYPE_COLLATERAL) {\r\n            collateralTokens[_symbol] = true;\r\n        }\r\n        if (supportedTypes[2] == TOKEN_TYPE_TRADING) {\r\n            tradingTokens[_symbol] = true;\r\n        }\r\n        LogTokenUpdated(\r\n            _token,\r\n            _name,\r\n            _symbol,\r\n            _decimals,\r\n            Status.ACTIVE,\r\n            _value,\r\n            \"token added\"\r\n        );\r\n    }\r\n\r\n    /// @dev Provides a registered token's address, looked up by symbol.\r\n    /// Useful when called by an external contract\r\n    /// @param _symbol Symbol of registered token.\r\n    /// @return Token address.\r\n    function getTokenAddressBySymbol(bytes32 _symbol)\r\n        public\r\n        constant\r\n        returns (address)\r\n    {\r\n        return tokenBySymbol[_symbol];\r\n    }\r\n\r\n    function addSupport(\r\n            bytes32 _symbol,\r\n            bytes32[3] _tokenTypes\r\n        )\r\n        public\r\n        symbolExists(_symbol) \r\n        stoppable\r\n        auth\r\n        returns (bool)\r\n    {\r\n        if (_tokenTypes[0] == TOKEN_TYPE_LENDING) {\r\n            lendingTokens[_symbol] = true;\r\n        }\r\n        if (_tokenTypes[1] == TOKEN_TYPE_COLLATERAL) {\r\n            collateralTokens[_symbol] = true;\r\n        }\r\n        if (_tokenTypes[2] == TOKEN_TYPE_TRADING) {\r\n            tradingTokens[_symbol] = true;\r\n        }\r\n        return true;\r\n    }\r\n\r\n    function removeSupport(\r\n            bytes32 _symbol,\r\n            bytes32[3] _tokenTypes\r\n        )\r\n        public\r\n        symbolExists(_symbol) \r\n        stoppable\r\n        auth\r\n        returns (bool)\r\n    {\r\n        if (_tokenTypes[0] == TOKEN_TYPE_LENDING) {\r\n            lendingTokens[_symbol] = false;\r\n        }\r\n        if (_tokenTypes[1] == TOKEN_TYPE_COLLATERAL) {\r\n            collateralTokens[_symbol] = false;\r\n        }\r\n        if (_tokenTypes[2] == TOKEN_TYPE_TRADING) {\r\n            tradingTokens[_symbol] = false;\r\n        }\r\n        return true;\r\n    }\r\n\r\n    /// @dev Allows owner to remove an existing token from the registry.\r\n    /// @param _token Address of existing token.\r\n    function removeToken(\r\n            address _token,\r\n            uint _index\r\n        )\r\n        public\r\n        tokenExists(_token)\r\n        stoppable\r\n        auth\r\n    {\r\n        require(tokenAddresses[_index] == _token);\r\n\r\n        tokenAddresses[_index] = tokenAddresses[tokenAddresses.length - 1];\r\n        tokenAddresses.length -= 1;\r\n\r\n        TokenMetadata storage token = tokens[_token];\r\n        \r\n        LogTokenUpdated(\r\n            token.token,\r\n            token.name,\r\n            token.symbol,\r\n            token.decimals,\r\n            token.status,\r\n            token.value,\r\n            \"token removed\"\r\n        );\r\n        delete tokenBySymbol[token.symbol];\r\n        delete lendingTokens[token.symbol];\r\n        delete collateralTokens[token.symbol];\r\n        delete tradingTokens[token.symbol];\r\n        delete tokens[_token];\r\n        \r\n    }\r\n\r\n    /// @dev Provides a registered token's metadata, looked up by address.\r\n    /// @param _token Address of registered token.\r\n    /// @return Token metadata.\r\n    function getTokenMetaData(address _token)\r\n        public\r\n        constant\r\n        returns (\r\n            address, //tokenAddress\r\n            bytes32, //name\r\n            bytes32, //symbol\r\n            uint,    //decimals\r\n            Status,  //status\r\n            uint     //value\r\n        )\r\n    {\r\n        TokenMetadata memory token = tokens[_token];\r\n        return (\r\n            token.token,\r\n            token.name,\r\n            token.symbol,\r\n            token.decimals,\r\n            token.status,\r\n            token.value\r\n        );\r\n    }\r\n\r\n    /// @dev Provides a registered token's metadata, looked up by symbol.\r\n    /// @param _symbol Symbol of registered token.\r\n    /// @return Token metadata.\r\n    function getTokenBySymbol(bytes32 _symbol)\r\n        public\r\n        constant\r\n        returns (\r\n            address, //tokenAddress\r\n            bytes32, //name\r\n            bytes32, //symbol\r\n            uint,    //decimals\r\n            Status,  //status\r\n            uint     //value\r\n            )\r\n    {\r\n        address _token = tokenBySymbol[_symbol];\r\n        return getTokenMetaData(_token);\r\n    }\r\n\r\n    /// @dev Provides a registered token's decimals, looked up by address.\r\n    /// @param _address Address of registered token.\r\n    /// @return Token decimals.\r\n    function getTokenDecimalsByAddress(address _address)\r\n        public\r\n        constant\r\n        returns (uint)\r\n    {\r\n        TokenMetadata memory token = tokens[_address];\r\n        return token.decimals;\r\n    }\r\n\r\n    /// @dev Provides a registered token's decimals, looked up by symbol.\r\n    /// @param _symbol Symbol of registered token.\r\n    /// @return Token decimals.\r\n    function getTokenDecimalsBySymbol(bytes32 _symbol)\r\n        public\r\n        constant\r\n        returns (uint)\r\n    {\r\n        TokenMetadata memory token = tokens[tokenBySymbol[_symbol]];\r\n        return token.decimals;\r\n    }\r\n\r\n    /// @dev Provides a registered token's symbol, looked up by address.\r\n    /// @param _address Address of registered token.\r\n    /// @return Token symbol.\r\n    function getTokenSymbolByAddress(address _address)\r\n        public\r\n        constant\r\n        returns (bytes32)\r\n    {\r\n        TokenMetadata memory token = tokens[_address];\r\n        return token.symbol;\r\n    }\r\n\r\n    /// @dev Returns an array containing all token addresses.\r\n    /// @return Array of token addresses.\r\n    function getTokenAddresses()\r\n        public\r\n        constant\r\n        returns (address[])\r\n    {\r\n        return tokenAddresses;\r\n    }\r\n\r\n    /**\r\n        @notice allows the current owner to change the daily interest rate of the contract.\r\n        @param _i integer value as the daily interest rate\r\n        @return true an acknowledgement that the daily interest rate was set by the owner\r\n    */\r\n    function setInterestRatePerDay(uint _i) public auth returns (bool) {\r\n        interestRatePerDay = _i;\r\n        return true;\r\n    }\r\n\r\n    /**\r\n        @notice allows the current owner to change the daily interest rate.\r\n        @param _d integer value as the daily interest rate\r\n        @return true an acknowledgement that the daily interest rate was set by the owner\r\n    */\r\n    function setMaxLoanPeriodDays(uint _d) public auth returns (bool) {\r\n        maxLoanPeriodDays = _d;\r\n        return true;\r\n    }\r\n\r\n    /**\r\n        @notice allows the current owner to change the grace period.\r\n        @param _d integer value as the grace period\r\n        @return true an acknowledgement that the grace period was set by the owner\r\n    */\r\n    function setGracePeriodDays(uint _d) public auth returns (bool) {\r\n        gracePeriodDays = _d;\r\n        return true;\r\n    }\r\n\r\n    /**\r\n        @notice allows the current owner to change the initialMargin.\r\n        @param _margin integer value as the initialMargin\r\n        @return true an acknowledgement that the initialMargin was set by the owner\r\n    */\r\n    function setLendableLevel(uint _margin) public auth returns (bool) {\r\n        require(_margin > (10 ** decimals));\r\n        initialMargin = _margin;\r\n        return true;\r\n    }\r\n\r\n}",
  "sourcePath": "C:\\work\\programming\\ethereum\\lendroid\\protocol-demo\\contracts\\NetworkParameters.sol",
  "compiler": {
    "name": "solc",
    "version": "0.4.18+commit.9cf6e910.Emscripten.clang"
  },
  "schemaVersion": "1.0.1",
  "updatedAt": "2017-11-07T21:43:19.121Z"
}