{
  "contractName": "NetworkParameters",
  "abi": [
    {
      "constant": true,
      "inputs": [
        {
          "name": "_type",
          "type": "bytes32"
        },
        {
          "name": "_token",
          "type": "address"
        },
        {
          "name": "_index",
          "type": "uint256"
        }
      ],
      "name": "initialMarginLevel",
      "outputs": [
        {
          "name": "",
          "type": "uint256"
        }
      ],
      "payable": false,
      "stateMutability": "view",
      "type": "function"
    },
    {
      "constant": false,
      "inputs": [
        {
          "name": "_d",
          "type": "uint256"
        },
        {
          "name": "_index",
          "type": "uint256"
        }
      ],
      "name": "stop",
      "outputs": [
        {
          "name": "",
          "type": "bool"
        }
      ],
      "payable": false,
      "stateMutability": "nonpayable",
      "type": "function"
    },
    {
      "constant": false,
      "inputs": [
        {
          "name": "_d",
          "type": "uint256"
        },
        {
          "name": "_type",
          "type": "bytes32"
        }
      ],
      "name": "setGracePeriodDays",
      "outputs": [
        {
          "name": "",
          "type": "bool"
        },
        {
          "name": "",
          "type": "bytes32"
        },
        {
          "name": "",
          "type": "bytes32"
        },
        {
          "name": "",
          "type": "uint256"
        },
        {
          "name": "",
          "type": "uint8"
        },
        {
          "name": "",
          "type": "uint256"
        }
      ],
      "payable": false,
      "stateMutability": "nonpayable",
      "type": "function"
    },
    {
      "constant": true,
      "inputs": [
        {
          "name": "_symbol",
          "type": "bytes32"
        },
        {
          "name": "_type",
          "type": "bytes32"
        }
      ],
      "name": "initialMarginPercentage",
      "outputs": [
        {
          "name": "",
          "type": "uint256"
        },
        {
          "name": "",
          "type": "bytes32"
        },
        {
          "name": "",
          "type": "bytes32"
        },
        {
          "name": "",
          "type": "uint256"
        },
        {
          "name": "",
          "type": "uint8"
        },
        {
          "name": "",
          "type": "uint256"
        }
      ],
      "payable": false,
      "stateMutability": "view",
      "type": "function"
    },
    {
      "constant": true,
      "inputs": [
        {
          "name": "owner_",
          "type": "address"
        }
      ],
      "name": "gracePeriodDays",
      "outputs": [
        {
          "name": "",
          "type": "uint256"
        }
      ],
      "payable": false,
      "stateMutability": "view",
      "type": "function"
    },
    {
      "constant": false,
      "inputs": [
        {
          "name": "owner_",
          "type": "address"
        },
        {
          "name": "_index",
          "type": "uint256"
        }
      ],
      "name": "setOwner",
      "outputs": [
        {
          "name": "",
          "type": "bool"
        }
      ],
      "payable": false,
      "stateMutability": "nonpayable",
      "type": "function"
    },
    {
      "constant": false,
      "inputs": [
        {
          "name": "_token",
          "type": "address"
        },
        {
          "name": "_index",
          "type": "uint256"
        }
      ],
      "name": "removeToken",
      "outputs": [
        {
          "name": "",
          "type": "bool"
        }
      ],
      "payable": false,
      "stateMutability": "nonpayable",
      "type": "function"
    },
    {
      "constant": false,
      "inputs": [
        {
          "name": "_percentage",
          "type": "uint256"
        },
        {
          "name": "_name",
          "type": "bytes32"
        },
        {
          "name": "_symbol",
          "type": "bytes32"
        },
        {
          "name": "_decimals",
          "type": "uint256"
        },
        {
          "name": "_value",
          "type": "uint256"
        },
        {
          "name": "supportedTypes",
          "type": "bytes32[3]"
        }
      ],
      "name": "setLiquidationMarginPercentage",
      "outputs": [
        {
          "name": "",
          "type": "bool"
        },
        {
          "name": "",
          "type": "bytes32"
        },
        {
          "name": "",
          "type": "bytes32"
        },
        {
          "name": "",
          "type": "uint256"
        },
        {
          "name": "",
          "type": "uint8"
        },
        {
          "name": "",
          "type": "uint256"
        }
      ],
      "payable": false,
      "stateMutability": "nonpayable",
      "type": "function"
    },
    {
      "constant": false,
      "inputs": [
        {
          "name": "_d",
          "type": "uint256"
        },
        {
          "name": "",
          "type": "address"
        }
      ],
      "name": "setMaxLoanPeriodDays",
      "outputs": [
        {
          "name": "",
          "type": "bool"
        },
        {
          "name": "name",
          "type": "bytes32"
        },
        {
          "name": "symbol",
          "type": "bytes32"
        },
        {
          "name": "decimals",
          "type": "uint256"
        },
        {
          "name": "status",
          "type": "uint8"
        },
        {
          "name": "value",
          "type": "uint256"
        }
      ],
      "payable": false,
      "stateMutability": "nonpayable",
      "type": "function"
    },
    {
      "constant": true,
      "inputs": [
        {
          "name": "_symbol",
          "type": "bytes32"
        }
      ],
      "name": "getTokenBySymbol",
      "outputs": [
        {
          "name": "",
          "type": "address"
        },
        {
          "name": "",
          "type": "bytes32"
        },
        {
          "name": "",
          "type": "bytes32"
        },
        {
          "name": "",
          "type": "uint256"
        },
        {
          "name": "",
          "type": "uint8"
        },
        {
          "name": "",
          "type": "uint256"
        }
      ],
      "payable": false,
      "stateMutability": "view",
      "type": "function"
    },
    {
      "constant": true,
      "inputs": [
        {
          "name": "",
          "type": "bytes32"
        },
        {
          "name": "_tokenTypes",
          "type": "bytes32[3]"
        }
      ],
      "name": "tokenBySymbol",
      "outputs": [
        {
          "name": "",
          "type": "address"
        },
        {
          "name": "",
          "type": "bytes32"
        },
        {
          "name": "",
          "type": "bytes32"
        },
        {
          "name": "",
          "type": "uint256"
        },
        {
          "name": "",
          "type": "uint8"
        },
        {
          "name": "",
          "type": "uint256"
        }
      ],
      "payable": false,
      "stateMutability": "view",
      "type": "function"
    },
    {
      "constant": true,
      "inputs": [
        {
          "name": "",
          "type": "bytes32"
        },
        {
          "name": "_name",
          "type": "bytes32"
        },
        {
          "name": "_symbol",
          "type": "bytes32"
        },
        {
          "name": "_decimals",
          "type": "uint256"
        },
        {
          "name": "_value",
          "type": "uint256"
        },
        {
          "name": "_type",
          "type": "bytes32"
        }
      ],
      "name": "maxLoanPeriodDays",
      "outputs": [
        {
          "name": "",
          "type": "uint256"
        },
        {
          "name": "",
          "type": "bytes32"
        },
        {
          "name": "",
          "type": "bytes32"
        },
        {
          "name": "",
          "type": "uint256"
        },
        {
          "name": "",
          "type": "uint8"
        },
        {
          "name": "",
          "type": "uint256"
        }
      ],
      "payable": false,
      "stateMutability": "view",
      "type": "function"
    },
    {
      "constant": true,
      "inputs": [
        {
          "name": "",
          "type": "bytes32"
        }
      ],
      "name": "tradingTokens",
      "outputs": [
        {
          "name": "",
          "type": "bool"
        }
      ],
      "payable": false,
      "stateMutability": "view",
      "type": "function"
    },
    {
      "constant": true,
      "inputs": [
        {
          "name": "_symbol",
          "type": "bytes32"
        },
        {
          "name": "_tokenTypes",
          "type": "bytes32[3]"
        }
      ],
      "name": "decimals",
      "outputs": [
        {
          "name": "",
          "type": "uint256"
        }
      ],
      "payable": false,
      "stateMutability": "view",
      "type": "function"
    },
    {
      "constant": false,
      "inputs": [
        {
          "name": "_token",
          "type": "address"
        },
        {
          "name": "_name",
          "type": "bytes32"
        },
        {
          "name": "_symbol",
          "type": "bytes32"
        },
        {
          "name": "_decimals",
          "type": "uint256"
        },
        {
          "name": "_value",
          "type": "uint256"
        },
        {
          "name": "supportedTypes",
          "type": "bytes32[3]"
        }
      ],
      "name": "addToken",
      "outputs": [
        {
          "name": "",
          "type": "uint256"
        }
      ],
      "payable": false,
      "stateMutability": "nonpayable",
      "type": "function"
    },
    {
      "constant": true,
      "inputs": [
        {
          "name": "",
          "type": "bytes32"
        }
      ],
      "name": "maximumAllowedMarginAccounts",
      "outputs": [
        {
          "name": "",
          "type": "uint256"
        }
      ],
      "payable": false,
      "stateMutability": "view",
      "type": "function"
    },
    {
      "inputs": [
        {
          "name": "_address",
          "type": "address"
        }
      ],
      "payable": false,
      "stateMutability": "view",
      "type": "function",
      "constant": true,
      "name": "tradingAllowed",
      "outputs": [
        {
          "name": "",
          "type": "bool"
        }
      ]
    },
    {
      "anonymous": false,
      "inputs": [
        {
          "indexed": true,
          "name": "_address",
          "type": "address"
        },
        {
          "indexed": false,
          "name": "name",
          "type": "bytes32"
        },
        {
          "indexed": false,
          "name": "symbol",
          "type": "bytes32"
        },
        {
          "indexed": false,
          "name": "decimals",
          "type": "uint256"
        },
        {
          "indexed": false,
          "name": "status",
          "type": "uint8"
        },
        {
          "indexed": false,
          "name": "value",
          "type": "uint256"
        },
        {
          "indexed": false,
          "name": "tokenType",
          "type": "bytes32"
        },
        {
          "indexed": false,
          "name": "action",
          "type": "bytes32"
        }
      ],
      "name": "getTokenSymbolByAddress",
      "type": "function",
      "constant": true,
      "outputs": [
        {
          "name": "",
          "type": "bytes32"
        }
      ],
      "payable": false,
      "stateMutability": "view"
    },
    {
      "constant": true,
      "inputs": [
        {
          "name": "_symbol",
          "type": "bytes32"
        },
        {
          "name": "_tokenTypes",
          "type": "bytes32[3]"
        }
      ],
      "name": "liquidationMarginLevel",
      "outputs": [
        {
          "name": "",
          "type": "uint256"
        },
        {
          "name": "name",
          "type": "bytes32"
        },
        {
          "name": "symbol",
          "type": "bytes32"
        },
        {
          "name": "decimals",
          "type": "uint256"
        },
        {
          "name": "status",
          "type": "uint8"
        },
        {
          "name": "value",
          "type": "uint256"
        }
      ],
      "payable": false,
      "stateMutability": "view",
      "type": "function"
    },
    {
      "constant": false,
      "inputs": [
        {
          "name": "_symbol",
          "type": "bytes32"
        },
        {
          "name": "_tokenTypes",
          "type": "bytes32[3]"
        }
      ],
      "name": "removeSupport",
      "outputs": [
        {
          "name": "",
          "type": "bool"
        }
      ],
      "payable": false,
      "stateMutability": "nonpayable",
      "type": "function"
    },
    {
      "constant": true,
      "inputs": [
        {
          "name": "authority_",
          "type": "address"
        }
      ],
      "name": "stopped",
      "outputs": [
        {
          "name": "",
          "type": "bool"
        }
      ],
      "payable": false,
      "stateMutability": "view",
      "type": "function"
    },
    {
      "constant": false,
      "inputs": [
        {
          "name": "authority_",
          "type": "address"
        }
      ],
      "name": "setAuthority",
      "outputs": [
        {
          "name": "",
          "type": "address"
        },
        {
          "name": "",
          "type": "bytes32"
        },
        {
          "name": "",
          "type": "bytes32"
        },
        {
          "name": "",
          "type": "uint256"
        },
        {
          "name": "",
          "type": "uint8"
        },
        {
          "name": "",
          "type": "uint256"
        }
      ],
      "payable": false,
      "stateMutability": "nonpayable",
      "type": "function"
    },
    {
      "constant": true,
      "inputs": [
        {
          "name": "_token",
          "type": "address"
        }
      ],
      "name": "getTokenMetaData",
      "outputs": [
        {
          "name": "",
          "type": "address"
        },
        {
          "name": "",
          "type": "bytes32"
        },
        {
          "name": "",
          "type": "bytes32"
        },
        {
          "name": "",
          "type": "uint256"
        },
        {
          "name": "",
          "type": "uint8"
        },
        {
          "name": "",
          "type": "uint256"
        }
      ],
      "payable": false,
      "stateMutability": "view",
      "type": "function"
    },
    {
      "inputs": [
        {
          "name": "_symbol",
          "type": "bytes32"
        },
        {
          "name": "_tokenTypes",
          "type": "bytes32[3]"
        }
      ],
      "payable": false,
      "stateMutability": "view",
      "type": "function",
      "constant": true,
      "name": "owner",
      "outputs": [
        {
          "name": "",
          "type": "address"
        }
      ]
    },
    {
      "anonymous": false,
      "inputs": [
        {
          "indexed": true,
          "name": "token",
          "type": "address"
        },
        {
          "indexed": false,
          "name": "name",
          "type": "bytes32"
        },
        {
          "indexed": false,
          "name": "symbol",
          "type": "bytes32"
        },
        {
          "indexed": false,
          "name": "decimals",
          "type": "uint256"
        },
        {
          "indexed": false,
          "name": "status",
          "type": "uint8"
        },
        {
          "indexed": false,
          "name": "value",
          "type": "uint256"
        },
        {
          "indexed": false,
          "name": "action",
          "type": "bytes32"
        }
      ],
      "name": "liquidationMarginPercentage",
      "type": "function",
      "constant": true,
      "outputs": [
        {
          "name": "",
          "type": "uint256"
        }
      ],
      "payable": false,
      "stateMutability": "view"
    },
    {
      "constant": false,
      "inputs": [
        {
          "name": "_symbol",
          "type": "bytes32"
        },
        {
          "name": "_tokenTypes",
          "type": "bytes32[3]"
        }
      ],
      "name": "addSupport",
      "outputs": [
        {
          "name": "",
          "type": "bool"
        }
      ],
      "payable": false,
      "stateMutability": "nonpayable",
      "type": "function"
    },
    {
      "constant": false,
      "inputs": [],
      "name": "start",
      "outputs": [
        {
          "name": "",
          "type": "uint256"
        }
      ],
      "payable": false,
      "stateMutability": "nonpayable",
      "type": "function"
    },
    {
      "constant": true,
      "inputs": [
        {
          "name": "_symbol",
          "type": "bytes32"
        }
      ],
      "name": "authority",
      "outputs": [
        {
          "name": "",
          "type": "address"
        }
      ],
      "payable": false,
      "stateMutability": "view",
      "type": "function"
    },
    {
      "constant": true,
      "inputs": [
        {
          "name": "",
          "type": "bytes32"
        }
      ],
      "name": "interestRatePerDay",
      "outputs": [
        {
          "name": "",
          "type": "uint256"
        }
      ],
      "payable": false,
      "stateMutability": "view",
      "type": "function"
    },
    {
      "constant": true,
      "inputs": [
        {
          "name": "_symbol",
          "type": "bytes32"
        }
      ],
      "name": "getTokenDecimalsBySymbol",
      "outputs": [
        {
          "name": "",
          "type": "uint256"
        }
      ],
      "payable": false,
      "stateMutability": "view",
      "type": "function"
    },
    {
      "constant": true,
      "inputs": [
        {
          "name": "",
          "type": "bytes32"
        }
      ],
      "name": "collateralTokens",
      "outputs": [
        {
          "name": "",
          "type": "bool"
        }
      ],
      "payable": false,
      "stateMutability": "view",
      "type": "function"
    },
    {
      "constant": true,
      "inputs": [
        {
          "name": "_address",
          "type": "address"
        }
      ],
      "name": "getTokenDecimalsByAddress",
      "outputs": [
        {
          "name": "",
          "type": "uint256"
        },
        {
          "name": "name",
          "type": "bytes32"
        },
        {
          "name": "symbol",
          "type": "bytes32"
        },
        {
          "name": "decimals",
          "type": "uint256"
        },
        {
          "name": "status",
          "type": "uint8"
        },
        {
          "name": "value",
          "type": "uint256"
        }
      ],
      "payable": false,
      "stateMutability": "view",
      "type": "function"
    },
    {
      "constant": true,
      "inputs": [
        {
          "name": "_symbol",
          "type": "bytes32"
        }
      ],
      "name": "isValidSymbol",
      "outputs": [
        {
          "name": "",
          "type": "bool"
        }
      ],
      "payable": false,
      "stateMutability": "view",
      "type": "function"
    },
    {
      "constant": true,
      "inputs": [
        {
          "name": "",
          "type": "address"
        }
      ],
      "name": "tokens",
      "outputs": [
        {
          "name": "token",
          "type": "address"
        },
        {
          "name": "name",
          "type": "bytes32"
        },
        {
          "name": "symbol",
          "type": "bytes32"
        },
        {
          "name": "decimals",
          "type": "uint256"
        },
        {
          "name": "status",
          "type": "uint8"
        },
        {
          "name": "value",
          "type": "uint256"
        }
      ],
      "payable": false,
      "stateMutability": "view",
      "type": "function"
    },
    {
      "constant": true,
      "inputs": [
        {
          "name": "",
          "type": "uint256"
        }
      ],
      "name": "tokenAddresses",
      "outputs": [
        {
          "name": "",
          "type": "address"
        }
      ],
      "payable": false,
      "stateMutability": "view",
      "type": "function"
    },
    {
      "constant": false,
      "inputs": [
        {
          "name": "_i",
          "type": "uint256"
        }
      ],
      "name": "setInterestRatePerDay",
      "outputs": [
        {
          "name": "",
          "type": "bool"
        }
      ],
      "payable": false,
      "stateMutability": "nonpayable",
      "type": "function"
    },
    {
      "constant": false,
      "inputs": [
        {
          "name": "_percentage",
          "type": "uint256"
        }
      ],
      "name": "setInitialMarginPercentage",
      "outputs": [
        {
          "name": "",
          "type": "bool"
        }
      ],
      "payable": false,
      "stateMutability": "nonpayable",
      "type": "function"
    },
    {
      "inputs": [],
      "payable": false,
      "stateMutability": "view",
      "type": "function",
      "constant": true,
      "name": "getTokenAddresses",
      "outputs": [
        {
          "name": "",
          "type": "address[]"
        }
      ]
    },
    {
      "anonymous": false,
      "inputs": [
        {
          "indexed": true,
          "name": "",
          "type": "bytes32"
        },
        {
          "indexed": false,
          "name": "name",
          "type": "bytes32"
        },
        {
          "indexed": false,
          "name": "symbol",
          "type": "bytes32"
        },
        {
          "indexed": false,
          "name": "decimals",
          "type": "uint256"
        },
        {
          "indexed": false,
          "name": "status",
          "type": "uint8"
        },
        {
          "indexed": false,
          "name": "value",
          "type": "uint256"
        },
        {
          "indexed": false,
          "name": "action",
          "type": "bytes32"
        }
      ],
      "name": "lendingTokens",
      "type": "function",
      "constant": true,
      "outputs": [
        {
          "name": "",
          "type": "bool"
        }
      ],
      "payable": false,
      "stateMutability": "view"
    },
    {
      "anonymous": false,
      "inputs": [
        {
          "indexed": true,
          "name": "_symbol",
          "type": "bytes32"
        }
      ],
      "name": "getTokenAddressBySymbol",
      "type": "function",
      "constant": true,
      "outputs": [
        {
          "name": "",
          "type": "address"
        }
      ],
      "payable": false,
      "stateMutability": "view"
    },
    {
      "anonymous": false,
      "inputs": [
        {
          "indexed": true,
          "name": "owner",
          "type": "address"
        }
      ],
      "name": "LogSetOwner",
      "type": "constructor",
      "payable": false,
      "stateMutability": "nonpayable"
    },
    {
      "anonymous": false,
      "inputs": [
        {
          "indexed": true,
          "name": "token",
          "type": "address"
        },
        {
          "indexed": false,
          "name": "name",
          "type": "bytes32"
        },
        {
          "indexed": false,
          "name": "symbol",
          "type": "bytes32"
        },
        {
          "indexed": false,
          "name": "decimals",
          "type": "uint256"
        },
        {
          "indexed": false,
          "name": "status",
          "type": "uint8"
        },
        {
          "indexed": false,
          "name": "value",
          "type": "uint256"
        },
        {
          "indexed": false,
          "name": "action",
          "type": "bytes32"
        }
      ],
      "name": "LogTokenUpdated",
      "type": "event"
    },
    {
      "anonymous": false,
      "inputs": [
        {
          "indexed": true,
          "name": "authority",
          "type": "address"
        }
      ],
      "name": "LogSetAuthority",
      "type": "event"
    },
    {
      "anonymous": false,
      "inputs": [
        {
          "indexed": true,
          "name": "owner",
          "type": "address"
        }
      ],
      "name": "LogSetOwner",
      "type": "event"
    },
    {
      "anonymous": true,
      "inputs": [
        {
          "indexed": true,
          "name": "sig",
          "type": "bytes4"
        },
        {
          "indexed": true,
          "name": "guy",
          "type": "address"
        },
        {
          "indexed": true,
          "name": "foo",
          "type": "bytes32"
        },
        {
          "indexed": true,
          "name": "bar",
          "type": "bytes32"
        },
        {
          "indexed": false,
          "name": "wad",
          "type": "uint256"
        },
        {
          "indexed": false,
          "name": "fax",
          "type": "bytes"
        }
      ],
      "name": "LogNote",
      "type": "event"
    }
  ],
  "bytecode": "0x60606040527f6c656e64696e67000000000000000000000000000000000000000000000000006009906000191690557f636f6c6c61746572616c00000000000000000000000000000000000000000000600a906000191690557f74726164696e6700000000000000000000000000000000000000000000000000600b90600019169055341561008d57600080fd5b33600160006101000a81548173ffffffffffffffffffffffffffffffffffffffff021916908373ffffffffffffffffffffffffffffffffffffffff1602179055503373ffffffffffffffffffffffffffffffffffffffff167fce241d7ca1f669fee44b6fc00b8eba2df3bb514eed0f6f668f8f89096e81ed9460405160405180910390a260018060156101000a81548160ff0219169083151502179055506032600281905550601260038190555060286004819055506014600581905550606460068190555062278d006007819055506283d600600881905550612e1c806101766000396000f3006060604052600436106101ee576000357c0100000000000000000000000000000000000000000000000000000000900463ffffffff16806307911052146101f357806307da68f51461021c5780630ce6b419146102315780631028f0361461026c5780631348ed5e1461029557806313af4035146102be57806313baf1e6146102f757806318db3c7f146103395780631d6a3ea0146103745780631f76fa34146103af57806326a2a16d1461045757806326e86cd7146104be57806328ad119c146104e7578063313ce567146105265780635289111c1461054f57806352e9e10f146105e057806353371be014610609578063667a5f9d14610636578063707344c71461068b578063712c0cc9146106b457806375f12b211461071f5780637a9e5e4b1461074c5780637abccac9146107855780638da5cb5b1461083f578063959cab2f14610894578063be291c4f146108bd578063be9a655514610928578063bf7e214f1461093d578063c935e1ab14610992578063d12c7b10146109bb578063d1a294c4146109f6578063d902522914610a35578063e19f86df14610a82578063e486033914610ac1578063e5df8b8414610b7b578063e719dd6c14610bde578063e842c77d14610c19578063ee8c24b814610c54578063eeeaddef14610cbe578063fa7fdeb714610cfd575b600080fd5b34156101fe57600080fd5b610206610d64565b6040518082815260200191505060405180910390f35b341561022757600080fd5b61022f610d86565b005b341561023c57600080fd5b6102526004808035906020019091905050610e88565b604051808215151515815260200191505060405180910390f35b341561027757600080fd5b61027f610ed3565b6040518082815260200191505060405180910390f35b34156102a057600080fd5b6102a8610ed9565b6040518082815260200191505060405180910390f35b34156102c957600080fd5b6102f5600480803573ffffffffffffffffffffffffffffffffffffffff16906020019091905050610edf565b005b341561030257600080fd5b610337600480803573ffffffffffffffffffffffffffffffffffffffff16906020019091908035906020019091905050610fc1565b005b341561034457600080fd5b61035a6004808035906020019091905050611460565b604051808215151515815260200191505060405180910390f35b341561037f57600080fd5b61039560048080359060200190919050506114bb565b604051808215151515815260200191505060405180910390f35b34156103ba57600080fd5b6103d4600480803560001916906020019091905050611506565b604051808773ffffffffffffffffffffffffffffffffffffffff1673ffffffffffffffffffffffffffffffffffffffff1681526020018660001916600019168152602001856000191660001916815260200184815260200183600181111561043857fe5b60ff168152602001828152602001965050505050505060405180910390f35b341561046257600080fd5b61047c60048080356000191690602001909190505061156e565b604051808273ffffffffffffffffffffffffffffffffffffffff1673ffffffffffffffffffffffffffffffffffffffff16815260200191505060405180910390f35b34156104c957600080fd5b6104d16115a1565b6040518082815260200191505060405180910390f35b34156104f257600080fd5b61050c6004808035600019169060200190919050506115a7565b604051808215151515815260200191505060405180910390f35b341561053157600080fd5b6105396115c7565b6040518082815260200191505060405180910390f35b341561055a57600080fd5b6105de600480803573ffffffffffffffffffffffffffffffffffffffff16906020019091908035600019169060200190919080356000191690602001909190803590602001909190803590602001909190806060019060038060200260405190810160405280929190826003602002808284378201915050505050919050506115cd565b005b34156105eb57600080fd5b6105f3611a9b565b6040518082815260200191505060405180910390f35b341561061457600080fd5b61061c611aa1565b604051808215151515815260200191505060405180910390f35b341561064157600080fd5b61066d600480803573ffffffffffffffffffffffffffffffffffffffff16906020019091905050611ab4565b60405180826000191660001916815260200191505060405180910390f35b341561069657600080fd5b61069e611bd3565b6040518082815260200191505060405180910390f35b34156106bf57600080fd5b6107056004808035600019169060200190919080606001906003806020026040519081016040528092919082600360200280828437820191505050505091905050611bf5565b604051808215151515815260200191505060405180910390f35b341561072a57600080fd5b610732611e14565b604051808215151515815260200191505060405180910390f35b341561075757600080fd5b610783600480803573ffffffffffffffffffffffffffffffffffffffff16906020019091905050611e27565b005b341561079057600080fd5b6107bc600480803573ffffffffffffffffffffffffffffffffffffffff16906020019091905050611f07565b604051808773ffffffffffffffffffffffffffffffffffffffff1673ffffffffffffffffffffffffffffffffffffffff1681526020018660001916600019168152602001856000191660001916815260200184815260200183600181111561082057fe5b60ff168152602001828152602001965050505050505060405180910390f35b341561084a57600080fd5b610852612054565b604051808273ffffffffffffffffffffffffffffffffffffffff1673ffffffffffffffffffffffffffffffffffffffff16815260200191505060405180910390f35b341561089f57600080fd5b6108a761207a565b6040518082815260200191505060405180910390f35b34156108c857600080fd5b61090e6004808035600019169060200190919080606001906003806020026040519081016040528092919082600360200280828437820191505050505091905050612080565b604051808215151515815260200191505060405180910390f35b341561093357600080fd5b61093b61229f565b005b341561094857600080fd5b6109506123a2565b604051808273ffffffffffffffffffffffffffffffffffffffff1673ffffffffffffffffffffffffffffffffffffffff16815260200191505060405180910390f35b341561099d57600080fd5b6109a56123c7565b6040518082815260200191505060405180910390f35b34156109c657600080fd5b6109e06004808035600019169060200190919050506123cd565b6040518082815260200191505060405180910390f35b3415610a0157600080fd5b610a1b600480803560001916906020019091905050612527565b604051808215151515815260200191505060405180910390f35b3415610a4057600080fd5b610a6c600480803573ffffffffffffffffffffffffffffffffffffffff16906020019091905050612547565b6040518082815260200191505060405180910390f35b3415610a8d57600080fd5b610aa7600480803560001916906020019091905050612666565b604051808215151515815260200191505060405180910390f35b3415610acc57600080fd5b610af8600480803573ffffffffffffffffffffffffffffffffffffffff169060200190919050506127d3565b604051808773ffffffffffffffffffffffffffffffffffffffff1673ffffffffffffffffffffffffffffffffffffffff16815260200186600019166000191681526020018560001916600019168152602001848152602001836001811115610b5c57fe5b60ff168152602001828152602001965050505050505060405180910390f35b3415610b8657600080fd5b610b9c600480803590602001909190505061283c565b604051808273ffffffffffffffffffffffffffffffffffffffff1673ffffffffffffffffffffffffffffffffffffffff16815260200191505060405180910390f35b3415610be957600080fd5b610bff600480803590602001909190505061287b565b604051808215151515815260200191505060405180910390f35b3415610c2457600080fd5b610c3a60048080359060200190919050506128c6565b604051808215151515815260200191505060405180910390f35b3415610c5f57600080fd5b610c67612921565b6040518080602001828103825283818151815260200191508051906020019060200280838360005b83811015610caa578082015181840152602081019050610c8f565b505050509050019250505060405180910390f35b3415610cc957600080fd5b610ce36004808035600019169060200190919050506129b5565b604051808215151515815260200191505060405180910390f35b3415610d0857600080fd5b610d226004808035600019169060200190919050506129d5565b604051808273ffffffffffffffffffffffffffffffffffffffff1673ffffffffffffffffffffffffffffffffffffffff16815260200191505060405180910390f35b6000610d81610d766064600454612a1a565b600354600a0a612a56565b905090565b610db4336000357fffffffff0000000000000000000000000000000000000000000000000000000016612a86565b1515610dbf57600080fd5b60008060043591506024359050806000191682600019163373ffffffffffffffffffffffffffffffffffffffff166000357fffffffff00000000000000000000000000000000000000000000000000000000167bffffffffffffffffffffffffffffffffffffffffffffffffffffffff19163460003660405180848152602001806020018281038252848482818152602001925080828437820191505094505050505060405180910390a460018060146101000a81548160ff0219169083151502179055505050565b6000610eb8336000357fffffffff0000000000000000000000000000000000000000000000000000000016612a86565b1515610ec357600080fd5b8160088190555060019050919050565b60045481565b60085481565b610f0d336000357fffffffff0000000000000000000000000000000000000000000000000000000016612a86565b1515610f1857600080fd5b80600160006101000a81548173ffffffffffffffffffffffffffffffffffffffff021916908373ffffffffffffffffffffffffffffffffffffffff160217905550600160009054906101000a900473ffffffffffffffffffffffffffffffffffffffff1673ffffffffffffffffffffffffffffffffffffffff167fce241d7ca1f669fee44b6fc00b8eba2df3bb514eed0f6f668f8f89096e81ed9460405160405180910390a250565b600082600180811115610fd057fe5b600c60008373ffffffffffffffffffffffffffffffffffffffff1673ffffffffffffffffffffffffffffffffffffffff16815260200190815260200160002060040160009054906101000a900460ff16600181111561102b57fe5b14151561103757600080fd5b600160149054906101000a900460ff1615151561105357600080fd5b611081336000357fffffffff0000000000000000000000000000000000000000000000000000000016612a86565b151561108c57600080fd5b8373ffffffffffffffffffffffffffffffffffffffff166011848154811015156110b257fe5b906000526020600020900160009054906101000a900473ffffffffffffffffffffffffffffffffffffffff1673ffffffffffffffffffffffffffffffffffffffff1614151561110057600080fd5b601160016011805490500381548110151561111757fe5b906000526020600020900160009054906101000a900473ffffffffffffffffffffffffffffffffffffffff1660118481548110151561115257fe5b906000526020600020900160006101000a81548173ffffffffffffffffffffffffffffffffffffffff021916908373ffffffffffffffffffffffffffffffffffffffff16021790555060016011818180549050039150816111b39190612d01565b50600c60008573ffffffffffffffffffffffffffffffffffffffff1673ffffffffffffffffffffffffffffffffffffffff16815260200190815260200160002091508160000160009054906101000a900473ffffffffffffffffffffffffffffffffffffffff1673ffffffffffffffffffffffffffffffffffffffff167f7beca59326c8f30286f798d4f9b394e7c533cc36ea405f230771e8012689c1b18360010154846002015485600301548660040160009054906101000a900460ff16876005015460405180866000191660001916815260200185600019166000191681526020018481526020018360018111156112a957fe5b60ff168152602001828152602001807f746f6b656e2072656d6f766564000000000000000000000000000000000000008152506020019550505050505060405180910390a26010600083600201546000191660001916815260200190815260200160002060006101000a81549073ffffffffffffffffffffffffffffffffffffffff0219169055600d600083600201546000191660001916815260200190815260200160002060006101000a81549060ff0219169055600e600083600201546000191660001916815260200190815260200160002060006101000a81549060ff0219169055600f600083600201546000191660001916815260200190815260200160002060006101000a81549060ff0219169055600c60008573ffffffffffffffffffffffffffffffffffffffff1673ffffffffffffffffffffffffffffffffffffffff168152602001908152602001600020600080820160006101000a81549073ffffffffffffffffffffffffffffffffffffffff02191690556001820160009055600282016000905560038201600090556004820160006101000a81549060ff02191690556005820160009055505050505050565b6000611490336000357fffffffff0000000000000000000000000000000000000000000000000000000016612a86565b151561149b57600080fd5b606482111515156114ab57600080fd5b8160058190555060019050919050565b60006114eb336000357fffffffff0000000000000000000000000000000000000000000000000000000016612a86565b15156114f657600080fd5b8160078190555060019050919050565b600080600080600080600060106000896000191660001916815260200190815260200160002060009054906101000a900473ffffffffffffffffffffffffffffffffffffffff16905061155881611f07565b9650965096509650965096505091939550919395565b60106020528060005260406000206000915054906101000a900473ffffffffffffffffffffffffffffffffffffffff1681565b60075481565b600f6020528060005260406000206000915054906101000a900460ff1681565b60035481565b856001808111156115da57fe5b600c60008373ffffffffffffffffffffffffffffffffffffffff1673ffffffffffffffffffffffffffffffffffffffff16815260200190815260200160002060040160009054906101000a900460ff16600181111561163557fe5b1415151561164257600080fd5b86600073ffffffffffffffffffffffffffffffffffffffff168173ffffffffffffffffffffffffffffffffffffffff161415151561167f57600080fd5b600160149054906101000a900460ff1615151561169b57600080fd5b6116c9336000357fffffffff0000000000000000000000000000000000000000000000000000000016612a86565b15156116d457600080fd5b60c0604051908101604052808973ffffffffffffffffffffffffffffffffffffffff168152602001886000191681526020018760001916815260200186815260200160018081111561172257fe5b815260200185815250600c60008a73ffffffffffffffffffffffffffffffffffffffff1673ffffffffffffffffffffffffffffffffffffffff16815260200190815260200160002060008201518160000160006101000a81548173ffffffffffffffffffffffffffffffffffffffff021916908373ffffffffffffffffffffffffffffffffffffffff16021790555060208201518160010190600019169055604082015181600201906000191690556060820151816003015560808201518160040160006101000a81548160ff021916908360018111156117ff57fe5b021790555060a08201518160050155905050601180548060010182816118259190612d2d565b916000526020600020900160008a909190916101000a81548173ffffffffffffffffffffffffffffffffffffffff021916908373ffffffffffffffffffffffffffffffffffffffff160217905550508760106000886000191660001916815260200190815260200160002060006101000a81548173ffffffffffffffffffffffffffffffffffffffff021916908373ffffffffffffffffffffffffffffffffffffffff160217905550600954600019168360006003811015156118e457fe5b6020020151600019161415611928576001600d6000886000191660001916815260200190815260200160002060006101000a81548160ff0219169083151502179055505b600a546000191683600160038110151561193e57fe5b6020020151600019161415611982576001600e6000886000191660001916815260200190815260200160002060006101000a81548160ff0219169083151502179055505b600b546000191683600260038110151561199857fe5b60200201516000191614156119dc576001600f6000886000191660001916815260200190815260200160002060006101000a81548160ff0219169083151502179055505b8773ffffffffffffffffffffffffffffffffffffffff167f7beca59326c8f30286f798d4f9b394e7c533cc36ea405f230771e8012689c1b18888886001896040518086600019166000191681526020018560001916600019168152602001848152602001836001811115611a4c57fe5b60ff168152602001828152602001807f746f6b656e2061646465640000000000000000000000000000000000000000008152506020019550505050505060405180910390a25050505050505050565b60025481565b600160159054906101000a900460ff1681565b6000611abe612d59565b600c60008473ffffffffffffffffffffffffffffffffffffffff1673ffffffffffffffffffffffffffffffffffffffff16815260200190815260200160002060c060405190810160405290816000820160009054906101000a900473ffffffffffffffffffffffffffffffffffffffff1673ffffffffffffffffffffffffffffffffffffffff1673ffffffffffffffffffffffffffffffffffffffff168152602001600182015460001916600019168152602001600282015460001916600019168152602001600382015481526020016004820160009054906101000a900460ff166001811115611bab57fe5b6001811115611bb657fe5b815260200160058201548152505090508060400151915050919050565b6000611bf0611be56064600554612a1a565b600354600a0a612a56565b905090565b600082600180811115611c0457fe5b600c600060106000856000191660001916815260200190815260200160002060009054906101000a900473ffffffffffffffffffffffffffffffffffffffff1673ffffffffffffffffffffffffffffffffffffffff1673ffffffffffffffffffffffffffffffffffffffff16815260200190815260200160002060040160009054906101000a900460ff166001811115611c9a57fe5b141515611ca657600080fd5b600160149054906101000a900460ff16151515611cc257600080fd5b611cf0336000357fffffffff0000000000000000000000000000000000000000000000000000000016612a86565b1515611cfb57600080fd5b60095460001916836000600381101515611d1157fe5b6020020151600019161415611d55576000600d6000866000191660001916815260200190815260200160002060006101000a81548160ff0219169083151502179055505b600a5460001916836001600381101515611d6b57fe5b6020020151600019161415611daf576000600e6000866000191660001916815260200190815260200160002060006101000a81548160ff0219169083151502179055505b600b5460001916836002600381101515611dc557fe5b6020020151600019161415611e09576000600f6000866000191660001916815260200190815260200160002060006101000a81548160ff0219169083151502179055505b600191505092915050565b600160149054906101000a900460ff1681565b611e55336000357fffffffff0000000000000000000000000000000000000000000000000000000016612a86565b1515611e6057600080fd5b806000806101000a81548173ffffffffffffffffffffffffffffffffffffffff021916908373ffffffffffffffffffffffffffffffffffffffff1602179055506000809054906101000a900473ffffffffffffffffffffffffffffffffffffffff1673ffffffffffffffffffffffffffffffffffffffff167f1abebea81bfa2637f28358c371278fb15ede7ea8dd28d2e03b112ff6d936ada460405160405180910390a250565b600080600080600080611f18612d59565b600c60008973ffffffffffffffffffffffffffffffffffffffff1673ffffffffffffffffffffffffffffffffffffffff16815260200190815260200160002060c060405190810160405290816000820160009054906101000a900473ffffffffffffffffffffffffffffffffffffffff1673ffffffffffffffffffffffffffffffffffffffff1673ffffffffffffffffffffffffffffffffffffffff168152602001600182015460001916600019168152602001600282015460001916600019168152602001600382015481526020016004820160009054906101000a900460ff16600181111561200557fe5b600181111561201057fe5b81526020016005820154815250509050806000015181602001518260400151836060015184608001518560a001519650965096509650965096505091939550919395565b600160009054906101000a900473ffffffffffffffffffffffffffffffffffffffff1681565b60055481565b60008260018081111561208f57fe5b600c600060106000856000191660001916815260200190815260200160002060009054906101000a900473ffffffffffffffffffffffffffffffffffffffff1673ffffffffffffffffffffffffffffffffffffffff1673ffffffffffffffffffffffffffffffffffffffff16815260200190815260200160002060040160009054906101000a900460ff16600181111561212557fe5b14151561213157600080fd5b600160149054906101000a900460ff1615151561214d57600080fd5b61217b336000357fffffffff0000000000000000000000000000000000000000000000000000000016612a86565b151561218657600080fd5b6009546000191683600060038110151561219c57fe5b60200201516000191614156121e0576001600d6000866000191660001916815260200190815260200160002060006101000a81548160ff0219169083151502179055505b600a54600019168360016003811015156121f657fe5b602002015160001916141561223a576001600e6000866000191660001916815260200190815260200160002060006101000a81548160ff0219169083151502179055505b600b546000191683600260038110151561225057fe5b6020020151600019161415612294576001600f6000866000191660001916815260200190815260200160002060006101000a81548160ff0219169083151502179055505b600191505092915050565b6122cd336000357fffffffff0000000000000000000000000000000000000000000000000000000016612a86565b15156122d857600080fd5b60008060043591506024359050806000191682600019163373ffffffffffffffffffffffffffffffffffffffff166000357fffffffff00000000000000000000000000000000000000000000000000000000167bffffffffffffffffffffffffffffffffffffffffffffffffffffffff19163460003660405180848152602001806020018281038252848482818152602001925080828437820191505094505050505060405180910390a46000600160146101000a81548160ff0219169083151502179055505050565b6000809054906101000a900473ffffffffffffffffffffffffffffffffffffffff1681565b60065481565b60006123d7612d59565b600c600060106000866000191660001916815260200190815260200160002060009054906101000a900473ffffffffffffffffffffffffffffffffffffffff1673ffffffffffffffffffffffffffffffffffffffff1673ffffffffffffffffffffffffffffffffffffffff16815260200190815260200160002060c060405190810160405290816000820160009054906101000a900473ffffffffffffffffffffffffffffffffffffffff1673ffffffffffffffffffffffffffffffffffffffff1673ffffffffffffffffffffffffffffffffffffffff168152602001600182015460001916600019168152602001600282015460001916600019168152602001600382015481526020016004820160009054906101000a900460ff1660018111156124ff57fe5b600181111561250a57fe5b815260200160058201548152505090508060600151915050919050565b600e6020528060005260406000206000915054906101000a900460ff1681565b6000612551612d59565b600c60008473ffffffffffffffffffffffffffffffffffffffff1673ffffffffffffffffffffffffffffffffffffffff16815260200190815260200160002060c060405190810160405290816000820160009054906101000a900473ffffffffffffffffffffffffffffffffffffffff1673ffffffffffffffffffffffffffffffffffffffff1673ffffffffffffffffffffffffffffffffffffffff168152602001600182015460001916600019168152602001600282015460001916600019168152602001600382015481526020016004820160009054906101000a900460ff16600181111561263e57fe5b600181111561264957fe5b815260200160058201548152505090508060600151915050919050565b60008160018081111561267557fe5b600c600060106000856000191660001916815260200190815260200160002060009054906101000a900473ffffffffffffffffffffffffffffffffffffffff1673ffffffffffffffffffffffffffffffffffffffff1673ffffffffffffffffffffffffffffffffffffffff16815260200190815260200160002060040160009054906101000a900460ff16600181111561270b57fe5b14151561271757600080fd5b60018081111561272357fe5b600c600060106000876000191660001916815260200190815260200160002060009054906101000a900473ffffffffffffffffffffffffffffffffffffffff1673ffffffffffffffffffffffffffffffffffffffff1673ffffffffffffffffffffffffffffffffffffffff16815260200190815260200160002060040160009054906101000a900460ff1660018111156127b957fe5b14156127c857600191506127cd565b600091505b50919050565b600c6020528060005260406000206000915090508060000160009054906101000a900473ffffffffffffffffffffffffffffffffffffffff16908060010154908060020154908060030154908060040160009054906101000a900460ff16908060050154905086565b60118181548110151561284b57fe5b90600052602060002090016000915054906101000a900473ffffffffffffffffffffffffffffffffffffffff1681565b60006128ab336000357fffffffff0000000000000000000000000000000000000000000000000000000016612a86565b15156128b657600080fd5b8160068190555060019050919050565b60006128f6336000357fffffffff0000000000000000000000000000000000000000000000000000000016612a86565b151561290157600080fd5b6064821115151561291157600080fd5b8160048190555060019050919050565b612929612db7565b60118054806020026020016040519081016040528092919081815260200182805480156129ab57602002820191906000526020600020905b8160009054906101000a900473ffffffffffffffffffffffffffffffffffffffff1673ffffffffffffffffffffffffffffffffffffffff1681526020019060010190808311612961575b5050505050905090565b600d6020528060005260406000206000915054906101000a900460ff1681565b600060106000836000191660001916815260200190815260200160002060009054906101000a900473ffffffffffffffffffffffffffffffffffffffff169050919050565b600081612a44612a3285670de0b6b3a7640000612a56565b600285811515612a3e57fe5b04612ce5565b811515612a4d57fe5b04905092915050565b600080821480612a7557508282838502925082811515612a7257fe5b04145b1515612a8057600080fd5b92915050565b60003073ffffffffffffffffffffffffffffffffffffffff168373ffffffffffffffffffffffffffffffffffffffff161415612ac55760019050612cdf565b600160009054906101000a900473ffffffffffffffffffffffffffffffffffffffff1673ffffffffffffffffffffffffffffffffffffffff168373ffffffffffffffffffffffffffffffffffffffff161415612b245760019050612cdf565b600073ffffffffffffffffffffffffffffffffffffffff166000809054906101000a900473ffffffffffffffffffffffffffffffffffffffff1673ffffffffffffffffffffffffffffffffffffffff161415612b835760009050612cdf565b6000809054906101000a900473ffffffffffffffffffffffffffffffffffffffff1673ffffffffffffffffffffffffffffffffffffffff1663b70096138430856000604051602001526040518463ffffffff167c0100000000000000000000000000000000000000000000000000000000028152600401808473ffffffffffffffffffffffffffffffffffffffff1673ffffffffffffffffffffffffffffffffffffffff1681526020018373ffffffffffffffffffffffffffffffffffffffff1673ffffffffffffffffffffffffffffffffffffffff168152602001827bffffffffffffffffffffffffffffffffffffffffffffffffffffffff19167bffffffffffffffffffffffffffffffffffffffffffffffffffffffff191681526020019350505050602060405180830381600087803b1515612cc157600080fd5b6102c65a03f11515612cd257600080fd5b5050506040518051905090505b92915050565b60008282840191508110151515612cfb57600080fd5b92915050565b815481835581811511612d2857818360005260206000209182019101612d279190612dcb565b5b505050565b815481835581811511612d5457818360005260206000209182019101612d539190612dcb565b5b505050565b60c060405190810160405280600073ffffffffffffffffffffffffffffffffffffffff16815260200160008019168152602001600080191681526020016000815260200160006001811115612daa57fe5b8152602001600081525090565b602060405190810160405280600081525090565b612ded91905b80821115612de9576000816000905550600101612dd1565b5090565b905600a165627a7a72305820430b4d4b65376492f448414fcf0466e6df01a5556b8b3b0dad95ad094636d1410029",
  "source": "pragma solidity 0.4.18;\r\n\r\nimport \"./math.sol\";\r\nimport \"./stop.sol\";\r\n\r\n// FOR DEMO\r\n\r\ncontract NetworkParameters is DSMath, DSStop {\r\n    bool public tradingAllowed;\r\n    uint public maximumAllowedMarginAccounts;\r\n    uint public decimals;\r\n    uint public initialMarginPercentage;\r\n    uint public liquidationMarginPercentage;\r\n    \r\n    uint public interestRatePerDay;\r\n    uint public maxLoanPeriodDays;\r\n    uint public gracePeriodDays;\r\n    \r\n    bytes32 internal TOKEN_TYPE_LENDING = \"lending\";\r\n    bytes32 internal TOKEN_TYPE_COLLATERAL = \"collateral\";\r\n    bytes32 internal TOKEN_TYPE_TRADING = \"trading\";\r\n    \r\n    mapping (address => TokenMetadata) public tokens;\r\n    mapping (bytes32 => bool) public lendingTokens;\r\n    mapping (bytes32 => bool) public collateralTokens;\r\n    mapping (bytes32 => bool) public tradingTokens;\r\n    mapping (bytes32 => address) public tokenBySymbol;\r\n\r\n    address[] public tokenAddresses;\r\n    \r\n    // Token Registry\r\n    event LogTokenUpdated(\r\n        address indexed token,\r\n        bytes32 name,\r\n        bytes32 symbol,\r\n        uint decimals,\r\n        Status status,\r\n        uint value,\r\n        bytes32 action\r\n    );\r\n    \r\n    enum Status {\r\n        INACTIVE, // Set to inactive when a token is deactivated\r\n        ACTIVE    // Default status when a new token is added\r\n    }\r\n\r\n    struct TokenMetadata {\r\n        address token;\r\n        bytes32 name;\r\n        bytes32 symbol;\r\n        uint decimals;\r\n        Status status;\r\n        uint value;\r\n    }\r\n\r\n    modifier tokenExists(address _token) {\r\n        require(tokens[_token].status == Status.ACTIVE);\r\n        _;\r\n    }\r\n\r\n    modifier tokenDoesNotExist(address _token) {\r\n        require(tokens[_token].status != Status.ACTIVE);\r\n        _;\r\n    }\r\n\r\n    modifier symbolExists(bytes32 _symbol) {\r\n        require(tokens[tokenBySymbol[_symbol]].status == Status.ACTIVE);\r\n        _;\r\n    }\r\n\r\n    modifier addressNotNull(address _address) {\r\n        require(_address != address(0));\r\n        _;\r\n    }\r\n\r\n    function NetworkParameters() public {\r\n        \r\n        tradingAllowed = true;\r\n        maximumAllowedMarginAccounts = 50;\r\n        decimals = 18;\r\n        initialMarginPercentage = 40;// 1 / 40% = 2.5 times collateral\r\n        liquidationMarginPercentage = 20;// 1 / 20% = 5 times collateral\r\n        \r\n        interestRatePerDay = 100;\r\n        maxLoanPeriodDays = 30 days;\r\n        gracePeriodDays = 100 days;\r\n    }\r\n\r\n    function initialMarginLevel()\r\n        public\r\n        constant\r\n        returns (uint)\r\n    {\r\n        return mul(wdiv(100, initialMarginPercentage), 10 ** decimals);\r\n    }\r\n\r\n    function liquidationMarginLevel()\r\n        public\r\n        constant\r\n        returns (uint)\r\n    {\r\n        return mul(wdiv(100, liquidationMarginPercentage), 10 ** decimals);\r\n    }\r\n\r\n    function isValidSymbol(bytes32 _symbol)\r\n        public\r\n        constant\r\n        symbolExists(_symbol)\r\n        returns (bool)\r\n    {\r\n        if (tokens[tokenBySymbol[_symbol]].status == Status.ACTIVE) {\r\n            return true;\r\n        }\r\n        else {\r\n            return false;\r\n        }\r\n    }\r\n\r\n    /// @dev Allows owner to add a new token to the registry.\r\n    /// @param _token Address of new token.\r\n    /// @param _name Name of new token.\r\n    /// @param _symbol Symbol for new token.\r\n    /// @param _decimals Number of decimals, divisibility of new token.\r\n    function addToken(\r\n            address _token,\r\n            bytes32 _name,\r\n            bytes32 _symbol,\r\n            uint _decimals,\r\n            uint _value,\r\n            bytes32[3] supportedTypes\r\n        )\r\n        public\r\n        tokenDoesNotExist(_token)\r\n        addressNotNull(_token)\r\n        stoppable\r\n        auth\r\n    {\r\n        tokens[_token] = TokenMetadata({\r\n            token: _token,\r\n            name: _name,\r\n            symbol: _symbol,\r\n            decimals: _decimals,\r\n            status: Status.ACTIVE,\r\n            value: _value\r\n        });\r\n        tokenAddresses.push(_token);\r\n        tokenBySymbol[_symbol] = _token;\r\n        \r\n        if (supportedTypes[0] == TOKEN_TYPE_LENDING) {\r\n            lendingTokens[_symbol] = true;\r\n        }\r\n        if (supportedTypes[1] == TOKEN_TYPE_COLLATERAL) {\r\n            collateralTokens[_symbol] = true;\r\n        }\r\n        if (supportedTypes[2] == TOKEN_TYPE_TRADING) {\r\n            tradingTokens[_symbol] = true;\r\n        }\r\n        LogTokenUpdated(\r\n            _token,\r\n            _name,\r\n            _symbol,\r\n            _decimals,\r\n            Status.ACTIVE,\r\n            _value,\r\n            \"token added\"\r\n        );\r\n    }\r\n\r\n    /// @dev Provides a registered token's address, looked up by symbol.\r\n    /// Useful when called by an external contract\r\n    /// @param _symbol Symbol of registered token.\r\n    /// @return Token address.\r\n    function getTokenAddressBySymbol(bytes32 _symbol)\r\n        public\r\n        constant\r\n        returns (address)\r\n    {\r\n        return tokenBySymbol[_symbol];\r\n    }\r\n\r\n    function addSupport(\r\n            bytes32 _symbol,\r\n            bytes32[3] _tokenTypes\r\n        )\r\n        public\r\n        symbolExists(_symbol) \r\n        stoppable\r\n        auth\r\n        returns (bool)\r\n    {\r\n        if (_tokenTypes[0] == TOKEN_TYPE_LENDING) {\r\n            lendingTokens[_symbol] = true;\r\n        }\r\n        if (_tokenTypes[1] == TOKEN_TYPE_COLLATERAL) {\r\n            collateralTokens[_symbol] = true;\r\n        }\r\n        if (_tokenTypes[2] == TOKEN_TYPE_TRADING) {\r\n            tradingTokens[_symbol] = true;\r\n        }\r\n        return true;\r\n    }\r\n\r\n    function removeSupport(\r\n            bytes32 _symbol,\r\n            bytes32[3] _tokenTypes\r\n        )\r\n        public\r\n        symbolExists(_symbol) \r\n        stoppable\r\n        auth\r\n        returns (bool)\r\n    {\r\n        if (_tokenTypes[0] == TOKEN_TYPE_LENDING) {\r\n            lendingTokens[_symbol] = false;\r\n        }\r\n        if (_tokenTypes[1] == TOKEN_TYPE_COLLATERAL) {\r\n            collateralTokens[_symbol] = false;\r\n        }\r\n        if (_tokenTypes[2] == TOKEN_TYPE_TRADING) {\r\n            tradingTokens[_symbol] = false;\r\n        }\r\n        return true;\r\n    }\r\n\r\n    /// @dev Allows owner to remove an existing token from the registry.\r\n    /// @param _token Address of existing token.\r\n    function removeToken(\r\n            address _token,\r\n            uint _index\r\n        )\r\n        public\r\n        tokenExists(_token)\r\n        stoppable\r\n        auth\r\n    {\r\n        require(tokenAddresses[_index] == _token);\r\n\r\n        tokenAddresses[_index] = tokenAddresses[tokenAddresses.length - 1];\r\n        tokenAddresses.length -= 1;\r\n\r\n        TokenMetadata storage token = tokens[_token];\r\n        \r\n        LogTokenUpdated(\r\n            token.token,\r\n            token.name,\r\n            token.symbol,\r\n            token.decimals,\r\n            token.status,\r\n            token.value,\r\n            \"token removed\"\r\n        );\r\n        delete tokenBySymbol[token.symbol];\r\n        delete lendingTokens[token.symbol];\r\n        delete collateralTokens[token.symbol];\r\n        delete tradingTokens[token.symbol];\r\n        delete tokens[_token];\r\n        \r\n    }\r\n\r\n    /// @dev Provides a registered token's metadata, looked up by address.\r\n    /// @param _token Address of registered token.\r\n    /// @return Token metadata.\r\n    function getTokenMetaData(address _token)\r\n        public\r\n        constant\r\n        returns (\r\n            address, //tokenAddress\r\n            bytes32, //name\r\n            bytes32, //symbol\r\n            uint,    //decimals\r\n            Status,  //status\r\n            uint     //value\r\n        )\r\n    {\r\n        TokenMetadata memory token = tokens[_token];\r\n        return (\r\n            token.token,\r\n            token.name,\r\n            token.symbol,\r\n            token.decimals,\r\n            token.status,\r\n            token.value\r\n        );\r\n    }\r\n\r\n    /// @dev Provides a registered token's metadata, looked up by symbol.\r\n    /// @param _symbol Symbol of registered token.\r\n    /// @return Token metadata.\r\n    function getTokenBySymbol(bytes32 _symbol)\r\n        public\r\n        constant\r\n        returns (\r\n            address, //tokenAddress\r\n            bytes32, //name\r\n            bytes32, //symbol\r\n            uint,    //decimals\r\n            Status,  //status\r\n            uint     //value\r\n            )\r\n    {\r\n        address _token = tokenBySymbol[_symbol];\r\n        return getTokenMetaData(_token);\r\n    }\r\n\r\n    /// @dev Provides a registered token's decimals, looked up by address.\r\n    /// @param _address Address of registered token.\r\n    /// @return Token decimals.\r\n    function getTokenDecimalsByAddress(address _address)\r\n        public\r\n        constant\r\n        returns (uint)\r\n    {\r\n        TokenMetadata memory token = tokens[_address];\r\n        return token.decimals;\r\n    }\r\n\r\n    /// @dev Provides a registered token's decimals, looked up by symbol.\r\n    /// @param _symbol Symbol of registered token.\r\n    /// @return Token decimals.\r\n    function getTokenDecimalsBySymbol(bytes32 _symbol)\r\n        public\r\n        constant\r\n        returns (uint)\r\n    {\r\n        TokenMetadata memory token = tokens[tokenBySymbol[_symbol]];\r\n        return token.decimals;\r\n    }\r\n\r\n    /// @dev Provides a registered token's symbol, looked up by address.\r\n    /// @param _address Address of registered token.\r\n    /// @return Token symbol.\r\n    function getTokenSymbolByAddress(address _address)\r\n        public\r\n        constant\r\n        returns (bytes32)\r\n    {\r\n        TokenMetadata memory token = tokens[_address];\r\n        return token.symbol;\r\n    }\r\n\r\n    /// @dev Returns an array containing all token addresses.\r\n    /// @return Array of token addresses.\r\n    function getTokenAddresses()\r\n        public\r\n        constant\r\n        returns (address[])\r\n    {\r\n        return tokenAddresses;\r\n    }\r\n\r\n    /**\r\n        @notice allows the current owner to change the daily interest rate of the contract.\r\n        @param _i integer value as the daily interest rate\r\n        @return true an acknowledgement that the daily interest rate was set by the owner\r\n    */\r\n    function setInterestRatePerDay(uint _i) public auth returns (bool) {\r\n        interestRatePerDay = _i;\r\n        return true;\r\n    }\r\n\r\n    /**\r\n        @notice allows the current owner to change the daily interest rate.\r\n        @param _d integer value as the daily interest rate\r\n        @return true an acknowledgement that the daily interest rate was set by the owner\r\n    */\r\n    function setMaxLoanPeriodDays(uint _d) public auth returns (bool) {\r\n        maxLoanPeriodDays = _d;\r\n        return true;\r\n    }\r\n\r\n    /**\r\n        @notice allows the current owner to change the grace period.\r\n        @param _d integer value as the grace period\r\n        @return true an acknowledgement that the grace period was set by the owner\r\n    */\r\n    function setGracePeriodDays(uint _d) public auth returns (bool) {\r\n        gracePeriodDays = _d;\r\n        return true;\r\n    }\r\n\r\n    /**\r\n        @notice allows the current owner to change the initialMarginPercentage.\r\n        @param _percentage integer value as the initialMarginPercentage\r\n        @return true an acknowledgement that the initialMarginPercentage was set by the owner\r\n    */\r\n    function setInitialMarginPercentage(uint _percentage) public auth returns (bool) {\r\n        require(_percentage <= 100);\r\n        initialMarginPercentage = _percentage;\r\n        return true;\r\n    }\r\n\r\n    /**\r\n        @notice allows the current owner to change the liquidationMarginPercentage.\r\n        @param _percentage integer value as the liquidationMarginPercentage\r\n        @return true an acknowledgement that the liquidationMarginPercentage was set by the owner\r\n    */\r\n    function setLiquidationMarginPercentage(uint _percentage) public auth returns (bool) {\r\n        require(_percentage <= 100);\r\n        liquidationMarginPercentage = _percentage;\r\n        return true;\r\n    }\r\n}",
  "sourcePath": "C:\\work\\programming\\ethereum\\lendroid\\protocol-demo\\contracts\\NetworkParameters.sol",
  "compiler": {
    "name": "solc",
    "version": "0.4.18+commit.9cf6e910.Emscripten.clang"
  },
  "schemaVersion": "1.0.1",
  "updatedAt": "2017-11-08T14:01:07.432Z"
}