{
  "contractName": "NetworkParameters",
  "abi": [
    {
      "constant": true,
      "inputs": [
        {
          "name": "_type",
          "type": "bytes32"
        },
        {
          "name": "_token",
          "type": "address"
        },
        {
          "name": "_index",
          "type": "uint256"
        }
      ],
      "name": "initialMarginLevel",
      "outputs": [
        {
          "name": "",
          "type": "uint256"
        }
      ],
      "payable": false,
      "stateMutability": "view",
      "type": "function"
    },
    {
      "constant": false,
      "inputs": [
        {
          "name": "_d",
          "type": "uint256"
        },
        {
          "name": "_index",
          "type": "uint256"
        }
      ],
      "name": "stop",
      "outputs": [
        {
          "name": "",
          "type": "bool"
        }
      ],
      "payable": false,
      "stateMutability": "nonpayable",
      "type": "function"
    },
    {
      "constant": false,
      "inputs": [
        {
          "name": "_d",
          "type": "uint256"
        },
        {
          "name": "_type",
          "type": "bytes32"
        }
      ],
      "name": "setGracePeriodDays",
      "outputs": [
        {
          "name": "",
          "type": "bool"
        },
        {
          "name": "",
          "type": "bytes32"
        },
        {
          "name": "",
          "type": "bytes32"
        },
        {
          "name": "",
          "type": "uint256"
        },
        {
          "name": "",
          "type": "uint8"
        },
        {
          "name": "",
          "type": "uint256"
        }
      ],
      "payable": false,
      "stateMutability": "nonpayable",
      "type": "function"
    },
    {
      "constant": true,
      "inputs": [
        {
          "name": "_symbol",
          "type": "bytes32"
        },
        {
          "name": "_type",
          "type": "bytes32"
        }
      ],
      "name": "initialMarginPercentage",
      "outputs": [
        {
          "name": "",
          "type": "uint256"
        },
        {
          "name": "",
          "type": "bytes32"
        },
        {
          "name": "",
          "type": "bytes32"
        },
        {
          "name": "",
          "type": "uint256"
        },
        {
          "name": "",
          "type": "uint8"
        },
        {
          "name": "",
          "type": "uint256"
        }
      ],
      "payable": false,
      "stateMutability": "view",
      "type": "function"
    },
    {
      "constant": true,
      "inputs": [
        {
          "name": "owner_",
          "type": "address"
        }
      ],
      "name": "gracePeriodDays",
      "outputs": [
        {
          "name": "",
          "type": "uint256"
        }
      ],
      "payable": false,
      "stateMutability": "view",
      "type": "function"
    },
    {
      "constant": false,
      "inputs": [
        {
          "name": "owner_",
          "type": "address"
        },
        {
          "name": "_index",
          "type": "uint256"
        }
      ],
      "name": "setOwner",
      "outputs": [
        {
          "name": "",
          "type": "bool"
        }
      ],
      "payable": false,
      "stateMutability": "nonpayable",
      "type": "function"
    },
    {
      "constant": false,
      "inputs": [
        {
          "name": "_token",
          "type": "address"
        },
        {
          "name": "_index",
          "type": "uint256"
        }
      ],
      "name": "removeToken",
      "outputs": [
        {
          "name": "",
          "type": "bool"
        }
      ],
      "payable": false,
      "stateMutability": "nonpayable",
      "type": "function"
    },
    {
      "constant": false,
      "inputs": [
        {
          "name": "_percentage",
          "type": "uint256"
        },
        {
          "name": "_name",
          "type": "bytes32"
        },
        {
          "name": "_symbol",
          "type": "bytes32"
        },
        {
          "name": "_decimals",
          "type": "uint256"
        },
        {
          "name": "_value",
          "type": "uint256"
        },
        {
          "name": "supportedTypes",
          "type": "bytes32[3]"
        }
      ],
      "name": "setLiquidationMarginPercentage",
      "outputs": [
        {
          "name": "",
          "type": "bool"
        },
        {
          "name": "",
          "type": "bytes32"
        },
        {
          "name": "",
          "type": "bytes32"
        },
        {
          "name": "",
          "type": "uint256"
        },
        {
          "name": "",
          "type": "uint8"
        },
        {
          "name": "",
          "type": "uint256"
        }
      ],
      "payable": false,
      "stateMutability": "nonpayable",
      "type": "function"
    },
    {
      "constant": false,
      "inputs": [
        {
          "name": "_d",
          "type": "uint256"
        },
        {
          "name": "",
          "type": "address"
        }
      ],
      "name": "setMaxLoanPeriodDays",
      "outputs": [
        {
          "name": "",
          "type": "bool"
        },
        {
          "name": "name",
          "type": "bytes32"
        },
        {
          "name": "symbol",
          "type": "bytes32"
        },
        {
          "name": "decimals",
          "type": "uint256"
        },
        {
          "name": "status",
          "type": "uint8"
        },
        {
          "name": "value",
          "type": "uint256"
        }
      ],
      "payable": false,
      "stateMutability": "nonpayable",
      "type": "function"
    },
    {
      "constant": true,
      "inputs": [
        {
          "name": "_symbol",
          "type": "bytes32"
        }
      ],
      "name": "getTokenBySymbol",
      "outputs": [
        {
          "name": "",
          "type": "address"
        },
        {
          "name": "",
          "type": "bytes32"
        },
        {
          "name": "",
          "type": "bytes32"
        },
        {
          "name": "",
          "type": "uint256"
        },
        {
          "name": "",
          "type": "uint8"
        },
        {
          "name": "",
          "type": "uint256"
        }
      ],
      "payable": false,
      "stateMutability": "view",
      "type": "function"
    },
    {
      "constant": false,
      "inputs": [
        {
          "name": "_i",
          "type": "uint256"
        },
        {
          "name": "_tokenTypes",
          "type": "bytes32[3]"
        }
      ],
      "name": "setInterestRatePercentage",
      "outputs": [
        {
          "name": "",
          "type": "bool"
        },
        {
          "name": "",
          "type": "bytes32"
        },
        {
          "name": "",
          "type": "bytes32"
        },
        {
          "name": "",
          "type": "uint256"
        },
        {
          "name": "",
          "type": "uint8"
        },
        {
          "name": "",
          "type": "uint256"
        }
      ],
      "payable": false,
      "stateMutability": "nonpayable",
      "type": "function"
    },
    {
      "constant": true,
      "inputs": [
        {
          "name": "",
          "type": "bytes32"
        },
        {
          "name": "_name",
          "type": "bytes32"
        },
        {
          "name": "_symbol",
          "type": "bytes32"
        },
        {
          "name": "_decimals",
          "type": "uint256"
        },
        {
          "name": "_value",
          "type": "uint256"
        },
        {
          "name": "_type",
          "type": "bytes32"
        }
      ],
      "name": "tokenBySymbol",
      "outputs": [
        {
          "name": "",
          "type": "address"
        },
        {
          "name": "",
          "type": "bytes32"
        },
        {
          "name": "",
          "type": "bytes32"
        },
        {
          "name": "",
          "type": "uint256"
        },
        {
          "name": "",
          "type": "uint8"
        },
        {
          "name": "",
          "type": "uint256"
        }
      ],
      "payable": false,
      "stateMutability": "view",
      "type": "function"
    },
    {
      "constant": true,
      "inputs": [
        {
          "name": "",
          "type": "bytes32"
        }
      ],
      "name": "maxLoanPeriodDays",
      "outputs": [
        {
          "name": "",
          "type": "uint256"
        }
      ],
      "payable": false,
      "stateMutability": "view",
      "type": "function"
    },
    {
      "constant": true,
      "inputs": [
        {
          "name": "",
          "type": "bytes32"
        },
        {
          "name": "_tokenTypes",
          "type": "bytes32[3]"
        }
      ],
      "name": "tradingTokens",
      "outputs": [
        {
          "name": "",
          "type": "bool"
        }
      ],
      "payable": false,
      "stateMutability": "view",
      "type": "function"
    },
    {
      "constant": true,
      "inputs": [
        {
          "name": "_token",
          "type": "address"
        },
        {
          "name": "_name",
          "type": "bytes32"
        },
        {
          "name": "_symbol",
          "type": "bytes32"
        },
        {
          "name": "_decimals",
          "type": "uint256"
        },
        {
          "name": "_value",
          "type": "uint256"
        },
        {
          "name": "supportedTypes",
          "type": "bytes32[3]"
        }
      ],
      "name": "decimals",
      "outputs": [
        {
          "name": "",
          "type": "uint256"
        }
      ],
      "payable": false,
      "stateMutability": "view",
      "type": "function"
    },
    {
      "constant": true,
      "inputs": [
        {
          "name": "",
          "type": "bytes32"
        }
      ],
      "name": "maximumAllowedMarginAccounts",
      "outputs": [
        {
          "name": "",
          "type": "uint256"
        }
      ],
      "payable": false,
      "stateMutability": "view",
      "type": "function"
    },
    {
      "inputs": [
        {
          "name": "_address",
          "type": "address"
        }
      ],
      "payable": false,
      "stateMutability": "view",
      "type": "function",
      "constant": true,
      "name": "tradingAllowed",
      "outputs": [
        {
          "name": "",
          "type": "bool"
        }
      ]
    },
    {
      "anonymous": false,
      "inputs": [
        {
          "indexed": true,
          "name": "_token",
          "type": "address"
        },
        {
          "indexed": false,
          "name": "_name",
          "type": "bytes32"
        },
        {
          "indexed": false,
          "name": "_symbol",
          "type": "bytes32"
        },
        {
          "indexed": false,
          "name": "_decimals",
          "type": "uint256"
        },
        {
          "indexed": false,
          "name": "_value",
          "type": "uint256"
        },
        {
          "indexed": false,
          "name": "isLendingToken",
          "type": "bool"
        },
        {
          "indexed": false,
          "name": "isCollateralToken",
          "type": "bool"
        },
        {
          "indexed": false,
          "name": "isTradingToken",
          "type": "bool"
        }
      ],
      "name": "addToken",
      "type": "function",
      "constant": false,
      "outputs": [
        {
          "name": "",
          "type": "bytes32"
        }
      ],
      "payable": false,
      "stateMutability": "nonpayable"
    },
    {
      "constant": true,
      "inputs": [
        {
          "name": "_address",
          "type": "address"
        },
        {
          "name": "_tokenTypes",
          "type": "bytes32[3]"
        }
      ],
      "name": "getTokenSymbolByAddress",
      "outputs": [
        {
          "name": "",
          "type": "bytes32"
        },
        {
          "name": "name",
          "type": "bytes32"
        },
        {
          "name": "symbol",
          "type": "bytes32"
        },
        {
          "name": "decimals",
          "type": "uint256"
        },
        {
          "name": "status",
          "type": "uint8"
        },
        {
          "name": "value",
          "type": "uint256"
        }
      ],
      "payable": false,
      "stateMutability": "view",
      "type": "function"
    },
    {
      "constant": true,
      "inputs": [
        {
          "name": "_symbol",
          "type": "bytes32"
        },
        {
          "name": "_tokenTypes",
          "type": "bytes32[3]"
        }
      ],
      "name": "liquidationMarginLevel",
      "outputs": [
        {
          "name": "",
          "type": "uint256"
        }
      ],
      "payable": false,
      "stateMutability": "view",
      "type": "function"
    },
    {
      "constant": false,
      "inputs": [
        {
          "name": "_symbol",
          "type": "bytes32"
        },
        {
          "name": "_tokenTypes",
          "type": "bytes32[3]"
        }
      ],
      "name": "removeSupport",
      "outputs": [
        {
          "name": "",
          "type": "bool"
        }
      ],
      "payable": false,
      "stateMutability": "nonpayable",
      "type": "function"
    },
    {
      "constant": true,
      "inputs": [
        {
          "name": "authority_",
          "type": "address"
        }
      ],
      "name": "stopped",
      "outputs": [
        {
          "name": "",
          "type": "bool"
        },
        {
          "name": "",
          "type": "bytes32"
        },
        {
          "name": "",
          "type": "bytes32"
        },
        {
          "name": "",
          "type": "uint256"
        },
        {
          "name": "",
          "type": "uint8"
        },
        {
          "name": "",
          "type": "uint256"
        }
      ],
      "payable": false,
      "stateMutability": "view",
      "type": "function"
    },
    {
      "constant": false,
      "inputs": [
        {
          "name": "authority_",
          "type": "address"
        }
      ],
      "name": "setAuthority",
      "outputs": [
        {
          "name": "",
          "type": "address"
        },
        {
          "name": "",
          "type": "bytes32"
        },
        {
          "name": "",
          "type": "bytes32"
        },
        {
          "name": "",
          "type": "uint256"
        },
        {
          "name": "",
          "type": "uint8"
        },
        {
          "name": "",
          "type": "uint256"
        }
      ],
      "payable": false,
      "stateMutability": "nonpayable",
      "type": "function"
    },
    {
      "inputs": [
        {
          "name": "_token",
          "type": "address"
        },
        {
          "name": "_tokenTypes",
          "type": "bytes32[3]"
        }
      ],
      "payable": false,
      "stateMutability": "view",
      "type": "function",
      "constant": true,
      "name": "getTokenMetaData",
      "outputs": [
        {
          "name": "",
          "type": "address"
        },
        {
          "name": "",
          "type": "bytes32"
        },
        {
          "name": "",
          "type": "bytes32"
        },
        {
          "name": "",
          "type": "uint256"
        },
        {
          "name": "",
          "type": "uint8"
        },
        {
          "name": "",
          "type": "uint256"
        }
      ]
    },
    {
      "anonymous": false,
      "inputs": [
        {
          "indexed": true,
          "name": "token",
          "type": "address"
        },
        {
          "indexed": false,
          "name": "name",
          "type": "bytes32"
        },
        {
          "indexed": false,
          "name": "symbol",
          "type": "bytes32"
        },
        {
          "indexed": false,
          "name": "decimals",
          "type": "uint256"
        },
        {
          "indexed": false,
          "name": "status",
          "type": "uint8"
        },
        {
          "indexed": false,
          "name": "value",
          "type": "uint256"
        },
        {
          "indexed": false,
          "name": "action",
          "type": "bytes32"
        }
      ],
      "name": "interestRate",
      "type": "function",
      "constant": true,
      "outputs": [
        {
          "name": "",
          "type": "uint256"
        }
      ],
      "payable": false,
      "stateMutability": "view"
    },
    {
      "constant": true,
      "inputs": [
        {
          "name": "_symbol",
          "type": "bytes32"
        },
        {
          "name": "_tokenTypes",
          "type": "bytes32[3]"
        }
      ],
      "name": "owner",
      "outputs": [
        {
          "name": "",
          "type": "address"
        }
      ],
      "payable": false,
      "stateMutability": "view",
      "type": "function"
    },
    {
      "constant": true,
      "inputs": [],
      "name": "liquidationMarginPercentage",
      "outputs": [
        {
          "name": "",
          "type": "uint256"
        }
      ],
      "payable": false,
      "stateMutability": "view",
      "type": "function"
    },
    {
      "constant": true,
      "inputs": [
        {
          "name": "_symbol",
          "type": "bytes32"
        }
      ],
      "name": "interestRatePercentage",
      "outputs": [
        {
          "name": "",
          "type": "uint256"
        }
      ],
      "payable": false,
      "stateMutability": "view",
      "type": "function"
    },
    {
      "constant": false,
      "inputs": [
        {
          "name": "_symbol",
          "type": "bytes32"
        },
        {
          "name": "_tokenTypes",
          "type": "bytes32[3]"
        }
      ],
      "name": "addSupport",
      "outputs": [
        {
          "name": "",
          "type": "bool"
        }
      ],
      "payable": false,
      "stateMutability": "nonpayable",
      "type": "function"
    },
    {
      "constant": false,
      "inputs": [
        {
          "name": "_symbol",
          "type": "bytes32"
        }
      ],
      "name": "start",
      "outputs": [
        {
          "name": "",
          "type": "uint256"
        }
      ],
      "payable": false,
      "stateMutability": "nonpayable",
      "type": "function"
    },
    {
      "constant": true,
      "inputs": [
        {
          "name": "",
          "type": "bytes32"
        }
      ],
      "name": "authority",
      "outputs": [
        {
          "name": "",
          "type": "address"
        }
      ],
      "payable": false,
      "stateMutability": "view",
      "type": "function"
    },
    {
      "constant": true,
      "inputs": [
        {
          "name": "_address",
          "type": "address"
        }
      ],
      "name": "interestRateInterval",
      "outputs": [
        {
          "name": "",
          "type": "bytes32"
        },
        {
          "name": "name",
          "type": "bytes32"
        },
        {
          "name": "symbol",
          "type": "bytes32"
        },
        {
          "name": "decimals",
          "type": "uint256"
        },
        {
          "name": "status",
          "type": "uint8"
        },
        {
          "name": "value",
          "type": "uint256"
        }
      ],
      "payable": false,
      "stateMutability": "view",
      "type": "function"
    },
    {
      "constant": true,
      "inputs": [
        {
          "name": "_symbol",
          "type": "bytes32"
        }
      ],
      "name": "getTokenDecimalsBySymbol",
      "outputs": [
        {
          "name": "",
          "type": "uint256"
        }
      ],
      "payable": false,
      "stateMutability": "view",
      "type": "function"
    },
    {
      "constant": true,
      "inputs": [
        {
          "name": "",
          "type": "bytes32"
        }
      ],
      "name": "collateralTokens",
      "outputs": [
        {
          "name": "",
          "type": "bool"
        },
        {
          "name": "name",
          "type": "bytes32"
        },
        {
          "name": "symbol",
          "type": "bytes32"
        },
        {
          "name": "decimals",
          "type": "uint256"
        },
        {
          "name": "status",
          "type": "uint8"
        },
        {
          "name": "value",
          "type": "uint256"
        }
      ],
      "payable": false,
      "stateMutability": "view",
      "type": "function"
    },
    {
      "constant": true,
      "inputs": [
        {
          "name": "_address",
          "type": "address"
        }
      ],
      "name": "getTokenDecimalsByAddress",
      "outputs": [
        {
          "name": "",
          "type": "uint256"
        }
      ],
      "payable": false,
      "stateMutability": "view",
      "type": "function"
    },
    {
      "constant": false,
      "inputs": [
        {
          "name": "_i",
          "type": "bytes32"
        }
      ],
      "name": "setInterestRateInterval",
      "outputs": [
        {
          "name": "",
          "type": "bool"
        }
      ],
      "payable": false,
      "stateMutability": "nonpayable",
      "type": "function"
    },
    {
      "constant": true,
      "inputs": [
        {
          "name": "_symbol",
          "type": "bytes32"
        }
      ],
      "name": "isValidSymbol",
      "outputs": [
        {
          "name": "",
          "type": "bool"
        }
      ],
      "payable": false,
      "stateMutability": "view",
      "type": "function"
    },
    {
      "inputs": [
        {
          "name": "",
          "type": "address"
        }
      ],
      "payable": false,
      "stateMutability": "view",
      "type": "function",
      "constant": true,
      "name": "tokens",
      "outputs": [
        {
          "name": "token",
          "type": "address"
        },
        {
          "name": "name",
          "type": "bytes32"
        },
        {
          "name": "symbol",
          "type": "bytes32"
        },
        {
          "name": "decimals",
          "type": "uint256"
        },
        {
          "name": "status",
          "type": "uint8"
        },
        {
          "name": "value",
          "type": "uint256"
        }
      ]
    },
    {
      "anonymous": false,
      "inputs": [
        {
          "indexed": true,
          "name": "",
          "type": "uint256"
        },
        {
          "indexed": false,
          "name": "name",
          "type": "bytes32"
        },
        {
          "indexed": false,
          "name": "symbol",
          "type": "bytes32"
        },
        {
          "indexed": false,
          "name": "decimals",
          "type": "uint256"
        },
        {
          "indexed": false,
          "name": "status",
          "type": "uint8"
        },
        {
          "indexed": false,
          "name": "value",
          "type": "uint256"
        },
        {
          "indexed": false,
          "name": "action",
          "type": "bytes32"
        }
      ],
      "name": "tokenAddresses",
      "type": "function",
      "constant": true,
      "outputs": [
        {
          "name": "",
          "type": "address"
        }
      ],
      "payable": false,
      "stateMutability": "view"
    },
    {
      "anonymous": false,
      "inputs": [
        {
          "indexed": true,
          "name": "_percentage",
          "type": "uint256"
        }
      ],
      "name": "setInitialMarginPercentage",
      "type": "function",
      "constant": false,
      "outputs": [
        {
          "name": "",
          "type": "bool"
        }
      ],
      "payable": false,
      "stateMutability": "nonpayable"
    },
    {
      "anonymous": false,
      "inputs": [
        {
          "indexed": true,
          "name": "owner",
          "type": "address"
        }
      ],
      "name": "getTokenAddresses",
      "type": "function",
      "payable": false,
      "stateMutability": "view",
      "constant": true,
      "outputs": [
        {
          "name": "",
          "type": "address[]"
        }
      ]
    },
    {
      "anonymous": false,
      "inputs": [
        {
          "indexed": true,
          "name": "",
          "type": "bytes32"
        },
        {
          "indexed": false,
          "name": "name",
          "type": "bytes32"
        },
        {
          "indexed": false,
          "name": "symbol",
          "type": "bytes32"
        },
        {
          "indexed": false,
          "name": "decimals",
          "type": "uint256"
        },
        {
          "indexed": false,
          "name": "status",
          "type": "uint8"
        },
        {
          "indexed": false,
          "name": "value",
          "type": "uint256"
        },
        {
          "indexed": false,
          "name": "action",
          "type": "bytes32"
        }
      ],
      "name": "lendingTokens",
      "type": "function",
      "constant": true,
      "outputs": [
        {
          "name": "",
          "type": "bool"
        }
      ],
      "payable": false,
      "stateMutability": "view"
    },
    {
      "anonymous": false,
      "inputs": [
        {
          "indexed": true,
          "name": "_symbol",
          "type": "bytes32"
        }
      ],
      "name": "getTokenAddressBySymbol",
      "type": "function",
      "constant": true,
      "outputs": [
        {
          "name": "",
          "type": "address"
        }
      ],
      "payable": false,
      "stateMutability": "view"
    },
    {
      "anonymous": false,
      "inputs": [
        {
          "indexed": true,
          "name": "owner",
          "type": "address"
        }
      ],
      "name": "LogSetOwner",
      "type": "constructor",
      "payable": false,
      "stateMutability": "nonpayable"
    },
    {
      "anonymous": false,
      "inputs": [
        {
          "indexed": true,
          "name": "token",
          "type": "address"
        },
        {
          "indexed": false,
          "name": "name",
          "type": "bytes32"
        },
        {
          "indexed": false,
          "name": "symbol",
          "type": "bytes32"
        },
        {
          "indexed": false,
          "name": "decimals",
          "type": "uint256"
        },
        {
          "indexed": false,
          "name": "status",
          "type": "uint8"
        },
        {
          "indexed": false,
          "name": "value",
          "type": "uint256"
        },
        {
          "indexed": false,
          "name": "action",
          "type": "bytes32"
        }
      ],
      "name": "LogTokenUpdated",
      "type": "event"
    },
    {
      "anonymous": false,
      "inputs": [
        {
          "indexed": true,
          "name": "authority",
          "type": "address"
        }
      ],
      "name": "LogSetAuthority",
      "type": "event"
    },
    {
      "anonymous": false,
      "inputs": [
        {
          "indexed": true,
          "name": "owner",
          "type": "address"
        }
      ],
      "name": "LogSetOwner",
      "type": "event"
    },
    {
      "anonymous": true,
      "inputs": [
        {
          "indexed": true,
          "name": "sig",
          "type": "bytes4"
        },
        {
          "indexed": true,
          "name": "guy",
          "type": "address"
        },
        {
          "indexed": true,
          "name": "foo",
          "type": "bytes32"
        },
        {
          "indexed": true,
          "name": "bar",
          "type": "bytes32"
        },
        {
          "indexed": false,
          "name": "wad",
          "type": "uint256"
        },
        {
          "indexed": false,
          "name": "fax",
          "type": "bytes"
        }
      ],
      "name": "LogNote",
      "type": "event"
    }
  ],
  "bytecode": "0x60606040527f6c656e64696e6700000000000000000000000000000000000000000000000000600a906000191690557f636f6c6c61746572616c00000000000000000000000000000000000000000000600b906000191690557f74726164696e6700000000000000000000000000000000000000000000000000600c90600019169055341561008d57600080fd5b33600160006101000a81548173ffffffffffffffffffffffffffffffffffffffff021916908373ffffffffffffffffffffffffffffffffffffffff1602179055503373ffffffffffffffffffffffffffffffffffffffff167fce241d7ca1f669fee44b6fc00b8eba2df3bb514eed0f6f668f8f89096e81ed9460405160405180910390a260018060156101000a81548160ff0219169083151502179055506032600281905550601260038190555060286004819055506014600581905550600a6006819055507f64617900000000000000000000000000000000000000000000000000000000006007816000191690555062278d006008819055506283d600600981905550612f2b806101a16000396000f30060606040526004361061020f576000357c0100000000000000000000000000000000000000000000000000000000900463ffffffff168063079110521461021457806307da68f51461023d5780630ce6b419146102525780631028f0361461028d5780631348ed5e146102b657806313af4035146102df57806313baf1e61461031857806318db3c7f1461035a5780631d6a3ea0146103955780631f76fa34146103d0578063222d1a0e1461047857806326a2a16d146104b357806326e86cd71461051a57806328ad119c14610543578063313ce5671461058257806352e9e10f146105ab57806353371be0146105d45780635844c1b214610601578063667a5f9d14610687578063707344c7146106dc578063712c0cc91461070557806375f12b21146107705780637a9e5e4b1461079d5780637abccac9146107d65780637c3a00fd146108905780638da5cb5b146108b9578063959cab2f1461090e578063b739b2ab14610937578063be291c4f14610960578063be9a6555146109cb578063bf7e214f146109e0578063cf603e8814610a35578063d12c7b1014610a66578063d1a294c414610aa1578063d902522914610ae0578063dd6b27ec14610b2d578063e19f86df14610b6c578063e486033914610bab578063e5df8b8414610c65578063e842c77d14610cc8578063ee8c24b814610d03578063eeeaddef14610d6d578063fa7fdeb714610dac575b600080fd5b341561021f57600080fd5b610227610e13565b6040518082815260200191505060405180910390f35b341561024857600080fd5b610250610e35565b005b341561025d57600080fd5b6102736004808035906020019091905050610f37565b604051808215151515815260200191505060405180910390f35b341561029857600080fd5b6102a0610f82565b6040518082815260200191505060405180910390f35b34156102c157600080fd5b6102c9610f88565b6040518082815260200191505060405180910390f35b34156102ea57600080fd5b610316600480803573ffffffffffffffffffffffffffffffffffffffff16906020019091905050610f8e565b005b341561032357600080fd5b610358600480803573ffffffffffffffffffffffffffffffffffffffff16906020019091908035906020019091905050611070565b005b341561036557600080fd5b61037b600480803590602001909190505061150f565b604051808215151515815260200191505060405180910390f35b34156103a057600080fd5b6103b6600480803590602001909190505061156a565b604051808215151515815260200191505060405180910390f35b34156103db57600080fd5b6103f56004808035600019169060200190919050506115b5565b604051808773ffffffffffffffffffffffffffffffffffffffff1673ffffffffffffffffffffffffffffffffffffffff1681526020018660001916600019168152602001856000191660001916815260200184815260200183600181111561045957fe5b60ff168152602001828152602001965050505050505060405180910390f35b341561048357600080fd5b610499600480803590602001909190505061161d565b604051808215151515815260200191505060405180910390f35b34156104be57600080fd5b6104d8600480803560001916906020019091905050611668565b604051808273ffffffffffffffffffffffffffffffffffffffff1673ffffffffffffffffffffffffffffffffffffffff16815260200191505060405180910390f35b341561052557600080fd5b61052d61169b565b6040518082815260200191505060405180910390f35b341561054e57600080fd5b6105686004808035600019169060200190919050506116a1565b604051808215151515815260200191505060405180910390f35b341561058d57600080fd5b6105956116c1565b6040518082815260200191505060405180910390f35b34156105b657600080fd5b6105be6116c7565b6040518082815260200191505060405180910390f35b34156105df57600080fd5b6105e76116cd565b604051808215151515815260200191505060405180910390f35b341561060c57600080fd5b610685600480803573ffffffffffffffffffffffffffffffffffffffff1690602001909190803560001916906020019091908035600019169060200190919080359060200190919080359060200190919080351515906020019091908035151590602001909190803515159060200190919050506116e0565b005b341561069257600080fd5b6106be600480803573ffffffffffffffffffffffffffffffffffffffff16906020019091905050611b53565b60405180826000191660001916815260200191505060405180910390f35b34156106e757600080fd5b6106ef611c72565b6040518082815260200191505060405180910390f35b341561071057600080fd5b6107566004808035600019169060200190919080606001906003806020026040519081016040528092919082600360200280828437820191505050505091905050611c94565b604051808215151515815260200191505060405180910390f35b341561077b57600080fd5b610783611eb3565b604051808215151515815260200191505060405180910390f35b34156107a857600080fd5b6107d4600480803573ffffffffffffffffffffffffffffffffffffffff16906020019091905050611ec6565b005b34156107e157600080fd5b61080d600480803573ffffffffffffffffffffffffffffffffffffffff16906020019091905050611fa6565b604051808773ffffffffffffffffffffffffffffffffffffffff1673ffffffffffffffffffffffffffffffffffffffff1681526020018660001916600019168152602001856000191660001916815260200184815260200183600181111561087157fe5b60ff168152602001828152602001965050505050505060405180910390f35b341561089b57600080fd5b6108a36120f3565b6040518082815260200191505060405180910390f35b34156108c457600080fd5b6108cc612115565b604051808273ffffffffffffffffffffffffffffffffffffffff1673ffffffffffffffffffffffffffffffffffffffff16815260200191505060405180910390f35b341561091957600080fd5b61092161213b565b6040518082815260200191505060405180910390f35b341561094257600080fd5b61094a612141565b6040518082815260200191505060405180910390f35b341561096b57600080fd5b6109b16004808035600019169060200190919080606001906003806020026040519081016040528092919082600360200280828437820191505050505091905050612147565b604051808215151515815260200191505060405180910390f35b34156109d657600080fd5b6109de612366565b005b34156109eb57600080fd5b6109f3612469565b604051808273ffffffffffffffffffffffffffffffffffffffff1673ffffffffffffffffffffffffffffffffffffffff16815260200191505060405180910390f35b3415610a4057600080fd5b610a4861248e565b60405180826000191660001916815260200191505060405180910390f35b3415610a7157600080fd5b610a8b600480803560001916906020019091905050612494565b6040518082815260200191505060405180910390f35b3415610aac57600080fd5b610ac66004808035600019169060200190919050506125ee565b604051808215151515815260200191505060405180910390f35b3415610aeb57600080fd5b610b17600480803573ffffffffffffffffffffffffffffffffffffffff1690602001909190505061260e565b6040518082815260200191505060405180910390f35b3415610b3857600080fd5b610b5260048080356000191690602001909190505061272d565b604051808215151515815260200191505060405180910390f35b3415610b7757600080fd5b610b9160048080356000191690602001909190505061277c565b604051808215151515815260200191505060405180910390f35b3415610bb657600080fd5b610be2600480803573ffffffffffffffffffffffffffffffffffffffff169060200190919050506128e9565b604051808773ffffffffffffffffffffffffffffffffffffffff1673ffffffffffffffffffffffffffffffffffffffff16815260200186600019166000191681526020018560001916600019168152602001848152602001836001811115610c4657fe5b60ff168152602001828152602001965050505050505060405180910390f35b3415610c7057600080fd5b610c866004808035906020019091905050612952565b604051808273ffffffffffffffffffffffffffffffffffffffff1673ffffffffffffffffffffffffffffffffffffffff16815260200191505060405180910390f35b3415610cd357600080fd5b610ce96004808035906020019091905050612991565b604051808215151515815260200191505060405180910390f35b3415610d0e57600080fd5b610d166129ec565b6040518080602001828103825283818151815260200191508051906020019060200280838360005b83811015610d59578082015181840152602081019050610d3e565b505050509050019250505060405180910390f35b3415610d7857600080fd5b610d92600480803560001916906020019091905050612a80565b604051808215151515815260200191505060405180910390f35b3415610db757600080fd5b610dd1600480803560001916906020019091905050612aa0565b604051808273ffffffffffffffffffffffffffffffffffffffff1673ffffffffffffffffffffffffffffffffffffffff16815260200191505060405180910390f35b6000610e30610e256064600454612ae5565b600354600a0a612b21565b905090565b610e63336000357fffffffff0000000000000000000000000000000000000000000000000000000016612b65565b1515610e6e57600080fd5b60008060043591506024359050806000191682600019163373ffffffffffffffffffffffffffffffffffffffff166000357fffffffff00000000000000000000000000000000000000000000000000000000167bffffffffffffffffffffffffffffffffffffffffffffffffffffffff19163460003660405180848152602001806020018281038252848482818152602001925080828437820191505094505050505060405180910390a460018060146101000a81548160ff0219169083151502179055505050565b6000610f67336000357fffffffff0000000000000000000000000000000000000000000000000000000016612b65565b1515610f7257600080fd5b8160098190555060019050919050565b60045481565b60095481565b610fbc336000357fffffffff0000000000000000000000000000000000000000000000000000000016612b65565b1515610fc757600080fd5b80600160006101000a81548173ffffffffffffffffffffffffffffffffffffffff021916908373ffffffffffffffffffffffffffffffffffffffff160217905550600160009054906101000a900473ffffffffffffffffffffffffffffffffffffffff1673ffffffffffffffffffffffffffffffffffffffff167fce241d7ca1f669fee44b6fc00b8eba2df3bb514eed0f6f668f8f89096e81ed9460405160405180910390a250565b60008260018081111561107f57fe5b600d60008373ffffffffffffffffffffffffffffffffffffffff1673ffffffffffffffffffffffffffffffffffffffff16815260200190815260200160002060040160009054906101000a900460ff1660018111156110da57fe5b1415156110e657600080fd5b600160149054906101000a900460ff1615151561110257600080fd5b611130336000357fffffffff0000000000000000000000000000000000000000000000000000000016612b65565b151561113b57600080fd5b8373ffffffffffffffffffffffffffffffffffffffff1660128481548110151561116157fe5b906000526020600020900160009054906101000a900473ffffffffffffffffffffffffffffffffffffffff1673ffffffffffffffffffffffffffffffffffffffff161415156111af57600080fd5b60126001601280549050038154811015156111c657fe5b906000526020600020900160009054906101000a900473ffffffffffffffffffffffffffffffffffffffff1660128481548110151561120157fe5b906000526020600020900160006101000a81548173ffffffffffffffffffffffffffffffffffffffff021916908373ffffffffffffffffffffffffffffffffffffffff16021790555060016012818180549050039150816112629190612e10565b50600d60008573ffffffffffffffffffffffffffffffffffffffff1673ffffffffffffffffffffffffffffffffffffffff16815260200190815260200160002091508160000160009054906101000a900473ffffffffffffffffffffffffffffffffffffffff1673ffffffffffffffffffffffffffffffffffffffff167f7beca59326c8f30286f798d4f9b394e7c533cc36ea405f230771e8012689c1b18360010154846002015485600301548660040160009054906101000a900460ff168760050154604051808660001916600019168152602001856000191660001916815260200184815260200183600181111561135857fe5b60ff168152602001828152602001807f746f6b656e2072656d6f766564000000000000000000000000000000000000008152506020019550505050505060405180910390a26011600083600201546000191660001916815260200190815260200160002060006101000a81549073ffffffffffffffffffffffffffffffffffffffff0219169055600e600083600201546000191660001916815260200190815260200160002060006101000a81549060ff0219169055600f600083600201546000191660001916815260200190815260200160002060006101000a81549060ff02191690556010600083600201546000191660001916815260200190815260200160002060006101000a81549060ff0219169055600d60008573ffffffffffffffffffffffffffffffffffffffff1673ffffffffffffffffffffffffffffffffffffffff168152602001908152602001600020600080820160006101000a81549073ffffffffffffffffffffffffffffffffffffffff02191690556001820160009055600282016000905560038201600090556004820160006101000a81549060ff02191690556005820160009055505050505050565b600061153f336000357fffffffff0000000000000000000000000000000000000000000000000000000016612b65565b151561154a57600080fd5b6064821115151561155a57600080fd5b8160058190555060019050919050565b600061159a336000357fffffffff0000000000000000000000000000000000000000000000000000000016612b65565b15156115a557600080fd5b8160088190555060019050919050565b600080600080600080600060116000896000191660001916815260200190815260200160002060009054906101000a900473ffffffffffffffffffffffffffffffffffffffff16905061160781611fa6565b9650965096509650965096505091939550919395565b600061164d336000357fffffffff0000000000000000000000000000000000000000000000000000000016612b65565b151561165857600080fd5b8160068190555060019050919050565b60116020528060005260406000206000915054906101000a900473ffffffffffffffffffffffffffffffffffffffff1681565b60085481565b60106020528060005260406000206000915054906101000a900460ff1681565b60035481565b60025481565b600160159054906101000a900460ff1681565b876001808111156116ed57fe5b600d60008373ffffffffffffffffffffffffffffffffffffffff1673ffffffffffffffffffffffffffffffffffffffff16815260200190815260200160002060040160009054906101000a900460ff16600181111561174857fe5b1415151561175557600080fd5b88600073ffffffffffffffffffffffffffffffffffffffff168173ffffffffffffffffffffffffffffffffffffffff161415151561179257600080fd5b600160149054906101000a900460ff161515156117ae57600080fd5b6117dc336000357fffffffff0000000000000000000000000000000000000000000000000000000016612b65565b15156117e757600080fd5b60c0604051908101604052808b73ffffffffffffffffffffffffffffffffffffffff1681526020018a6000191681526020018960001916815260200188815260200160018081111561183557fe5b815260200187815250600d60008c73ffffffffffffffffffffffffffffffffffffffff1673ffffffffffffffffffffffffffffffffffffffff16815260200190815260200160002060008201518160000160006101000a81548173ffffffffffffffffffffffffffffffffffffffff021916908373ffffffffffffffffffffffffffffffffffffffff16021790555060208201518160010190600019169055604082015181600201906000191690556060820151816003015560808201518160040160006101000a81548160ff0219169083600181111561191257fe5b021790555060a08201518160050155905050601280548060010182816119389190612e3c565b916000526020600020900160008c909190916101000a81548173ffffffffffffffffffffffffffffffffffffffff021916908373ffffffffffffffffffffffffffffffffffffffff1602179055505089601160008a6000191660001916815260200190815260200160002060006101000a81548173ffffffffffffffffffffffffffffffffffffffff021916908373ffffffffffffffffffffffffffffffffffffffff1602179055508415611a1c576001600e60008a6000191660001916815260200190815260200160002060006101000a81548160ff0219169083151502179055505b8315611a57576001600f60008a6000191660001916815260200190815260200160002060006101000a81548160ff0219169083151502179055505b8215611a92576001601060008a6000191660001916815260200190815260200160002060006101000a81548160ff0219169083151502179055505b8973ffffffffffffffffffffffffffffffffffffffff167f7beca59326c8f30286f798d4f9b394e7c533cc36ea405f230771e8012689c1b18a8a8a60018b6040518086600019166000191681526020018560001916600019168152602001848152602001836001811115611b0257fe5b60ff168152602001828152602001807f746f6b656e2061646465640000000000000000000000000000000000000000008152506020019550505050505060405180910390a250505050505050505050565b6000611b5d612e68565b600d60008473ffffffffffffffffffffffffffffffffffffffff1673ffffffffffffffffffffffffffffffffffffffff16815260200190815260200160002060c060405190810160405290816000820160009054906101000a900473ffffffffffffffffffffffffffffffffffffffff1673ffffffffffffffffffffffffffffffffffffffff1673ffffffffffffffffffffffffffffffffffffffff168152602001600182015460001916600019168152602001600282015460001916600019168152602001600382015481526020016004820160009054906101000a900460ff166001811115611c4a57fe5b6001811115611c5557fe5b815260200160058201548152505090508060400151915050919050565b6000611c8f611c846064600554612ae5565b600354600a0a612b21565b905090565b600082600180811115611ca357fe5b600d600060116000856000191660001916815260200190815260200160002060009054906101000a900473ffffffffffffffffffffffffffffffffffffffff1673ffffffffffffffffffffffffffffffffffffffff1673ffffffffffffffffffffffffffffffffffffffff16815260200190815260200160002060040160009054906101000a900460ff166001811115611d3957fe5b141515611d4557600080fd5b600160149054906101000a900460ff16151515611d6157600080fd5b611d8f336000357fffffffff0000000000000000000000000000000000000000000000000000000016612b65565b1515611d9a57600080fd5b600a5460001916836000600381101515611db057fe5b6020020151600019161415611df4576000600e6000866000191660001916815260200190815260200160002060006101000a81548160ff0219169083151502179055505b600b5460001916836001600381101515611e0a57fe5b6020020151600019161415611e4e576000600f6000866000191660001916815260200190815260200160002060006101000a81548160ff0219169083151502179055505b600c5460001916836002600381101515611e6457fe5b6020020151600019161415611ea857600060106000866000191660001916815260200190815260200160002060006101000a81548160ff0219169083151502179055505b600191505092915050565b600160149054906101000a900460ff1681565b611ef4336000357fffffffff0000000000000000000000000000000000000000000000000000000016612b65565b1515611eff57600080fd5b806000806101000a81548173ffffffffffffffffffffffffffffffffffffffff021916908373ffffffffffffffffffffffffffffffffffffffff1602179055506000809054906101000a900473ffffffffffffffffffffffffffffffffffffffff1673ffffffffffffffffffffffffffffffffffffffff167f1abebea81bfa2637f28358c371278fb15ede7ea8dd28d2e03b112ff6d936ada460405160405180910390a250565b600080600080600080611fb7612e68565b600d60008973ffffffffffffffffffffffffffffffffffffffff1673ffffffffffffffffffffffffffffffffffffffff16815260200190815260200160002060c060405190810160405290816000820160009054906101000a900473ffffffffffffffffffffffffffffffffffffffff1673ffffffffffffffffffffffffffffffffffffffff1673ffffffffffffffffffffffffffffffffffffffff168152602001600182015460001916600019168152602001600282015460001916600019168152602001600382015481526020016004820160009054906101000a900460ff1660018111156120a457fe5b60018111156120af57fe5b81526020016005820154815250509050806000015181602001518260400151836060015184608001518560a001519650965096509650965096505091939550919395565b60006121106121056006546064612ae5565b600354600a0a612b21565b905090565b600160009054906101000a900473ffffffffffffffffffffffffffffffffffffffff1681565b60055481565b60065481565b60008260018081111561215657fe5b600d600060116000856000191660001916815260200190815260200160002060009054906101000a900473ffffffffffffffffffffffffffffffffffffffff1673ffffffffffffffffffffffffffffffffffffffff1673ffffffffffffffffffffffffffffffffffffffff16815260200190815260200160002060040160009054906101000a900460ff1660018111156121ec57fe5b1415156121f857600080fd5b600160149054906101000a900460ff1615151561221457600080fd5b612242336000357fffffffff0000000000000000000000000000000000000000000000000000000016612b65565b151561224d57600080fd5b600a546000191683600060038110151561226357fe5b60200201516000191614156122a7576001600e6000866000191660001916815260200190815260200160002060006101000a81548160ff0219169083151502179055505b600b54600019168360016003811015156122bd57fe5b6020020151600019161415612301576001600f6000866000191660001916815260200190815260200160002060006101000a81548160ff0219169083151502179055505b600c546000191683600260038110151561231757fe5b602002015160001916141561235b57600160106000866000191660001916815260200190815260200160002060006101000a81548160ff0219169083151502179055505b600191505092915050565b612394336000357fffffffff0000000000000000000000000000000000000000000000000000000016612b65565b151561239f57600080fd5b60008060043591506024359050806000191682600019163373ffffffffffffffffffffffffffffffffffffffff166000357fffffffff00000000000000000000000000000000000000000000000000000000167bffffffffffffffffffffffffffffffffffffffffffffffffffffffff19163460003660405180848152602001806020018281038252848482818152602001925080828437820191505094505050505060405180910390a46000600160146101000a81548160ff0219169083151502179055505050565b6000809054906101000a900473ffffffffffffffffffffffffffffffffffffffff1681565b60075481565b600061249e612e68565b600d600060116000866000191660001916815260200190815260200160002060009054906101000a900473ffffffffffffffffffffffffffffffffffffffff1673ffffffffffffffffffffffffffffffffffffffff1673ffffffffffffffffffffffffffffffffffffffff16815260200190815260200160002060c060405190810160405290816000820160009054906101000a900473ffffffffffffffffffffffffffffffffffffffff1673ffffffffffffffffffffffffffffffffffffffff1673ffffffffffffffffffffffffffffffffffffffff168152602001600182015460001916600019168152602001600282015460001916600019168152602001600382015481526020016004820160009054906101000a900460ff1660018111156125c657fe5b60018111156125d157fe5b815260200160058201548152505090508060600151915050919050565b600f6020528060005260406000206000915054906101000a900460ff1681565b6000612618612e68565b600d60008473ffffffffffffffffffffffffffffffffffffffff1673ffffffffffffffffffffffffffffffffffffffff16815260200190815260200160002060c060405190810160405290816000820160009054906101000a900473ffffffffffffffffffffffffffffffffffffffff1673ffffffffffffffffffffffffffffffffffffffff1673ffffffffffffffffffffffffffffffffffffffff168152602001600182015460001916600019168152602001600282015460001916600019168152602001600382015481526020016004820160009054906101000a900460ff16600181111561270557fe5b600181111561271057fe5b815260200160058201548152505090508060600151915050919050565b600061275d336000357fffffffff0000000000000000000000000000000000000000000000000000000016612b65565b151561276857600080fd5b816007816000191690555060019050919050565b60008160018081111561278b57fe5b600d600060116000856000191660001916815260200190815260200160002060009054906101000a900473ffffffffffffffffffffffffffffffffffffffff1673ffffffffffffffffffffffffffffffffffffffff1673ffffffffffffffffffffffffffffffffffffffff16815260200190815260200160002060040160009054906101000a900460ff16600181111561282157fe5b14151561282d57600080fd5b60018081111561283957fe5b600d600060116000876000191660001916815260200190815260200160002060009054906101000a900473ffffffffffffffffffffffffffffffffffffffff1673ffffffffffffffffffffffffffffffffffffffff1673ffffffffffffffffffffffffffffffffffffffff16815260200190815260200160002060040160009054906101000a900460ff1660018111156128cf57fe5b14156128de57600191506128e3565b600091505b50919050565b600d6020528060005260406000206000915090508060000160009054906101000a900473ffffffffffffffffffffffffffffffffffffffff16908060010154908060020154908060030154908060040160009054906101000a900460ff16908060050154905086565b60128181548110151561296157fe5b90600052602060002090016000915054906101000a900473ffffffffffffffffffffffffffffffffffffffff1681565b60006129c1336000357fffffffff0000000000000000000000000000000000000000000000000000000016612b65565b15156129cc57600080fd5b606482111515156129dc57600080fd5b8160048190555060019050919050565b6129f4612ec6565b6012805480602002602001604051908101604052809291908181526020018280548015612a7657602002820191906000526020600020905b8160009054906101000a900473ffffffffffffffffffffffffffffffffffffffff1673ffffffffffffffffffffffffffffffffffffffff1681526020019060010190808311612a2c575b5050505050905090565b600e6020528060005260406000206000915054906101000a900460ff1681565b600060116000836000191660001916815260200190815260200160002060009054906101000a900473ffffffffffffffffffffffffffffffffffffffff169050919050565b600081612b0f612afd85670de0b6b3a7640000612dc4565b600285811515612b0957fe5b04612df4565b811515612b1857fe5b04905092915050565b6000670de0b6b3a7640000612b53612b398585612dc4565b6002670de0b6b3a7640000811515612b4d57fe5b04612df4565b811515612b5c57fe5b04905092915050565b60003073ffffffffffffffffffffffffffffffffffffffff168373ffffffffffffffffffffffffffffffffffffffff161415612ba45760019050612dbe565b600160009054906101000a900473ffffffffffffffffffffffffffffffffffffffff1673ffffffffffffffffffffffffffffffffffffffff168373ffffffffffffffffffffffffffffffffffffffff161415612c035760019050612dbe565b600073ffffffffffffffffffffffffffffffffffffffff166000809054906101000a900473ffffffffffffffffffffffffffffffffffffffff1673ffffffffffffffffffffffffffffffffffffffff161415612c625760009050612dbe565b6000809054906101000a900473ffffffffffffffffffffffffffffffffffffffff1673ffffffffffffffffffffffffffffffffffffffff1663b70096138430856000604051602001526040518463ffffffff167c0100000000000000000000000000000000000000000000000000000000028152600401808473ffffffffffffffffffffffffffffffffffffffff1673ffffffffffffffffffffffffffffffffffffffff1681526020018373ffffffffffffffffffffffffffffffffffffffff1673ffffffffffffffffffffffffffffffffffffffff168152602001827bffffffffffffffffffffffffffffffffffffffffffffffffffffffff19167bffffffffffffffffffffffffffffffffffffffffffffffffffffffff191681526020019350505050602060405180830381600087803b1515612da057600080fd5b6102c65a03f11515612db157600080fd5b5050506040518051905090505b92915050565b600080821480612de357508282838502925082811515612de057fe5b04145b1515612dee57600080fd5b92915050565b60008282840191508110151515612e0a57600080fd5b92915050565b815481835581811511612e3757818360005260206000209182019101612e369190612eda565b5b505050565b815481835581811511612e6357818360005260206000209182019101612e629190612eda565b5b505050565b60c060405190810160405280600073ffffffffffffffffffffffffffffffffffffffff16815260200160008019168152602001600080191681526020016000815260200160006001811115612eb957fe5b8152602001600081525090565b602060405190810160405280600081525090565b612efc91905b80821115612ef8576000816000905550600101612ee0565b5090565b905600a165627a7a72305820fab58e23cc64a79fa31ce5651f58561a5939c708d5449992e0a62dcad1ed6b410029",
  "source": "pragma solidity 0.4.18;\r\n\r\nimport \"./math.sol\";\r\nimport \"./stop.sol\";\r\n\r\n// FOR DEMO\r\n\r\ncontract NetworkParameters is DSMath, DSStop {\r\n    bool public tradingAllowed;\r\n    uint public maximumAllowedMarginAccounts;\r\n    uint public decimals;\r\n    uint public initialMarginPercentage;\r\n    uint public liquidationMarginPercentage;\r\n    \r\n    uint public interestRatePercentage;\r\n    bytes32 public interestRateInterval;\r\n    uint public maxLoanPeriodDays;\r\n    uint public gracePeriodDays;\r\n    \r\n    bytes32 internal TOKEN_TYPE_LENDING = \"lending\";\r\n    bytes32 internal TOKEN_TYPE_COLLATERAL = \"collateral\";\r\n    bytes32 internal TOKEN_TYPE_TRADING = \"trading\";\r\n    \r\n    mapping (address => TokenMetadata) public tokens;\r\n    mapping (bytes32 => bool) public lendingTokens;\r\n    mapping (bytes32 => bool) public collateralTokens;\r\n    mapping (bytes32 => bool) public tradingTokens;\r\n    mapping (bytes32 => address) public tokenBySymbol;\r\n\r\n    address[] public tokenAddresses;\r\n    \r\n    // Token Registry\r\n    event LogTokenUpdated(\r\n        address indexed token,\r\n        bytes32 name,\r\n        bytes32 symbol,\r\n        uint decimals,\r\n        Status status,\r\n        uint value,\r\n        bytes32 action\r\n    );\r\n    \r\n    enum Status {\r\n        INACTIVE, // Set to inactive when a token is deactivated\r\n        ACTIVE    // Default status when a new token is added\r\n    }\r\n\r\n    struct TokenMetadata {\r\n        address token;\r\n        bytes32 name;\r\n        bytes32 symbol;\r\n        uint decimals;\r\n        Status status;\r\n        uint value;\r\n    }\r\n\r\n    modifier tokenExists(address _token) {\r\n        require(tokens[_token].status == Status.ACTIVE);\r\n        _;\r\n    }\r\n\r\n    modifier tokenDoesNotExist(address _token) {\r\n        require(tokens[_token].status != Status.ACTIVE);\r\n        _;\r\n    }\r\n\r\n    modifier symbolExists(bytes32 _symbol) {\r\n        require(tokens[tokenBySymbol[_symbol]].status == Status.ACTIVE);\r\n        _;\r\n    }\r\n\r\n    modifier addressNotNull(address _address) {\r\n        require(_address != address(0));\r\n        _;\r\n    }\r\n\r\n    function NetworkParameters() public {\r\n        \r\n        tradingAllowed = true;\r\n        maximumAllowedMarginAccounts = 50;\r\n        decimals = 18;\r\n        initialMarginPercentage = 40;// 1 / 40% = 2.5 times collateral\r\n        liquidationMarginPercentage = 20;// 1 / 20% = 5 times collateral\r\n        \r\n        interestRatePercentage = 10;\r\n        interestRateInterval = \"day\";\r\n        maxLoanPeriodDays = 30 days;\r\n        gracePeriodDays = 100 days;\r\n    }\r\n\r\n    function isValidSymbol(bytes32 _symbol)\r\n        public\r\n        constant\r\n        symbolExists(_symbol)\r\n        returns (bool)\r\n    {\r\n        if (tokens[tokenBySymbol[_symbol]].status == Status.ACTIVE) {\r\n            return true;\r\n        }\r\n        else {\r\n            return false;\r\n        }\r\n    }\r\n\r\n    /// @dev Allows owner to add a new token to the registry.\r\n    /// @param _token Address of new token.\r\n    /// @param _name Name of new token.\r\n    /// @param _symbol Symbol for new token.\r\n    /// @param _decimals Number of decimals, divisibility of new token.\r\n    function addToken(\r\n            address _token,\r\n            bytes32 _name,\r\n            bytes32 _symbol,\r\n            uint _decimals,\r\n            uint _value,\r\n            bool isLendingToken,\r\n            bool isCollateralToken,\r\n            bool isTradingToken\r\n        )\r\n        public\r\n        tokenDoesNotExist(_token)\r\n        addressNotNull(_token)\r\n        stoppable\r\n        auth\r\n    {\r\n        tokens[_token] = TokenMetadata({\r\n            token: _token,\r\n            name: _name,\r\n            symbol: _symbol,\r\n            decimals: _decimals,\r\n            status: Status.ACTIVE,\r\n            value: _value\r\n        });\r\n        tokenAddresses.push(_token);\r\n        tokenBySymbol[_symbol] = _token;\r\n        \r\n        if (isLendingToken) {\r\n            lendingTokens[_symbol] = true;\r\n        }\r\n        if (isCollateralToken) {\r\n            collateralTokens[_symbol] = true;\r\n        }\r\n        if (isTradingToken) {\r\n            tradingTokens[_symbol] = true;\r\n        }\r\n        LogTokenUpdated(\r\n            _token,\r\n            _name,\r\n            _symbol,\r\n            _decimals,\r\n            Status.ACTIVE,\r\n            _value,\r\n            \"token added\"\r\n        );\r\n    }\r\n\r\n    function addSupport(\r\n            bytes32 _symbol,\r\n            bytes32[3] _tokenTypes\r\n        )\r\n        public\r\n        symbolExists(_symbol) \r\n        stoppable\r\n        auth\r\n        returns (bool)\r\n    {\r\n        if (_tokenTypes[0] == TOKEN_TYPE_LENDING) {\r\n            lendingTokens[_symbol] = true;\r\n        }\r\n        if (_tokenTypes[1] == TOKEN_TYPE_COLLATERAL) {\r\n            collateralTokens[_symbol] = true;\r\n        }\r\n        if (_tokenTypes[2] == TOKEN_TYPE_TRADING) {\r\n            tradingTokens[_symbol] = true;\r\n        }\r\n        return true;\r\n    }\r\n\r\n    function removeSupport(\r\n            bytes32 _symbol,\r\n            bytes32[3] _tokenTypes\r\n        )\r\n        public\r\n        symbolExists(_symbol) \r\n        stoppable\r\n        auth\r\n        returns (bool)\r\n    {\r\n        if (_tokenTypes[0] == TOKEN_TYPE_LENDING) {\r\n            lendingTokens[_symbol] = false;\r\n        }\r\n        if (_tokenTypes[1] == TOKEN_TYPE_COLLATERAL) {\r\n            collateralTokens[_symbol] = false;\r\n        }\r\n        if (_tokenTypes[2] == TOKEN_TYPE_TRADING) {\r\n            tradingTokens[_symbol] = false;\r\n        }\r\n        return true;\r\n    }\r\n\r\n    /// @dev Allows owner to remove an existing token from the registry.\r\n    /// @param _token Address of existing token.\r\n    function removeToken(\r\n            address _token,\r\n            uint _index\r\n        )\r\n        public\r\n        tokenExists(_token)\r\n        stoppable\r\n        auth\r\n    {\r\n        require(tokenAddresses[_index] == _token);\r\n\r\n        tokenAddresses[_index] = tokenAddresses[tokenAddresses.length - 1];\r\n        tokenAddresses.length -= 1;\r\n\r\n        TokenMetadata storage token = tokens[_token];\r\n        \r\n        LogTokenUpdated(\r\n            token.token,\r\n            token.name,\r\n            token.symbol,\r\n            token.decimals,\r\n            token.status,\r\n            token.value,\r\n            \"token removed\"\r\n        );\r\n        delete tokenBySymbol[token.symbol];\r\n        delete lendingTokens[token.symbol];\r\n        delete collateralTokens[token.symbol];\r\n        delete tradingTokens[token.symbol];\r\n        delete tokens[_token];\r\n        \r\n    }\r\n\r\n    /// @dev Provides a registered token's metadata, looked up by address.\r\n    /// @param _token Address of registered token.\r\n    /// @return Token metadata.\r\n    function getTokenMetaData(address _token)\r\n        public\r\n        constant\r\n        returns (\r\n            address, //tokenAddress\r\n            bytes32, //name\r\n            bytes32, //symbol\r\n            uint,    //decimals\r\n            Status,  //status\r\n            uint     //value\r\n        )\r\n    {\r\n        TokenMetadata memory token = tokens[_token];\r\n        return (\r\n            token.token,\r\n            token.name,\r\n            token.symbol,\r\n            token.decimals,\r\n            token.status,\r\n            token.value\r\n        );\r\n    }\r\n\r\n    /// @dev Provides a registered token's metadata, looked up by symbol.\r\n    /// @param _symbol Symbol of registered token.\r\n    /// @return Token metadata.\r\n    function getTokenBySymbol(bytes32 _symbol)\r\n        public\r\n        constant\r\n        returns (\r\n            address, //tokenAddress\r\n            bytes32, //name\r\n            bytes32, //symbol\r\n            uint,    //decimals\r\n            Status,  //status\r\n            uint     //value\r\n            )\r\n    {\r\n        address _token = tokenBySymbol[_symbol];\r\n        return getTokenMetaData(_token);\r\n    }\r\n\r\n    /// @dev Provides a registered token's decimals, looked up by address.\r\n    /// @param _address Address of registered token.\r\n    /// @return Token decimals.\r\n    function getTokenDecimalsByAddress(address _address)\r\n        public\r\n        constant\r\n        returns (uint)\r\n    {\r\n        TokenMetadata memory token = tokens[_address];\r\n        return token.decimals;\r\n    }\r\n\r\n    /// @dev Provides a registered token's decimals, looked up by symbol.\r\n    /// @param _symbol Symbol of registered token.\r\n    /// @return Token decimals.\r\n    function getTokenDecimalsBySymbol(bytes32 _symbol)\r\n        public\r\n        constant\r\n        returns (uint)\r\n    {\r\n        TokenMetadata memory token = tokens[tokenBySymbol[_symbol]];\r\n        return token.decimals;\r\n    }\r\n\r\n    /// @dev Provides a registered token's address, looked up by symbol.\r\n    /// Useful when called by an external contract\r\n    /// @param _symbol Symbol of registered token.\r\n    /// @return Token address.\r\n    function getTokenAddressBySymbol(bytes32 _symbol)\r\n        public\r\n        constant\r\n        returns (address)\r\n    {\r\n        return tokenBySymbol[_symbol];\r\n    }\r\n\r\n\r\n    /// @dev Provides a registered token's symbol, looked up by address.\r\n    /// @param _address Address of registered token.\r\n    /// @return Token symbol.\r\n    function getTokenSymbolByAddress(address _address)\r\n        public\r\n        constant\r\n        returns (bytes32)\r\n    {\r\n        TokenMetadata memory token = tokens[_address];\r\n        return token.symbol;\r\n    }\r\n\r\n    /// @dev Returns an array containing all token addresses.\r\n    /// @return Array of token addresses.\r\n    function getTokenAddresses()\r\n        public\r\n        constant\r\n        returns (address[])\r\n    {\r\n        return tokenAddresses;\r\n    }\r\n\r\n    function initialMarginLevel()\r\n        public\r\n        constant\r\n        returns (uint)\r\n    {\r\n        return wmul(wdiv(100, initialMarginPercentage), 10 ** decimals);\r\n    }\r\n\r\n    function liquidationMarginLevel()\r\n        public\r\n        constant\r\n        returns (uint)\r\n    {\r\n        return wmul(wdiv(100, liquidationMarginPercentage), 10 ** decimals);\r\n    }\r\n\r\n    function interestRate()\r\n        public\r\n        constant\r\n        returns (uint)\r\n    {\r\n        return wmul(wdiv(interestRatePercentage, 100), 10 ** decimals);\r\n    }\r\n\r\n    /**\r\n        @notice allows the current owner to change the interestRateInterval.\r\n        @param _i bytes32 value as the interestRateInterval\r\n        @return true an acknowledgement that the interestRateInterval was set by the owner\r\n    */\r\n    function setInterestRateInterval(bytes32 _i) public auth returns (bool) {\r\n        interestRateInterval = _i;\r\n        return true;\r\n    }\r\n\r\n    /**\r\n        @notice allows the current owner to change the interestRatePercentage.\r\n        @param _i integer value as the interestRatePercentage\r\n        @return true an acknowledgement that the interestRatePercentage was set by the owner\r\n    */\r\n    function setInterestRatePercentage(uint _i) public auth returns (bool) {\r\n        interestRatePercentage = _i;\r\n        return true;\r\n    }\r\n\r\n    /**\r\n        @notice allows the current owner to change the daily interest rate.\r\n        @param _d integer value as the daily interest rate\r\n        @return true an acknowledgement that the daily interest rate was set by the owner\r\n    */\r\n    function setMaxLoanPeriodDays(uint _d) public auth returns (bool) {\r\n        maxLoanPeriodDays = _d;\r\n        return true;\r\n    }\r\n\r\n    /**\r\n        @notice allows the current owner to change the grace period.\r\n        @param _d integer value as the grace period\r\n        @return true an acknowledgement that the grace period was set by the owner\r\n    */\r\n    function setGracePeriodDays(uint _d) public auth returns (bool) {\r\n        gracePeriodDays = _d;\r\n        return true;\r\n    }\r\n\r\n    /**\r\n        @notice allows the current owner to change the initialMarginPercentage.\r\n        @param _percentage integer value as the initialMarginPercentage\r\n        @return true an acknowledgement that the initialMarginPercentage was set by the owner\r\n    */\r\n    function setInitialMarginPercentage(uint _percentage) public auth returns (bool) {\r\n        require(_percentage <= 100);\r\n        initialMarginPercentage = _percentage;\r\n        return true;\r\n    }\r\n\r\n    /**\r\n        @notice allows the current owner to change the liquidationMarginPercentage.\r\n        @param _percentage integer value as the liquidationMarginPercentage\r\n        @return true an acknowledgement that the liquidationMarginPercentage was set by the owner\r\n    */\r\n    function setLiquidationMarginPercentage(uint _percentage) public auth returns (bool) {\r\n        require(_percentage <= 100);\r\n        liquidationMarginPercentage = _percentage;\r\n        return true;\r\n    }\r\n}",
  "sourcePath": "C:\\work\\programming\\ethereum\\lendroid\\protocol-demo\\contracts\\NetworkParameters.sol",
  "compiler": {
    "name": "solc",
    "version": "0.4.18+commit.9cf6e910.Emscripten.clang"
  },
  "schemaVersion": "1.0.1",
  "updatedAt": "2017-11-11T14:40:11.051Z"
}