{
  "contractName": "NetworkParameters",
  "abi": [
    {
      "constant": true,
      "inputs": [
        {
          "name": "_type",
          "type": "bytes32"
        },
        {
          "name": "_token",
          "type": "address"
        },
        {
          "name": "_index",
          "type": "uint256"
        }
      ],
      "name": "initialMarginLevel",
      "outputs": [
        {
          "name": "",
          "type": "uint256"
        }
      ],
      "payable": false,
      "stateMutability": "view",
      "type": "function"
    },
    {
      "constant": false,
      "inputs": [
        {
          "name": "_d",
          "type": "uint256"
        },
        {
          "name": "_index",
          "type": "uint256"
        }
      ],
      "name": "stop",
      "outputs": [
        {
          "name": "",
          "type": "bool"
        }
      ],
      "payable": false,
      "stateMutability": "nonpayable",
      "type": "function"
    },
    {
      "constant": false,
      "inputs": [
        {
          "name": "_d",
          "type": "uint256"
        },
        {
          "name": "_type",
          "type": "bytes32"
        }
      ],
      "name": "setGracePeriodDays",
      "outputs": [
        {
          "name": "",
          "type": "bool"
        },
        {
          "name": "",
          "type": "bytes32"
        },
        {
          "name": "",
          "type": "bytes32"
        },
        {
          "name": "",
          "type": "uint256"
        },
        {
          "name": "",
          "type": "uint8"
        },
        {
          "name": "",
          "type": "uint256"
        }
      ],
      "payable": false,
      "stateMutability": "nonpayable",
      "type": "function"
    },
    {
      "constant": true,
      "inputs": [
        {
          "name": "_symbol",
          "type": "bytes32"
        },
        {
          "name": "_type",
          "type": "bytes32"
        }
      ],
      "name": "initialMarginPercentage",
      "outputs": [
        {
          "name": "",
          "type": "uint256"
        },
        {
          "name": "",
          "type": "bytes32"
        },
        {
          "name": "",
          "type": "bytes32"
        },
        {
          "name": "",
          "type": "uint256"
        },
        {
          "name": "",
          "type": "uint8"
        },
        {
          "name": "",
          "type": "uint256"
        }
      ],
      "payable": false,
      "stateMutability": "view",
      "type": "function"
    },
    {
      "constant": true,
      "inputs": [
        {
          "name": "owner_",
          "type": "address"
        }
      ],
      "name": "gracePeriodDays",
      "outputs": [
        {
          "name": "",
          "type": "uint256"
        }
      ],
      "payable": false,
      "stateMutability": "view",
      "type": "function"
    },
    {
      "constant": false,
      "inputs": [
        {
          "name": "owner_",
          "type": "address"
        },
        {
          "name": "_index",
          "type": "uint256"
        }
      ],
      "name": "setOwner",
      "outputs": [
        {
          "name": "",
          "type": "bool"
        }
      ],
      "payable": false,
      "stateMutability": "nonpayable",
      "type": "function"
    },
    {
      "constant": false,
      "inputs": [
        {
          "name": "_token",
          "type": "address"
        },
        {
          "name": "_index",
          "type": "uint256"
        }
      ],
      "name": "removeToken",
      "outputs": [
        {
          "name": "",
          "type": "bool"
        }
      ],
      "payable": false,
      "stateMutability": "nonpayable",
      "type": "function"
    },
    {
      "constant": false,
      "inputs": [
        {
          "name": "_percentage",
          "type": "uint256"
        },
        {
          "name": "_name",
          "type": "bytes32"
        },
        {
          "name": "_symbol",
          "type": "bytes32"
        },
        {
          "name": "_decimals",
          "type": "uint256"
        },
        {
          "name": "_value",
          "type": "uint256"
        },
        {
          "name": "supportedTypes",
          "type": "bytes32[3]"
        }
      ],
      "name": "setLiquidationMarginPercentage",
      "outputs": [
        {
          "name": "",
          "type": "bool"
        },
        {
          "name": "",
          "type": "bytes32"
        },
        {
          "name": "",
          "type": "bytes32"
        },
        {
          "name": "",
          "type": "uint256"
        },
        {
          "name": "",
          "type": "uint8"
        },
        {
          "name": "",
          "type": "uint256"
        }
      ],
      "payable": false,
      "stateMutability": "nonpayable",
      "type": "function"
    },
    {
      "constant": false,
      "inputs": [
        {
          "name": "_d",
          "type": "uint256"
        },
        {
          "name": "",
          "type": "address"
        }
      ],
      "name": "setMaxLoanPeriodDays",
      "outputs": [
        {
          "name": "",
          "type": "bool"
        },
        {
          "name": "name",
          "type": "bytes32"
        },
        {
          "name": "symbol",
          "type": "bytes32"
        },
        {
          "name": "decimals",
          "type": "uint256"
        },
        {
          "name": "status",
          "type": "uint8"
        },
        {
          "name": "value",
          "type": "uint256"
        }
      ],
      "payable": false,
      "stateMutability": "nonpayable",
      "type": "function"
    },
    {
      "constant": true,
      "inputs": [
        {
          "name": "_symbol",
          "type": "bytes32"
        }
      ],
      "name": "getTokenBySymbol",
      "outputs": [
        {
          "name": "",
          "type": "address"
        },
        {
          "name": "",
          "type": "bytes32"
        },
        {
          "name": "",
          "type": "bytes32"
        },
        {
          "name": "",
          "type": "uint256"
        },
        {
          "name": "",
          "type": "uint8"
        },
        {
          "name": "",
          "type": "uint256"
        }
      ],
      "payable": false,
      "stateMutability": "view",
      "type": "function"
    },
    {
      "constant": false,
      "inputs": [
        {
          "name": "_i",
          "type": "uint256"
        },
        {
          "name": "_tokenTypes",
          "type": "bytes32[3]"
        }
      ],
      "name": "setInterestRatePercentage",
      "outputs": [
        {
          "name": "",
          "type": "bool"
        },
        {
          "name": "",
          "type": "bytes32"
        },
        {
          "name": "",
          "type": "bytes32"
        },
        {
          "name": "",
          "type": "uint256"
        },
        {
          "name": "",
          "type": "uint8"
        },
        {
          "name": "",
          "type": "uint256"
        }
      ],
      "payable": false,
      "stateMutability": "nonpayable",
      "type": "function"
    },
    {
      "constant": true,
      "inputs": [
        {
          "name": "",
          "type": "bytes32"
        },
        {
          "name": "_name",
          "type": "bytes32"
        },
        {
          "name": "_symbol",
          "type": "bytes32"
        },
        {
          "name": "_decimals",
          "type": "uint256"
        },
        {
          "name": "_value",
          "type": "uint256"
        },
        {
          "name": "_type",
          "type": "bytes32"
        }
      ],
      "name": "tokenBySymbol",
      "outputs": [
        {
          "name": "",
          "type": "address"
        },
        {
          "name": "",
          "type": "bytes32"
        },
        {
          "name": "",
          "type": "bytes32"
        },
        {
          "name": "",
          "type": "uint256"
        },
        {
          "name": "",
          "type": "uint8"
        },
        {
          "name": "",
          "type": "uint256"
        }
      ],
      "payable": false,
      "stateMutability": "view",
      "type": "function"
    },
    {
      "constant": true,
      "inputs": [
        {
          "name": "",
          "type": "bytes32"
        }
      ],
      "name": "maxLoanPeriodDays",
      "outputs": [
        {
          "name": "",
          "type": "uint256"
        }
      ],
      "payable": false,
      "stateMutability": "view",
      "type": "function"
    },
    {
      "constant": true,
      "inputs": [
        {
          "name": "",
          "type": "bytes32"
        },
        {
          "name": "_tokenTypes",
          "type": "bytes32[3]"
        }
      ],
      "name": "tradingTokens",
      "outputs": [
        {
          "name": "",
          "type": "bool"
        }
      ],
      "payable": false,
      "stateMutability": "view",
      "type": "function"
    },
    {
      "constant": true,
      "inputs": [
        {
          "name": "_token",
          "type": "address"
        },
        {
          "name": "_name",
          "type": "bytes32"
        },
        {
          "name": "_symbol",
          "type": "bytes32"
        },
        {
          "name": "_decimals",
          "type": "uint256"
        },
        {
          "name": "_value",
          "type": "uint256"
        },
        {
          "name": "supportedTypes",
          "type": "bytes32[3]"
        }
      ],
      "name": "decimals",
      "outputs": [
        {
          "name": "",
          "type": "uint256"
        }
      ],
      "payable": false,
      "stateMutability": "view",
      "type": "function"
    },
    {
      "constant": true,
      "inputs": [
        {
          "name": "",
          "type": "bytes32"
        }
      ],
      "name": "maximumAllowedMarginAccounts",
      "outputs": [
        {
          "name": "",
          "type": "uint256"
        }
      ],
      "payable": false,
      "stateMutability": "view",
      "type": "function"
    },
    {
      "inputs": [
        {
          "name": "_address",
          "type": "address"
        }
      ],
      "payable": false,
      "stateMutability": "view",
      "type": "function",
      "constant": true,
      "name": "tradingAllowed",
      "outputs": [
        {
          "name": "",
          "type": "bool"
        }
      ]
    },
    {
      "anonymous": false,
      "inputs": [
        {
          "indexed": true,
          "name": "_token",
          "type": "address"
        },
        {
          "indexed": false,
          "name": "_name",
          "type": "bytes32"
        },
        {
          "indexed": false,
          "name": "_symbol",
          "type": "bytes32"
        },
        {
          "indexed": false,
          "name": "_decimals",
          "type": "uint256"
        },
        {
          "indexed": false,
          "name": "_value",
          "type": "uint256"
        },
        {
          "indexed": false,
          "name": "isLendingToken",
          "type": "bool"
        },
        {
          "indexed": false,
          "name": "isCollateralToken",
          "type": "bool"
        },
        {
          "indexed": false,
          "name": "isTradingToken",
          "type": "bool"
        }
      ],
      "name": "addToken",
      "type": "function",
      "constant": false,
      "outputs": [
        {
          "name": "",
          "type": "bytes32"
        }
      ],
      "payable": false,
      "stateMutability": "nonpayable"
    },
    {
      "constant": true,
      "inputs": [
        {
          "name": "_address",
          "type": "address"
        },
        {
          "name": "_tokenTypes",
          "type": "bytes32[3]"
        }
      ],
      "name": "getTokenSymbolByAddress",
      "outputs": [
        {
          "name": "",
          "type": "bytes32"
        },
        {
          "name": "name",
          "type": "bytes32"
        },
        {
          "name": "symbol",
          "type": "bytes32"
        },
        {
          "name": "decimals",
          "type": "uint256"
        },
        {
          "name": "status",
          "type": "uint8"
        },
        {
          "name": "value",
          "type": "uint256"
        }
      ],
      "payable": false,
      "stateMutability": "view",
      "type": "function"
    },
    {
      "constant": true,
      "inputs": [
        {
          "name": "_symbol",
          "type": "bytes32"
        },
        {
          "name": "_tokenTypes",
          "type": "bytes32[3]"
        }
      ],
      "name": "liquidationMarginLevel",
      "outputs": [
        {
          "name": "",
          "type": "uint256"
        }
      ],
      "payable": false,
      "stateMutability": "view",
      "type": "function"
    },
    {
      "constant": false,
      "inputs": [
        {
          "name": "_symbol",
          "type": "bytes32"
        },
        {
          "name": "_tokenTypes",
          "type": "bytes32[3]"
        }
      ],
      "name": "removeSupport",
      "outputs": [
        {
          "name": "",
          "type": "bool"
        }
      ],
      "payable": false,
      "stateMutability": "nonpayable",
      "type": "function"
    },
    {
      "constant": true,
      "inputs": [
        {
          "name": "authority_",
          "type": "address"
        }
      ],
      "name": "stopped",
      "outputs": [
        {
          "name": "",
          "type": "bool"
        },
        {
          "name": "",
          "type": "bytes32"
        },
        {
          "name": "",
          "type": "bytes32"
        },
        {
          "name": "",
          "type": "uint256"
        },
        {
          "name": "",
          "type": "uint8"
        },
        {
          "name": "",
          "type": "uint256"
        }
      ],
      "payable": false,
      "stateMutability": "view",
      "type": "function"
    },
    {
      "constant": false,
      "inputs": [
        {
          "name": "authority_",
          "type": "address"
        }
      ],
      "name": "setAuthority",
      "outputs": [
        {
          "name": "",
          "type": "address"
        },
        {
          "name": "",
          "type": "bytes32"
        },
        {
          "name": "",
          "type": "bytes32"
        },
        {
          "name": "",
          "type": "uint256"
        },
        {
          "name": "",
          "type": "uint8"
        },
        {
          "name": "",
          "type": "uint256"
        }
      ],
      "payable": false,
      "stateMutability": "nonpayable",
      "type": "function"
    },
    {
      "inputs": [
        {
          "name": "_token",
          "type": "address"
        },
        {
          "name": "_tokenTypes",
          "type": "bytes32[3]"
        }
      ],
      "payable": false,
      "stateMutability": "view",
      "type": "function",
      "constant": true,
      "name": "getTokenMetaData",
      "outputs": [
        {
          "name": "",
          "type": "address"
        },
        {
          "name": "",
          "type": "bytes32"
        },
        {
          "name": "",
          "type": "bytes32"
        },
        {
          "name": "",
          "type": "uint256"
        },
        {
          "name": "",
          "type": "uint8"
        },
        {
          "name": "",
          "type": "uint256"
        }
      ]
    },
    {
      "anonymous": false,
      "inputs": [
        {
          "indexed": true,
          "name": "token",
          "type": "address"
        },
        {
          "indexed": false,
          "name": "name",
          "type": "bytes32"
        },
        {
          "indexed": false,
          "name": "symbol",
          "type": "bytes32"
        },
        {
          "indexed": false,
          "name": "decimals",
          "type": "uint256"
        },
        {
          "indexed": false,
          "name": "status",
          "type": "uint8"
        },
        {
          "indexed": false,
          "name": "value",
          "type": "uint256"
        },
        {
          "indexed": false,
          "name": "action",
          "type": "bytes32"
        }
      ],
      "name": "interestRate",
      "type": "function",
      "constant": true,
      "outputs": [
        {
          "name": "",
          "type": "uint256"
        }
      ],
      "payable": false,
      "stateMutability": "view"
    },
    {
      "constant": true,
      "inputs": [
        {
          "name": "_symbol",
          "type": "bytes32"
        },
        {
          "name": "_tokenTypes",
          "type": "bytes32[3]"
        }
      ],
      "name": "isValidTradingSymbol",
      "outputs": [
        {
          "name": "",
          "type": "bool"
        }
      ],
      "payable": false,
      "stateMutability": "view",
      "type": "function"
    },
    {
      "constant": true,
      "inputs": [],
      "name": "owner",
      "outputs": [
        {
          "name": "",
          "type": "address"
        }
      ],
      "payable": false,
      "stateMutability": "view",
      "type": "function"
    },
    {
      "constant": true,
      "inputs": [
        {
          "name": "_symbol",
          "type": "bytes32"
        }
      ],
      "name": "liquidationMarginPercentage",
      "outputs": [
        {
          "name": "",
          "type": "uint256"
        }
      ],
      "payable": false,
      "stateMutability": "view",
      "type": "function"
    },
    {
      "constant": true,
      "inputs": [
        {
          "name": "_symbol",
          "type": "bytes32"
        },
        {
          "name": "_tokenTypes",
          "type": "bytes32[3]"
        }
      ],
      "name": "interestRatePercentage",
      "outputs": [
        {
          "name": "",
          "type": "uint256"
        }
      ],
      "payable": false,
      "stateMutability": "view",
      "type": "function"
    },
    {
      "constant": false,
      "inputs": [
        {
          "name": "_symbol",
          "type": "bytes32"
        },
        {
          "name": "_tokenTypes",
          "type": "bytes32[3]"
        }
      ],
      "name": "addSupport",
      "outputs": [
        {
          "name": "",
          "type": "bool"
        }
      ],
      "payable": false,
      "stateMutability": "nonpayable",
      "type": "function"
    },
    {
      "constant": false,
      "inputs": [
        {
          "name": "",
          "type": "bytes32"
        }
      ],
      "name": "start",
      "outputs": [
        {
          "name": "",
          "type": "address"
        }
      ],
      "payable": false,
      "stateMutability": "nonpayable",
      "type": "function"
    },
    {
      "constant": true,
      "inputs": [
        {
          "name": "_address",
          "type": "address"
        }
      ],
      "name": "authority",
      "outputs": [
        {
          "name": "",
          "type": "address"
        },
        {
          "name": "name",
          "type": "bytes32"
        },
        {
          "name": "symbol",
          "type": "bytes32"
        },
        {
          "name": "decimals",
          "type": "uint256"
        },
        {
          "name": "status",
          "type": "uint8"
        },
        {
          "name": "value",
          "type": "uint256"
        }
      ],
      "payable": false,
      "stateMutability": "view",
      "type": "function"
    },
    {
      "constant": true,
      "inputs": [
        {
          "name": "_symbol",
          "type": "bytes32"
        }
      ],
      "name": "interestRateInterval",
      "outputs": [
        {
          "name": "",
          "type": "bytes32"
        }
      ],
      "payable": false,
      "stateMutability": "view",
      "type": "function"
    },
    {
      "constant": true,
      "inputs": [
        {
          "name": "_symbol",
          "type": "bytes32"
        }
      ],
      "name": "getTokenDecimalsBySymbol",
      "outputs": [
        {
          "name": "",
          "type": "uint256"
        },
        {
          "name": "name",
          "type": "bytes32"
        },
        {
          "name": "symbol",
          "type": "bytes32"
        },
        {
          "name": "decimals",
          "type": "uint256"
        },
        {
          "name": "status",
          "type": "uint8"
        },
        {
          "name": "value",
          "type": "uint256"
        }
      ],
      "payable": false,
      "stateMutability": "view",
      "type": "function"
    },
    {
      "constant": true,
      "inputs": [
        {
          "name": "",
          "type": "bytes32"
        }
      ],
      "name": "collateralTokens",
      "outputs": [
        {
          "name": "",
          "type": "bool"
        }
      ],
      "payable": false,
      "stateMutability": "view",
      "type": "function"
    },
    {
      "constant": true,
      "inputs": [
        {
          "name": "_address",
          "type": "address"
        }
      ],
      "name": "getTokenDecimalsByAddress",
      "outputs": [
        {
          "name": "",
          "type": "uint256"
        }
      ],
      "payable": false,
      "stateMutability": "view",
      "type": "function"
    },
    {
      "constant": false,
      "inputs": [
        {
          "name": "_i",
          "type": "bytes32"
        }
      ],
      "name": "setInterestRateInterval",
      "outputs": [
        {
          "name": "",
          "type": "bool"
        }
      ],
      "payable": false,
      "stateMutability": "nonpayable",
      "type": "function"
    },
    {
      "inputs": [
        {
          "name": "_symbol",
          "type": "bytes32"
        }
      ],
      "payable": false,
      "stateMutability": "view",
      "type": "function",
      "constant": true,
      "name": "isValidSymbol",
      "outputs": [
        {
          "name": "",
          "type": "bool"
        },
        {
          "name": "name",
          "type": "bytes32"
        },
        {
          "name": "symbol",
          "type": "bytes32"
        },
        {
          "name": "decimals",
          "type": "uint256"
        },
        {
          "name": "status",
          "type": "uint8"
        },
        {
          "name": "value",
          "type": "uint256"
        }
      ]
    },
    {
      "anonymous": false,
      "inputs": [
        {
          "indexed": true,
          "name": "",
          "type": "address"
        },
        {
          "indexed": false,
          "name": "name",
          "type": "bytes32"
        },
        {
          "indexed": false,
          "name": "symbol",
          "type": "bytes32"
        },
        {
          "indexed": false,
          "name": "decimals",
          "type": "uint256"
        },
        {
          "indexed": false,
          "name": "status",
          "type": "uint8"
        },
        {
          "indexed": false,
          "name": "value",
          "type": "uint256"
        },
        {
          "indexed": false,
          "name": "action",
          "type": "bytes32"
        }
      ],
      "name": "tokens",
      "type": "function",
      "constant": true,
      "outputs": [
        {
          "name": "token",
          "type": "address"
        },
        {
          "name": "name",
          "type": "bytes32"
        },
        {
          "name": "symbol",
          "type": "bytes32"
        },
        {
          "name": "decimals",
          "type": "uint256"
        },
        {
          "name": "status",
          "type": "uint8"
        },
        {
          "name": "value",
          "type": "uint256"
        }
      ],
      "payable": false,
      "stateMutability": "view"
    },
    {
      "anonymous": false,
      "inputs": [
        {
          "indexed": true,
          "name": "",
          "type": "uint256"
        }
      ],
      "name": "tokenAddresses",
      "type": "function",
      "constant": true,
      "outputs": [
        {
          "name": "",
          "type": "address"
        }
      ],
      "payable": false,
      "stateMutability": "view"
    },
    {
      "anonymous": false,
      "inputs": [
        {
          "indexed": true,
          "name": "_percentage",
          "type": "uint256"
        }
      ],
      "name": "setInitialMarginPercentage",
      "type": "function",
      "payable": false,
      "stateMutability": "nonpayable",
      "constant": false,
      "outputs": [
        {
          "name": "",
          "type": "bool"
        }
      ]
    },
    {
      "anonymous": false,
      "inputs": [
        {
          "indexed": true,
          "name": "",
          "type": "bytes32"
        },
        {
          "indexed": false,
          "name": "name",
          "type": "bytes32"
        },
        {
          "indexed": false,
          "name": "symbol",
          "type": "bytes32"
        },
        {
          "indexed": false,
          "name": "decimals",
          "type": "uint256"
        },
        {
          "indexed": false,
          "name": "status",
          "type": "uint8"
        },
        {
          "indexed": false,
          "name": "value",
          "type": "uint256"
        },
        {
          "indexed": false,
          "name": "action",
          "type": "bytes32"
        }
      ],
      "name": "getTokenAddresses",
      "type": "function",
      "constant": true,
      "outputs": [
        {
          "name": "",
          "type": "address[]"
        }
      ],
      "payable": false,
      "stateMutability": "view"
    },
    {
      "anonymous": false,
      "inputs": [
        {
          "indexed": true,
          "name": "",
          "type": "bytes32"
        }
      ],
      "name": "lendingTokens",
      "type": "function",
      "constant": true,
      "outputs": [
        {
          "name": "",
          "type": "bool"
        }
      ],
      "payable": false,
      "stateMutability": "view"
    },
    {
      "anonymous": false,
      "inputs": [
        {
          "indexed": true,
          "name": "_symbol",
          "type": "bytes32"
        }
      ],
      "name": "getTokenAddressBySymbol",
      "type": "function",
      "payable": false,
      "stateMutability": "view",
      "constant": true,
      "outputs": [
        {
          "name": "",
          "type": "address"
        }
      ]
    },
    {
      "anonymous": false,
      "inputs": [
        {
          "indexed": true,
          "name": "token",
          "type": "address"
        },
        {
          "indexed": false,
          "name": "name",
          "type": "bytes32"
        },
        {
          "indexed": false,
          "name": "symbol",
          "type": "bytes32"
        },
        {
          "indexed": false,
          "name": "decimals",
          "type": "uint256"
        },
        {
          "indexed": false,
          "name": "status",
          "type": "uint8"
        },
        {
          "indexed": false,
          "name": "value",
          "type": "uint256"
        },
        {
          "indexed": false,
          "name": "action",
          "type": "bytes32"
        }
      ],
      "name": "LogTokenUpdated",
      "type": "constructor",
      "payable": false,
      "stateMutability": "nonpayable"
    },
    {
      "anonymous": false,
      "inputs": [
        {
          "indexed": true,
          "name": "token",
          "type": "address"
        },
        {
          "indexed": false,
          "name": "name",
          "type": "bytes32"
        },
        {
          "indexed": false,
          "name": "symbol",
          "type": "bytes32"
        },
        {
          "indexed": false,
          "name": "decimals",
          "type": "uint256"
        },
        {
          "indexed": false,
          "name": "status",
          "type": "uint8"
        },
        {
          "indexed": false,
          "name": "value",
          "type": "uint256"
        },
        {
          "indexed": false,
          "name": "action",
          "type": "bytes32"
        }
      ],
      "name": "LogTokenUpdated",
      "type": "event"
    },
    {
      "anonymous": false,
      "inputs": [
        {
          "indexed": true,
          "name": "authority",
          "type": "address"
        }
      ],
      "name": "LogSetAuthority",
      "type": "event"
    },
    {
      "anonymous": false,
      "inputs": [
        {
          "indexed": true,
          "name": "owner",
          "type": "address"
        },
        {
          "indexed": true,
          "name": "guy",
          "type": "address"
        },
        {
          "indexed": true,
          "name": "foo",
          "type": "bytes32"
        },
        {
          "indexed": true,
          "name": "bar",
          "type": "bytes32"
        },
        {
          "indexed": false,
          "name": "wad",
          "type": "uint256"
        },
        {
          "indexed": false,
          "name": "fax",
          "type": "bytes"
        }
      ],
      "name": "LogSetOwner",
      "type": "event"
    },
    {
      "anonymous": true,
      "inputs": [
        {
          "indexed": true,
          "name": "sig",
          "type": "bytes4"
        },
        {
          "indexed": true,
          "name": "guy",
          "type": "address"
        },
        {
          "indexed": true,
          "name": "foo",
          "type": "bytes32"
        },
        {
          "indexed": true,
          "name": "bar",
          "type": "bytes32"
        },
        {
          "indexed": false,
          "name": "wad",
          "type": "uint256"
        },
        {
          "indexed": false,
          "name": "fax",
          "type": "bytes"
        }
      ],
      "name": "LogNote",
      "type": "event"
    }
  ],
  "bytecode": "0x60606040527f6c656e64696e6700000000000000000000000000000000000000000000000000600a906000191690557f636f6c6c61746572616c00000000000000000000000000000000000000000000600b906000191690557f74726164696e6700000000000000000000000000000000000000000000000000600c90600019169055341561008d57600080fd5b33600160006101000a81548173ffffffffffffffffffffffffffffffffffffffff021916908373ffffffffffffffffffffffffffffffffffffffff1602179055503373ffffffffffffffffffffffffffffffffffffffff167fce241d7ca1f669fee44b6fc00b8eba2df3bb514eed0f6f668f8f89096e81ed9460405160405180910390a260018060156101000a81548160ff0219169083151502179055506032600281905550601260038190555060286004819055506014600581905550600a6006819055507f64617900000000000000000000000000000000000000000000000000000000006007816000191690555062278d006008819055506283d600600981905550613057806101a16000396000f30060606040526004361061021a576000357c0100000000000000000000000000000000000000000000000000000000900463ffffffff168063079110521461021f57806307da68f5146102485780630ce6b4191461025d5780631028f036146102985780631348ed5e146102c157806313af4035146102ea57806313baf1e61461032357806318db3c7f146103655780631d6a3ea0146103a05780631f76fa34146103db578063222d1a0e1461048357806326a2a16d146104be57806326e86cd71461052557806328ad119c1461054e578063313ce5671461058d57806352e9e10f146105b657806353371be0146105df5780635844c1b21461060c578063667a5f9d14610692578063707344c7146106e7578063712c0cc91461071057806375f12b211461077b5780637a9e5e4b146107a85780637abccac9146107e15780637c3a00fd1461089b5780638a6bfa1a146108c45780638da5cb5b14610903578063959cab2f14610958578063b739b2ab14610981578063be291c4f146109aa578063be9a655514610a15578063bf7e214f14610a2a578063cf603e8814610a7f578063d12c7b1014610ab0578063d1a294c414610aeb578063d902522914610b2a578063dd6b27ec14610b77578063e19f86df14610bb6578063e486033914610bf5578063e5df8b8414610caf578063e842c77d14610d12578063ee8c24b814610d4d578063eeeaddef14610db7578063fa7fdeb714610df6575b600080fd5b341561022a57600080fd5b610232610e5d565b6040518082815260200191505060405180910390f35b341561025357600080fd5b61025b610e7f565b005b341561026857600080fd5b61027e6004808035906020019091905050610f81565b604051808215151515815260200191505060405180910390f35b34156102a357600080fd5b6102ab610fcc565b6040518082815260200191505060405180910390f35b34156102cc57600080fd5b6102d4610fd2565b6040518082815260200191505060405180910390f35b34156102f557600080fd5b610321600480803573ffffffffffffffffffffffffffffffffffffffff16906020019091905050610fd8565b005b341561032e57600080fd5b610363600480803573ffffffffffffffffffffffffffffffffffffffff169060200190919080359060200190919050506110ba565b005b341561037057600080fd5b6103866004808035906020019091905050611559565b604051808215151515815260200191505060405180910390f35b34156103ab57600080fd5b6103c160048080359060200190919050506115b4565b604051808215151515815260200191505060405180910390f35b34156103e657600080fd5b6104006004808035600019169060200190919050506115ff565b604051808773ffffffffffffffffffffffffffffffffffffffff1673ffffffffffffffffffffffffffffffffffffffff1681526020018660001916600019168152602001856000191660001916815260200184815260200183600181111561046457fe5b60ff168152602001828152602001965050505050505060405180910390f35b341561048e57600080fd5b6104a46004808035906020019091905050611667565b604051808215151515815260200191505060405180910390f35b34156104c957600080fd5b6104e36004808035600019169060200190919050506116b2565b604051808273ffffffffffffffffffffffffffffffffffffffff1673ffffffffffffffffffffffffffffffffffffffff16815260200191505060405180910390f35b341561053057600080fd5b6105386116e5565b6040518082815260200191505060405180910390f35b341561055957600080fd5b6105736004808035600019169060200190919050506116eb565b604051808215151515815260200191505060405180910390f35b341561059857600080fd5b6105a061170b565b6040518082815260200191505060405180910390f35b34156105c157600080fd5b6105c9611711565b6040518082815260200191505060405180910390f35b34156105ea57600080fd5b6105f2611717565b604051808215151515815260200191505060405180910390f35b341561061757600080fd5b610690600480803573ffffffffffffffffffffffffffffffffffffffff16906020019091908035600019169060200190919080356000191690602001909190803590602001909190803590602001909190803515159060200190919080351515906020019091908035151590602001909190505061172a565b005b341561069d57600080fd5b6106c9600480803573ffffffffffffffffffffffffffffffffffffffff16906020019091905050611b9d565b60405180826000191660001916815260200191505060405180910390f35b34156106f257600080fd5b6106fa611cbc565b6040518082815260200191505060405180910390f35b341561071b57600080fd5b6107616004808035600019169060200190919080606001906003806020026040519081016040528092919082600360200280828437820191505050505091905050611cde565b604051808215151515815260200191505060405180910390f35b341561078657600080fd5b61078e611efd565b604051808215151515815260200191505060405180910390f35b34156107b357600080fd5b6107df600480803573ffffffffffffffffffffffffffffffffffffffff16906020019091905050611f10565b005b34156107ec57600080fd5b610818600480803573ffffffffffffffffffffffffffffffffffffffff16906020019091905050611ff0565b604051808773ffffffffffffffffffffffffffffffffffffffff1673ffffffffffffffffffffffffffffffffffffffff1681526020018660001916600019168152602001856000191660001916815260200184815260200183600181111561087c57fe5b60ff168152602001828152602001965050505050505060405180910390f35b34156108a657600080fd5b6108ae61213d565b6040518082815260200191505060405180910390f35b34156108cf57600080fd5b6108e960048080356000191690602001909190505061215f565b604051808215151515815260200191505060405180910390f35b341561090e57600080fd5b610916612241565b604051808273ffffffffffffffffffffffffffffffffffffffff1673ffffffffffffffffffffffffffffffffffffffff16815260200191505060405180910390f35b341561096357600080fd5b61096b612267565b6040518082815260200191505060405180910390f35b341561098c57600080fd5b61099461226d565b6040518082815260200191505060405180910390f35b34156109b557600080fd5b6109fb6004808035600019169060200190919080606001906003806020026040519081016040528092919082600360200280828437820191505050505091905050612273565b604051808215151515815260200191505060405180910390f35b3415610a2057600080fd5b610a28612492565b005b3415610a3557600080fd5b610a3d612595565b604051808273ffffffffffffffffffffffffffffffffffffffff1673ffffffffffffffffffffffffffffffffffffffff16815260200191505060405180910390f35b3415610a8a57600080fd5b610a926125ba565b60405180826000191660001916815260200191505060405180910390f35b3415610abb57600080fd5b610ad56004808035600019169060200190919050506125c0565b6040518082815260200191505060405180910390f35b3415610af657600080fd5b610b1060048080356000191690602001909190505061271a565b604051808215151515815260200191505060405180910390f35b3415610b3557600080fd5b610b61600480803573ffffffffffffffffffffffffffffffffffffffff1690602001909190505061273a565b6040518082815260200191505060405180910390f35b3415610b8257600080fd5b610b9c600480803560001916906020019091905050612859565b604051808215151515815260200191505060405180910390f35b3415610bc157600080fd5b610bdb6004808035600019169060200190919050506128a8565b604051808215151515815260200191505060405180910390f35b3415610c0057600080fd5b610c2c600480803573ffffffffffffffffffffffffffffffffffffffff16906020019091905050612a15565b604051808773ffffffffffffffffffffffffffffffffffffffff1673ffffffffffffffffffffffffffffffffffffffff16815260200186600019166000191681526020018560001916600019168152602001848152602001836001811115610c9057fe5b60ff168152602001828152602001965050505050505060405180910390f35b3415610cba57600080fd5b610cd06004808035906020019091905050612a7e565b604051808273ffffffffffffffffffffffffffffffffffffffff1673ffffffffffffffffffffffffffffffffffffffff16815260200191505060405180910390f35b3415610d1d57600080fd5b610d336004808035906020019091905050612abd565b604051808215151515815260200191505060405180910390f35b3415610d5857600080fd5b610d60612b18565b6040518080602001828103825283818151815260200191508051906020019060200280838360005b83811015610da3578082015181840152602081019050610d88565b505050509050019250505060405180910390f35b3415610dc257600080fd5b610ddc600480803560001916906020019091905050612bac565b604051808215151515815260200191505060405180910390f35b3415610e0157600080fd5b610e1b600480803560001916906020019091905050612bcc565b604051808273ffffffffffffffffffffffffffffffffffffffff1673ffffffffffffffffffffffffffffffffffffffff16815260200191505060405180910390f35b6000610e7a610e6f6064600454612c11565b600354600a0a612c4d565b905090565b610ead336000357fffffffff0000000000000000000000000000000000000000000000000000000016612c91565b1515610eb857600080fd5b60008060043591506024359050806000191682600019163373ffffffffffffffffffffffffffffffffffffffff166000357fffffffff00000000000000000000000000000000000000000000000000000000167bffffffffffffffffffffffffffffffffffffffffffffffffffffffff19163460003660405180848152602001806020018281038252848482818152602001925080828437820191505094505050505060405180910390a460018060146101000a81548160ff0219169083151502179055505050565b6000610fb1336000357fffffffff0000000000000000000000000000000000000000000000000000000016612c91565b1515610fbc57600080fd5b8160098190555060019050919050565b60045481565b60095481565b611006336000357fffffffff0000000000000000000000000000000000000000000000000000000016612c91565b151561101157600080fd5b80600160006101000a81548173ffffffffffffffffffffffffffffffffffffffff021916908373ffffffffffffffffffffffffffffffffffffffff160217905550600160009054906101000a900473ffffffffffffffffffffffffffffffffffffffff1673ffffffffffffffffffffffffffffffffffffffff167fce241d7ca1f669fee44b6fc00b8eba2df3bb514eed0f6f668f8f89096e81ed9460405160405180910390a250565b6000826001808111156110c957fe5b600d60008373ffffffffffffffffffffffffffffffffffffffff1673ffffffffffffffffffffffffffffffffffffffff16815260200190815260200160002060040160009054906101000a900460ff16600181111561112457fe5b14151561113057600080fd5b600160149054906101000a900460ff1615151561114c57600080fd5b61117a336000357fffffffff0000000000000000000000000000000000000000000000000000000016612c91565b151561118557600080fd5b8373ffffffffffffffffffffffffffffffffffffffff166012848154811015156111ab57fe5b906000526020600020900160009054906101000a900473ffffffffffffffffffffffffffffffffffffffff1673ffffffffffffffffffffffffffffffffffffffff161415156111f957600080fd5b601260016012805490500381548110151561121057fe5b906000526020600020900160009054906101000a900473ffffffffffffffffffffffffffffffffffffffff1660128481548110151561124b57fe5b906000526020600020900160006101000a81548173ffffffffffffffffffffffffffffffffffffffff021916908373ffffffffffffffffffffffffffffffffffffffff16021790555060016012818180549050039150816112ac9190612f3c565b50600d60008573ffffffffffffffffffffffffffffffffffffffff1673ffffffffffffffffffffffffffffffffffffffff16815260200190815260200160002091508160000160009054906101000a900473ffffffffffffffffffffffffffffffffffffffff1673ffffffffffffffffffffffffffffffffffffffff167f7beca59326c8f30286f798d4f9b394e7c533cc36ea405f230771e8012689c1b18360010154846002015485600301548660040160009054906101000a900460ff16876005015460405180866000191660001916815260200185600019166000191681526020018481526020018360018111156113a257fe5b60ff168152602001828152602001807f746f6b656e2072656d6f766564000000000000000000000000000000000000008152506020019550505050505060405180910390a26011600083600201546000191660001916815260200190815260200160002060006101000a81549073ffffffffffffffffffffffffffffffffffffffff0219169055600e600083600201546000191660001916815260200190815260200160002060006101000a81549060ff0219169055600f600083600201546000191660001916815260200190815260200160002060006101000a81549060ff02191690556010600083600201546000191660001916815260200190815260200160002060006101000a81549060ff0219169055600d60008573ffffffffffffffffffffffffffffffffffffffff1673ffffffffffffffffffffffffffffffffffffffff168152602001908152602001600020600080820160006101000a81549073ffffffffffffffffffffffffffffffffffffffff02191690556001820160009055600282016000905560038201600090556004820160006101000a81549060ff02191690556005820160009055505050505050565b6000611589336000357fffffffff0000000000000000000000000000000000000000000000000000000016612c91565b151561159457600080fd5b606482111515156115a457600080fd5b8160058190555060019050919050565b60006115e4336000357fffffffff0000000000000000000000000000000000000000000000000000000016612c91565b15156115ef57600080fd5b8160088190555060019050919050565b600080600080600080600060116000896000191660001916815260200190815260200160002060009054906101000a900473ffffffffffffffffffffffffffffffffffffffff16905061165181611ff0565b9650965096509650965096505091939550919395565b6000611697336000357fffffffff0000000000000000000000000000000000000000000000000000000016612c91565b15156116a257600080fd5b8160068190555060019050919050565b60116020528060005260406000206000915054906101000a900473ffffffffffffffffffffffffffffffffffffffff1681565b60085481565b60106020528060005260406000206000915054906101000a900460ff1681565b60035481565b60025481565b600160159054906101000a900460ff1681565b8760018081111561173757fe5b600d60008373ffffffffffffffffffffffffffffffffffffffff1673ffffffffffffffffffffffffffffffffffffffff16815260200190815260200160002060040160009054906101000a900460ff16600181111561179257fe5b1415151561179f57600080fd5b88600073ffffffffffffffffffffffffffffffffffffffff168173ffffffffffffffffffffffffffffffffffffffff16141515156117dc57600080fd5b600160149054906101000a900460ff161515156117f857600080fd5b611826336000357fffffffff0000000000000000000000000000000000000000000000000000000016612c91565b151561183157600080fd5b60c0604051908101604052808b73ffffffffffffffffffffffffffffffffffffffff1681526020018a6000191681526020018960001916815260200188815260200160018081111561187f57fe5b815260200187815250600d60008c73ffffffffffffffffffffffffffffffffffffffff1673ffffffffffffffffffffffffffffffffffffffff16815260200190815260200160002060008201518160000160006101000a81548173ffffffffffffffffffffffffffffffffffffffff021916908373ffffffffffffffffffffffffffffffffffffffff16021790555060208201518160010190600019169055604082015181600201906000191690556060820151816003015560808201518160040160006101000a81548160ff0219169083600181111561195c57fe5b021790555060a08201518160050155905050601280548060010182816119829190612f68565b916000526020600020900160008c909190916101000a81548173ffffffffffffffffffffffffffffffffffffffff021916908373ffffffffffffffffffffffffffffffffffffffff1602179055505089601160008a6000191660001916815260200190815260200160002060006101000a81548173ffffffffffffffffffffffffffffffffffffffff021916908373ffffffffffffffffffffffffffffffffffffffff1602179055508415611a66576001600e60008a6000191660001916815260200190815260200160002060006101000a81548160ff0219169083151502179055505b8315611aa1576001600f60008a6000191660001916815260200190815260200160002060006101000a81548160ff0219169083151502179055505b8215611adc576001601060008a6000191660001916815260200190815260200160002060006101000a81548160ff0219169083151502179055505b8973ffffffffffffffffffffffffffffffffffffffff167f7beca59326c8f30286f798d4f9b394e7c533cc36ea405f230771e8012689c1b18a8a8a60018b6040518086600019166000191681526020018560001916600019168152602001848152602001836001811115611b4c57fe5b60ff168152602001828152602001807f746f6b656e2061646465640000000000000000000000000000000000000000008152506020019550505050505060405180910390a250505050505050505050565b6000611ba7612f94565b600d60008473ffffffffffffffffffffffffffffffffffffffff1673ffffffffffffffffffffffffffffffffffffffff16815260200190815260200160002060c060405190810160405290816000820160009054906101000a900473ffffffffffffffffffffffffffffffffffffffff1673ffffffffffffffffffffffffffffffffffffffff1673ffffffffffffffffffffffffffffffffffffffff168152602001600182015460001916600019168152602001600282015460001916600019168152602001600382015481526020016004820160009054906101000a900460ff166001811115611c9457fe5b6001811115611c9f57fe5b815260200160058201548152505090508060400151915050919050565b6000611cd9611cce6064600554612c11565b600354600a0a612c4d565b905090565b600082600180811115611ced57fe5b600d600060116000856000191660001916815260200190815260200160002060009054906101000a900473ffffffffffffffffffffffffffffffffffffffff1673ffffffffffffffffffffffffffffffffffffffff1673ffffffffffffffffffffffffffffffffffffffff16815260200190815260200160002060040160009054906101000a900460ff166001811115611d8357fe5b141515611d8f57600080fd5b600160149054906101000a900460ff16151515611dab57600080fd5b611dd9336000357fffffffff0000000000000000000000000000000000000000000000000000000016612c91565b1515611de457600080fd5b600a5460001916836000600381101515611dfa57fe5b6020020151600019161415611e3e576000600e6000866000191660001916815260200190815260200160002060006101000a81548160ff0219169083151502179055505b600b5460001916836001600381101515611e5457fe5b6020020151600019161415611e98576000600f6000866000191660001916815260200190815260200160002060006101000a81548160ff0219169083151502179055505b600c5460001916836002600381101515611eae57fe5b6020020151600019161415611ef257600060106000866000191660001916815260200190815260200160002060006101000a81548160ff0219169083151502179055505b600191505092915050565b600160149054906101000a900460ff1681565b611f3e336000357fffffffff0000000000000000000000000000000000000000000000000000000016612c91565b1515611f4957600080fd5b806000806101000a81548173ffffffffffffffffffffffffffffffffffffffff021916908373ffffffffffffffffffffffffffffffffffffffff1602179055506000809054906101000a900473ffffffffffffffffffffffffffffffffffffffff1673ffffffffffffffffffffffffffffffffffffffff167f1abebea81bfa2637f28358c371278fb15ede7ea8dd28d2e03b112ff6d936ada460405160405180910390a250565b600080600080600080612001612f94565b600d60008973ffffffffffffffffffffffffffffffffffffffff1673ffffffffffffffffffffffffffffffffffffffff16815260200190815260200160002060c060405190810160405290816000820160009054906101000a900473ffffffffffffffffffffffffffffffffffffffff1673ffffffffffffffffffffffffffffffffffffffff1673ffffffffffffffffffffffffffffffffffffffff168152602001600182015460001916600019168152602001600282015460001916600019168152602001600382015481526020016004820160009054906101000a900460ff1660018111156120ee57fe5b60018111156120f957fe5b81526020016005820154815250509050806000015181602001518260400151836060015184608001518560a001519650965096509650965096505091939550919395565b600061215a61214f6006546064612c11565b600354600a0a612c4d565b905090565b60008160018081111561216e57fe5b600d600060116000856000191660001916815260200190815260200160002060009054906101000a900473ffffffffffffffffffffffffffffffffffffffff1673ffffffffffffffffffffffffffffffffffffffff1673ffffffffffffffffffffffffffffffffffffffff16815260200190815260200160002060040160009054906101000a900460ff16600181111561220457fe5b14151561221057600080fd5b60106000846000191660001916815260200190815260200160002060009054906101000a900460ff16915050919050565b600160009054906101000a900473ffffffffffffffffffffffffffffffffffffffff1681565b60055481565b60065481565b60008260018081111561228257fe5b600d600060116000856000191660001916815260200190815260200160002060009054906101000a900473ffffffffffffffffffffffffffffffffffffffff1673ffffffffffffffffffffffffffffffffffffffff1673ffffffffffffffffffffffffffffffffffffffff16815260200190815260200160002060040160009054906101000a900460ff16600181111561231857fe5b14151561232457600080fd5b600160149054906101000a900460ff1615151561234057600080fd5b61236e336000357fffffffff0000000000000000000000000000000000000000000000000000000016612c91565b151561237957600080fd5b600a546000191683600060038110151561238f57fe5b60200201516000191614156123d3576001600e6000866000191660001916815260200190815260200160002060006101000a81548160ff0219169083151502179055505b600b54600019168360016003811015156123e957fe5b602002015160001916141561242d576001600f6000866000191660001916815260200190815260200160002060006101000a81548160ff0219169083151502179055505b600c546000191683600260038110151561244357fe5b602002015160001916141561248757600160106000866000191660001916815260200190815260200160002060006101000a81548160ff0219169083151502179055505b600191505092915050565b6124c0336000357fffffffff0000000000000000000000000000000000000000000000000000000016612c91565b15156124cb57600080fd5b60008060043591506024359050806000191682600019163373ffffffffffffffffffffffffffffffffffffffff166000357fffffffff00000000000000000000000000000000000000000000000000000000167bffffffffffffffffffffffffffffffffffffffffffffffffffffffff19163460003660405180848152602001806020018281038252848482818152602001925080828437820191505094505050505060405180910390a46000600160146101000a81548160ff0219169083151502179055505050565b6000809054906101000a900473ffffffffffffffffffffffffffffffffffffffff1681565b60075481565b60006125ca612f94565b600d600060116000866000191660001916815260200190815260200160002060009054906101000a900473ffffffffffffffffffffffffffffffffffffffff1673ffffffffffffffffffffffffffffffffffffffff1673ffffffffffffffffffffffffffffffffffffffff16815260200190815260200160002060c060405190810160405290816000820160009054906101000a900473ffffffffffffffffffffffffffffffffffffffff1673ffffffffffffffffffffffffffffffffffffffff1673ffffffffffffffffffffffffffffffffffffffff168152602001600182015460001916600019168152602001600282015460001916600019168152602001600382015481526020016004820160009054906101000a900460ff1660018111156126f257fe5b60018111156126fd57fe5b815260200160058201548152505090508060600151915050919050565b600f6020528060005260406000206000915054906101000a900460ff1681565b6000612744612f94565b600d60008473ffffffffffffffffffffffffffffffffffffffff1673ffffffffffffffffffffffffffffffffffffffff16815260200190815260200160002060c060405190810160405290816000820160009054906101000a900473ffffffffffffffffffffffffffffffffffffffff1673ffffffffffffffffffffffffffffffffffffffff1673ffffffffffffffffffffffffffffffffffffffff168152602001600182015460001916600019168152602001600282015460001916600019168152602001600382015481526020016004820160009054906101000a900460ff16600181111561283157fe5b600181111561283c57fe5b815260200160058201548152505090508060600151915050919050565b6000612889336000357fffffffff0000000000000000000000000000000000000000000000000000000016612c91565b151561289457600080fd5b816007816000191690555060019050919050565b6000816001808111156128b757fe5b600d600060116000856000191660001916815260200190815260200160002060009054906101000a900473ffffffffffffffffffffffffffffffffffffffff1673ffffffffffffffffffffffffffffffffffffffff1673ffffffffffffffffffffffffffffffffffffffff16815260200190815260200160002060040160009054906101000a900460ff16600181111561294d57fe5b14151561295957600080fd5b60018081111561296557fe5b600d600060116000876000191660001916815260200190815260200160002060009054906101000a900473ffffffffffffffffffffffffffffffffffffffff1673ffffffffffffffffffffffffffffffffffffffff1673ffffffffffffffffffffffffffffffffffffffff16815260200190815260200160002060040160009054906101000a900460ff1660018111156129fb57fe5b1415612a0a5760019150612a0f565b600091505b50919050565b600d6020528060005260406000206000915090508060000160009054906101000a900473ffffffffffffffffffffffffffffffffffffffff16908060010154908060020154908060030154908060040160009054906101000a900460ff16908060050154905086565b601281815481101515612a8d57fe5b90600052602060002090016000915054906101000a900473ffffffffffffffffffffffffffffffffffffffff1681565b6000612aed336000357fffffffff0000000000000000000000000000000000000000000000000000000016612c91565b1515612af857600080fd5b60648211151515612b0857600080fd5b8160048190555060019050919050565b612b20612ff2565b6012805480602002602001604051908101604052809291908181526020018280548015612ba257602002820191906000526020600020905b8160009054906101000a900473ffffffffffffffffffffffffffffffffffffffff1673ffffffffffffffffffffffffffffffffffffffff1681526020019060010190808311612b58575b5050505050905090565b600e6020528060005260406000206000915054906101000a900460ff1681565b600060116000836000191660001916815260200190815260200160002060009054906101000a900473ffffffffffffffffffffffffffffffffffffffff169050919050565b600081612c3b612c2985670de0b6b3a7640000612ef0565b600285811515612c3557fe5b04612f20565b811515612c4457fe5b04905092915050565b6000670de0b6b3a7640000612c7f612c658585612ef0565b6002670de0b6b3a7640000811515612c7957fe5b04612f20565b811515612c8857fe5b04905092915050565b60003073ffffffffffffffffffffffffffffffffffffffff168373ffffffffffffffffffffffffffffffffffffffff161415612cd05760019050612eea565b600160009054906101000a900473ffffffffffffffffffffffffffffffffffffffff1673ffffffffffffffffffffffffffffffffffffffff168373ffffffffffffffffffffffffffffffffffffffff161415612d2f5760019050612eea565b600073ffffffffffffffffffffffffffffffffffffffff166000809054906101000a900473ffffffffffffffffffffffffffffffffffffffff1673ffffffffffffffffffffffffffffffffffffffff161415612d8e5760009050612eea565b6000809054906101000a900473ffffffffffffffffffffffffffffffffffffffff1673ffffffffffffffffffffffffffffffffffffffff1663b70096138430856000604051602001526040518463ffffffff167c0100000000000000000000000000000000000000000000000000000000028152600401808473ffffffffffffffffffffffffffffffffffffffff1673ffffffffffffffffffffffffffffffffffffffff1681526020018373ffffffffffffffffffffffffffffffffffffffff1673ffffffffffffffffffffffffffffffffffffffff168152602001827bffffffffffffffffffffffffffffffffffffffffffffffffffffffff19167bffffffffffffffffffffffffffffffffffffffffffffffffffffffff191681526020019350505050602060405180830381600087803b1515612ecc57600080fd5b6102c65a03f11515612edd57600080fd5b5050506040518051905090505b92915050565b600080821480612f0f57508282838502925082811515612f0c57fe5b04145b1515612f1a57600080fd5b92915050565b60008282840191508110151515612f3657600080fd5b92915050565b815481835581811511612f6357818360005260206000209182019101612f629190613006565b5b505050565b815481835581811511612f8f57818360005260206000209182019101612f8e9190613006565b5b505050565b60c060405190810160405280600073ffffffffffffffffffffffffffffffffffffffff16815260200160008019168152602001600080191681526020016000815260200160006001811115612fe557fe5b8152602001600081525090565b602060405190810160405280600081525090565b61302891905b8082111561302457600081600090555060010161300c565b5090565b905600a165627a7a72305820d88b799c8050fa82d470a21413e125f7e87c45034ccdc9999c094d8cc1c1c7c30029",
  "source": "pragma solidity 0.4.18;\r\n\r\nimport \"./math.sol\";\r\nimport \"./stop.sol\";\r\n\r\n// FOR DEMO\r\n\r\ncontract NetworkParameters is DSMath, DSStop {\r\n    bool public tradingAllowed;\r\n    uint public maximumAllowedMarginAccounts;\r\n    uint public decimals;\r\n    uint public initialMarginPercentage;\r\n    uint public liquidationMarginPercentage;\r\n    \r\n    uint public interestRatePercentage;\r\n    bytes32 public interestRateInterval;\r\n    uint public maxLoanPeriodDays;\r\n    uint public gracePeriodDays;\r\n    \r\n    bytes32 internal TOKEN_TYPE_LENDING = \"lending\";\r\n    bytes32 internal TOKEN_TYPE_COLLATERAL = \"collateral\";\r\n    bytes32 internal TOKEN_TYPE_TRADING = \"trading\";\r\n    \r\n    mapping (address => TokenMetadata) public tokens;\r\n    mapping (bytes32 => bool) public lendingTokens;\r\n    mapping (bytes32 => bool) public collateralTokens;\r\n    mapping (bytes32 => bool) public tradingTokens;\r\n    mapping (bytes32 => address) public tokenBySymbol;\r\n\r\n    address[] public tokenAddresses;\r\n    \r\n    // Token Registry\r\n    event LogTokenUpdated(\r\n        address indexed token,\r\n        bytes32 name,\r\n        bytes32 symbol,\r\n        uint decimals,\r\n        Status status,\r\n        uint value,\r\n        bytes32 action\r\n    );\r\n    \r\n    enum Status {\r\n        INACTIVE, // Set to inactive when a token is deactivated\r\n        ACTIVE    // Default status when a new token is added\r\n    }\r\n\r\n    struct TokenMetadata {\r\n        address token;\r\n        bytes32 name;\r\n        bytes32 symbol;\r\n        uint decimals;\r\n        Status status;\r\n        uint value;\r\n    }\r\n\r\n    modifier tokenExists(address _token) {\r\n        require(tokens[_token].status == Status.ACTIVE);\r\n        _;\r\n    }\r\n\r\n    modifier tokenDoesNotExist(address _token) {\r\n        require(tokens[_token].status != Status.ACTIVE);\r\n        _;\r\n    }\r\n\r\n    modifier symbolExists(bytes32 _symbol) {\r\n        require(tokens[tokenBySymbol[_symbol]].status == Status.ACTIVE);\r\n        _;\r\n    }\r\n\r\n    modifier addressNotNull(address _address) {\r\n        require(_address != address(0));\r\n        _;\r\n    }\r\n\r\n    function NetworkParameters() public {\r\n        \r\n        tradingAllowed = true;\r\n        maximumAllowedMarginAccounts = 50;\r\n        decimals = 18;\r\n        initialMarginPercentage = 40;// 1 / 40% = 2.5 times collateral\r\n        liquidationMarginPercentage = 20;// 1 / 20% = 5 times collateral\r\n        \r\n        interestRatePercentage = 10;\r\n        interestRateInterval = \"day\";\r\n        maxLoanPeriodDays = 30 days;\r\n        gracePeriodDays = 100 days;\r\n    }\r\n\r\n    function isValidSymbol(bytes32 _symbol)\r\n        public\r\n        constant\r\n        symbolExists(_symbol)\r\n        returns (bool)\r\n    {\r\n        if (tokens[tokenBySymbol[_symbol]].status == Status.ACTIVE) {\r\n            return true;\r\n        }\r\n        else {\r\n            return false;\r\n        }\r\n    }\r\n\r\n    function isValidTradingSymbol(bytes32 _symbol)\r\n        public\r\n        constant\r\n        symbolExists(_symbol)\r\n        returns (bool)\r\n    {\r\n        return tradingTokens[_symbol];\r\n    }\r\n\r\n    /// @dev Allows owner to add a new token to the registry.\r\n    /// @param _token Address of new token.\r\n    /// @param _name Name of new token.\r\n    /// @param _symbol Symbol for new token.\r\n    /// @param _decimals Number of decimals, divisibility of new token.\r\n    function addToken(\r\n            address _token,\r\n            bytes32 _name,\r\n            bytes32 _symbol,\r\n            uint _decimals,\r\n            uint _value,\r\n            bool isLendingToken,\r\n            bool isCollateralToken,\r\n            bool isTradingToken\r\n        )\r\n        public\r\n        tokenDoesNotExist(_token)\r\n        addressNotNull(_token)\r\n        stoppable\r\n        auth\r\n    {\r\n        tokens[_token] = TokenMetadata({\r\n            token: _token,\r\n            name: _name,\r\n            symbol: _symbol,\r\n            decimals: _decimals,\r\n            status: Status.ACTIVE,\r\n            value: _value\r\n        });\r\n        tokenAddresses.push(_token);\r\n        tokenBySymbol[_symbol] = _token;\r\n        \r\n        if (isLendingToken) {\r\n            lendingTokens[_symbol] = true;\r\n        }\r\n        if (isCollateralToken) {\r\n            collateralTokens[_symbol] = true;\r\n        }\r\n        if (isTradingToken) {\r\n            tradingTokens[_symbol] = true;\r\n        }\r\n        LogTokenUpdated(\r\n            _token,\r\n            _name,\r\n            _symbol,\r\n            _decimals,\r\n            Status.ACTIVE,\r\n            _value,\r\n            \"token added\"\r\n        );\r\n    }\r\n\r\n    function addSupport(\r\n            bytes32 _symbol,\r\n            bytes32[3] _tokenTypes\r\n        )\r\n        public\r\n        symbolExists(_symbol) \r\n        stoppable\r\n        auth\r\n        returns (bool)\r\n    {\r\n        if (_tokenTypes[0] == TOKEN_TYPE_LENDING) {\r\n            lendingTokens[_symbol] = true;\r\n        }\r\n        if (_tokenTypes[1] == TOKEN_TYPE_COLLATERAL) {\r\n            collateralTokens[_symbol] = true;\r\n        }\r\n        if (_tokenTypes[2] == TOKEN_TYPE_TRADING) {\r\n            tradingTokens[_symbol] = true;\r\n        }\r\n        return true;\r\n    }\r\n\r\n    function removeSupport(\r\n            bytes32 _symbol,\r\n            bytes32[3] _tokenTypes\r\n        )\r\n        public\r\n        symbolExists(_symbol) \r\n        stoppable\r\n        auth\r\n        returns (bool)\r\n    {\r\n        if (_tokenTypes[0] == TOKEN_TYPE_LENDING) {\r\n            lendingTokens[_symbol] = false;\r\n        }\r\n        if (_tokenTypes[1] == TOKEN_TYPE_COLLATERAL) {\r\n            collateralTokens[_symbol] = false;\r\n        }\r\n        if (_tokenTypes[2] == TOKEN_TYPE_TRADING) {\r\n            tradingTokens[_symbol] = false;\r\n        }\r\n        return true;\r\n    }\r\n\r\n    /// @dev Allows owner to remove an existing token from the registry.\r\n    /// @param _token Address of existing token.\r\n    function removeToken(\r\n            address _token,\r\n            uint _index\r\n        )\r\n        public\r\n        tokenExists(_token)\r\n        stoppable\r\n        auth\r\n    {\r\n        require(tokenAddresses[_index] == _token);\r\n\r\n        tokenAddresses[_index] = tokenAddresses[tokenAddresses.length - 1];\r\n        tokenAddresses.length -= 1;\r\n\r\n        TokenMetadata storage token = tokens[_token];\r\n        \r\n        LogTokenUpdated(\r\n            token.token,\r\n            token.name,\r\n            token.symbol,\r\n            token.decimals,\r\n            token.status,\r\n            token.value,\r\n            \"token removed\"\r\n        );\r\n        delete tokenBySymbol[token.symbol];\r\n        delete lendingTokens[token.symbol];\r\n        delete collateralTokens[token.symbol];\r\n        delete tradingTokens[token.symbol];\r\n        delete tokens[_token];\r\n        \r\n    }\r\n\r\n    /// @dev Provides a registered token's metadata, looked up by address.\r\n    /// @param _token Address of registered token.\r\n    /// @return Token metadata.\r\n    function getTokenMetaData(address _token)\r\n        public\r\n        constant\r\n        returns (\r\n            address, //tokenAddress\r\n            bytes32, //name\r\n            bytes32, //symbol\r\n            uint,    //decimals\r\n            Status,  //status\r\n            uint     //value\r\n        )\r\n    {\r\n        TokenMetadata memory token = tokens[_token];\r\n        return (\r\n            token.token,\r\n            token.name,\r\n            token.symbol,\r\n            token.decimals,\r\n            token.status,\r\n            token.value\r\n        );\r\n    }\r\n\r\n    /// @dev Provides a registered token's metadata, looked up by symbol.\r\n    /// @param _symbol Symbol of registered token.\r\n    /// @return Token metadata.\r\n    function getTokenBySymbol(bytes32 _symbol)\r\n        public\r\n        constant\r\n        returns (\r\n            address, //tokenAddress\r\n            bytes32, //name\r\n            bytes32, //symbol\r\n            uint,    //decimals\r\n            Status,  //status\r\n            uint     //value\r\n            )\r\n    {\r\n        address _token = tokenBySymbol[_symbol];\r\n        return getTokenMetaData(_token);\r\n    }\r\n\r\n    /// @dev Provides a registered token's decimals, looked up by address.\r\n    /// @param _address Address of registered token.\r\n    /// @return Token decimals.\r\n    function getTokenDecimalsByAddress(address _address)\r\n        public\r\n        constant\r\n        returns (uint)\r\n    {\r\n        TokenMetadata memory token = tokens[_address];\r\n        return token.decimals;\r\n    }\r\n\r\n    /// @dev Provides a registered token's decimals, looked up by symbol.\r\n    /// @param _symbol Symbol of registered token.\r\n    /// @return Token decimals.\r\n    function getTokenDecimalsBySymbol(bytes32 _symbol)\r\n        public\r\n        constant\r\n        returns (uint)\r\n    {\r\n        TokenMetadata memory token = tokens[tokenBySymbol[_symbol]];\r\n        return token.decimals;\r\n    }\r\n\r\n    /// @dev Provides a registered token's address, looked up by symbol.\r\n    /// Useful when called by an external contract\r\n    /// @param _symbol Symbol of registered token.\r\n    /// @return Token address.\r\n    function getTokenAddressBySymbol(bytes32 _symbol)\r\n        public\r\n        constant\r\n        returns (address)\r\n    {\r\n        return tokenBySymbol[_symbol];\r\n    }\r\n\r\n\r\n    /// @dev Provides a registered token's symbol, looked up by address.\r\n    /// @param _address Address of registered token.\r\n    /// @return Token symbol.\r\n    function getTokenSymbolByAddress(address _address)\r\n        public\r\n        constant\r\n        returns (bytes32)\r\n    {\r\n        TokenMetadata memory token = tokens[_address];\r\n        return token.symbol;\r\n    }\r\n\r\n    /// @dev Returns an array containing all token addresses.\r\n    /// @return Array of token addresses.\r\n    function getTokenAddresses()\r\n        public\r\n        constant\r\n        returns (address[])\r\n    {\r\n        return tokenAddresses;\r\n    }\r\n\r\n    function initialMarginLevel()\r\n        public\r\n        constant\r\n        returns (uint)\r\n    {\r\n        return wmul(wdiv(100, initialMarginPercentage), 10 ** decimals);\r\n    }\r\n\r\n    function liquidationMarginLevel()\r\n        public\r\n        constant\r\n        returns (uint)\r\n    {\r\n        return wmul(wdiv(100, liquidationMarginPercentage), 10 ** decimals);\r\n    }\r\n\r\n    function interestRate()\r\n        public\r\n        constant\r\n        returns (uint)\r\n    {\r\n        return wmul(wdiv(interestRatePercentage, 100), 10 ** decimals);\r\n    }\r\n\r\n    /**\r\n        @notice allows the current owner to change the interestRateInterval.\r\n        @param _i bytes32 value as the interestRateInterval\r\n        @return true an acknowledgement that the interestRateInterval was set by the owner\r\n    */\r\n    function setInterestRateInterval(bytes32 _i) public auth returns (bool) {\r\n        interestRateInterval = _i;\r\n        return true;\r\n    }\r\n\r\n    /**\r\n        @notice allows the current owner to change the interestRatePercentage.\r\n        @param _i integer value as the interestRatePercentage\r\n        @return true an acknowledgement that the interestRatePercentage was set by the owner\r\n    */\r\n    function setInterestRatePercentage(uint _i) public auth returns (bool) {\r\n        interestRatePercentage = _i;\r\n        return true;\r\n    }\r\n\r\n    /**\r\n        @notice allows the current owner to change the daily interest rate.\r\n        @param _d integer value as the daily interest rate\r\n        @return true an acknowledgement that the daily interest rate was set by the owner\r\n    */\r\n    function setMaxLoanPeriodDays(uint _d) public auth returns (bool) {\r\n        maxLoanPeriodDays = _d;\r\n        return true;\r\n    }\r\n\r\n    /**\r\n        @notice allows the current owner to change the grace period.\r\n        @param _d integer value as the grace period\r\n        @return true an acknowledgement that the grace period was set by the owner\r\n    */\r\n    function setGracePeriodDays(uint _d) public auth returns (bool) {\r\n        gracePeriodDays = _d;\r\n        return true;\r\n    }\r\n\r\n    /**\r\n        @notice allows the current owner to change the initialMarginPercentage.\r\n        @param _percentage integer value as the initialMarginPercentage\r\n        @return true an acknowledgement that the initialMarginPercentage was set by the owner\r\n    */\r\n    function setInitialMarginPercentage(uint _percentage) public auth returns (bool) {\r\n        require(_percentage <= 100);\r\n        initialMarginPercentage = _percentage;\r\n        return true;\r\n    }\r\n\r\n    /**\r\n        @notice allows the current owner to change the liquidationMarginPercentage.\r\n        @param _percentage integer value as the liquidationMarginPercentage\r\n        @return true an acknowledgement that the liquidationMarginPercentage was set by the owner\r\n    */\r\n    function setLiquidationMarginPercentage(uint _percentage) public auth returns (bool) {\r\n        require(_percentage <= 100);\r\n        liquidationMarginPercentage = _percentage;\r\n        return true;\r\n    }\r\n}",
  "sourcePath": "C:\\work\\programming\\ethereum\\lendroid\\protocol-demo\\contracts\\NetworkParameters.sol",
  "compiler": {
    "name": "solc",
    "version": "0.4.18+commit.9cf6e910.Emscripten.clang"
  },
  "schemaVersion": "1.0.1",
  "updatedAt": "2017-11-12T15:12:16.710Z"
}