{
  "contractName": "NetworkParameters",
  "abi": [
    {
      "constant": false,
      "inputs": [
        {
          "name": "_type",
          "type": "bytes32"
        },
        {
          "name": "_token",
          "type": "address"
        },
        {
          "name": "_index",
          "type": "uint256"
        }
      ],
      "name": "removeToken",
      "outputs": [],
      "payable": false,
      "stateMutability": "nonpayable",
      "type": "function"
    },
    {
      "constant": true,
      "inputs": [],
      "name": "initialMargin",
      "outputs": [
        {
          "name": "",
          "type": "uint256"
        }
      ],
      "payable": false,
      "stateMutability": "view",
      "type": "function"
    },
    {
      "constant": true,
      "inputs": [
        {
          "name": "_address",
          "type": "address"
        },
        {
          "name": "_type",
          "type": "bytes32"
        }
      ],
      "name": "getTokenDecimalsByAddress",
      "outputs": [
        {
          "name": "",
          "type": "uint256"
        }
      ],
      "payable": false,
      "stateMutability": "view",
      "type": "function"
    },
    {
      "constant": true,
      "inputs": [
        {
          "name": "_symbol",
          "type": "bytes32"
        },
        {
          "name": "_type",
          "type": "bytes32"
        }
      ],
      "name": "getTokenBySymbol",
      "outputs": [
        {
          "name": "",
          "type": "address"
        },
        {
          "name": "",
          "type": "bytes32"
        },
        {
          "name": "",
          "type": "bytes32"
        },
        {
          "name": "",
          "type": "uint256"
        },
        {
          "name": "",
          "type": "uint8"
        },
        {
          "name": "",
          "type": "uint256"
        }
      ],
      "payable": false,
      "stateMutability": "view",
      "type": "function"
    },
    {
      "constant": true,
      "inputs": [],
      "name": "liquidationMargin",
      "outputs": [
        {
          "name": "",
          "type": "uint256"
        }
      ],
      "payable": false,
      "stateMutability": "view",
      "type": "function"
    },
    {
      "constant": true,
      "inputs": [],
      "name": "decimals",
      "outputs": [
        {
          "name": "",
          "type": "uint256"
        }
      ],
      "payable": false,
      "stateMutability": "view",
      "type": "function"
    },
    {
      "constant": true,
      "inputs": [],
      "name": "maximumAllowedMarginAccounts",
      "outputs": [
        {
          "name": "",
          "type": "uint256"
        }
      ],
      "payable": false,
      "stateMutability": "view",
      "type": "function"
    },
    {
      "constant": true,
      "inputs": [],
      "name": "tradingAllowed",
      "outputs": [
        {
          "name": "",
          "type": "bool"
        }
      ],
      "payable": false,
      "stateMutability": "view",
      "type": "function"
    },
    {
      "constant": true,
      "inputs": [
        {
          "name": "",
          "type": "bytes32"
        },
        {
          "name": "",
          "type": "address"
        }
      ],
      "name": "tokens",
      "outputs": [
        {
          "name": "token",
          "type": "address"
        },
        {
          "name": "name",
          "type": "bytes32"
        },
        {
          "name": "symbol",
          "type": "bytes32"
        },
        {
          "name": "decimals",
          "type": "uint256"
        },
        {
          "name": "status",
          "type": "uint8"
        },
        {
          "name": "value",
          "type": "uint256"
        }
      ],
      "payable": false,
      "stateMutability": "view",
      "type": "function"
    },
    {
      "constant": true,
      "inputs": [],
      "name": "owner",
      "outputs": [
        {
          "name": "",
          "type": "address"
        }
      ],
      "payable": false,
      "stateMutability": "view",
      "type": "function"
    },
    {
      "constant": true,
      "inputs": [
        {
          "name": "_token",
          "type": "address"
        },
        {
          "name": "_type",
          "type": "bytes32"
        }
      ],
      "name": "getTokenMetaData",
      "outputs": [
        {
          "name": "",
          "type": "address"
        },
        {
          "name": "",
          "type": "bytes32"
        },
        {
          "name": "",
          "type": "bytes32"
        },
        {
          "name": "",
          "type": "uint256"
        },
        {
          "name": "",
          "type": "uint8"
        },
        {
          "name": "",
          "type": "uint256"
        }
      ],
      "payable": false,
      "stateMutability": "view",
      "type": "function"
    },
    {
      "constant": false,
      "inputs": [
        {
          "name": "_token",
          "type": "address"
        },
        {
          "name": "_name",
          "type": "bytes32"
        },
        {
          "name": "_symbol",
          "type": "bytes32"
        },
        {
          "name": "_decimals",
          "type": "uint256"
        },
        {
          "name": "_value",
          "type": "uint256"
        },
        {
          "name": "_type",
          "type": "bytes32"
        }
      ],
      "name": "addToken",
      "outputs": [],
      "payable": false,
      "stateMutability": "nonpayable",
      "type": "function"
    },
    {
      "constant": true,
      "inputs": [
        {
          "name": "",
          "type": "uint256"
        }
      ],
      "name": "tokenAddresses",
      "outputs": [
        {
          "name": "",
          "type": "address"
        }
      ],
      "payable": false,
      "stateMutability": "view",
      "type": "function"
    },
    {
      "constant": true,
      "inputs": [
        {
          "name": "_symbol",
          "type": "bytes32"
        },
        {
          "name": "_type",
          "type": "bytes32"
        }
      ],
      "name": "isValidSymbol",
      "outputs": [
        {
          "name": "",
          "type": "bool"
        }
      ],
      "payable": false,
      "stateMutability": "view",
      "type": "function"
    },
    {
      "constant": true,
      "inputs": [],
      "name": "getTokenAddresses",
      "outputs": [
        {
          "name": "",
          "type": "address[]"
        }
      ],
      "payable": false,
      "stateMutability": "view",
      "type": "function"
    },
    {
      "constant": false,
      "inputs": [
        {
          "name": "newOwner",
          "type": "address"
        }
      ],
      "name": "transferOwnership",
      "outputs": [],
      "payable": false,
      "stateMutability": "nonpayable",
      "type": "function"
    },
    {
      "inputs": [],
      "payable": false,
      "stateMutability": "nonpayable",
      "type": "constructor"
    },
    {
      "anonymous": false,
      "inputs": [
        {
          "indexed": true,
          "name": "token",
          "type": "address"
        },
        {
          "indexed": false,
          "name": "name",
          "type": "bytes32"
        },
        {
          "indexed": false,
          "name": "symbol",
          "type": "bytes32"
        },
        {
          "indexed": false,
          "name": "decimals",
          "type": "uint256"
        },
        {
          "indexed": false,
          "name": "status",
          "type": "uint8"
        },
        {
          "indexed": false,
          "name": "value",
          "type": "uint256"
        },
        {
          "indexed": false,
          "name": "tokenType",
          "type": "bytes32"
        },
        {
          "indexed": false,
          "name": "action",
          "type": "bytes32"
        }
      ],
      "name": "LogTokenUpdated",
      "type": "event"
    }
  ],
  "bytecode": "0x60606040527f6c656e64696e67000000000000000000000000000000000000000000000000006005906000191690557f636f6c6c61746572616c000000000000000000000000000000000000000000006006906000191690557f74726164696e6700000000000000000000000000000000000000000000000000600790600019169055341561008d57600080fd5b336000806101000a81548173ffffffffffffffffffffffffffffffffffffffff021916908373ffffffffffffffffffffffffffffffffffffffff1602179055506001600060146101000a81548160ff02191690831515021790555060326001819055506004600281905550610fa06003819055506107d0600481905550611897806101196000396000f3006060604052600436106100e6576000357c0100000000000000000000000000000000000000000000000000000000900463ffffffff1680630e227be3146100eb5780631029e85b1461013a57806313b776c5146101635780631a6db903146101bd5780632262697e14610272578063313ce5671461029b57806352e9e10f146102c457806353371be0146102ed5780637cd046881461031a5780638da5cb5b146103e1578063911e7eb814610436578063d7c90108146104fd578063e5df8b841461056f578063ec5dd3b2146105d2578063ee8c24b81461061e578063f2fde38b14610688575b600080fd5b34156100f657600080fd5b61013860048080356000191690602001909190803573ffffffffffffffffffffffffffffffffffffffff169060200190919080359060200190919050506106c1565b005b341561014557600080fd5b61014d610bc7565b6040518082815260200191505060405180910390f35b341561016e57600080fd5b6101a7600480803573ffffffffffffffffffffffffffffffffffffffff1690602001909190803560001916906020019091905050610bcd565b6040518082815260200191505060405180910390f35b34156101c857600080fd5b6101ef60048080356000191690602001909190803560001916906020019091905050610d06565b604051808773ffffffffffffffffffffffffffffffffffffffff1673ffffffffffffffffffffffffffffffffffffffff1681526020018660001916600019168152602001856000191660001916815260200184815260200183600181111561025357fe5b60ff168152602001828152602001965050505050505060405180910390f35b341561027d57600080fd5b610285610d70565b6040518082815260200191505060405180910390f35b34156102a657600080fd5b6102ae610d76565b6040518082815260200191505060405180910390f35b34156102cf57600080fd5b6102d7610d7c565b6040518082815260200191505060405180910390f35b34156102f857600080fd5b610300610d82565b604051808215151515815260200191505060405180910390f35b341561032557600080fd5b61035e60048080356000191690602001909190803573ffffffffffffffffffffffffffffffffffffffff16906020019091905050610d95565b604051808773ffffffffffffffffffffffffffffffffffffffff1673ffffffffffffffffffffffffffffffffffffffff168152602001866000191660001916815260200185600019166000191681526020018481526020018360018111156103c257fe5b60ff168152602001828152602001965050505050505060405180910390f35b34156103ec57600080fd5b6103f4610e0b565b604051808273ffffffffffffffffffffffffffffffffffffffff1673ffffffffffffffffffffffffffffffffffffffff16815260200191505060405180910390f35b341561044157600080fd5b61047a600480803573ffffffffffffffffffffffffffffffffffffffff1690602001909190803560001916906020019091905050610e30565b604051808773ffffffffffffffffffffffffffffffffffffffff1673ffffffffffffffffffffffffffffffffffffffff168152602001866000191660001916815260200185600019166000191681526020018481526020018360018111156104de57fe5b60ff168152602001828152602001965050505050505060405180910390f35b341561050857600080fd5b61056d600480803573ffffffffffffffffffffffffffffffffffffffff16906020019091908035600019169060200190919080356000191690602001909190803590602001909190803590602001909190803560001916906020019091905050610f97565b005b341561057a57600080fd5b6105906004808035906020019091905050611432565b604051808273ffffffffffffffffffffffffffffffffffffffff1673ffffffffffffffffffffffffffffffffffffffff16815260200191505060405180910390f35b34156105dd57600080fd5b61060460048080356000191690602001909190803560001916906020019091905050611471565b604051808215151515815260200191505060405180910390f35b341561062957600080fd5b610631611613565b6040518080602001828103825283818151815260200191508051906020019060200280838360005b83811015610674578082015181840152602081019050610659565b505050509050019250505060405180910390f35b341561069357600080fd5b6106bf600480803573ffffffffffffffffffffffffffffffffffffffff169060200190919050506116a7565b005b6000806000809054906101000a900473ffffffffffffffffffffffffffffffffffffffff1673ffffffffffffffffffffffffffffffffffffffff163373ffffffffffffffffffffffffffffffffffffffff1614151561071f57600080fd5b838560018081111561072d57fe5b60086000836000191660001916815260200190815260200160002060008473ffffffffffffffffffffffffffffffffffffffff1673ffffffffffffffffffffffffffffffffffffffff16815260200190815260200160002060040160009054906101000a900460ff1660018111156107a157fe5b1415156107ad57600080fd5b8573ffffffffffffffffffffffffffffffffffffffff16600a868154811015156107d357fe5b906000526020600020900160009054906101000a900473ffffffffffffffffffffffffffffffffffffffff1673ffffffffffffffffffffffffffffffffffffffff1614151561082157600080fd5b600a6001600a805490500381548110151561083857fe5b906000526020600020900160009054906101000a900473ffffffffffffffffffffffffffffffffffffffff16600a8681548110151561087357fe5b906000526020600020900160006101000a81548173ffffffffffffffffffffffffffffffffffffffff021916908373ffffffffffffffffffffffffffffffffffffffff1602179055506001600a818180549050039150816108d4919061177c565b5060086000886000191660001916815260200190815260200160002060008773ffffffffffffffffffffffffffffffffffffffff1673ffffffffffffffffffffffffffffffffffffffff1681526020019081526020016000209350600092506005546000191687600019161415610969577f6c656e64696e6720746f6b656e2072656d6f766564000000000000000000000092505b600654600019168760001916141561099f577f636f6c6c61746572616c20746f6b656e2072656d6f766564000000000000000092505b60075460001916876000191614156109d5577f74726164696e6720746f6b656e2072656d6f766564000000000000000000000092505b8360000160009054906101000a900473ffffffffffffffffffffffffffffffffffffffff1673ffffffffffffffffffffffffffffffffffffffff167f7e9e1acf0747d9d966fae39d2fb1d8a2b4aa1da07814d429430d576841eeb44c8560010154866002015487600301548860040160009054906101000a900460ff1689600501548d8a6040518088600019166000191681526020018760001916600019168152602001868152602001856001811115610a8b57fe5b60ff1681526020018481526020018360001916600019168152602001826000191660001916815260200197505050505050505060405180910390a26009600085600201546000191660001916815260200190815260200160002060006101000a81549073ffffffffffffffffffffffffffffffffffffffff021916905560086000886000191660001916815260200190815260200160002060008773ffffffffffffffffffffffffffffffffffffffff1673ffffffffffffffffffffffffffffffffffffffff168152602001908152602001600020600080820160006101000a81549073ffffffffffffffffffffffffffffffffffffffff02191690556001820160009055600282016000905560038201600090556004820160006101000a81549060ff02191690556005820160009055505050505050505050565b60035481565b6000610bd76117a8565b60086000846000191660001916815260200190815260200160002060008573ffffffffffffffffffffffffffffffffffffffff1673ffffffffffffffffffffffffffffffffffffffff16815260200190815260200160002060c060405190810160405290816000820160009054906101000a900473ffffffffffffffffffffffffffffffffffffffff1673ffffffffffffffffffffffffffffffffffffffff1673ffffffffffffffffffffffffffffffffffffffff168152602001600182015460001916600019168152602001600282015460001916600019168152602001600382015481526020016004820160009054906101000a900460ff166001811115610cdd57fe5b6001811115610ce857fe5b81526020016005820154815250509050806060015191505092915050565b6000806000806000806000600960008a6000191660001916815260200190815260200160002060009054906101000a900473ffffffffffffffffffffffffffffffffffffffff169050610d598189610e30565b965096509650965096509650509295509295509295565b60045481565b60025481565b60015481565b600060149054906101000a900460ff1681565b6008602052816000526040600020602052806000526040600020600091509150508060000160009054906101000a900473ffffffffffffffffffffffffffffffffffffffff16908060010154908060020154908060030154908060040160009054906101000a900460ff16908060050154905086565b6000809054906101000a900473ffffffffffffffffffffffffffffffffffffffff1681565b600080600080600080610e416117a8565b60086000896000191660001916815260200190815260200160002060008a73ffffffffffffffffffffffffffffffffffffffff1673ffffffffffffffffffffffffffffffffffffffff16815260200190815260200160002060c060405190810160405290816000820160009054906101000a900473ffffffffffffffffffffffffffffffffffffffff1673ffffffffffffffffffffffffffffffffffffffff1673ffffffffffffffffffffffffffffffffffffffff168152602001600182015460001916600019168152602001600282015460001916600019168152602001600382015481526020016004820160009054906101000a900460ff166001811115610f4757fe5b6001811115610f5257fe5b81526020016005820154815250509050806000015181602001518260400151836060015184608001518560a00151965096509650965096509650509295509295509295565b60008060009054906101000a900473ffffffffffffffffffffffffffffffffffffffff1673ffffffffffffffffffffffffffffffffffffffff163373ffffffffffffffffffffffffffffffffffffffff16141515610ff457600080fd5b868260018081111561100257fe5b60086000836000191660001916815260200190815260200160002060008473ffffffffffffffffffffffffffffffffffffffff1673ffffffffffffffffffffffffffffffffffffffff16815260200190815260200160002060040160009054906101000a900460ff16600181111561107657fe5b1415151561108357600080fd5b88600073ffffffffffffffffffffffffffffffffffffffff168173ffffffffffffffffffffffffffffffffffffffff16141515156110c057600080fd5b60c0604051908101604052808b73ffffffffffffffffffffffffffffffffffffffff1681526020018a6000191681526020018960001916815260200188815260200160018081111561110e57fe5b81526020018781525060086000876000191660001916815260200190815260200160002060008c73ffffffffffffffffffffffffffffffffffffffff1673ffffffffffffffffffffffffffffffffffffffff16815260200190815260200160002060008201518160000160006101000a81548173ffffffffffffffffffffffffffffffffffffffff021916908373ffffffffffffffffffffffffffffffffffffffff16021790555060208201518160010190600019169055604082015181600201906000191690556060820151816003015560808201518160040160006101000a81548160ff0219169083600181111561120457fe5b021790555060a08201518160050155905050600a805480600101828161122a9190611806565b916000526020600020900160008c909190916101000a81548173ffffffffffffffffffffffffffffffffffffffff021916908373ffffffffffffffffffffffffffffffffffffffff1602179055505089600960008a6000191660001916815260200190815260200160002060006101000a81548173ffffffffffffffffffffffffffffffffffffffff021916908373ffffffffffffffffffffffffffffffffffffffff16021790555060009350600554600019168560001916141561130d577f6c656e64696e6720746f6b656e2061646465640000000000000000000000000093505b6006546000191685600019161415611343577f636f6c6c61746572616c20746f6b656e2061646465640000000000000000000093505b6007546000191685600019161415611379577f74726164696e6720746f6b656e2061646465640000000000000000000000000093505b8973ffffffffffffffffffffffffffffffffffffffff167f7e9e1acf0747d9d966fae39d2fb1d8a2b4aa1da07814d429430d576841eeb44c8a8a8a60018b8b8b60405180886000191660001916815260200187600019166000191681526020018681526020018560018111156113eb57fe5b60ff1681526020018481526020018360001916600019168152602001826000191660001916815260200197505050505050505060405180910390a250505050505050505050565b600a8181548110151561144157fe5b90600052602060002090016000915054906101000a900473ffffffffffffffffffffffffffffffffffffffff1681565b6000828260018081111561148157fe5b600860008360001916600019168152602001908152602001600020600060096000866000191660001916815260200190815260200160002060009054906101000a900473ffffffffffffffffffffffffffffffffffffffff1673ffffffffffffffffffffffffffffffffffffffff1673ffffffffffffffffffffffffffffffffffffffff16815260200190815260200160002060040160009054906101000a900460ff16600181111561153057fe5b14151561153c57600080fd5b60018081111561154857fe5b600860008660001916600019168152602001908152602001600020600060096000896000191660001916815260200190815260200160002060009054906101000a900473ffffffffffffffffffffffffffffffffffffffff1673ffffffffffffffffffffffffffffffffffffffff1673ffffffffffffffffffffffffffffffffffffffff16815260200190815260200160002060040160009054906101000a900460ff1660018111156115f757fe5b1415611606576001925061160b565b600092505b505092915050565b61161b611832565b600a80548060200260200160405190810160405280929190818152602001828054801561169d57602002820191906000526020600020905b8160009054906101000a900473ffffffffffffffffffffffffffffffffffffffff1673ffffffffffffffffffffffffffffffffffffffff1681526020019060010190808311611653575b5050505050905090565b6000809054906101000a900473ffffffffffffffffffffffffffffffffffffffff1673ffffffffffffffffffffffffffffffffffffffff163373ffffffffffffffffffffffffffffffffffffffff1614151561170257600080fd5b600073ffffffffffffffffffffffffffffffffffffffff168173ffffffffffffffffffffffffffffffffffffffff1614151561177957806000806101000a81548173ffffffffffffffffffffffffffffffffffffffff021916908373ffffffffffffffffffffffffffffffffffffffff1602179055505b50565b8154818355818115116117a3578183600052602060002091820191016117a29190611846565b5b505050565b60c060405190810160405280600073ffffffffffffffffffffffffffffffffffffffff168152602001600080191681526020016000801916815260200160008152602001600060018111156117f957fe5b8152602001600081525090565b81548183558181151161182d5781836000526020600020918201910161182c9190611846565b5b505050565b602060405190810160405280600081525090565b61186891905b8082111561186457600081600090555060010161184c565b5090565b905600a165627a7a7230582072d40a7cf782e1368f47b23bc91266d0d85a9cb8951eaf720237328717b07c9e0029",
  "source": "pragma solidity 0.4.18;\r\n\r\nimport \"./Ownable.sol\";\r\n\r\ncontract NetworkParameters is Ownable {\r\n    bool public tradingAllowed;\r\n    uint public maximumAllowedMarginAccounts;\r\n    uint public decimals;\r\n    uint public initialMargin;\r\n    uint public liquidationMargin;\r\n    \r\n    bytes32 internal TOKEN_TYPE_LENDING = \"lending\";\r\n    bytes32 internal TOKEN_TYPE_COLLATERAL = \"collateral\";\r\n    bytes32 internal TOKEN_TYPE_TRADING = \"trading\";\r\n    \r\n    mapping (bytes32 => mapping (address => TokenMetadata)) public tokens;\r\n    mapping (bytes32 => address) tokenBySymbol;\r\n\r\n    address[] public tokenAddresses;\r\n    \r\n    // Token Registry\r\n    event LogTokenUpdated(\r\n        address indexed token,\r\n        bytes32 name,\r\n        bytes32 symbol,\r\n        uint decimals,\r\n        Status status,\r\n        uint value,\r\n        bytes32 tokenType,\r\n        bytes32 action\r\n    );\r\n    \r\n    enum Status {\r\n        INACTIVE, // Set to inactive when a token is deactivated\r\n        ACTIVE    // Default status when a new token is added\r\n    }\r\n\r\n    struct TokenMetadata {\r\n        address token;\r\n        bytes32 name;\r\n        bytes32 symbol;\r\n        uint decimals;\r\n        Status status;\r\n        uint value;\r\n    }\r\n\r\n    modifier tokenExists(address _token, bytes32 _type) {\r\n        require(tokens[_type][_token].status == Status.ACTIVE);\r\n        _;\r\n    }\r\n\r\n    modifier tokenDoesNotExist(address _token, bytes32 _type) {\r\n        require(tokens[_type][_token].status != Status.ACTIVE);\r\n        _;\r\n    }\r\n\r\n    modifier symbolExists(bytes32 _symbol, bytes32 _type) {\r\n        require(tokens[_type][tokenBySymbol[_symbol]].status == Status.ACTIVE);\r\n        _;\r\n    }\r\n\r\n    modifier addressNotNull(address _address) {\r\n        require(_address != address(0));\r\n        _;\r\n    }\r\n\r\n    function NetworkParameters() {\r\n        tradingAllowed = true;\r\n        maximumAllowedMarginAccounts = 50;\r\n        decimals = 4;\r\n        initialMargin = 4000;\r\n        liquidationMargin = 2000;\r\n    }\r\n\r\n    function isValidSymbol(bytes32 _symbol, bytes32 _type)\r\n        public\r\n        constant\r\n        symbolExists(_symbol, _type) \r\n        returns (bool)\r\n    {\r\n        if (tokens[_type][tokenBySymbol[_symbol]].status == Status.ACTIVE) {\r\n            return true;\r\n        }\r\n        else {\r\n            return false;\r\n        }\r\n    }\r\n\r\n    /// @dev Allows owner to add a new token to the registry.\r\n    /// @param _token Address of new token.\r\n    /// @param _name Name of new token.\r\n    /// @param _symbol Symbol for new token.\r\n    /// @param _decimals Number of decimals, divisibility of new token.\r\n    function addToken(\r\n        address _token,\r\n        bytes32 _name,\r\n        bytes32 _symbol,\r\n        uint _decimals,\r\n        uint _value,\r\n        bytes32 _type)\r\n        public\r\n        onlyOwner\r\n        tokenDoesNotExist(_token,_type)\r\n        addressNotNull(_token)\r\n    {\r\n        tokens[bytes32(_type)][_token] = TokenMetadata({\r\n            token: _token,\r\n            name: _name,\r\n            symbol: _symbol,\r\n            decimals: _decimals,\r\n            status: Status.ACTIVE,\r\n            value: _value\r\n        });\r\n        tokenAddresses.push(_token);\r\n        tokenBySymbol[_symbol] = _token;\r\n        \r\n        bytes32 _action = \"\";\r\n        if (_type == TOKEN_TYPE_LENDING) {\r\n            _action = \"lending token added\";\r\n        }\r\n        if (_type == TOKEN_TYPE_COLLATERAL) {\r\n            _action = \"collateral token added\";\r\n        }\r\n        if (_type == TOKEN_TYPE_TRADING) {\r\n            _action = \"trading token added\";\r\n        }\r\n        LogTokenUpdated(\r\n            _token,\r\n            _name,\r\n            _symbol,\r\n            _decimals,\r\n            Status.ACTIVE,\r\n            _value,\r\n            _type,\r\n            _action\r\n        );\r\n    }\r\n\r\n    /// @dev Allows owner to remove an existing token from the registry.\r\n    /// @param _token Address of existing token.\r\n    function removeToken(bytes32 _type, address _token, uint _index)\r\n        public\r\n        onlyOwner\r\n        tokenExists(_token, _type)\r\n    {\r\n        require(tokenAddresses[_index] == _token);\r\n\r\n        tokenAddresses[_index] = tokenAddresses[tokenAddresses.length - 1];\r\n        tokenAddresses.length -= 1;\r\n\r\n        TokenMetadata storage token = tokens[_type][_token];\r\n        bytes32 _action = \"\";\r\n        if (_type == TOKEN_TYPE_LENDING) {\r\n            _action = \"lending token removed\";\r\n        }\r\n        if (_type == TOKEN_TYPE_COLLATERAL) {\r\n            _action = \"collateral token removed\";\r\n        }\r\n        if (_type == TOKEN_TYPE_TRADING) {\r\n            _action = \"trading token removed\";\r\n        }\r\n        LogTokenUpdated(\r\n            token.token,\r\n            token.name,\r\n            token.symbol,\r\n            token.decimals,\r\n            token.status,\r\n            token.value,\r\n            _type,\r\n            _action\r\n        );\r\n        delete tokenBySymbol[token.symbol];\r\n        delete tokens[_type][_token];\r\n    }\r\n\r\n    /// @dev Provides a registered token's metadata, looked up by address.\r\n    /// @param _token Address of registered token.\r\n    /// @return Token metadata.\r\n    function getTokenMetaData(address _token, bytes32 _type)\r\n        public\r\n        constant\r\n        returns (\r\n            address, //tokenAddress\r\n            bytes32, //name\r\n            bytes32, //symbol\r\n            uint,    //decimals\r\n            Status,  //status\r\n            uint     //value\r\n        )\r\n    {\r\n        TokenMetadata memory token = tokens[_type][_token];\r\n        return (\r\n            token.token,\r\n            token.name,\r\n            token.symbol,\r\n            token.decimals,\r\n            token.status,\r\n            token.value\r\n        );\r\n    }\r\n\r\n    /// @dev Provides a registered token's metadata, looked up by symbol.\r\n    /// @param _symbol Symbol of registered token.\r\n    /// @return Token metadata.\r\n    function getTokenBySymbol(bytes32 _symbol, bytes32 _type)\r\n        public\r\n        constant\r\n        returns (\r\n            address, //tokenAddress\r\n            bytes32, //name\r\n            bytes32, //symbol\r\n            uint,    //decimals\r\n            Status,  //status\r\n            uint     //value\r\n            )\r\n    {\r\n        address _token = tokenBySymbol[_symbol];\r\n        return getTokenMetaData(_token, _type);\r\n    }\r\n\r\n    /// @dev Provides a registered token's decimals, looked up by address.\r\n    /// @param _address Address of registered token.\r\n    /// @return Token decimals.\r\n    function getTokenDecimalsByAddress(address _address, bytes32 _type)\r\n        public\r\n        constant\r\n        returns (uint)\r\n    {\r\n        TokenMetadata memory token = tokens[_type][_address];\r\n        return token.decimals;\r\n    }\r\n\r\n    /// @dev Returns an array containing all token addresses.\r\n    /// @return Array of token addresses.\r\n    function getTokenAddresses()\r\n        public\r\n        constant\r\n        returns (address[])\r\n    {\r\n        return tokenAddresses;\r\n    }\r\n\r\n}",
  "sourcePath": "C:\\work\\programming\\ethereum\\lendroid\\protocol-demo\\contracts\\NetworkParameters.sol",
  "compiler": {
    "name": "solc",
    "version": "0.4.18+commit.9cf6e910.Emscripten.clang"
  },
  "schemaVersion": "1.0.1",
  "updatedAt": "2017-11-02T21:40:26.510Z"
}