{
  "contractName": "NetworkParameters",
  "abi": [
    {
      "constant": false,
      "inputs": [
        {
          "name": "_type",
          "type": "bytes32"
        },
        {
          "name": "_token",
          "type": "address"
        },
        {
          "name": "_index",
          "type": "uint256"
        }
      ],
      "name": "stop",
      "outputs": [
        {
          "name": "",
          "type": "uint256"
        }
      ],
      "payable": false,
      "stateMutability": "nonpayable",
      "type": "function"
    },
    {
      "constant": false,
      "inputs": [
        {
          "name": "_d",
          "type": "uint256"
        },
        {
          "name": "_index",
          "type": "uint256"
        }
      ],
      "name": "setGracePeriodDays",
      "outputs": [
        {
          "name": "",
          "type": "bool"
        }
      ],
      "payable": false,
      "stateMutability": "nonpayable",
      "type": "function"
    },
    {
      "constant": true,
      "inputs": [
        {
          "name": "_d",
          "type": "uint256"
        },
        {
          "name": "_type",
          "type": "bytes32"
        }
      ],
      "name": "initialMargin",
      "outputs": [
        {
          "name": "",
          "type": "uint256"
        },
        {
          "name": "",
          "type": "bytes32"
        },
        {
          "name": "",
          "type": "bytes32"
        },
        {
          "name": "",
          "type": "uint256"
        },
        {
          "name": "",
          "type": "uint8"
        },
        {
          "name": "",
          "type": "uint256"
        }
      ],
      "payable": false,
      "stateMutability": "view",
      "type": "function"
    },
    {
      "constant": true,
      "inputs": [
        {
          "name": "_symbol",
          "type": "bytes32"
        },
        {
          "name": "_type",
          "type": "bytes32"
        }
      ],
      "name": "gracePeriodDays",
      "outputs": [
        {
          "name": "",
          "type": "uint256"
        },
        {
          "name": "",
          "type": "bytes32"
        },
        {
          "name": "",
          "type": "bytes32"
        },
        {
          "name": "",
          "type": "uint256"
        },
        {
          "name": "",
          "type": "uint8"
        },
        {
          "name": "",
          "type": "uint256"
        }
      ],
      "payable": false,
      "stateMutability": "view",
      "type": "function"
    },
    {
      "constant": false,
      "inputs": [
        {
          "name": "owner_",
          "type": "address"
        }
      ],
      "name": "setOwner",
      "outputs": [
        {
          "name": "",
          "type": "uint256"
        }
      ],
      "payable": false,
      "stateMutability": "nonpayable",
      "type": "function"
    },
    {
      "constant": false,
      "inputs": [
        {
          "name": "_token",
          "type": "address"
        },
        {
          "name": "_index",
          "type": "uint256"
        }
      ],
      "name": "removeToken",
      "outputs": [
        {
          "name": "",
          "type": "bool"
        }
      ],
      "payable": false,
      "stateMutability": "nonpayable",
      "type": "function"
    },
    {
      "constant": false,
      "inputs": [
        {
          "name": "_percentage",
          "type": "uint256"
        },
        {
          "name": "_index",
          "type": "uint256"
        }
      ],
      "name": "setLiquidationMarginPercentage",
      "outputs": [
        {
          "name": "",
          "type": "bool"
        }
      ],
      "payable": false,
      "stateMutability": "nonpayable",
      "type": "function"
    },
    {
      "constant": false,
      "inputs": [
        {
          "name": "_d",
          "type": "uint256"
        },
        {
          "name": "_name",
          "type": "bytes32"
        },
        {
          "name": "_symbol",
          "type": "bytes32"
        },
        {
          "name": "_decimals",
          "type": "uint256"
        },
        {
          "name": "_value",
          "type": "uint256"
        },
        {
          "name": "supportedTypes",
          "type": "bytes32[3]"
        }
      ],
      "name": "setMaxLoanPeriodDays",
      "outputs": [
        {
          "name": "",
          "type": "bool"
        },
        {
          "name": "",
          "type": "bytes32"
        },
        {
          "name": "",
          "type": "bytes32"
        },
        {
          "name": "",
          "type": "uint256"
        },
        {
          "name": "",
          "type": "uint8"
        },
        {
          "name": "",
          "type": "uint256"
        }
      ],
      "payable": false,
      "stateMutability": "nonpayable",
      "type": "function"
    },
    {
      "constant": true,
      "inputs": [
        {
          "name": "_symbol",
          "type": "bytes32"
        },
        {
          "name": "",
          "type": "address"
        }
      ],
      "name": "getTokenBySymbol",
      "outputs": [
        {
          "name": "",
          "type": "address"
        },
        {
          "name": "",
          "type": "bytes32"
        },
        {
          "name": "",
          "type": "bytes32"
        },
        {
          "name": "",
          "type": "uint256"
        },
        {
          "name": "",
          "type": "uint8"
        },
        {
          "name": "",
          "type": "uint256"
        }
      ],
      "payable": false,
      "stateMutability": "view",
      "type": "function"
    },
    {
      "constant": false,
      "inputs": [
        {
          "name": "_i",
          "type": "uint256"
        }
      ],
      "name": "setInterestRatePercentage",
      "outputs": [
        {
          "name": "",
          "type": "bool"
        },
        {
          "name": "",
          "type": "bytes32"
        },
        {
          "name": "",
          "type": "bytes32"
        },
        {
          "name": "",
          "type": "uint256"
        },
        {
          "name": "",
          "type": "uint8"
        },
        {
          "name": "",
          "type": "uint256"
        }
      ],
      "payable": false,
      "stateMutability": "nonpayable",
      "type": "function"
    },
    {
      "constant": true,
      "inputs": [
        {
          "name": "_i",
          "type": "uint256"
        },
        {
          "name": "_tokenTypes",
          "type": "bytes32[3]"
        }
      ],
      "name": "liquidationMargin",
      "outputs": [
        {
          "name": "",
          "type": "uint256"
        },
        {
          "name": "",
          "type": "bytes32"
        },
        {
          "name": "",
          "type": "bytes32"
        },
        {
          "name": "",
          "type": "uint256"
        },
        {
          "name": "",
          "type": "uint8"
        },
        {
          "name": "",
          "type": "uint256"
        }
      ],
      "payable": false,
      "stateMutability": "view",
      "type": "function"
    },
    {
      "constant": true,
      "inputs": [
        {
          "name": "",
          "type": "bytes32"
        },
        {
          "name": "_name",
          "type": "bytes32"
        },
        {
          "name": "_symbol",
          "type": "bytes32"
        },
        {
          "name": "_decimals",
          "type": "uint256"
        },
        {
          "name": "_value",
          "type": "uint256"
        },
        {
          "name": "_type",
          "type": "bytes32"
        }
      ],
      "name": "tokenBySymbol",
      "outputs": [
        {
          "name": "",
          "type": "address"
        },
        {
          "name": "",
          "type": "bytes32"
        },
        {
          "name": "",
          "type": "bytes32"
        },
        {
          "name": "",
          "type": "uint256"
        },
        {
          "name": "",
          "type": "uint8"
        },
        {
          "name": "",
          "type": "uint256"
        }
      ],
      "payable": false,
      "stateMutability": "view",
      "type": "function"
    },
    {
      "constant": true,
      "inputs": [
        {
          "name": "",
          "type": "bytes32"
        }
      ],
      "name": "maxLoanPeriodDays",
      "outputs": [
        {
          "name": "",
          "type": "uint256"
        }
      ],
      "payable": false,
      "stateMutability": "view",
      "type": "function"
    },
    {
      "constant": true,
      "inputs": [
        {
          "name": "",
          "type": "bytes32"
        },
        {
          "name": "_tokenTypes",
          "type": "bytes32[3]"
        }
      ],
      "name": "tradingTokens",
      "outputs": [
        {
          "name": "",
          "type": "bool"
        }
      ],
      "payable": false,
      "stateMutability": "view",
      "type": "function"
    },
    {
      "constant": true,
      "inputs": [
        {
          "name": "_token",
          "type": "address"
        },
        {
          "name": "_name",
          "type": "bytes32"
        },
        {
          "name": "_symbol",
          "type": "bytes32"
        },
        {
          "name": "_decimals",
          "type": "uint256"
        },
        {
          "name": "_value",
          "type": "uint256"
        },
        {
          "name": "supportedTypes",
          "type": "bytes32[3]"
        }
      ],
      "name": "borrowableLevel",
      "outputs": [
        {
          "name": "",
          "type": "uint256"
        }
      ],
      "payable": false,
      "stateMutability": "view",
      "type": "function"
    },
    {
      "constant": true,
      "inputs": [
        {
          "name": "",
          "type": "bytes32"
        }
      ],
      "name": "decimals",
      "outputs": [
        {
          "name": "",
          "type": "uint256"
        }
      ],
      "payable": false,
      "stateMutability": "view",
      "type": "function"
    },
    {
      "inputs": [
        {
          "name": "_address",
          "type": "address"
        }
      ],
      "payable": false,
      "stateMutability": "view",
      "type": "function",
      "constant": true,
      "name": "maximumAllowedMarginAccounts",
      "outputs": [
        {
          "name": "",
          "type": "uint256"
        }
      ]
    },
    {
      "anonymous": false,
      "inputs": [
        {
          "indexed": true,
          "name": "_token",
          "type": "address"
        },
        {
          "indexed": false,
          "name": "_name",
          "type": "bytes32"
        },
        {
          "indexed": false,
          "name": "_symbol",
          "type": "bytes32"
        },
        {
          "indexed": false,
          "name": "_decimals",
          "type": "uint256"
        },
        {
          "indexed": false,
          "name": "_value",
          "type": "uint256"
        },
        {
          "indexed": false,
          "name": "isLendingToken",
          "type": "bool"
        },
        {
          "indexed": false,
          "name": "isCollateralToken",
          "type": "bool"
        },
        {
          "indexed": false,
          "name": "isTradingToken",
          "type": "bool"
        }
      ],
      "name": "tradingAllowed",
      "type": "function",
      "constant": true,
      "outputs": [
        {
          "name": "",
          "type": "bool"
        }
      ],
      "payable": false,
      "stateMutability": "view"
    },
    {
      "constant": false,
      "inputs": [
        {
          "name": "_token",
          "type": "address"
        },
        {
          "name": "_name",
          "type": "bytes32"
        },
        {
          "name": "_symbol",
          "type": "bytes32"
        },
        {
          "name": "_decimals",
          "type": "uint256"
        },
        {
          "name": "_value",
          "type": "uint256"
        },
        {
          "name": "isLendingToken",
          "type": "bool"
        },
        {
          "name": "isCollateralToken",
          "type": "bool"
        },
        {
          "name": "isTradingToken",
          "type": "bool"
        }
      ],
      "name": "addToken",
      "outputs": [
        {
          "name": "",
          "type": "bytes32"
        },
        {
          "name": "name",
          "type": "bytes32"
        },
        {
          "name": "symbol",
          "type": "bytes32"
        },
        {
          "name": "decimals",
          "type": "uint256"
        },
        {
          "name": "status",
          "type": "uint8"
        },
        {
          "name": "value",
          "type": "uint256"
        }
      ],
      "payable": false,
      "stateMutability": "nonpayable",
      "type": "function"
    },
    {
      "constant": true,
      "inputs": [
        {
          "name": "_address",
          "type": "address"
        },
        {
          "name": "_tokenTypes",
          "type": "bytes32[3]"
        }
      ],
      "name": "getTokenSymbolByAddress",
      "outputs": [
        {
          "name": "",
          "type": "bytes32"
        }
      ],
      "payable": false,
      "stateMutability": "view",
      "type": "function"
    },
    {
      "constant": false,
      "inputs": [
        {
          "name": "_symbol",
          "type": "bytes32"
        },
        {
          "name": "_tokenTypes",
          "type": "bytes32[3]"
        }
      ],
      "name": "removeSupport",
      "outputs": [
        {
          "name": "",
          "type": "bool"
        }
      ],
      "payable": false,
      "stateMutability": "nonpayable",
      "type": "function"
    },
    {
      "constant": true,
      "inputs": [
        {
          "name": "authority_",
          "type": "address"
        }
      ],
      "name": "stopped",
      "outputs": [
        {
          "name": "",
          "type": "bool"
        },
        {
          "name": "",
          "type": "bytes32"
        },
        {
          "name": "",
          "type": "bytes32"
        },
        {
          "name": "",
          "type": "uint256"
        },
        {
          "name": "",
          "type": "uint8"
        },
        {
          "name": "",
          "type": "uint256"
        }
      ],
      "payable": false,
      "stateMutability": "view",
      "type": "function"
    },
    {
      "constant": false,
      "inputs": [
        {
          "name": "authority_",
          "type": "address"
        }
      ],
      "name": "setAuthority",
      "outputs": [
        {
          "name": "",
          "type": "address"
        },
        {
          "name": "",
          "type": "bytes32"
        },
        {
          "name": "",
          "type": "bytes32"
        },
        {
          "name": "",
          "type": "uint256"
        },
        {
          "name": "",
          "type": "uint8"
        },
        {
          "name": "",
          "type": "uint256"
        }
      ],
      "payable": false,
      "stateMutability": "nonpayable",
      "type": "function"
    },
    {
      "inputs": [
        {
          "name": "_token",
          "type": "address"
        },
        {
          "name": "_tokenTypes",
          "type": "bytes32[3]"
        }
      ],
      "payable": false,
      "stateMutability": "view",
      "type": "function",
      "constant": true,
      "name": "getTokenMetaData",
      "outputs": [
        {
          "name": "",
          "type": "address"
        },
        {
          "name": "",
          "type": "bytes32"
        },
        {
          "name": "",
          "type": "bytes32"
        },
        {
          "name": "",
          "type": "uint256"
        },
        {
          "name": "",
          "type": "uint8"
        },
        {
          "name": "",
          "type": "uint256"
        }
      ]
    },
    {
      "anonymous": false,
      "inputs": [
        {
          "indexed": true,
          "name": "token",
          "type": "address"
        },
        {
          "indexed": false,
          "name": "name",
          "type": "bytes32"
        },
        {
          "indexed": false,
          "name": "symbol",
          "type": "bytes32"
        },
        {
          "indexed": false,
          "name": "decimals",
          "type": "uint256"
        },
        {
          "indexed": false,
          "name": "status",
          "type": "uint8"
        },
        {
          "indexed": false,
          "name": "value",
          "type": "uint256"
        },
        {
          "indexed": false,
          "name": "action",
          "type": "bytes32"
        }
      ],
      "name": "interestRate",
      "type": "function",
      "constant": true,
      "outputs": [
        {
          "name": "",
          "type": "uint256"
        }
      ],
      "payable": false,
      "stateMutability": "view"
    },
    {
      "constant": true,
      "inputs": [
        {
          "name": "_symbol",
          "type": "bytes32"
        },
        {
          "name": "_tokenTypes",
          "type": "bytes32[3]"
        }
      ],
      "name": "isValidTradingSymbol",
      "outputs": [
        {
          "name": "",
          "type": "bool"
        }
      ],
      "payable": false,
      "stateMutability": "view",
      "type": "function"
    },
    {
      "constant": true,
      "inputs": [],
      "name": "owner",
      "outputs": [
        {
          "name": "",
          "type": "address"
        }
      ],
      "payable": false,
      "stateMutability": "view",
      "type": "function"
    },
    {
      "constant": true,
      "inputs": [
        {
          "name": "_symbol",
          "type": "bytes32"
        }
      ],
      "name": "interestRatePercentage",
      "outputs": [
        {
          "name": "",
          "type": "uint256"
        }
      ],
      "payable": false,
      "stateMutability": "view",
      "type": "function"
    },
    {
      "constant": false,
      "inputs": [
        {
          "name": "_symbol",
          "type": "bytes32"
        },
        {
          "name": "_tokenTypes",
          "type": "bytes32[3]"
        }
      ],
      "name": "addSupport",
      "outputs": [
        {
          "name": "",
          "type": "bool"
        }
      ],
      "payable": false,
      "stateMutability": "nonpayable",
      "type": "function"
    },
    {
      "constant": false,
      "inputs": [
        {
          "name": "_symbol",
          "type": "bytes32"
        },
        {
          "name": "_tokenTypes",
          "type": "bytes32[3]"
        }
      ],
      "name": "start",
      "outputs": [
        {
          "name": "",
          "type": "bool"
        }
      ],
      "payable": false,
      "stateMutability": "nonpayable",
      "type": "function"
    },
    {
      "constant": true,
      "inputs": [
        {
          "name": "",
          "type": "bytes32"
        }
      ],
      "name": "authority",
      "outputs": [
        {
          "name": "",
          "type": "address"
        }
      ],
      "payable": false,
      "stateMutability": "view",
      "type": "function"
    },
    {
      "constant": true,
      "inputs": [
        {
          "name": "_address",
          "type": "address"
        }
      ],
      "name": "interestRateInterval",
      "outputs": [
        {
          "name": "",
          "type": "bytes32"
        },
        {
          "name": "name",
          "type": "bytes32"
        },
        {
          "name": "symbol",
          "type": "bytes32"
        },
        {
          "name": "decimals",
          "type": "uint256"
        },
        {
          "name": "status",
          "type": "uint8"
        },
        {
          "name": "value",
          "type": "uint256"
        }
      ],
      "payable": false,
      "stateMutability": "view",
      "type": "function"
    },
    {
      "constant": true,
      "inputs": [
        {
          "name": "_symbol",
          "type": "bytes32"
        }
      ],
      "name": "getTokenDecimalsBySymbol",
      "outputs": [
        {
          "name": "",
          "type": "uint256"
        }
      ],
      "payable": false,
      "stateMutability": "view",
      "type": "function"
    },
    {
      "constant": true,
      "inputs": [
        {
          "name": "",
          "type": "bytes32"
        }
      ],
      "name": "collateralTokens",
      "outputs": [
        {
          "name": "",
          "type": "bool"
        },
        {
          "name": "name",
          "type": "bytes32"
        },
        {
          "name": "symbol",
          "type": "bytes32"
        },
        {
          "name": "decimals",
          "type": "uint256"
        },
        {
          "name": "status",
          "type": "uint8"
        },
        {
          "name": "value",
          "type": "uint256"
        }
      ],
      "payable": false,
      "stateMutability": "view",
      "type": "function"
    },
    {
      "constant": true,
      "inputs": [
        {
          "name": "_address",
          "type": "address"
        }
      ],
      "name": "getTokenDecimalsByAddress",
      "outputs": [
        {
          "name": "",
          "type": "uint256"
        }
      ],
      "payable": false,
      "stateMutability": "view",
      "type": "function"
    },
    {
      "constant": false,
      "inputs": [
        {
          "name": "_i",
          "type": "bytes32"
        }
      ],
      "name": "setInterestRateInterval",
      "outputs": [
        {
          "name": "",
          "type": "bool"
        }
      ],
      "payable": false,
      "stateMutability": "nonpayable",
      "type": "function"
    },
    {
      "constant": true,
      "inputs": [
        {
          "name": "_symbol",
          "type": "bytes32"
        }
      ],
      "name": "isValidSymbol",
      "outputs": [
        {
          "name": "",
          "type": "bool"
        }
      ],
      "payable": false,
      "stateMutability": "view",
      "type": "function"
    },
    {
      "inputs": [
        {
          "name": "",
          "type": "address"
        }
      ],
      "payable": false,
      "stateMutability": "view",
      "type": "function",
      "constant": true,
      "name": "tokens",
      "outputs": [
        {
          "name": "token",
          "type": "address"
        },
        {
          "name": "name",
          "type": "bytes32"
        },
        {
          "name": "symbol",
          "type": "bytes32"
        },
        {
          "name": "decimals",
          "type": "uint256"
        },
        {
          "name": "status",
          "type": "uint8"
        },
        {
          "name": "value",
          "type": "uint256"
        }
      ]
    },
    {
      "anonymous": false,
      "inputs": [
        {
          "indexed": true,
          "name": "",
          "type": "uint256"
        },
        {
          "indexed": false,
          "name": "name",
          "type": "bytes32"
        },
        {
          "indexed": false,
          "name": "symbol",
          "type": "bytes32"
        },
        {
          "indexed": false,
          "name": "decimals",
          "type": "uint256"
        },
        {
          "indexed": false,
          "name": "status",
          "type": "uint8"
        },
        {
          "indexed": false,
          "name": "value",
          "type": "uint256"
        },
        {
          "indexed": false,
          "name": "action",
          "type": "bytes32"
        }
      ],
      "name": "tokenAddresses",
      "type": "function",
      "constant": true,
      "outputs": [
        {
          "name": "",
          "type": "address"
        },
        {
          "name": "name",
          "type": "bytes32"
        },
        {
          "name": "symbol",
          "type": "bytes32"
        },
        {
          "name": "decimals",
          "type": "uint256"
        },
        {
          "name": "status",
          "type": "uint8"
        },
        {
          "name": "value",
          "type": "uint256"
        }
      ],
      "payable": false,
      "stateMutability": "view"
    },
    {
      "anonymous": false,
      "inputs": [
        {
          "indexed": true,
          "name": "_percentage",
          "type": "uint256"
        }
      ],
      "name": "setInitialMarginPercentage",
      "type": "function",
      "constant": false,
      "outputs": [
        {
          "name": "",
          "type": "bool"
        }
      ],
      "payable": false,
      "stateMutability": "nonpayable"
    },
    {
      "anonymous": false,
      "inputs": [
        {
          "indexed": true,
          "name": "_percentage",
          "type": "uint256"
        }
      ],
      "name": "getTokenAddresses",
      "type": "function",
      "payable": false,
      "stateMutability": "view",
      "constant": true,
      "outputs": [
        {
          "name": "",
          "type": "address[]"
        }
      ]
    },
    {
      "anonymous": false,
      "inputs": [
        {
          "indexed": true,
          "name": "",
          "type": "bytes32"
        },
        {
          "indexed": false,
          "name": "name",
          "type": "bytes32"
        },
        {
          "indexed": false,
          "name": "symbol",
          "type": "bytes32"
        },
        {
          "indexed": false,
          "name": "decimals",
          "type": "uint256"
        },
        {
          "indexed": false,
          "name": "status",
          "type": "uint8"
        },
        {
          "indexed": false,
          "name": "value",
          "type": "uint256"
        },
        {
          "indexed": false,
          "name": "action",
          "type": "bytes32"
        }
      ],
      "name": "lendingTokens",
      "type": "function",
      "constant": true,
      "outputs": [
        {
          "name": "",
          "type": "bool"
        }
      ],
      "payable": false,
      "stateMutability": "view"
    },
    {
      "anonymous": false,
      "inputs": [
        {
          "indexed": true,
          "name": "_symbol",
          "type": "bytes32"
        }
      ],
      "name": "getTokenAddressBySymbol",
      "type": "function",
      "constant": true,
      "outputs": [
        {
          "name": "",
          "type": "address"
        }
      ],
      "payable": false,
      "stateMutability": "view"
    },
    {
      "anonymous": false,
      "inputs": [
        {
          "indexed": true,
          "name": "_symbol",
          "type": "bytes32"
        }
      ],
      "name": "getTokenAddressBySymbol",
      "type": "constructor",
      "payable": false,
      "stateMutability": "nonpayable",
      "constant": true,
      "outputs": [
        {
          "name": "",
          "type": "address"
        }
      ]
    },
    {
      "anonymous": false,
      "inputs": [
        {
          "indexed": true,
          "name": "token",
          "type": "address"
        },
        {
          "indexed": false,
          "name": "name",
          "type": "bytes32"
        },
        {
          "indexed": false,
          "name": "symbol",
          "type": "bytes32"
        },
        {
          "indexed": false,
          "name": "decimals",
          "type": "uint256"
        },
        {
          "indexed": false,
          "name": "status",
          "type": "uint8"
        },
        {
          "indexed": false,
          "name": "value",
          "type": "uint256"
        },
        {
          "indexed": false,
          "name": "action",
          "type": "bytes32"
        }
      ],
      "name": "LogTokenUpdated",
      "type": "event",
      "payable": false,
      "stateMutability": "nonpayable"
    },
    {
      "anonymous": false,
      "inputs": [
        {
          "indexed": true,
          "name": "authority",
          "type": "address"
        },
        {
          "indexed": false,
          "name": "name",
          "type": "bytes32"
        },
        {
          "indexed": false,
          "name": "symbol",
          "type": "bytes32"
        },
        {
          "indexed": false,
          "name": "decimals",
          "type": "uint256"
        },
        {
          "indexed": false,
          "name": "status",
          "type": "uint8"
        },
        {
          "indexed": false,
          "name": "value",
          "type": "uint256"
        },
        {
          "indexed": false,
          "name": "action",
          "type": "bytes32"
        }
      ],
      "name": "LogSetAuthority",
      "type": "event"
    },
    {
      "anonymous": false,
      "inputs": [
        {
          "indexed": true,
          "name": "owner",
          "type": "address"
        }
      ],
      "name": "LogSetOwner",
      "type": "event"
    },
    {
      "anonymous": true,
      "inputs": [
        {
          "indexed": true,
          "name": "sig",
          "type": "bytes4"
        },
        {
          "indexed": true,
          "name": "guy",
          "type": "address"
        },
        {
          "indexed": true,
          "name": "foo",
          "type": "bytes32"
        },
        {
          "indexed": true,
          "name": "bar",
          "type": "bytes32"
        },
        {
          "indexed": false,
          "name": "wad",
          "type": "uint256"
        },
        {
          "indexed": false,
          "name": "fax",
          "type": "bytes"
        }
      ],
      "name": "LogNote",
      "type": "event"
    },
    {
      "anonymous": true,
      "inputs": [
        {
          "indexed": true,
          "name": "sig",
          "type": "bytes4"
        },
        {
          "indexed": true,
          "name": "guy",
          "type": "address"
        },
        {
          "indexed": true,
          "name": "foo",
          "type": "bytes32"
        },
        {
          "indexed": true,
          "name": "bar",
          "type": "bytes32"
        },
        {
          "indexed": false,
          "name": "wad",
          "type": "uint256"
        },
        {
          "indexed": false,
          "name": "fax",
          "type": "bytes"
        }
      ],
      "name": "LogNote",
      "type": "event"
    }
  ],
  "bytecode": "0x60606040527f6c656e64696e6700000000000000000000000000000000000000000000000000600a906000191690557f636f6c6c61746572616c00000000000000000000000000000000000000000000600b906000191690557f74726164696e6700000000000000000000000000000000000000000000000000600c90600019169055341561008d57600080fd5b33600160006101000a81548173ffffffffffffffffffffffffffffffffffffffff021916908373ffffffffffffffffffffffffffffffffffffffff1602179055503373ffffffffffffffffffffffffffffffffffffffff167fce241d7ca1f669fee44b6fc00b8eba2df3bb514eed0f6f668f8f89096e81ed9460405160405180910390a260018060156101000a81548160ff0219169083151502179055506032600281905550601260038190555060286004819055506014600581905550600a6006819055507f64617900000000000000000000000000000000000000000000000000000000006007816000191690555062278d006008819055506283d600600981905550613001806101a16000396000f30060606040526004361061020f576000357c0100000000000000000000000000000000000000000000000000000000900463ffffffff16806307da68f5146102145780630ce6b419146102295780631029e85b146102645780631348ed5e1461028d57806313af4035146102b657806313baf1e6146102ef57806318db3c7f146103315780631d6a3ea01461036c5780631f76fa34146103a7578063222d1a0e1461044f5780632262697e1461048a57806326a2a16d146104b357806326e86cd71461051a57806328ad119c1461054357806329a260b814610582578063313ce567146105ab57806352e9e10f146105d457806353371be0146105fd5780635844c1b21461062a578063667a5f9d146106b0578063712c0cc91461070557806375f12b21146107705780637a9e5e4b1461079d5780637abccac9146107d65780637c3a00fd146108905780638a6bfa1a146108b95780638da5cb5b146108f8578063b739b2ab1461094d578063be291c4f14610976578063be9a6555146109e1578063bf7e214f146109f6578063cf603e8814610a4b578063d12c7b1014610a7c578063d1a294c414610ab7578063d902522914610af6578063dd6b27ec14610b43578063e19f86df14610b82578063e486033914610bc1578063e5df8b8414610c7b578063e842c77d14610cde578063ee8c24b814610d19578063eeeaddef14610d83578063fa7fdeb714610dc2575b600080fd5b341561021f57600080fd5b610227610e29565b005b341561023457600080fd5b61024a6004808035906020019091905050610f2b565b604051808215151515815260200191505060405180910390f35b341561026f57600080fd5b610277610f76565b6040518082815260200191505060405180910390f35b341561029857600080fd5b6102a0610f7c565b6040518082815260200191505060405180910390f35b34156102c157600080fd5b6102ed600480803573ffffffffffffffffffffffffffffffffffffffff16906020019091905050610f82565b005b34156102fa57600080fd5b61032f600480803573ffffffffffffffffffffffffffffffffffffffff16906020019091908035906020019091905050611064565b005b341561033c57600080fd5b6103526004808035906020019091905050611503565b604051808215151515815260200191505060405180910390f35b341561037757600080fd5b61038d600480803590602001909190505061155e565b604051808215151515815260200191505060405180910390f35b34156103b257600080fd5b6103cc6004808035600019169060200190919050506115a9565b604051808773ffffffffffffffffffffffffffffffffffffffff1673ffffffffffffffffffffffffffffffffffffffff1681526020018660001916600019168152602001856000191660001916815260200184815260200183600181111561043057fe5b60ff168152602001828152602001965050505050505060405180910390f35b341561045a57600080fd5b6104706004808035906020019091905050611611565b604051808215151515815260200191505060405180910390f35b341561049557600080fd5b61049d61165c565b6040518082815260200191505060405180910390f35b34156104be57600080fd5b6104d8600480803560001916906020019091905050611662565b604051808273ffffffffffffffffffffffffffffffffffffffff1673ffffffffffffffffffffffffffffffffffffffff16815260200191505060405180910390f35b341561052557600080fd5b61052d611695565b6040518082815260200191505060405180910390f35b341561054e57600080fd5b61056860048080356000191690602001909190505061169b565b604051808215151515815260200191505060405180910390f35b341561058d57600080fd5b6105956116bb565b6040518082815260200191505060405180910390f35b34156105b657600080fd5b6105be6116dd565b6040518082815260200191505060405180910390f35b34156105df57600080fd5b6105e76116e3565b6040518082815260200191505060405180910390f35b341561060857600080fd5b6106106116e9565b604051808215151515815260200191505060405180910390f35b341561063557600080fd5b6106ae600480803573ffffffffffffffffffffffffffffffffffffffff1690602001909190803560001916906020019091908035600019169060200190919080359060200190919080359060200190919080351515906020019091908035151590602001909190803515159060200190919050506116fc565b005b34156106bb57600080fd5b6106e7600480803573ffffffffffffffffffffffffffffffffffffffff16906020019091905050611b6f565b60405180826000191660001916815260200191505060405180910390f35b341561071057600080fd5b6107566004808035600019169060200190919080606001906003806020026040519081016040528092919082600360200280828437820191505050505091905050611c8e565b604051808215151515815260200191505060405180910390f35b341561077b57600080fd5b610783611ead565b604051808215151515815260200191505060405180910390f35b34156107a857600080fd5b6107d4600480803573ffffffffffffffffffffffffffffffffffffffff16906020019091905050611ec0565b005b34156107e157600080fd5b61080d600480803573ffffffffffffffffffffffffffffffffffffffff16906020019091905050611fa0565b604051808773ffffffffffffffffffffffffffffffffffffffff1673ffffffffffffffffffffffffffffffffffffffff1681526020018660001916600019168152602001856000191660001916815260200184815260200183600181111561087157fe5b60ff168152602001828152602001965050505050505060405180910390f35b341561089b57600080fd5b6108a36120ed565b6040518082815260200191505060405180910390f35b34156108c457600080fd5b6108de60048080356000191690602001909190505061210f565b604051808215151515815260200191505060405180910390f35b341561090357600080fd5b61090b6121f1565b604051808273ffffffffffffffffffffffffffffffffffffffff1673ffffffffffffffffffffffffffffffffffffffff16815260200191505060405180910390f35b341561095857600080fd5b610960612217565b6040518082815260200191505060405180910390f35b341561098157600080fd5b6109c7600480803560001916906020019091908060600190600380602002604051908101604052809291908260036020028082843782019150505050509190505061221d565b604051808215151515815260200191505060405180910390f35b34156109ec57600080fd5b6109f461243c565b005b3415610a0157600080fd5b610a0961253f565b604051808273ffffffffffffffffffffffffffffffffffffffff1673ffffffffffffffffffffffffffffffffffffffff16815260200191505060405180910390f35b3415610a5657600080fd5b610a5e612564565b60405180826000191660001916815260200191505060405180910390f35b3415610a8757600080fd5b610aa160048080356000191690602001909190505061256a565b6040518082815260200191505060405180910390f35b3415610ac257600080fd5b610adc6004808035600019169060200190919050506126c4565b604051808215151515815260200191505060405180910390f35b3415610b0157600080fd5b610b2d600480803573ffffffffffffffffffffffffffffffffffffffff169060200190919050506126e4565b6040518082815260200191505060405180910390f35b3415610b4e57600080fd5b610b68600480803560001916906020019091905050612803565b604051808215151515815260200191505060405180910390f35b3415610b8d57600080fd5b610ba7600480803560001916906020019091905050612852565b604051808215151515815260200191505060405180910390f35b3415610bcc57600080fd5b610bf8600480803573ffffffffffffffffffffffffffffffffffffffff169060200190919050506129bf565b604051808773ffffffffffffffffffffffffffffffffffffffff1673ffffffffffffffffffffffffffffffffffffffff16815260200186600019166000191681526020018560001916600019168152602001848152602001836001811115610c5c57fe5b60ff168152602001828152602001965050505050505060405180910390f35b3415610c8657600080fd5b610c9c6004808035906020019091905050612a28565b604051808273ffffffffffffffffffffffffffffffffffffffff1673ffffffffffffffffffffffffffffffffffffffff16815260200191505060405180910390f35b3415610ce957600080fd5b610cff6004808035906020019091905050612a67565b604051808215151515815260200191505060405180910390f35b3415610d2457600080fd5b610d2c612ac2565b6040518080602001828103825283818151815260200191508051906020019060200280838360005b83811015610d6f578082015181840152602081019050610d54565b505050509050019250505060405180910390f35b3415610d8e57600080fd5b610da8600480803560001916906020019091905050612b56565b604051808215151515815260200191505060405180910390f35b3415610dcd57600080fd5b610de7600480803560001916906020019091905050612b76565b604051808273ffffffffffffffffffffffffffffffffffffffff1673ffffffffffffffffffffffffffffffffffffffff16815260200191505060405180910390f35b610e57336000357fffffffff0000000000000000000000000000000000000000000000000000000016612bbb565b1515610e6257600080fd5b60008060043591506024359050806000191682600019163373ffffffffffffffffffffffffffffffffffffffff166000357fffffffff00000000000000000000000000000000000000000000000000000000167bffffffffffffffffffffffffffffffffffffffffffffffffffffffff19163460003660405180848152602001806020018281038252848482818152602001925080828437820191505094505050505060405180910390a460018060146101000a81548160ff0219169083151502179055505050565b6000610f5b336000357fffffffff0000000000000000000000000000000000000000000000000000000016612bbb565b1515610f6657600080fd5b8160098190555060019050919050565b60045481565b60095481565b610fb0336000357fffffffff0000000000000000000000000000000000000000000000000000000016612bbb565b1515610fbb57600080fd5b80600160006101000a81548173ffffffffffffffffffffffffffffffffffffffff021916908373ffffffffffffffffffffffffffffffffffffffff160217905550600160009054906101000a900473ffffffffffffffffffffffffffffffffffffffff1673ffffffffffffffffffffffffffffffffffffffff167fce241d7ca1f669fee44b6fc00b8eba2df3bb514eed0f6f668f8f89096e81ed9460405160405180910390a250565b60008260018081111561107357fe5b600d60008373ffffffffffffffffffffffffffffffffffffffff1673ffffffffffffffffffffffffffffffffffffffff16815260200190815260200160002060040160009054906101000a900460ff1660018111156110ce57fe5b1415156110da57600080fd5b600160149054906101000a900460ff161515156110f657600080fd5b611124336000357fffffffff0000000000000000000000000000000000000000000000000000000016612bbb565b151561112f57600080fd5b8373ffffffffffffffffffffffffffffffffffffffff1660128481548110151561115557fe5b906000526020600020900160009054906101000a900473ffffffffffffffffffffffffffffffffffffffff1673ffffffffffffffffffffffffffffffffffffffff161415156111a357600080fd5b60126001601280549050038154811015156111ba57fe5b906000526020600020900160009054906101000a900473ffffffffffffffffffffffffffffffffffffffff166012848154811015156111f557fe5b906000526020600020900160006101000a81548173ffffffffffffffffffffffffffffffffffffffff021916908373ffffffffffffffffffffffffffffffffffffffff16021790555060016012818180549050039150816112569190612ee6565b50600d60008573ffffffffffffffffffffffffffffffffffffffff1673ffffffffffffffffffffffffffffffffffffffff16815260200190815260200160002091508160000160009054906101000a900473ffffffffffffffffffffffffffffffffffffffff1673ffffffffffffffffffffffffffffffffffffffff167f7beca59326c8f30286f798d4f9b394e7c533cc36ea405f230771e8012689c1b18360010154846002015485600301548660040160009054906101000a900460ff168760050154604051808660001916600019168152602001856000191660001916815260200184815260200183600181111561134c57fe5b60ff168152602001828152602001807f746f6b656e2072656d6f766564000000000000000000000000000000000000008152506020019550505050505060405180910390a26011600083600201546000191660001916815260200190815260200160002060006101000a81549073ffffffffffffffffffffffffffffffffffffffff0219169055600e600083600201546000191660001916815260200190815260200160002060006101000a81549060ff0219169055600f600083600201546000191660001916815260200190815260200160002060006101000a81549060ff02191690556010600083600201546000191660001916815260200190815260200160002060006101000a81549060ff0219169055600d60008573ffffffffffffffffffffffffffffffffffffffff1673ffffffffffffffffffffffffffffffffffffffff168152602001908152602001600020600080820160006101000a81549073ffffffffffffffffffffffffffffffffffffffff02191690556001820160009055600282016000905560038201600090556004820160006101000a81549060ff02191690556005820160009055505050505050565b6000611533336000357fffffffff0000000000000000000000000000000000000000000000000000000016612bbb565b151561153e57600080fd5b6064821115151561154e57600080fd5b8160058190555060019050919050565b600061158e336000357fffffffff0000000000000000000000000000000000000000000000000000000016612bbb565b151561159957600080fd5b8160088190555060019050919050565b600080600080600080600060116000896000191660001916815260200190815260200160002060009054906101000a900473ffffffffffffffffffffffffffffffffffffffff1690506115fb81611fa0565b9650965096509650965096505091939550919395565b6000611641336000357fffffffff0000000000000000000000000000000000000000000000000000000016612bbb565b151561164c57600080fd5b8160068190555060019050919050565b60055481565b60116020528060005260406000206000915054906101000a900473ffffffffffffffffffffffffffffffffffffffff1681565b60085481565b60106020528060005260406000206000915054906101000a900460ff1681565b60006116d86116cd6064600454612e1a565b600354600a0a612e56565b905090565b60035481565b60025481565b600160159054906101000a900460ff1681565b8760018081111561170957fe5b600d60008373ffffffffffffffffffffffffffffffffffffffff1673ffffffffffffffffffffffffffffffffffffffff16815260200190815260200160002060040160009054906101000a900460ff16600181111561176457fe5b1415151561177157600080fd5b88600073ffffffffffffffffffffffffffffffffffffffff168173ffffffffffffffffffffffffffffffffffffffff16141515156117ae57600080fd5b600160149054906101000a900460ff161515156117ca57600080fd5b6117f8336000357fffffffff0000000000000000000000000000000000000000000000000000000016612bbb565b151561180357600080fd5b60c0604051908101604052808b73ffffffffffffffffffffffffffffffffffffffff1681526020018a6000191681526020018960001916815260200188815260200160018081111561185157fe5b815260200187815250600d60008c73ffffffffffffffffffffffffffffffffffffffff1673ffffffffffffffffffffffffffffffffffffffff16815260200190815260200160002060008201518160000160006101000a81548173ffffffffffffffffffffffffffffffffffffffff021916908373ffffffffffffffffffffffffffffffffffffffff16021790555060208201518160010190600019169055604082015181600201906000191690556060820151816003015560808201518160040160006101000a81548160ff0219169083600181111561192e57fe5b021790555060a08201518160050155905050601280548060010182816119549190612f12565b916000526020600020900160008c909190916101000a81548173ffffffffffffffffffffffffffffffffffffffff021916908373ffffffffffffffffffffffffffffffffffffffff1602179055505089601160008a6000191660001916815260200190815260200160002060006101000a81548173ffffffffffffffffffffffffffffffffffffffff021916908373ffffffffffffffffffffffffffffffffffffffff1602179055508415611a38576001600e60008a6000191660001916815260200190815260200160002060006101000a81548160ff0219169083151502179055505b8315611a73576001600f60008a6000191660001916815260200190815260200160002060006101000a81548160ff0219169083151502179055505b8215611aae576001601060008a6000191660001916815260200190815260200160002060006101000a81548160ff0219169083151502179055505b8973ffffffffffffffffffffffffffffffffffffffff167f7beca59326c8f30286f798d4f9b394e7c533cc36ea405f230771e8012689c1b18a8a8a60018b6040518086600019166000191681526020018560001916600019168152602001848152602001836001811115611b1e57fe5b60ff168152602001828152602001807f746f6b656e2061646465640000000000000000000000000000000000000000008152506020019550505050505060405180910390a250505050505050505050565b6000611b79612f3e565b600d60008473ffffffffffffffffffffffffffffffffffffffff1673ffffffffffffffffffffffffffffffffffffffff16815260200190815260200160002060c060405190810160405290816000820160009054906101000a900473ffffffffffffffffffffffffffffffffffffffff1673ffffffffffffffffffffffffffffffffffffffff1673ffffffffffffffffffffffffffffffffffffffff168152602001600182015460001916600019168152602001600282015460001916600019168152602001600382015481526020016004820160009054906101000a900460ff166001811115611c6657fe5b6001811115611c7157fe5b815260200160058201548152505090508060400151915050919050565b600082600180811115611c9d57fe5b600d600060116000856000191660001916815260200190815260200160002060009054906101000a900473ffffffffffffffffffffffffffffffffffffffff1673ffffffffffffffffffffffffffffffffffffffff1673ffffffffffffffffffffffffffffffffffffffff16815260200190815260200160002060040160009054906101000a900460ff166001811115611d3357fe5b141515611d3f57600080fd5b600160149054906101000a900460ff16151515611d5b57600080fd5b611d89336000357fffffffff0000000000000000000000000000000000000000000000000000000016612bbb565b1515611d9457600080fd5b600a5460001916836000600381101515611daa57fe5b6020020151600019161415611dee576000600e6000866000191660001916815260200190815260200160002060006101000a81548160ff0219169083151502179055505b600b5460001916836001600381101515611e0457fe5b6020020151600019161415611e48576000600f6000866000191660001916815260200190815260200160002060006101000a81548160ff0219169083151502179055505b600c5460001916836002600381101515611e5e57fe5b6020020151600019161415611ea257600060106000866000191660001916815260200190815260200160002060006101000a81548160ff0219169083151502179055505b600191505092915050565b600160149054906101000a900460ff1681565b611eee336000357fffffffff0000000000000000000000000000000000000000000000000000000016612bbb565b1515611ef957600080fd5b806000806101000a81548173ffffffffffffffffffffffffffffffffffffffff021916908373ffffffffffffffffffffffffffffffffffffffff1602179055506000809054906101000a900473ffffffffffffffffffffffffffffffffffffffff1673ffffffffffffffffffffffffffffffffffffffff167f1abebea81bfa2637f28358c371278fb15ede7ea8dd28d2e03b112ff6d936ada460405160405180910390a250565b600080600080600080611fb1612f3e565b600d60008973ffffffffffffffffffffffffffffffffffffffff1673ffffffffffffffffffffffffffffffffffffffff16815260200190815260200160002060c060405190810160405290816000820160009054906101000a900473ffffffffffffffffffffffffffffffffffffffff1673ffffffffffffffffffffffffffffffffffffffff1673ffffffffffffffffffffffffffffffffffffffff168152602001600182015460001916600019168152602001600282015460001916600019168152602001600382015481526020016004820160009054906101000a900460ff16600181111561209e57fe5b60018111156120a957fe5b81526020016005820154815250509050806000015181602001518260400151836060015184608001518560a001519650965096509650965096505091939550919395565b600061210a6120ff6006546064612e1a565b600354600a0a612e56565b905090565b60008160018081111561211e57fe5b600d600060116000856000191660001916815260200190815260200160002060009054906101000a900473ffffffffffffffffffffffffffffffffffffffff1673ffffffffffffffffffffffffffffffffffffffff1673ffffffffffffffffffffffffffffffffffffffff16815260200190815260200160002060040160009054906101000a900460ff1660018111156121b457fe5b1415156121c057600080fd5b60106000846000191660001916815260200190815260200160002060009054906101000a900460ff16915050919050565b600160009054906101000a900473ffffffffffffffffffffffffffffffffffffffff1681565b60065481565b60008260018081111561222c57fe5b600d600060116000856000191660001916815260200190815260200160002060009054906101000a900473ffffffffffffffffffffffffffffffffffffffff1673ffffffffffffffffffffffffffffffffffffffff1673ffffffffffffffffffffffffffffffffffffffff16815260200190815260200160002060040160009054906101000a900460ff1660018111156122c257fe5b1415156122ce57600080fd5b600160149054906101000a900460ff161515156122ea57600080fd5b612318336000357fffffffff0000000000000000000000000000000000000000000000000000000016612bbb565b151561232357600080fd5b600a546000191683600060038110151561233957fe5b602002015160001916141561237d576001600e6000866000191660001916815260200190815260200160002060006101000a81548160ff0219169083151502179055505b600b546000191683600160038110151561239357fe5b60200201516000191614156123d7576001600f6000866000191660001916815260200190815260200160002060006101000a81548160ff0219169083151502179055505b600c54600019168360026003811015156123ed57fe5b602002015160001916141561243157600160106000866000191660001916815260200190815260200160002060006101000a81548160ff0219169083151502179055505b600191505092915050565b61246a336000357fffffffff0000000000000000000000000000000000000000000000000000000016612bbb565b151561247557600080fd5b60008060043591506024359050806000191682600019163373ffffffffffffffffffffffffffffffffffffffff166000357fffffffff00000000000000000000000000000000000000000000000000000000167bffffffffffffffffffffffffffffffffffffffffffffffffffffffff19163460003660405180848152602001806020018281038252848482818152602001925080828437820191505094505050505060405180910390a46000600160146101000a81548160ff0219169083151502179055505050565b6000809054906101000a900473ffffffffffffffffffffffffffffffffffffffff1681565b60075481565b6000612574612f3e565b600d600060116000866000191660001916815260200190815260200160002060009054906101000a900473ffffffffffffffffffffffffffffffffffffffff1673ffffffffffffffffffffffffffffffffffffffff1673ffffffffffffffffffffffffffffffffffffffff16815260200190815260200160002060c060405190810160405290816000820160009054906101000a900473ffffffffffffffffffffffffffffffffffffffff1673ffffffffffffffffffffffffffffffffffffffff1673ffffffffffffffffffffffffffffffffffffffff168152602001600182015460001916600019168152602001600282015460001916600019168152602001600382015481526020016004820160009054906101000a900460ff16600181111561269c57fe5b60018111156126a757fe5b815260200160058201548152505090508060600151915050919050565b600f6020528060005260406000206000915054906101000a900460ff1681565b60006126ee612f3e565b600d60008473ffffffffffffffffffffffffffffffffffffffff1673ffffffffffffffffffffffffffffffffffffffff16815260200190815260200160002060c060405190810160405290816000820160009054906101000a900473ffffffffffffffffffffffffffffffffffffffff1673ffffffffffffffffffffffffffffffffffffffff1673ffffffffffffffffffffffffffffffffffffffff168152602001600182015460001916600019168152602001600282015460001916600019168152602001600382015481526020016004820160009054906101000a900460ff1660018111156127db57fe5b60018111156127e657fe5b815260200160058201548152505090508060600151915050919050565b6000612833336000357fffffffff0000000000000000000000000000000000000000000000000000000016612bbb565b151561283e57600080fd5b816007816000191690555060019050919050565b60008160018081111561286157fe5b600d600060116000856000191660001916815260200190815260200160002060009054906101000a900473ffffffffffffffffffffffffffffffffffffffff1673ffffffffffffffffffffffffffffffffffffffff1673ffffffffffffffffffffffffffffffffffffffff16815260200190815260200160002060040160009054906101000a900460ff1660018111156128f757fe5b14151561290357600080fd5b60018081111561290f57fe5b600d600060116000876000191660001916815260200190815260200160002060009054906101000a900473ffffffffffffffffffffffffffffffffffffffff1673ffffffffffffffffffffffffffffffffffffffff1673ffffffffffffffffffffffffffffffffffffffff16815260200190815260200160002060040160009054906101000a900460ff1660018111156129a557fe5b14156129b457600191506129b9565b600091505b50919050565b600d6020528060005260406000206000915090508060000160009054906101000a900473ffffffffffffffffffffffffffffffffffffffff16908060010154908060020154908060030154908060040160009054906101000a900460ff16908060050154905086565b601281815481101515612a3757fe5b90600052602060002090016000915054906101000a900473ffffffffffffffffffffffffffffffffffffffff1681565b6000612a97336000357fffffffff0000000000000000000000000000000000000000000000000000000016612bbb565b1515612aa257600080fd5b60648211151515612ab257600080fd5b8160048190555060019050919050565b612aca612f9c565b6012805480602002602001604051908101604052809291908181526020018280548015612b4c57602002820191906000526020600020905b8160009054906101000a900473ffffffffffffffffffffffffffffffffffffffff1673ffffffffffffffffffffffffffffffffffffffff1681526020019060010190808311612b02575b5050505050905090565b600e6020528060005260406000206000915054906101000a900460ff1681565b600060116000836000191660001916815260200190815260200160002060009054906101000a900473ffffffffffffffffffffffffffffffffffffffff169050919050565b60003073ffffffffffffffffffffffffffffffffffffffff168373ffffffffffffffffffffffffffffffffffffffff161415612bfa5760019050612e14565b600160009054906101000a900473ffffffffffffffffffffffffffffffffffffffff1673ffffffffffffffffffffffffffffffffffffffff168373ffffffffffffffffffffffffffffffffffffffff161415612c595760019050612e14565b600073ffffffffffffffffffffffffffffffffffffffff166000809054906101000a900473ffffffffffffffffffffffffffffffffffffffff1673ffffffffffffffffffffffffffffffffffffffff161415612cb85760009050612e14565b6000809054906101000a900473ffffffffffffffffffffffffffffffffffffffff1673ffffffffffffffffffffffffffffffffffffffff1663b70096138430856000604051602001526040518463ffffffff167c0100000000000000000000000000000000000000000000000000000000028152600401808473ffffffffffffffffffffffffffffffffffffffff1673ffffffffffffffffffffffffffffffffffffffff1681526020018373ffffffffffffffffffffffffffffffffffffffff1673ffffffffffffffffffffffffffffffffffffffff168152602001827bffffffffffffffffffffffffffffffffffffffffffffffffffffffff19167bffffffffffffffffffffffffffffffffffffffffffffffffffffffff191681526020019350505050602060405180830381600087803b1515612df657600080fd5b6102c65a03f11515612e0757600080fd5b5050506040518051905090505b92915050565b600081612e44612e3285670de0b6b3a7640000612e9a565b600285811515612e3e57fe5b04612eca565b811515612e4d57fe5b04905092915050565b6000670de0b6b3a7640000612e88612e6e8585612e9a565b6002670de0b6b3a7640000811515612e8257fe5b04612eca565b811515612e9157fe5b04905092915050565b600080821480612eb957508282838502925082811515612eb657fe5b04145b1515612ec457600080fd5b92915050565b60008282840191508110151515612ee057600080fd5b92915050565b815481835581811511612f0d57818360005260206000209182019101612f0c9190612fb0565b5b505050565b815481835581811511612f3957818360005260206000209182019101612f389190612fb0565b5b505050565b60c060405190810160405280600073ffffffffffffffffffffffffffffffffffffffff16815260200160008019168152602001600080191681526020016000815260200160006001811115612f8f57fe5b8152602001600081525090565b602060405190810160405280600081525090565b612fd291905b80821115612fce576000816000905550600101612fb6565b5090565b905600a165627a7a72305820aaa680e4218688900020b9ed65ac631ff227ef64813732ec5185360398c856240029",
  "source": "pragma solidity 0.4.18;\n\nimport \"./helpers/math.sol\";\nimport \"./helpers/stop.sol\";\n\n// FOR DEMO\n\ncontract NetworkParameters is DSMath, DSStop {\n    bool public tradingAllowed;\n    uint public maximumAllowedMarginAccounts;\n    uint public decimals;\n    uint public initialMargin;\n    uint public liquidationMargin;\n\n    uint public interestRatePercentage;\n    bytes32 public interestRateInterval;\n    uint public maxLoanPeriodDays;\n    uint public gracePeriodDays;\n\n    bytes32 internal TOKEN_TYPE_LENDING = \"lending\";\n    bytes32 internal TOKEN_TYPE_COLLATERAL = \"collateral\";\n    bytes32 internal TOKEN_TYPE_TRADING = \"trading\";\n\n    mapping (address => TokenMetadata) public tokens;\n    mapping (bytes32 => bool) public lendingTokens;\n    mapping (bytes32 => bool) public collateralTokens;\n    mapping (bytes32 => bool) public tradingTokens;\n    mapping (bytes32 => address) public tokenBySymbol;\n\n    address[] public tokenAddresses;\n\n    // Token Registry\n    event LogTokenUpdated(\n        address indexed token,\n        bytes32 name,\n        bytes32 symbol,\n        uint decimals,\n        Status status,\n        uint value,\n        bytes32 action\n    );\n\n    enum Status {\n        INACTIVE, // Set to inactive when a token is deactivated\n        ACTIVE    // Default status when a new token is added\n    }\n\n    struct TokenMetadata {\n        address token;\n        bytes32 name;\n        bytes32 symbol;\n        uint decimals;\n        Status status;\n        uint value;\n    }\n\n    modifier tokenExists(address _token) {\n        require(tokens[_token].status == Status.ACTIVE);\n        _;\n    }\n\n    modifier tokenDoesNotExist(address _token) {\n        require(tokens[_token].status != Status.ACTIVE);\n        _;\n    }\n\n    modifier symbolExists(bytes32 _symbol) {\n        require(tokens[tokenBySymbol[_symbol]].status == Status.ACTIVE);\n        _;\n    }\n\n    modifier addressNotNull(address _address) {\n        require(_address != address(0));\n        _;\n    }\n\n    function NetworkParameters() public {\n\n        tradingAllowed = true;\n        maximumAllowedMarginAccounts = 50;\n        decimals = 18;\n        initialMargin = 40;// Borrowable = 100 / 40 = 2.5\n        liquidationMargin = 20;\n\n        interestRatePercentage = 10;\n        interestRateInterval = \"day\";\n        maxLoanPeriodDays = 30 days;\n        gracePeriodDays = 100 days;\n    }\n\n    function isValidSymbol(bytes32 _symbol)\n        public\n        constant\n        symbolExists(_symbol)\n        returns (bool)\n    {\n        if (tokens[tokenBySymbol[_symbol]].status == Status.ACTIVE) {\n            return true;\n        }\n        else {\n            return false;\n        }\n    }\n\n    function isValidTradingSymbol(bytes32 _symbol)\n        public\n        constant\n        symbolExists(_symbol)\n        returns (bool)\n    {\n        return tradingTokens[_symbol];\n    }\n\n    /// @dev Allows owner to add a new token to the registry.\n    /// @param _token Address of new token.\n    /// @param _name Name of new token.\n    /// @param _symbol Symbol for new token.\n    /// @param _decimals Number of decimals, divisibility of new token.\n    function addToken(\n            address _token,\n            bytes32 _name,\n            bytes32 _symbol,\n            uint _decimals,\n            uint _value,\n            bool isLendingToken,\n            bool isCollateralToken,\n            bool isTradingToken\n        )\n        public\n        tokenDoesNotExist(_token)\n        addressNotNull(_token)\n        stoppable\n        auth\n    {\n        tokens[_token] = TokenMetadata({\n            token: _token,\n            name: _name,\n            symbol: _symbol,\n            decimals: _decimals,\n            status: Status.ACTIVE,\n            value: _value\n        });\n        tokenAddresses.push(_token);\n        tokenBySymbol[_symbol] = _token;\n\n        if (isLendingToken) {\n            lendingTokens[_symbol] = true;\n        }\n        if (isCollateralToken) {\n            collateralTokens[_symbol] = true;\n        }\n        if (isTradingToken) {\n            tradingTokens[_symbol] = true;\n        }\n        LogTokenUpdated(\n            _token,\n            _name,\n            _symbol,\n            _decimals,\n            Status.ACTIVE,\n            _value,\n            \"token added\"\n        );\n    }\n\n    function addSupport(\n            bytes32 _symbol,\n            bytes32[3] _tokenTypes\n        )\n        public\n        symbolExists(_symbol)\n        stoppable\n        auth\n        returns (bool)\n    {\n        if (_tokenTypes[0] == TOKEN_TYPE_LENDING) {\n            lendingTokens[_symbol] = true;\n        }\n        if (_tokenTypes[1] == TOKEN_TYPE_COLLATERAL) {\n            collateralTokens[_symbol] = true;\n        }\n        if (_tokenTypes[2] == TOKEN_TYPE_TRADING) {\n            tradingTokens[_symbol] = true;\n        }\n        return true;\n    }\n\n    function removeSupport(\n            bytes32 _symbol,\n            bytes32[3] _tokenTypes\n        )\n        public\n        symbolExists(_symbol)\n        stoppable\n        auth\n        returns (bool)\n    {\n        if (_tokenTypes[0] == TOKEN_TYPE_LENDING) {\n            lendingTokens[_symbol] = false;\n        }\n        if (_tokenTypes[1] == TOKEN_TYPE_COLLATERAL) {\n            collateralTokens[_symbol] = false;\n        }\n        if (_tokenTypes[2] == TOKEN_TYPE_TRADING) {\n            tradingTokens[_symbol] = false;\n        }\n        return true;\n    }\n\n    /// @dev Allows owner to remove an existing token from the registry.\n    /// @param _token Address of existing token.\n    function removeToken(\n            address _token,\n            uint _index\n        )\n        public\n        tokenExists(_token)\n        stoppable\n        auth\n    {\n        require(tokenAddresses[_index] == _token);\n\n        tokenAddresses[_index] = tokenAddresses[tokenAddresses.length - 1];\n        tokenAddresses.length -= 1;\n\n        TokenMetadata storage token = tokens[_token];\n\n        LogTokenUpdated(\n            token.token,\n            token.name,\n            token.symbol,\n            token.decimals,\n            token.status,\n            token.value,\n            \"token removed\"\n        );\n        delete tokenBySymbol[token.symbol];\n        delete lendingTokens[token.symbol];\n        delete collateralTokens[token.symbol];\n        delete tradingTokens[token.symbol];\n        delete tokens[_token];\n\n    }\n\n    /// @dev Provides a registered token's metadata, looked up by address.\n    /// @param _token Address of registered token.\n    /// @return Token metadata.\n    function getTokenMetaData(address _token)\n        public\n        constant\n        returns (\n            address, //tokenAddress\n            bytes32, //name\n            bytes32, //symbol\n            uint,    //decimals\n            Status,  //status\n            uint     //value\n        )\n    {\n        TokenMetadata memory token = tokens[_token];\n        return (\n            token.token,\n            token.name,\n            token.symbol,\n            token.decimals,\n            token.status,\n            token.value\n        );\n    }\n\n    /// @dev Provides a registered token's metadata, looked up by symbol.\n    /// @param _symbol Symbol of registered token.\n    /// @return Token metadata.\n    function getTokenBySymbol(bytes32 _symbol)\n        public\n        constant\n        returns (\n            address, //tokenAddress\n            bytes32, //name\n            bytes32, //symbol\n            uint,    //decimals\n            Status,  //status\n            uint     //value\n            )\n    {\n        address _token = tokenBySymbol[_symbol];\n        return getTokenMetaData(_token);\n    }\n\n    /// @dev Provides a registered token's decimals, looked up by address.\n    /// @param _address Address of registered token.\n    /// @return Token decimals.\n    function getTokenDecimalsByAddress(address _address)\n        public\n        constant\n        returns (uint)\n    {\n        TokenMetadata memory token = tokens[_address];\n        return token.decimals;\n    }\n\n    /// @dev Provides a registered token's decimals, looked up by symbol.\n    /// @param _symbol Symbol of registered token.\n    /// @return Token decimals.\n    function getTokenDecimalsBySymbol(bytes32 _symbol)\n        public\n        constant\n        returns (uint)\n    {\n        TokenMetadata memory token = tokens[tokenBySymbol[_symbol]];\n        return token.decimals;\n    }\n\n    /// @dev Provides a registered token's address, looked up by symbol.\n    /// Useful when called by an external contract\n    /// @param _symbol Symbol of registered token.\n    /// @return Token address.\n    function getTokenAddressBySymbol(bytes32 _symbol)\n        public\n        constant\n        returns (address)\n    {\n        return tokenBySymbol[_symbol];\n    }\n\n\n    /// @dev Provides a registered token's symbol, looked up by address.\n    /// @param _address Address of registered token.\n    /// @return Token symbol.\n    function getTokenSymbolByAddress(address _address)\n        public\n        constant\n        returns (bytes32)\n    {\n        TokenMetadata memory token = tokens[_address];\n        return token.symbol;\n    }\n\n    /// @dev Returns an array containing all token addresses.\n    /// @return Array of token addresses.\n    function getTokenAddresses()\n        public\n        constant\n        returns (address[])\n    {\n        return tokenAddresses;\n    }\n\n    function interestRate()\n        public\n        constant\n        returns (uint)\n    {\n        return wmul(wdiv(interestRatePercentage, 100), 10 ** decimals);\n    }\n\n    function borrowableLevel()\n        public\n        constant\n        returns (uint)\n    {\n        return wmul(wdiv(100, initialMargin), 10 ** decimals);\n    }\n\n    /**\n        @notice allows the current owner to change the interestRateInterval.\n        @param _i bytes32 value as the interestRateInterval\n        @return true an acknowledgement that the interestRateInterval was set by the owner\n    */\n    function setInterestRateInterval(bytes32 _i) public auth returns (bool) {\n        interestRateInterval = _i;\n        return true;\n    }\n\n    /**\n        @notice allows the current owner to change the interestRatePercentage.\n        @param _i integer value as the interestRatePercentage\n        @return true an acknowledgement that the interestRatePercentage was set by the owner\n    */\n    function setInterestRatePercentage(uint _i) public auth returns (bool) {\n        interestRatePercentage = _i;\n        return true;\n    }\n\n    /**\n        @notice allows the current owner to change the daily interest rate.\n        @param _d integer value as the daily interest rate\n        @return true an acknowledgement that the daily interest rate was set by the owner\n    */\n    function setMaxLoanPeriodDays(uint _d) public auth returns (bool) {\n        maxLoanPeriodDays = _d;\n        return true;\n    }\n\n    /**\n        @notice allows the current owner to change the grace period.\n        @param _d integer value as the grace period\n        @return true an acknowledgement that the grace period was set by the owner\n    */\n    function setGracePeriodDays(uint _d) public auth returns (bool) {\n        gracePeriodDays = _d;\n        return true;\n    }\n\n    /**\n        @notice allows the current owner to change the initialMarginPercentage.\n        @param _percentage integer value as the initialMarginPercentage\n        @return true an acknowledgement that the initialMarginPercentage was set by the owner\n    */\n    function setInitialMarginPercentage(uint _percentage) public auth returns (bool) {\n        require(_percentage <= 100);\n        initialMargin = _percentage;\n        return true;\n    }\n\n    /**\n        @notice allows the current owner to change the liquidationMarginPercentage.\n        @param _percentage integer value as the liquidationMarginPercentage\n        @return true an acknowledgement that the liquidationMarginPercentage was set by the owner\n    */\n    function setLiquidationMarginPercentage(uint _percentage) public auth returns (bool) {\n        require(_percentage <= 100);\n        liquidationMargin = _percentage;\n        return true;\n    }\n}\n",
  "sourcePath": "/Users/vii/Desktop/lendroid/development/protocol-demo/contracts/NetworkParameters.sol",
  "compiler": {
    "name": "solc",
    "version": "0.4.18+commit.9cf6e910.Emscripten.clang"
  },
  "schemaVersion": "1.0.1",
  "updatedAt": "2017-11-16T08:46:43.346Z"
}