{
  "contractName": "NetworkParameters",
  "abi": [
    {
      "constant": true,
      "inputs": [
        {
          "name": "_type",
          "type": "bytes32"
        },
        {
          "name": "_token",
          "type": "address"
        },
        {
          "name": "_index",
          "type": "uint256"
        }
      ],
      "name": "initialMargin",
      "outputs": [
        {
          "name": "",
          "type": "uint256"
        }
      ],
      "payable": false,
      "stateMutability": "view",
      "type": "function"
    },
    {
      "constant": false,
      "inputs": [
        {
          "name": "_token",
          "type": "address"
        },
        {
          "name": "_index",
          "type": "uint256"
        }
      ],
      "name": "removeToken",
      "outputs": [
        {
          "name": "",
          "type": "uint256"
        }
      ],
      "payable": false,
      "stateMutability": "nonpayable",
      "type": "function"
    },
    {
      "constant": true,
      "inputs": [
        {
          "name": "_symbol",
          "type": "bytes32"
        },
        {
          "name": "_type",
          "type": "bytes32"
        }
      ],
      "name": "getTokenBySymbol",
      "outputs": [
        {
          "name": "",
          "type": "address"
        },
        {
          "name": "",
          "type": "bytes32"
        },
        {
          "name": "",
          "type": "bytes32"
        },
        {
          "name": "",
          "type": "uint256"
        },
        {
          "name": "",
          "type": "uint8"
        },
        {
          "name": "",
          "type": "uint256"
        }
      ],
      "payable": false,
      "stateMutability": "view",
      "type": "function"
    },
    {
      "constant": true,
      "inputs": [
        {
          "name": "_symbol",
          "type": "bytes32"
        },
        {
          "name": "_type",
          "type": "bytes32"
        }
      ],
      "name": "liquidationMargin",
      "outputs": [
        {
          "name": "",
          "type": "uint256"
        },
        {
          "name": "",
          "type": "bytes32"
        },
        {
          "name": "",
          "type": "bytes32"
        },
        {
          "name": "",
          "type": "uint256"
        },
        {
          "name": "",
          "type": "uint8"
        },
        {
          "name": "",
          "type": "uint256"
        }
      ],
      "payable": false,
      "stateMutability": "view",
      "type": "function"
    },
    {
      "constant": true,
      "inputs": [
        {
          "name": "",
          "type": "bytes32"
        }
      ],
      "name": "tokenBySymbol",
      "outputs": [
        {
          "name": "",
          "type": "address"
        }
      ],
      "payable": false,
      "stateMutability": "view",
      "type": "function"
    },
    {
      "constant": true,
      "inputs": [
        {
          "name": "",
          "type": "bytes32"
        }
      ],
      "name": "tradingTokens",
      "outputs": [
        {
          "name": "",
          "type": "bool"
        }
      ],
      "payable": false,
      "stateMutability": "view",
      "type": "function"
    },
    {
      "constant": true,
      "inputs": [],
      "name": "decimals",
      "outputs": [
        {
          "name": "",
          "type": "uint256"
        }
      ],
      "payable": false,
      "stateMutability": "view",
      "type": "function"
    },
    {
      "constant": false,
      "inputs": [
        {
          "name": "_token",
          "type": "address"
        },
        {
          "name": "_name",
          "type": "bytes32"
        },
        {
          "name": "_symbol",
          "type": "bytes32"
        },
        {
          "name": "_decimals",
          "type": "uint256"
        },
        {
          "name": "_value",
          "type": "uint256"
        },
        {
          "name": "supportedTypes",
          "type": "bytes32[3]"
        }
      ],
      "name": "addToken",
      "outputs": [
        {
          "name": "",
          "type": "bool"
        }
      ],
      "payable": false,
      "stateMutability": "nonpayable",
      "type": "function"
    },
    {
      "constant": true,
      "inputs": [
        {
          "name": "",
          "type": "bytes32"
        },
        {
          "name": "",
          "type": "address"
        }
      ],
      "name": "maximumAllowedMarginAccounts",
      "outputs": [
        {
          "name": "",
          "type": "uint256"
        },
        {
          "name": "name",
          "type": "bytes32"
        },
        {
          "name": "symbol",
          "type": "bytes32"
        },
        {
          "name": "decimals",
          "type": "uint256"
        },
        {
          "name": "status",
          "type": "uint8"
        },
        {
          "name": "value",
          "type": "uint256"
        }
      ],
      "payable": false,
      "stateMutability": "view",
      "type": "function"
    },
    {
      "constant": true,
      "inputs": [],
      "name": "tradingAllowed",
      "outputs": [
        {
          "name": "",
          "type": "bool"
        }
      ],
      "payable": false,
      "stateMutability": "view",
      "type": "function"
    },
    {
      "constant": false,
      "inputs": [
        {
          "name": "_symbol",
          "type": "bytes32"
        },
        {
          "name": "_tokenTypes",
          "type": "bytes32[3]"
        }
      ],
      "name": "removeSupport",
      "outputs": [
        {
          "name": "",
          "type": "bool"
        },
        {
          "name": "",
          "type": "bytes32"
        },
        {
          "name": "",
          "type": "bytes32"
        },
        {
          "name": "",
          "type": "uint256"
        },
        {
          "name": "",
          "type": "uint8"
        },
        {
          "name": "",
          "type": "uint256"
        }
      ],
      "payable": false,
      "stateMutability": "nonpayable",
      "type": "function"
    },
    {
      "constant": true,
      "inputs": [
        {
          "name": "_token",
          "type": "address"
        },
        {
          "name": "_name",
          "type": "bytes32"
        },
        {
          "name": "_symbol",
          "type": "bytes32"
        },
        {
          "name": "_decimals",
          "type": "uint256"
        },
        {
          "name": "_value",
          "type": "uint256"
        },
        {
          "name": "_type",
          "type": "bytes32"
        }
      ],
      "name": "getTokenMetaData",
      "outputs": [
        {
          "name": "",
          "type": "address"
        },
        {
          "name": "",
          "type": "bytes32"
        },
        {
          "name": "",
          "type": "bytes32"
        },
        {
          "name": "",
          "type": "uint256"
        },
        {
          "name": "",
          "type": "uint8"
        },
        {
          "name": "",
          "type": "uint256"
        }
      ],
      "payable": false,
      "stateMutability": "view",
      "type": "function"
    },
    {
      "constant": true,
      "inputs": [
        {
          "name": "",
          "type": "uint256"
        }
      ],
      "name": "owner",
      "outputs": [
        {
          "name": "",
          "type": "address"
        }
      ],
      "payable": false,
      "stateMutability": "view",
      "type": "function"
    },
    {
      "constant": false,
      "inputs": [
        {
          "name": "_symbol",
          "type": "bytes32"
        },
        {
          "name": "_tokenTypes",
          "type": "bytes32[3]"
        }
      ],
      "name": "addSupport",
      "outputs": [
        {
          "name": "",
          "type": "bool"
        }
      ],
      "payable": false,
      "stateMutability": "nonpayable",
      "type": "function"
    },
    {
      "constant": true,
      "inputs": [
        {
          "name": "_symbol",
          "type": "bytes32"
        }
      ],
      "name": "getTokenDecimalsBySymbol",
      "outputs": [
        {
          "name": "",
          "type": "uint256"
        }
      ],
      "payable": false,
      "stateMutability": "view",
      "type": "function"
    },
    {
      "constant": true,
      "inputs": [
        {
          "name": "",
          "type": "bytes32"
        }
      ],
      "name": "collateralTokens",
      "outputs": [
        {
          "name": "",
          "type": "bool"
        }
      ],
      "payable": false,
      "stateMutability": "view",
      "type": "function"
    },
    {
      "inputs": [
        {
          "name": "_address",
          "type": "address"
        }
      ],
      "payable": false,
      "stateMutability": "view",
      "type": "function",
      "constant": true,
      "name": "getTokenDecimalsByAddress",
      "outputs": [
        {
          "name": "",
          "type": "uint256"
        }
      ]
    },
    {
      "anonymous": false,
      "inputs": [
        {
          "indexed": true,
          "name": "_symbol",
          "type": "bytes32"
        },
        {
          "indexed": false,
          "name": "name",
          "type": "bytes32"
        },
        {
          "indexed": false,
          "name": "symbol",
          "type": "bytes32"
        },
        {
          "indexed": false,
          "name": "decimals",
          "type": "uint256"
        },
        {
          "indexed": false,
          "name": "status",
          "type": "uint8"
        },
        {
          "indexed": false,
          "name": "value",
          "type": "uint256"
        },
        {
          "indexed": false,
          "name": "tokenType",
          "type": "bytes32"
        },
        {
          "indexed": false,
          "name": "action",
          "type": "bytes32"
        }
      ],
      "name": "isValidSymbol",
      "type": "function",
      "constant": true,
      "outputs": [
        {
          "name": "",
          "type": "bool"
        }
      ],
      "payable": false,
      "stateMutability": "view"
    },
    {
      "constant": true,
      "inputs": [
        {
          "name": "",
          "type": "address"
        }
      ],
      "name": "tokens",
      "outputs": [
        {
          "name": "token",
          "type": "address"
        },
        {
          "name": "name",
          "type": "bytes32"
        },
        {
          "name": "symbol",
          "type": "bytes32"
        },
        {
          "name": "decimals",
          "type": "uint256"
        },
        {
          "name": "status",
          "type": "uint8"
        },
        {
          "name": "value",
          "type": "uint256"
        }
      ],
      "payable": false,
      "stateMutability": "view",
      "type": "function"
    },
    {
      "constant": true,
      "inputs": [
        {
          "name": "",
          "type": "uint256"
        }
      ],
      "name": "tokenAddresses",
      "outputs": [
        {
          "name": "",
          "type": "address"
        }
      ],
      "payable": false,
      "stateMutability": "view",
      "type": "function"
    },
    {
      "constant": true,
      "inputs": [],
      "name": "getTokenAddresses",
      "outputs": [
        {
          "name": "",
          "type": "address[]"
        }
      ],
      "payable": false,
      "stateMutability": "view",
      "type": "function"
    },
    {
      "constant": true,
      "inputs": [
        {
          "name": "",
          "type": "bytes32"
        }
      ],
      "name": "lendingTokens",
      "outputs": [
        {
          "name": "",
          "type": "bool"
        }
      ],
      "payable": false,
      "stateMutability": "view",
      "type": "function"
    },
    {
      "constant": false,
      "inputs": [
        {
          "name": "newOwner",
          "type": "address"
        }
      ],
      "name": "transferOwnership",
      "outputs": [],
      "payable": false,
      "stateMutability": "nonpayable",
      "type": "function"
    },
    {
      "inputs": [],
      "payable": false,
      "stateMutability": "nonpayable",
      "type": "constructor"
    },
    {
      "anonymous": false,
      "inputs": [
        {
          "indexed": true,
          "name": "token",
          "type": "address"
        },
        {
          "indexed": false,
          "name": "name",
          "type": "bytes32"
        },
        {
          "indexed": false,
          "name": "symbol",
          "type": "bytes32"
        },
        {
          "indexed": false,
          "name": "decimals",
          "type": "uint256"
        },
        {
          "indexed": false,
          "name": "status",
          "type": "uint8"
        },
        {
          "indexed": false,
          "name": "value",
          "type": "uint256"
        },
        {
          "indexed": false,
          "name": "action",
          "type": "bytes32"
        }
      ],
      "name": "LogTokenUpdated",
      "type": "event"
    }
  ],
  "bytecode": "0x60606040527f6c656e64696e67000000000000000000000000000000000000000000000000006005906000191690557f636f6c6c61746572616c000000000000000000000000000000000000000000006006906000191690557f74726164696e6700000000000000000000000000000000000000000000000000600790600019169055341561008d57600080fd5b336000806101000a81548173ffffffffffffffffffffffffffffffffffffffff021916908373ffffffffffffffffffffffffffffffffffffffff1602179055506001600060146101000a81548160ff02191690831515021790555060326001819055506004600281905550610fa06003819055506107d0600481905550612081806101196000396000f300606060405260043610610133576000357c0100000000000000000000000000000000000000000000000000000000900463ffffffff1680631029e85b1461013857806313baf1e6146101615780631f76fa34146101a35780632262697e1461024b57806326a2a16d1461027457806328ad119c146102db578063313ce5671461031a5780635289111c1461034357806352e9e10f146103d457806353371be0146103fd578063712c0cc91461042a5780637abccac9146104955780638da5cb5b1461054f578063be291c4f146105a4578063d12c7b101461060f578063d1a294c41461064a578063d902522914610689578063e19f86df146106d6578063e486033914610715578063e5df8b84146107cf578063ee8c24b814610832578063eeeaddef1461089c578063f2fde38b146108db575b600080fd5b341561014357600080fd5b61014b610914565b6040518082815260200191505060405180910390f35b341561016c57600080fd5b6101a1600480803573ffffffffffffffffffffffffffffffffffffffff1690602001909190803590602001909190505061091a565b005b34156101ae57600080fd5b6101c8600480803560001916906020019091905050610dbf565b604051808773ffffffffffffffffffffffffffffffffffffffff1673ffffffffffffffffffffffffffffffffffffffff1681526020018660001916600019168152602001856000191660001916815260200184815260200183600181111561022c57fe5b60ff168152602001828152602001965050505050505060405180910390f35b341561025657600080fd5b61025e610e27565b6040518082815260200191505060405180910390f35b341561027f57600080fd5b610299600480803560001916906020019091905050610e2d565b604051808273ffffffffffffffffffffffffffffffffffffffff1673ffffffffffffffffffffffffffffffffffffffff16815260200191505060405180910390f35b34156102e657600080fd5b610300600480803560001916906020019091905050610e60565b604051808215151515815260200191505060405180910390f35b341561032557600080fd5b61032d610e80565b6040518082815260200191505060405180910390f35b341561034e57600080fd5b6103d2600480803573ffffffffffffffffffffffffffffffffffffffff1690602001909190803560001916906020019091908035600019169060200190919080359060200190919080359060200190919080606001906003806020026040519081016040528092919082600360200280828437820191505050505091905050610e86565b005b34156103df57600080fd5b6103e761135a565b6040518082815260200191505060405180910390f35b341561040857600080fd5b610410611360565b604051808215151515815260200191505060405180910390f35b341561043557600080fd5b61047b6004808035600019169060200190919080606001906003806020026040519081016040528092919082600360200280828437820191505050505091905050611373565b604051808215151515815260200191505060405180910390f35b34156104a057600080fd5b6104cc600480803573ffffffffffffffffffffffffffffffffffffffff16906020019091905050611598565b604051808773ffffffffffffffffffffffffffffffffffffffff1673ffffffffffffffffffffffffffffffffffffffff1681526020018660001916600019168152602001856000191660001916815260200184815260200183600181111561053057fe5b60ff168152602001828152602001965050505050505060405180910390f35b341561055a57600080fd5b6105626116e5565b604051808273ffffffffffffffffffffffffffffffffffffffff1673ffffffffffffffffffffffffffffffffffffffff16815260200191505060405180910390f35b34156105af57600080fd5b6105f5600480803560001916906020019091908060600190600380602002604051908101604052809291908260036020028082843782019150505050509190505061170a565b604051808215151515815260200191505060405180910390f35b341561061a57600080fd5b61063460048080356000191690602001909190505061192f565b6040518082815260200191505060405180910390f35b341561065557600080fd5b61066f600480803560001916906020019091905050611a89565b604051808215151515815260200191505060405180910390f35b341561069457600080fd5b6106c0600480803573ffffffffffffffffffffffffffffffffffffffff16906020019091905050611aa9565b6040518082815260200191505060405180910390f35b34156106e157600080fd5b6106fb600480803560001916906020019091905050611bc8565b604051808215151515815260200191505060405180910390f35b341561072057600080fd5b61074c600480803573ffffffffffffffffffffffffffffffffffffffff16906020019091905050611d35565b604051808773ffffffffffffffffffffffffffffffffffffffff1673ffffffffffffffffffffffffffffffffffffffff168152602001866000191660001916815260200185600019166000191681526020018481526020018360018111156107b057fe5b60ff168152602001828152602001965050505050505060405180910390f35b34156107da57600080fd5b6107f06004808035906020019091905050611d9e565b604051808273ffffffffffffffffffffffffffffffffffffffff1673ffffffffffffffffffffffffffffffffffffffff16815260200191505060405180910390f35b341561083d57600080fd5b610845611ddd565b6040518080602001828103825283818151815260200191508051906020019060200280838360005b8381101561088857808201518184015260208101905061086d565b505050509050019250505060405180910390f35b34156108a757600080fd5b6108c1600480803560001916906020019091905050611e71565b604051808215151515815260200191505060405180910390f35b34156108e657600080fd5b610912600480803573ffffffffffffffffffffffffffffffffffffffff16906020019091905050611e91565b005b60035481565b60008060009054906101000a900473ffffffffffffffffffffffffffffffffffffffff1673ffffffffffffffffffffffffffffffffffffffff163373ffffffffffffffffffffffffffffffffffffffff1614151561097757600080fd5b8260018081111561098457fe5b600860008373ffffffffffffffffffffffffffffffffffffffff1673ffffffffffffffffffffffffffffffffffffffff16815260200190815260200160002060040160009054906101000a900460ff1660018111156109df57fe5b1415156109eb57600080fd5b8373ffffffffffffffffffffffffffffffffffffffff16600d84815481101515610a1157fe5b906000526020600020900160009054906101000a900473ffffffffffffffffffffffffffffffffffffffff1673ffffffffffffffffffffffffffffffffffffffff16141515610a5f57600080fd5b600d6001600d8054905003815481101515610a7657fe5b906000526020600020900160009054906101000a900473ffffffffffffffffffffffffffffffffffffffff16600d84815481101515610ab157fe5b906000526020600020900160006101000a81548173ffffffffffffffffffffffffffffffffffffffff021916908373ffffffffffffffffffffffffffffffffffffffff1602179055506001600d81818054905003915081610b129190611f66565b50600860008573ffffffffffffffffffffffffffffffffffffffff1673ffffffffffffffffffffffffffffffffffffffff16815260200190815260200160002091508160000160009054906101000a900473ffffffffffffffffffffffffffffffffffffffff1673ffffffffffffffffffffffffffffffffffffffff167f7beca59326c8f30286f798d4f9b394e7c533cc36ea405f230771e8012689c1b18360010154846002015485600301548660040160009054906101000a900460ff1687600501546040518086600019166000191681526020018560001916600019168152602001848152602001836001811115610c0857fe5b60ff168152602001828152602001807f746f6b656e2072656d6f766564000000000000000000000000000000000000008152506020019550505050505060405180910390a2600c600083600201546000191660001916815260200190815260200160002060006101000a81549073ffffffffffffffffffffffffffffffffffffffff02191690556009600083600201546000191660001916815260200190815260200160002060006101000a81549060ff0219169055600a600083600201546000191660001916815260200190815260200160002060006101000a81549060ff0219169055600b600083600201546000191660001916815260200190815260200160002060006101000a81549060ff0219169055600860008573ffffffffffffffffffffffffffffffffffffffff1673ffffffffffffffffffffffffffffffffffffffff168152602001908152602001600020600080820160006101000a81549073ffffffffffffffffffffffffffffffffffffffff02191690556001820160009055600282016000905560038201600090556004820160006101000a81549060ff02191690556005820160009055505050505050565b6000806000806000806000600c6000896000191660001916815260200190815260200160002060009054906101000a900473ffffffffffffffffffffffffffffffffffffffff169050610e1181611598565b9650965096509650965096505091939550919395565b60045481565b600c6020528060005260406000206000915054906101000a900473ffffffffffffffffffffffffffffffffffffffff1681565b600b6020528060005260406000206000915054906101000a900460ff1681565b60025481565b6000809054906101000a900473ffffffffffffffffffffffffffffffffffffffff1673ffffffffffffffffffffffffffffffffffffffff163373ffffffffffffffffffffffffffffffffffffffff16141515610ee157600080fd5b85600180811115610eee57fe5b600860008373ffffffffffffffffffffffffffffffffffffffff1673ffffffffffffffffffffffffffffffffffffffff16815260200190815260200160002060040160009054906101000a900460ff166001811115610f4957fe5b14151515610f5657600080fd5b86600073ffffffffffffffffffffffffffffffffffffffff168173ffffffffffffffffffffffffffffffffffffffff1614151515610f9357600080fd5b60c0604051908101604052808973ffffffffffffffffffffffffffffffffffffffff1681526020018860001916815260200187600019168152602001868152602001600180811115610fe157fe5b815260200185815250600860008a73ffffffffffffffffffffffffffffffffffffffff1673ffffffffffffffffffffffffffffffffffffffff16815260200190815260200160002060008201518160000160006101000a81548173ffffffffffffffffffffffffffffffffffffffff021916908373ffffffffffffffffffffffffffffffffffffffff16021790555060208201518160010190600019169055604082015181600201906000191690556060820151816003015560808201518160040160006101000a81548160ff021916908360018111156110be57fe5b021790555060a08201518160050155905050600d80548060010182816110e49190611f92565b916000526020600020900160008a909190916101000a81548173ffffffffffffffffffffffffffffffffffffffff021916908373ffffffffffffffffffffffffffffffffffffffff1602179055505087600c6000886000191660001916815260200190815260200160002060006101000a81548173ffffffffffffffffffffffffffffffffffffffff021916908373ffffffffffffffffffffffffffffffffffffffff160217905550600554600019168360006003811015156111a357fe5b60200201516000191614156111e757600160096000886000191660001916815260200190815260200160002060006101000a81548160ff0219169083151502179055505b600654600019168360016003811015156111fd57fe5b6020020151600019161415611241576001600a6000886000191660001916815260200190815260200160002060006101000a81548160ff0219169083151502179055505b6007546000191683600260038110151561125757fe5b602002015160001916141561129b576001600b6000886000191660001916815260200190815260200160002060006101000a81548160ff0219169083151502179055505b8773ffffffffffffffffffffffffffffffffffffffff167f7beca59326c8f30286f798d4f9b394e7c533cc36ea405f230771e8012689c1b1888888600189604051808660001916600019168152602001856000191660001916815260200184815260200183600181111561130b57fe5b60ff168152602001828152602001807f746f6b656e2061646465640000000000000000000000000000000000000000008152506020019550505050505060405180910390a25050505050505050565b60015481565b600060149054906101000a900460ff1681565b60008060009054906101000a900473ffffffffffffffffffffffffffffffffffffffff1673ffffffffffffffffffffffffffffffffffffffff163373ffffffffffffffffffffffffffffffffffffffff161415156113d057600080fd5b826001808111156113dd57fe5b60086000600c6000856000191660001916815260200190815260200160002060009054906101000a900473ffffffffffffffffffffffffffffffffffffffff1673ffffffffffffffffffffffffffffffffffffffff1673ffffffffffffffffffffffffffffffffffffffff16815260200190815260200160002060040160009054906101000a900460ff16600181111561147357fe5b14151561147f57600080fd5b6005546000191683600060038110151561149557fe5b60200201516000191614156114d957600060096000866000191660001916815260200190815260200160002060006101000a81548160ff0219169083151502179055505b600654600019168360016003811015156114ef57fe5b6020020151600019161415611533576000600a6000866000191660001916815260200190815260200160002060006101000a81548160ff0219169083151502179055505b6007546000191683600260038110151561154957fe5b602002015160001916141561158d576000600b6000866000191660001916815260200190815260200160002060006101000a81548160ff0219169083151502179055505b600191505092915050565b6000806000806000806115a9611fbe565b600860008973ffffffffffffffffffffffffffffffffffffffff1673ffffffffffffffffffffffffffffffffffffffff16815260200190815260200160002060c060405190810160405290816000820160009054906101000a900473ffffffffffffffffffffffffffffffffffffffff1673ffffffffffffffffffffffffffffffffffffffff1673ffffffffffffffffffffffffffffffffffffffff168152602001600182015460001916600019168152602001600282015460001916600019168152602001600382015481526020016004820160009054906101000a900460ff16600181111561169657fe5b60018111156116a157fe5b81526020016005820154815250509050806000015181602001518260400151836060015184608001518560a001519650965096509650965096505091939550919395565b6000809054906101000a900473ffffffffffffffffffffffffffffffffffffffff1681565b60008060009054906101000a900473ffffffffffffffffffffffffffffffffffffffff1673ffffffffffffffffffffffffffffffffffffffff163373ffffffffffffffffffffffffffffffffffffffff1614151561176757600080fd5b8260018081111561177457fe5b60086000600c6000856000191660001916815260200190815260200160002060009054906101000a900473ffffffffffffffffffffffffffffffffffffffff1673ffffffffffffffffffffffffffffffffffffffff1673ffffffffffffffffffffffffffffffffffffffff16815260200190815260200160002060040160009054906101000a900460ff16600181111561180a57fe5b14151561181657600080fd5b6005546000191683600060038110151561182c57fe5b602002015160001916141561187057600160096000866000191660001916815260200190815260200160002060006101000a81548160ff0219169083151502179055505b6006546000191683600160038110151561188657fe5b60200201516000191614156118ca576001600a6000866000191660001916815260200190815260200160002060006101000a81548160ff0219169083151502179055505b600754600019168360026003811015156118e057fe5b6020020151600019161415611924576001600b6000866000191660001916815260200190815260200160002060006101000a81548160ff0219169083151502179055505b600191505092915050565b6000611939611fbe565b60086000600c6000866000191660001916815260200190815260200160002060009054906101000a900473ffffffffffffffffffffffffffffffffffffffff1673ffffffffffffffffffffffffffffffffffffffff1673ffffffffffffffffffffffffffffffffffffffff16815260200190815260200160002060c060405190810160405290816000820160009054906101000a900473ffffffffffffffffffffffffffffffffffffffff1673ffffffffffffffffffffffffffffffffffffffff1673ffffffffffffffffffffffffffffffffffffffff168152602001600182015460001916600019168152602001600282015460001916600019168152602001600382015481526020016004820160009054906101000a900460ff166001811115611a6157fe5b6001811115611a6c57fe5b815260200160058201548152505090508060600151915050919050565b600a6020528060005260406000206000915054906101000a900460ff1681565b6000611ab3611fbe565b600860008473ffffffffffffffffffffffffffffffffffffffff1673ffffffffffffffffffffffffffffffffffffffff16815260200190815260200160002060c060405190810160405290816000820160009054906101000a900473ffffffffffffffffffffffffffffffffffffffff1673ffffffffffffffffffffffffffffffffffffffff1673ffffffffffffffffffffffffffffffffffffffff168152602001600182015460001916600019168152602001600282015460001916600019168152602001600382015481526020016004820160009054906101000a900460ff166001811115611ba057fe5b6001811115611bab57fe5b815260200160058201548152505090508060600151915050919050565b600081600180811115611bd757fe5b60086000600c6000856000191660001916815260200190815260200160002060009054906101000a900473ffffffffffffffffffffffffffffffffffffffff1673ffffffffffffffffffffffffffffffffffffffff1673ffffffffffffffffffffffffffffffffffffffff16815260200190815260200160002060040160009054906101000a900460ff166001811115611c6d57fe5b141515611c7957600080fd5b600180811115611c8557fe5b60086000600c6000876000191660001916815260200190815260200160002060009054906101000a900473ffffffffffffffffffffffffffffffffffffffff1673ffffffffffffffffffffffffffffffffffffffff1673ffffffffffffffffffffffffffffffffffffffff16815260200190815260200160002060040160009054906101000a900460ff166001811115611d1b57fe5b1415611d2a5760019150611d2f565b600091505b50919050565b60086020528060005260406000206000915090508060000160009054906101000a900473ffffffffffffffffffffffffffffffffffffffff16908060010154908060020154908060030154908060040160009054906101000a900460ff16908060050154905086565b600d81815481101515611dad57fe5b90600052602060002090016000915054906101000a900473ffffffffffffffffffffffffffffffffffffffff1681565b611de561201c565b600d805480602002602001604051908101604052809291908181526020018280548015611e6757602002820191906000526020600020905b8160009054906101000a900473ffffffffffffffffffffffffffffffffffffffff1673ffffffffffffffffffffffffffffffffffffffff1681526020019060010190808311611e1d575b5050505050905090565b60096020528060005260406000206000915054906101000a900460ff1681565b6000809054906101000a900473ffffffffffffffffffffffffffffffffffffffff1673ffffffffffffffffffffffffffffffffffffffff163373ffffffffffffffffffffffffffffffffffffffff16141515611eec57600080fd5b600073ffffffffffffffffffffffffffffffffffffffff168173ffffffffffffffffffffffffffffffffffffffff16141515611f6357806000806101000a81548173ffffffffffffffffffffffffffffffffffffffff021916908373ffffffffffffffffffffffffffffffffffffffff1602179055505b50565b815481835581811511611f8d57818360005260206000209182019101611f8c9190612030565b5b505050565b815481835581811511611fb957818360005260206000209182019101611fb89190612030565b5b505050565b60c060405190810160405280600073ffffffffffffffffffffffffffffffffffffffff1681526020016000801916815260200160008019168152602001600081526020016000600181111561200f57fe5b8152602001600081525090565b602060405190810160405280600081525090565b61205291905b8082111561204e576000816000905550600101612036565b5090565b905600a165627a7a723058202509e2687707d841321aeda168004e10b4f091de7becd4affebad5a2b66e144b0029",
  "source": "pragma solidity 0.4.18;\r\n\r\nimport \"./Ownable.sol\";\r\n\r\n// FOR DEMO\r\n\r\ncontract NetworkParameters is Ownable {\r\n    bool public tradingAllowed;\r\n    uint public maximumAllowedMarginAccounts;\r\n    uint public decimals;\r\n    uint public initialMargin;\r\n    uint public liquidationMargin;\r\n    \r\n    bytes32 internal TOKEN_TYPE_LENDING = \"lending\";\r\n    bytes32 internal TOKEN_TYPE_COLLATERAL = \"collateral\";\r\n    bytes32 internal TOKEN_TYPE_TRADING = \"trading\";\r\n    \r\n    mapping (address => TokenMetadata) public tokens;\r\n    mapping (bytes32 => bool) public lendingTokens;\r\n    mapping (bytes32 => bool) public collateralTokens;\r\n    mapping (bytes32 => bool) public tradingTokens;\r\n    mapping (bytes32 => address) public tokenBySymbol;\r\n\r\n    address[] public tokenAddresses;\r\n    \r\n    // Token Registry\r\n    event LogTokenUpdated(\r\n        address indexed token,\r\n        bytes32 name,\r\n        bytes32 symbol,\r\n        uint decimals,\r\n        Status status,\r\n        uint value,\r\n        bytes32 action\r\n    );\r\n    \r\n    enum Status {\r\n        INACTIVE, // Set to inactive when a token is deactivated\r\n        ACTIVE    // Default status when a new token is added\r\n    }\r\n\r\n    struct TokenMetadata {\r\n        address token;\r\n        bytes32 name;\r\n        bytes32 symbol;\r\n        uint decimals;\r\n        Status status;\r\n        uint value;\r\n    }\r\n\r\n    modifier tokenExists(address _token) {\r\n        require(tokens[_token].status == Status.ACTIVE);\r\n        _;\r\n    }\r\n\r\n    modifier tokenDoesNotExist(address _token) {\r\n        require(tokens[_token].status != Status.ACTIVE);\r\n        _;\r\n    }\r\n\r\n    modifier symbolExists(bytes32 _symbol) {\r\n        require(tokens[tokenBySymbol[_symbol]].status == Status.ACTIVE);\r\n        _;\r\n    }\r\n\r\n    modifier addressNotNull(address _address) {\r\n        require(_address != address(0));\r\n        _;\r\n    }\r\n\r\n    function NetworkParameters() {\r\n        tradingAllowed = true;\r\n        maximumAllowedMarginAccounts = 50;\r\n        decimals = 4;\r\n        initialMargin = 4000;\r\n        liquidationMargin = 2000;\r\n    }\r\n\r\n    function isValidSymbol(bytes32 _symbol)\r\n        public\r\n        constant\r\n        symbolExists(_symbol) \r\n        returns (bool)\r\n    {\r\n        if (tokens[tokenBySymbol[_symbol]].status == Status.ACTIVE) {\r\n            return true;\r\n        }\r\n        else {\r\n            return false;\r\n        }\r\n    }\r\n\r\n    /// @dev Allows owner to add a new token to the registry.\r\n    /// @param _token Address of new token.\r\n    /// @param _name Name of new token.\r\n    /// @param _symbol Symbol for new token.\r\n    /// @param _decimals Number of decimals, divisibility of new token.\r\n    function addToken(\r\n            address _token,\r\n            bytes32 _name,\r\n            bytes32 _symbol,\r\n            uint _decimals,\r\n            uint _value,\r\n            bytes32[3] supportedTypes\r\n        )\r\n        public\r\n        onlyOwner\r\n        tokenDoesNotExist(_token)\r\n        addressNotNull(_token)\r\n    {\r\n        tokens[_token] = TokenMetadata({\r\n            token: _token,\r\n            name: _name,\r\n            symbol: _symbol,\r\n            decimals: _decimals,\r\n            status: Status.ACTIVE,\r\n            value: _value\r\n        });\r\n        tokenAddresses.push(_token);\r\n        tokenBySymbol[_symbol] = _token;\r\n        \r\n        if (supportedTypes[0] == TOKEN_TYPE_LENDING) {\r\n            lendingTokens[_symbol] = true;\r\n        }\r\n        if (supportedTypes[1] == TOKEN_TYPE_COLLATERAL) {\r\n            collateralTokens[_symbol] = true;\r\n        }\r\n        if (supportedTypes[2] == TOKEN_TYPE_TRADING) {\r\n            tradingTokens[_symbol] = true;\r\n        }\r\n        LogTokenUpdated(\r\n            _token,\r\n            _name,\r\n            _symbol,\r\n            _decimals,\r\n            Status.ACTIVE,\r\n            _value,\r\n            \"token added\"\r\n        );\r\n    }\r\n\r\n    function addSupport(\r\n            bytes32 _symbol,\r\n            bytes32[3] _tokenTypes\r\n        )\r\n        public\r\n        onlyOwner\r\n        symbolExists(_symbol) \r\n        returns (bool)\r\n    {\r\n        if (_tokenTypes[0] == TOKEN_TYPE_LENDING) {\r\n            lendingTokens[_symbol] = true;\r\n        }\r\n        if (_tokenTypes[1] == TOKEN_TYPE_COLLATERAL) {\r\n            collateralTokens[_symbol] = true;\r\n        }\r\n        if (_tokenTypes[2] == TOKEN_TYPE_TRADING) {\r\n            tradingTokens[_symbol] = true;\r\n        }\r\n        return true;\r\n    }\r\n\r\n    function removeSupport(\r\n            bytes32 _symbol,\r\n            bytes32[3] _tokenTypes\r\n        )\r\n        public\r\n        onlyOwner\r\n        symbolExists(_symbol) \r\n        returns (bool)\r\n    {\r\n        if (_tokenTypes[0] == TOKEN_TYPE_LENDING) {\r\n            lendingTokens[_symbol] = false;\r\n        }\r\n        if (_tokenTypes[1] == TOKEN_TYPE_COLLATERAL) {\r\n            collateralTokens[_symbol] = false;\r\n        }\r\n        if (_tokenTypes[2] == TOKEN_TYPE_TRADING) {\r\n            tradingTokens[_symbol] = false;\r\n        }\r\n        return true;\r\n    }\r\n\r\n    /// @dev Allows owner to remove an existing token from the registry.\r\n    /// @param _token Address of existing token.\r\n    function removeToken(\r\n            address _token,\r\n            uint _index\r\n        )\r\n        public\r\n        onlyOwner\r\n        tokenExists(_token)\r\n    {\r\n        require(tokenAddresses[_index] == _token);\r\n\r\n        tokenAddresses[_index] = tokenAddresses[tokenAddresses.length - 1];\r\n        tokenAddresses.length -= 1;\r\n\r\n        TokenMetadata storage token = tokens[_token];\r\n        \r\n        LogTokenUpdated(\r\n            token.token,\r\n            token.name,\r\n            token.symbol,\r\n            token.decimals,\r\n            token.status,\r\n            token.value,\r\n            \"token removed\"\r\n        );\r\n        delete tokenBySymbol[token.symbol];\r\n        delete lendingTokens[token.symbol];\r\n        delete collateralTokens[token.symbol];\r\n        delete tradingTokens[token.symbol];\r\n        delete tokens[_token];\r\n        \r\n    }\r\n\r\n    /// @dev Provides a registered token's metadata, looked up by address.\r\n    /// @param _token Address of registered token.\r\n    /// @return Token metadata.\r\n    function getTokenMetaData(address _token)\r\n        public\r\n        constant\r\n        returns (\r\n            address, //tokenAddress\r\n            bytes32, //name\r\n            bytes32, //symbol\r\n            uint,    //decimals\r\n            Status,  //status\r\n            uint     //value\r\n        )\r\n    {\r\n        TokenMetadata memory token = tokens[_token];\r\n        return (\r\n            token.token,\r\n            token.name,\r\n            token.symbol,\r\n            token.decimals,\r\n            token.status,\r\n            token.value\r\n        );\r\n    }\r\n\r\n    /// @dev Provides a registered token's metadata, looked up by symbol.\r\n    /// @param _symbol Symbol of registered token.\r\n    /// @return Token metadata.\r\n    function getTokenBySymbol(bytes32 _symbol)\r\n        public\r\n        constant\r\n        returns (\r\n            address, //tokenAddress\r\n            bytes32, //name\r\n            bytes32, //symbol\r\n            uint,    //decimals\r\n            Status,  //status\r\n            uint     //value\r\n            )\r\n    {\r\n        address _token = tokenBySymbol[_symbol];\r\n        return getTokenMetaData(_token);\r\n    }\r\n\r\n    /// @dev Provides a registered token's decimals, looked up by address.\r\n    /// @param _address Address of registered token.\r\n    /// @return Token decimals.\r\n    function getTokenDecimalsByAddress(address _address)\r\n        public\r\n        constant\r\n        returns (uint)\r\n    {\r\n        TokenMetadata memory token = tokens[_address];\r\n        return token.decimals;\r\n    }\r\n\r\n    /// @dev Provides a registered token's decimals, looked up by symbol.\r\n    /// @param _symbol Symbol of registered token.\r\n    /// @return Token decimals.\r\n    function getTokenDecimalsBySymbol(bytes32 _symbol)\r\n        public\r\n        constant\r\n        returns (uint)\r\n    {\r\n        TokenMetadata memory token = tokens[tokenBySymbol[_symbol]];\r\n        return token.decimals;\r\n    }\r\n\r\n    /// @dev Returns an array containing all token addresses.\r\n    /// @return Array of token addresses.\r\n    function getTokenAddresses()\r\n        public\r\n        constant\r\n        returns (address[])\r\n    {\r\n        return tokenAddresses;\r\n    }\r\n\r\n}",
  "sourcePath": "C:\\work\\programming\\ethereum\\lendroid\\protocol-demo\\contracts\\NetworkParameters.sol",
  "compiler": {
    "name": "solc",
    "version": "0.4.18+commit.9cf6e910.Emscripten.clang"
  },
  "schemaVersion": "1.0.1",
  "updatedAt": "2017-11-03T09:45:30.553Z"
}