{
  "contractName": "Oracle",
  "abi": [
    {
      "constant": false,
      "inputs": [
        {
          "name": "_address",
          "type": "address"
        }
      ],
      "name": "setLendroidPriceFeedManager",
      "outputs": [
        {
          "name": "",
          "type": "bool"
        }
      ],
      "payable": false,
      "stateMutability": "nonpayable",
      "type": "function"
    },
    {
      "constant": false,
      "inputs": [
        {
          "name": "_symbol",
          "type": "bytes32"
        },
        {
          "name": "_price",
          "type": "uint256"
        }
      ],
      "name": "updateTokenPrice",
      "outputs": [
        {
          "name": "",
          "type": "bool"
        }
      ],
      "payable": false,
      "stateMutability": "nonpayable",
      "type": "function"
    },
    {
      "constant": true,
      "inputs": [
        {
          "name": "_symbol",
          "type": "bytes32"
        }
      ],
      "name": "getPrice",
      "outputs": [
        {
          "name": "",
          "type": "uint256"
        }
      ],
      "payable": false,
      "stateMutability": "view",
      "type": "function"
    },
    {
      "constant": true,
      "inputs": [],
      "name": "owner",
      "outputs": [
        {
          "name": "",
          "type": "address"
        }
      ],
      "payable": false,
      "stateMutability": "view",
      "type": "function"
    },
    {
      "constant": false,
      "inputs": [
        {
          "name": "newOwner",
          "type": "address"
        }
      ],
      "name": "transferOwnership",
      "outputs": [],
      "payable": false,
      "stateMutability": "nonpayable",
      "type": "function"
    }
  ],
  "bytecode": "0x6060604052336000806101000a81548173ffffffffffffffffffffffffffffffffffffffff021916908373ffffffffffffffffffffffffffffffffffffffff16021790555061044e806100536000396000f30060606040526004361061006d576000357c0100000000000000000000000000000000000000000000000000000000900463ffffffff168063212e8100146100725780632d880521146100c357806331d98b3f1461010b5780638da5cb5b14610146578063f2fde38b1461019b575b600080fd5b341561007d57600080fd5b6100a9600480803573ffffffffffffffffffffffffffffffffffffffff169060200190919050506101d4565b604051808215151515815260200191505060405180910390f35b34156100ce57600080fd5b6100f160048080356000191690602001909190803590602001909190505061027b565b604051808215151515815260200191505060405180910390f35b341561011657600080fd5b610130600480803560001916906020019091905050610303565b6040518082815260200191505060405180910390f35b341561015157600080fd5b610159610328565b604051808273ffffffffffffffffffffffffffffffffffffffff1673ffffffffffffffffffffffffffffffffffffffff16815260200191505060405180910390f35b34156101a657600080fd5b6101d2600480803573ffffffffffffffffffffffffffffffffffffffff1690602001909190505061034d565b005b60008060009054906101000a900473ffffffffffffffffffffffffffffffffffffffff1673ffffffffffffffffffffffffffffffffffffffff163373ffffffffffffffffffffffffffffffffffffffff1614151561023157600080fd5b81600260006101000a81548173ffffffffffffffffffffffffffffffffffffffff021916908373ffffffffffffffffffffffffffffffffffffffff16021790555060019050919050565b6000600260009054906101000a900473ffffffffffffffffffffffffffffffffffffffff1673ffffffffffffffffffffffffffffffffffffffff163373ffffffffffffffffffffffffffffffffffffffff161415156102d957600080fd5b81600160008560001916600019168152602001908152602001600020819055506001905092915050565b6000600160008360001916600019168152602001908152602001600020549050919050565b6000809054906101000a900473ffffffffffffffffffffffffffffffffffffffff1681565b6000809054906101000a900473ffffffffffffffffffffffffffffffffffffffff1673ffffffffffffffffffffffffffffffffffffffff163373ffffffffffffffffffffffffffffffffffffffff161415156103a857600080fd5b600073ffffffffffffffffffffffffffffffffffffffff168173ffffffffffffffffffffffffffffffffffffffff1614151561041f57806000806101000a81548173ffffffffffffffffffffffffffffffffffffffff021916908373ffffffffffffffffffffffffffffffffffffffff1602179055505b505600a165627a7a72305820debd33a357ee40da016647065495a98664d1d69899f2474268387b85e7d7ffa80029",
  "source": "\r\n/*\r\n    Coinmarketcap-based price updater\r\n    For now, this is manual. Will be updated every ~60 seconds.\r\n*/\r\n\r\npragma solidity ^0.4.18;\r\nimport \"./Ownable.sol\";\r\nimport \"./PriceFeedManager.sol\";\r\n\r\ncontract Oracle is Ownable {\r\n\r\n    mapping (bytes32 => uint) tokenPrices;\r\n    \r\n    PriceFeedManager LendroidPriceFeedManager;\r\n\r\n    // @dev Throws if called by any account other than the owner.\r\n    modifier onlyLendroidPriceFeedManager() {\r\n        require(msg.sender == address(LendroidPriceFeedManager));\r\n        _;\r\n    }\r\n\r\n    /// @dev Allows owner to set the PriceFeedManager contract.\r\n    /// @param _address Address of the PriceFeedManager contract.\r\n    function setLendroidPriceFeedManager(address _address) public onlyOwner returns (bool) {\r\n        LendroidPriceFeedManager = PriceFeedManager(_address);\r\n        return true;\r\n    }\r\n\r\n    function updateTokenPrice(bytes32 _symbol, uint _price) \r\n        public \r\n        onlyLendroidPriceFeedManager\r\n        returns (bool)\r\n    {\r\n        tokenPrices[_symbol] = _price;\r\n        return true;\r\n    }\r\n    \r\n    function getPrice(bytes32 _symbol) public constant returns (uint) {\r\n        return tokenPrices[_symbol];\r\n    }\r\n}",
  "sourcePath": "C:\\work\\programming\\ethereum\\lendroid\\protocol-demo\\contracts\\Oracle.sol",
  "compiler": {
    "name": "solc",
    "version": "0.4.18+commit.9cf6e910.Emscripten.clang"
  },
  "schemaVersion": "1.0.1",
  "updatedAt": "2017-11-03T09:45:30.474Z"
}