{
  "contractName": "OrderManager",
  "abi": [
    {
      "constant": false,
      "inputs": [],
      "name": "stop",
      "outputs": [],
      "payable": false,
      "stateMutability": "nonpayable",
      "type": "function"
    },
    {
      "constant": false,
      "inputs": [
        {
          "name": "owner_",
          "type": "address"
        }
      ],
      "name": "setOwner",
      "outputs": [],
      "payable": false,
      "stateMutability": "nonpayable",
      "type": "function"
    },
    {
      "constant": true,
      "inputs": [],
      "name": "LendroidNetworkParameters",
      "outputs": [
        {
          "name": "",
          "type": "address"
        }
      ],
      "payable": false,
      "stateMutability": "view",
      "type": "function"
    },
    {
      "constant": false,
      "inputs": [
        {
          "name": "_makerTokenSymbol",
          "type": "bytes32"
        },
        {
          "name": "_takerTokenSymbol",
          "type": "bytes32"
        },
        {
          "name": "_makerTokenAmount",
          "type": "uint256"
        },
        {
          "name": "_takerTokenAmount",
          "type": "uint256"
        }
      ],
      "name": "createOrder",
      "outputs": [
        {
          "name": "",
          "type": "bool"
        }
      ],
      "payable": false,
      "stateMutability": "nonpayable",
      "type": "function"
    },
    {
      "constant": true,
      "inputs": [],
      "name": "LendroidPositionManager",
      "outputs": [
        {
          "name": "",
          "type": "address"
        }
      ],
      "payable": false,
      "stateMutability": "view",
      "type": "function"
    },
    {
      "constant": true,
      "inputs": [],
      "name": "stopped",
      "outputs": [
        {
          "name": "",
          "type": "bool"
        }
      ],
      "payable": false,
      "stateMutability": "view",
      "type": "function"
    },
    {
      "constant": false,
      "inputs": [
        {
          "name": "authority_",
          "type": "address"
        }
      ],
      "name": "setAuthority",
      "outputs": [],
      "payable": false,
      "stateMutability": "nonpayable",
      "type": "function"
    },
    {
      "constant": false,
      "inputs": [
        {
          "name": "_address",
          "type": "address"
        }
      ],
      "name": "setLendroidNetworkParameters",
      "outputs": [
        {
          "name": "",
          "type": "bool"
        }
      ],
      "payable": false,
      "stateMutability": "nonpayable",
      "type": "function"
    },
    {
      "constant": true,
      "inputs": [],
      "name": "owner",
      "outputs": [
        {
          "name": "",
          "type": "address"
        }
      ],
      "payable": false,
      "stateMutability": "view",
      "type": "function"
    },
    {
      "constant": true,
      "inputs": [
        {
          "name": "",
          "type": "bytes32"
        }
      ],
      "name": "orders",
      "outputs": [
        {
          "name": "timestamp",
          "type": "uint256"
        },
        {
          "name": "maker",
          "type": "address"
        },
        {
          "name": "taker",
          "type": "address"
        },
        {
          "name": "makerTokenSymbol",
          "type": "bytes32"
        },
        {
          "name": "takerTokenSymbol",
          "type": "bytes32"
        },
        {
          "name": "makerToken",
          "type": "address"
        },
        {
          "name": "takerToken",
          "type": "address"
        },
        {
          "name": "makerTokenAmount",
          "type": "uint256"
        },
        {
          "name": "takerTokenAmount",
          "type": "uint256"
        },
        {
          "name": "lastUpdated",
          "type": "uint256"
        },
        {
          "name": "expiresOn",
          "type": "uint256"
        },
        {
          "name": "status",
          "type": "uint8"
        },
        {
          "name": "orderHash",
          "type": "bytes32"
        }
      ],
      "payable": false,
      "stateMutability": "view",
      "type": "function"
    },
    {
      "constant": true,
      "inputs": [
        {
          "name": "_orderHash",
          "type": "bytes32"
        }
      ],
      "name": "isOrderFillable",
      "outputs": [
        {
          "name": "",
          "type": "bool"
        }
      ],
      "payable": false,
      "stateMutability": "view",
      "type": "function"
    },
    {
      "constant": false,
      "inputs": [],
      "name": "start",
      "outputs": [],
      "payable": false,
      "stateMutability": "nonpayable",
      "type": "function"
    },
    {
      "constant": true,
      "inputs": [],
      "name": "authority",
      "outputs": [
        {
          "name": "",
          "type": "address"
        }
      ],
      "payable": false,
      "stateMutability": "view",
      "type": "function"
    },
    {
      "constant": false,
      "inputs": [
        {
          "name": "_address",
          "type": "address"
        }
      ],
      "name": "setLendroidPositionManager",
      "outputs": [
        {
          "name": "",
          "type": "bool"
        }
      ],
      "payable": false,
      "stateMutability": "nonpayable",
      "type": "function"
    },
    {
      "constant": false,
      "inputs": [
        {
          "name": "_orderHash",
          "type": "bytes32"
        }
      ],
      "name": "fillOrder",
      "outputs": [
        {
          "name": "",
          "type": "bool"
        }
      ],
      "payable": false,
      "stateMutability": "nonpayable",
      "type": "function"
    },
    {
      "payable": false,
      "stateMutability": "nonpayable",
      "type": "fallback"
    },
    {
      "anonymous": false,
      "inputs": [
        {
          "indexed": false,
          "name": "_orderHash",
          "type": "bytes32"
        },
        {
          "indexed": false,
          "name": "_maker",
          "type": "address"
        },
        {
          "indexed": false,
          "name": "_taker",
          "type": "address"
        },
        {
          "indexed": false,
          "name": "_makerTokenSymbol",
          "type": "bytes32"
        },
        {
          "indexed": false,
          "name": "_takerTokenSymbol",
          "type": "bytes32"
        },
        {
          "indexed": false,
          "name": "_makerToken",
          "type": "address"
        },
        {
          "indexed": false,
          "name": "_takerToken",
          "type": "address"
        },
        {
          "indexed": false,
          "name": "_makerTokenAmount",
          "type": "uint256"
        },
        {
          "indexed": false,
          "name": "_takerTokenAmount",
          "type": "uint256"
        },
        {
          "indexed": false,
          "name": "_action",
          "type": "bytes32"
        }
      ],
      "name": "LogOrderUpdated",
      "type": "event"
    },
    {
      "anonymous": false,
      "inputs": [
        {
          "indexed": true,
          "name": "authority",
          "type": "address"
        }
      ],
      "name": "LogSetAuthority",
      "type": "event"
    },
    {
      "anonymous": false,
      "inputs": [
        {
          "indexed": true,
          "name": "owner",
          "type": "address"
        }
      ],
      "name": "LogSetOwner",
      "type": "event"
    },
    {
      "anonymous": true,
      "inputs": [
        {
          "indexed": true,
          "name": "sig",
          "type": "bytes4"
        },
        {
          "indexed": true,
          "name": "guy",
          "type": "address"
        },
        {
          "indexed": true,
          "name": "foo",
          "type": "bytes32"
        },
        {
          "indexed": true,
          "name": "bar",
          "type": "bytes32"
        },
        {
          "indexed": false,
          "name": "wad",
          "type": "uint256"
        },
        {
          "indexed": false,
          "name": "fax",
          "type": "bytes"
        }
      ],
      "name": "LogNote",
      "type": "event"
    }
  ],
  "bytecode": "0x606060405233600160006101000a81548173ffffffffffffffffffffffffffffffffffffffff021916908373ffffffffffffffffffffffffffffffffffffffff1602179055503373ffffffffffffffffffffffffffffffffffffffff167fce241d7ca1f669fee44b6fc00b8eba2df3bb514eed0f6f668f8f89096e81ed9460405160405180910390a2611cb0806100976000396000f3006060604052600436106100db576000357c0100000000000000000000000000000000000000000000000000000000900463ffffffff16806307da68f5146100eb57806313af40351461010057806353ebc3d81461013957806358399a3d1461018e57806365e189f0146101ec57806375f12b21146102415780637a9e5e4b1461026e578063885c43cd146102a75780638da5cb5b146102f85780639c3f1e901461034d5780639cd0f3f0146104b2578063be9a6555146104f1578063bf7e214f14610506578063d05e07e61461055b578063ece21fb7146105ac575b34156100e657600080fd5b600080fd5b34156100f657600080fd5b6100fe6105eb565b005b341561010b57600080fd5b610137600480803573ffffffffffffffffffffffffffffffffffffffff169060200190919050506106ed565b005b341561014457600080fd5b61014c6107cf565b604051808273ffffffffffffffffffffffffffffffffffffffff1673ffffffffffffffffffffffffffffffffffffffff16815260200191505060405180910390f35b341561019957600080fd5b6101d2600480803560001916906020019091908035600019169060200190919080359060200190919080359060200190919050506107f5565b604051808215151515815260200191505060405180910390f35b34156101f757600080fd5b6101ff6110bf565b604051808273ffffffffffffffffffffffffffffffffffffffff1673ffffffffffffffffffffffffffffffffffffffff16815260200191505060405180910390f35b341561024c57600080fd5b6102546110e5565b604051808215151515815260200191505060405180910390f35b341561027957600080fd5b6102a5600480803573ffffffffffffffffffffffffffffffffffffffff169060200190919050506110f8565b005b34156102b257600080fd5b6102de600480803573ffffffffffffffffffffffffffffffffffffffff169060200190919050506111d8565b604051808215151515815260200191505060405180910390f35b341561030357600080fd5b61030b611279565b604051808273ffffffffffffffffffffffffffffffffffffffff1673ffffffffffffffffffffffffffffffffffffffff16815260200191505060405180910390f35b341561035857600080fd5b61037260048080356000191690602001909190505061129f565b604051808e81526020018d73ffffffffffffffffffffffffffffffffffffffff1673ffffffffffffffffffffffffffffffffffffffff1681526020018c73ffffffffffffffffffffffffffffffffffffffff1673ffffffffffffffffffffffffffffffffffffffff1681526020018b600019166000191681526020018a600019166000191681526020018973ffffffffffffffffffffffffffffffffffffffff1673ffffffffffffffffffffffffffffffffffffffff1681526020018873ffffffffffffffffffffffffffffffffffffffff1673ffffffffffffffffffffffffffffffffffffffff16815260200187815260200186815260200185815260200184815260200183600481111561048457fe5b60ff16815260200182600019166000191681526020019d505050505050505050505050505060405180910390f35b34156104bd57600080fd5b6104d7600480803560001916906020019091905050611392565b604051808215151515815260200191505060405180910390f35b34156104fc57600080fd5b610504611410565b005b341561051157600080fd5b610519611513565b604051808273ffffffffffffffffffffffffffffffffffffffff1673ffffffffffffffffffffffffffffffffffffffff16815260200191505060405180910390f35b341561056657600080fd5b610592600480803573ffffffffffffffffffffffffffffffffffffffff16906020019091905050611538565b604051808215151515815260200191505060405180910390f35b34156105b757600080fd5b6105d16004808035600019169060200190919050506115d9565b604051808215151515815260200191505060405180910390f35b610619336000357fffffffff00000000000000000000000000000000000000000000000000000000166117e5565b151561062457600080fd5b60008060043591506024359050806000191682600019163373ffffffffffffffffffffffffffffffffffffffff166000357fffffffff00000000000000000000000000000000000000000000000000000000167bffffffffffffffffffffffffffffffffffffffffffffffffffffffff19163460003660405180848152602001806020018281038252848482818152602001925080828437820191505094505050505060405180910390a460018060146101000a81548160ff0219169083151502179055505050565b61071b336000357fffffffff00000000000000000000000000000000000000000000000000000000166117e5565b151561072657600080fd5b80600160006101000a81548173ffffffffffffffffffffffffffffffffffffffff021916908373ffffffffffffffffffffffffffffffffffffffff160217905550600160009054906101000a900473ffffffffffffffffffffffffffffffffffffffff1673ffffffffffffffffffffffffffffffffffffffff167fce241d7ca1f669fee44b6fc00b8eba2df3bb514eed0f6f668f8f89096e81ed9460405160405180910390a250565b600360009054906101000a900473ffffffffffffffffffffffffffffffffffffffff1681565b6000806000610802611baf565b600160149054906101000a900460ff1615151561081e57600080fd5b600360009054906101000a900473ffffffffffffffffffffffffffffffffffffffff1673ffffffffffffffffffffffffffffffffffffffff16638a6bfa1a896000604051602001526040518263ffffffff167c0100000000000000000000000000000000000000000000000000000000028152600401808260001916600019168152602001915050602060405180830381600087803b15156108bf57600080fd5b6102c65a03f115156108d057600080fd5b5050506040518051905015156108e557600080fd5b600360009054906101000a900473ffffffffffffffffffffffffffffffffffffffff1673ffffffffffffffffffffffffffffffffffffffff16638a6bfa1a886000604051602001526040518263ffffffff167c0100000000000000000000000000000000000000000000000000000000028152600401808260001916600019168152602001915050602060405180830381600087803b151561098657600080fd5b6102c65a03f1151561099757600080fd5b5050506040518051905015156109ac57600080fd5b600360009054906101000a900473ffffffffffffffffffffffffffffffffffffffff1673ffffffffffffffffffffffffffffffffffffffff1663fa7fdeb7896000604051602001526040518263ffffffff167c0100000000000000000000000000000000000000000000000000000000028152600401808260001916600019168152602001915050602060405180830381600087803b1515610a4d57600080fd5b6102c65a03f11515610a5e57600080fd5b505050604051805190509250600360009054906101000a900473ffffffffffffffffffffffffffffffffffffffff1673ffffffffffffffffffffffffffffffffffffffff1663fa7fdeb7886000604051602001526040518263ffffffff167c0100000000000000000000000000000000000000000000000000000000028152600401808260001916600019168152602001915050602060405180830381600087803b1515610b0b57600080fd5b6102c65a03f11515610b1c57600080fd5b505050604051805190509150600086118015610b385750600085115b1515610b4357600080fd5b4281600001818152505033816020019073ffffffffffffffffffffffffffffffffffffffff16908173ffffffffffffffffffffffffffffffffffffffff168152505087816060019060001916908160001916815250508681608001906000191690816000191681525050828160a0019073ffffffffffffffffffffffffffffffffffffffff16908173ffffffffffffffffffffffffffffffffffffffff1681525050818160c0019073ffffffffffffffffffffffffffffffffffffffff16908173ffffffffffffffffffffffffffffffffffffffff1681525050858160e00181815250508481610100018181525050600360009054906101000a900473ffffffffffffffffffffffffffffffffffffffff1673ffffffffffffffffffffffffffffffffffffffff166326e86cd76000604051602001526040518163ffffffff167c0100000000000000000000000000000000000000000000000000000000028152600401602060405180830381600087803b1515610cc057600080fd5b6102c65a03f11515610cd157600080fd5b5050506040518051905042018161014001818152505060018161016001906004811115610cfa57fe5b90816004811115610d0757fe5b81525050610d4281600001518260200151836060015184608001518560a001518660c001518760e00151886101000151896101400151611a44565b81610180019060001916908160001916815250508060046000836101800151600019166000191681526020019081526020016000206000820151816000015560208201518160010160006101000a81548173ffffffffffffffffffffffffffffffffffffffff021916908373ffffffffffffffffffffffffffffffffffffffff16021790555060408201518160020160006101000a81548173ffffffffffffffffffffffffffffffffffffffff021916908373ffffffffffffffffffffffffffffffffffffffff160217905550606082015181600301906000191690556080820151816004019060001916905560a08201518160050160006101000a81548173ffffffffffffffffffffffffffffffffffffffff021916908373ffffffffffffffffffffffffffffffffffffffff16021790555060c08201518160060160006101000a81548173ffffffffffffffffffffffffffffffffffffffff021916908373ffffffffffffffffffffffffffffffffffffffff16021790555060e082015181600701556101008201518160080155610120820151816009015561014082015181600a015561016082015181600b0160006101000a81548160ff02191690836004811115610f0d57fe5b021790555061018082015181600c01906000191690559050507f7438ab6463b8f9b696f1fbb2aa7291b1450605f805081bbde6817a1a52a1a4b281610180015182602001516000846060015185608001518660a001518760c001518860e00151896101000151604051808a600019166000191681526020018973ffffffffffffffffffffffffffffffffffffffff1673ffffffffffffffffffffffffffffffffffffffff1681526020018873ffffffffffffffffffffffffffffffffffffffff1673ffffffffffffffffffffffffffffffffffffffff168152602001876000191660001916815260200186600019166000191681526020018573ffffffffffffffffffffffffffffffffffffffff1673ffffffffffffffffffffffffffffffffffffffff1681526020018473ffffffffffffffffffffffffffffffffffffffff1673ffffffffffffffffffffffffffffffffffffffff168152602001838152602001828152602001807f6f72646572206372656174656400000000000000000000000000000000000000815250602001995050505050505050505060405180910390a160019350505050949350505050565b600260009054906101000a900473ffffffffffffffffffffffffffffffffffffffff1681565b600160149054906101000a900460ff1681565b611126336000357fffffffff00000000000000000000000000000000000000000000000000000000166117e5565b151561113157600080fd5b806000806101000a81548173ffffffffffffffffffffffffffffffffffffffff021916908373ffffffffffffffffffffffffffffffffffffffff1602179055506000809054906101000a900473ffffffffffffffffffffffffffffffffffffffff1673ffffffffffffffffffffffffffffffffffffffff167f1abebea81bfa2637f28358c371278fb15ede7ea8dd28d2e03b112ff6d936ada460405160405180910390a250565b6000600160149054906101000a900460ff161515156111f657600080fd5b611224336000357fffffffff00000000000000000000000000000000000000000000000000000000166117e5565b151561122f57600080fd5b81600360006101000a81548173ffffffffffffffffffffffffffffffffffffffff021916908373ffffffffffffffffffffffffffffffffffffffff16021790555060019050919050565b600160009054906101000a900473ffffffffffffffffffffffffffffffffffffffff1681565b60046020528060005260406000206000915090508060000154908060010160009054906101000a900473ffffffffffffffffffffffffffffffffffffffff16908060020160009054906101000a900473ffffffffffffffffffffffffffffffffffffffff16908060030154908060040154908060050160009054906101000a900473ffffffffffffffffffffffffffffffffffffffff16908060060160009054906101000a900473ffffffffffffffffffffffffffffffffffffffff169080600701549080600801549080600901549080600a01549080600b0160009054906101000a900460ff169080600c015490508d565b600080600160149054906101000a900460ff161515156113b157600080fd5b60046000846000191660001916815260200190815260200160002090504281600a01541080156114085750600160048111156113e957fe5b81600b0160009054906101000a900460ff16600481111561140657fe5b145b915050919050565b61143e336000357fffffffff00000000000000000000000000000000000000000000000000000000166117e5565b151561144957600080fd5b60008060043591506024359050806000191682600019163373ffffffffffffffffffffffffffffffffffffffff166000357fffffffff00000000000000000000000000000000000000000000000000000000167bffffffffffffffffffffffffffffffffffffffffffffffffffffffff19163460003660405180848152602001806020018281038252848482818152602001925080828437820191505094505050505060405180910390a46000600160146101000a81548160ff0219169083151502179055505050565b6000809054906101000a900473ffffffffffffffffffffffffffffffffffffffff1681565b6000600160149054906101000a900460ff1615151561155657600080fd5b611584336000357fffffffff00000000000000000000000000000000000000000000000000000000166117e5565b151561158f57600080fd5b81600260006101000a81548173ffffffffffffffffffffffffffffffffffffffff021916908373ffffffffffffffffffffffffffffffffffffffff16021790555060019050919050565b600080600160149054906101000a900460ff161515156115f857600080fd5b60046000846000191660001916815260200190815260200160002090506001600481111561162257fe5b81600b0160009054906101000a900460ff16600481111561163f57fe5b14151561164b57600080fd5b4281600a01541115151561165e57600080fd5b600260009054906101000a900473ffffffffffffffffffffffffffffffffffffffff1673ffffffffffffffffffffffffffffffffffffffff16638ca3fd2f33836004015484600801546000604051602001526040518463ffffffff167c0100000000000000000000000000000000000000000000000000000000028152600401808473ffffffffffffffffffffffffffffffffffffffff1673ffffffffffffffffffffffffffffffffffffffff16815260200183600019166000191681526020018281526020019350505050602060405180830381600087803b151561174357600080fd5b6102c65a03f1151561175457600080fd5b50505060405180519050151561176957600080fd5b338160020160006101000a81548173ffffffffffffffffffffffffffffffffffffffff021916908373ffffffffffffffffffffffffffffffffffffffff160217905550600281600b0160006101000a81548160ff021916908360048111156117cd57fe5b02179055504281600901819055506001915050919050565b60003073ffffffffffffffffffffffffffffffffffffffff168373ffffffffffffffffffffffffffffffffffffffff1614156118245760019050611a3e565b600160009054906101000a900473ffffffffffffffffffffffffffffffffffffffff1673ffffffffffffffffffffffffffffffffffffffff168373ffffffffffffffffffffffffffffffffffffffff1614156118835760019050611a3e565b600073ffffffffffffffffffffffffffffffffffffffff166000809054906101000a900473ffffffffffffffffffffffffffffffffffffffff1673ffffffffffffffffffffffffffffffffffffffff1614156118e25760009050611a3e565b6000809054906101000a900473ffffffffffffffffffffffffffffffffffffffff1673ffffffffffffffffffffffffffffffffffffffff1663b70096138430856000604051602001526040518463ffffffff167c0100000000000000000000000000000000000000000000000000000000028152600401808473ffffffffffffffffffffffffffffffffffffffff1673ffffffffffffffffffffffffffffffffffffffff1681526020018373ffffffffffffffffffffffffffffffffffffffff1673ffffffffffffffffffffffffffffffffffffffff168152602001827bffffffffffffffffffffffffffffffffffffffffffffffffffffffff19167bffffffffffffffffffffffffffffffffffffffffffffffffffffffff191681526020019350505050602060405180830381600087803b1515611a2057600080fd5b6102c65a03f11515611a3157600080fd5b5050506040518051905090505b92915050565b6000308a8a8a8a8a8a8a8a8a604051808b73ffffffffffffffffffffffffffffffffffffffff1673ffffffffffffffffffffffffffffffffffffffff166c010000000000000000000000000281526014018a81526020018973ffffffffffffffffffffffffffffffffffffffff1673ffffffffffffffffffffffffffffffffffffffff166c01000000000000000000000000028152601401886000191660001916815260200187600019166000191681526020018673ffffffffffffffffffffffffffffffffffffffff1673ffffffffffffffffffffffffffffffffffffffff166c010000000000000000000000000281526014018573ffffffffffffffffffffffffffffffffffffffff1673ffffffffffffffffffffffffffffffffffffffff166c010000000000000000000000000281526014018481526020018381526020018281526020019a5050505050505050505050604051809103902090509998505050505050505050565b6101a06040519081016040528060008152602001600073ffffffffffffffffffffffffffffffffffffffff168152602001600073ffffffffffffffffffffffffffffffffffffffff1681526020016000801916815260200160008019168152602001600073ffffffffffffffffffffffffffffffffffffffff168152602001600073ffffffffffffffffffffffffffffffffffffffff1681526020016000815260200160008152602001600081526020016000815260200160006004811115611c7457fe5b81526020016000801916815250905600a165627a7a72305820a08dce8e2e20ecc72eee86baaa2e0d67211be5f92f5a7c510f26379f6c6b3a8c0029",
  "source": "pragma solidity ^0.4.2;\n\nimport './helpers/math.sol';\nimport './helpers/stop.sol';\n\nimport './PositionManager.sol';\nimport \"./NetworkParameters.sol\";\n\n/**\n    @title OrderManager\n    @notice The OrderManager contract inherits the DSMath & DSStop contracts,\n        and manages trades on Lendroid.\n */\ncontract OrderManager is DSMath, DSStop {\n\n    PositionManager public LendroidPositionManager;\n    NetworkParameters public LendroidNetworkParameters;\n\n    enum Status {\n        UNISSUED,\n        FILLABLE,\n        FILLED,\n        CLOSED,\n        DEFAULTED\n    }\n\n    struct Order {\n        uint timestamp;\n        address maker;\n        address taker;\n        bytes32 makerTokenSymbol;\n        bytes32 takerTokenSymbol;\n        address makerToken;\n        address takerToken;\n        uint makerTokenAmount;\n        uint takerTokenAmount;\n        uint lastUpdated;\n        uint expiresOn;\n        Status status;\n        bytes32 orderHash;\n    }\n\n    mapping (bytes32 => Order) public orders;\n\n    event LogOrderUpdated(\n        bytes32 _orderHash,         // The Hash of the Order\n        address _maker,             // The address of maker\n        address _taker,             // The address of taker\n        bytes32 _makerTokenSymbol,  // The symbol of maker token\n        bytes32 _takerTokenSymbol,  // The symbol of taker token\n        address _makerToken,        // The token address of maker token\n        address _takerToken,        // The token address of taker token\n        uint _makerTokenAmount,  // The amount of maker token\n        uint _takerTokenAmount,  // The amount of taker token\n        bytes32 _action             // The type of action: \"trade opened\", \"trade closed\"\n    );\n\n    function percentOf(uint _quantity, uint _percentage) internal view returns (uint256){\n        return wdiv(wmul(_quantity, _percentage), 10 ** LendroidNetworkParameters.decimals());\n    }\n\n    /**\n        @dev Throws if called by any account.\n    */\n    function() {\n        revert();\n    }\n\n    /// @dev Allows owner to set the NetworkParameters contract.\n    /// @param _address Address of the NetworkParameters contract.\n    function setLendroidNetworkParameters(address _address)\n        public\n        stoppable\n        auth\n        returns (bool)\n    {\n        LendroidNetworkParameters = NetworkParameters(_address);\n        return true;\n    }\n\n    /// @dev Allows owner to set the PositionManager contract.\n    /// @param _address Address of the PositionManager contract.\n    function setLendroidPositionManager(address _address)\n        public\n        stoppable\n        auth\n        returns (bool)\n    {\n        LendroidPositionManager = PositionManager(_address);\n        return true;\n    }\n\n    /**\n        @notice Create a new order. Sender is the maker\n        @return true the order was successfully created\n    */\n    function createOrder(\n            bytes32 _makerTokenSymbol,\n            bytes32 _takerTokenSymbol,\n            uint _makerTokenAmount,\n            uint _takerTokenAmount\n        )\n        public\n        stoppable\n        returns (bool)\n    {\n        // Validate inputs\n        require(LendroidNetworkParameters.isValidTradingSymbol(_makerTokenSymbol));\n        require(LendroidNetworkParameters.isValidTradingSymbol(_takerTokenSymbol));\n        address _makerToken = LendroidNetworkParameters.getTokenAddressBySymbol(_makerTokenSymbol);\n        address _takerToken = LendroidNetworkParameters.getTokenAddressBySymbol(_takerTokenSymbol);\n        require((_makerTokenAmount > 0) && (_takerTokenAmount > 0));\n        // Create order\n        Order memory order;\n        order.timestamp = now;\n        order.maker = msg.sender;\n        order.makerTokenSymbol = _makerTokenSymbol;\n        order.takerTokenSymbol = _takerTokenSymbol;\n        order.makerToken = _makerToken;\n        order.takerToken = _takerToken;\n        order.makerTokenAmount = _makerTokenAmount;\n        order.takerTokenAmount = _takerTokenAmount;\n        order.expiresOn = now + LendroidNetworkParameters.maxLoanPeriodDays();\n        order.status = Status.FILLABLE;\n        order.orderHash = getOrderHash(\n            order.timestamp,\n            order.maker,\n            order.makerTokenSymbol,\n            order.takerTokenSymbol,\n            order.makerToken,\n            order.takerToken,\n            order.makerTokenAmount,\n            order.takerTokenAmount,\n            order.expiresOn\n        );\n        // Save order\n        orders[order.orderHash] = order;\n        // Log update\n        LogOrderUpdated(\n            order.orderHash,         // The Hash of the Order\n            order.maker,             // The address of maker\n            address(0),             // The address of taker\n            order.makerTokenSymbol,  // The symbol of maker token\n            order.takerTokenSymbol,  // The symbol of taker token\n            order.makerToken,        // The token address of maker token\n            order.takerToken,        // The token address of taker token\n            order.makerTokenAmount,  // The amount of maker token\n            order.takerTokenAmount,  // The amount of taker token\n            \"order created\"\n        );\n        return true;\n    }\n\n    /**\n        @notice Fill an existing order. Sender is the taker\n        @return true the order was successfully filled\n    */\n    function fillOrder(\n            bytes32 _orderHash\n        )\n        public\n        stoppable\n        returns (bool)\n    {\n        Order storage order = orders[_orderHash];\n        // Confirm order is available\n        require(order.status == Status.FILLABLE);\n        require(order.expiresOn <= now);\n        // Open position\n        require(LendroidPositionManager.createPosition(\n                msg.sender,\n                order.takerTokenSymbol,\n                order.takerTokenAmount\n            )\n        );\n        // Update order\n        order.taker = msg.sender;\n        order.status = Status.FILLED;\n        order.lastUpdated = now;\n        return true;\n    }\n\n    /// @return Keccak-256 hash of trade.\n    function getOrderHash(\n            uint timestamp,\n            address maker,\n            bytes32 makerTokenSymbol,\n            bytes32 takerTokenSymbol,\n            address makerToken,\n            address takerToken,\n            uint makerTokenAmount,\n            uint takerTokenAmount,\n            uint expiresOn\n        )\n        internal\n        constant\n        returns (bytes32)\n    {\n        return keccak256(\n            address(this),\n            timestamp,\n            maker,\n            makerTokenSymbol,\n            takerTokenSymbol,\n            makerToken,\n            takerToken,\n            makerTokenAmount,\n            takerTokenAmount,\n            expiresOn\n        );\n    }\n\n    /**\n        @param _orderHash the hash of the order whose availability is checked for\n        @return bool : order availability\n    */\n    function isOrderFillable(bytes32 _orderHash)\n        public\n        stoppable\n        constant\n        returns (bool)\n    {\n        Order storage order = orders[_orderHash];\n        return ((order.expiresOn < now) && (order.status == Status.FILLABLE));\n    }\n\n}\n",
  "sourcePath": "/Users/vii/Desktop/lendroid/development/protocol-demo/contracts/OrderManager.sol",
  "compiler": {
    "name": "solc",
    "version": "0.4.18+commit.9cf6e910.Emscripten.clang"
  },
  "schemaVersion": "1.0.1",
  "updatedAt": "2017-11-16T08:46:43.232Z"
}