{
  "contractName": "PositionManager",
  "abi": [
    {
      "constant": false,
      "inputs": [
        {
          "name": "_address",
          "type": "address"
        }
      ],
      "name": "setLendroidOracle",
      "outputs": [
        {
          "name": "",
          "type": "bool"
        }
      ],
      "payable": false,
      "stateMutability": "nonpayable",
      "type": "function"
    },
    {
      "constant": false,
      "inputs": [],
      "name": "stop",
      "outputs": [],
      "payable": false,
      "stateMutability": "nonpayable",
      "type": "function"
    },
    {
      "constant": false,
      "inputs": [
        {
          "name": "owner_",
          "type": "address"
        }
      ],
      "name": "setOwner",
      "outputs": [],
      "payable": false,
      "stateMutability": "nonpayable",
      "type": "function"
    },
    {
      "constant": true,
      "inputs": [],
      "name": "LendroidWallet",
      "outputs": [
        {
          "name": "",
          "type": "address"
        }
      ],
      "payable": false,
      "stateMutability": "view",
      "type": "function"
    },
    {
      "constant": true,
      "inputs": [
        {
          "name": "_trader",
          "type": "address"
        },
        {
          "name": "_borrower",
          "type": "address"
        },
        {
          "name": "_makerTokenSymbol",
          "type": "bytes32"
        },
        {
          "name": "_takerTokenSymbol",
          "type": "bytes32"
        },
        {
          "name": "_makerTokenAmount",
          "type": "uint256"
        },
        {
          "name": "_takerTokenAmount",
          "type": "uint256"
        }
      ],
      "name": "unRealizedPLs",
      "outputs": [
        {
          "name": "",
          "type": "uint256"
        }
      ],
      "payable": false,
      "stateMutability": "view",
      "type": "function"
    },
    {
      "constant": true,
      "inputs": [
        {
          "name": "_positionHash",
          "type": "bytes32"
        }
      ],
      "name": "LendroidNetworkParameters",
      "outputs": [
        {
          "name": "",
          "type": "address"
        },
        {
          "name": "",
          "type": "uint256"
        }
      ],
      "payable": false,
      "stateMutability": "view",
      "type": "function"
    },
    {
      "constant": true,
      "inputs": [],
      "name": "stopped",
      "outputs": [
        {
          "name": "",
          "type": "bool"
        }
      ],
      "payable": false,
      "stateMutability": "view",
      "type": "function"
    },
    {
      "constant": true,
      "inputs": [],
      "name": "LendroidOracle",
      "outputs": [
        {
          "name": "",
          "type": "address"
        }
      ],
      "payable": false,
      "stateMutability": "view",
      "type": "function"
    },
    {
      "constant": false,
      "inputs": [
        {
          "name": "authority_",
          "type": "address"
        }
      ],
      "name": "setAuthority",
      "outputs": [
        {
          "name": "",
          "type": "address"
        }
      ],
      "payable": false,
      "stateMutability": "nonpayable",
      "type": "function"
    },
    {
      "constant": false,
      "inputs": [
        {
          "name": "_address",
          "type": "address"
        }
      ],
      "name": "setLendroidNetworkParameters",
      "outputs": [
        {
          "name": "",
          "type": "bool"
        }
      ],
      "payable": false,
      "stateMutability": "nonpayable",
      "type": "function"
    },
    {
      "constant": false,
      "inputs": [
        {
          "name": "_trader",
          "type": "address"
        },
        {
          "name": "_tokenSymbol",
          "type": "bytes32"
        },
        {
          "name": "_tokenAmount",
          "type": "uint256"
        }
      ],
      "name": "createPosition",
      "outputs": [
        {
          "name": "",
          "type": "bool"
        }
      ],
      "payable": false,
      "stateMutability": "nonpayable",
      "type": "function"
    },
    {
      "constant": true,
      "inputs": [],
      "name": "owner",
      "outputs": [
        {
          "name": "",
          "type": "address"
        }
      ],
      "payable": false,
      "stateMutability": "view",
      "type": "function"
    },
    {
      "constant": false,
      "inputs": [],
      "name": "start",
      "outputs": [],
      "payable": false,
      "stateMutability": "nonpayable",
      "type": "function"
    },
    {
      "constant": true,
      "inputs": [],
      "name": "authority",
      "outputs": [
        {
          "name": "",
          "type": "address"
        }
      ],
      "payable": false,
      "stateMutability": "view",
      "type": "function"
    },
    {
      "constant": false,
      "inputs": [
        {
          "name": "_address",
          "type": "address"
        }
      ],
      "name": "setLendroidWallet",
      "outputs": [
        {
          "name": "",
          "type": "bool"
        }
      ],
      "payable": false,
      "stateMutability": "nonpayable",
      "type": "function"
    },
    {
      "constant": false,
      "inputs": [
        {
          "name": "_positionHash",
          "type": "bytes32"
        },
        {
          "name": "_trader",
          "type": "address"
        }
      ],
      "name": "closePosition",
      "outputs": [
        {
          "name": "",
          "type": "bool"
        }
      ],
      "payable": true,
      "stateMutability": "payable",
      "type": "function"
    },
    {
      "payable": false,
      "stateMutability": "nonpayable",
      "type": "fallback"
    },
    {
      "anonymous": false,
      "inputs": [
        {
          "indexed": false,
          "name": "_positionHash",
          "type": "bytes32"
        },
        {
          "indexed": false,
          "name": "_address",
          "type": "address"
        },
        {
          "indexed": false,
          "name": "_action",
          "type": "bytes32"
        }
      ],
      "name": "LogPositionUpdated",
      "type": "event"
    },
    {
      "anonymous": false,
      "inputs": [
        {
          "indexed": true,
          "name": "authority",
          "type": "address"
        }
      ],
      "name": "LogSetAuthority",
      "type": "event"
    },
    {
      "anonymous": false,
      "inputs": [
        {
          "indexed": true,
          "name": "owner",
          "type": "address"
        }
      ],
      "name": "LogSetOwner",
      "type": "event"
    },
    {
      "anonymous": true,
      "inputs": [
        {
          "indexed": true,
          "name": "sig",
          "type": "bytes4"
        },
        {
          "indexed": true,
          "name": "guy",
          "type": "address"
        },
        {
          "indexed": true,
          "name": "foo",
          "type": "bytes32"
        },
        {
          "indexed": true,
          "name": "bar",
          "type": "bytes32"
        },
        {
          "indexed": false,
          "name": "wad",
          "type": "uint256"
        },
        {
          "indexed": false,
          "name": "fax",
          "type": "bytes"
        }
      ],
      "name": "LogNote",
      "type": "event"
    }
  ],
  "bytecode": "0x606060405233600160006101000a81548173ffffffffffffffffffffffffffffffffffffffff021916908373ffffffffffffffffffffffffffffffffffffffff1602179055503373ffffffffffffffffffffffffffffffffffffffff167fce241d7ca1f669fee44b6fc00b8eba2df3bb514eed0f6f668f8f89096e81ed9460405160405180910390a2611bab806100976000396000f3006060604052600436106100e6576000357c0100000000000000000000000000000000000000000000000000000000900463ffffffff1680630282c99f146100f657806307da68f51461014757806313af40351461015c5780632951bca3146101955780632d675684146101ea57806353ebc3d81461023757806375f12b211461028c57806377d0a51e146102b95780637a9e5e4b1461030e578063885c43cd146103475780638ca3fd2f146103985780638da5cb5b146103ff578063be9a655514610454578063bf7e214f14610469578063e9831f8a146104be578063f7e754931461050f575b34156100f157600080fd5b600080fd5b341561010157600080fd5b61012d600480803573ffffffffffffffffffffffffffffffffffffffff16906020019091905050610562565b604051808215151515815260200191505060405180910390f35b341561015257600080fd5b61015a610603565b005b341561016757600080fd5b610193600480803573ffffffffffffffffffffffffffffffffffffffff16906020019091905050610705565b005b34156101a057600080fd5b6101a86107e7565b604051808273ffffffffffffffffffffffffffffffffffffffff1673ffffffffffffffffffffffffffffffffffffffff16815260200191505060405180910390f35b34156101f557600080fd5b610221600480803573ffffffffffffffffffffffffffffffffffffffff1690602001909190505061080d565b6040518082815260200191505060405180910390f35b341561024257600080fd5b61024a610a78565b604051808273ffffffffffffffffffffffffffffffffffffffff1673ffffffffffffffffffffffffffffffffffffffff16815260200191505060405180910390f35b341561029757600080fd5b61029f610a9e565b604051808215151515815260200191505060405180910390f35b34156102c457600080fd5b6102cc610ab1565b604051808273ffffffffffffffffffffffffffffffffffffffff1673ffffffffffffffffffffffffffffffffffffffff16815260200191505060405180910390f35b341561031957600080fd5b610345600480803573ffffffffffffffffffffffffffffffffffffffff16906020019091905050610ad7565b005b341561035257600080fd5b61037e600480803573ffffffffffffffffffffffffffffffffffffffff16906020019091905050610bb7565b604051808215151515815260200191505060405180910390f35b34156103a357600080fd5b6103e5600480803573ffffffffffffffffffffffffffffffffffffffff1690602001909190803560001916906020019091908035906020019091905050610c58565b604051808215151515815260200191505060405180910390f35b341561040a57600080fd5b61041261122c565b604051808273ffffffffffffffffffffffffffffffffffffffff1673ffffffffffffffffffffffffffffffffffffffff16815260200191505060405180910390f35b341561045f57600080fd5b610467611252565b005b341561047457600080fd5b61047c611355565b604051808273ffffffffffffffffffffffffffffffffffffffff1673ffffffffffffffffffffffffffffffffffffffff16815260200191505060405180910390f35b34156104c957600080fd5b6104f5600480803573ffffffffffffffffffffffffffffffffffffffff1690602001909190505061137a565b604051808215151515815260200191505060405180910390f35b61054860048080356000191690602001909190803573ffffffffffffffffffffffffffffffffffffffff1690602001909190505061141b565b604051808215151515815260200191505060405180910390f35b6000600160149054906101000a900460ff1615151561058057600080fd5b6105ae336000357fffffffff00000000000000000000000000000000000000000000000000000000166116dd565b15156105b957600080fd5b81600460006101000a81548173ffffffffffffffffffffffffffffffffffffffff021916908373ffffffffffffffffffffffffffffffffffffffff16021790555060019050919050565b610631336000357fffffffff00000000000000000000000000000000000000000000000000000000166116dd565b151561063c57600080fd5b60008060043591506024359050806000191682600019163373ffffffffffffffffffffffffffffffffffffffff166000357fffffffff00000000000000000000000000000000000000000000000000000000167bffffffffffffffffffffffffffffffffffffffffffffffffffffffff19163460003660405180848152602001806020018281038252848482818152602001925080828437820191505094505050505060405180910390a460018060146101000a81548160ff0219169083151502179055505050565b610733336000357fffffffff00000000000000000000000000000000000000000000000000000000166116dd565b151561073e57600080fd5b80600160006101000a81548173ffffffffffffffffffffffffffffffffffffffff021916908373ffffffffffffffffffffffffffffffffffffffff160217905550600160009054906101000a900473ffffffffffffffffffffffffffffffffffffffff1673ffffffffffffffffffffffffffffffffffffffff167fce241d7ca1f669fee44b6fc00b8eba2df3bb514eed0f6f668f8f89096e81ed9460405160405180910390a250565b600260009054906101000a900473ffffffffffffffffffffffffffffffffffffffff1681565b600080600080600160149054906101000a900460ff1615151561082f57600080fd5b600260009054906101000a900473ffffffffffffffffffffffffffffffffffffffff1673ffffffffffffffffffffffffffffffffffffffff163373ffffffffffffffffffffffffffffffffffffffff1614151561088b57600080fd5b60009250600091505b600660008673ffffffffffffffffffffffffffffffffffffffff1673ffffffffffffffffffffffffffffffffffffffff16815260200190815260200160002080549050821015610a6d5760056000600660008873ffffffffffffffffffffffffffffffffffffffff1673ffffffffffffffffffffffffffffffffffffffff1681526020019081526020016000208481548110151561092e57fe5b9060005260206000209001546000191660001916815260200190815260200160002090506001600381111561095f57fe5b8160060160009054906101000a900460ff16600381111561097c57fe5b14151561098857600080fd5b610a5e83610a598360030154600460009054906101000a900473ffffffffffffffffffffffffffffffffffffffff1673ffffffffffffffffffffffffffffffffffffffff166331d98b3f86600201546000604051602001526040518263ffffffff167c0100000000000000000000000000000000000000000000000000000000028152600401808260001916600019168152602001915050602060405180830381600087803b1515610a3957600080fd5b6102c65a03f11515610a4a57600080fd5b5050506040518051905061193c565b61196c565b92508180600101925050610894565b829350505050919050565b600360009054906101000a900473ffffffffffffffffffffffffffffffffffffffff1681565b600160149054906101000a900460ff1681565b600460009054906101000a900473ffffffffffffffffffffffffffffffffffffffff1681565b610b05336000357fffffffff00000000000000000000000000000000000000000000000000000000166116dd565b1515610b1057600080fd5b806000806101000a81548173ffffffffffffffffffffffffffffffffffffffff021916908373ffffffffffffffffffffffffffffffffffffffff1602179055506000809054906101000a900473ffffffffffffffffffffffffffffffffffffffff1673ffffffffffffffffffffffffffffffffffffffff167f1abebea81bfa2637f28358c371278fb15ede7ea8dd28d2e03b112ff6d936ada460405160405180910390a250565b6000600160149054906101000a900460ff16151515610bd557600080fd5b610c03336000357fffffffff00000000000000000000000000000000000000000000000000000000166116dd565b1515610c0e57600080fd5b81600360006101000a81548173ffffffffffffffffffffffffffffffffffffffff021916908373ffffffffffffffffffffffffffffffffffffffff16021790555060019050919050565b600080600080610c66611a95565b600160149054906101000a900460ff16151515610c8257600080fd5b600260009054906101000a900473ffffffffffffffffffffffffffffffffffffffff1673ffffffffffffffffffffffffffffffffffffffff166390fde005896000604051602001526040518263ffffffff167c0100000000000000000000000000000000000000000000000000000000028152600401808273ffffffffffffffffffffffffffffffffffffffff1673ffffffffffffffffffffffffffffffffffffffff168152602001915050602060405180830381600087803b1515610d4757600080fd5b6102c65a03f11515610d5857600080fd5b505050604051805190509350600460009054906101000a900473ffffffffffffffffffffffffffffffffffffffff1673ffffffffffffffffffffffffffffffffffffffff166331d98b3f886000604051602001526040518263ffffffff167c0100000000000000000000000000000000000000000000000000000000028152600401808260001916600019168152602001915050602060405180830381600087803b1515610e0557600080fd5b6102c65a03f11515610e1657600080fd5b505050604051805190509250610e2c8387611988565b9150818410151515610e3d57600080fd5b600260009054906101000a900473ffffffffffffffffffffffffffffffffffffffff1673ffffffffffffffffffffffffffffffffffffffff1663197897fc33846000604051602001526040518363ffffffff167c0100000000000000000000000000000000000000000000000000000000028152600401808373ffffffffffffffffffffffffffffffffffffffff1673ffffffffffffffffffffffffffffffffffffffff16815260200182815260200192505050602060405180830381600087803b1515610f0a57600080fd5b6102c65a03f11515610f1b57600080fd5b505050604051805190501515610f3057600080fd5b4281600001818152505087816020019073ffffffffffffffffffffffffffffffffffffffff16908173ffffffffffffffffffffffffffffffffffffffff1681525050868160400190600019169081600019168152505085816060018181525050600660003373ffffffffffffffffffffffffffffffffffffffff1673ffffffffffffffffffffffffffffffffffffffff168152602001908152602001600020805490508160a0018181525050610ffd81600001518260200151836040015184606001518560a001516119cc565b8160800190600019169081600019168152505060018160c00190600381111561102257fe5b9081600381111561102f57fe5b8152505080600560008360800151600019166000191681526020019081526020016000206000820151816000015560208201518160010160006101000a81548173ffffffffffffffffffffffffffffffffffffffff021916908373ffffffffffffffffffffffffffffffffffffffff16021790555060408201518160020190600019169055606082015181600301556080820151816004019060001916905560a0820151816005015560c08201518160060160006101000a81548160ff021916908360038111156110fc57fe5b021790555060e08201518160070155905050600660003373ffffffffffffffffffffffffffffffffffffffff1673ffffffffffffffffffffffffffffffffffffffff168152602001908152602001600020805480600101828161115f9190611b02565b916000526020600020900160008360800151909190915090600019169055507f385ada097fca868917af27a64f38aeb9c2c960c9a96e301c29c96798aed905f78160800151896040518083600019166000191681526020018273ffffffffffffffffffffffffffffffffffffffff1673ffffffffffffffffffffffffffffffffffffffff168152602001807f706f736974696f6e206f70656e656400000000000000000000000000000000008152506020019250505060405180910390a160019450505050509392505050565b600160009054906101000a900473ffffffffffffffffffffffffffffffffffffffff1681565b611280336000357fffffffff00000000000000000000000000000000000000000000000000000000166116dd565b151561128b57600080fd5b60008060043591506024359050806000191682600019163373ffffffffffffffffffffffffffffffffffffffff166000357fffffffff00000000000000000000000000000000000000000000000000000000167bffffffffffffffffffffffffffffffffffffffffffffffffffffffff19163460003660405180848152602001806020018281038252848482818152602001925080828437820191505094505050505060405180910390a46000600160146101000a81548160ff0219169083151502179055505050565b6000809054906101000a900473ffffffffffffffffffffffffffffffffffffffff1681565b6000600160149054906101000a900460ff1615151561139857600080fd5b6113c6336000357fffffffff00000000000000000000000000000000000000000000000000000000166116dd565b15156113d157600080fd5b81600260006101000a81548173ffffffffffffffffffffffffffffffffffffffff021916908373ffffffffffffffffffffffffffffffffffffffff16021790555060019050919050565b600080600160149054906101000a900460ff1615151561143a57600080fd5b60056000856000191660001916815260200190815260200160002090503373ffffffffffffffffffffffffffffffffffffffff168160010160009054906101000a900473ffffffffffffffffffffffffffffffffffffffff1673ffffffffffffffffffffffffffffffffffffffff161415156114b557600080fd5b60028160060160006101000a81548160ff021916908360038111156114d657fe5b0217905550428160070181905550600660008473ffffffffffffffffffffffffffffffffffffffff1673ffffffffffffffffffffffffffffffffffffffff1681526020019081526020016000206001600660008673ffffffffffffffffffffffffffffffffffffffff1673ffffffffffffffffffffffffffffffffffffffff168152602001908152602001600020805490500381548110151561157557fe5b906000526020600020900154600660008573ffffffffffffffffffffffffffffffffffffffff1673ffffffffffffffffffffffffffffffffffffffff16815260200190815260200160002082600501548154811015156115d157fe5b90600052602060002090018160001916905550600660008473ffffffffffffffffffffffffffffffffffffffff1673ffffffffffffffffffffffffffffffffffffffff1681526020019081526020016000208054809190600190036116369190611b2e565b507f385ada097fca868917af27a64f38aeb9c2c960c9a96e301c29c96798aed905f784846040518083600019166000191681526020018273ffffffffffffffffffffffffffffffffffffffff1673ffffffffffffffffffffffffffffffffffffffff168152602001807f706f736974696f6e206f70656e656400000000000000000000000000000000008152506020019250505060405180910390a1600191505092915050565b60003073ffffffffffffffffffffffffffffffffffffffff168373ffffffffffffffffffffffffffffffffffffffff16141561171c5760019050611936565b600160009054906101000a900473ffffffffffffffffffffffffffffffffffffffff1673ffffffffffffffffffffffffffffffffffffffff168373ffffffffffffffffffffffffffffffffffffffff16141561177b5760019050611936565b600073ffffffffffffffffffffffffffffffffffffffff166000809054906101000a900473ffffffffffffffffffffffffffffffffffffffff1673ffffffffffffffffffffffffffffffffffffffff1614156117da5760009050611936565b6000809054906101000a900473ffffffffffffffffffffffffffffffffffffffff1673ffffffffffffffffffffffffffffffffffffffff1663b70096138430856000604051602001526040518463ffffffff167c0100000000000000000000000000000000000000000000000000000000028152600401808473ffffffffffffffffffffffffffffffffffffffff1673ffffffffffffffffffffffffffffffffffffffff1681526020018373ffffffffffffffffffffffffffffffffffffffff1673ffffffffffffffffffffffffffffffffffffffff168152602001827bffffffffffffffffffffffffffffffffffffffffffffffffffffffff19167bffffffffffffffffffffffffffffffffffffffffffffffffffffffff191681526020019350505050602060405180830381600087803b151561191857600080fd5b6102c65a03f1151561192957600080fd5b5050506040518051905090505b92915050565b60008082148061195b5750828283850292508281151561195857fe5b04145b151561196657600080fd5b92915050565b6000828284019150811015151561198257600080fd5b92915050565b6000670de0b6b3a76400006119ba6119a0858561193c565b6002670de0b6b3a76400008115156119b457fe5b0461196c565b8115156119c357fe5b04905092915050565b6000308686868686604051808773ffffffffffffffffffffffffffffffffffffffff1673ffffffffffffffffffffffffffffffffffffffff166c010000000000000000000000000281526014018681526020018573ffffffffffffffffffffffffffffffffffffffff1673ffffffffffffffffffffffffffffffffffffffff166c01000000000000000000000000028152601401846000191660001916815260200183815260200182815260200196505050505050506040518091039020905095945050505050565b6101006040519081016040528060008152602001600073ffffffffffffffffffffffffffffffffffffffff1681526020016000801916815260200160008152602001600080191681526020016000815260200160006003811115611af557fe5b8152602001600081525090565b815481835581811511611b2957818360005260206000209182019101611b289190611b5a565b5b505050565b815481835581811511611b5557818360005260206000209182019101611b549190611b5a565b5b505050565b611b7c91905b80821115611b78576000816000905550600101611b60565b5090565b905600a165627a7a72305820afdd02282ce6feaefa920aa2e1d7e43da0b18213f6bde59504a6e00ab15946490029",
  "source": "pragma solidity ^0.4.2;\r\n\r\nimport './math.sol';\r\nimport './stop.sol';\r\n\r\nimport './Wallet.sol';\r\nimport \"./NetworkParameters.sol\";\r\nimport \"./Oracle.sol\";\r\n\r\n/**\r\n    @title PositionManager\r\n    @notice The PositionManager contract inherits the DSMath & DSStop contracts, \r\n        and manages trade positions on Lendroid.\r\n */\r\ncontract PositionManager is DSMath, DSStop {\r\n\r\n    Wallet public LendroidWallet;\r\n    NetworkParameters public LendroidNetworkParameters;\r\n    Oracle public LendroidOracle;\r\n\r\n    enum Status {\r\n        UNISSUED,\r\n        ACTIVE,\r\n        CLOSED,\r\n        DEFAULTED\r\n    }\r\n\r\n    struct Position {\r\n        uint timestamp;\r\n        address trader;\r\n        bytes32 tokenSymbol;\r\n        uint tokenAmount;\r\n        bytes32 positionHash;\r\n        uint positionId;\r\n        Status status;\r\n        uint lastUpdated;\r\n    }\r\n\r\n    mapping (bytes32 => Position) positions;\r\n    mapping (address => bytes32[]) openPositions; // Open trade positions array per address\r\n\r\n    event LogPositionUpdated(\r\n        bytes32 _positionHash,  // The Hash of the Position\r\n        address _address,       // The address that caused the action\r\n        bytes32 _action         // The tyoe of action: \"position opened\", \"position closed\"\r\n    );\r\n\r\n    modifier onlyLendroidWallet() {\r\n        require(msg.sender == address(LendroidWallet));\r\n        _;\r\n    }\r\n\r\n    function percentOf(uint _quantity, uint _percentage) internal view returns (uint256){\r\n        return wdiv(wmul(_quantity, _percentage), 10 ** LendroidNetworkParameters.decimals());\r\n    }\r\n\r\n    /**\r\n        @dev Throws if called by any account.\r\n    */\r\n    function() {\r\n        revert();\r\n    }\r\n\r\n    /// @dev Allows owner to set the NetworkParameters contract.\r\n    /// @param _address Address of the NetworkParameters contract.\r\n    function setLendroidNetworkParameters(address _address)\r\n        public\r\n        stoppable\r\n        auth// owner\r\n        returns (bool) \r\n    {\r\n        LendroidNetworkParameters = NetworkParameters(_address);\r\n        return true;\r\n    }\r\n\r\n    /// @dev Allows owner to set the Wallet contract.\r\n    /// @param _address Address of the Wallet contract.\r\n    function setLendroidWallet(address _address)\r\n        public\r\n        stoppable\r\n        auth// owner\r\n        returns (bool) \r\n    {\r\n        LendroidWallet = Wallet(_address);\r\n        return true;\r\n    }\r\n\r\n    /// @dev Allows owner to set the Oracle contract.\r\n    /// @param _address Address of the Oracle contract.\r\n    function setLendroidOracle(address _address)\r\n        public \r\n        stoppable\r\n        auth// owner\r\n        returns (bool)\r\n    {\r\n        LendroidOracle = Oracle(_address);\r\n        return true;\r\n    }\r\n\r\n    function createPosition(\r\n            address _trader,\r\n            bytes32 _tokenSymbol,\r\n            uint _tokenAmount\r\n        )\r\n        public\r\n        stoppable\r\n        // auth// ordermanager\r\n        returns (bool)\r\n    {\r\n        // TODO: Check if trader account is healthy\r\n        // Calculate WETH rate and verify if borrower can open a position\r\n        uint _maxAmount = LendroidWallet.getMaximumPositionOpenableAmount(_trader);\r\n        uint _tokenRate = LendroidOracle.getPrice(_tokenSymbol);\r\n        uint _positionAmount = wmul(_tokenRate, _tokenAmount);\r\n        require(_maxAmount >= _positionAmount);\r\n        // Update balances\r\n        require(LendroidWallet.openPosition(msg.sender, _positionAmount));\r\n        // Open a position\r\n        Position memory position;\r\n        position.timestamp = now;\r\n        position.trader = _trader;\r\n        position.tokenSymbol = _tokenSymbol;\r\n        position.tokenAmount = _tokenAmount;\r\n        position.positionId = openPositions[msg.sender].length;\r\n        position.positionHash = getPositionHash(\r\n            position.timestamp,\r\n            position.trader,\r\n            position.tokenSymbol,\r\n            position.tokenAmount,\r\n            position.positionId\r\n        );\r\n        position.status = Status.ACTIVE;\r\n        // Save position\r\n        positions[position.positionHash] = position;\r\n        openPositions[msg.sender].push(position.positionHash);\r\n        // Log position update\r\n        LogPositionUpdated(\r\n            position.positionHash,\r\n            _trader,\r\n            \"position opened\"\r\n        );\r\n        \r\n        return true;\r\n    }\r\n    \r\n    function closePosition(\r\n            bytes32 _positionHash,\r\n            address _trader\r\n        ) \r\n        public\r\n        payable \r\n        stoppable\r\n        returns (bool) \r\n    {\r\n        // TODO: Check if borrower account is healthy\r\n        // Get position based on hash\r\n        Position storage position = positions[_positionHash];\r\n        // Validations\r\n        // Verify trader\r\n        require(position.trader == msg.sender);\r\n        // Archive the active position\r\n        position.status = Status.CLOSED;\r\n        position.lastUpdated = now;\r\n        openPositions[_trader][position.positionId] = openPositions[_trader][openPositions[_trader].length - 1];\r\n        openPositions[_trader].length--;\r\n        LogPositionUpdated(\r\n            _positionHash,\r\n            _trader,\r\n            \"position opened\"\r\n        );\r\n        return true;\r\n    }\r\n\r\n    /// @return Keccak-256 hash of position.\r\n    function getPositionHash(\r\n            uint timestamp,\r\n            address trader,\r\n            bytes32 tokenSymbol,\r\n            uint tokenAmount,\r\n            uint positionId\r\n        )\r\n        internal\r\n        constant\r\n        returns (bytes32)\r\n    {\r\n        return keccak256(\r\n            address(this),\r\n            timestamp,\r\n            trader,\r\n            tokenSymbol,\r\n            tokenAmount,\r\n            positionId\r\n        );\r\n    }\r\n\r\n    function unRealizedPLs(address _trader)\r\n        public\r\n        stoppable\r\n        onlyLendroidWallet\r\n        constant\r\n        returns (uint)\r\n    {\r\n        uint totalPLs = 0;\r\n        for (uint positionId = 0; positionId < openPositions[_trader].length; positionId++) {\r\n            Position storage position = positions[openPositions[_trader][positionId]];\r\n            require (position.status == Status.ACTIVE);\r\n            totalPLs = add(totalPLs, mul(position.tokenAmount, LendroidOracle.getPrice(position.tokenSymbol)));\r\n        }\r\n        \r\n        return totalPLs;\r\n    }\r\n\r\n}",
  "sourcePath": "C:\\work\\programming\\ethereum\\lendroid\\protocol-demo\\contracts\\PositionManager.sol",
  "compiler": {
    "name": "solc",
    "version": "0.4.18+commit.9cf6e910.Emscripten.clang"
  },
  "schemaVersion": "1.0.1",
  "updatedAt": "2017-11-13T01:09:07.835Z"
}