{
  "contractName": "PositionManager",
  "abi": [
    {
      "constant": false,
      "inputs": [
        {
          "name": "_address",
          "type": "address"
        }
      ],
      "name": "setLendroidOracle",
      "outputs": [
        {
          "name": "",
          "type": "bool"
        }
      ],
      "payable": false,
      "stateMutability": "nonpayable",
      "type": "function"
    },
    {
      "constant": false,
      "inputs": [],
      "name": "stop",
      "outputs": [],
      "payable": false,
      "stateMutability": "nonpayable",
      "type": "function"
    },
    {
      "constant": false,
      "inputs": [
        {
          "name": "owner_",
          "type": "address"
        }
      ],
      "name": "setOwner",
      "outputs": [],
      "payable": false,
      "stateMutability": "nonpayable",
      "type": "function"
    },
    {
      "constant": true,
      "inputs": [],
      "name": "LendroidWallet",
      "outputs": [
        {
          "name": "",
          "type": "address"
        }
      ],
      "payable": false,
      "stateMutability": "view",
      "type": "function"
    },
    {
      "constant": true,
      "inputs": [
        {
          "name": "_trader",
          "type": "address"
        },
        {
          "name": "_borrower",
          "type": "address"
        },
        {
          "name": "_makerTokenSymbol",
          "type": "bytes32"
        },
        {
          "name": "_takerTokenSymbol",
          "type": "bytes32"
        },
        {
          "name": "_makerTokenAmount",
          "type": "uint256"
        },
        {
          "name": "_takerTokenAmount",
          "type": "uint256"
        }
      ],
      "name": "unRealizedPLs",
      "outputs": [
        {
          "name": "",
          "type": "uint256"
        }
      ],
      "payable": false,
      "stateMutability": "view",
      "type": "function"
    },
    {
      "constant": true,
      "inputs": [
        {
          "name": "",
          "type": "bytes32"
        }
      ],
      "name": "positions",
      "outputs": [
        {
          "name": "timestamp",
          "type": "uint256"
        },
        {
          "name": "trader",
          "type": "address"
        },
        {
          "name": "tokenSymbol",
          "type": "bytes32"
        },
        {
          "name": "tokenAmount",
          "type": "uint256"
        },
        {
          "name": "openingRate",
          "type": "uint256"
        },
        {
          "name": "positionAmount",
          "type": "uint256"
        },
        {
          "name": "positionHash",
          "type": "bytes32"
        },
        {
          "name": "positionId",
          "type": "uint256"
        },
        {
          "name": "status",
          "type": "uint8"
        },
        {
          "name": "lastUpdated",
          "type": "uint256"
        }
      ],
      "payable": false,
      "stateMutability": "view",
      "type": "function"
    },
    {
      "constant": true,
      "inputs": [
        {
          "name": "_positionHash",
          "type": "bytes32"
        }
      ],
      "name": "LendroidNetworkParameters",
      "outputs": [
        {
          "name": "",
          "type": "address"
        }
      ],
      "payable": false,
      "stateMutability": "view",
      "type": "function"
    },
    {
      "constant": true,
      "inputs": [
        {
          "name": "_positionHash",
          "type": "bytes32"
        }
      ],
      "name": "unRealizedPL",
      "outputs": [
        {
          "name": "",
          "type": "uint256"
        }
      ],
      "payable": false,
      "stateMutability": "view",
      "type": "function"
    },
    {
      "constant": true,
      "inputs": [
        {
          "name": "authority_",
          "type": "address"
        }
      ],
      "name": "stopped",
      "outputs": [
        {
          "name": "",
          "type": "bool"
        }
      ],
      "payable": false,
      "stateMutability": "view",
      "type": "function"
    },
    {
      "constant": true,
      "inputs": [
        {
          "name": "authority_",
          "type": "address"
        }
      ],
      "name": "LendroidOracle",
      "outputs": [
        {
          "name": "",
          "type": "address"
        }
      ],
      "payable": false,
      "stateMutability": "view",
      "type": "function"
    },
    {
      "constant": false,
      "inputs": [
        {
          "name": "authority_",
          "type": "address"
        },
        {
          "name": "_tokenSymbol",
          "type": "bytes32"
        },
        {
          "name": "_tokenAmount",
          "type": "uint256"
        }
      ],
      "name": "setAuthority",
      "outputs": [
        {
          "name": "",
          "type": "bool"
        }
      ],
      "payable": false,
      "stateMutability": "nonpayable",
      "type": "function"
    },
    {
      "constant": false,
      "inputs": [
        {
          "name": "_address",
          "type": "address"
        },
        {
          "name": "_tokenSymbol",
          "type": "bytes32"
        },
        {
          "name": "_tokenAmount",
          "type": "uint256"
        }
      ],
      "name": "setLendroidNetworkParameters",
      "outputs": [
        {
          "name": "",
          "type": "bool"
        }
      ],
      "payable": false,
      "stateMutability": "nonpayable",
      "type": "function"
    },
    {
      "constant": false,
      "inputs": [
        {
          "name": "_trader",
          "type": "address"
        },
        {
          "name": "_tokenSymbol",
          "type": "bytes32"
        },
        {
          "name": "_tokenAmount",
          "type": "uint256"
        }
      ],
      "name": "createPosition",
      "outputs": [
        {
          "name": "",
          "type": "bool"
        }
      ],
      "payable": false,
      "stateMutability": "nonpayable",
      "type": "function"
    },
    {
      "constant": true,
      "inputs": [
        {
          "name": "_trader",
          "type": "address"
        }
      ],
      "name": "owner",
      "outputs": [
        {
          "name": "",
          "type": "address"
        }
      ],
      "payable": false,
      "stateMutability": "view",
      "type": "function"
    },
    {
      "constant": true,
      "inputs": [
        {
          "name": "_trader",
          "type": "address"
        }
      ],
      "name": "positionsOpened",
      "outputs": [
        {
          "name": "",
          "type": "bytes32[]"
        }
      ],
      "payable": false,
      "stateMutability": "view",
      "type": "function"
    },
    {
      "constant": false,
      "inputs": [
        {
          "name": "_positionHash",
          "type": "bytes32"
        },
        {
          "name": "_trader",
          "type": "address"
        }
      ],
      "name": "start",
      "outputs": [
        {
          "name": "",
          "type": "address"
        }
      ],
      "payable": false,
      "stateMutability": "nonpayable",
      "type": "function"
    },
    {
      "payable": false,
      "stateMutability": "view",
      "type": "function",
      "constant": true,
      "inputs": [
        {
          "name": "_address",
          "type": "address"
        }
      ],
      "name": "authority",
      "outputs": [
        {
          "name": "",
          "type": "address"
        }
      ]
    },
    {
      "anonymous": false,
      "inputs": [
        {
          "indexed": false,
          "name": "_address",
          "type": "address"
        },
        {
          "indexed": false,
          "name": "_trader",
          "type": "address"
        },
        {
          "indexed": false,
          "name": "_action",
          "type": "bytes32"
        }
      ],
      "name": "setLendroidWallet",
      "type": "function",
      "constant": false,
      "outputs": [
        {
          "name": "",
          "type": "bool"
        }
      ],
      "payable": false,
      "stateMutability": "nonpayable"
    },
    {
      "anonymous": false,
      "inputs": [
        {
          "indexed": true,
          "name": "_positionHash",
          "type": "bytes32"
        },
        {
          "name": "_trader",
          "type": "address"
        }
      ],
      "name": "closePosition",
      "type": "function",
      "payable": true,
      "stateMutability": "payable",
      "constant": false,
      "outputs": [
        {
          "name": "",
          "type": "bool"
        }
      ]
    },
    {
      "anonymous": false,
      "inputs": [
        {
          "indexed": false,
          "name": "_positionHash",
          "type": "bytes32"
        },
        {
          "indexed": false,
          "name": "_address",
          "type": "address"
        },
        {
          "indexed": false,
          "name": "_action",
          "type": "bytes32"
        }
      ],
      "name": "LogPositionUpdated",
      "type": "fallback",
      "payable": false,
      "stateMutability": "nonpayable"
    },
    {
      "anonymous": false,
      "inputs": [
        {
          "indexed": false,
          "name": "_positionHash",
          "type": "bytes32"
        },
        {
          "indexed": false,
          "name": "_address",
          "type": "address"
        },
        {
          "indexed": false,
          "name": "_action",
          "type": "bytes32"
        },
        {
          "indexed": true,
          "name": "bar",
          "type": "bytes32"
        },
        {
          "indexed": false,
          "name": "wad",
          "type": "uint256"
        },
        {
          "indexed": false,
          "name": "fax",
          "type": "bytes"
        }
      ],
      "name": "LogPositionUpdated",
      "type": "event"
    },
    {
      "anonymous": false,
      "inputs": [
        {
          "indexed": true,
          "name": "authority",
          "type": "address"
        }
      ],
      "name": "LogSetAuthority",
      "type": "event"
    },
    {
      "anonymous": false,
      "inputs": [
        {
          "indexed": true,
          "name": "owner",
          "type": "address"
        },
        {
          "indexed": true,
          "name": "guy",
          "type": "address"
        },
        {
          "indexed": true,
          "name": "foo",
          "type": "bytes32"
        },
        {
          "indexed": true,
          "name": "bar",
          "type": "bytes32"
        },
        {
          "indexed": false,
          "name": "wad",
          "type": "uint256"
        },
        {
          "indexed": false,
          "name": "fax",
          "type": "bytes"
        }
      ],
      "name": "LogSetOwner",
      "type": "event"
    },
    {
      "anonymous": true,
      "inputs": [
        {
          "indexed": true,
          "name": "sig",
          "type": "bytes4"
        },
        {
          "indexed": true,
          "name": "guy",
          "type": "address"
        },
        {
          "indexed": true,
          "name": "foo",
          "type": "bytes32"
        },
        {
          "indexed": true,
          "name": "bar",
          "type": "bytes32"
        },
        {
          "indexed": false,
          "name": "wad",
          "type": "uint256"
        },
        {
          "indexed": false,
          "name": "fax",
          "type": "bytes"
        }
      ],
      "name": "LogNote",
      "type": "event"
    }
  ],
  "bytecode": "0x606060405233600160006101000a81548173ffffffffffffffffffffffffffffffffffffffff021916908373ffffffffffffffffffffffffffffffffffffffff1602179055503373ffffffffffffffffffffffffffffffffffffffff167fce241d7ca1f669fee44b6fc00b8eba2df3bb514eed0f6f668f8f89096e81ed9460405160405180910390a2611f12806100976000396000f300606060405260043610610107576000357c0100000000000000000000000000000000000000000000000000000000900463ffffffff1680630282c99f1461011757806307da68f51461016857806313af40351461017d5780632951bca3146101b65780632d6756841461020b578063514ea4bf1461025857806353ebc3d81461031c5780636ff42f681461037157806375f12b21146103ac57806377d0a51e146103d95780637a9e5e4b1461042e578063885c43cd146104675780638ca3fd2f146104b85780638da5cb5b1461051f578063adce124b14610574578063be9a655514610602578063bf7e214f14610617578063e9831f8a1461066c578063f7e75493146106bd575b341561011257600080fd5b600080fd5b341561012257600080fd5b61014e600480803573ffffffffffffffffffffffffffffffffffffffff16906020019091905050610710565b604051808215151515815260200191505060405180910390f35b341561017357600080fd5b61017b6107b1565b005b341561018857600080fd5b6101b4600480803573ffffffffffffffffffffffffffffffffffffffff169060200190919050506108b3565b005b34156101c157600080fd5b6101c9610995565b604051808273ffffffffffffffffffffffffffffffffffffffff1673ffffffffffffffffffffffffffffffffffffffff16815260200191505060405180910390f35b341561021657600080fd5b610242600480803573ffffffffffffffffffffffffffffffffffffffff169060200190919050506109bb565b6040518082815260200191505060405180910390f35b341561026357600080fd5b61027d600480803560001916906020019091905050610b0d565b604051808b81526020018a73ffffffffffffffffffffffffffffffffffffffff1673ffffffffffffffffffffffffffffffffffffffff168152602001896000191660001916815260200188815260200187815260200186815260200185600019166000191681526020018481526020018360038111156102f957fe5b60ff1681526020018281526020019a505050505050505050505060405180910390f35b341561032757600080fd5b61032f610b8e565b604051808273ffffffffffffffffffffffffffffffffffffffff1673ffffffffffffffffffffffffffffffffffffffff16815260200191505060405180910390f35b341561037c57600080fd5b610396600480803560001916906020019091905050610bb4565b6040518082815260200191505060405180910390f35b34156103b757600080fd5b6103bf610cfb565b604051808215151515815260200191505060405180910390f35b34156103e457600080fd5b6103ec610d0e565b604051808273ffffffffffffffffffffffffffffffffffffffff1673ffffffffffffffffffffffffffffffffffffffff16815260200191505060405180910390f35b341561043957600080fd5b610465600480803573ffffffffffffffffffffffffffffffffffffffff16906020019091905050610d34565b005b341561047257600080fd5b61049e600480803573ffffffffffffffffffffffffffffffffffffffff16906020019091905050610e14565b604051808215151515815260200191505060405180910390f35b34156104c357600080fd5b610505600480803573ffffffffffffffffffffffffffffffffffffffff1690602001909190803560001916906020019091908035906020019091905050610eb5565b604051808215151515815260200191505060405180910390f35b341561052a57600080fd5b6105326114b4565b604051808273ffffffffffffffffffffffffffffffffffffffff1673ffffffffffffffffffffffffffffffffffffffff16815260200191505060405180910390f35b341561057f57600080fd5b6105ab600480803573ffffffffffffffffffffffffffffffffffffffff169060200190919050506114da565b6040518080602001828103825283818151815260200191508051906020019060200280838360005b838110156105ee5780820151818401526020810190506105d3565b505050509050019250505060405180910390f35b341561060d57600080fd5b610615611597565b005b341561062257600080fd5b61062a61169a565b604051808273ffffffffffffffffffffffffffffffffffffffff1673ffffffffffffffffffffffffffffffffffffffff16815260200191505060405180910390f35b341561067757600080fd5b6106a3600480803573ffffffffffffffffffffffffffffffffffffffff169060200190919050506116bf565b604051808215151515815260200191505060405180910390f35b6106f660048080356000191690602001909190803573ffffffffffffffffffffffffffffffffffffffff16906020019091905050611760565b604051808215151515815260200191505060405180910390f35b6000600160149054906101000a900460ff1615151561072e57600080fd5b61075c336000357fffffffff0000000000000000000000000000000000000000000000000000000016611a22565b151561076757600080fd5b81600460006101000a81548173ffffffffffffffffffffffffffffffffffffffff021916908373ffffffffffffffffffffffffffffffffffffffff16021790555060019050919050565b6107df336000357fffffffff0000000000000000000000000000000000000000000000000000000016611a22565b15156107ea57600080fd5b60008060043591506024359050806000191682600019163373ffffffffffffffffffffffffffffffffffffffff166000357fffffffff00000000000000000000000000000000000000000000000000000000167bffffffffffffffffffffffffffffffffffffffffffffffffffffffff19163460003660405180848152602001806020018281038252848482818152602001925080828437820191505094505050505060405180910390a460018060146101000a81548160ff0219169083151502179055505050565b6108e1336000357fffffffff0000000000000000000000000000000000000000000000000000000016611a22565b15156108ec57600080fd5b80600160006101000a81548173ffffffffffffffffffffffffffffffffffffffff021916908373ffffffffffffffffffffffffffffffffffffffff160217905550600160009054906101000a900473ffffffffffffffffffffffffffffffffffffffff1673ffffffffffffffffffffffffffffffffffffffff167fce241d7ca1f669fee44b6fc00b8eba2df3bb514eed0f6f668f8f89096e81ed9460405160405180910390a250565b600260009054906101000a900473ffffffffffffffffffffffffffffffffffffffff1681565b6000806000600160149054906101000a900460ff161515156109dc57600080fd5b600260009054906101000a900473ffffffffffffffffffffffffffffffffffffffff1673ffffffffffffffffffffffffffffffffffffffff163373ffffffffffffffffffffffffffffffffffffffff16141515610a3857600080fd5b60009150600090505b600660008573ffffffffffffffffffffffffffffffffffffffff1673ffffffffffffffffffffffffffffffffffffffff16815260200190815260200160002080549050811015610b0357610af482610aef600660008873ffffffffffffffffffffffffffffffffffffffff1673ffffffffffffffffffffffffffffffffffffffff16815260200190815260200160002084815481101515610ade57fe5b906000526020600020900154610bb4565b611c81565b91508080600101915050610a41565b8192505050919050565b60056020528060005260406000206000915090508060000154908060010160009054906101000a900473ffffffffffffffffffffffffffffffffffffffff16908060020154908060030154908060040154908060050154908060060154908060070154908060080160009054906101000a900460ff1690806009015490508a565b600360009054906101000a900473ffffffffffffffffffffffffffffffffffffffff1681565b600080600160149054906101000a900460ff16151515610bd357600080fd5b600560008460001916600019168152602001908152602001600020905060016003811115610bfd57fe5b8160080160009054906101000a900460ff166003811115610c1a57fe5b141515610c2657600080fd5b610cf38160030154600460009054906101000a900473ffffffffffffffffffffffffffffffffffffffff1673ffffffffffffffffffffffffffffffffffffffff166331d98b3f84600201546000604051602001526040518263ffffffff167c0100000000000000000000000000000000000000000000000000000000028152600401808260001916600019168152602001915050602060405180830381600087803b1515610cd357600080fd5b6102c65a03f11515610ce457600080fd5b50505060405180519050611c9d565b915050919050565b600160149054906101000a900460ff1681565b600460009054906101000a900473ffffffffffffffffffffffffffffffffffffffff1681565b610d62336000357fffffffff0000000000000000000000000000000000000000000000000000000016611a22565b1515610d6d57600080fd5b806000806101000a81548173ffffffffffffffffffffffffffffffffffffffff021916908373ffffffffffffffffffffffffffffffffffffffff1602179055506000809054906101000a900473ffffffffffffffffffffffffffffffffffffffff1673ffffffffffffffffffffffffffffffffffffffff167f1abebea81bfa2637f28358c371278fb15ede7ea8dd28d2e03b112ff6d936ada460405160405180910390a250565b6000600160149054906101000a900460ff16151515610e3257600080fd5b610e60336000357fffffffff0000000000000000000000000000000000000000000000000000000016611a22565b1515610e6b57600080fd5b81600360006101000a81548173ffffffffffffffffffffffffffffffffffffffff021916908373ffffffffffffffffffffffffffffffffffffffff16021790555060019050919050565b600080600080610ec3611dda565b600160149054906101000a900460ff16151515610edf57600080fd5b600260009054906101000a900473ffffffffffffffffffffffffffffffffffffffff1673ffffffffffffffffffffffffffffffffffffffff166390fde005896000604051602001526040518263ffffffff167c0100000000000000000000000000000000000000000000000000000000028152600401808273ffffffffffffffffffffffffffffffffffffffff1673ffffffffffffffffffffffffffffffffffffffff168152602001915050602060405180830381600087803b1515610fa457600080fd5b6102c65a03f11515610fb557600080fd5b505050604051805190509350600460009054906101000a900473ffffffffffffffffffffffffffffffffffffffff1673ffffffffffffffffffffffffffffffffffffffff166331d98b3f886000604051602001526040518263ffffffff167c0100000000000000000000000000000000000000000000000000000000028152600401808260001916600019168152602001915050602060405180830381600087803b151561106257600080fd5b6102c65a03f1151561107357600080fd5b5050506040518051905092506110898387611ccd565b915081841015151561109a57600080fd5b600260009054906101000a900473ffffffffffffffffffffffffffffffffffffffff1673ffffffffffffffffffffffffffffffffffffffff1663197897fc33846000604051602001526040518363ffffffff167c0100000000000000000000000000000000000000000000000000000000028152600401808373ffffffffffffffffffffffffffffffffffffffff1673ffffffffffffffffffffffffffffffffffffffff16815260200182815260200192505050602060405180830381600087803b151561116757600080fd5b6102c65a03f1151561117857600080fd5b50505060405180519050151561118d57600080fd5b4281600001818152505087816020019073ffffffffffffffffffffffffffffffffffffffff16908173ffffffffffffffffffffffffffffffffffffffff168152505086816040019060001916908160001916815250508581606001818152505082816080018181525050818160a0018181525050600660003373ffffffffffffffffffffffffffffffffffffffff1673ffffffffffffffffffffffffffffffffffffffff168152602001908152602001600020805490508160e001818152505061126e81600001518260200151836040015184606001518560e00151611d11565b8160c0019060001916908160001916815250506001816101000190600381111561129457fe5b908160038111156112a157fe5b8152505080600560008360c00151600019166000191681526020019081526020016000206000820151816000015560208201518160010160006101000a81548173ffffffffffffffffffffffffffffffffffffffff021916908373ffffffffffffffffffffffffffffffffffffffff16021790555060408201518160020190600019169055606082015181600301556080820151816004015560a0820151816005015560c0820151816006019060001916905560e082015181600701556101008201518160080160006101000a81548160ff0219169083600381111561138357fe5b02179055506101208201518160090155905050600660003373ffffffffffffffffffffffffffffffffffffffff1673ffffffffffffffffffffffffffffffffffffffff16815260200190815260200160002080548060010182816113e79190611e55565b916000526020600020900160008360c00151909190915090600019169055507f385ada097fca868917af27a64f38aeb9c2c960c9a96e301c29c96798aed905f78160c00151896040518083600019166000191681526020018273ffffffffffffffffffffffffffffffffffffffff1673ffffffffffffffffffffffffffffffffffffffff168152602001807f706f736974696f6e206f70656e656400000000000000000000000000000000008152506020019250505060405180910390a160019450505050509392505050565b600160009054906101000a900473ffffffffffffffffffffffffffffffffffffffff1681565b6114e2611e81565b600160149054906101000a900460ff161515156114fe57600080fd5b600660008373ffffffffffffffffffffffffffffffffffffffff1673ffffffffffffffffffffffffffffffffffffffff16815260200190815260200160002080548060200260200160405190810160405280929190818152602001828054801561158b57602002820191906000526020600020905b81546000191681526020019060010190808311611573575b50505050509050919050565b6115c5336000357fffffffff0000000000000000000000000000000000000000000000000000000016611a22565b15156115d057600080fd5b60008060043591506024359050806000191682600019163373ffffffffffffffffffffffffffffffffffffffff166000357fffffffff00000000000000000000000000000000000000000000000000000000167bffffffffffffffffffffffffffffffffffffffffffffffffffffffff19163460003660405180848152602001806020018281038252848482818152602001925080828437820191505094505050505060405180910390a46000600160146101000a81548160ff0219169083151502179055505050565b6000809054906101000a900473ffffffffffffffffffffffffffffffffffffffff1681565b6000600160149054906101000a900460ff161515156116dd57600080fd5b61170b336000357fffffffff0000000000000000000000000000000000000000000000000000000016611a22565b151561171657600080fd5b81600260006101000a81548173ffffffffffffffffffffffffffffffffffffffff021916908373ffffffffffffffffffffffffffffffffffffffff16021790555060019050919050565b600080600160149054906101000a900460ff1615151561177f57600080fd5b60056000856000191660001916815260200190815260200160002090503373ffffffffffffffffffffffffffffffffffffffff168160010160009054906101000a900473ffffffffffffffffffffffffffffffffffffffff1673ffffffffffffffffffffffffffffffffffffffff161415156117fa57600080fd5b60028160080160006101000a81548160ff0219169083600381111561181b57fe5b0217905550428160090181905550600660008473ffffffffffffffffffffffffffffffffffffffff1673ffffffffffffffffffffffffffffffffffffffff1681526020019081526020016000206001600660008673ffffffffffffffffffffffffffffffffffffffff1673ffffffffffffffffffffffffffffffffffffffff16815260200190815260200160002080549050038154811015156118ba57fe5b906000526020600020900154600660008573ffffffffffffffffffffffffffffffffffffffff1673ffffffffffffffffffffffffffffffffffffffff168152602001908152602001600020826007015481548110151561191657fe5b90600052602060002090018160001916905550600660008473ffffffffffffffffffffffffffffffffffffffff1673ffffffffffffffffffffffffffffffffffffffff16815260200190815260200160002080548091906001900361197b9190611e95565b507f385ada097fca868917af27a64f38aeb9c2c960c9a96e301c29c96798aed905f784846040518083600019166000191681526020018273ffffffffffffffffffffffffffffffffffffffff1673ffffffffffffffffffffffffffffffffffffffff168152602001807f706f736974696f6e206f70656e656400000000000000000000000000000000008152506020019250505060405180910390a1600191505092915050565b60003073ffffffffffffffffffffffffffffffffffffffff168373ffffffffffffffffffffffffffffffffffffffff161415611a615760019050611c7b565b600160009054906101000a900473ffffffffffffffffffffffffffffffffffffffff1673ffffffffffffffffffffffffffffffffffffffff168373ffffffffffffffffffffffffffffffffffffffff161415611ac05760019050611c7b565b600073ffffffffffffffffffffffffffffffffffffffff166000809054906101000a900473ffffffffffffffffffffffffffffffffffffffff1673ffffffffffffffffffffffffffffffffffffffff161415611b1f5760009050611c7b565b6000809054906101000a900473ffffffffffffffffffffffffffffffffffffffff1673ffffffffffffffffffffffffffffffffffffffff1663b70096138430856000604051602001526040518463ffffffff167c0100000000000000000000000000000000000000000000000000000000028152600401808473ffffffffffffffffffffffffffffffffffffffff1673ffffffffffffffffffffffffffffffffffffffff1681526020018373ffffffffffffffffffffffffffffffffffffffff1673ffffffffffffffffffffffffffffffffffffffff168152602001827bffffffffffffffffffffffffffffffffffffffffffffffffffffffff19167bffffffffffffffffffffffffffffffffffffffffffffffffffffffff191681526020019350505050602060405180830381600087803b1515611c5d57600080fd5b6102c65a03f11515611c6e57600080fd5b5050506040518051905090505b92915050565b60008282840191508110151515611c9757600080fd5b92915050565b600080821480611cbc57508282838502925082811515611cb957fe5b04145b1515611cc757600080fd5b92915050565b6000670de0b6b3a7640000611cff611ce58585611c9d565b6002670de0b6b3a7640000811515611cf957fe5b04611c81565b811515611d0857fe5b04905092915050565b6000308686868686604051808773ffffffffffffffffffffffffffffffffffffffff1673ffffffffffffffffffffffffffffffffffffffff166c010000000000000000000000000281526014018681526020018573ffffffffffffffffffffffffffffffffffffffff1673ffffffffffffffffffffffffffffffffffffffff166c01000000000000000000000000028152601401846000191660001916815260200183815260200182815260200196505050505050506040518091039020905095945050505050565b6101406040519081016040528060008152602001600073ffffffffffffffffffffffffffffffffffffffff16815260200160008019168152602001600081526020016000815260200160008152602001600080191681526020016000815260200160006003811115611e4857fe5b8152602001600081525090565b815481835581811511611e7c57818360005260206000209182019101611e7b9190611ec1565b5b505050565b602060405190810160405280600081525090565b815481835581811511611ebc57818360005260206000209182019101611ebb9190611ec1565b5b505050565b611ee391905b80821115611edf576000816000905550600101611ec7565b5090565b905600a165627a7a72305820248a910d28e69cf56a16797b52f0496f1fde156d61a1a04b04285ae60f9f25360029",
  "source": "pragma solidity ^0.4.2;\n\nimport './helpers/math.sol';\nimport './helpers/stop.sol';\n\nimport './Wallet.sol';\nimport \"./NetworkParameters.sol\";\nimport \"./Oracle.sol\";\n\n/**\n    @title PositionManager\n    @notice The PositionManager contract inherits the DSMath & DSStop contracts,\n        and manages trade positions on Lendroid.\n */\ncontract PositionManager is DSMath, DSStop {\n\n    Wallet public LendroidWallet;\n    NetworkParameters public LendroidNetworkParameters;\n    Oracle public LendroidOracle;\n\n    enum Status {\n        UNISSUED,\n        ACTIVE,\n        CLOSED,\n        DEFAULTED\n    }\n\n    struct Position {\n        uint timestamp;\n        address trader;\n        bytes32 tokenSymbol;\n        uint tokenAmount;\n        uint openingRate;\n        uint positionAmount;\n        bytes32 positionHash;\n        uint positionId;\n        Status status;\n        uint lastUpdated;\n    }\n\n    mapping (bytes32 => Position) public positions;\n    mapping (address => bytes32[]) openPositions; // Open trade positions array per address\n\n    event LogPositionUpdated(\n        bytes32 _positionHash,  // The Hash of the Position\n        address _address,       // The address that caused the action\n        bytes32 _action         // The tyoe of action: \"position opened\", \"position closed\"\n    );\n\n    modifier onlyLendroidWallet() {\n        require(msg.sender == address(LendroidWallet));\n        _;\n    }\n\n    function percentOf(uint _quantity, uint _percentage) internal view returns (uint256){\n        return wdiv(wmul(_quantity, _percentage), 10 ** LendroidNetworkParameters.decimals());\n    }\n\n    /**\n        @dev Throws if called by any account.\n    */\n    function() {\n        revert();\n    }\n\n    /// @dev Allows owner to set the NetworkParameters contract.\n    /// @param _address Address of the NetworkParameters contract.\n    function setLendroidNetworkParameters(address _address)\n        public\n        stoppable\n        auth// owner\n        returns (bool)\n    {\n        LendroidNetworkParameters = NetworkParameters(_address);\n        return true;\n    }\n\n    /// @dev Allows owner to set the Wallet contract.\n    /// @param _address Address of the Wallet contract.\n    function setLendroidWallet(address _address)\n        public\n        stoppable\n        auth// owner\n        returns (bool)\n    {\n        LendroidWallet = Wallet(_address);\n        return true;\n    }\n\n    /// @dev Allows owner to set the Oracle contract.\n    /// @param _address Address of the Oracle contract.\n    function setLendroidOracle(address _address)\n        public\n        stoppable\n        auth// owner\n        returns (bool)\n    {\n        LendroidOracle = Oracle(_address);\n        return true;\n    }\n\n    function createPosition(\n            address _trader,\n            bytes32 _tokenSymbol,\n            uint _tokenAmount\n        )\n        public\n        stoppable\n        // auth// ordermanager\n        returns (bool)\n    {\n        // TODO: Check if trader account is healthy\n        // Calculate WETH rate and verify if borrower can open a position\n        uint _maxAmount = LendroidWallet.getMaximumPositionOpenableAmount(_trader);\n        uint _tokenRate = LendroidOracle.getPrice(_tokenSymbol);\n        uint _positionAmount = wmul(_tokenRate, _tokenAmount);\n        require(_maxAmount >= _positionAmount);\n        // Update balances\n        require(LendroidWallet.openPosition(msg.sender, _positionAmount));\n        // Open a position\n        Position memory position;\n        position.timestamp = now;\n        position.trader = _trader;\n        position.tokenSymbol = _tokenSymbol;\n        position.tokenAmount = _tokenAmount;\n        position.openingRate = _tokenRate;\n        position.positionAmount = _positionAmount;\n        position.positionId = openPositions[msg.sender].length;\n        position.positionHash = getPositionHash(\n            position.timestamp,\n            position.trader,\n            position.tokenSymbol,\n            position.tokenAmount,\n            position.positionId\n        );\n        position.status = Status.ACTIVE;\n        // Save position\n        positions[position.positionHash] = position;\n        openPositions[msg.sender].push(position.positionHash);\n        // Log position update\n        LogPositionUpdated(\n            position.positionHash,\n            _trader,\n            \"position opened\"\n        );\n\n        return true;\n    }\n\n    function closePosition(\n            bytes32 _positionHash,\n            address _trader\n        )\n        public\n        payable\n        stoppable\n        returns (bool)\n    {\n        // TODO: Check if borrower account is healthy\n        // Get position based on hash\n        Position storage position = positions[_positionHash];\n        // Validations\n        // Verify trader\n        require(position.trader == msg.sender);\n        // Archive the active position\n        position.status = Status.CLOSED;\n        position.lastUpdated = now;\n        openPositions[_trader][position.positionId] = openPositions[_trader][openPositions[_trader].length - 1];\n        openPositions[_trader].length--;\n        LogPositionUpdated(\n            _positionHash,\n            _trader,\n            \"position opened\"\n        );\n        return true;\n    }\n\n    /// @return Keccak-256 hash of position.\n    function getPositionHash(\n            uint timestamp,\n            address trader,\n            bytes32 tokenSymbol,\n            uint tokenAmount,\n            uint positionId\n        )\n        internal\n        constant\n        returns (bytes32)\n    {\n        return keccak256(\n            address(this),\n            timestamp,\n            trader,\n            tokenSymbol,\n            tokenAmount,\n            positionId\n        );\n    }\n\n    function unRealizedPL(bytes32 _positionHash)\n        public\n        stoppable\n        constant\n        returns (uint)\n    {\n        Position storage position = positions[_positionHash];\n        require (position.status == Status.ACTIVE);\n        return mul(position.tokenAmount, LendroidOracle.getPrice(position.tokenSymbol));\n    }\n\n    function unRealizedPLs(address _trader)\n        public\n        stoppable\n        onlyLendroidWallet\n        constant\n        returns (uint)\n    {\n        uint totalPLs = 0;\n        for (uint positionId = 0; positionId < openPositions[_trader].length; positionId++) {\n            totalPLs = add(totalPLs, unRealizedPL(openPositions[_trader][positionId]));\n        }\n\n        return totalPLs;\n    }\n\n    /**\n        @param _trader the address that has opened positions\n        @return bytes32[] array of position hashes\n    */\n    function positionsOpened(address _trader)\n        public\n        stoppable\n        constant\n        returns (bytes32[]) {\n            return openPositions[_trader];\n        }\n\n}\n",
  "sourcePath": "/Users/vii/Desktop/lendroid/development/protocol-demo/contracts/PositionManager.sol",
  "compiler": {
    "name": "solc",
    "version": "0.4.18+commit.9cf6e910.Emscripten.clang"
  },
  "schemaVersion": "1.0.1",
  "updatedAt": "2017-11-16T08:46:43.252Z"
}