{
  "contractName": "PositionManager",
  "abi": [
    {
      "constant": false,
      "inputs": [
        {
          "name": "_address",
          "type": "address"
        }
      ],
      "name": "setLendroidOracle",
      "outputs": [
        {
          "name": "",
          "type": "bool"
        }
      ],
      "payable": false,
      "stateMutability": "nonpayable",
      "type": "function"
    },
    {
      "constant": false,
      "inputs": [],
      "name": "stop",
      "outputs": [],
      "payable": false,
      "stateMutability": "nonpayable",
      "type": "function"
    },
    {
      "constant": false,
      "inputs": [
        {
          "name": "owner_",
          "type": "address"
        }
      ],
      "name": "setOwner",
      "outputs": [],
      "payable": false,
      "stateMutability": "nonpayable",
      "type": "function"
    },
    {
      "constant": true,
      "inputs": [],
      "name": "LendroidWallet",
      "outputs": [
        {
          "name": "",
          "type": "address"
        }
      ],
      "payable": false,
      "stateMutability": "view",
      "type": "function"
    },
    {
      "constant": false,
      "inputs": [
        {
          "name": "_orderHash",
          "type": "bytes32"
        },
        {
          "name": "_borrower",
          "type": "address"
        },
        {
          "name": "_makerTokenSymbol",
          "type": "bytes32"
        },
        {
          "name": "_takerTokenSymbol",
          "type": "bytes32"
        },
        {
          "name": "_makerTokenAmount",
          "type": "uint256"
        },
        {
          "name": "_takerTokenAmount",
          "type": "uint256"
        }
      ],
      "name": "createPosition",
      "outputs": [
        {
          "name": "",
          "type": "bool"
        }
      ],
      "payable": false,
      "stateMutability": "nonpayable",
      "type": "function"
    },
    {
      "constant": true,
      "inputs": [
        {
          "name": "_positionHash",
          "type": "bytes32"
        }
      ],
      "name": "positionHealth",
      "outputs": [
        {
          "name": "",
          "type": "bytes32"
        },
        {
          "name": "",
          "type": "uint256"
        }
      ],
      "payable": false,
      "stateMutability": "view",
      "type": "function"
    },
    {
      "constant": true,
      "inputs": [],
      "name": "LendroidNetworkParameters",
      "outputs": [
        {
          "name": "",
          "type": "address"
        }
      ],
      "payable": false,
      "stateMutability": "view",
      "type": "function"
    },
    {
      "constant": true,
      "inputs": [],
      "name": "stopped",
      "outputs": [
        {
          "name": "",
          "type": "bool"
        }
      ],
      "payable": false,
      "stateMutability": "view",
      "type": "function"
    },
    {
      "constant": true,
      "inputs": [],
      "name": "LendroidOracle",
      "outputs": [
        {
          "name": "",
          "type": "address"
        }
      ],
      "payable": false,
      "stateMutability": "view",
      "type": "function"
    },
    {
      "constant": false,
      "inputs": [
        {
          "name": "authority_",
          "type": "address"
        }
      ],
      "name": "setAuthority",
      "outputs": [],
      "payable": false,
      "stateMutability": "nonpayable",
      "type": "function"
    },
    {
      "constant": false,
      "inputs": [
        {
          "name": "_address",
          "type": "address"
        }
      ],
      "name": "setLendroidNetworkParameters",
      "outputs": [
        {
          "name": "",
          "type": "bool"
        }
      ],
      "payable": false,
      "stateMutability": "nonpayable",
      "type": "function"
    },
    {
      "constant": true,
      "inputs": [],
      "name": "owner",
      "outputs": [
        {
          "name": "",
          "type": "address"
        }
      ],
      "payable": false,
      "stateMutability": "view",
      "type": "function"
    },
    {
      "constant": false,
      "inputs": [],
      "name": "start",
      "outputs": [],
      "payable": false,
      "stateMutability": "nonpayable",
      "type": "function"
    },
    {
      "constant": true,
      "inputs": [],
      "name": "authority",
      "outputs": [
        {
          "name": "",
          "type": "address"
        }
      ],
      "payable": false,
      "stateMutability": "view",
      "type": "function"
    },
    {
      "constant": false,
      "inputs": [
        {
          "name": "_positionHash",
          "type": "bytes32"
        }
      ],
      "name": "closePosition",
      "outputs": [
        {
          "name": "",
          "type": "bool"
        }
      ],
      "payable": true,
      "stateMutability": "payable",
      "type": "function"
    },
    {
      "constant": false,
      "inputs": [
        {
          "name": "_address",
          "type": "address"
        }
      ],
      "name": "setLendroidWallet",
      "outputs": [
        {
          "name": "",
          "type": "bool"
        }
      ],
      "payable": false,
      "stateMutability": "nonpayable",
      "type": "function"
    },
    {
      "payable": false,
      "stateMutability": "nonpayable",
      "type": "fallback"
    },
    {
      "anonymous": false,
      "inputs": [
        {
          "indexed": false,
          "name": "_positionHash",
          "type": "bytes32"
        },
        {
          "indexed": false,
          "name": "_address",
          "type": "address"
        },
        {
          "indexed": false,
          "name": "_action",
          "type": "bytes32"
        }
      ],
      "name": "LogPositionUpdated",
      "type": "event"
    },
    {
      "anonymous": false,
      "inputs": [
        {
          "indexed": true,
          "name": "authority",
          "type": "address"
        }
      ],
      "name": "LogSetAuthority",
      "type": "event"
    },
    {
      "anonymous": false,
      "inputs": [
        {
          "indexed": true,
          "name": "owner",
          "type": "address"
        }
      ],
      "name": "LogSetOwner",
      "type": "event"
    },
    {
      "anonymous": true,
      "inputs": [
        {
          "indexed": true,
          "name": "sig",
          "type": "bytes4"
        },
        {
          "indexed": true,
          "name": "guy",
          "type": "address"
        },
        {
          "indexed": true,
          "name": "foo",
          "type": "bytes32"
        },
        {
          "indexed": true,
          "name": "bar",
          "type": "bytes32"
        },
        {
          "indexed": false,
          "name": "wad",
          "type": "uint256"
        },
        {
          "indexed": false,
          "name": "fax",
          "type": "bytes"
        }
      ],
      "name": "LogNote",
      "type": "event"
    }
  ],
  "bytecode": "0x606060405233600160006101000a81548173ffffffffffffffffffffffffffffffffffffffff021916908373ffffffffffffffffffffffffffffffffffffffff1602179055503373ffffffffffffffffffffffffffffffffffffffff167fce241d7ca1f669fee44b6fc00b8eba2df3bb514eed0f6f668f8f89096e81ed9460405160405180910390a26119fd806100976000396000f3006060604052600436106100e6576000357c0100000000000000000000000000000000000000000000000000000000900463ffffffff1680630282c99f146100f657806307da68f51461014757806313af40351461015c5780632951bca3146101955780633ca9dc80146101ea57806352d23f3f1461027457806353ebc3d8146102be57806375f12b211461031357806377d0a51e146103405780637a9e5e4b14610395578063885c43cd146103ce5780638da5cb5b1461041f578063be9a655514610474578063bf7e214f14610489578063e54a2ad5146104de578063e9831f8a14610512575b34156100f157600080fd5b600080fd5b341561010157600080fd5b61012d600480803573ffffffffffffffffffffffffffffffffffffffff16906020019091905050610563565b604051808215151515815260200191505060405180910390f35b341561015257600080fd5b61015a610604565b005b341561016757600080fd5b610193600480803573ffffffffffffffffffffffffffffffffffffffff16906020019091905050610706565b005b34156101a057600080fd5b6101a86107e8565b604051808273ffffffffffffffffffffffffffffffffffffffff1673ffffffffffffffffffffffffffffffffffffffff16815260200191505060405180910390f35b34156101f557600080fd5b61025a60048080356000191690602001909190803573ffffffffffffffffffffffffffffffffffffffff16906020019091908035600019169060200190919080356000191690602001909190803590602001909190803590602001909190505061080e565b604051808215151515815260200191505060405180910390f35b341561027f57600080fd5b610299600480803560001916906020019091905050610e0f565b6040518083600019166000191681526020018281526020019250505060405180910390f35b34156102c957600080fd5b6102d161113e565b604051808273ffffffffffffffffffffffffffffffffffffffff1673ffffffffffffffffffffffffffffffffffffffff16815260200191505060405180910390f35b341561031e57600080fd5b610326611164565b604051808215151515815260200191505060405180910390f35b341561034b57600080fd5b610353611177565b604051808273ffffffffffffffffffffffffffffffffffffffff1673ffffffffffffffffffffffffffffffffffffffff16815260200191505060405180910390f35b34156103a057600080fd5b6103cc600480803573ffffffffffffffffffffffffffffffffffffffff1690602001909190505061119d565b005b34156103d957600080fd5b610405600480803573ffffffffffffffffffffffffffffffffffffffff1690602001909190505061127d565b604051808215151515815260200191505060405180910390f35b341561042a57600080fd5b61043261131e565b604051808273ffffffffffffffffffffffffffffffffffffffff1673ffffffffffffffffffffffffffffffffffffffff16815260200191505060405180910390f35b341561047f57600080fd5b610487611344565b005b341561049457600080fd5b61049c611447565b604051808273ffffffffffffffffffffffffffffffffffffffff1673ffffffffffffffffffffffffffffffffffffffff16815260200191505060405180910390f35b6104f860048080356000191690602001909190505061146c565b604051808215151515815260200191505060405180910390f35b341561051d57600080fd5b610549600480803573ffffffffffffffffffffffffffffffffffffffff169060200190919050506114b2565b604051808215151515815260200191505060405180910390f35b6000600160149054906101000a900460ff1615151561058157600080fd5b6105af336000357fffffffff0000000000000000000000000000000000000000000000000000000016611553565b15156105ba57600080fd5b81600460006101000a81548173ffffffffffffffffffffffffffffffffffffffff021916908373ffffffffffffffffffffffffffffffffffffffff16021790555060019050919050565b610632336000357fffffffff0000000000000000000000000000000000000000000000000000000016611553565b151561063d57600080fd5b60008060043591506024359050806000191682600019163373ffffffffffffffffffffffffffffffffffffffff166000357fffffffff00000000000000000000000000000000000000000000000000000000167bffffffffffffffffffffffffffffffffffffffffffffffffffffffff19163460003660405180848152602001806020018281038252848482818152602001925080828437820191505094505050505060405180910390a460018060146101000a81548160ff0219169083151502179055505050565b610734336000357fffffffff0000000000000000000000000000000000000000000000000000000016611553565b151561073f57600080fd5b80600160006101000a81548173ffffffffffffffffffffffffffffffffffffffff021916908373ffffffffffffffffffffffffffffffffffffffff160217905550600160009054906101000a900473ffffffffffffffffffffffffffffffffffffffff1673ffffffffffffffffffffffffffffffffffffffff167fce241d7ca1f669fee44b6fc00b8eba2df3bb514eed0f6f668f8f89096e81ed9460405160405180910390a250565b600260009054906101000a900473ffffffffffffffffffffffffffffffffffffffff1681565b60008060008061081c61190e565b600160149054906101000a900460ff1615151561083857600080fd5b600260009054906101000a900473ffffffffffffffffffffffffffffffffffffffff1673ffffffffffffffffffffffffffffffffffffffff166390fde0058b6000604051602001526040518263ffffffff167c0100000000000000000000000000000000000000000000000000000000028152600401808273ffffffffffffffffffffffffffffffffffffffff1673ffffffffffffffffffffffffffffffffffffffff168152602001915050602060405180830381600087803b15156108fd57600080fd5b6102c65a03f1151561090e57600080fd5b505050604051805190509350600460009054906101000a900473ffffffffffffffffffffffffffffffffffffffff1673ffffffffffffffffffffffffffffffffffffffff166331d98b3f896000604051602001526040518263ffffffff167c0100000000000000000000000000000000000000000000000000000000028152600401808260001916600019168152602001915050602060405180830381600087803b15156109bb57600080fd5b6102c65a03f115156109cc57600080fd5b5050506040518051905092506109e283876117b2565b91508184101515156109f357600080fd5b600260009054906101000a900473ffffffffffffffffffffffffffffffffffffffff1673ffffffffffffffffffffffffffffffffffffffff1663197897fc33846000604051602001526040518363ffffffff167c0100000000000000000000000000000000000000000000000000000000028152600401808373ffffffffffffffffffffffffffffffffffffffff1673ffffffffffffffffffffffffffffffffffffffff16815260200182815260200192505050602060405180830381600087803b1515610ac057600080fd5b6102c65a03f11515610ad157600080fd5b505050604051805190501515610ae657600080fd5b428160000181815250508a816020019060001916908160001916815250508881604001906000191690816000191681525050878160600190600019169081600019168152505086816080018181525050858160a0018181525050600660003373ffffffffffffffffffffffffffffffffffffffff1673ffffffffffffffffffffffffffffffffffffffff1681526020019081526020016000208054905081610120018181525050610bb9816000015182602001518360400151846060015185608001518660a001518761012001516117f6565b816101000190600019169081600019168152505060018161014001906003811115610be057fe5b90816003811115610bed57fe5b81525050600460009054906101000a900473ffffffffffffffffffffffffffffffffffffffff1673ffffffffffffffffffffffffffffffffffffffff166331d98b3f8a6000604051602001526040518263ffffffff167c0100000000000000000000000000000000000000000000000000000000028152600401808260001916600019168152602001915050602060405180830381600087803b1515610c9257600080fd5b6102c65a03f11515610ca357600080fd5b505050604051805190508160c0018181525050828160e0018181525050806005600083610100015160001916600019168152602001908152602001600020600082015181600001556020820151816001019060001916905560408201518160020190600019169055606082015181600301906000191690556080820151816004015560a0820151816005015560c0820151816006015560e082015181600701556101008201518160080190600019169055610120820151816009015561014082015181600a0160006101000a81548160ff02191690836003811115610d8457fe5b0217905550905050600660003373ffffffffffffffffffffffffffffffffffffffff1673ffffffffffffffffffffffffffffffffffffffff1681526020019081526020016000208054806001018281610ddd9190611980565b916000526020600020900160008361010001519091909150906000191690555060019450505050509695505050505050565b6000806000806000600160149054906101000a900460ff16151515610e3357600080fd5b600560008760001916600019168152602001908152602001600020925060016003811115610e5d57fe5b83600a0160009054906101000a900460ff166003811115610e7a57fe5b141515610e8657600080fd5b610eb2610e9b846004015485600601546118a6565b610ead856005015486600701546118a6565b6118d6565b9150611056610f848460040154600460009054906101000a900473ffffffffffffffffffffffffffffffffffffffff1673ffffffffffffffffffffffffffffffffffffffff166331d98b3f87600201546000604051602001526040518263ffffffff167c0100000000000000000000000000000000000000000000000000000000028152600401808260001916600019168152602001915050602060405180830381600087803b1515610f6457600080fd5b6102c65a03f11515610f7557600080fd5b505050604051805190506118a6565b6110518560050154600460009054906101000a900473ffffffffffffffffffffffffffffffffffffffff1673ffffffffffffffffffffffffffffffffffffffff166331d98b3f88600301546000604051602001526040518263ffffffff167c0100000000000000000000000000000000000000000000000000000000028152600401808260001916600019168152602001915050602060405180830381600087803b151561103157600080fd5b6102c65a03f1151561104257600080fd5b505050604051805190506118a6565b6118d6565b9050808211156110955761106a82826118f2565b7f64656372656173696e67000000000000000000000000000000000000000000009094509450611136565b818111156110d2576110a781836118f2565b7f696e6372656173696e67000000000000000000000000000000000000000000009094509450611136565b8181141561110a5760007f657175616c0000000000000000000000000000000000000000000000000000009080905094509450611136565b60007f696e76616c69640000000000000000000000000000000000000000000000000090809050945094505b505050915091565b600360009054906101000a900473ffffffffffffffffffffffffffffffffffffffff1681565b600160149054906101000a900460ff1681565b600460009054906101000a900473ffffffffffffffffffffffffffffffffffffffff1681565b6111cb336000357fffffffff0000000000000000000000000000000000000000000000000000000016611553565b15156111d657600080fd5b806000806101000a81548173ffffffffffffffffffffffffffffffffffffffff021916908373ffffffffffffffffffffffffffffffffffffffff1602179055506000809054906101000a900473ffffffffffffffffffffffffffffffffffffffff1673ffffffffffffffffffffffffffffffffffffffff167f1abebea81bfa2637f28358c371278fb15ede7ea8dd28d2e03b112ff6d936ada460405160405180910390a250565b6000600160149054906101000a900460ff1615151561129b57600080fd5b6112c9336000357fffffffff0000000000000000000000000000000000000000000000000000000016611553565b15156112d457600080fd5b81600360006101000a81548173ffffffffffffffffffffffffffffffffffffffff021916908373ffffffffffffffffffffffffffffffffffffffff16021790555060019050919050565b600160009054906101000a900473ffffffffffffffffffffffffffffffffffffffff1681565b611372336000357fffffffff0000000000000000000000000000000000000000000000000000000016611553565b151561137d57600080fd5b60008060043591506024359050806000191682600019163373ffffffffffffffffffffffffffffffffffffffff166000357fffffffff00000000000000000000000000000000000000000000000000000000167bffffffffffffffffffffffffffffffffffffffffffffffffffffffff19163460003660405180848152602001806020018281038252848482818152602001925080828437820191505094505050505060405180910390a46000600160146101000a81548160ff0219169083151502179055505050565b6000809054906101000a900473ffffffffffffffffffffffffffffffffffffffff1681565b600080600160149054906101000a900460ff1615151561148b57600080fd5b60056000846000191660001916815260200190815260200160002090506001915050919050565b6000600160149054906101000a900460ff161515156114d057600080fd5b6114fe336000357fffffffff0000000000000000000000000000000000000000000000000000000016611553565b151561150957600080fd5b81600260006101000a81548173ffffffffffffffffffffffffffffffffffffffff021916908373ffffffffffffffffffffffffffffffffffffffff16021790555060019050919050565b60003073ffffffffffffffffffffffffffffffffffffffff168373ffffffffffffffffffffffffffffffffffffffff16141561159257600190506117ac565b600160009054906101000a900473ffffffffffffffffffffffffffffffffffffffff1673ffffffffffffffffffffffffffffffffffffffff168373ffffffffffffffffffffffffffffffffffffffff1614156115f157600190506117ac565b600073ffffffffffffffffffffffffffffffffffffffff166000809054906101000a900473ffffffffffffffffffffffffffffffffffffffff1673ffffffffffffffffffffffffffffffffffffffff16141561165057600090506117ac565b6000809054906101000a900473ffffffffffffffffffffffffffffffffffffffff1673ffffffffffffffffffffffffffffffffffffffff1663b70096138430856000604051602001526040518463ffffffff167c0100000000000000000000000000000000000000000000000000000000028152600401808473ffffffffffffffffffffffffffffffffffffffff1673ffffffffffffffffffffffffffffffffffffffff1681526020018373ffffffffffffffffffffffffffffffffffffffff1673ffffffffffffffffffffffffffffffffffffffff168152602001827bffffffffffffffffffffffffffffffffffffffffffffffffffffffff19167bffffffffffffffffffffffffffffffffffffffffffffffffffffffff191681526020019350505050602060405180830381600087803b151561178e57600080fd5b6102c65a03f1151561179f57600080fd5b5050506040518051905090505b92915050565b6000670de0b6b3a76400006117e46117ca85856118a6565b6002670de0b6b3a76400008115156117de57fe5b046118d6565b8115156117ed57fe5b04905092915050565b60003088888888888888604051808973ffffffffffffffffffffffffffffffffffffffff1673ffffffffffffffffffffffffffffffffffffffff166c010000000000000000000000000281526014018881526020018760001916600019168152602001866000191660001916815260200185600019166000191681526020018481526020018381526020018281526020019850505050505050505060405180910390209050979650505050505050565b6000808214806118c5575082828385029250828115156118c257fe5b04145b15156118d057600080fd5b92915050565b600082828401915081101515156118ec57600080fd5b92915050565b6000828284039150811115151561190857600080fd5b92915050565b61016060405190810160405280600081526020016000801916815260200160008019168152602001600080191681526020016000815260200160008152602001600081526020016000815260200160008019168152602001600081526020016000600381111561197a57fe5b81525090565b8154818355818115116119a7578183600052602060002091820191016119a691906119ac565b5b505050565b6119ce91905b808211156119ca5760008160009055506001016119b2565b5090565b905600a165627a7a72305820e3e4e38474559f9b632c2d23c2f6329882ead2907fc90c73b3fff3d49a8558330029",
  "source": "pragma solidity ^0.4.2;\r\n\r\nimport './math.sol';\r\nimport './stop.sol';\r\n\r\nimport './Wallet.sol';\r\nimport \"./NetworkParameters.sol\";\r\nimport \"./Oracle.sol\";\r\n\r\n/**\r\n    @title PositionManager\r\n    @notice The PositionManager contract inherits the DSMath & DSStop contracts, \r\n        and manages trade positions on Lendroid.\r\n */\r\ncontract PositionManager is DSMath, DSStop {\r\n\r\n    Wallet public LendroidWallet;\r\n    NetworkParameters public LendroidNetworkParameters;\r\n    Oracle public LendroidOracle;\r\n\r\n    enum Status {\r\n        UNISSUED,\r\n        ACTIVE,\r\n        CLOSED,\r\n        DEFAULTED\r\n    }\r\n\r\n    struct Position {\r\n        uint timestamp;\r\n        bytes32 orderHash;\r\n        bytes32 makerTokenSymbol;\r\n        bytes32 takerTokenSymbol;\r\n        uint makerTokenAmount;\r\n        uint takerTokenAmount;\r\n        uint makerTokenOpeningRate;\r\n        uint takerTokenOpeningRate;\r\n        bytes32 positionHash;\r\n        uint positionId;\r\n        Status status;\r\n    }\r\n\r\n    mapping (bytes32 => Position) positions;\r\n    mapping (address => bytes32[]) accountpositions; // Trade positions array per address\r\n\r\n    event LogPositionUpdated(\r\n        bytes32 _positionHash,  // The Hash of the Position\r\n        address _address,       // The address that caused the action\r\n        bytes32 _action         // The tyoe of action: \"position opened\", \"position closed\"\r\n    );\r\n\r\n    function percentOf(uint _quantity, uint _percentage) internal view returns (uint256){\r\n        return wdiv(wmul(_quantity, _percentage), 10 ** LendroidNetworkParameters.decimals());\r\n    }\r\n\r\n    /**\r\n        @dev Throws if called by any account.\r\n    */\r\n    function() {\r\n        revert();\r\n    }\r\n\r\n    /// @dev Allows owner to set the NetworkParameters contract.\r\n    /// @param _address Address of the NetworkParameters contract.\r\n    function setLendroidNetworkParameters(address _address)\r\n        public\r\n        stoppable\r\n        auth// owner\r\n        returns (bool) \r\n    {\r\n        LendroidNetworkParameters = NetworkParameters(_address);\r\n        return true;\r\n    }\r\n\r\n    /// @dev Allows owner to set the Wallet contract.\r\n    /// @param _address Address of the Wallet contract.\r\n    function setLendroidWallet(address _address)\r\n        public\r\n        stoppable\r\n        auth// owner\r\n        returns (bool) \r\n    {\r\n        LendroidWallet = Wallet(_address);\r\n        return true;\r\n    }\r\n\r\n    /// @dev Allows owner to set the Oracle contract.\r\n    /// @param _address Address of the Oracle contract.\r\n    function setLendroidOracle(address _address)\r\n        public \r\n        stoppable\r\n        auth// owner\r\n        returns (bool)\r\n    {\r\n        LendroidOracle = Oracle(_address);\r\n        return true;\r\n    }\r\n\r\n    function createPosition(\r\n            bytes32 _orderHash,\r\n            address _borrower,\r\n            bytes32 _makerTokenSymbol,\r\n            bytes32 _takerTokenSymbol,\r\n            uint _makerTokenAmount,\r\n            uint _takerTokenAmount\r\n        )\r\n        public\r\n        stoppable\r\n        // auth// ordermanager\r\n        returns (bool)\r\n    {\r\n        // TODO: Check if borrower account is healthy\r\n        // Calculate WETH rate and verify if borrower can open a positiCalculate\r\n        uint _maxAmount = LendroidWallet.getMaximumPositionOpenableAmount(_borrower);\r\n        uint _positionTokenOpeningRate = LendroidOracle.getPrice(_takerTokenSymbol);\r\n        uint _positionAmount = wmul(_positionTokenOpeningRate, _takerTokenAmount);\r\n        require(_maxAmount >= _positionAmount);\r\n        // Update balances\r\n        require(LendroidWallet.openPosition(msg.sender, _positionAmount));\r\n        // Open a position\r\n        Position memory position;\r\n        position.timestamp = now;\r\n        position.orderHash = _orderHash;\r\n        position.makerTokenSymbol = _makerTokenSymbol;\r\n        position.takerTokenSymbol = _takerTokenSymbol;\r\n        position.makerTokenAmount = _makerTokenAmount;\r\n        position.takerTokenAmount = _takerTokenAmount;\r\n        position.positionId = accountpositions[msg.sender].length;\r\n        position.positionHash = getPositionHash(\r\n            position.timestamp,\r\n            position.orderHash,\r\n            position.makerTokenSymbol,\r\n            position.takerTokenSymbol,\r\n            position.makerTokenAmount,\r\n            position.takerTokenAmount,\r\n            position.positionId\r\n        );\r\n        position.status = Status.ACTIVE;\r\n        // Add current market rate of tokens wrt WETH\r\n        position.makerTokenOpeningRate = LendroidOracle.getPrice(_makerTokenSymbol);\r\n        position.takerTokenOpeningRate = _positionTokenOpeningRate;\r\n        // Save position\r\n        positions[position.positionHash] = position;\r\n        accountpositions[msg.sender].push(position.positionHash);\r\n        // Log position update\r\n        \r\n        return true;\r\n    }\r\n    \r\n    function closePosition(bytes32 _positionHash) \r\n        public\r\n        payable \r\n        stoppable\r\n        returns (bool) \r\n    {\r\n        // TODO: Check if borrower account is healthy\r\n        // Get position based on hash\r\n        Position storage position = positions[_positionHash];\r\n        return true;\r\n    }\r\n\r\n    /// @return Keccak-256 hash of position.\r\n    function getPositionHash(\r\n            uint timestamp,\r\n            bytes32 orderHash,\r\n            bytes32 makerTokenSymbol,\r\n            bytes32 takerTokenSymbol,\r\n            uint makerTokenAmount,\r\n            uint takerTokenAmount,\r\n            uint positionId\r\n        )\r\n        internal\r\n        constant\r\n        returns (bytes32)\r\n    {\r\n        return keccak256(\r\n            address(this),\r\n            timestamp,\r\n            orderHash,\r\n            makerTokenSymbol,\r\n            takerTokenSymbol,\r\n            makerTokenAmount,\r\n            takerTokenAmount,\r\n            positionId\r\n        );\r\n    }\r\n\r\n    function positionHealth(bytes32 _positionHash)\r\n        public\r\n        stoppable\r\n        constant\r\n        returns (bytes32, uint)\r\n    {\r\n        Position storage position = positions[_positionHash];\r\n        require (position.status == Status.ACTIVE);\r\n        uint openingTotal = add(\r\n            mul(position.makerTokenAmount, position.makerTokenOpeningRate),\r\n            mul(position.takerTokenAmount, position.takerTokenOpeningRate)\r\n        );\r\n        uint currentTotal = add(\r\n            mul(position.makerTokenAmount, LendroidOracle.getPrice(position.makerTokenSymbol)),\r\n            mul(position.takerTokenAmount, LendroidOracle.getPrice(position.takerTokenSymbol))\r\n        );\r\n        if (openingTotal > currentTotal) {\r\n            return (\"decreasing\", sub(openingTotal, currentTotal));\r\n        }\r\n        if (currentTotal > openingTotal) {\r\n            return (\"increasing\", sub(currentTotal, openingTotal));\r\n        }\r\n        if (currentTotal == openingTotal) {\r\n            return (\"equal\", 0);\r\n        }\r\n        return (\"invalid\", 0);\r\n    }\r\n\r\n}",
  "sourcePath": "C:\\work\\programming\\ethereum\\lendroid\\protocol-demo\\contracts\\PositionManager.sol",
  "compiler": {
    "name": "solc",
    "version": "0.4.18+commit.9cf6e910.Emscripten.clang"
  },
  "schemaVersion": "1.0.1",
  "updatedAt": "2017-11-12T15:12:16.250Z"
}