{
  "contractName": "PriceFeedManager",
  "abi": [
    {
      "constant": false,
      "inputs": [
        {
          "name": "_address",
          "type": "address"
        }
      ],
      "name": "setLendroidOracle",
      "outputs": [
        {
          "name": "",
          "type": "bool"
        }
      ],
      "payable": false,
      "stateMutability": "nonpayable",
      "type": "function"
    },
    {
      "constant": true,
      "inputs": [
        {
          "name": "",
          "type": "address"
        }
      ],
      "name": "providers",
      "outputs": [
        {
          "name": "provider",
          "type": "address"
        },
        {
          "name": "name",
          "type": "bytes32"
        },
        {
          "name": "status",
          "type": "uint8"
        }
      ],
      "payable": false,
      "stateMutability": "view",
      "type": "function"
    },
    {
      "constant": false,
      "inputs": [
        {
          "name": "_provider",
          "type": "address"
        },
        {
          "name": "_name",
          "type": "bytes32"
        }
      ],
      "name": "addProvider",
      "outputs": [],
      "payable": false,
      "stateMutability": "nonpayable",
      "type": "function"
    },
    {
      "constant": false,
      "inputs": [
        {
          "name": "_name",
          "type": "bytes32"
        }
      ],
      "name": "deactivateProvider",
      "outputs": [
        {
          "name": "",
          "type": "bool"
        }
      ],
      "payable": false,
      "stateMutability": "nonpayable",
      "type": "function"
    },
    {
      "constant": false,
      "inputs": [
        {
          "name": "_name",
          "type": "bytes32"
        },
        {
          "name": "_index",
          "type": "uint256"
        }
      ],
      "name": "removeProvider",
      "outputs": [],
      "payable": false,
      "stateMutability": "nonpayable",
      "type": "function"
    },
    {
      "constant": true,
      "inputs": [
        {
          "name": "_name",
          "type": "bytes32"
        }
      ],
      "name": "getProviderMetaData",
      "outputs": [
        {
          "name": "",
          "type": "address"
        },
        {
          "name": "",
          "type": "bytes32"
        },
        {
          "name": "",
          "type": "uint8"
        }
      ],
      "payable": false,
      "stateMutability": "view",
      "type": "function"
    },
    {
      "constant": false,
      "inputs": [
        {
          "name": "_name",
          "type": "bytes32"
        }
      ],
      "name": "activateProvider",
      "outputs": [],
      "payable": false,
      "stateMutability": "nonpayable",
      "type": "function"
    },
    {
      "constant": false,
      "inputs": [
        {
          "name": "_address",
          "type": "address"
        }
      ],
      "name": "setLendroidNetworkParameters",
      "outputs": [
        {
          "name": "",
          "type": "bool"
        }
      ],
      "payable": false,
      "stateMutability": "nonpayable",
      "type": "function"
    },
    {
      "constant": true,
      "inputs": [],
      "name": "owner",
      "outputs": [
        {
          "name": "",
          "type": "address"
        }
      ],
      "payable": false,
      "stateMutability": "view",
      "type": "function"
    },
    {
      "constant": false,
      "inputs": [
        {
          "name": "_symbol",
          "type": "bytes32"
        },
        {
          "name": "_price",
          "type": "uint256"
        }
      ],
      "name": "updatePriceFeed",
      "outputs": [
        {
          "name": "",
          "type": "bool"
        }
      ],
      "payable": false,
      "stateMutability": "nonpayable",
      "type": "function"
    },
    {
      "constant": true,
      "inputs": [
        {
          "name": "_address",
          "type": "address"
        }
      ],
      "name": "isValidProvider",
      "outputs": [
        {
          "name": "validProviderAddress",
          "type": "bool"
        }
      ],
      "payable": false,
      "stateMutability": "view",
      "type": "function"
    },
    {
      "constant": true,
      "inputs": [
        {
          "name": "",
          "type": "uint256"
        }
      ],
      "name": "providerNames",
      "outputs": [
        {
          "name": "",
          "type": "bytes32"
        }
      ],
      "payable": false,
      "stateMutability": "view",
      "type": "function"
    },
    {
      "constant": false,
      "inputs": [
        {
          "name": "newOwner",
          "type": "address"
        }
      ],
      "name": "transferOwnership",
      "outputs": [],
      "payable": false,
      "stateMutability": "nonpayable",
      "type": "function"
    },
    {
      "anonymous": false,
      "inputs": [
        {
          "indexed": true,
          "name": "provider",
          "type": "address"
        },
        {
          "indexed": false,
          "name": "name",
          "type": "bytes32"
        }
      ],
      "name": "LogAddProvider",
      "type": "event"
    },
    {
      "anonymous": false,
      "inputs": [
        {
          "indexed": true,
          "name": "provider",
          "type": "address"
        },
        {
          "indexed": false,
          "name": "name",
          "type": "bytes32"
        }
      ],
      "name": "LogRemoveProvider",
      "type": "event"
    },
    {
      "anonymous": false,
      "inputs": [
        {
          "indexed": true,
          "name": "provider",
          "type": "address"
        },
        {
          "indexed": false,
          "name": "name",
          "type": "bytes32"
        }
      ],
      "name": "LogDeactivateProvider",
      "type": "event"
    },
    {
      "anonymous": false,
      "inputs": [
        {
          "indexed": true,
          "name": "provider",
          "type": "address"
        },
        {
          "indexed": false,
          "name": "name",
          "type": "bytes32"
        }
      ],
      "name": "LogActivateProvider",
      "type": "event"
    },
    {
      "anonymous": false,
      "inputs": [
        {
          "indexed": true,
          "name": "name",
          "type": "bytes32"
        },
        {
          "indexed": false,
          "name": "oldAddress",
          "type": "address"
        },
        {
          "indexed": false,
          "name": "newAddress",
          "type": "address"
        }
      ],
      "name": "LogProviderAddressChange",
      "type": "event"
    }
  ],
  "bytecode": "0x6060604052336000806101000a81548173ffffffffffffffffffffffffffffffffffffffff021916908373ffffffffffffffffffffffffffffffffffffffff1602179055506116ce806100536000396000f3006060604052600436106100c5576000357c0100000000000000000000000000000000000000000000000000000000900463ffffffff1680630282c99f146100ca5780630787bc271461011b57806313456f7e146101b8578063163762ce146101fe5780633a8ded961461023d5780634168596e1461026d57806367a45648146102f8578063885c43cd1461031f5780638da5cb5b1461037057806393781ffb146103c5578063b2bbefdb1461040d578063cc5c00d71461045e578063f2fde38b1461049d575b600080fd5b34156100d557600080fd5b610101600480803573ffffffffffffffffffffffffffffffffffffffff169060200190919050506104d6565b604051808215151515815260200191505060405180910390f35b341561012657600080fd5b610152600480803573ffffffffffffffffffffffffffffffffffffffff1690602001909190505061057d565b604051808473ffffffffffffffffffffffffffffffffffffffff1673ffffffffffffffffffffffffffffffffffffffff16815260200183600019166000191681526020018260018111156101a257fe5b60ff168152602001935050505060405180910390f35b34156101c357600080fd5b6101fc600480803573ffffffffffffffffffffffffffffffffffffffff16906020019091908035600019169060200190919050506105d4565b005b341561020957600080fd5b6102236004808035600019169060200190919050506108cb565b604051808215151515815260200191505060405180910390f35b341561024857600080fd5b61026b600480803560001916906020019091908035906020019091905050610acc565b005b341561027857600080fd5b610292600480803560001916906020019091905050610e2d565b604051808473ffffffffffffffffffffffffffffffffffffffff1673ffffffffffffffffffffffffffffffffffffffff16815260200183600019166000191681526020018260018111156102e257fe5b60ff168152602001935050505060405180910390f35b341561030357600080fd5b61031d600480803560001916906020019091905050610f74565b005b341561032a57600080fd5b610356600480803573ffffffffffffffffffffffffffffffffffffffff1690602001909190505061116e565b604051808215151515815260200191505060405180910390f35b341561037b57600080fd5b610383611215565b604051808273ffffffffffffffffffffffffffffffffffffffff1673ffffffffffffffffffffffffffffffffffffffff16815260200191505060405180910390f35b34156103d057600080fd5b6103f360048080356000191690602001909190803590602001909190505061123a565b604051808215151515815260200191505060405180910390f35b341561041857600080fd5b610444600480803573ffffffffffffffffffffffffffffffffffffffff16906020019091905050611426565b604051808215151515815260200191505060405180910390f35b341561046957600080fd5b61047f60048080359060200190919050506114e6565b60405180826000191660001916815260200191505060405180910390f35b34156104a857600080fd5b6104d4600480803573ffffffffffffffffffffffffffffffffffffffff1690602001909190505061150a565b005b60008060009054906101000a900473ffffffffffffffffffffffffffffffffffffffff1673ffffffffffffffffffffffffffffffffffffffff163373ffffffffffffffffffffffffffffffffffffffff1614151561053357600080fd5b81600560006101000a81548173ffffffffffffffffffffffffffffffffffffffff021916908373ffffffffffffffffffffffffffffffffffffffff16021790555060019050919050565b60016020528060005260406000206000915090508060000160009054906101000a900473ffffffffffffffffffffffffffffffffffffffff16908060010154908060020160009054906101000a900460ff16905083565b6000809054906101000a900473ffffffffffffffffffffffffffffffffffffffff1673ffffffffffffffffffffffffffffffffffffffff163373ffffffffffffffffffffffffffffffffffffffff1614151561062f57600080fd5b81600073ffffffffffffffffffffffffffffffffffffffff168173ffffffffffffffffffffffffffffffffffffffff161415151561066c57600080fd5b81600073ffffffffffffffffffffffffffffffffffffffff1660026000836000191660001916815260200190815260200160002060009054906101000a900473ffffffffffffffffffffffffffffffffffffffff1673ffffffffffffffffffffffffffffffffffffffff161415156106e357600080fd5b6060604051908101604052808573ffffffffffffffffffffffffffffffffffffffff1681526020018460001916815260200160018081111561072157fe5b815250600160008673ffffffffffffffffffffffffffffffffffffffff1673ffffffffffffffffffffffffffffffffffffffff16815260200190815260200160002060008201518160000160006101000a81548173ffffffffffffffffffffffffffffffffffffffff021916908373ffffffffffffffffffffffffffffffffffffffff1602179055506020820151816001019060001916905560408201518160020160006101000a81548160ff021916908360018111156107de57fe5b0217905550905050600380548060010182816107fa91906115df565b9160005260206000209001600085909190915090600019169055508360026000856000191660001916815260200190815260200160002060006101000a81548173ffffffffffffffffffffffffffffffffffffffff021916908373ffffffffffffffffffffffffffffffffffffffff1602179055508373ffffffffffffffffffffffffffffffffffffffff167f10f3cac274da985671e5f4c125314c2a606ab8370e25bca75996452b8e6f24548460405180826000191660001916815260200191505060405180910390a250505050565b6000806000809054906101000a900473ffffffffffffffffffffffffffffffffffffffff1673ffffffffffffffffffffffffffffffffffffffff163373ffffffffffffffffffffffffffffffffffffffff1614151561092957600080fd5b82600073ffffffffffffffffffffffffffffffffffffffff1660026000836000191660001916815260200190815260200160002060009054906101000a900473ffffffffffffffffffffffffffffffffffffffff1673ffffffffffffffffffffffffffffffffffffffff16141515156109a157600080fd5b6001600060026000876000191660001916815260200190815260200160002060009054906101000a900473ffffffffffffffffffffffffffffffffffffffff1673ffffffffffffffffffffffffffffffffffffffff1673ffffffffffffffffffffffffffffffffffffffff16815260200190815260200160002091508160000160009054906101000a900473ffffffffffffffffffffffffffffffffffffffff1673ffffffffffffffffffffffffffffffffffffffff167f0b059dba7192ab753a140fae2944db866c03efc84b0f398da9b259b5a942c11a836001015460405180826000191660001916815260200191505060405180910390a260008260020160006101000a81548160ff02191690836001811115610abc57fe5b0217905550600192505050919050565b60008060009054906101000a900473ffffffffffffffffffffffffffffffffffffffff1673ffffffffffffffffffffffffffffffffffffffff163373ffffffffffffffffffffffffffffffffffffffff16141515610b2957600080fd5b82600073ffffffffffffffffffffffffffffffffffffffff1660026000836000191660001916815260200190815260200160002060009054906101000a900473ffffffffffffffffffffffffffffffffffffffff1673ffffffffffffffffffffffffffffffffffffffff1614151515610ba157600080fd5b8360001916600384815481101515610bb557fe5b90600052602060002090015460001916141515610bd157600080fd5b6003600160038054905003815481101515610be857fe5b906000526020600020900154600384815481101515610c0357fe5b906000526020600020900181600019169055506001600381818054905003915081610c2e919061160b565b506001600060026000876000191660001916815260200190815260200160002060009054906101000a900473ffffffffffffffffffffffffffffffffffffffff1673ffffffffffffffffffffffffffffffffffffffff1673ffffffffffffffffffffffffffffffffffffffff16815260200190815260200160002091508160000160009054906101000a900473ffffffffffffffffffffffffffffffffffffffff1673ffffffffffffffffffffffffffffffffffffffff167f75939e4107bc79b622aca25a5f01c6043244304145ca68abcce0716057e30684836001015460405180826000191660001916815260200191505060405180910390a26001600060026000876000191660001916815260200190815260200160002060009054906101000a900473ffffffffffffffffffffffffffffffffffffffff1673ffffffffffffffffffffffffffffffffffffffff1673ffffffffffffffffffffffffffffffffffffffff168152602001908152602001600020600080820160006101000a81549073ffffffffffffffffffffffffffffffffffffffff021916905560018201600090556002820160006101000a81549060ff0219169055505060026000856000191660001916815260200190815260200160002060006101000a81549073ffffffffffffffffffffffffffffffffffffffff021916905550505050565b6000806000610e3a611637565b6001600060026000886000191660001916815260200190815260200160002060009054906101000a900473ffffffffffffffffffffffffffffffffffffffff1673ffffffffffffffffffffffffffffffffffffffff1673ffffffffffffffffffffffffffffffffffffffff168152602001908152602001600020606060405190810160405290816000820160009054906101000a900473ffffffffffffffffffffffffffffffffffffffff1673ffffffffffffffffffffffffffffffffffffffff1673ffffffffffffffffffffffffffffffffffffffff1681526020016001820154600019166000191681526020016002820160009054906101000a900460ff166001811115610f4657fe5b6001811115610f5157fe5b815250509050806000015181602001518260400151935093509350509193909250565b60008060009054906101000a900473ffffffffffffffffffffffffffffffffffffffff1673ffffffffffffffffffffffffffffffffffffffff163373ffffffffffffffffffffffffffffffffffffffff16141515610fd157600080fd5b81600073ffffffffffffffffffffffffffffffffffffffff1660026000836000191660001916815260200190815260200160002060009054906101000a900473ffffffffffffffffffffffffffffffffffffffff1673ffffffffffffffffffffffffffffffffffffffff161415151561104957600080fd5b6001600060026000866000191660001916815260200190815260200160002060009054906101000a900473ffffffffffffffffffffffffffffffffffffffff1673ffffffffffffffffffffffffffffffffffffffff1673ffffffffffffffffffffffffffffffffffffffff16815260200190815260200160002091508160000160009054906101000a900473ffffffffffffffffffffffffffffffffffffffff1673ffffffffffffffffffffffffffffffffffffffff167fbaa10d0b9881678d86d85dc1f0e8f485521ff0aaae8d760a5676df36e1589de1836001015460405180826000191660001916815260200191505060405180910390a260018260020160006101000a81548160ff0219169083600181111561116457fe5b0217905550505050565b60008060009054906101000a900473ffffffffffffffffffffffffffffffffffffffff1673ffffffffffffffffffffffffffffffffffffffff163373ffffffffffffffffffffffffffffffffffffffff161415156111cb57600080fd5b81600460006101000a81548173ffffffffffffffffffffffffffffffffffffffff021916908373ffffffffffffffffffffffffffffffffffffffff16021790555060019050919050565b6000809054906101000a900473ffffffffffffffffffffffffffffffffffffffff1681565b60008061124633611426565b151561125157600080fd5b600460009054906101000a900473ffffffffffffffffffffffffffffffffffffffff1673ffffffffffffffffffffffffffffffffffffffff166326a2a16d856000604051602001526040518263ffffffff167c0100000000000000000000000000000000000000000000000000000000028152600401808260001916600019168152602001915050602060405180830381600087803b15156112f257600080fd5b6102c65a03f1151561130357600080fd5b505050604051805190509050600073ffffffffffffffffffffffffffffffffffffffff168173ffffffffffffffffffffffffffffffffffffffff161415151561134b57600080fd5b600560009054906101000a900473ffffffffffffffffffffffffffffffffffffffff1673ffffffffffffffffffffffffffffffffffffffff16632d88052185856000604051602001526040518363ffffffff167c010000000000000000000000000000000000000000000000000000000002815260040180836000191660001916815260200182815260200192505050602060405180830381600087803b15156113f457600080fd5b6102c65a03f1151561140557600080fd5b5050506040518051905015151561141b57600080fd5b600191505092915050565b600081600073ffffffffffffffffffffffffffffffffffffffff168173ffffffffffffffffffffffffffffffffffffffff161415151561146557600080fd5b60018081111561147157fe5b600160008573ffffffffffffffffffffffffffffffffffffffff1673ffffffffffffffffffffffffffffffffffffffff16815260200190815260200160002060020160009054906101000a900460ff1660018111156114cc57fe5b14156114db57600191506114e0565b600091505b50919050565b6003818154811015156114f557fe5b90600052602060002090016000915090505481565b6000809054906101000a900473ffffffffffffffffffffffffffffffffffffffff1673ffffffffffffffffffffffffffffffffffffffff163373ffffffffffffffffffffffffffffffffffffffff1614151561156557600080fd5b600073ffffffffffffffffffffffffffffffffffffffff168173ffffffffffffffffffffffffffffffffffffffff161415156115dc57806000806101000a81548173ffffffffffffffffffffffffffffffffffffffff021916908373ffffffffffffffffffffffffffffffffffffffff1602179055505b50565b81548183558181151161160657818360005260206000209182019101611605919061167d565b5b505050565b81548183558181151161163257818360005260206000209182019101611631919061167d565b5b505050565b606060405190810160405280600073ffffffffffffffffffffffffffffffffffffffff168152602001600080191681526020016000600181111561167757fe5b81525090565b61169f91905b8082111561169b576000816000905550600101611683565b5090565b905600a165627a7a7230582077c8bddbfbea6ecc3ec7fe4981a08c4da97db3f3a155a8b3404b12b7b11aaa1d0029",
  "source": "pragma solidity ^0.4.18;\r\nimport \"./Ownable.sol\";\r\nimport \"./NetworkParameters.sol\";\r\nimport \"./Oracle.sol\";\r\n\r\n/// @title Contract that contains supported Oracle. Open to Governance.\r\n/// @author Lendroid - <vii@lendroid.io>, Inspired from 0xProject\r\ncontract PriceFeedManager is Ownable {\r\n    \r\n    event LogAddProvider(\r\n        address indexed provider,\r\n        bytes32 name\r\n    );\r\n\r\n    event LogRemoveProvider(\r\n        address indexed provider,\r\n        bytes32 name\r\n    );\r\n\r\n    event LogDeactivateProvider(\r\n        address indexed provider,\r\n        bytes32 name\r\n    );\r\n\r\n    event LogActivateProvider(\r\n        address indexed provider,\r\n        bytes32 name\r\n    );\r\n\r\n    event LogProviderAddressChange(bytes32 indexed name, address oldAddress, address newAddress);\r\n    \r\n    enum Status {\r\n        INACTIVE, // Set to inctive when a provider is deactivated\r\n        ACTIVE    // Default status when a new provider is added\r\n    }\r\n    \r\n    struct ProviderMetaData {\r\n        address provider;\r\n        bytes32 name;\r\n        Status status;\r\n    }\r\n    \r\n    mapping (address => ProviderMetaData) public providers;\r\n    mapping (bytes32 => address) providerByName;\r\n    bytes32[] public providerNames;\r\n\r\n    NetworkParameters LendroidNetworkParameters;\r\n    Oracle LendroidOracle;\r\n\r\n    modifier nameExists(bytes32 _name) {\r\n        require(providerByName[_name] != address(0));\r\n        _;\r\n    }\r\n    \r\n    modifier nameDoesNotExist(bytes32 _name) {\r\n        require(providerByName[_name] == address(0));\r\n        _;\r\n    }\r\n\r\n    modifier addressNotNull(address _address) {\r\n        require(_address != address(0));\r\n        _;\r\n    }\r\n\r\n    function isValidProvider(\r\n        address _address)\r\n        public\r\n        addressNotNull(_address) \r\n        constant\r\n        returns (bool validProviderAddress)\r\n    {\r\n        if (providers[_address].status == Status.ACTIVE) {\r\n            validProviderAddress = true;\r\n        }\r\n        else {\r\n            validProviderAddress = false;\r\n        }\r\n    }\r\n\r\n    /// @dev Allows owner to set the NetworkParameters contract.\r\n    /// @param _address Address of the NetworkParameters contract.\r\n    function setLendroidNetworkParameters(address _address) public onlyOwner returns (bool) {\r\n        LendroidNetworkParameters = NetworkParameters(_address);\r\n        return true;\r\n    }\r\n\r\n    /// @dev Allows owner to set the Oracle contract.\r\n    /// @param _address Address of the Oracle contract.\r\n    function setLendroidOracle(address _address) public onlyOwner returns (bool) {\r\n        LendroidOracle = Oracle(_address);\r\n        return true;\r\n    }\r\n\r\n    /// @dev Allows PriceFeedProvider contract to update the token price.\r\n    /// @param _symbol Token symbol of type bytes32.\r\n    /// @param _price price value of type uint.\r\n    function updatePriceFeed(bytes32 _symbol, uint _price) \r\n        public\r\n        returns (bool) {\r\n        require(isValidProvider(msg.sender));\r\n        address symbolAddress = LendroidNetworkParameters.tokenBySymbol(_symbol);\r\n        require(symbolAddress != address(0));\r\n        require(!LendroidOracle.updateTokenPrice(_symbol, _price));\r\n        return true;\r\n    }\r\n\r\n    /// @dev Allows owner to add a new provider to the registry.\r\n    /// @param _provider Address of new provider.\r\n    /// @param _name Name of new provider.\r\n    function addProvider(\r\n        address _provider,\r\n        bytes32 _name)\r\n        public\r\n        onlyOwner\r\n        addressNotNull(_provider)\r\n        nameDoesNotExist(_name)\r\n    {\r\n        providers[_provider] = ProviderMetaData({\r\n            provider: _provider,\r\n            name: _name,\r\n            status: Status.ACTIVE\r\n        });\r\n        providerNames.push(_name);\r\n        providerByName[_name] = _provider;\r\n        LogAddProvider(\r\n            _provider,\r\n            _name\r\n        );\r\n    }\r\n\r\n    /// @dev Allows owner to remove an existing provider from the registry.\r\n    /// @param _name Name of existing provider.\r\n    function removeProvider(bytes32 _name, uint _index)\r\n        public\r\n        onlyOwner\r\n        nameExists(_name)\r\n    {\r\n        require(providerNames[_index] == _name);\r\n\r\n        providerNames[_index] = providerNames[providerNames.length - 1];\r\n        providerNames.length -= 1;\r\n\r\n        ProviderMetaData storage provider = providers[providerByName[_name]];\r\n        LogRemoveProvider(\r\n            provider.provider,\r\n            provider.name\r\n        );\r\n        delete providers[providerByName[_name]];\r\n        delete providerByName[_name];\r\n    }\r\n\r\n    /// @dev Allows owner to deactivate an existing provider.\r\n    /// @param _name Name of existing provider.\r\n    function deactivateProvider(bytes32 _name)\r\n        public\r\n        onlyOwner\r\n        nameExists(_name)\r\n        returns (bool)\r\n    {\r\n        ProviderMetaData storage provider = providers[providerByName[_name]];\r\n        LogDeactivateProvider(\r\n            provider.provider,\r\n            provider.name\r\n        );\r\n        provider.status = Status.INACTIVE;\r\n        return true;\r\n    }\r\n\r\n    /// @dev Allows owner to activate an existing provider.\r\n    /// @param _name Name of existing provider.\r\n    function activateProvider(bytes32 _name)\r\n        public\r\n        onlyOwner\r\n        nameExists(_name)\r\n    {\r\n        ProviderMetaData storage provider = providers[providerByName[_name]];\r\n        LogActivateProvider(\r\n            provider.provider,\r\n            provider.name\r\n        );\r\n        provider.status = Status.ACTIVE;\r\n    }\r\n\r\n    function getProviderMetaData(bytes32 _name)\r\n        public\r\n        constant\r\n        returns (\r\n            address, //providerAddress\r\n            bytes32,  //name\r\n            Status   //status\r\n        )\r\n    {\r\n        ProviderMetaData memory provider = providers[providerByName[_name]];\r\n        return (\r\n            provider.provider,\r\n            provider.name,\r\n            provider.status\r\n        );\r\n    }\r\n\r\n}",
  "sourcePath": "C:\\work\\programming\\ethereum\\lendroid\\protocol-demo\\contracts\\PriceFeedManager.sol",
  "compiler": {
    "name": "solc",
    "version": "0.4.18+commit.9cf6e910.Emscripten.clang"
  },
  "schemaVersion": "1.0.1",
  "updatedAt": "2017-11-03T09:45:30.474Z"
}