{
  "contractName": "PriceFeedProviderCoinMarketCap",
  "abi": [
    {
      "constant": false,
      "inputs": [],
      "name": "refillBalance",
      "outputs": [
        {
          "name": "",
          "type": "bool"
        }
      ],
      "payable": true,
      "stateMutability": "payable",
      "type": "function"
    },
    {
      "constant": false,
      "inputs": [
        {
          "name": "_address",
          "type": "address"
        }
      ],
      "name": "setLendroidPriceFeedManager",
      "outputs": [
        {
          "name": "",
          "type": "bool"
        }
      ],
      "payable": false,
      "stateMutability": "nonpayable",
      "type": "function"
    },
    {
      "constant": false,
      "inputs": [
        {
          "name": "myid",
          "type": "bytes32"
        },
        {
          "name": "result",
          "type": "string"
        }
      ],
      "name": "__callback",
      "outputs": [],
      "payable": false,
      "stateMutability": "nonpayable",
      "type": "function"
    },
    {
      "constant": true,
      "inputs": [
        {
          "name": "_symbol",
          "type": "bytes32"
        }
      ],
      "name": "getPrice",
      "outputs": [
        {
          "name": "",
          "type": "uint256"
        }
      ],
      "payable": false,
      "stateMutability": "view",
      "type": "function"
    },
    {
      "constant": false,
      "inputs": [
        {
          "name": "_qId",
          "type": "bytes32"
        },
        {
          "name": "result",
          "type": "string"
        },
        {
          "name": "proof",
          "type": "bytes"
        }
      ],
      "name": "__callback",
      "outputs": [],
      "payable": false,
      "stateMutability": "nonpayable",
      "type": "function"
    },
    {
      "constant": false,
      "inputs": [
        {
          "name": "_address",
          "type": "address"
        }
      ],
      "name": "setLendroidNetworkParameters",
      "outputs": [
        {
          "name": "",
          "type": "bool"
        }
      ],
      "payable": false,
      "stateMutability": "nonpayable",
      "type": "function"
    },
    {
      "constant": true,
      "inputs": [],
      "name": "owner",
      "outputs": [
        {
          "name": "",
          "type": "address"
        }
      ],
      "payable": false,
      "stateMutability": "view",
      "type": "function"
    },
    {
      "constant": false,
      "inputs": [
        {
          "name": "_symbol",
          "type": "bytes32"
        },
        {
          "name": "_id",
          "type": "string"
        }
      ],
      "name": "setTokenId",
      "outputs": [
        {
          "name": "",
          "type": "bool"
        }
      ],
      "payable": false,
      "stateMutability": "nonpayable",
      "type": "function"
    },
    {
      "constant": false,
      "inputs": [
        {
          "name": "_symbol",
          "type": "bytes32"
        }
      ],
      "name": "updatePrice",
      "outputs": [],
      "payable": true,
      "stateMutability": "payable",
      "type": "function"
    },
    {
      "constant": false,
      "inputs": [
        {
          "name": "_amount",
          "type": "uint256"
        }
      ],
      "name": "withdrawBalance",
      "outputs": [
        {
          "name": "",
          "type": "bool"
        }
      ],
      "payable": false,
      "stateMutability": "nonpayable",
      "type": "function"
    },
    {
      "constant": false,
      "inputs": [
        {
          "name": "newOwner",
          "type": "address"
        }
      ],
      "name": "transferOwnership",
      "outputs": [],
      "payable": false,
      "stateMutability": "nonpayable",
      "type": "function"
    },
    {
      "constant": false,
      "inputs": [
        {
          "name": "_symbol",
          "type": "bytes32"
        }
      ],
      "name": "updateLendroidPriceFeed",
      "outputs": [
        {
          "name": "",
          "type": "bool"
        }
      ],
      "payable": false,
      "stateMutability": "nonpayable",
      "type": "function"
    },
    {
      "inputs": [],
      "payable": false,
      "stateMutability": "nonpayable",
      "type": "constructor"
    },
    {
      "anonymous": false,
      "inputs": [
        {
          "indexed": false,
          "name": "description",
          "type": "string"
        }
      ],
      "name": "LogSendingQuery",
      "type": "event"
    },
    {
      "anonymous": false,
      "inputs": [
        {
          "indexed": true,
          "name": "_symbol",
          "type": "bytes32"
        },
        {
          "indexed": false,
          "name": "_price",
          "type": "string"
        }
      ],
      "name": "LogPriceUpdated",
      "type": "event"
    },
    {
      "anonymous": false,
      "inputs": [
        {
          "indexed": true,
          "name": "_symbol",
          "type": "bytes32"
        },
        {
          "indexed": false,
          "name": "_id",
          "type": "string"
        }
      ],
      "name": "LogTokenIdUpdated",
      "type": "event"
    }
  ],
  "bytecode": "0x606060405234156200001057600080fd5b336000806101000a81548173ffffffffffffffffffffffffffffffffffffffff021916908373ffffffffffffffffffffffffffffffffffffffff1602179055506200007363ee6b2800620000796401000000000262002942176401000000009004565b62000a2e565b6000600460009054906101000a900473ffffffffffffffffffffffffffffffffffffffff1673ffffffffffffffffffffffffffffffffffffffff1614806200010157506000620000ff600460009054906101000a900473ffffffffffffffffffffffffffffffffffffffff16620003c06401000000000262001f80176401000000009004565b145b156200012957620001276000620003cb6401000000000262001f8b176401000000009004565b505b600460009054906101000a900473ffffffffffffffffffffffffffffffffffffffff1673ffffffffffffffffffffffffffffffffffffffff166338cc48316000604051602001526040518163ffffffff167c0100000000000000000000000000000000000000000000000000000000028152600401602060405180830381600087803b1515620001b857600080fd5b6102c65a03f11515620001ca57600080fd5b5050506040518051905073ffffffffffffffffffffffffffffffffffffffff16600560009054906101000a900473ffffffffffffffffffffffffffffffffffffffff1673ffffffffffffffffffffffffffffffffffffffff161415156200031757600460009054906101000a900473ffffffffffffffffffffffffffffffffffffffff1673ffffffffffffffffffffffffffffffffffffffff166338cc48316000604051602001526040518163ffffffff167c0100000000000000000000000000000000000000000000000000000000028152600401602060405180830381600087803b1515620002ba57600080fd5b6102c65a03f11515620002cc57600080fd5b50505060405180519050600560006101000a81548173ffffffffffffffffffffffffffffffffffffffff021916908373ffffffffffffffffffffffffffffffffffffffff1602179055505b600560009054906101000a900473ffffffffffffffffffffffffffffffffffffffff1673ffffffffffffffffffffffffffffffffffffffff1663ca6ad1e4826040518263ffffffff167c010000000000000000000000000000000000000000000000000000000002815260040180828152602001915050600060405180830381600087803b1515620003a857600080fd5b6102c65a03f11515620003ba57600080fd5b50505050565b6000813b9050919050565b60008062000401731d3b2638a7cc9f2cb3d298a3da7a90b67e5506ed620003c06401000000000262001f80176401000000009004565b1115620004bb57731d3b2638a7cc9f2cb3d298a3da7a90b67e5506ed600460006101000a81548173ffffffffffffffffffffffffffffffffffffffff021916908373ffffffffffffffffffffffffffffffffffffffff160217905550620004b16040805190810160405280600b81526020017f6574685f6d61696e6e657400000000000000000000000000000000000000000081525062000963640100000000026200285b176401000000009004565b600190506200095e565b6000620004f073c03a2615d5efaf5f49f60b7bb6583eaec212fdf1620003c06401000000000262001f80176401000000009004565b1115620005aa5773c03a2615d5efaf5f49f60b7bb6583eaec212fdf1600460006101000a81548173ffffffffffffffffffffffffffffffffffffffff021916908373ffffffffffffffffffffffffffffffffffffffff160217905550620005a06040805190810160405280600c81526020017f6574685f726f707374656e33000000000000000000000000000000000000000081525062000963640100000000026200285b176401000000009004565b600190506200095e565b6000620005df73b7a07bcf2ba2f2703b24c0691b5278999c59ac7e620003c06401000000000262001f80176401000000009004565b1115620006995773b7a07bcf2ba2f2703b24c0691b5278999c59ac7e600460006101000a81548173ffffffffffffffffffffffffffffffffffffffff021916908373ffffffffffffffffffffffffffffffffffffffff1602179055506200068f6040805190810160405280600981526020017f6574685f6b6f76616e000000000000000000000000000000000000000000000081525062000963640100000000026200285b176401000000009004565b600190506200095e565b6000620006ce73146500cfd35b22e4a392fe0adc06de1a1368ed48620003c06401000000000262001f80176401000000009004565b1115620007885773146500cfd35b22e4a392fe0adc06de1a1368ed48600460006101000a81548173ffffffffffffffffffffffffffffffffffffffff021916908373ffffffffffffffffffffffffffffffffffffffff1602179055506200077e6040805190810160405280600b81526020017f6574685f72696e6b65627900000000000000000000000000000000000000000081525062000963640100000000026200285b176401000000009004565b600190506200095e565b6000620007bd736f485c8bf6fc43ea212e93bbf8ce046c7f1cb475620003c06401000000000262001f80176401000000009004565b11156200082357736f485c8bf6fc43ea212e93bbf8ce046c7f1cb475600460006101000a81548173ffffffffffffffffffffffffffffffffffffffff021916908373ffffffffffffffffffffffffffffffffffffffff160217905550600190506200095e565b6000620008587320e12a1f859b3feae5fb2a0a32c18f5a65555bbf620003c06401000000000262001f80176401000000009004565b1115620008be577320e12a1f859b3feae5fb2a0a32c18f5a65555bbf600460006101000a81548173ffffffffffffffffffffffffffffffffffffffff021916908373ffffffffffffffffffffffffffffffffffffffff160217905550600190506200095e565b6000620008f37351efaf4c8b3c9afbd5ab9f4bbc82784ab6ef8faa620003c06401000000000262001f80176401000000009004565b111562000959577351efaf4c8b3c9afbd5ab9f4bbc82784ab6ef8faa600460006101000a81548173ffffffffffffffffffffffffffffffffffffffff021916908373ffffffffffffffffffffffffffffffffffffffff160217905550600190506200095e565b600090505b919050565b80600690805190602001906200097b9291906200097f565b5050565b828054600181600116156101000203166002900490600052602060002090601f016020900481019282601f10620009c257805160ff1916838001178555620009f3565b82800160010185558215620009f3579182015b82811115620009f2578251825591602001919060010190620009d5565b5b50905062000a02919062000a06565b5090565b62000a2b91905b8082111562000a2757600081600090555060010162000a0d565b5090565b90565b612c808062000a3e6000396000f3006060604052600436106100ba576000357c0100000000000000000000000000000000000000000000000000000000900463ffffffff16806309af014f146100bf578063212e8100146100e157806327dc297e1461013257806331d98b3f1461019c57806338bbfa50146101d7578063885c43cd146102845780638da5cb5b146102d5578063bdfc1ef11461032a578063ce912508146103ac578063da76d5cd146103c8578063f2fde38b14610403578063f6d5b06f1461043c575b600080fd5b6100c761047b565b604051808215151515815260200191505060405180910390f35b34156100ec57600080fd5b610118600480803573ffffffffffffffffffffffffffffffffffffffff169060200190919050506104df565b604051808215151515815260200191505060405180910390f35b341561013d57600080fd5b61019a60048080356000191690602001909190803590602001908201803590602001908080601f01602080910402602001604051908101604052809392919081815260200183838082843782019150505050505091905050610586565b005b34156101a757600080fd5b6101c16004808035600019169060200190919050506105b8565b6040518082815260200191505060405180910390f35b34156101e257600080fd5b61028260048080356000191690602001909190803590602001908201803590602001908080601f0160208091040260200160405190810160405280939291908181526020018383808284378201915050505050509190803590602001908201803590602001908080601f016020809104026020016040519081016040528093929190818152602001838380828437820191505050505050919050506105dd565b005b341561028f57600080fd5b6102bb600480803573ffffffffffffffffffffffffffffffffffffffff1690602001909190505061078d565b604051808215151515815260200191505060405180910390f35b34156102e057600080fd5b6102e8610834565b604051808273ffffffffffffffffffffffffffffffffffffffff1673ffffffffffffffffffffffffffffffffffffffff16815260200191505060405180910390f35b341561033557600080fd5b61039260048080356000191690602001909190803590602001908201803590602001908080601f01602080910402602001604051908101604052809392919081815260200183838082843782019150505050505091905050610859565b604051808215151515815260200191505060405180910390f35b6103c6600480803560001916906020019091905050610991565b005b34156103d357600080fd5b6103e96004808035906020019091905050610df9565b604051808215151515815260200191505060405180910390f35b341561040e57600080fd5b61043a600480803573ffffffffffffffffffffffffffffffffffffffff16906020019091905050610e9f565b005b341561044757600080fd5b610461600480803560001916906020019091905050610f74565b604051808215151515815260200191505060405180910390f35b60008060009054906101000a900473ffffffffffffffffffffffffffffffffffffffff1673ffffffffffffffffffffffffffffffffffffffff163373ffffffffffffffffffffffffffffffffffffffff161415156104d857600080fd5b6001905090565b60008060009054906101000a900473ffffffffffffffffffffffffffffffffffffffff1673ffffffffffffffffffffffffffffffffffffffff163373ffffffffffffffffffffffffffffffffffffffff1614151561053c57600080fd5b81600360006101000a81548173ffffffffffffffffffffffffffffffffffffffff021916908373ffffffffffffffffffffffffffffffffffffffff16021790555060019050919050565b6105b48282600060405180591061059a5750595b9080825280601f01601f19166020018201604052506105dd565b5050565b6000600160008360001916600019168152602001908152602001600020549050919050565b6000600b6000856000191660001916815260200190815260200160002060009054906101000a900460ff16151561061357600080fd5b61061b61105c565b73ffffffffffffffffffffffffffffffffffffffff163373ffffffffffffffffffffffffffffffffffffffff1614151561065457600080fd5b80600019167f81bb956107492f3a02fe41016dcffb7e279b1f695887cd1c6ca7c44e4825067f846040518080602001828103825283818151815260200191508051906020019080838360005b838110156106bb5780820151818401526020810190506106a0565b50505050905090810190601f1680156106e85780820380516001836020036101000a031916815260200191505b509250505060405180910390a2600a6000856000191660001916815260200190815260200160002054905061071e836008611376565b60016000836000191660001916815260200190815260200160002081905550600a6000856000191660001916815260200190815260200160002060009055600b6000856000191660001916815260200190815260200160002060006101000a81549060ff021916905550505050565b60008060009054906101000a900473ffffffffffffffffffffffffffffffffffffffff1673ffffffffffffffffffffffffffffffffffffffff163373ffffffffffffffffffffffffffffffffffffffff161415156107ea57600080fd5b81600260006101000a81548173ffffffffffffffffffffffffffffffffffffffff021916908373ffffffffffffffffffffffffffffffffffffffff16021790555060019050919050565b6000809054906101000a900473ffffffffffffffffffffffffffffffffffffffff1681565b60008060009054906101000a900473ffffffffffffffffffffffffffffffffffffffff1673ffffffffffffffffffffffffffffffffffffffff163373ffffffffffffffffffffffffffffffffffffffff161415156108b657600080fd5b82600019167fc3ca50fb6d73fdd340fcdb7a3c0bcc7285541a7907e51f3ae0c24e0d91dabcd9836040518080602001828103825283818151815260200191508051906020019080838360005b8381101561091d578082015181840152602081019050610902565b50505050905090810190601f16801561094a5780820380516001836020036101000a031916815260200191505b509250505060405180910390a2816009600085600019166000191681526020019081526020016000209080519060200190610986929190612875565b506001905092915050565b6109996128f5565b600082600260009054906101000a900473ffffffffffffffffffffffffffffffffffffffff1673ffffffffffffffffffffffffffffffffffffffff1663e19f86df826000604051602001526040518263ffffffff167c0100000000000000000000000000000000000000000000000000000000028152600401808260001916600019168152602001915050602060405180830381600087803b1515610a3d57600080fd5b6102c65a03f11515610a4e57600080fd5b505050604051805190501515610a6357600080fd5b3073ffffffffffffffffffffffffffffffffffffffff1631610ab96040805190810160405280600381526020017f55524c0000000000000000000000000000000000000000000000000000000000815250611670565b1115610b78577f2826fbf08e81b0ae41b9a02f2df5d0ab1f6b31402ffa0a040ccbe3e132b895a460405180806020018281038252604b8152602001807f4f7261636c697a6520717565727920776173204e4f542073656e742c20706c6581526020017f6173652061646420736f6d652045544820746f20636f76657220666f7220746881526020017f652071756572792066656500000000000000000000000000000000000000000081525060600191505060405180910390a1610df3565b7f2826fbf08e81b0ae41b9a02f2df5d0ab1f6b31402ffa0a040ccbe3e132b895a46040518080602001828103825260358152602001807f4f7261636c697a65207175657279207761732073656e742c207374616e64696e81526020017f6720627920666f722074686520616e737765722e2e000000000000000000000081525060400191505060405180910390a1610d55606060405190810160405280602d81526020017f6a736f6e2868747470733a2f2f6170692e636f696e6d61726b65746361702e6381526020017f6f6d2f76312f7469636b65722f000000000000000000000000000000000000008152506009600087600019166000191681526020019081526020016000208054600181600116156101000203166002900480601f016020809104026020016040519081016040528092919081815260200182805460018160011615610100020316600290048015610d155780601f10610cea57610100808354040283529160200191610d15565b820191906000526020600020905b815481529060010190602001808311610cf857829003601f168201915b50505050506040805190810160405280601a81526020017f2f3f636f6e766572743d455448292e302e70726963655f6574680000000000008152506119fc565b9250610d98603c6040805190810160405280600381526020017f55524c000000000000000000000000000000000000000000000000000000000081525085611a3a565b915083600a6000846000191660001916815260200190815260200160002081600019169055506001600b6000846000191660001916815260200190815260200160002060006101000a81548160ff0219169083151502179055505b50505050565b60008060009054906101000a900473ffffffffffffffffffffffffffffffffffffffff1673ffffffffffffffffffffffffffffffffffffffff163373ffffffffffffffffffffffffffffffffffffffff16141515610e5657600080fd5b3373ffffffffffffffffffffffffffffffffffffffff166108fc839081150290604051600060405180830381858888f193505050501515610e9657600080fd5b60019050919050565b6000809054906101000a900473ffffffffffffffffffffffffffffffffffffffff1673ffffffffffffffffffffffffffffffffffffffff163373ffffffffffffffffffffffffffffffffffffffff16141515610efa57600080fd5b600073ffffffffffffffffffffffffffffffffffffffff168173ffffffffffffffffffffffffffffffffffffffff16141515610f7157806000806101000a81548173ffffffffffffffffffffffffffffffffffffffff021916908373ffffffffffffffffffffffffffffffffffffffff1602179055505b50565b6000600360009054906101000a900473ffffffffffffffffffffffffffffffffffffffff1673ffffffffffffffffffffffffffffffffffffffff166393781ffb83600160008660001916600019168152602001908152602001600020546000604051602001526040518363ffffffff167c010000000000000000000000000000000000000000000000000000000002815260040180836000191660001916815260200182815260200192505050602060405180830381600087803b151561103a57600080fd5b6102c65a03f1151561104b57600080fd5b505050604051805190509050919050565b600080600460009054906101000a900473ffffffffffffffffffffffffffffffffffffffff1673ffffffffffffffffffffffffffffffffffffffff1614806110ce575060006110cc600460009054906101000a900473ffffffffffffffffffffffffffffffffffffffff16611f80565b145b156110df576110dd6000611f8b565b505b600460009054906101000a900473ffffffffffffffffffffffffffffffffffffffff1673ffffffffffffffffffffffffffffffffffffffff166338cc48316000604051602001526040518163ffffffff167c0100000000000000000000000000000000000000000000000000000000028152600401602060405180830381600087803b151561116d57600080fd5b6102c65a03f1151561117e57600080fd5b5050506040518051905073ffffffffffffffffffffffffffffffffffffffff16600560009054906101000a900473ffffffffffffffffffffffffffffffffffffffff1673ffffffffffffffffffffffffffffffffffffffff161415156112c857600460009054906101000a900473ffffffffffffffffffffffffffffffffffffffff1673ffffffffffffffffffffffffffffffffffffffff166338cc48316000604051602001526040518163ffffffff167c0100000000000000000000000000000000000000000000000000000000028152600401602060405180830381600087803b151561126c57600080fd5b6102c65a03f1151561127d57600080fd5b50505060405180519050600560006101000a81548173ffffffffffffffffffffffffffffffffffffffff021916908373ffffffffffffffffffffffffffffffffffffffff1602179055505b600560009054906101000a900473ffffffffffffffffffffffffffffffffffffffff1673ffffffffffffffffffffffffffffffffffffffff1663c281d19e6000604051602001526040518163ffffffff167c0100000000000000000000000000000000000000000000000000000000028152600401602060405180830381600087803b151561135657600080fd5b6102c65a03f1151561136757600080fd5b50505060405180519050905090565b6000611380612909565b60008060008693506000925060009150600090505b83518110156116515760307f01000000000000000000000000000000000000000000000000000000000000000284828151811015156113d057fe5b9060200101517f010000000000000000000000000000000000000000000000000000000000000090047f0100000000000000000000000000000000000000000000000000000000000000027effffffffffffffffffffffffffffffffffffffffffffffffffffffffffffff1916101580156114e8575060397f010000000000000000000000000000000000000000000000000000000000000002848281518110151561147857fe5b9060200101517f010000000000000000000000000000000000000000000000000000000000000090047f0100000000000000000000000000000000000000000000000000000000000000027effffffffffffffffffffffffffffffffffffffffffffffffffffffffffffff191611155b1561159957811561150b57600086141561150157611651565b8580600190039650505b600a830292506030848281518110151561152157fe5b9060200101517f010000000000000000000000000000000000000000000000000000000000000090047f0100000000000000000000000000000000000000000000000000000000000000027f010000000000000000000000000000000000000000000000000000000000000090040383019250611644565b602e7f01000000000000000000000000000000000000000000000000000000000000000284828151811015156115cb57fe5b9060200101517f010000000000000000000000000000000000000000000000000000000000000090047f0100000000000000000000000000000000000000000000000000000000000000027effffffffffffffffffffffffffffffffffffffffffffffffffffffffffffff1916141561164357600191505b5b8080600101915050611395565b60008611156116635785600a0a830292505b8294505050505092915050565b600080600460009054906101000a900473ffffffffffffffffffffffffffffffffffffffff1673ffffffffffffffffffffffffffffffffffffffff1614806116e2575060006116e0600460009054906101000a900473ffffffffffffffffffffffffffffffffffffffff16611f80565b145b156116f3576116f16000611f8b565b505b600460009054906101000a900473ffffffffffffffffffffffffffffffffffffffff1673ffffffffffffffffffffffffffffffffffffffff166338cc48316000604051602001526040518163ffffffff167c0100000000000000000000000000000000000000000000000000000000028152600401602060405180830381600087803b151561178157600080fd5b6102c65a03f1151561179257600080fd5b5050506040518051905073ffffffffffffffffffffffffffffffffffffffff16600560009054906101000a900473ffffffffffffffffffffffffffffffffffffffff1673ffffffffffffffffffffffffffffffffffffffff161415156118dc57600460009054906101000a900473ffffffffffffffffffffffffffffffffffffffff1673ffffffffffffffffffffffffffffffffffffffff166338cc48316000604051602001526040518163ffffffff167c0100000000000000000000000000000000000000000000000000000000028152600401602060405180830381600087803b151561188057600080fd5b6102c65a03f1151561189157600080fd5b50505060405180519050600560006101000a81548173ffffffffffffffffffffffffffffffffffffffff021916908373ffffffffffffffffffffffffffffffffffffffff1602179055505b600560009054906101000a900473ffffffffffffffffffffffffffffffffffffffff1673ffffffffffffffffffffffffffffffffffffffff1663524f3889836000604051602001526040518263ffffffff167c01000000000000000000000000000000000000000000000000000000000281526004018080602001828103825283818151815260200191508051906020019080838360005b8381101561198f578082015181840152602081019050611974565b50505050905090810190601f1680156119bc5780820380516001836020036101000a031916815260200191505b5092505050602060405180830381600087803b15156119da57600080fd5b6102c65a03f115156119eb57600080fd5b505050604051805190509050919050565b611a046128f5565b611a3184848460206040519081016040528060008152506020604051908101604052806000815250612423565b90509392505050565b6000806000600460009054906101000a900473ffffffffffffffffffffffffffffffffffffffff1673ffffffffffffffffffffffffffffffffffffffff161480611aae57506000611aac600460009054906101000a900473ffffffffffffffffffffffffffffffffffffffff16611f80565b145b15611abf57611abd6000611f8b565b505b600460009054906101000a900473ffffffffffffffffffffffffffffffffffffffff1673ffffffffffffffffffffffffffffffffffffffff166338cc48316000604051602001526040518163ffffffff167c0100000000000000000000000000000000000000000000000000000000028152600401602060405180830381600087803b1515611b4d57600080fd5b6102c65a03f11515611b5e57600080fd5b5050506040518051905073ffffffffffffffffffffffffffffffffffffffff16600560009054906101000a900473ffffffffffffffffffffffffffffffffffffffff1673ffffffffffffffffffffffffffffffffffffffff16141515611ca857600460009054906101000a900473ffffffffffffffffffffffffffffffffffffffff1673ffffffffffffffffffffffffffffffffffffffff166338cc48316000604051602001526040518163ffffffff167c0100000000000000000000000000000000000000000000000000000000028152600401602060405180830381600087803b1515611c4c57600080fd5b6102c65a03f11515611c5d57600080fd5b50505060405180519050600560006101000a81548173ffffffffffffffffffffffffffffffffffffffff021916908373ffffffffffffffffffffffffffffffffffffffff1602179055505b600560009054906101000a900473ffffffffffffffffffffffffffffffffffffffff1673ffffffffffffffffffffffffffffffffffffffff1663524f3889856000604051602001526040518263ffffffff167c01000000000000000000000000000000000000000000000000000000000281526004018080602001828103825283818151815260200191508051906020019080838360005b83811015611d5b578082015181840152602081019050611d40565b50505050905090810190601f168015611d885780820380516001836020036101000a031916815260200191505b5092505050602060405180830381600087803b1515611da657600080fd5b6102c65a03f11515611db757600080fd5b50505060405180519050905062030d403a02670de0b6b3a764000001811115611de65760006001029150611f78565b600560009054906101000a900473ffffffffffffffffffffffffffffffffffffffff1673ffffffffffffffffffffffffffffffffffffffff1663adf59f99828787876000604051602001526040518563ffffffff167c0100000000000000000000000000000000000000000000000000000000028152600401808481526020018060200180602001838103835285818151815260200191508051906020019080838360005b83811015611ea6578082015181840152602081019050611e8b565b50505050905090810190601f168015611ed35780820380516001836020036101000a031916815260200191505b50838103825284818151815260200191508051906020019080838360005b83811015611f0c578082015181840152602081019050611ef1565b50505050905090810190601f168015611f395780820380516001836020036101000a031916815260200191505b50955050505050506020604051808303818588803b1515611f5957600080fd5b6125ee5a03f11515611f6a57600080fd5b505050506040518051905091505b509392505050565b6000813b9050919050565b600080611fab731d3b2638a7cc9f2cb3d298a3da7a90b67e5506ed611f80565b111561204d57731d3b2638a7cc9f2cb3d298a3da7a90b67e5506ed600460006101000a81548173ffffffffffffffffffffffffffffffffffffffff021916908373ffffffffffffffffffffffffffffffffffffffff1602179055506120446040805190810160405280600b81526020017f6574685f6d61696e6e657400000000000000000000000000000000000000000081525061285b565b6001905061241e565b600061206c73c03a2615d5efaf5f49f60b7bb6583eaec212fdf1611f80565b111561210e5773c03a2615d5efaf5f49f60b7bb6583eaec212fdf1600460006101000a81548173ffffffffffffffffffffffffffffffffffffffff021916908373ffffffffffffffffffffffffffffffffffffffff1602179055506121056040805190810160405280600c81526020017f6574685f726f707374656e33000000000000000000000000000000000000000081525061285b565b6001905061241e565b600061212d73b7a07bcf2ba2f2703b24c0691b5278999c59ac7e611f80565b11156121cf5773b7a07bcf2ba2f2703b24c0691b5278999c59ac7e600460006101000a81548173ffffffffffffffffffffffffffffffffffffffff021916908373ffffffffffffffffffffffffffffffffffffffff1602179055506121c66040805190810160405280600981526020017f6574685f6b6f76616e000000000000000000000000000000000000000000000081525061285b565b6001905061241e565b60006121ee73146500cfd35b22e4a392fe0adc06de1a1368ed48611f80565b11156122905773146500cfd35b22e4a392fe0adc06de1a1368ed48600460006101000a81548173ffffffffffffffffffffffffffffffffffffffff021916908373ffffffffffffffffffffffffffffffffffffffff1602179055506122876040805190810160405280600b81526020017f6574685f72696e6b65627900000000000000000000000000000000000000000081525061285b565b6001905061241e565b60006122af736f485c8bf6fc43ea212e93bbf8ce046c7f1cb475611f80565b111561231357736f485c8bf6fc43ea212e93bbf8ce046c7f1cb475600460006101000a81548173ffffffffffffffffffffffffffffffffffffffff021916908373ffffffffffffffffffffffffffffffffffffffff1602179055506001905061241e565b60006123327320e12a1f859b3feae5fb2a0a32c18f5a65555bbf611f80565b1115612396577320e12a1f859b3feae5fb2a0a32c18f5a65555bbf600460006101000a81548173ffffffffffffffffffffffffffffffffffffffff021916908373ffffffffffffffffffffffffffffffffffffffff1602179055506001905061241e565b60006123b57351efaf4c8b3c9afbd5ab9f4bbc82784ab6ef8faa611f80565b1115612419577351efaf4c8b3c9afbd5ab9f4bbc82784ab6ef8faa600460006101000a81548173ffffffffffffffffffffffffffffffffffffffff021916908373ffffffffffffffffffffffffffffffffffffffff1602179055506001905061241e565b600090505b919050565b61242b6128f5565b612433612909565b61243b612909565b612443612909565b61244b612909565b612453612909565b61245b6128f5565b612463612909565b6000808e98508d97508c96508b95508a94508451865188518a518c51010101016040518059106124905750595b9080825280601f01601f1916602001820160405250935083925060009150600090505b88518110156125665788818151811015156124ca57fe5b9060200101517f010000000000000000000000000000000000000000000000000000000000000090047f010000000000000000000000000000000000000000000000000000000000000002838380600101945081518110151561252957fe5b9060200101907effffffffffffffffffffffffffffffffffffffffffffffffffffffffffffff1916908160001a90535080806001019150506124b3565b600090505b875181101561261e57878181518110151561258257fe5b9060200101517f010000000000000000000000000000000000000000000000000000000000000090047f01000000000000000000000000000000000000000000000000000000000000000283838060010194508151811015156125e157fe5b9060200101907effffffffffffffffffffffffffffffffffffffffffffffffffffffffffffff1916908160001a905350808060010191505061256b565b600090505b86518110156126d657868181518110151561263a57fe5b9060200101517f010000000000000000000000000000000000000000000000000000000000000090047f010000000000000000000000000000000000000000000000000000000000000002838380600101945081518110151561269957fe5b9060200101907effffffffffffffffffffffffffffffffffffffffffffffffffffffffffffff1916908160001a9053508080600101915050612623565b600090505b855181101561278e5785818151811015156126f257fe5b9060200101517f010000000000000000000000000000000000000000000000000000000000000090047f010000000000000000000000000000000000000000000000000000000000000002838380600101945081518110151561275157fe5b9060200101907effffffffffffffffffffffffffffffffffffffffffffffffffffffffffffff1916908160001a90535080806001019150506126db565b600090505b84518110156128465784818151811015156127aa57fe5b9060200101517f010000000000000000000000000000000000000000000000000000000000000090047f010000000000000000000000000000000000000000000000000000000000000002838380600101945081518110151561280957fe5b9060200101907effffffffffffffffffffffffffffffffffffffffffffffffffffffffffffff1916908160001a9053508080600101915050612793565b82995050505050505050505095945050505050565b8060069080519060200190612871929190612875565b5050565b828054600181600116156101000203166002900490600052602060002090601f016020900481019282601f106128b657805160ff19168380011785556128e4565b828001600101855582156128e4579182015b828111156128e35782518255916020019190600101906128c8565b5b5090506128f1919061291d565b5090565b602060405190810160405280600081525090565b602060405190810160405280600081525090565b61293f91905b8082111561293b576000816000905550600101612923565b5090565b90565b6000600460009054906101000a900473ffffffffffffffffffffffffffffffffffffffff1673ffffffffffffffffffffffffffffffffffffffff1614806129b3575060006129b1600460009054906101000a900473ffffffffffffffffffffffffffffffffffffffff16611f80565b145b156129c4576129c26000611f8b565b505b600460009054906101000a900473ffffffffffffffffffffffffffffffffffffffff1673ffffffffffffffffffffffffffffffffffffffff166338cc48316000604051602001526040518163ffffffff167c0100000000000000000000000000000000000000000000000000000000028152600401602060405180830381600087803b1515612a5257600080fd5b6102c65a03f11515612a6357600080fd5b5050506040518051905073ffffffffffffffffffffffffffffffffffffffff16600560009054906101000a900473ffffffffffffffffffffffffffffffffffffffff1673ffffffffffffffffffffffffffffffffffffffff16141515612bad57600460009054906101000a900473ffffffffffffffffffffffffffffffffffffffff1673ffffffffffffffffffffffffffffffffffffffff166338cc48316000604051602001526040518163ffffffff167c0100000000000000000000000000000000000000000000000000000000028152600401602060405180830381600087803b1515612b5157600080fd5b6102c65a03f11515612b6257600080fd5b50505060405180519050600560006101000a81548173ffffffffffffffffffffffffffffffffffffffff021916908373ffffffffffffffffffffffffffffffffffffffff1602179055505b600560009054906101000a900473ffffffffffffffffffffffffffffffffffffffff1673ffffffffffffffffffffffffffffffffffffffff1663ca6ad1e4826040518263ffffffff167c010000000000000000000000000000000000000000000000000000000002815260040180828152602001915050600060405180830381600087803b1515612c3d57600080fd5b6102c65a03f11515612c4e57600080fd5b505050505600a165627a7a723058204c5e633363c70fdc57a40be63a64dbea7ed791761db107ca8de1e00e3368adf70029",
  "source": "\r\n/*\r\n    Coinmarketcap-based price updater\r\n    For now, this is manual. Will be updated every ~60 seconds.\r\n*/\r\n\r\npragma solidity ^0.4.18;\r\nimport \"./oraclizeAPI.sol\";\r\nimport \"./Ownable.sol\";\r\nimport \"./PriceFeedProviderBase.sol\";\r\nimport \"./PriceFeedManager.sol\";\r\n\r\ncontract PriceFeedProviderCoinMarketCap is PriceFeedProviderBase, usingOraclize {\r\n\r\n    mapping (bytes32 => string) tokenIds;\r\n    mapping (bytes32 => bytes32) queuedTokens;\r\n    mapping (bytes32 => bool) validQueryIds;\r\n\r\n    event LogSendingQuery(string description);\r\n    event LogPriceUpdated(bytes32 indexed _symbol, string _price);\r\n    event LogTokenIdUpdated(bytes32 indexed _symbol, string _id);\r\n\r\n    function PriceFeedProviderCoinMarketCap() {\r\n        oraclize_setCustomGasPrice(4000000000 wei);\r\n    }\r\n\r\n    function setTokenId(bytes32 _symbol, string _id) public onlyOwner returns (bool){\r\n        LogTokenIdUpdated(_symbol, _id);\r\n        tokenIds[_symbol] = _id;\r\n        return true;\r\n    }\r\n\r\n    // // an optimization in case of network congestion\r\n    // function setTokenIds(bytes32[] _symbols, bytes32[] _ids) public onlyOwner {\r\n    //     require(_symbols.length == _ids.length );\r\n    //     for(uint i = 0; i < _symbols.length; i++) {\r\n    //         // setTokenId(_symbols[i], _ids[i]);\r\n    //         tokenIds[_symbols[i]] = _ids[i];\r\n    //         // TokenIdUpdated(_symbol, _id);\r\n    //     }\r\n    // }\r\n\r\n    function __callback(bytes32 _qId, string result, bytes proof) {\r\n        require(validQueryIds[_qId]);\r\n        require(msg.sender == oraclize_cbAddress());\r\n        LogPriceUpdated(_symbol, result);\r\n        bytes32 _symbol = queuedTokens[_qId];\r\n        tokenPrices[_symbol] = parseInt(result, 8);\r\n        delete queuedTokens[_qId];\r\n        delete validQueryIds[_qId];\r\n    }\r\n\r\n    function getPrice(bytes32 _symbol) public constant returns (uint) {\r\n        return tokenPrices[_symbol];\r\n    }\r\n\r\n    function updatePrice(bytes32 _symbol) \r\n        public \r\n        isValidSymbol(_symbol)\r\n        payable \r\n    {\r\n        if (oraclize_getPrice(\"URL\") > this.balance) {\r\n            LogSendingQuery(\"Oraclize query was NOT sent, please add some ETH to cover for the query fee\");\r\n        } else {\r\n            LogSendingQuery(\"Oraclize query was sent, standing by for the answer..\");\r\n            string memory queryUrl = strConcat(\"json(https://api.coinmarketcap.com/v1/ticker/\", tokenIds[_symbol], \"/?convert=ETH).0.price_eth\");\r\n            bytes32 queryId = oraclize_query(60, \"URL\", queryUrl);\r\n            queuedTokens[queryId] = _symbol;\r\n            validQueryIds[queryId] = true;\r\n        }\r\n    }\r\n    \r\n    // @dev Payable which can be called only by the contract owner.\r\n    // @return true the contract's balance was successfully refilled\r\n    function refillBalance() public onlyOwner payable returns (bool) {\r\n        return true;\r\n    }\r\n\r\n    // @dev Payable function which can be called only by the contract owner.\r\n    // @return true the contract's balance was successfully withdrawn\r\n    function withdrawBalance(uint256 _amount) public onlyOwner  returns (bool) {\r\n        msg.sender.transfer(_amount);\r\n        return true;\r\n    }\r\n\r\n}",
  "sourcePath": "C:\\work\\programming\\ethereum\\lendroid\\protocol-demo\\contracts\\PriceFeedProviderCoinMarketCap.sol",
  "compiler": {
    "name": "solc",
    "version": "0.4.18+commit.9cf6e910.Emscripten.clang"
  },
  "schemaVersion": "1.0.1",
  "updatedAt": "2017-11-03T09:45:30.477Z"
}