{
  "contractName": "PriceFeedManager",
  "abi": [
    {
      "constant": false,
      "inputs": [
        {
          "name": "_address",
          "type": "address"
        }
      ],
      "name": "setLendroidOracle",
      "outputs": [
        {
          "name": "",
          "type": "bool"
        }
      ],
      "payable": false,
      "stateMutability": "nonpayable",
      "type": "function"
    },
    {
      "constant": true,
      "inputs": [
        {
          "name": "",
          "type": "address"
        }
      ],
      "name": "providers",
      "outputs": [
        {
          "name": "provider",
          "type": "address"
        },
        {
          "name": "name",
          "type": "bytes32"
        },
        {
          "name": "status",
          "type": "uint8"
        }
      ],
      "payable": false,
      "stateMutability": "view",
      "type": "function"
    },
    {
      "constant": false,
      "inputs": [
        {
          "name": "_provider",
          "type": "address"
        },
        {
          "name": "_name",
          "type": "bytes32"
        }
      ],
      "name": "stop",
      "outputs": [],
      "payable": false,
      "stateMutability": "nonpayable",
      "type": "function"
    },
    {
      "constant": false,
      "inputs": [
        {
          "name": "_provider",
          "type": "address"
        },
        {
          "name": "_name",
          "type": "bytes32"
        }
      ],
      "name": "addProvider",
      "outputs": [
        {
          "name": "",
          "type": "bool"
        }
      ],
      "payable": false,
      "stateMutability": "nonpayable",
      "type": "function"
    },
    {
      "constant": false,
      "inputs": [
        {
          "name": "owner_",
          "type": "address"
        },
        {
          "name": "_index",
          "type": "uint256"
        }
      ],
      "name": "setOwner",
      "outputs": [],
      "payable": false,
      "stateMutability": "nonpayable",
      "type": "function"
    },
    {
      "constant": false,
      "inputs": [
        {
          "name": "_name",
          "type": "bytes32"
        }
      ],
      "name": "deactivateProvider",
      "outputs": [
        {
          "name": "",
          "type": "bool"
        },
        {
          "name": "",
          "type": "bytes32"
        },
        {
          "name": "",
          "type": "uint8"
        }
      ],
      "payable": false,
      "stateMutability": "nonpayable",
      "type": "function"
    },
    {
      "constant": false,
      "inputs": [
        {
          "name": "_name",
          "type": "bytes32"
        },
        {
          "name": "_index",
          "type": "uint256"
        }
      ],
      "name": "removeProvider",
      "outputs": [],
      "payable": false,
      "stateMutability": "nonpayable",
      "type": "function"
    },
    {
      "constant": true,
      "inputs": [
        {
          "name": "_name",
          "type": "bytes32"
        }
      ],
      "name": "getProviderMetaData",
      "outputs": [
        {
          "name": "",
          "type": "address"
        },
        {
          "name": "",
          "type": "bytes32"
        },
        {
          "name": "",
          "type": "uint8"
        }
      ],
      "payable": false,
      "stateMutability": "view",
      "type": "function"
    },
    {
      "constant": false,
      "inputs": [
        {
          "name": "_name",
          "type": "bytes32"
        }
      ],
      "name": "activateProvider",
      "outputs": [
        {
          "name": "",
          "type": "address"
        }
      ],
      "payable": false,
      "stateMutability": "nonpayable",
      "type": "function"
    },
    {
      "constant": true,
      "inputs": [
        {
          "name": "_symbol",
          "type": "bytes32"
        },
        {
          "name": "_price",
          "type": "uint256"
        }
      ],
      "name": "stopped",
      "outputs": [
        {
          "name": "",
          "type": "bool"
        }
      ],
      "payable": false,
      "stateMutability": "view",
      "type": "function"
    },
    {
      "constant": false,
      "inputs": [
        {
          "name": "authority_",
          "type": "address"
        }
      ],
      "name": "setAuthority",
      "outputs": [
        {
          "name": "validProviderAddress",
          "type": "bool"
        }
      ],
      "payable": false,
      "stateMutability": "nonpayable",
      "type": "function"
    },
    {
      "constant": false,
      "inputs": [
        {
          "name": "_address",
          "type": "address"
        }
      ],
      "name": "setLendroidNetworkParameters",
      "outputs": [
        {
          "name": "",
          "type": "bool"
        }
      ],
      "payable": false,
      "stateMutability": "nonpayable",
      "type": "function"
    },
    {
      "constant": true,
      "inputs": [
        {
          "name": "newOwner",
          "type": "address"
        }
      ],
      "name": "owner",
      "outputs": [
        {
          "name": "",
          "type": "address"
        }
      ],
      "payable": false,
      "stateMutability": "view",
      "type": "function"
    },
    {
      "anonymous": false,
      "inputs": [
        {
          "indexed": true,
          "name": "_symbol",
          "type": "bytes32"
        },
        {
          "indexed": false,
          "name": "_price",
          "type": "uint256"
        }
      ],
      "name": "updatePriceFeed",
      "type": "function",
      "constant": false,
      "outputs": [
        {
          "name": "",
          "type": "bool"
        }
      ],
      "payable": false,
      "stateMutability": "nonpayable"
    },
    {
      "anonymous": false,
      "inputs": [
        {
          "indexed": true,
          "name": "_address",
          "type": "address"
        },
        {
          "indexed": false,
          "name": "name",
          "type": "bytes32"
        }
      ],
      "name": "isValidProvider",
      "type": "function",
      "constant": true,
      "outputs": [
        {
          "name": "validProviderAddress",
          "type": "bool"
        }
      ],
      "payable": false,
      "stateMutability": "view"
    },
    {
      "anonymous": false,
      "inputs": [
        {
          "indexed": true,
          "name": "provider",
          "type": "address"
        },
        {
          "indexed": false,
          "name": "name",
          "type": "bytes32"
        }
      ],
      "name": "start",
      "type": "function",
      "constant": false,
      "outputs": [],
      "payable": false,
      "stateMutability": "nonpayable"
    },
    {
      "anonymous": false,
      "inputs": [
        {
          "indexed": true,
          "name": "provider",
          "type": "address"
        },
        {
          "indexed": false,
          "name": "name",
          "type": "bytes32"
        }
      ],
      "name": "authority",
      "type": "function",
      "constant": true,
      "outputs": [
        {
          "name": "",
          "type": "address"
        }
      ],
      "payable": false,
      "stateMutability": "view"
    },
    {
      "anonymous": false,
      "inputs": [
        {
          "indexed": true,
          "name": "",
          "type": "uint256"
        },
        {
          "indexed": false,
          "name": "oldAddress",
          "type": "address"
        },
        {
          "indexed": false,
          "name": "newAddress",
          "type": "address"
        }
      ],
      "name": "providerNames",
      "type": "function",
      "constant": true,
      "outputs": [
        {
          "name": "",
          "type": "bytes32"
        }
      ],
      "payable": false,
      "stateMutability": "view"
    },
    {
      "anonymous": false,
      "inputs": [
        {
          "indexed": true,
          "name": "provider",
          "type": "address"
        },
        {
          "indexed": false,
          "name": "name",
          "type": "bytes32"
        }
      ],
      "name": "LogAddProvider",
      "type": "event"
    },
    {
      "anonymous": false,
      "inputs": [
        {
          "indexed": true,
          "name": "provider",
          "type": "address"
        },
        {
          "indexed": false,
          "name": "name",
          "type": "bytes32"
        }
      ],
      "name": "LogRemoveProvider",
      "type": "event"
    },
    {
      "anonymous": false,
      "inputs": [
        {
          "indexed": true,
          "name": "provider",
          "type": "address"
        },
        {
          "indexed": false,
          "name": "name",
          "type": "bytes32"
        }
      ],
      "name": "LogDeactivateProvider",
      "type": "event"
    },
    {
      "anonymous": false,
      "inputs": [
        {
          "indexed": true,
          "name": "provider",
          "type": "address"
        },
        {
          "indexed": false,
          "name": "name",
          "type": "bytes32"
        }
      ],
      "name": "LogActivateProvider",
      "type": "event"
    },
    {
      "anonymous": false,
      "inputs": [
        {
          "indexed": true,
          "name": "name",
          "type": "bytes32"
        },
        {
          "indexed": false,
          "name": "oldAddress",
          "type": "address"
        },
        {
          "indexed": false,
          "name": "newAddress",
          "type": "address"
        }
      ],
      "name": "LogProviderAddressChange",
      "type": "event"
    },
    {
      "anonymous": false,
      "inputs": [
        {
          "indexed": true,
          "name": "authority",
          "type": "address"
        }
      ],
      "name": "LogSetAuthority",
      "type": "event"
    },
    {
      "anonymous": false,
      "inputs": [
        {
          "indexed": true,
          "name": "owner",
          "type": "address"
        }
      ],
      "name": "LogSetOwner",
      "type": "event"
    },
    {
      "anonymous": true,
      "inputs": [
        {
          "indexed": true,
          "name": "sig",
          "type": "bytes4"
        },
        {
          "indexed": true,
          "name": "guy",
          "type": "address"
        },
        {
          "indexed": true,
          "name": "foo",
          "type": "bytes32"
        },
        {
          "indexed": true,
          "name": "bar",
          "type": "bytes32"
        },
        {
          "indexed": false,
          "name": "wad",
          "type": "uint256"
        },
        {
          "indexed": false,
          "name": "fax",
          "type": "bytes"
        }
      ],
      "name": "LogNote",
      "type": "event"
    }
  ],
  "bytecode": "0x606060405233600160006101000a81548173ffffffffffffffffffffffffffffffffffffffff021916908373ffffffffffffffffffffffffffffffffffffffff1602179055503373ffffffffffffffffffffffffffffffffffffffff167fce241d7ca1f669fee44b6fc00b8eba2df3bb514eed0f6f668f8f89096e81ed9460405160405180910390a2611c6f806100976000396000f3006060604052600436106100fc576000357c0100000000000000000000000000000000000000000000000000000000900463ffffffff1680630282c99f146101015780630787bc271461015257806307da68f5146101ef57806313456f7e1461020457806313af40351461024a578063163762ce146102835780633a8ded96146102c25780634168596e146102f257806367a456481461037d57806375f12b21146103a45780637a9e5e4b146103d1578063885c43cd1461040a5780638da5cb5b1461045b57806393781ffb146104b0578063b2bbefdb146104f8578063be9a655514610549578063bf7e214f1461055e578063cc5c00d7146105b3575b600080fd5b341561010c57600080fd5b610138600480803573ffffffffffffffffffffffffffffffffffffffff169060200190919050506105f2565b604051808215151515815260200191505060405180910390f35b341561015d57600080fd5b610189600480803573ffffffffffffffffffffffffffffffffffffffff16906020019091905050610693565b604051808473ffffffffffffffffffffffffffffffffffffffff1673ffffffffffffffffffffffffffffffffffffffff16815260200183600019166000191681526020018260018111156101d957fe5b60ff168152602001935050505060405180910390f35b34156101fa57600080fd5b6102026106ea565b005b341561020f57600080fd5b610248600480803573ffffffffffffffffffffffffffffffffffffffff16906020019091908035600019169060200190919050506107ec565b005b341561025557600080fd5b610281600480803573ffffffffffffffffffffffffffffffffffffffff16906020019091905050610add565b005b341561028e57600080fd5b6102a8600480803560001916906020019091905050610bbf565b604051808215151515815260200191505060405180910390f35b34156102cd57600080fd5b6102f0600480803560001916906020019091908035906020019091905050610dba565b005b34156102fd57600080fd5b610317600480803560001916906020019091905050611115565b604051808473ffffffffffffffffffffffffffffffffffffffff1673ffffffffffffffffffffffffffffffffffffffff168152602001836000191660001916815260200182600181111561036757fe5b60ff168152602001935050505060405180910390f35b341561038857600080fd5b6103a260048080356000191690602001909190505061125c565b005b34156103af57600080fd5b6103b7611450565b604051808215151515815260200191505060405180910390f35b34156103dc57600080fd5b610408600480803573ffffffffffffffffffffffffffffffffffffffff16906020019091905050611463565b005b341561041557600080fd5b610441600480803573ffffffffffffffffffffffffffffffffffffffff16906020019091905050611543565b604051808215151515815260200191505060405180910390f35b341561046657600080fd5b61046e6115e4565b604051808273ffffffffffffffffffffffffffffffffffffffff1673ffffffffffffffffffffffffffffffffffffffff16815260200191505060405180910390f35b34156104bb57600080fd5b6104de60048080356000191690602001909190803590602001909190505061160a565b604051808215151515815260200191505060405180910390f35b341561050357600080fd5b61052f600480803573ffffffffffffffffffffffffffffffffffffffff16906020019091905050611715565b604051808215151515815260200191505060405180910390f35b341561055457600080fd5b61055c6117d5565b005b341561056957600080fd5b6105716118d8565b604051808273ffffffffffffffffffffffffffffffffffffffff1673ffffffffffffffffffffffffffffffffffffffff16815260200191505060405180910390f35b34156105be57600080fd5b6105d460048080359060200190919050506118fd565b60405180826000191660001916815260200191505060405180910390f35b6000600160149054906101000a900460ff1615151561061057600080fd5b61063e336000357fffffffff0000000000000000000000000000000000000000000000000000000016611921565b151561064957600080fd5b81600360006101000a81548173ffffffffffffffffffffffffffffffffffffffff021916908373ffffffffffffffffffffffffffffffffffffffff16021790555060019050919050565b60046020528060005260406000206000915090508060000160009054906101000a900473ffffffffffffffffffffffffffffffffffffffff16908060010154908060020160009054906101000a900460ff16905083565b610718336000357fffffffff0000000000000000000000000000000000000000000000000000000016611921565b151561072357600080fd5b60008060043591506024359050806000191682600019163373ffffffffffffffffffffffffffffffffffffffff166000357fffffffff00000000000000000000000000000000000000000000000000000000167bffffffffffffffffffffffffffffffffffffffffffffffffffffffff19163460003660405180848152602001806020018281038252848482818152602001925080828437820191505094505050505060405180910390a460018060146101000a81548160ff0219169083151502179055505050565b81600073ffffffffffffffffffffffffffffffffffffffff168173ffffffffffffffffffffffffffffffffffffffff161415151561082957600080fd5b81600073ffffffffffffffffffffffffffffffffffffffff1660056000836000191660001916815260200190815260200160002060009054906101000a900473ffffffffffffffffffffffffffffffffffffffff1673ffffffffffffffffffffffffffffffffffffffff161415156108a057600080fd5b600160149054906101000a900460ff161515156108bc57600080fd5b6108ea336000357fffffffff0000000000000000000000000000000000000000000000000000000016611921565b15156108f557600080fd5b6060604051908101604052808573ffffffffffffffffffffffffffffffffffffffff1681526020018460001916815260200160018081111561093357fe5b815250600460008673ffffffffffffffffffffffffffffffffffffffff1673ffffffffffffffffffffffffffffffffffffffff16815260200190815260200160002060008201518160000160006101000a81548173ffffffffffffffffffffffffffffffffffffffff021916908373ffffffffffffffffffffffffffffffffffffffff1602179055506020820151816001019060001916905560408201518160020160006101000a81548160ff021916908360018111156109f057fe5b021790555090505060068054806001018281610a0c9190611b80565b9160005260206000209001600085909190915090600019169055508360056000856000191660001916815260200190815260200160002060006101000a81548173ffffffffffffffffffffffffffffffffffffffff021916908373ffffffffffffffffffffffffffffffffffffffff1602179055508373ffffffffffffffffffffffffffffffffffffffff167f10f3cac274da985671e5f4c125314c2a606ab8370e25bca75996452b8e6f24548460405180826000191660001916815260200191505060405180910390a250505050565b610b0b336000357fffffffff0000000000000000000000000000000000000000000000000000000016611921565b1515610b1657600080fd5b80600160006101000a81548173ffffffffffffffffffffffffffffffffffffffff021916908373ffffffffffffffffffffffffffffffffffffffff160217905550600160009054906101000a900473ffffffffffffffffffffffffffffffffffffffff1673ffffffffffffffffffffffffffffffffffffffff167fce241d7ca1f669fee44b6fc00b8eba2df3bb514eed0f6f668f8f89096e81ed9460405160405180910390a250565b60008082600073ffffffffffffffffffffffffffffffffffffffff1660056000836000191660001916815260200190815260200160002060009054906101000a900473ffffffffffffffffffffffffffffffffffffffff1673ffffffffffffffffffffffffffffffffffffffff1614151515610c3a57600080fd5b600160149054906101000a900460ff16151515610c5657600080fd5b610c84336000357fffffffff0000000000000000000000000000000000000000000000000000000016611921565b1515610c8f57600080fd5b6004600060056000876000191660001916815260200190815260200160002060009054906101000a900473ffffffffffffffffffffffffffffffffffffffff1673ffffffffffffffffffffffffffffffffffffffff1673ffffffffffffffffffffffffffffffffffffffff16815260200190815260200160002091508160000160009054906101000a900473ffffffffffffffffffffffffffffffffffffffff1673ffffffffffffffffffffffffffffffffffffffff167f0b059dba7192ab753a140fae2944db866c03efc84b0f398da9b259b5a942c11a836001015460405180826000191660001916815260200191505060405180910390a260008260020160006101000a81548160ff02191690836001811115610daa57fe5b0217905550600192505050919050565b600082600073ffffffffffffffffffffffffffffffffffffffff1660056000836000191660001916815260200190815260200160002060009054906101000a900473ffffffffffffffffffffffffffffffffffffffff1673ffffffffffffffffffffffffffffffffffffffff1614151515610e3457600080fd5b600160149054906101000a900460ff16151515610e5057600080fd5b610e7e336000357fffffffff0000000000000000000000000000000000000000000000000000000016611921565b1515610e8957600080fd5b8360001916600684815481101515610e9d57fe5b90600052602060002090015460001916141515610eb957600080fd5b6006600160068054905003815481101515610ed057fe5b906000526020600020900154600684815481101515610eeb57fe5b906000526020600020900181600019169055506001600681818054905003915081610f169190611bac565b506004600060056000876000191660001916815260200190815260200160002060009054906101000a900473ffffffffffffffffffffffffffffffffffffffff1673ffffffffffffffffffffffffffffffffffffffff1673ffffffffffffffffffffffffffffffffffffffff16815260200190815260200160002091508160000160009054906101000a900473ffffffffffffffffffffffffffffffffffffffff1673ffffffffffffffffffffffffffffffffffffffff167f75939e4107bc79b622aca25a5f01c6043244304145ca68abcce0716057e30684836001015460405180826000191660001916815260200191505060405180910390a26004600060056000876000191660001916815260200190815260200160002060009054906101000a900473ffffffffffffffffffffffffffffffffffffffff1673ffffffffffffffffffffffffffffffffffffffff1673ffffffffffffffffffffffffffffffffffffffff168152602001908152602001600020600080820160006101000a81549073ffffffffffffffffffffffffffffffffffffffff021916905560018201600090556002820160006101000a81549060ff0219169055505060056000856000191660001916815260200190815260200160002060006101000a81549073ffffffffffffffffffffffffffffffffffffffff021916905550505050565b6000806000611122611bd8565b6004600060056000886000191660001916815260200190815260200160002060009054906101000a900473ffffffffffffffffffffffffffffffffffffffff1673ffffffffffffffffffffffffffffffffffffffff1673ffffffffffffffffffffffffffffffffffffffff168152602001908152602001600020606060405190810160405290816000820160009054906101000a900473ffffffffffffffffffffffffffffffffffffffff1673ffffffffffffffffffffffffffffffffffffffff1673ffffffffffffffffffffffffffffffffffffffff1681526020016001820154600019166000191681526020016002820160009054906101000a900460ff16600181111561122e57fe5b600181111561123957fe5b815250509050806000015181602001518260400151935093509350509193909250565b600081600073ffffffffffffffffffffffffffffffffffffffff1660056000836000191660001916815260200190815260200160002060009054906101000a900473ffffffffffffffffffffffffffffffffffffffff1673ffffffffffffffffffffffffffffffffffffffff16141515156112d657600080fd5b600160149054906101000a900460ff161515156112f257600080fd5b611320336000357fffffffff0000000000000000000000000000000000000000000000000000000016611921565b151561132b57600080fd5b6004600060056000866000191660001916815260200190815260200160002060009054906101000a900473ffffffffffffffffffffffffffffffffffffffff1673ffffffffffffffffffffffffffffffffffffffff1673ffffffffffffffffffffffffffffffffffffffff16815260200190815260200160002091508160000160009054906101000a900473ffffffffffffffffffffffffffffffffffffffff1673ffffffffffffffffffffffffffffffffffffffff167fbaa10d0b9881678d86d85dc1f0e8f485521ff0aaae8d760a5676df36e1589de1836001015460405180826000191660001916815260200191505060405180910390a260018260020160006101000a81548160ff0219169083600181111561144657fe5b0217905550505050565b600160149054906101000a900460ff1681565b611491336000357fffffffff0000000000000000000000000000000000000000000000000000000016611921565b151561149c57600080fd5b806000806101000a81548173ffffffffffffffffffffffffffffffffffffffff021916908373ffffffffffffffffffffffffffffffffffffffff1602179055506000809054906101000a900473ffffffffffffffffffffffffffffffffffffffff1673ffffffffffffffffffffffffffffffffffffffff167f1abebea81bfa2637f28358c371278fb15ede7ea8dd28d2e03b112ff6d936ada460405160405180910390a250565b6000600160149054906101000a900460ff1615151561156157600080fd5b61158f336000357fffffffff0000000000000000000000000000000000000000000000000000000016611921565b151561159a57600080fd5b81600260006101000a81548173ffffffffffffffffffffffffffffffffffffffff021916908373ffffffffffffffffffffffffffffffffffffffff16021790555060019050919050565b600160009054906101000a900473ffffffffffffffffffffffffffffffffffffffff1681565b6000600160149054906101000a900460ff1615151561162857600080fd5b61163133611715565b151561163c57600080fd5b600360009054906101000a900473ffffffffffffffffffffffffffffffffffffffff1673ffffffffffffffffffffffffffffffffffffffff16632d88052184846000604051602001526040518363ffffffff167c010000000000000000000000000000000000000000000000000000000002815260040180836000191660001916815260200182815260200192505050602060405180830381600087803b15156116e557600080fd5b6102c65a03f115156116f657600080fd5b50505060405180519050151561170b57600080fd5b6001905092915050565b600081600073ffffffffffffffffffffffffffffffffffffffff168173ffffffffffffffffffffffffffffffffffffffff161415151561175457600080fd5b60018081111561176057fe5b600460008573ffffffffffffffffffffffffffffffffffffffff1673ffffffffffffffffffffffffffffffffffffffff16815260200190815260200160002060020160009054906101000a900460ff1660018111156117bb57fe5b14156117ca57600191506117cf565b600091505b50919050565b611803336000357fffffffff0000000000000000000000000000000000000000000000000000000016611921565b151561180e57600080fd5b60008060043591506024359050806000191682600019163373ffffffffffffffffffffffffffffffffffffffff166000357fffffffff00000000000000000000000000000000000000000000000000000000167bffffffffffffffffffffffffffffffffffffffffffffffffffffffff19163460003660405180848152602001806020018281038252848482818152602001925080828437820191505094505050505060405180910390a46000600160146101000a81548160ff0219169083151502179055505050565b6000809054906101000a900473ffffffffffffffffffffffffffffffffffffffff1681565b60068181548110151561190c57fe5b90600052602060002090016000915090505481565b60003073ffffffffffffffffffffffffffffffffffffffff168373ffffffffffffffffffffffffffffffffffffffff1614156119605760019050611b7a565b600160009054906101000a900473ffffffffffffffffffffffffffffffffffffffff1673ffffffffffffffffffffffffffffffffffffffff168373ffffffffffffffffffffffffffffffffffffffff1614156119bf5760019050611b7a565b600073ffffffffffffffffffffffffffffffffffffffff166000809054906101000a900473ffffffffffffffffffffffffffffffffffffffff1673ffffffffffffffffffffffffffffffffffffffff161415611a1e5760009050611b7a565b6000809054906101000a900473ffffffffffffffffffffffffffffffffffffffff1673ffffffffffffffffffffffffffffffffffffffff1663b70096138430856000604051602001526040518463ffffffff167c0100000000000000000000000000000000000000000000000000000000028152600401808473ffffffffffffffffffffffffffffffffffffffff1673ffffffffffffffffffffffffffffffffffffffff1681526020018373ffffffffffffffffffffffffffffffffffffffff1673ffffffffffffffffffffffffffffffffffffffff168152602001827bffffffffffffffffffffffffffffffffffffffffffffffffffffffff19167bffffffffffffffffffffffffffffffffffffffffffffffffffffffff191681526020019350505050602060405180830381600087803b1515611b5c57600080fd5b6102c65a03f11515611b6d57600080fd5b5050506040518051905090505b92915050565b815481835581811511611ba757818360005260206000209182019101611ba69190611c1e565b5b505050565b815481835581811511611bd357818360005260206000209182019101611bd29190611c1e565b5b505050565b606060405190810160405280600073ffffffffffffffffffffffffffffffffffffffff1681526020016000801916815260200160006001811115611c1857fe5b81525090565b611c4091905b80821115611c3c576000816000905550600101611c24565b5090565b905600a165627a7a7230582071ce5a93d721d77887565c9eada8579e0a158fb51b76828918f81b4c9ec76dc40029",
  "source": "pragma solidity ^0.4.18;\r\nimport \"./stop.sol\";\r\nimport \"./NetworkParameters.sol\";\r\nimport \"./Oracle.sol\";\r\n\r\n\r\n/// @title Contract that contains supported Oracle. Open to Governance.\r\n/// @author Lendroid - <vii@lendroid.io>, Inspired from 0xProject\r\ncontract PriceFeedManager is DSStop {\r\n    \r\n    NetworkParameters LendroidNetworkParameters;\r\n    Oracle LendroidOracle;\r\n    \r\n    event LogAddProvider(\r\n        address indexed provider,\r\n        bytes32 name\r\n    );\r\n\r\n    event LogRemoveProvider(\r\n        address indexed provider,\r\n        bytes32 name\r\n    );\r\n\r\n    event LogDeactivateProvider(\r\n        address indexed provider,\r\n        bytes32 name\r\n    );\r\n\r\n    event LogActivateProvider(\r\n        address indexed provider,\r\n        bytes32 name\r\n    );\r\n\r\n    event LogProviderAddressChange(bytes32 indexed name, address oldAddress, address newAddress);\r\n    \r\n    enum Status {\r\n        INACTIVE, // Set to inctive when a provider is deactivated\r\n        ACTIVE    // Default status when a new provider is added\r\n    }\r\n    \r\n    struct ProviderMetaData {\r\n        address provider;\r\n        bytes32 name;\r\n        Status status;\r\n    }\r\n    \r\n    mapping (address => ProviderMetaData) public providers;\r\n    mapping (bytes32 => address) providerByName;\r\n    bytes32[] public providerNames;\r\n\r\n    modifier nameExists(bytes32 _name) {\r\n        require(providerByName[_name] != address(0));\r\n        _;\r\n    }\r\n    \r\n    modifier nameDoesNotExist(bytes32 _name) {\r\n        require(providerByName[_name] == address(0));\r\n        _;\r\n    }\r\n\r\n    modifier addressNotNull(address _address) {\r\n        require(_address != address(0));\r\n        _;\r\n    }\r\n\r\n    /// @dev Allows owner to set the NetworkParameters contract.\r\n    /// @param _address Address of the NetworkParameters contract.\r\n    function setLendroidNetworkParameters(address _address)\r\n        public \r\n        stoppable\r\n        auth\r\n        returns (bool) \r\n    {\r\n        LendroidNetworkParameters = NetworkParameters(_address);\r\n        return true;\r\n    }\r\n\r\n    /// @dev Allows owner to set the Oracle contract.\r\n    /// @param _address Address of the Oracle contract.\r\n    function setLendroidOracle(address _address) \r\n        public \r\n        stoppable\r\n        auth\r\n        returns (bool) \r\n    {\r\n        LendroidOracle = Oracle(_address);\r\n        return true;\r\n    }\r\n\r\n    function isValidProvider(\r\n        address _address)\r\n        public\r\n        addressNotNull(_address) \r\n        constant\r\n        returns (bool validProviderAddress)\r\n    {\r\n        if (providers[_address].status == Status.ACTIVE) {\r\n            validProviderAddress = true;\r\n        }\r\n        else {\r\n            validProviderAddress = false;\r\n        }\r\n    }\r\n\r\n    /// @dev Allows PriceFeedProvider contract to update the token price.\r\n    /// @param _symbol Token symbol of type bytes32.\r\n    /// @param _price price value of type uint.\r\n    function updatePriceFeed(bytes32 _symbol, uint _price) \r\n        public\r\n        stoppable\r\n        returns (bool) {\r\n        require(isValidProvider(msg.sender));\r\n        require(LendroidOracle.updateTokenPrice(_symbol, _price));\r\n        return true;\r\n    }\r\n\r\n    /// @dev Allows owner to add a new provider to the registry.\r\n    /// @param _provider Address of new provider.\r\n    /// @param _name Name of new provider.\r\n    function addProvider(\r\n        address _provider,\r\n        bytes32 _name)\r\n        public\r\n        addressNotNull(_provider)\r\n        nameDoesNotExist(_name)\r\n        stoppable\r\n        auth// owner\r\n    {\r\n        providers[_provider] = ProviderMetaData({\r\n            provider: _provider,\r\n            name: _name,\r\n            status: Status.ACTIVE\r\n        });\r\n        providerNames.push(_name);\r\n        providerByName[_name] = _provider;\r\n        LogAddProvider(\r\n            _provider,\r\n            _name\r\n        );\r\n    }\r\n\r\n    /// @dev Allows owner to remove an existing provider from the registry.\r\n    /// @param _name Name of existing provider.\r\n    function removeProvider(bytes32 _name, uint _index)\r\n        public\r\n        nameExists(_name)\r\n        stoppable\r\n        auth\r\n    {\r\n        require(providerNames[_index] == _name);\r\n\r\n        providerNames[_index] = providerNames[providerNames.length - 1];\r\n        providerNames.length -= 1;\r\n\r\n        ProviderMetaData storage provider = providers[providerByName[_name]];\r\n        LogRemoveProvider(\r\n            provider.provider,\r\n            provider.name\r\n        );\r\n        delete providers[providerByName[_name]];\r\n        delete providerByName[_name];\r\n    }\r\n\r\n    /// @dev Allows owner to deactivate an existing provider.\r\n    /// @param _name Name of existing provider.\r\n    function deactivateProvider(bytes32 _name)\r\n        public\r\n        nameExists(_name)\r\n        stoppable\r\n        auth\r\n        returns (bool)\r\n    {\r\n        ProviderMetaData storage provider = providers[providerByName[_name]];\r\n        LogDeactivateProvider(\r\n            provider.provider,\r\n            provider.name\r\n        );\r\n        provider.status = Status.INACTIVE;\r\n        return true;\r\n    }\r\n\r\n    /// @dev Allows owner to activate an existing provider.\r\n    /// @param _name Name of existing provider.\r\n    function activateProvider(bytes32 _name)\r\n        public\r\n        nameExists(_name)\r\n        stoppable\r\n        auth\r\n    {\r\n        ProviderMetaData storage provider = providers[providerByName[_name]];\r\n        LogActivateProvider(\r\n            provider.provider,\r\n            provider.name\r\n        );\r\n        provider.status = Status.ACTIVE;\r\n    }\r\n\r\n    function getProviderMetaData(bytes32 _name)\r\n        public\r\n        constant\r\n        returns (\r\n            address, //providerAddress\r\n            bytes32,  //name\r\n            Status   //status\r\n        )\r\n    {\r\n        ProviderMetaData memory provider = providers[providerByName[_name]];\r\n        return (\r\n            provider.provider,\r\n            provider.name,\r\n            provider.status\r\n        );\r\n    }\r\n\r\n}",
  "sourcePath": "C:\\work\\programming\\ethereum\\lendroid\\protocol-demo\\contracts\\PriceFeedManager.sol",
  "compiler": {
    "name": "solc",
    "version": "0.4.18+commit.9cf6e910.Emscripten.clang"
  },
  "schemaVersion": "1.0.1",
  "updatedAt": "2017-11-07T21:43:19.197Z"
}