{
  "contractName": "PriceFeedProviderBase",
  "abi": [
    {
      "constant": false,
      "inputs": [
        {
          "name": "_address",
          "type": "address"
        }
      ],
      "name": "setLendroidPriceFeedManager",
      "outputs": [
        {
          "name": "",
          "type": "bool"
        }
      ],
      "payable": false,
      "stateMutability": "nonpayable",
      "type": "function"
    },
    {
      "constant": false,
      "inputs": [
        {
          "name": "_address",
          "type": "address"
        }
      ],
      "name": "setLendroidNetworkParameters",
      "outputs": [
        {
          "name": "",
          "type": "bool"
        }
      ],
      "payable": false,
      "stateMutability": "nonpayable",
      "type": "function"
    },
    {
      "constant": true,
      "inputs": [],
      "name": "owner",
      "outputs": [
        {
          "name": "",
          "type": "address"
        }
      ],
      "payable": false,
      "stateMutability": "view",
      "type": "function"
    },
    {
      "constant": false,
      "inputs": [
        {
          "name": "newOwner",
          "type": "address"
        }
      ],
      "name": "transferOwnership",
      "outputs": [],
      "payable": false,
      "stateMutability": "nonpayable",
      "type": "function"
    },
    {
      "constant": false,
      "inputs": [
        {
          "name": "_symbol",
          "type": "bytes32"
        }
      ],
      "name": "updateLendroidPriceFeed",
      "outputs": [
        {
          "name": "",
          "type": "bool"
        }
      ],
      "payable": false,
      "stateMutability": "nonpayable",
      "type": "function"
    }
  ],
  "bytecode": "0x6060604052336000806101000a81548173ffffffffffffffffffffffffffffffffffffffff021916908373ffffffffffffffffffffffffffffffffffffffff16021790555061053d806100536000396000f30060606040526004361061006d576000357c0100000000000000000000000000000000000000000000000000000000900463ffffffff168063212e810014610072578063885c43cd146100c35780638da5cb5b14610114578063f2fde38b14610169578063f6d5b06f146101a2575b600080fd5b341561007d57600080fd5b6100a9600480803573ffffffffffffffffffffffffffffffffffffffff169060200190919050506101e1565b604051808215151515815260200191505060405180910390f35b34156100ce57600080fd5b6100fa600480803573ffffffffffffffffffffffffffffffffffffffff16906020019091905050610288565b604051808215151515815260200191505060405180910390f35b341561011f57600080fd5b61012761032f565b604051808273ffffffffffffffffffffffffffffffffffffffff1673ffffffffffffffffffffffffffffffffffffffff16815260200191505060405180910390f35b341561017457600080fd5b6101a0600480803573ffffffffffffffffffffffffffffffffffffffff16906020019091905050610354565b005b34156101ad57600080fd5b6101c7600480803560001916906020019091905050610429565b604051808215151515815260200191505060405180910390f35b60008060009054906101000a900473ffffffffffffffffffffffffffffffffffffffff1673ffffffffffffffffffffffffffffffffffffffff163373ffffffffffffffffffffffffffffffffffffffff1614151561023e57600080fd5b81600360006101000a81548173ffffffffffffffffffffffffffffffffffffffff021916908373ffffffffffffffffffffffffffffffffffffffff16021790555060019050919050565b60008060009054906101000a900473ffffffffffffffffffffffffffffffffffffffff1673ffffffffffffffffffffffffffffffffffffffff163373ffffffffffffffffffffffffffffffffffffffff161415156102e557600080fd5b81600260006101000a81548173ffffffffffffffffffffffffffffffffffffffff021916908373ffffffffffffffffffffffffffffffffffffffff16021790555060019050919050565b6000809054906101000a900473ffffffffffffffffffffffffffffffffffffffff1681565b6000809054906101000a900473ffffffffffffffffffffffffffffffffffffffff1673ffffffffffffffffffffffffffffffffffffffff163373ffffffffffffffffffffffffffffffffffffffff161415156103af57600080fd5b600073ffffffffffffffffffffffffffffffffffffffff168173ffffffffffffffffffffffffffffffffffffffff1614151561042657806000806101000a81548173ffffffffffffffffffffffffffffffffffffffff021916908373ffffffffffffffffffffffffffffffffffffffff1602179055505b50565b6000600360009054906101000a900473ffffffffffffffffffffffffffffffffffffffff1673ffffffffffffffffffffffffffffffffffffffff166393781ffb83600160008660001916600019168152602001908152602001600020546000604051602001526040518363ffffffff167c010000000000000000000000000000000000000000000000000000000002815260040180836000191660001916815260200182815260200192505050602060405180830381600087803b15156104ef57600080fd5b6102c65a03f1151561050057600080fd5b5050506040518051905090509190505600a165627a7a723058209653cbf3019ed0ce2e49eea12ddcf8cc7881607bf325ceec8f3f728e05ecdd780029",
  "source": "\r\n/*\r\n    Coinmarketcap-based price updater\r\n    For now, this is manual. Will be updated every ~60 seconds.\r\n*/\r\n\r\npragma solidity ^0.4.18;\r\nimport \"./Ownable.sol\";\r\nimport \"./NetworkParameters.sol\";\r\nimport \"./PriceFeedManager.sol\";\r\n\r\n\r\ncontract PriceFeedProviderBase is Ownable {\r\n\r\n    mapping (bytes32 => uint) tokenPrices;\r\n\r\n    NetworkParameters LendroidNetworkParameters;\r\n    PriceFeedManager LendroidPriceFeedManager;\r\n\r\n    modifier isValidSymbol(bytes32 _symbol) {\r\n        require(LendroidNetworkParameters.isValidSymbol(_symbol));\r\n        _;\r\n    }\r\n\r\n    /// @dev Allows owner to set the PriceFeedManager contract.\r\n    /// @param _address Address of the PriceFeedManager contract.\r\n    function setLendroidPriceFeedManager(address _address) public onlyOwner returns (bool) {\r\n        LendroidPriceFeedManager = PriceFeedManager(_address);\r\n        return true;\r\n    }\r\n\r\n    function setLendroidNetworkParameters(address _address) public onlyOwner returns (bool) {\r\n        LendroidNetworkParameters = NetworkParameters(_address);\r\n        return true;\r\n    }\r\n\r\n    function getDecimalsBySymbol(bytes32 _symbol) internal constant returns (uint) {\r\n        return LendroidNetworkParameters.getTokenDecimalsBySymbol(_symbol);\r\n    }\r\n\r\n    function getDecimalsByAddress(address _address) internal constant returns (uint) {\r\n        return LendroidNetworkParameters.getTokenDecimalsByAddress(_address);\r\n    }\r\n\r\n    function updateLendroidPriceFeed(bytes32 _symbol) public returns (bool){\r\n        return LendroidPriceFeedManager.updatePriceFeed(_symbol, tokenPrices[_symbol]);\r\n    }\r\n\r\n}",
  "sourcePath": "C:\\work\\programming\\ethereum\\lendroid\\protocol-demo\\contracts\\PriceFeedProviderBase.sol",
  "compiler": {
    "name": "solc",
    "version": "0.4.18+commit.9cf6e910.Emscripten.clang"
  },
  "schemaVersion": "1.0.1",
  "updatedAt": "2017-11-03T09:45:30.477Z"
}