{
  "contractName": "PriceFeedProviderCoinMarketCap",
  "abi": [
    {
      "constant": false,
      "inputs": [],
      "name": "stop",
      "outputs": [
        {
          "name": "",
          "type": "bool"
        }
      ],
      "payable": false,
      "stateMutability": "nonpayable",
      "type": "function"
    },
    {
      "constant": false,
      "inputs": [
        {
          "name": "_address",
          "type": "address"
        }
      ],
      "name": "refillBalance",
      "outputs": [
        {
          "name": "",
          "type": "bool"
        }
      ],
      "payable": true,
      "stateMutability": "payable",
      "type": "function"
    },
    {
      "constant": false,
      "inputs": [
        {
          "name": "owner_",
          "type": "address"
        },
        {
          "name": "result",
          "type": "string"
        }
      ],
      "name": "setOwner",
      "outputs": [],
      "payable": false,
      "stateMutability": "nonpayable",
      "type": "function"
    },
    {
      "constant": false,
      "inputs": [
        {
          "name": "_address",
          "type": "address"
        }
      ],
      "name": "setLendroidPriceFeedManager",
      "outputs": [
        {
          "name": "",
          "type": "bool"
        }
      ],
      "payable": false,
      "stateMutability": "nonpayable",
      "type": "function"
    },
    {
      "constant": false,
      "inputs": [
        {
          "name": "myid",
          "type": "bytes32"
        },
        {
          "name": "result",
          "type": "string"
        },
        {
          "name": "proof",
          "type": "bytes"
        }
      ],
      "name": "__callback",
      "outputs": [],
      "payable": false,
      "stateMutability": "nonpayable",
      "type": "function"
    },
    {
      "constant": true,
      "inputs": [
        {
          "name": "_symbol",
          "type": "bytes32"
        }
      ],
      "name": "getPrice",
      "outputs": [
        {
          "name": "",
          "type": "uint256"
        }
      ],
      "payable": false,
      "stateMutability": "view",
      "type": "function"
    },
    {
      "constant": false,
      "inputs": [
        {
          "name": "_qId",
          "type": "bytes32"
        },
        {
          "name": "result",
          "type": "string"
        },
        {
          "name": "proof",
          "type": "bytes"
        }
      ],
      "name": "__callback",
      "outputs": [
        {
          "name": "",
          "type": "address"
        }
      ],
      "payable": false,
      "stateMutability": "nonpayable",
      "type": "function"
    },
    {
      "constant": true,
      "inputs": [
        {
          "name": "_symbol",
          "type": "bytes32"
        },
        {
          "name": "_id",
          "type": "string"
        }
      ],
      "name": "stopped",
      "outputs": [
        {
          "name": "",
          "type": "bool"
        }
      ],
      "payable": false,
      "stateMutability": "view",
      "type": "function"
    },
    {
      "constant": false,
      "inputs": [
        {
          "name": "authority_",
          "type": "address"
        }
      ],
      "name": "setAuthority",
      "outputs": [],
      "payable": false,
      "stateMutability": "nonpayable",
      "type": "function"
    },
    {
      "constant": false,
      "inputs": [
        {
          "name": "_address",
          "type": "address"
        }
      ],
      "name": "setLendroidNetworkParameters",
      "outputs": [
        {
          "name": "",
          "type": "bool"
        }
      ],
      "payable": false,
      "stateMutability": "nonpayable",
      "type": "function"
    },
    {
      "constant": true,
      "inputs": [
        {
          "name": "newOwner",
          "type": "address"
        }
      ],
      "name": "owner",
      "outputs": [
        {
          "name": "",
          "type": "address"
        }
      ],
      "payable": false,
      "stateMutability": "view",
      "type": "function"
    },
    {
      "constant": false,
      "inputs": [
        {
          "name": "_symbol",
          "type": "bytes32"
        },
        {
          "name": "_id",
          "type": "string"
        }
      ],
      "name": "setTokenId",
      "outputs": [
        {
          "name": "",
          "type": "bool"
        }
      ],
      "payable": false,
      "stateMutability": "nonpayable",
      "type": "function"
    },
    {
      "inputs": [],
      "payable": false,
      "stateMutability": "nonpayable",
      "type": "function",
      "constant": false,
      "name": "start",
      "outputs": []
    },
    {
      "anonymous": false,
      "inputs": [
        {
          "indexed": false,
          "name": "description",
          "type": "string"
        }
      ],
      "name": "authority",
      "type": "function",
      "constant": true,
      "outputs": [
        {
          "name": "",
          "type": "address"
        }
      ],
      "payable": false,
      "stateMutability": "view"
    },
    {
      "anonymous": false,
      "inputs": [
        {
          "indexed": true,
          "name": "_symbol",
          "type": "bytes32"
        },
        {
          "indexed": false,
          "name": "_price",
          "type": "string"
        }
      ],
      "name": "updatePrice",
      "type": "function",
      "constant": false,
      "outputs": [],
      "payable": true,
      "stateMutability": "payable"
    },
    {
      "anonymous": false,
      "inputs": [
        {
          "indexed": true,
          "name": "_amount",
          "type": "uint256"
        },
        {
          "indexed": false,
          "name": "_id",
          "type": "string"
        }
      ],
      "name": "withdrawBalance",
      "type": "function",
      "constant": false,
      "outputs": [
        {
          "name": "",
          "type": "bool"
        }
      ],
      "payable": false,
      "stateMutability": "nonpayable"
    },
    {
      "constant": false,
      "inputs": [
        {
          "name": "newOwner",
          "type": "address"
        }
      ],
      "name": "transferOwnership",
      "outputs": [],
      "payable": false,
      "stateMutability": "nonpayable",
      "type": "function"
    },
    {
      "constant": false,
      "inputs": [
        {
          "name": "_symbol",
          "type": "bytes32"
        }
      ],
      "name": "updateLendroidPriceFeed",
      "outputs": [
        {
          "name": "",
          "type": "bool"
        }
      ],
      "payable": false,
      "stateMutability": "nonpayable",
      "type": "function"
    },
    {
      "inputs": [],
      "payable": false,
      "stateMutability": "nonpayable",
      "type": "constructor"
    },
    {
      "anonymous": false,
      "inputs": [
        {
          "indexed": false,
          "name": "description",
          "type": "string"
        }
      ],
      "name": "LogSendingQuery",
      "type": "event"
    },
    {
      "anonymous": false,
      "inputs": [
        {
          "indexed": true,
          "name": "_symbol",
          "type": "bytes32"
        },
        {
          "indexed": false,
          "name": "_price",
          "type": "string"
        }
      ],
      "name": "LogPriceUpdated",
      "type": "event"
    },
    {
      "anonymous": false,
      "inputs": [
        {
          "indexed": true,
          "name": "_symbol",
          "type": "bytes32"
        },
        {
          "indexed": false,
          "name": "_id",
          "type": "string"
        }
      ],
      "name": "LogTokenIdUpdated",
      "type": "event"
    },
    {
      "anonymous": false,
      "inputs": [
        {
          "indexed": true,
          "name": "authority",
          "type": "address"
        }
      ],
      "name": "LogSetAuthority",
      "type": "event"
    },
    {
      "anonymous": false,
      "inputs": [
        {
          "indexed": true,
          "name": "owner",
          "type": "address"
        }
      ],
      "name": "LogSetOwner",
      "type": "event"
    },
    {
      "anonymous": true,
      "inputs": [
        {
          "indexed": true,
          "name": "sig",
          "type": "bytes4"
        },
        {
          "indexed": true,
          "name": "guy",
          "type": "address"
        },
        {
          "indexed": true,
          "name": "foo",
          "type": "bytes32"
        },
        {
          "indexed": true,
          "name": "bar",
          "type": "bytes32"
        },
        {
          "indexed": false,
          "name": "wad",
          "type": "uint256"
        },
        {
          "indexed": false,
          "name": "fax",
          "type": "bytes"
        }
      ],
      "name": "LogNote",
      "type": "event"
    }
  ],
  "bytecode": "0x606060405234156200001057600080fd5b33600160006101000a81548173ffffffffffffffffffffffffffffffffffffffff021916908373ffffffffffffffffffffffffffffffffffffffff1602179055503373ffffffffffffffffffffffffffffffffffffffff167fce241d7ca1f669fee44b6fc00b8eba2df3bb514eed0f6f668f8f89096e81ed9460405160405180910390a233600a60006101000a81548173ffffffffffffffffffffffffffffffffffffffff021916908373ffffffffffffffffffffffffffffffffffffffff160217905550620000f863ee6b2800620000fe64010000000002620030fa176401000000009004565b62000ab3565b6000600560009054906101000a900473ffffffffffffffffffffffffffffffffffffffff1673ffffffffffffffffffffffffffffffffffffffff161480620001865750600062000184600560009054906101000a900473ffffffffffffffffffffffffffffffffffffffff16620004456401000000000262002738176401000000009004565b145b15620001ae57620001ac6000620004506401000000000262002743176401000000009004565b505b600560009054906101000a900473ffffffffffffffffffffffffffffffffffffffff1673ffffffffffffffffffffffffffffffffffffffff166338cc48316000604051602001526040518163ffffffff167c0100000000000000000000000000000000000000000000000000000000028152600401602060405180830381600087803b15156200023d57600080fd5b6102c65a03f115156200024f57600080fd5b5050506040518051905073ffffffffffffffffffffffffffffffffffffffff16600660009054906101000a900473ffffffffffffffffffffffffffffffffffffffff1673ffffffffffffffffffffffffffffffffffffffff161415156200039c57600560009054906101000a900473ffffffffffffffffffffffffffffffffffffffff1673ffffffffffffffffffffffffffffffffffffffff166338cc48316000604051602001526040518163ffffffff167c0100000000000000000000000000000000000000000000000000000000028152600401602060405180830381600087803b15156200033f57600080fd5b6102c65a03f115156200035157600080fd5b50505060405180519050600660006101000a81548173ffffffffffffffffffffffffffffffffffffffff021916908373ffffffffffffffffffffffffffffffffffffffff1602179055505b600660009054906101000a900473ffffffffffffffffffffffffffffffffffffffff1673ffffffffffffffffffffffffffffffffffffffff1663ca6ad1e4826040518263ffffffff167c010000000000000000000000000000000000000000000000000000000002815260040180828152602001915050600060405180830381600087803b15156200042d57600080fd5b6102c65a03f115156200043f57600080fd5b50505050565b6000813b9050919050565b60008062000486731d3b2638a7cc9f2cb3d298a3da7a90b67e5506ed620004456401000000000262002738176401000000009004565b11156200054057731d3b2638a7cc9f2cb3d298a3da7a90b67e5506ed600560006101000a81548173ffffffffffffffffffffffffffffffffffffffff021916908373ffffffffffffffffffffffffffffffffffffffff160217905550620005366040805190810160405280600b81526020017f6574685f6d61696e6e6574000000000000000000000000000000000000000000815250620009e86401000000000262003013176401000000009004565b60019050620009e3565b60006200057573c03a2615d5efaf5f49f60b7bb6583eaec212fdf1620004456401000000000262002738176401000000009004565b11156200062f5773c03a2615d5efaf5f49f60b7bb6583eaec212fdf1600560006101000a81548173ffffffffffffffffffffffffffffffffffffffff021916908373ffffffffffffffffffffffffffffffffffffffff160217905550620006256040805190810160405280600c81526020017f6574685f726f707374656e330000000000000000000000000000000000000000815250620009e86401000000000262003013176401000000009004565b60019050620009e3565b60006200066473b7a07bcf2ba2f2703b24c0691b5278999c59ac7e620004456401000000000262002738176401000000009004565b11156200071e5773b7a07bcf2ba2f2703b24c0691b5278999c59ac7e600560006101000a81548173ffffffffffffffffffffffffffffffffffffffff021916908373ffffffffffffffffffffffffffffffffffffffff160217905550620007146040805190810160405280600981526020017f6574685f6b6f76616e0000000000000000000000000000000000000000000000815250620009e86401000000000262003013176401000000009004565b60019050620009e3565b60006200075373146500cfd35b22e4a392fe0adc06de1a1368ed48620004456401000000000262002738176401000000009004565b11156200080d5773146500cfd35b22e4a392fe0adc06de1a1368ed48600560006101000a81548173ffffffffffffffffffffffffffffffffffffffff021916908373ffffffffffffffffffffffffffffffffffffffff160217905550620008036040805190810160405280600b81526020017f6574685f72696e6b656279000000000000000000000000000000000000000000815250620009e86401000000000262003013176401000000009004565b60019050620009e3565b600062000842736f485c8bf6fc43ea212e93bbf8ce046c7f1cb475620004456401000000000262002738176401000000009004565b1115620008a857736f485c8bf6fc43ea212e93bbf8ce046c7f1cb475600560006101000a81548173ffffffffffffffffffffffffffffffffffffffff021916908373ffffffffffffffffffffffffffffffffffffffff16021790555060019050620009e3565b6000620008dd7320e12a1f859b3feae5fb2a0a32c18f5a65555bbf620004456401000000000262002738176401000000009004565b111562000943577320e12a1f859b3feae5fb2a0a32c18f5a65555bbf600560006101000a81548173ffffffffffffffffffffffffffffffffffffffff021916908373ffffffffffffffffffffffffffffffffffffffff16021790555060019050620009e3565b6000620009787351efaf4c8b3c9afbd5ab9f4bbc82784ab6ef8faa620004456401000000000262002738176401000000009004565b1115620009de577351efaf4c8b3c9afbd5ab9f4bbc82784ab6ef8faa600560006101000a81548173ffffffffffffffffffffffffffffffffffffffff021916908373ffffffffffffffffffffffffffffffffffffffff16021790555060019050620009e3565b600090505b919050565b806007908051906020019062000a0092919062000a04565b5050565b828054600181600116156101000203166002900490600052602060002090601f016020900481019282601f1062000a4757805160ff191683800117855562000a78565b8280016001018555821562000a78579182015b8281111562000a7757825182559160200191906001019062000a5a565b5b50905062000a87919062000a8b565b5090565b62000ab091905b8082111562000aac57600081600090555060010162000a92565b5090565b90565b6134388062000ac36000396000f3006060604052600436106100fc576000357c0100000000000000000000000000000000000000000000000000000000900463ffffffff16806307da68f51461010157806309af014f1461011657806313af403514610138578063212e81001461017157806327dc297e146101c257806331d98b3f1461022c57806338bbfa501461026757806375f12b21146103145780637a9e5e4b14610341578063885c43cd1461037a5780638da5cb5b146103cb578063bdfc1ef114610420578063be9a6555146104a2578063bf7e214f146104b7578063ce9125081461050c578063da76d5cd14610528578063f2fde38b14610563578063f6d5b06f1461059c575b600080fd5b341561010c57600080fd5b6101146105db565b005b61011e6106dd565b604051808215151515815260200191505060405180910390f35b341561014357600080fd5b61016f600480803573ffffffffffffffffffffffffffffffffffffffff16906020019091905050610742565b005b341561017c57600080fd5b6101a8600480803573ffffffffffffffffffffffffffffffffffffffff16906020019091905050610824565b604051808215151515815260200191505060405180910390f35b34156101cd57600080fd5b61022a60048080356000191690602001909190803590602001908201803590602001908080601f016020809104026020016040519081016040528093929190818152602001838380828437820191505050505050919050506108c5565b005b341561023757600080fd5b6102516004808035600019169060200190919050506108f7565b6040518082815260200191505060405180910390f35b341561027257600080fd5b61031260048080356000191690602001909190803590602001908201803590602001908080601f0160208091040260200160405190810160405280939291908181526020018383808284378201915050505050509190803590602001908201803590602001908080601f0160208091040260200160405190810160405280939291908181526020018383808284378201915050505050509190505061091c565b005b341561031f57600080fd5b610327610acc565b604051808215151515815260200191505060405180910390f35b341561034c57600080fd5b610378600480803573ffffffffffffffffffffffffffffffffffffffff16906020019091905050610adf565b005b341561038557600080fd5b6103b1600480803573ffffffffffffffffffffffffffffffffffffffff16906020019091905050610bbf565b604051808215151515815260200191505060405180910390f35b34156103d657600080fd5b6103de610c60565b604051808273ffffffffffffffffffffffffffffffffffffffff1673ffffffffffffffffffffffffffffffffffffffff16815260200191505060405180910390f35b341561042b57600080fd5b61048860048080356000191690602001909190803590602001908201803590602001908080601f01602080910402602001604051908101604052809392919081815260200183838082843782019150505050505091905050610c86565b604051808215151515815260200191505060405180910390f35b34156104ad57600080fd5b6104b5610dbf565b005b34156104c257600080fd5b6104ca610ec2565b604051808273ffffffffffffffffffffffffffffffffffffffff1673ffffffffffffffffffffffffffffffffffffffff16815260200191505060405180910390f35b610526600480803560001916906020019091905050610ee7565b005b341561053357600080fd5b610549600480803590602001909190505061134f565b604051808215151515815260200191505060405180910390f35b341561056e57600080fd5b61059a600480803573ffffffffffffffffffffffffffffffffffffffff169060200190919050506113f6565b005b34156105a757600080fd5b6105c16004808035600019169060200190919050506114cd565b604051808215151515815260200191505060405180910390f35b610609336000357fffffffff00000000000000000000000000000000000000000000000000000000166115b5565b151561061457600080fd5b60008060043591506024359050806000191682600019163373ffffffffffffffffffffffffffffffffffffffff166000357fffffffff00000000000000000000000000000000000000000000000000000000167bffffffffffffffffffffffffffffffffffffffffffffffffffffffff19163460003660405180848152602001806020018281038252848482818152602001925080828437820191505094505050505060405180910390a460018060146101000a81548160ff0219169083151502179055505050565b6000600a60009054906101000a900473ffffffffffffffffffffffffffffffffffffffff1673ffffffffffffffffffffffffffffffffffffffff163373ffffffffffffffffffffffffffffffffffffffff1614151561073b57600080fd5b6001905090565b610770336000357fffffffff00000000000000000000000000000000000000000000000000000000166115b5565b151561077b57600080fd5b80600160006101000a81548173ffffffffffffffffffffffffffffffffffffffff021916908373ffffffffffffffffffffffffffffffffffffffff160217905550600160009054906101000a900473ffffffffffffffffffffffffffffffffffffffff1673ffffffffffffffffffffffffffffffffffffffff167fce241d7ca1f669fee44b6fc00b8eba2df3bb514eed0f6f668f8f89096e81ed9460405160405180910390a250565b6000600160149054906101000a900460ff1615151561084257600080fd5b610870336000357fffffffff00000000000000000000000000000000000000000000000000000000166115b5565b151561087b57600080fd5b81600460006101000a81548173ffffffffffffffffffffffffffffffffffffffff021916908373ffffffffffffffffffffffffffffffffffffffff16021790555060019050919050565b6108f3828260006040518059106108d95750595b9080825280601f01601f191660200182016040525061091c565b5050565b6000600260008360001916600019168152602001908152602001600020549050919050565b6000600d6000856000191660001916815260200190815260200160002060009054906101000a900460ff16151561095257600080fd5b61095a611814565b73ffffffffffffffffffffffffffffffffffffffff163373ffffffffffffffffffffffffffffffffffffffff1614151561099357600080fd5b80600019167f81bb956107492f3a02fe41016dcffb7e279b1f695887cd1c6ca7c44e4825067f846040518080602001828103825283818151815260200191508051906020019080838360005b838110156109fa5780820151818401526020810190506109df565b50505050905090810190601f168015610a275780820380516001836020036101000a031916815260200191505b509250505060405180910390a2600c60008560001916600019168152602001908152602001600020549050610a5d836008611b2e565b60026000836000191660001916815260200190815260200160002081905550600c6000856000191660001916815260200190815260200160002060009055600d6000856000191660001916815260200190815260200160002060006101000a81549060ff021916905550505050565b600160149054906101000a900460ff1681565b610b0d336000357fffffffff00000000000000000000000000000000000000000000000000000000166115b5565b1515610b1857600080fd5b806000806101000a81548173ffffffffffffffffffffffffffffffffffffffff021916908373ffffffffffffffffffffffffffffffffffffffff1602179055506000809054906101000a900473ffffffffffffffffffffffffffffffffffffffff1673ffffffffffffffffffffffffffffffffffffffff167f1abebea81bfa2637f28358c371278fb15ede7ea8dd28d2e03b112ff6d936ada460405160405180910390a250565b6000600160149054906101000a900460ff16151515610bdd57600080fd5b610c0b336000357fffffffff00000000000000000000000000000000000000000000000000000000166115b5565b1515610c1657600080fd5b81600360006101000a81548173ffffffffffffffffffffffffffffffffffffffff021916908373ffffffffffffffffffffffffffffffffffffffff16021790555060019050919050565b600a60009054906101000a900473ffffffffffffffffffffffffffffffffffffffff1681565b6000600a60009054906101000a900473ffffffffffffffffffffffffffffffffffffffff1673ffffffffffffffffffffffffffffffffffffffff163373ffffffffffffffffffffffffffffffffffffffff16141515610ce457600080fd5b82600019167fc3ca50fb6d73fdd340fcdb7a3c0bcc7285541a7907e51f3ae0c24e0d91dabcd9836040518080602001828103825283818151815260200191508051906020019080838360005b83811015610d4b578082015181840152602081019050610d30565b50505050905090810190601f168015610d785780820380516001836020036101000a031916815260200191505b509250505060405180910390a281600b600085600019166000191681526020019081526020016000209080519060200190610db492919061302d565b506001905092915050565b610ded336000357fffffffff00000000000000000000000000000000000000000000000000000000166115b5565b1515610df857600080fd5b60008060043591506024359050806000191682600019163373ffffffffffffffffffffffffffffffffffffffff166000357fffffffff00000000000000000000000000000000000000000000000000000000167bffffffffffffffffffffffffffffffffffffffffffffffffffffffff19163460003660405180848152602001806020018281038252848482818152602001925080828437820191505094505050505060405180910390a46000600160146101000a81548160ff0219169083151502179055505050565b6000809054906101000a900473ffffffffffffffffffffffffffffffffffffffff1681565b610eef6130ad565b600082600360009054906101000a900473ffffffffffffffffffffffffffffffffffffffff1673ffffffffffffffffffffffffffffffffffffffff1663e19f86df826000604051602001526040518263ffffffff167c0100000000000000000000000000000000000000000000000000000000028152600401808260001916600019168152602001915050602060405180830381600087803b1515610f9357600080fd5b6102c65a03f11515610fa457600080fd5b505050604051805190501515610fb957600080fd5b3073ffffffffffffffffffffffffffffffffffffffff163161100f6040805190810160405280600381526020017f55524c0000000000000000000000000000000000000000000000000000000000815250611e28565b11156110ce577f2826fbf08e81b0ae41b9a02f2df5d0ab1f6b31402ffa0a040ccbe3e132b895a460405180806020018281038252604b8152602001807f4f7261636c697a6520717565727920776173204e4f542073656e742c20706c6581526020017f6173652061646420736f6d652045544820746f20636f76657220666f7220746881526020017f652071756572792066656500000000000000000000000000000000000000000081525060600191505060405180910390a1611349565b7f2826fbf08e81b0ae41b9a02f2df5d0ab1f6b31402ffa0a040ccbe3e132b895a46040518080602001828103825260358152602001807f4f7261636c697a65207175657279207761732073656e742c207374616e64696e81526020017f6720627920666f722074686520616e737765722e2e000000000000000000000081525060400191505060405180910390a16112ab606060405190810160405280602d81526020017f6a736f6e2868747470733a2f2f6170692e636f696e6d61726b65746361702e6381526020017f6f6d2f76312f7469636b65722f00000000000000000000000000000000000000815250600b600087600019166000191681526020019081526020016000208054600181600116156101000203166002900480601f01602080910402602001604051908101604052809291908181526020018280546001816001161561010002031660029004801561126b5780601f106112405761010080835404028352916020019161126b565b820191906000526020600020905b81548152906001019060200180831161124e57829003601f168201915b50505050506040805190810160405280601a81526020017f2f3f636f6e766572743d455448292e302e70726963655f6574680000000000008152506121b4565b92506112ee603c6040805190810160405280600381526020017f55524c0000000000000000000000000000000000000000000000000000000000815250856121f2565b915083600c6000846000191660001916815260200190815260200160002081600019169055506001600d6000846000191660001916815260200190815260200160002060006101000a81548160ff0219169083151502179055505b50505050565b6000600a60009054906101000a900473ffffffffffffffffffffffffffffffffffffffff1673ffffffffffffffffffffffffffffffffffffffff163373ffffffffffffffffffffffffffffffffffffffff161415156113ad57600080fd5b3373ffffffffffffffffffffffffffffffffffffffff166108fc839081150290604051600060405180830381858888f1935050505015156113ed57600080fd5b60019050919050565b600a60009054906101000a900473ffffffffffffffffffffffffffffffffffffffff1673ffffffffffffffffffffffffffffffffffffffff163373ffffffffffffffffffffffffffffffffffffffff1614151561145257600080fd5b600073ffffffffffffffffffffffffffffffffffffffff168173ffffffffffffffffffffffffffffffffffffffff161415156114ca5780600a60006101000a81548173ffffffffffffffffffffffffffffffffffffffff021916908373ffffffffffffffffffffffffffffffffffffffff1602179055505b50565b6000600460009054906101000a900473ffffffffffffffffffffffffffffffffffffffff1673ffffffffffffffffffffffffffffffffffffffff166393781ffb83600260008660001916600019168152602001908152602001600020546000604051602001526040518363ffffffff167c010000000000000000000000000000000000000000000000000000000002815260040180836000191660001916815260200182815260200192505050602060405180830381600087803b151561159357600080fd5b6102c65a03f115156115a457600080fd5b505050604051805190509050919050565b60003073ffffffffffffffffffffffffffffffffffffffff168373ffffffffffffffffffffffffffffffffffffffff1614156115f4576001905061180e565b600160009054906101000a900473ffffffffffffffffffffffffffffffffffffffff1673ffffffffffffffffffffffffffffffffffffffff168373ffffffffffffffffffffffffffffffffffffffff161415611653576001905061180e565b600073ffffffffffffffffffffffffffffffffffffffff166000809054906101000a900473ffffffffffffffffffffffffffffffffffffffff1673ffffffffffffffffffffffffffffffffffffffff1614156116b2576000905061180e565b6000809054906101000a900473ffffffffffffffffffffffffffffffffffffffff1673ffffffffffffffffffffffffffffffffffffffff1663b70096138430856000604051602001526040518463ffffffff167c0100000000000000000000000000000000000000000000000000000000028152600401808473ffffffffffffffffffffffffffffffffffffffff1673ffffffffffffffffffffffffffffffffffffffff1681526020018373ffffffffffffffffffffffffffffffffffffffff1673ffffffffffffffffffffffffffffffffffffffff168152602001827bffffffffffffffffffffffffffffffffffffffffffffffffffffffff19167bffffffffffffffffffffffffffffffffffffffffffffffffffffffff191681526020019350505050602060405180830381600087803b15156117f057600080fd5b6102c65a03f1151561180157600080fd5b5050506040518051905090505b92915050565b600080600560009054906101000a900473ffffffffffffffffffffffffffffffffffffffff1673ffffffffffffffffffffffffffffffffffffffff16148061188657506000611884600560009054906101000a900473ffffffffffffffffffffffffffffffffffffffff16612738565b145b15611897576118956000612743565b505b600560009054906101000a900473ffffffffffffffffffffffffffffffffffffffff1673ffffffffffffffffffffffffffffffffffffffff166338cc48316000604051602001526040518163ffffffff167c0100000000000000000000000000000000000000000000000000000000028152600401602060405180830381600087803b151561192557600080fd5b6102c65a03f1151561193657600080fd5b5050506040518051905073ffffffffffffffffffffffffffffffffffffffff16600660009054906101000a900473ffffffffffffffffffffffffffffffffffffffff1673ffffffffffffffffffffffffffffffffffffffff16141515611a8057600560009054906101000a900473ffffffffffffffffffffffffffffffffffffffff1673ffffffffffffffffffffffffffffffffffffffff166338cc48316000604051602001526040518163ffffffff167c0100000000000000000000000000000000000000000000000000000000028152600401602060405180830381600087803b1515611a2457600080fd5b6102c65a03f11515611a3557600080fd5b50505060405180519050600660006101000a81548173ffffffffffffffffffffffffffffffffffffffff021916908373ffffffffffffffffffffffffffffffffffffffff1602179055505b600660009054906101000a900473ffffffffffffffffffffffffffffffffffffffff1673ffffffffffffffffffffffffffffffffffffffff1663c281d19e6000604051602001526040518163ffffffff167c0100000000000000000000000000000000000000000000000000000000028152600401602060405180830381600087803b1515611b0e57600080fd5b6102c65a03f11515611b1f57600080fd5b50505060405180519050905090565b6000611b386130c1565b60008060008693506000925060009150600090505b8351811015611e095760307f0100000000000000000000000000000000000000000000000000000000000000028482815181101515611b8857fe5b9060200101517f010000000000000000000000000000000000000000000000000000000000000090047f0100000000000000000000000000000000000000000000000000000000000000027effffffffffffffffffffffffffffffffffffffffffffffffffffffffffffff191610158015611ca0575060397f0100000000000000000000000000000000000000000000000000000000000000028482815181101515611c3057fe5b9060200101517f010000000000000000000000000000000000000000000000000000000000000090047f0100000000000000000000000000000000000000000000000000000000000000027effffffffffffffffffffffffffffffffffffffffffffffffffffffffffffff191611155b15611d51578115611cc3576000861415611cb957611e09565b8580600190039650505b600a8302925060308482815181101515611cd957fe5b9060200101517f010000000000000000000000000000000000000000000000000000000000000090047f0100000000000000000000000000000000000000000000000000000000000000027f010000000000000000000000000000000000000000000000000000000000000090040383019250611dfc565b602e7f0100000000000000000000000000000000000000000000000000000000000000028482815181101515611d8357fe5b9060200101517f010000000000000000000000000000000000000000000000000000000000000090047f0100000000000000000000000000000000000000000000000000000000000000027effffffffffffffffffffffffffffffffffffffffffffffffffffffffffffff19161415611dfb57600191505b5b8080600101915050611b4d565b6000861115611e1b5785600a0a830292505b8294505050505092915050565b600080600560009054906101000a900473ffffffffffffffffffffffffffffffffffffffff1673ffffffffffffffffffffffffffffffffffffffff161480611e9a57506000611e98600560009054906101000a900473ffffffffffffffffffffffffffffffffffffffff16612738565b145b15611eab57611ea96000612743565b505b600560009054906101000a900473ffffffffffffffffffffffffffffffffffffffff1673ffffffffffffffffffffffffffffffffffffffff166338cc48316000604051602001526040518163ffffffff167c0100000000000000000000000000000000000000000000000000000000028152600401602060405180830381600087803b1515611f3957600080fd5b6102c65a03f11515611f4a57600080fd5b5050506040518051905073ffffffffffffffffffffffffffffffffffffffff16600660009054906101000a900473ffffffffffffffffffffffffffffffffffffffff1673ffffffffffffffffffffffffffffffffffffffff1614151561209457600560009054906101000a900473ffffffffffffffffffffffffffffffffffffffff1673ffffffffffffffffffffffffffffffffffffffff166338cc48316000604051602001526040518163ffffffff167c0100000000000000000000000000000000000000000000000000000000028152600401602060405180830381600087803b151561203857600080fd5b6102c65a03f1151561204957600080fd5b50505060405180519050600660006101000a81548173ffffffffffffffffffffffffffffffffffffffff021916908373ffffffffffffffffffffffffffffffffffffffff1602179055505b600660009054906101000a900473ffffffffffffffffffffffffffffffffffffffff1673ffffffffffffffffffffffffffffffffffffffff1663524f3889836000604051602001526040518263ffffffff167c01000000000000000000000000000000000000000000000000000000000281526004018080602001828103825283818151815260200191508051906020019080838360005b8381101561214757808201518184015260208101905061212c565b50505050905090810190601f1680156121745780820380516001836020036101000a031916815260200191505b5092505050602060405180830381600087803b151561219257600080fd5b6102c65a03f115156121a357600080fd5b505050604051805190509050919050565b6121bc6130ad565b6121e984848460206040519081016040528060008152506020604051908101604052806000815250612bdb565b90509392505050565b6000806000600560009054906101000a900473ffffffffffffffffffffffffffffffffffffffff1673ffffffffffffffffffffffffffffffffffffffff16148061226657506000612264600560009054906101000a900473ffffffffffffffffffffffffffffffffffffffff16612738565b145b15612277576122756000612743565b505b600560009054906101000a900473ffffffffffffffffffffffffffffffffffffffff1673ffffffffffffffffffffffffffffffffffffffff166338cc48316000604051602001526040518163ffffffff167c0100000000000000000000000000000000000000000000000000000000028152600401602060405180830381600087803b151561230557600080fd5b6102c65a03f1151561231657600080fd5b5050506040518051905073ffffffffffffffffffffffffffffffffffffffff16600660009054906101000a900473ffffffffffffffffffffffffffffffffffffffff1673ffffffffffffffffffffffffffffffffffffffff1614151561246057600560009054906101000a900473ffffffffffffffffffffffffffffffffffffffff1673ffffffffffffffffffffffffffffffffffffffff166338cc48316000604051602001526040518163ffffffff167c0100000000000000000000000000000000000000000000000000000000028152600401602060405180830381600087803b151561240457600080fd5b6102c65a03f1151561241557600080fd5b50505060405180519050600660006101000a81548173ffffffffffffffffffffffffffffffffffffffff021916908373ffffffffffffffffffffffffffffffffffffffff1602179055505b600660009054906101000a900473ffffffffffffffffffffffffffffffffffffffff1673ffffffffffffffffffffffffffffffffffffffff1663524f3889856000604051602001526040518263ffffffff167c01000000000000000000000000000000000000000000000000000000000281526004018080602001828103825283818151815260200191508051906020019080838360005b838110156125135780820151818401526020810190506124f8565b50505050905090810190601f1680156125405780820380516001836020036101000a031916815260200191505b5092505050602060405180830381600087803b151561255e57600080fd5b6102c65a03f1151561256f57600080fd5b50505060405180519050905062030d403a02670de0b6b3a76400000181111561259e5760006001029150612730565b600660009054906101000a900473ffffffffffffffffffffffffffffffffffffffff1673ffffffffffffffffffffffffffffffffffffffff1663adf59f99828787876000604051602001526040518563ffffffff167c0100000000000000000000000000000000000000000000000000000000028152600401808481526020018060200180602001838103835285818151815260200191508051906020019080838360005b8381101561265e578082015181840152602081019050612643565b50505050905090810190601f16801561268b5780820380516001836020036101000a031916815260200191505b50838103825284818151815260200191508051906020019080838360005b838110156126c45780820151818401526020810190506126a9565b50505050905090810190601f1680156126f15780820380516001836020036101000a031916815260200191505b50955050505050506020604051808303818588803b151561271157600080fd5b6125ee5a03f1151561272257600080fd5b505050506040518051905091505b509392505050565b6000813b9050919050565b600080612763731d3b2638a7cc9f2cb3d298a3da7a90b67e5506ed612738565b111561280557731d3b2638a7cc9f2cb3d298a3da7a90b67e5506ed600560006101000a81548173ffffffffffffffffffffffffffffffffffffffff021916908373ffffffffffffffffffffffffffffffffffffffff1602179055506127fc6040805190810160405280600b81526020017f6574685f6d61696e6e6574000000000000000000000000000000000000000000815250613013565b60019050612bd6565b600061282473c03a2615d5efaf5f49f60b7bb6583eaec212fdf1612738565b11156128c65773c03a2615d5efaf5f49f60b7bb6583eaec212fdf1600560006101000a81548173ffffffffffffffffffffffffffffffffffffffff021916908373ffffffffffffffffffffffffffffffffffffffff1602179055506128bd6040805190810160405280600c81526020017f6574685f726f707374656e330000000000000000000000000000000000000000815250613013565b60019050612bd6565b60006128e573b7a07bcf2ba2f2703b24c0691b5278999c59ac7e612738565b11156129875773b7a07bcf2ba2f2703b24c0691b5278999c59ac7e600560006101000a81548173ffffffffffffffffffffffffffffffffffffffff021916908373ffffffffffffffffffffffffffffffffffffffff16021790555061297e6040805190810160405280600981526020017f6574685f6b6f76616e0000000000000000000000000000000000000000000000815250613013565b60019050612bd6565b60006129a673146500cfd35b22e4a392fe0adc06de1a1368ed48612738565b1115612a485773146500cfd35b22e4a392fe0adc06de1a1368ed48600560006101000a81548173ffffffffffffffffffffffffffffffffffffffff021916908373ffffffffffffffffffffffffffffffffffffffff160217905550612a3f6040805190810160405280600b81526020017f6574685f72696e6b656279000000000000000000000000000000000000000000815250613013565b60019050612bd6565b6000612a67736f485c8bf6fc43ea212e93bbf8ce046c7f1cb475612738565b1115612acb57736f485c8bf6fc43ea212e93bbf8ce046c7f1cb475600560006101000a81548173ffffffffffffffffffffffffffffffffffffffff021916908373ffffffffffffffffffffffffffffffffffffffff16021790555060019050612bd6565b6000612aea7320e12a1f859b3feae5fb2a0a32c18f5a65555bbf612738565b1115612b4e577320e12a1f859b3feae5fb2a0a32c18f5a65555bbf600560006101000a81548173ffffffffffffffffffffffffffffffffffffffff021916908373ffffffffffffffffffffffffffffffffffffffff16021790555060019050612bd6565b6000612b6d7351efaf4c8b3c9afbd5ab9f4bbc82784ab6ef8faa612738565b1115612bd1577351efaf4c8b3c9afbd5ab9f4bbc82784ab6ef8faa600560006101000a81548173ffffffffffffffffffffffffffffffffffffffff021916908373ffffffffffffffffffffffffffffffffffffffff16021790555060019050612bd6565b600090505b919050565b612be36130ad565b612beb6130c1565b612bf36130c1565b612bfb6130c1565b612c036130c1565b612c0b6130c1565b612c136130ad565b612c1b6130c1565b6000808e98508d97508c96508b95508a94508451865188518a518c5101010101604051805910612c485750595b9080825280601f01601f1916602001820160405250935083925060009150600090505b8851811015612d1e578881815181101515612c8257fe5b9060200101517f010000000000000000000000000000000000000000000000000000000000000090047f0100000000000000000000000000000000000000000000000000000000000000028383806001019450815181101515612ce157fe5b9060200101907effffffffffffffffffffffffffffffffffffffffffffffffffffffffffffff1916908160001a9053508080600101915050612c6b565b600090505b8751811015612dd6578781815181101515612d3a57fe5b9060200101517f010000000000000000000000000000000000000000000000000000000000000090047f0100000000000000000000000000000000000000000000000000000000000000028383806001019450815181101515612d9957fe5b9060200101907effffffffffffffffffffffffffffffffffffffffffffffffffffffffffffff1916908160001a9053508080600101915050612d23565b600090505b8651811015612e8e578681815181101515612df257fe5b9060200101517f010000000000000000000000000000000000000000000000000000000000000090047f0100000000000000000000000000000000000000000000000000000000000000028383806001019450815181101515612e5157fe5b9060200101907effffffffffffffffffffffffffffffffffffffffffffffffffffffffffffff1916908160001a9053508080600101915050612ddb565b600090505b8551811015612f46578581815181101515612eaa57fe5b9060200101517f010000000000000000000000000000000000000000000000000000000000000090047f0100000000000000000000000000000000000000000000000000000000000000028383806001019450815181101515612f0957fe5b9060200101907effffffffffffffffffffffffffffffffffffffffffffffffffffffffffffff1916908160001a9053508080600101915050612e93565b600090505b8451811015612ffe578481815181101515612f6257fe5b9060200101517f010000000000000000000000000000000000000000000000000000000000000090047f0100000000000000000000000000000000000000000000000000000000000000028383806001019450815181101515612fc157fe5b9060200101907effffffffffffffffffffffffffffffffffffffffffffffffffffffffffffff1916908160001a9053508080600101915050612f4b565b82995050505050505050505095945050505050565b806007908051906020019061302992919061302d565b5050565b828054600181600116156101000203166002900490600052602060002090601f016020900481019282601f1061306e57805160ff191683800117855561309c565b8280016001018555821561309c579182015b8281111561309b578251825591602001919060010190613080565b5b5090506130a991906130d5565b5090565b602060405190810160405280600081525090565b602060405190810160405280600081525090565b6130f791905b808211156130f35760008160009055506001016130db565b5090565b90565b6000600560009054906101000a900473ffffffffffffffffffffffffffffffffffffffff1673ffffffffffffffffffffffffffffffffffffffff16148061316b57506000613169600560009054906101000a900473ffffffffffffffffffffffffffffffffffffffff16612738565b145b1561317c5761317a6000612743565b505b600560009054906101000a900473ffffffffffffffffffffffffffffffffffffffff1673ffffffffffffffffffffffffffffffffffffffff166338cc48316000604051602001526040518163ffffffff167c0100000000000000000000000000000000000000000000000000000000028152600401602060405180830381600087803b151561320a57600080fd5b6102c65a03f1151561321b57600080fd5b5050506040518051905073ffffffffffffffffffffffffffffffffffffffff16600660009054906101000a900473ffffffffffffffffffffffffffffffffffffffff1673ffffffffffffffffffffffffffffffffffffffff1614151561336557600560009054906101000a900473ffffffffffffffffffffffffffffffffffffffff1673ffffffffffffffffffffffffffffffffffffffff166338cc48316000604051602001526040518163ffffffff167c0100000000000000000000000000000000000000000000000000000000028152600401602060405180830381600087803b151561330957600080fd5b6102c65a03f1151561331a57600080fd5b50505060405180519050600660006101000a81548173ffffffffffffffffffffffffffffffffffffffff021916908373ffffffffffffffffffffffffffffffffffffffff1602179055505b600660009054906101000a900473ffffffffffffffffffffffffffffffffffffffff1673ffffffffffffffffffffffffffffffffffffffff1663ca6ad1e4826040518263ffffffff167c010000000000000000000000000000000000000000000000000000000002815260040180828152602001915050600060405180830381600087803b15156133f557600080fd5b6102c65a03f1151561340657600080fd5b505050505600a165627a7a723058207031a84700e7aa2d693b2cdedec91a8cf5b995127db540c5a92a121f436cd4700029",
  "source": "\r\n/*\r\n    Coinmarketcap-based price updater\r\n    For now, this is manual. Will be updated every ~60 seconds.\r\n*/\r\n\r\npragma solidity ^0.4.18;\r\nimport \"./oraclizeAPI.sol\";\r\nimport \"./Ownable.sol\";\r\nimport \"./PriceFeedProviderBase.sol\";\r\nimport \"./PriceFeedManager.sol\";\r\n\r\ncontract PriceFeedProviderCoinMarketCap is PriceFeedProviderBase, usingOraclize, Ownable {\r\n\r\n    mapping (bytes32 => string) tokenIds;\r\n    mapping (bytes32 => bytes32) queuedTokens;\r\n    mapping (bytes32 => bool) validQueryIds;\r\n\r\n    event LogSendingQuery(string description);\r\n    event LogPriceUpdated(bytes32 indexed _symbol, string _price);\r\n    event LogTokenIdUpdated(bytes32 indexed _symbol, string _id);\r\n\r\n    function PriceFeedProviderCoinMarketCap() {\r\n        oraclize_setCustomGasPrice(4000000000 wei);\r\n    }\r\n\r\n    function setTokenId(bytes32 _symbol, string _id) public onlyOwner returns (bool){\r\n        LogTokenIdUpdated(_symbol, _id);\r\n        tokenIds[_symbol] = _id;\r\n        return true;\r\n    }\r\n\r\n    // // an optimization in case of network congestion\r\n    // function setTokenIds(bytes32[] _symbols, bytes32[] _ids) public onlyOwner {\r\n    //     require(_symbols.length == _ids.length );\r\n    //     for(uint i = 0; i < _symbols.length; i++) {\r\n    //         // setTokenId(_symbols[i], _ids[i]);\r\n    //         tokenIds[_symbols[i]] = _ids[i];\r\n    //         // TokenIdUpdated(_symbol, _id);\r\n    //     }\r\n    // }\r\n\r\n    function __callback(bytes32 _qId, string result, bytes proof) {\r\n        require(validQueryIds[_qId]);\r\n        require(msg.sender == oraclize_cbAddress());\r\n        LogPriceUpdated(_symbol, result);\r\n        bytes32 _symbol = queuedTokens[_qId];\r\n        tokenPrices[_symbol] = parseInt(result, 8);\r\n        delete queuedTokens[_qId];\r\n        delete validQueryIds[_qId];\r\n    }\r\n\r\n    function getPrice(bytes32 _symbol) public constant returns (uint) {\r\n        return tokenPrices[_symbol];\r\n    }\r\n\r\n    function updatePrice(bytes32 _symbol) \r\n        public \r\n        isValidSymbol(_symbol)\r\n        payable \r\n    {\r\n        if (oraclize_getPrice(\"URL\") > this.balance) {\r\n            LogSendingQuery(\"Oraclize query was NOT sent, please add some ETH to cover for the query fee\");\r\n        } else {\r\n            LogSendingQuery(\"Oraclize query was sent, standing by for the answer..\");\r\n            string memory queryUrl = strConcat(\"json(https://api.coinmarketcap.com/v1/ticker/\", tokenIds[_symbol], \"/?convert=ETH).0.price_eth\");\r\n            bytes32 queryId = oraclize_query(60, \"URL\", queryUrl);\r\n            queuedTokens[queryId] = _symbol;\r\n            validQueryIds[queryId] = true;\r\n        }\r\n    }\r\n    \r\n    // @dev Payable which can be called only by the contract owner.\r\n    // @return true the contract's balance was successfully refilled\r\n    function refillBalance() public onlyOwner payable returns (bool) {\r\n        return true;\r\n    }\r\n\r\n    // @dev Payable function which can be called only by the contract owner.\r\n    // @return true the contract's balance was successfully withdrawn\r\n    function withdrawBalance(uint256 _amount) public onlyOwner  returns (bool) {\r\n        msg.sender.transfer(_amount);\r\n        return true;\r\n    }\r\n\r\n}",
  "sourcePath": "C:\\work\\programming\\ethereum\\lendroid\\protocol-demo\\contracts\\PriceFeedProviderCoinMarketCap.sol",
  "compiler": {
    "name": "solc",
    "version": "0.4.18+commit.9cf6e910.Emscripten.clang"
  },
  "schemaVersion": "1.0.1",
  "updatedAt": "2017-11-07T21:43:19.239Z"
}