{
  "contractName": "PriceFeedProviderBase",
  "abi": [
    {
      "constant": false,
      "inputs": [
        {
          "name": "_address",
          "type": "address"
        }
      ],
      "name": "stop",
      "outputs": [
        {
          "name": "",
          "type": "bool"
        }
      ],
      "payable": false,
      "stateMutability": "nonpayable",
      "type": "function"
    },
    {
      "constant": false,
      "inputs": [
        {
          "name": "owner_",
          "type": "address"
        }
      ],
      "name": "setOwner",
      "outputs": [
        {
          "name": "",
          "type": "bool"
        }
      ],
      "payable": false,
      "stateMutability": "nonpayable",
      "type": "function"
    },
    {
      "constant": false,
      "inputs": [
        {
          "name": "_address",
          "type": "address"
        }
      ],
      "name": "setLendroidPriceFeedManager",
      "outputs": [
        {
          "name": "",
          "type": "bool"
        }
      ],
      "payable": false,
      "stateMutability": "nonpayable",
      "type": "function"
    },
    {
      "constant": true,
      "inputs": [
        {
          "name": "newOwner",
          "type": "address"
        }
      ],
      "name": "stopped",
      "outputs": [
        {
          "name": "",
          "type": "bool"
        }
      ],
      "payable": false,
      "stateMutability": "view",
      "type": "function"
    },
    {
      "constant": false,
      "inputs": [
        {
          "name": "authority_",
          "type": "address"
        }
      ],
      "name": "setAuthority",
      "outputs": [
        {
          "name": "",
          "type": "bool"
        }
      ],
      "payable": false,
      "stateMutability": "nonpayable",
      "type": "function"
    },
    {
      "constant": false,
      "inputs": [
        {
          "name": "_address",
          "type": "address"
        }
      ],
      "name": "setLendroidNetworkParameters",
      "outputs": [
        {
          "name": "",
          "type": "bool"
        }
      ],
      "payable": false,
      "stateMutability": "nonpayable",
      "type": "function"
    },
    {
      "constant": true,
      "inputs": [],
      "name": "owner",
      "outputs": [
        {
          "name": "",
          "type": "address"
        }
      ],
      "payable": false,
      "stateMutability": "view",
      "type": "function"
    },
    {
      "constant": false,
      "inputs": [],
      "name": "start",
      "outputs": [],
      "payable": false,
      "stateMutability": "nonpayable",
      "type": "function"
    },
    {
      "constant": true,
      "inputs": [],
      "name": "authority",
      "outputs": [
        {
          "name": "",
          "type": "address"
        }
      ],
      "payable": false,
      "stateMutability": "view",
      "type": "function"
    },
    {
      "constant": false,
      "inputs": [
        {
          "name": "_symbol",
          "type": "bytes32"
        }
      ],
      "name": "updateLendroidPriceFeed",
      "outputs": [
        {
          "name": "",
          "type": "bool"
        }
      ],
      "payable": false,
      "stateMutability": "nonpayable",
      "type": "function"
    },
    {
      "anonymous": false,
      "inputs": [
        {
          "indexed": true,
          "name": "authority",
          "type": "address"
        }
      ],
      "name": "LogSetAuthority",
      "type": "event"
    },
    {
      "anonymous": false,
      "inputs": [
        {
          "indexed": true,
          "name": "owner",
          "type": "address"
        }
      ],
      "name": "LogSetOwner",
      "type": "event"
    },
    {
      "anonymous": true,
      "inputs": [
        {
          "indexed": true,
          "name": "sig",
          "type": "bytes4"
        },
        {
          "indexed": true,
          "name": "guy",
          "type": "address"
        },
        {
          "indexed": true,
          "name": "foo",
          "type": "bytes32"
        },
        {
          "indexed": true,
          "name": "bar",
          "type": "bytes32"
        },
        {
          "indexed": false,
          "name": "wad",
          "type": "uint256"
        },
        {
          "indexed": false,
          "name": "fax",
          "type": "bytes"
        }
      ],
      "name": "LogNote",
      "type": "event"
    }
  ],
  "bytecode": "0x606060405233600160006101000a81548173ffffffffffffffffffffffffffffffffffffffff021916908373ffffffffffffffffffffffffffffffffffffffff1602179055503373ffffffffffffffffffffffffffffffffffffffff167fce241d7ca1f669fee44b6fc00b8eba2df3bb514eed0f6f668f8f89096e81ed9460405160405180910390a2610bd7806100976000396000f3006060604052600436106100a4576000357c0100000000000000000000000000000000000000000000000000000000900463ffffffff16806307da68f5146100a957806313af4035146100be578063212e8100146100f757806375f12b21146101485780637a9e5e4b14610175578063885c43cd146101ae5780638da5cb5b146101ff578063be9a655514610254578063bf7e214f14610269578063f6d5b06f146102be575b600080fd5b34156100b457600080fd5b6100bc6102fd565b005b34156100c957600080fd5b6100f5600480803573ffffffffffffffffffffffffffffffffffffffff169060200190919050506103ff565b005b341561010257600080fd5b61012e600480803573ffffffffffffffffffffffffffffffffffffffff169060200190919050506104e1565b604051808215151515815260200191505060405180910390f35b341561015357600080fd5b61015b610582565b604051808215151515815260200191505060405180910390f35b341561018057600080fd5b6101ac600480803573ffffffffffffffffffffffffffffffffffffffff16906020019091905050610595565b005b34156101b957600080fd5b6101e5600480803573ffffffffffffffffffffffffffffffffffffffff16906020019091905050610675565b604051808215151515815260200191505060405180910390f35b341561020a57600080fd5b610212610716565b604051808273ffffffffffffffffffffffffffffffffffffffff1673ffffffffffffffffffffffffffffffffffffffff16815260200191505060405180910390f35b341561025f57600080fd5b61026761073c565b005b341561027457600080fd5b61027c61083f565b604051808273ffffffffffffffffffffffffffffffffffffffff1673ffffffffffffffffffffffffffffffffffffffff16815260200191505060405180910390f35b34156102c957600080fd5b6102e3600480803560001916906020019091905050610864565b604051808215151515815260200191505060405180910390f35b61032b336000357fffffffff000000000000000000000000000000000000000000000000000000001661094c565b151561033657600080fd5b60008060043591506024359050806000191682600019163373ffffffffffffffffffffffffffffffffffffffff166000357fffffffff00000000000000000000000000000000000000000000000000000000167bffffffffffffffffffffffffffffffffffffffffffffffffffffffff19163460003660405180848152602001806020018281038252848482818152602001925080828437820191505094505050505060405180910390a460018060146101000a81548160ff0219169083151502179055505050565b61042d336000357fffffffff000000000000000000000000000000000000000000000000000000001661094c565b151561043857600080fd5b80600160006101000a81548173ffffffffffffffffffffffffffffffffffffffff021916908373ffffffffffffffffffffffffffffffffffffffff160217905550600160009054906101000a900473ffffffffffffffffffffffffffffffffffffffff1673ffffffffffffffffffffffffffffffffffffffff167fce241d7ca1f669fee44b6fc00b8eba2df3bb514eed0f6f668f8f89096e81ed9460405160405180910390a250565b6000600160149054906101000a900460ff161515156104ff57600080fd5b61052d336000357fffffffff000000000000000000000000000000000000000000000000000000001661094c565b151561053857600080fd5b81600460006101000a81548173ffffffffffffffffffffffffffffffffffffffff021916908373ffffffffffffffffffffffffffffffffffffffff16021790555060019050919050565b600160149054906101000a900460ff1681565b6105c3336000357fffffffff000000000000000000000000000000000000000000000000000000001661094c565b15156105ce57600080fd5b806000806101000a81548173ffffffffffffffffffffffffffffffffffffffff021916908373ffffffffffffffffffffffffffffffffffffffff1602179055506000809054906101000a900473ffffffffffffffffffffffffffffffffffffffff1673ffffffffffffffffffffffffffffffffffffffff167f1abebea81bfa2637f28358c371278fb15ede7ea8dd28d2e03b112ff6d936ada460405160405180910390a250565b6000600160149054906101000a900460ff1615151561069357600080fd5b6106c1336000357fffffffff000000000000000000000000000000000000000000000000000000001661094c565b15156106cc57600080fd5b81600360006101000a81548173ffffffffffffffffffffffffffffffffffffffff021916908373ffffffffffffffffffffffffffffffffffffffff16021790555060019050919050565b600160009054906101000a900473ffffffffffffffffffffffffffffffffffffffff1681565b61076a336000357fffffffff000000000000000000000000000000000000000000000000000000001661094c565b151561077557600080fd5b60008060043591506024359050806000191682600019163373ffffffffffffffffffffffffffffffffffffffff166000357fffffffff00000000000000000000000000000000000000000000000000000000167bffffffffffffffffffffffffffffffffffffffffffffffffffffffff19163460003660405180848152602001806020018281038252848482818152602001925080828437820191505094505050505060405180910390a46000600160146101000a81548160ff0219169083151502179055505050565b6000809054906101000a900473ffffffffffffffffffffffffffffffffffffffff1681565b6000600460009054906101000a900473ffffffffffffffffffffffffffffffffffffffff1673ffffffffffffffffffffffffffffffffffffffff166393781ffb83600260008660001916600019168152602001908152602001600020546000604051602001526040518363ffffffff167c010000000000000000000000000000000000000000000000000000000002815260040180836000191660001916815260200182815260200192505050602060405180830381600087803b151561092a57600080fd5b6102c65a03f1151561093b57600080fd5b505050604051805190509050919050565b60003073ffffffffffffffffffffffffffffffffffffffff168373ffffffffffffffffffffffffffffffffffffffff16141561098b5760019050610ba5565b600160009054906101000a900473ffffffffffffffffffffffffffffffffffffffff1673ffffffffffffffffffffffffffffffffffffffff168373ffffffffffffffffffffffffffffffffffffffff1614156109ea5760019050610ba5565b600073ffffffffffffffffffffffffffffffffffffffff166000809054906101000a900473ffffffffffffffffffffffffffffffffffffffff1673ffffffffffffffffffffffffffffffffffffffff161415610a495760009050610ba5565b6000809054906101000a900473ffffffffffffffffffffffffffffffffffffffff1673ffffffffffffffffffffffffffffffffffffffff1663b70096138430856000604051602001526040518463ffffffff167c0100000000000000000000000000000000000000000000000000000000028152600401808473ffffffffffffffffffffffffffffffffffffffff1673ffffffffffffffffffffffffffffffffffffffff1681526020018373ffffffffffffffffffffffffffffffffffffffff1673ffffffffffffffffffffffffffffffffffffffff168152602001827bffffffffffffffffffffffffffffffffffffffffffffffffffffffff19167bffffffffffffffffffffffffffffffffffffffffffffffffffffffff191681526020019350505050602060405180830381600087803b1515610b8757600080fd5b6102c65a03f11515610b9857600080fd5b5050506040518051905090505b929150505600a165627a7a723058205dfbb22787c11070fb0aeccb5764db4e575f6d78c104907ec5bfbeda0a462b950029",
  "source": "\r\n/*\r\n    Coinmarketcap-based price updater\r\n    For now, this is manual. Will be updated every ~60 seconds.\r\n*/\r\n\r\npragma solidity ^0.4.18;\r\nimport \"./stop.sol\";\r\nimport \"./NetworkParameters.sol\";\r\nimport \"./PriceFeedManager.sol\";\r\n\r\n\r\ncontract PriceFeedProviderBase is DSStop {\r\n\r\n    mapping (bytes32 => uint) tokenPrices;\r\n\r\n    NetworkParameters LendroidNetworkParameters;\r\n    PriceFeedManager LendroidPriceFeedManager;\r\n\r\n    modifier isValidSymbol(bytes32 _symbol) {\r\n        require(LendroidNetworkParameters.isValidSymbol(_symbol));\r\n        _;\r\n    }\r\n\r\n    /// @dev Allows owner to set the PriceFeedManager contract.\r\n    /// @param _address Address of the PriceFeedManager contract.\r\n    function setLendroidPriceFeedManager(address _address) public\r\n        stoppable\r\n        auth\r\n        returns (bool)\r\n    {\r\n        LendroidPriceFeedManager = PriceFeedManager(_address);\r\n        return true;\r\n    }\r\n\r\n    function setLendroidNetworkParameters(address _address) public\r\n        stoppable\r\n        auth\r\n        returns (bool)\r\n    {\r\n        LendroidNetworkParameters = NetworkParameters(_address);\r\n        return true;\r\n    }\r\n\r\n    function getDecimalsBySymbol(bytes32 _symbol) internal constant returns (uint) {\r\n        return LendroidNetworkParameters.getTokenDecimalsBySymbol(_symbol);\r\n    }\r\n\r\n    function getDecimalsByAddress(address _address) internal constant returns (uint) {\r\n        return LendroidNetworkParameters.getTokenDecimalsByAddress(_address);\r\n    }\r\n\r\n    function updateLendroidPriceFeed(bytes32 _symbol) public returns (bool){\r\n        return LendroidPriceFeedManager.updatePriceFeed(_symbol, tokenPrices[_symbol]);\r\n    }\r\n\r\n}",
  "sourcePath": "C:\\work\\programming\\ethereum\\lendroid\\protocol-demo\\contracts\\PriceFeedProviderBase.sol",
  "compiler": {
    "name": "solc",
    "version": "0.4.18+commit.9cf6e910.Emscripten.clang"
  },
  "schemaVersion": "1.0.1",
  "updatedAt": "2017-11-07T21:43:19.215Z"
}