{
  "contractName": "Wallet",
  "abi": [
    {
      "constant": false,
      "inputs": [],
      "name": "stop",
      "outputs": [],
      "payable": false,
      "stateMutability": "nonpayable",
      "type": "function"
    },
    {
      "constant": false,
      "inputs": [
        {
          "name": "owner_",
          "type": "address"
        }
      ],
      "name": "setOwner",
      "outputs": [
        {
          "name": "",
          "type": "uint256"
        }
      ],
      "payable": false,
      "stateMutability": "nonpayable",
      "type": "function"
    },
    {
      "constant": false,
      "inputs": [
        {
          "name": "_borrower",
          "type": "address"
        },
        {
          "name": "_positionAmount",
          "type": "uint256"
        },
        {
          "name": "wad",
          "type": "uint256"
        }
      ],
      "name": "openPosition",
      "outputs": [
        {
          "name": "",
          "type": "bool"
        }
      ],
      "payable": false,
      "stateMutability": "nonpayable",
      "type": "function"
    },
    {
      "constant": false,
      "inputs": [
        {
          "name": "_borrower",
          "type": "address"
        },
        {
          "name": "_positionAmount",
          "type": "uint256"
        },
        {
          "name": "wad",
          "type": "uint256"
        }
      ],
      "name": "depositLendingFunds",
      "outputs": [
        {
          "name": "",
          "type": "bool"
        },
        {
          "name": "",
          "type": "uint256"
        }
      ],
      "payable": true,
      "stateMutability": "payable",
      "type": "function"
    },
    {
      "constant": false,
      "inputs": [
        {
          "name": "token",
          "type": "address"
        },
        {
          "name": "dst",
          "type": "address"
        },
        {
          "name": "wad",
          "type": "uint256"
        }
      ],
      "name": "push",
      "outputs": [
        {
          "name": "",
          "type": "bool"
        }
      ],
      "payable": false,
      "stateMutability": "nonpayable",
      "type": "function"
    },
    {
      "constant": false,
      "inputs": [
        {
          "name": "_borrower",
          "type": "address"
        },
        {
          "name": "_loanTokenAmount",
          "type": "uint256"
        },
        {
          "name": "wad",
          "type": "uint256"
        }
      ],
      "name": "encumberCollateral",
      "outputs": [
        {
          "name": "",
          "type": "bool"
        }
      ],
      "payable": false,
      "stateMutability": "nonpayable",
      "type": "function"
    },
    {
      "constant": true,
      "inputs": [
        {
          "name": "_address",
          "type": "address"
        },
        {
          "name": "wad",
          "type": "uint256"
        },
        {
          "name": "_loanTokenAmount",
          "type": "uint256"
        },
        {
          "name": "_collateralTokenAmount",
          "type": "uint256"
        },
        {
          "name": "_repayAmount",
          "type": "uint256"
        },
        {
          "name": "_lender",
          "type": "address"
        },
        {
          "name": "_borrower",
          "type": "address"
        },
        {
          "name": "_loanHash",
          "type": "bytes32"
        }
      ],
      "name": "getFundingBalance",
      "outputs": [
        {
          "name": "",
          "type": "uint256"
        }
      ],
      "payable": false,
      "stateMutability": "view",
      "type": "function"
    },
    {
      "constant": false,
      "inputs": [
        {
          "name": "token",
          "type": "address"
        },
        {
          "name": "wad",
          "type": "uint256"
        },
        {
          "name": "_loanTokenAmountPaid",
          "type": "uint256"
        }
      ],
      "name": "mint",
      "outputs": [
        {
          "name": "",
          "type": "bool"
        }
      ],
      "payable": false,
      "stateMutability": "nonpayable",
      "type": "function"
    },
    {
      "constant": true,
      "inputs": [
        {
          "name": "_address",
          "type": "address"
        },
        {
          "name": "src",
          "type": "address"
        },
        {
          "name": "wad",
          "type": "uint256"
        }
      ],
      "name": "getCurrentMargin",
      "outputs": [
        {
          "name": "",
          "type": "uint256"
        }
      ],
      "payable": false,
      "stateMutability": "view",
      "type": "function"
    },
    {
      "constant": true,
      "inputs": [
        {
          "name": "_address",
          "type": "address"
        },
        {
          "name": "wad",
          "type": "uint256"
        },
        {
          "name": "_loanTokenAmountPaid",
          "type": "uint256"
        }
      ],
      "name": "getMaximumWithdrawableAmount",
      "outputs": [
        {
          "name": "",
          "type": "uint256"
        }
      ],
      "payable": false,
      "stateMutability": "view",
      "type": "function"
    },
    {
      "constant": false,
      "inputs": [
        {
          "name": "_borrower",
          "type": "address"
        },
        {
          "name": "_loanTokenAmount",
          "type": "uint256"
        },
        {
          "name": "_loanTokenAmountPaid",
          "type": "uint256"
        }
      ],
      "name": "unEncumberCollateral",
      "outputs": [
        {
          "name": "",
          "type": "bool"
        }
      ],
      "payable": false,
      "stateMutability": "nonpayable",
      "type": "function"
    },
    {
      "constant": false,
      "inputs": [
        {
          "name": "_amount",
          "type": "uint256"
        },
        {
          "name": "_loanTokenAmount",
          "type": "uint256"
        },
        {
          "name": "_loanTokenAmountPaid",
          "type": "uint256"
        }
      ],
      "name": "withdrawCollateral",
      "outputs": [
        {
          "name": "",
          "type": "bool"
        }
      ],
      "payable": false,
      "stateMutability": "nonpayable",
      "type": "function"
    },
    {
      "constant": false,
      "inputs": [
        {
          "name": "token",
          "type": "address"
        },
        {
          "name": "src",
          "type": "address"
        }
      ],
      "name": "pull",
      "outputs": [
        {
          "name": "",
          "type": "bool"
        }
      ],
      "payable": false,
      "stateMutability": "nonpayable",
      "type": "function"
    },
    {
      "constant": false,
      "inputs": [
        {
          "name": "token",
          "type": "address"
        },
        {
          "name": "src",
          "type": "address"
        },
        {
          "name": "wad",
          "type": "uint256"
        }
      ],
      "name": "depositCollateral",
      "outputs": [
        {
          "name": "",
          "type": "bool"
        }
      ],
      "payable": true,
      "stateMutability": "payable",
      "type": "function"
    },
    {
      "constant": false,
      "inputs": [
        {
          "name": "token",
          "type": "address"
        },
        {
          "name": "src",
          "type": "address"
        },
        {
          "name": "wad",
          "type": "uint256"
        }
      ],
      "name": "pull",
      "outputs": [
        {
          "name": "",
          "type": "bool"
        }
      ],
      "payable": false,
      "stateMutability": "nonpayable",
      "type": "function"
    },
    {
      "constant": false,
      "inputs": [
        {
          "name": "_borrower",
          "type": "address"
        },
        {
          "name": "_positionAmount",
          "type": "uint256"
        },
        {
          "name": "wad",
          "type": "uint256"
        }
      ],
      "name": "closePosition",
      "outputs": [
        {
          "name": "",
          "type": "bool"
        }
      ],
      "payable": false,
      "stateMutability": "nonpayable",
      "type": "function"
    },
    {
      "constant": true,
      "inputs": [
        {
          "name": "_borrower",
          "type": "address"
        },
        {
          "name": "_positionAmount",
          "type": "uint256"
        }
      ],
      "name": "stopped",
      "outputs": [
        {
          "name": "",
          "type": "bool"
        }
      ],
      "payable": false,
      "stateMutability": "view",
      "type": "function"
    },
    {
      "constant": false,
      "inputs": [
        {
          "name": "authority_",
          "type": "address"
        },
        {
          "name": "wad",
          "type": "uint256"
        }
      ],
      "name": "setAuthority",
      "outputs": [
        {
          "name": "",
          "type": "bool"
        }
      ],
      "payable": false,
      "stateMutability": "nonpayable",
      "type": "function"
    },
    {
      "constant": false,
      "inputs": [
        {
          "name": "_address",
          "type": "address"
        }
      ],
      "name": "setLendroidNetworkParameters",
      "outputs": [
        {
          "name": "",
          "type": "bool"
        }
      ],
      "payable": false,
      "stateMutability": "nonpayable",
      "type": "function"
    },
    {
      "constant": false,
      "inputs": [
        {
          "name": "token",
          "type": "address"
        },
        {
          "name": "wad",
          "type": "uint256"
        },
        {
          "name": "wad",
          "type": "uint256"
        }
      ],
      "name": "burn",
      "outputs": [
        {
          "name": "",
          "type": "bool"
        }
      ],
      "payable": false,
      "stateMutability": "nonpayable",
      "type": "function"
    },
    {
      "constant": true,
      "inputs": [
        {
          "name": "token",
          "type": "address"
        },
        {
          "name": "_address",
          "type": "address"
        }
      ],
      "name": "owner",
      "outputs": [
        {
          "name": "",
          "type": "address"
        }
      ],
      "payable": false,
      "stateMutability": "view",
      "type": "function"
    },
    {
      "constant": true,
      "inputs": [
        {
          "name": "_address",
          "type": "address"
        },
        {
          "name": "dst",
          "type": "address"
        }
      ],
      "name": "getMaximumPositionOpenableAmount",
      "outputs": [
        {
          "name": "",
          "type": "uint256"
        }
      ],
      "payable": false,
      "stateMutability": "view",
      "type": "function"
    },
    {
      "constant": true,
      "inputs": [
        {
          "name": "_address",
          "type": "address"
        },
        {
          "name": "guy",
          "type": "address"
        },
        {
          "name": "wad",
          "type": "uint256"
        },
        {
          "name": "_toAccountType",
          "type": "uint8"
        }
      ],
      "name": "getTotalOpenPositionsValue",
      "outputs": [
        {
          "name": "",
          "type": "uint256"
        }
      ],
      "payable": false,
      "stateMutability": "view",
      "type": "function"
    },
    {
      "constant": true,
      "inputs": [
        {
          "name": "_address",
          "type": "address"
        },
        {
          "name": "wad",
          "type": "uint256"
        },
        {
          "name": "wad",
          "type": "uint256"
        }
      ],
      "name": "getMarginValue",
      "outputs": [
        {
          "name": "",
          "type": "uint256"
        }
      ],
      "payable": false,
      "stateMutability": "view",
      "type": "function"
    },
    {
      "constant": false,
      "inputs": [
        {
          "name": "token",
          "type": "address"
        },
        {
          "name": "wad",
          "type": "uint256"
        },
        {
          "name": "wad",
          "type": "uint256"
        }
      ],
      "name": "burn",
      "outputs": [
        {
          "name": "",
          "type": "uint256"
        }
      ],
      "payable": false,
      "stateMutability": "nonpayable",
      "type": "function"
    },
    {
      "anonymous": false,
      "inputs": [
        {
          "indexed": true,
          "name": "_address",
          "type": "address"
        },
        {
          "name": "dst",
          "type": "address"
        }
      ],
      "name": "getTotalBorrowedValue",
      "type": "function",
      "constant": true,
      "outputs": [
        {
          "name": "",
          "type": "uint256"
        }
      ],
      "payable": false,
      "stateMutability": "view"
    },
    {
      "anonymous": false,
      "inputs": [
        {
          "indexed": true,
          "name": "_address",
          "type": "address"
        },
        {
          "name": "guy",
          "type": "address"
        },
        {
          "name": "wad",
          "type": "uint256"
        }
      ],
      "name": "getNetValue",
      "type": "function",
      "constant": true,
      "outputs": [
        {
          "name": "",
          "type": "uint256"
        }
      ],
      "payable": false,
      "stateMutability": "view"
    },
    {
      "anonymous": true,
      "inputs": [
        {
          "indexed": true,
          "name": "_address",
          "type": "address"
        },
        {
          "indexed": true,
          "name": "dst",
          "type": "address"
        },
        {
          "indexed": true,
          "name": "foo",
          "type": "bytes32"
        },
        {
          "indexed": true,
          "name": "bar",
          "type": "bytes32"
        },
        {
          "indexed": false,
          "name": "wad",
          "type": "uint256"
        },
        {
          "indexed": false,
          "name": "fax",
          "type": "bytes"
        }
      ],
      "name": "getMaximumBorrowableAmount",
      "type": "function",
      "payable": false,
      "stateMutability": "view",
      "constant": true,
      "outputs": [
        {
          "name": "",
          "type": "uint256"
        }
      ]
    },
    {
      "anonymous": false,
      "inputs": [
        {
          "indexed": true,
          "name": "token",
          "type": "address"
        },
        {
          "name": "dst",
          "type": "address"
        }
      ],
      "name": "push",
      "type": "function",
      "constant": false,
      "outputs": [
        {
          "name": "",
          "type": "address"
        }
      ],
      "payable": false,
      "stateMutability": "nonpayable"
    },
    {
      "anonymous": false,
      "inputs": [
        {
          "indexed": true,
          "name": "token",
          "type": "address"
        },
        {
          "name": "guy",
          "type": "address"
        },
        {
          "name": "wad",
          "type": "uint256"
        }
      ],
      "name": "start",
      "type": "function",
      "constant": false,
      "outputs": [
        {
          "name": "",
          "type": "address"
        }
      ],
      "payable": false,
      "stateMutability": "nonpayable"
    },
    {
      "anonymous": true,
      "inputs": [
        {
          "indexed": true,
          "name": "token",
          "type": "address"
        },
        {
          "indexed": true,
          "name": "guy",
          "type": "address"
        },
        {
          "indexed": true,
          "name": "wad",
          "type": "uint256"
        },
        {
          "indexed": true,
          "name": "bar",
          "type": "bytes32"
        },
        {
          "indexed": false,
          "name": "wad",
          "type": "uint256"
        },
        {
          "indexed": false,
          "name": "fax",
          "type": "bytes"
        }
      ],
      "name": "authority",
      "type": "function",
      "constant": true,
      "outputs": [
        {
          "name": "",
          "type": "address"
        }
      ],
      "payable": false,
      "stateMutability": "view"
    },
    {
      "payable": false,
      "stateMutability": "nonpayable",
      "type": "function",
      "constant": false,
      "inputs": [
        {
          "name": "token",
          "type": "address"
        },
        {
          "name": "guy",
          "type": "address"
        },
        {
          "name": "wad",
          "type": "uint256"
        }
      ],
      "name": "mint",
      "outputs": [
        {
          "name": "",
          "type": "bool"
        }
      ]
    },
    {
      "anonymous": false,
      "inputs": [
        {
          "indexed": true,
          "name": "_address",
          "type": "address"
        },
        {
          "name": "guy",
          "type": "address"
        },
        {
          "name": "wad",
          "type": "uint256"
        }
      ],
      "name": "setLendroidPositionManager",
      "type": "function",
      "constant": false,
      "outputs": [
        {
          "name": "",
          "type": "bool"
        }
      ],
      "payable": false,
      "stateMutability": "nonpayable"
    },
    {
      "anonymous": false,
      "inputs": [
        {
          "indexed": true,
          "name": "_address",
          "type": "address"
        }
      ],
      "name": "isMarginAccountHealthy",
      "type": "function",
      "payable": false,
      "stateMutability": "view",
      "constant": true,
      "outputs": [
        {
          "name": "",
          "type": "bool"
        }
      ]
    },
    {
      "anonymous": false,
      "inputs": [
        {
          "indexed": true,
          "name": "_address",
          "type": "address"
        },
        {
          "indexed": true,
          "name": "guy",
          "type": "address"
        },
        {
          "indexed": true,
          "name": "wad",
          "type": "uint256"
        },
        {
          "indexed": true,
          "name": "bar",
          "type": "bytes32"
        },
        {
          "indexed": false,
          "name": "wad",
          "type": "uint256"
        },
        {
          "indexed": false,
          "name": "fax",
          "type": "bytes"
        }
      ],
      "name": "setLendroidLoanManager",
      "type": "function",
      "constant": false,
      "outputs": [
        {
          "name": "",
          "type": "bool"
        }
      ],
      "payable": false,
      "stateMutability": "nonpayable"
    },
    {
      "anonymous": false,
      "inputs": [
        {
          "indexed": true,
          "name": "token",
          "type": "address"
        },
        {
          "name": "guy",
          "type": "address"
        },
        {
          "name": "wad",
          "type": "uint256"
        }
      ],
      "name": "burn",
      "type": "function",
      "payable": false,
      "stateMutability": "nonpayable",
      "constant": false,
      "outputs": []
    },
    {
      "anonymous": false,
      "inputs": [
        {
          "indexed": true,
          "name": "authority",
          "type": "address"
        },
        {
          "indexed": true,
          "name": "guy",
          "type": "address"
        },
        {
          "indexed": true,
          "name": "foo",
          "type": "bytes32"
        },
        {
          "indexed": true,
          "name": "bar",
          "type": "bytes32"
        },
        {
          "indexed": false,
          "name": "wad",
          "type": "uint256"
        },
        {
          "indexed": false,
          "name": "fax",
          "type": "bytes"
        }
      ],
      "name": "LogSetAuthority",
      "type": "fallback",
      "payable": false,
      "stateMutability": "nonpayable"
    },
    {
      "anonymous": false,
      "inputs": [
        {
          "indexed": true,
          "name": "authority",
          "type": "address"
        }
      ],
      "name": "LogSetAuthority",
      "type": "event"
    },
    {
      "anonymous": false,
      "inputs": [
        {
          "indexed": true,
          "name": "owner",
          "type": "address"
        },
        {
          "indexed": true,
          "name": "guy",
          "type": "address"
        },
        {
          "indexed": true,
          "name": "foo",
          "type": "bytes32"
        },
        {
          "indexed": true,
          "name": "bar",
          "type": "bytes32"
        },
        {
          "indexed": false,
          "name": "wad",
          "type": "uint256"
        },
        {
          "indexed": false,
          "name": "fax",
          "type": "bytes"
        }
      ],
      "name": "LogSetOwner",
      "type": "event"
    },
    {
      "anonymous": true,
      "inputs": [
        {
          "indexed": true,
          "name": "sig",
          "type": "bytes4"
        },
        {
          "indexed": true,
          "name": "guy",
          "type": "address"
        },
        {
          "indexed": true,
          "name": "foo",
          "type": "bytes32"
        },
        {
          "indexed": true,
          "name": "bar",
          "type": "bytes32"
        },
        {
          "indexed": false,
          "name": "wad",
          "type": "uint256"
        },
        {
          "indexed": false,
          "name": "fax",
          "type": "bytes"
        }
      ],
      "name": "LogNote",
      "type": "event"
    }
  ],
  "bytecode": "0x606060405233600160006101000a81548173ffffffffffffffffffffffffffffffffffffffff021916908373ffffffffffffffffffffffffffffffffffffffff1602179055503373ffffffffffffffffffffffffffffffffffffffff167fce241d7ca1f669fee44b6fc00b8eba2df3bb514eed0f6f668f8f89096e81ed9460405160405180910390a2612f2b806100976000396000f3006060604052600436106101c2576000357c0100000000000000000000000000000000000000000000000000000000900463ffffffff16806307da68f5146101d257806313af4035146101e7578063197897fc146102205780631f9f01ca1461027a57806326e8eda21461029c5780633c40b308146102fd5780633fdd7ab51461035757806340c10f191461038057806341204d88146103c25780635792d30a1461040f5780635ac6d8ab1461045c5780636112fe2e146104bf57806366b3bcb0146104fa5780636f758140146105525780637372c2b514610574578063742fe1f8146105d557806375f12b211461062f5780637a9e5e4b1461065c578063885c43cd1461069557806389afcb44146106e65780638da5cb5b1461071f57806390fde00514610774578063968b8917146107c157806396d3a3aa1461080e5780639dc29fac1461085b578063a2b35d9d1461089d578063a9fba73a146108ea578063b11b97f514610937578063b716ba6714610984578063be9a6555146109dc578063bf7e214f146109f1578063c6c3bbe614610a46578063d05e07e614610aa7578063d9fd46ba14610af8578063e058a6d014610b49578063f6b911bc14610b9a575b34156101cd57600080fd5b600080fd5b34156101dd57600080fd5b6101e5610bfb565b005b34156101f257600080fd5b61021e600480803573ffffffffffffffffffffffffffffffffffffffff16906020019091905050610cfd565b005b341561022b57600080fd5b610260600480803573ffffffffffffffffffffffffffffffffffffffff16906020019091908035906020019091905050610ddf565b604051808215151515815260200191505060405180910390f35b610282610f85565b604051808215151515815260200191505060405180910390f35b34156102a757600080fd5b6102fb600480803573ffffffffffffffffffffffffffffffffffffffff1690602001909190803573ffffffffffffffffffffffffffffffffffffffff1690602001909190803590602001909190505061106f565b005b341561030857600080fd5b61033d600480803573ffffffffffffffffffffffffffffffffffffffff1690602001909190803590602001909190505061117b565b604051808215151515815260200191505060405180910390f35b341561036257600080fd5b61036a611365565b6040518082815260200191505060405180910390f35b341561038b57600080fd5b6103c0600480803573ffffffffffffffffffffffffffffffffffffffff169060200190919080359060200190919050506113c8565b005b34156103cd57600080fd5b6103f9600480803573ffffffffffffffffffffffffffffffffffffffff16906020019091905050611487565b6040518082815260200191505060405180910390f35b341561041a57600080fd5b610446600480803573ffffffffffffffffffffffffffffffffffffffff169060200190919050506114e1565b6040518082815260200191505060405180910390f35b341561046757600080fd5b6104a5600480803573ffffffffffffffffffffffffffffffffffffffff1690602001909190803590602001909190803590602001909190505061161b565b604051808215151515815260200191505060405180910390f35b34156104ca57600080fd5b6104e06004808035906020019091905050611806565b604051808215151515815260200191505060405180910390f35b341561050557600080fd5b610550600480803573ffffffffffffffffffffffffffffffffffffffff1690602001909190803573ffffffffffffffffffffffffffffffffffffffff1690602001909190505061191c565b005b61055a6119e8565b604051808215151515815260200191505060405180910390f35b341561057f57600080fd5b6105d3600480803573ffffffffffffffffffffffffffffffffffffffff1690602001909190803573ffffffffffffffffffffffffffffffffffffffff16906020019091908035906020019091905050611a99565b005b34156105e057600080fd5b610615600480803573ffffffffffffffffffffffffffffffffffffffff16906020019091908035906020019091905050611bd9565b604051808215151515815260200191505060405180910390f35b341561063a57600080fd5b610642611ce9565b604051808215151515815260200191505060405180910390f35b341561066757600080fd5b610693600480803573ffffffffffffffffffffffffffffffffffffffff16906020019091905050611cfc565b005b34156106a057600080fd5b6106cc600480803573ffffffffffffffffffffffffffffffffffffffff16906020019091905050611ddc565b604051808215151515815260200191505060405180910390f35b34156106f157600080fd5b61071d600480803573ffffffffffffffffffffffffffffffffffffffff16906020019091905050611e7d565b005b341561072a57600080fd5b610732611ff8565b604051808273ffffffffffffffffffffffffffffffffffffffff1673ffffffffffffffffffffffffffffffffffffffff16815260200191505060405180910390f35b341561077f57600080fd5b6107ab600480803573ffffffffffffffffffffffffffffffffffffffff1690602001909190505061201e565b6040518082815260200191505060405180910390f35b34156107cc57600080fd5b6107f8600480803573ffffffffffffffffffffffffffffffffffffffff169060200190919050506120cb565b6040518082815260200191505060405180910390f35b341561081957600080fd5b610845600480803573ffffffffffffffffffffffffffffffffffffffff16906020019091905050612130565b6040518082815260200191505060405180910390f35b341561086657600080fd5b61089b600480803573ffffffffffffffffffffffffffffffffffffffff16906020019091908035906020019091905050612195565b005b34156108a857600080fd5b6108d4600480803573ffffffffffffffffffffffffffffffffffffffff16906020019091905050612254565b6040518082815260200191505060405180910390f35b34156108f557600080fd5b610921600480803573ffffffffffffffffffffffffffffffffffffffff169060200190919050506122b9565b6040518082815260200191505060405180910390f35b341561094257600080fd5b61096e600480803573ffffffffffffffffffffffffffffffffffffffff169060200190919050506124c8565b6040518082815260200191505060405180910390f35b341561098f57600080fd5b6109da600480803573ffffffffffffffffffffffffffffffffffffffff1690602001909190803573ffffffffffffffffffffffffffffffffffffffff169060200190919050506125b8565b005b34156109e757600080fd5b6109ef612684565b005b34156109fc57600080fd5b610a04612787565b604051808273ffffffffffffffffffffffffffffffffffffffff1673ffffffffffffffffffffffffffffffffffffffff16815260200191505060405180910390f35b3415610a5157600080fd5b610aa5600480803573ffffffffffffffffffffffffffffffffffffffff1690602001909190803573ffffffffffffffffffffffffffffffffffffffff169060200190919080359060200190919050506127ac565b005b3415610ab257600080fd5b610ade600480803573ffffffffffffffffffffffffffffffffffffffff169060200190919050506128a0565b604051808215151515815260200191505060405180910390f35b3415610b0357600080fd5b610b2f600480803573ffffffffffffffffffffffffffffffffffffffff16906020019091905050612941565b604051808215151515815260200191505060405180910390f35b3415610b5457600080fd5b610b80600480803573ffffffffffffffffffffffffffffffffffffffff16906020019091905050612a23565b604051808215151515815260200191505060405180910390f35b3415610ba557600080fd5b610bf9600480803573ffffffffffffffffffffffffffffffffffffffff1690602001909190803573ffffffffffffffffffffffffffffffffffffffff16906020019091908035906020019091905050612ac4565b005b610c29336000357fffffffff0000000000000000000000000000000000000000000000000000000016612bb8565b1515610c3457600080fd5b60008060043591506024359050806000191682600019163373ffffffffffffffffffffffffffffffffffffffff166000357fffffffff00000000000000000000000000000000000000000000000000000000167bffffffffffffffffffffffffffffffffffffffffffffffffffffffff19163460003660405180848152602001806020018281038252848482818152602001925080828437820191505094505050505060405180910390a460018060146101000a81548160ff0219169083151502179055505050565b610d2b336000357fffffffff0000000000000000000000000000000000000000000000000000000016612bb8565b1515610d3657600080fd5b80600160006101000a81548173ffffffffffffffffffffffffffffffffffffffff021916908373ffffffffffffffffffffffffffffffffffffffff160217905550600160009054906101000a900473ffffffffffffffffffffffffffffffffffffffff1673ffffffffffffffffffffffffffffffffffffffff167fce241d7ca1f669fee44b6fc00b8eba2df3bb514eed0f6f668f8f89096e81ed9460405160405180910390a250565b6000600160149054906101000a900460ff16151515610dfd57600080fd5b600460009054906101000a900473ffffffffffffffffffffffffffffffffffffffff1673ffffffffffffffffffffffffffffffffffffffff163373ffffffffffffffffffffffffffffffffffffffff16141515610e5957600080fd5b81610ee2600760008673ffffffffffffffffffffffffffffffffffffffff1673ffffffffffffffffffffffffffffffffffffffff16815260200190815260200160002054600860008773ffffffffffffffffffffffffffffffffffffffff1673ffffffffffffffffffffffffffffffffffffffff16815260200190815260200160002054612e17565b10151515610eef57600080fd5b610f38600860008573ffffffffffffffffffffffffffffffffffffffff1673ffffffffffffffffffffffffffffffffffffffff1681526020019081526020016000205483612e33565b600860008573ffffffffffffffffffffffffffffffffffffffff1673ffffffffffffffffffffffffffffffffffffffff168152602001908152602001600020819055506001905092915050565b6000600160149054906101000a900460ff16151515610fa357600080fd5b610fd1336000357fffffffff0000000000000000000000000000000000000000000000000000000016612bb8565b1515610fdc57600080fd5b611025600560003073ffffffffffffffffffffffffffffffffffffffff1673ffffffffffffffffffffffffffffffffffffffff1681526020019081526020016000205434612e33565b600560003073ffffffffffffffffffffffffffffffffffffffff1673ffffffffffffffffffffffffffffffffffffffff168152602001908152602001600020819055506001905090565b61109d336000357fffffffff0000000000000000000000000000000000000000000000000000000016612bb8565b15156110a857600080fd5b8273ffffffffffffffffffffffffffffffffffffffff1663a9059cbb83836000604051602001526040518363ffffffff167c0100000000000000000000000000000000000000000000000000000000028152600401808373ffffffffffffffffffffffffffffffffffffffff1673ffffffffffffffffffffffffffffffffffffffff16815260200182815260200192505050602060405180830381600087803b151561115357600080fd5b6102c65a03f1151561116457600080fd5b50505060405180519050151561117657fe5b505050565b6000600160149054906101000a900460ff1615151561119957600080fd5b600360009054906101000a900473ffffffffffffffffffffffffffffffffffffffff1673ffffffffffffffffffffffffffffffffffffffff163373ffffffffffffffffffffffffffffffffffffffff161415156111f557600080fd5b81600560003073ffffffffffffffffffffffffffffffffffffffff1673ffffffffffffffffffffffffffffffffffffffff168152602001908152602001600020541015151561124357600080fd5b61128c600560003073ffffffffffffffffffffffffffffffffffffffff1673ffffffffffffffffffffffffffffffffffffffff1681526020019081526020016000205483612e17565b600560003073ffffffffffffffffffffffffffffffffffffffff1673ffffffffffffffffffffffffffffffffffffffff16815260200190815260200160002081905550611318600760008573ffffffffffffffffffffffffffffffffffffffff1673ffffffffffffffffffffffffffffffffffffffff1681526020019081526020016000205483612e33565b600760008573ffffffffffffffffffffffffffffffffffffffff1673ffffffffffffffffffffffffffffffffffffffff168152602001908152602001600020819055506001905092915050565b6000600160149054906101000a900460ff1615151561138357600080fd5b600560003073ffffffffffffffffffffffffffffffffffffffff1673ffffffffffffffffffffffffffffffffffffffff16815260200190815260200160002054905090565b6113f6336000357fffffffff0000000000000000000000000000000000000000000000000000000016612bb8565b151561140157600080fd5b8173ffffffffffffffffffffffffffffffffffffffff1663a0712d68826040518263ffffffff167c010000000000000000000000000000000000000000000000000000000002815260040180828152602001915050600060405180830381600087803b151561146f57600080fd5b6102c65a03f1151561148057600080fd5b5050505050565b6000600160149054906101000a900460ff161515156114a557600080fd5b60006114b083612254565b14156114bf57600090506114dc565b6114d96114cb836122b9565b6114d484612254565b612e4f565b90505b919050565b600080600160149054906101000a900460ff1615151561150057600080fd5b600061150b84612254565b14156115215761151a836122b9565b9150611615565b6115d4600260009054906101000a900473ffffffffffffffffffffffffffffffffffffffff1673ffffffffffffffffffffffffffffffffffffffff16631029e85b6000604051602001526040518163ffffffff167c0100000000000000000000000000000000000000000000000000000000028152600401602060405180830381600087803b15156115b257600080fd5b6102c65a03f115156115c357600080fd5b505050604051805190506064612e4f565b9050806115e084611487565b1115611610576116096115f2846122b9565b6116046115fe86612254565b84612e8b565b612e17565b9150611615565b600091505b50919050565b6000600160149054906101000a900460ff1615151561163957600080fd5b600360009054906101000a900473ffffffffffffffffffffffffffffffffffffffff1673ffffffffffffffffffffffffffffffffffffffff163373ffffffffffffffffffffffffffffffffffffffff1614151561169557600080fd5b82600760008673ffffffffffffffffffffffffffffffffffffffff1673ffffffffffffffffffffffffffffffffffffffff16815260200190815260200160002054101515156116e357600080fd5b61172c600760008673ffffffffffffffffffffffffffffffffffffffff1673ffffffffffffffffffffffffffffffffffffffff1681526020019081526020016000205484612e17565b600760008673ffffffffffffffffffffffffffffffffffffffff1673ffffffffffffffffffffffffffffffffffffffff168152602001908152602001600020819055506117b8600560003073ffffffffffffffffffffffffffffffffffffffff1673ffffffffffffffffffffffffffffffffffffffff1681526020019081526020016000205483612e33565b600560003073ffffffffffffffffffffffffffffffffffffffff1673ffffffffffffffffffffffffffffffffffffffff16815260200190815260200160002081905550600190509392505050565b6000600160149054906101000a900460ff1615151561182457600080fd5b60008211801561183c5750611838336114e1565b8211155b151561184757600080fd5b611890600660003373ffffffffffffffffffffffffffffffffffffffff1673ffffffffffffffffffffffffffffffffffffffff1681526020019081526020016000205483612e17565b600660003373ffffffffffffffffffffffffffffffffffffffff1673ffffffffffffffffffffffffffffffffffffffff168152602001908152602001600020819055503373ffffffffffffffffffffffffffffffffffffffff166108fc839081150290604051600060405180830381858888f19350505050151561191357600080fd5b60019050919050565b6119e482828473ffffffffffffffffffffffffffffffffffffffff166370a08231856000604051602001526040518263ffffffff167c0100000000000000000000000000000000000000000000000000000000028152600401808273ffffffffffffffffffffffffffffffffffffffff1673ffffffffffffffffffffffffffffffffffffffff168152602001915050602060405180830381600087803b15156119c457600080fd5b6102c65a03f115156119d557600080fd5b50505060405180519050611a99565b5050565b6000600160149054906101000a900460ff16151515611a0657600080fd5b611a4f600660003373ffffffffffffffffffffffffffffffffffffffff1673ffffffffffffffffffffffffffffffffffffffff1681526020019081526020016000205434612e33565b600660003373ffffffffffffffffffffffffffffffffffffffff1673ffffffffffffffffffffffffffffffffffffffff168152602001908152602001600020819055506001905090565b611ac7336000357fffffffff0000000000000000000000000000000000000000000000000000000016612bb8565b1515611ad257600080fd5b8273ffffffffffffffffffffffffffffffffffffffff166323b872dd8330846000604051602001526040518463ffffffff167c0100000000000000000000000000000000000000000000000000000000028152600401808473ffffffffffffffffffffffffffffffffffffffff1673ffffffffffffffffffffffffffffffffffffffff1681526020018373ffffffffffffffffffffffffffffffffffffffff1673ffffffffffffffffffffffffffffffffffffffff1681526020018281526020019350505050602060405180830381600087803b1515611bb157600080fd5b6102c65a03f11515611bc257600080fd5b505050604051805190501515611bd457fe5b505050565b6000600160149054906101000a900460ff16151515611bf757600080fd5b600460009054906101000a900473ffffffffffffffffffffffffffffffffffffffff1673ffffffffffffffffffffffffffffffffffffffff163373ffffffffffffffffffffffffffffffffffffffff16141515611c5357600080fd5b611c9c600860008573ffffffffffffffffffffffffffffffffffffffff1673ffffffffffffffffffffffffffffffffffffffff1681526020019081526020016000205483612e17565b600860008573ffffffffffffffffffffffffffffffffffffffff1673ffffffffffffffffffffffffffffffffffffffff168152602001908152602001600020819055506001905092915050565b600160149054906101000a900460ff1681565b611d2a336000357fffffffff0000000000000000000000000000000000000000000000000000000016612bb8565b1515611d3557600080fd5b806000806101000a81548173ffffffffffffffffffffffffffffffffffffffff021916908373ffffffffffffffffffffffffffffffffffffffff1602179055506000809054906101000a900473ffffffffffffffffffffffffffffffffffffffff1673ffffffffffffffffffffffffffffffffffffffff167f1abebea81bfa2637f28358c371278fb15ede7ea8dd28d2e03b112ff6d936ada460405160405180910390a250565b6000600160149054906101000a900460ff16151515611dfa57600080fd5b611e28336000357fffffffff0000000000000000000000000000000000000000000000000000000016612bb8565b1515611e3357600080fd5b81600260006101000a81548173ffffffffffffffffffffffffffffffffffffffff021916908373ffffffffffffffffffffffffffffffffffffffff16021790555060019050919050565b611eab336000357fffffffff0000000000000000000000000000000000000000000000000000000016612bb8565b1515611eb657600080fd5b8073ffffffffffffffffffffffffffffffffffffffff166342966c688273ffffffffffffffffffffffffffffffffffffffff166370a08231306000604051602001526040518263ffffffff167c0100000000000000000000000000000000000000000000000000000000028152600401808273ffffffffffffffffffffffffffffffffffffffff1673ffffffffffffffffffffffffffffffffffffffff168152602001915050602060405180830381600087803b1515611f7557600080fd5b6102c65a03f11515611f8657600080fd5b505050604051805190506040518263ffffffff167c010000000000000000000000000000000000000000000000000000000002815260040180828152602001915050600060405180830381600087803b1515611fe157600080fd5b6102c65a03f11515611ff257600080fd5b50505050565b600160009054906101000a900473ffffffffffffffffffffffffffffffffffffffff1681565b6000600160149054906101000a900460ff1615151561203c57600080fd5b6120c4600760008473ffffffffffffffffffffffffffffffffffffffff1673ffffffffffffffffffffffffffffffffffffffff16815260200190815260200160002054600860008573ffffffffffffffffffffffffffffffffffffffff1673ffffffffffffffffffffffffffffffffffffffff16815260200190815260200160002054612e17565b9050919050565b6000600160149054906101000a900460ff161515156120e957600080fd5b600860008373ffffffffffffffffffffffffffffffffffffffff1673ffffffffffffffffffffffffffffffffffffffff168152602001908152602001600020549050919050565b6000600160149054906101000a900460ff1615151561214e57600080fd5b600660008373ffffffffffffffffffffffffffffffffffffffff1673ffffffffffffffffffffffffffffffffffffffff168152602001908152602001600020549050919050565b6121c3336000357fffffffff0000000000000000000000000000000000000000000000000000000016612bb8565b15156121ce57600080fd5b8173ffffffffffffffffffffffffffffffffffffffff166342966c68826040518263ffffffff167c010000000000000000000000000000000000000000000000000000000002815260040180828152602001915050600060405180830381600087803b151561223c57600080fd5b6102c65a03f1151561224d57600080fd5b5050505050565b6000600160149054906101000a900460ff1615151561227257600080fd5b600760008373ffffffffffffffffffffffffffffffffffffffff1673ffffffffffffffffffffffffffffffffffffffff168152602001908152602001600020549050919050565b6000600160149054906101000a900460ff161515156122d757600080fd5b6124c16124b36122e684612130565b6124ae600460009054906101000a900473ffffffffffffffffffffffffffffffffffffffff1673ffffffffffffffffffffffffffffffffffffffff16632d675684876000604051602001526040518263ffffffff167c0100000000000000000000000000000000000000000000000000000000028152600401808273ffffffffffffffffffffffffffffffffffffffff1673ffffffffffffffffffffffffffffffffffffffff168152602001915050602060405180830381600087803b15156123ae57600080fd5b6102c65a03f115156123bf57600080fd5b50505060405180519050600360009054906101000a900473ffffffffffffffffffffffffffffffffffffffff1673ffffffffffffffffffffffffffffffffffffffff16638f32a16c886000604051602001526040518263ffffffff167c0100000000000000000000000000000000000000000000000000000000028152600401808273ffffffffffffffffffffffffffffffffffffffff1673ffffffffffffffffffffffffffffffffffffffff168152602001915050602060405180830381600087803b151561248e57600080fd5b6102c65a03f1151561249f57600080fd5b50505060405180519050612e33565b612e33565b6124bc846120cb565b612e17565b9050919050565b6000600160149054906101000a900460ff161515156124e657600080fd5b6125b16125a3600260009054906101000a900473ffffffffffffffffffffffffffffffffffffffff1673ffffffffffffffffffffffffffffffffffffffff166329a260b86000604051602001526040518163ffffffff167c0100000000000000000000000000000000000000000000000000000000028152600401602060405180830381600087803b151561257a57600080fd5b6102c65a03f1151561258b57600080fd5b5050506040518051905061259e856122b9565b612e8b565b6125ac84612254565b612e17565b9050919050565b61268082828473ffffffffffffffffffffffffffffffffffffffff166370a08231306000604051602001526040518263ffffffff167c0100000000000000000000000000000000000000000000000000000000028152600401808273ffffffffffffffffffffffffffffffffffffffff1673ffffffffffffffffffffffffffffffffffffffff168152602001915050602060405180830381600087803b151561266057600080fd5b6102c65a03f1151561267157600080fd5b5050506040518051905061106f565b5050565b6126b2336000357fffffffff0000000000000000000000000000000000000000000000000000000016612bb8565b15156126bd57600080fd5b60008060043591506024359050806000191682600019163373ffffffffffffffffffffffffffffffffffffffff166000357fffffffff00000000000000000000000000000000000000000000000000000000167bffffffffffffffffffffffffffffffffffffffffffffffffffffffff19163460003660405180848152602001806020018281038252848482818152602001925080828437820191505094505050505060405180910390a46000600160146101000a81548160ff0219169083151502179055505050565b6000809054906101000a900473ffffffffffffffffffffffffffffffffffffffff1681565b6127da336000357fffffffff0000000000000000000000000000000000000000000000000000000016612bb8565b15156127e557600080fd5b8273ffffffffffffffffffffffffffffffffffffffff166340c10f1983836040518363ffffffff167c0100000000000000000000000000000000000000000000000000000000028152600401808373ffffffffffffffffffffffffffffffffffffffff1673ffffffffffffffffffffffffffffffffffffffff16815260200182815260200192505050600060405180830381600087803b151561288757600080fd5b6102c65a03f1151561289857600080fd5b505050505050565b6000600160149054906101000a900460ff161515156128be57600080fd5b6128ec336000357fffffffff0000000000000000000000000000000000000000000000000000000016612bb8565b15156128f757600080fd5b81600460006101000a81548173ffffffffffffffffffffffffffffffffffffffff021916908373ffffffffffffffffffffffffffffffffffffffff16021790555060019050919050565b6000600160149054906101000a900460ff1615151561295f57600080fd5b612a12600260009054906101000a900473ffffffffffffffffffffffffffffffffffffffff1673ffffffffffffffffffffffffffffffffffffffff16632262697e6000604051602001526040518163ffffffff167c0100000000000000000000000000000000000000000000000000000000028152600401602060405180830381600087803b15156129f057600080fd5b6102c65a03f11515612a0157600080fd5b505050604051805190506064612e4f565b612a1b83611487565b119050919050565b6000600160149054906101000a900460ff16151515612a4157600080fd5b612a6f336000357fffffffff0000000000000000000000000000000000000000000000000000000016612bb8565b1515612a7a57600080fd5b81600360006101000a81548173ffffffffffffffffffffffffffffffffffffffff021916908373ffffffffffffffffffffffffffffffffffffffff16021790555060019050919050565b612af2336000357fffffffff0000000000000000000000000000000000000000000000000000000016612bb8565b1515612afd57600080fd5b8273ffffffffffffffffffffffffffffffffffffffff16639dc29fac83836040518363ffffffff167c0100000000000000000000000000000000000000000000000000000000028152600401808373ffffffffffffffffffffffffffffffffffffffff1673ffffffffffffffffffffffffffffffffffffffff16815260200182815260200192505050600060405180830381600087803b1515612b9f57600080fd5b6102c65a03f11515612bb057600080fd5b505050505050565b60003073ffffffffffffffffffffffffffffffffffffffff168373ffffffffffffffffffffffffffffffffffffffff161415612bf75760019050612e11565b600160009054906101000a900473ffffffffffffffffffffffffffffffffffffffff1673ffffffffffffffffffffffffffffffffffffffff168373ffffffffffffffffffffffffffffffffffffffff161415612c565760019050612e11565b600073ffffffffffffffffffffffffffffffffffffffff166000809054906101000a900473ffffffffffffffffffffffffffffffffffffffff1673ffffffffffffffffffffffffffffffffffffffff161415612cb55760009050612e11565b6000809054906101000a900473ffffffffffffffffffffffffffffffffffffffff1673ffffffffffffffffffffffffffffffffffffffff1663b70096138430856000604051602001526040518463ffffffff167c0100000000000000000000000000000000000000000000000000000000028152600401808473ffffffffffffffffffffffffffffffffffffffff1673ffffffffffffffffffffffffffffffffffffffff1681526020018373ffffffffffffffffffffffffffffffffffffffff1673ffffffffffffffffffffffffffffffffffffffff168152602001827bffffffffffffffffffffffffffffffffffffffffffffffffffffffff19167bffffffffffffffffffffffffffffffffffffffffffffffffffffffff191681526020019350505050602060405180830381600087803b1515612df357600080fd5b6102c65a03f11515612e0457600080fd5b5050506040518051905090505b92915050565b60008282840391508111151515612e2d57600080fd5b92915050565b60008282840191508110151515612e4957600080fd5b92915050565b600081612e79612e6785670de0b6b3a7640000612ecf565b600285811515612e7357fe5b04612e33565b811515612e8257fe5b04905092915050565b6000670de0b6b3a7640000612ebd612ea38585612ecf565b6002670de0b6b3a7640000811515612eb757fe5b04612e33565b811515612ec657fe5b04905092915050565b600080821480612eee57508282838502925082811515612eeb57fe5b04145b1515612ef957600080fd5b929150505600a165627a7a72305820a77105b4a0febbb45fbb7a7486638e3944b5c3265e93e156e768dd4dfed3e1ea0029",
  "source": "pragma solidity 0.4.18;\n\nimport \"./helpers/math.sol\";\nimport \"./helpers/token.sol\";\nimport \"./helpers/stop.sol\";\nimport \"./helpers/multivault.sol\";\n\nimport \"./NetworkParameters.sol\";\nimport \"./LoanManager.sol\";\nimport \"./PositionManager.sol\";\n\n\ncontract Wallet is DSMultiVault, DSMath, DSStop {\n\n    NetworkParameters LendroidNetworkParameters;\n    LoanManager LendroidLoanManager;\n    PositionManager LendroidPositionManager;\n\n    mapping (address => uint) fundingBalances; // Simple Funding balance tracker\n    mapping (address => uint) collateralBalances; // Simple Collateral balance tracker\n    mapping (address => uint) loanBalances; // Simple balance tracker for loan amounts borrowed\n    mapping (address => uint) positionBalances; // Simple balance tracker for position amounts opened\n    mapping (address => uint) wranglerBalances; // Simple Wrangler balance tracker\n\n    modifier onlyLoanManager() {\n        require(msg.sender == address(LendroidLoanManager));\n        _;\n    }\n\n    modifier onlyPositionManager() {\n        require(msg.sender == address(LendroidPositionManager));\n        _;\n    }\n\n    /// @dev Throws if called by any account.\n    function() public {\n        revert();\n    }\n\n    /// @dev Allows owner to set the NetworkParameters contract.\n    /// @param _address Address of the NetworkParameters contract.\n    function setLendroidNetworkParameters(address _address)\n        public\n        stoppable\n        auth// owner\n        returns (bool)\n    {\n        LendroidNetworkParameters = NetworkParameters(_address);\n        return true;\n    }\n\n    /// @dev Allows owner to set the LoanManager contract.\n    /// @param _address Address of the LoanManager contract.\n    function setLendroidLoanManager(address _address)\n        public\n        stoppable\n        auth// owner\n        returns (bool)\n    {\n        LendroidLoanManager = LoanManager(_address);\n        return true;\n    }\n\n    /// @dev Allows owner to set the PositionManager contract.\n    /// @param _address Address of the PositionManager contract.\n    function setLendroidPositionManager(address _address)\n        public\n        stoppable\n        auth// owner\n        returns (bool)\n    {\n        LendroidPositionManager = PositionManager(_address);\n        return true;\n    }\n\n    // Deposit funds\n    function depositLendingFunds()\n        public\n        stoppable\n        payable\n        auth\n        returns (bool)\n    {\n        fundingBalances[address(this)] = add(fundingBalances[address(this)], msg.value);\n        return true;\n    }\n\n    function getFundingBalance()\n        public\n        stoppable\n        constant\n        returns (uint)\n    {\n        return fundingBalances[address(this)];\n    }\n\n    function depositCollateral()\n        public\n        stoppable\n        payable\n        returns (bool)\n    {\n\n        // address _token = LendroidNetworkParameters.getTokenAddressBySymbol(\"W-ETH\");\n        // pull\n        // pull(DSToken(_token), msg.sender, msg.value);\n        collateralBalances[msg.sender] = add(collateralBalances[msg.sender], msg.value);\n        return true;\n    }\n\n    // Withdraw funds\n    function withdrawCollateral(uint _amount)\n        public\n        stoppable\n        returns (bool)\n    {\n        // TODO: Verify margin account is healthy\n        require(\n            (_amount > 0) &&\n            (_amount <= getMaximumWithdrawableAmount(msg.sender))\n        );\n        collateralBalances[msg.sender] = sub(collateralBalances[msg.sender], _amount);\n        // address _token = LendroidNetworkParameters.getTokenAddressBySymbol(\"W-ETH\");\n        // push\n        // push(DSToken(_token), msg.sender, _amount);\n        msg.sender.transfer(_amount);\n        return true;\n    }\n\n    function getMarginValue(\n            address _address\n        )\n        public\n        stoppable\n        constant\n        returns (uint)\n    {\n        return collateralBalances[_address];\n    }\n\n    function getNetValue(\n            address _address\n        )\n        public\n        stoppable\n        constant\n        returns (uint)\n    {\n        return sub(\n                add(\n                    getMarginValue(_address),\n                    add(\n                        LendroidPositionManager.unRealizedPLs(_address),\n                        LendroidLoanManager.unRealizedLendingFees(_address)\n                    )\n                ),\n                getTotalOpenPositionsValue(_address)\n            );\n    }\n\n    function getTotalBorrowedValue(\n            address _address\n        )\n        public\n        stoppable\n        constant\n        returns (uint)\n    {\n        return loanBalances[_address];\n    }\n\n    function getTotalOpenPositionsValue(\n            address _address\n        )\n        public\n        stoppable\n        constant\n        returns (uint)\n    {\n        return positionBalances[_address];\n    }\n\n    function getCurrentMargin(\n            address _address\n        )\n        public\n        stoppable\n        constant\n        returns (uint)\n    {\n        if (getTotalBorrowedValue(_address) == 0) {\n            return 0;\n        }\n        return wdiv(getNetValue(_address), getTotalBorrowedValue(_address));\n    }\n\n    function isMarginAccountHealthy(\n            address _address\n        )\n        public\n        stoppable\n        constant\n        returns (bool)\n    {\n        return getCurrentMargin(_address) > wdiv(LendroidNetworkParameters.liquidationMargin(), 100);\n    }\n\n    // Get maximum amount that can be borrowed\n    function getMaximumBorrowableAmount(\n            address _address\n        )\n        public\n        stoppable\n        constant\n        returns (uint)\n    {\n        return sub(\n            wmul(\n                LendroidNetworkParameters.borrowableLevel(),\n                getNetValue(_address)\n            ),\n            getTotalBorrowedValue(_address)\n        );\n    }\n\n    // Get maximum collateral amount that can be withdrawn\n    function getMaximumWithdrawableAmount(\n            address _address\n        )\n        public\n        stoppable\n        constant\n        returns (uint)\n    {\n        if (getTotalBorrowedValue(_address) == 0) {\n            return getNetValue(_address);\n        }\n        uint initialMarginPercentage = wdiv(LendroidNetworkParameters.initialMargin(), 100);\n        if (getCurrentMargin(_address) > initialMarginPercentage) {\n            return sub(\n                getNetValue(_address),\n                wmul(\n                    getTotalBorrowedValue(_address),\n                    initialMarginPercentage\n                )\n            );\n        }\n        else {\n            return 0;\n        }\n    }\n\n    // Get maximum position amount that can be opened\n    function getMaximumPositionOpenableAmount(\n            address _address\n        )\n        public\n        stoppable\n        constant\n        returns (uint)\n    {\n        return sub(loanBalances[_address], positionBalances[_address]);\n    }\n\n    // authorized call to reshuffle balances\n    function encumberCollateral(\n            address _borrower,\n            uint _loanTokenAmount\n        )\n        public\n        stoppable\n        // auth// loanmanager\n        onlyLoanManager\n        returns (bool)\n    {\n        // Check eligibility\n        // lender has enough funds to lend loan\n        // require(this.balance >= _loanTokenAmount);\n        require(fundingBalances[address(this)] >= _loanTokenAmount);\n        // Update fundingBalances\n        fundingBalances[address(this)] = sub(fundingBalances[address(this)], _loanTokenAmount);\n        // Update loanBalances\n        loanBalances[_borrower] = add(loanBalances[_borrower], _loanTokenAmount);\n        return true;\n    }\n\n    // authorized call to reshuffle balances\n    function unEncumberCollateral(\n            address _borrower,\n            uint _loanTokenAmount,\n            uint _loanTokenAmountPaid\n        )\n        public\n        stoppable\n        // auth// loanmanager\n        onlyLoanManager\n        returns (bool)\n    {\n        // Check eligibility\n        // borrower has enough funds to repay loan\n        require(loanBalances[_borrower] >= _loanTokenAmount);\n        // Update marginAccountBalances\n        loanBalances[_borrower] = sub(loanBalances[_borrower], _loanTokenAmount);\n        // Update fundingBalances\n        fundingBalances[address(this)] = add(fundingBalances[address(this)], _loanTokenAmountPaid);\n        return true;\n    }\n\n    // authorized call to reshuffle balances\n    function openPosition(\n            address _borrower,\n            uint _positionAmount\n        )\n        public\n        stoppable\n        // auth// positionmanager\n        onlyPositionManager\n        returns (bool)\n    {\n        // Check eligibility\n        // borrower has enough margin account funds to open position\n        require(sub(loanBalances[_borrower], positionBalances[_borrower]) >= _positionAmount);\n        // Update positionBalances\n        positionBalances[_borrower] = add(positionBalances[_borrower], _positionAmount);\n\n        return true;\n    }\n\n    // authorized call to reshuffle balances\n    function closePosition(\n            address _borrower,\n            uint _positionAmount\n        )\n        public\n        stoppable\n        // auth// positionmanager\n        onlyPositionManager\n        returns (bool)\n    {\n        // Check eligibility\n        // Update positionBalances\n        positionBalances[_borrower] = sub(positionBalances[_borrower], _positionAmount);\n\n        return true;\n    }\n}\n",
  "sourcePath": "/Users/vii/Desktop/lendroid/development/protocol-demo/contracts/Wallet.sol",
  "compiler": {
    "name": "solc",
    "version": "0.4.18+commit.9cf6e910.Emscripten.clang"
  },
  "schemaVersion": "1.0.1",
  "updatedAt": "2017-11-19T15:58:31.355Z"
}