{
  "contractName": "Wallet",
  "abi": [
    {
      "constant": false,
      "inputs": [],
      "name": "stop",
      "outputs": [],
      "payable": false,
      "stateMutability": "nonpayable",
      "type": "function"
    },
    {
      "constant": false,
      "inputs": [
        {
          "name": "owner_",
          "type": "address"
        }
      ],
      "name": "setOwner",
      "outputs": [],
      "payable": false,
      "stateMutability": "nonpayable",
      "type": "function"
    },
    {
      "constant": false,
      "inputs": [
        {
          "name": "token",
          "type": "address"
        },
        {
          "name": "dst",
          "type": "address"
        },
        {
          "name": "wad",
          "type": "uint256"
        }
      ],
      "name": "depositLendingFunds",
      "outputs": [
        {
          "name": "",
          "type": "bool"
        }
      ],
      "payable": true,
      "stateMutability": "payable",
      "type": "function"
    },
    {
      "constant": false,
      "inputs": [
        {
          "name": "token",
          "type": "address"
        },
        {
          "name": "dst",
          "type": "address"
        },
        {
          "name": "wad",
          "type": "uint256"
        }
      ],
      "name": "push",
      "outputs": [
        {
          "name": "",
          "type": "bool"
        },
        {
          "name": "",
          "type": "uint256"
        }
      ],
      "payable": false,
      "stateMutability": "nonpayable",
      "type": "function"
    },
    {
      "constant": true,
      "inputs": [
        {
          "name": "_address",
          "type": "address"
        },
        {
          "name": "_address",
          "type": "address"
        }
      ],
      "name": "getCollateralBalance",
      "outputs": [
        {
          "name": "",
          "type": "uint256"
        }
      ],
      "payable": false,
      "stateMutability": "view",
      "type": "function"
    },
    {
      "constant": false,
      "inputs": [
        {
          "name": "_borrower",
          "type": "address"
        },
        {
          "name": "_loanTokenAmount",
          "type": "uint256"
        }
      ],
      "name": "encumberCollateral",
      "outputs": [
        {
          "name": "",
          "type": "bool"
        }
      ],
      "payable": false,
      "stateMutability": "nonpayable",
      "type": "function"
    },
    {
      "constant": true,
      "inputs": [
        {
          "name": "token",
          "type": "address"
        },
        {
          "name": "wad",
          "type": "uint256"
        },
        {
          "name": "_loanTokenAmount",
          "type": "uint256"
        },
        {
          "name": "_collateralTokenAmount",
          "type": "uint256"
        },
        {
          "name": "_repayAmount",
          "type": "uint256"
        },
        {
          "name": "_lender",
          "type": "address"
        },
        {
          "name": "_borrower",
          "type": "address"
        },
        {
          "name": "_loanHash",
          "type": "bytes32"
        }
      ],
      "name": "getFundingBalance",
      "outputs": [
        {
          "name": "",
          "type": "uint256"
        }
      ],
      "payable": false,
      "stateMutability": "view",
      "type": "function"
    },
    {
      "constant": false,
      "inputs": [
        {
          "name": "token",
          "type": "address"
        },
        {
          "name": "wad",
          "type": "uint256"
        },
        {
          "name": "_loanTokenAmountPaid",
          "type": "uint256"
        }
      ],
      "name": "mint",
      "outputs": [
        {
          "name": "",
          "type": "bool"
        }
      ],
      "payable": false,
      "stateMutability": "nonpayable",
      "type": "function"
    },
    {
      "constant": true,
      "inputs": [
        {
          "name": "_address",
          "type": "address"
        },
        {
          "name": "src",
          "type": "address"
        },
        {
          "name": "wad",
          "type": "uint256"
        }
      ],
      "name": "getMaximumWithdrawableAmount",
      "outputs": [
        {
          "name": "",
          "type": "uint256"
        }
      ],
      "payable": false,
      "stateMutability": "view",
      "type": "function"
    },
    {
      "constant": false,
      "inputs": [
        {
          "name": "_borrower",
          "type": "address"
        },
        {
          "name": "_loanTokenAmount",
          "type": "uint256"
        },
        {
          "name": "_loanTokenAmountPaid",
          "type": "uint256"
        }
      ],
      "name": "unEncumberCollateral",
      "outputs": [
        {
          "name": "",
          "type": "bool"
        }
      ],
      "payable": false,
      "stateMutability": "nonpayable",
      "type": "function"
    },
    {
      "constant": false,
      "inputs": [
        {
          "name": "_amount",
          "type": "uint256"
        }
      ],
      "name": "withdrawCollateral",
      "outputs": [
        {
          "name": "",
          "type": "bool"
        }
      ],
      "payable": false,
      "stateMutability": "nonpayable",
      "type": "function"
    },
    {
      "constant": false,
      "inputs": [
        {
          "name": "token",
          "type": "address"
        },
        {
          "name": "src",
          "type": "address"
        },
        {
          "name": "wad",
          "type": "uint256"
        }
      ],
      "name": "pull",
      "outputs": [
        {
          "name": "",
          "type": "bool"
        }
      ],
      "payable": false,
      "stateMutability": "nonpayable",
      "type": "function"
    },
    {
      "constant": false,
      "inputs": [
        {
          "name": "token",
          "type": "address"
        }
      ],
      "name": "depositCollateral",
      "outputs": [
        {
          "name": "",
          "type": "bool"
        }
      ],
      "payable": true,
      "stateMutability": "payable",
      "type": "function"
    },
    {
      "constant": false,
      "inputs": [
        {
          "name": "token",
          "type": "address"
        },
        {
          "name": "src",
          "type": "address"
        },
        {
          "name": "wad",
          "type": "uint256"
        }
      ],
      "name": "pull",
      "outputs": [
        {
          "name": "",
          "type": "address"
        }
      ],
      "payable": false,
      "stateMutability": "nonpayable",
      "type": "function"
    },
    {
      "constant": true,
      "inputs": [
        {
          "name": "_address",
          "type": "address"
        },
        {
          "name": "wad",
          "type": "uint256"
        }
      ],
      "name": "stopped",
      "outputs": [
        {
          "name": "",
          "type": "bool"
        }
      ],
      "payable": false,
      "stateMutability": "view",
      "type": "function"
    },
    {
      "constant": false,
      "inputs": [
        {
          "name": "authority_",
          "type": "address"
        },
        {
          "name": "_amount",
          "type": "uint256"
        },
        {
          "name": "_fromAccountType",
          "type": "uint8"
        }
      ],
      "name": "setAuthority",
      "outputs": [
        {
          "name": "",
          "type": "bool"
        }
      ],
      "payable": false,
      "stateMutability": "nonpayable",
      "type": "function"
    },
    {
      "constant": false,
      "inputs": [
        {
          "name": "_address",
          "type": "address"
        },
        {
          "name": "dst",
          "type": "address"
        }
      ],
      "name": "setLendroidNetworkParameters",
      "outputs": [
        {
          "name": "",
          "type": "bool"
        }
      ],
      "payable": false,
      "stateMutability": "nonpayable",
      "type": "function"
    },
    {
      "constant": false,
      "inputs": [
        {
          "name": "token",
          "type": "address"
        },
        {
          "name": "wad",
          "type": "uint256"
        }
      ],
      "name": "burn",
      "outputs": [],
      "payable": false,
      "stateMutability": "nonpayable",
      "type": "function"
    },
    {
      "constant": true,
      "inputs": [
        {
          "name": "_address",
          "type": "address"
        }
      ],
      "name": "owner",
      "outputs": [
        {
          "name": "",
          "type": "address"
        }
      ],
      "payable": false,
      "stateMutability": "view",
      "type": "function"
    },
    {
      "constant": false,
      "inputs": [
        {
          "name": "token",
          "type": "address"
        },
        {
          "name": "wad",
          "type": "uint256"
        },
        {
          "name": "wad",
          "type": "uint256"
        }
      ],
      "name": "burn",
      "outputs": [],
      "payable": false,
      "stateMutability": "nonpayable",
      "type": "function"
    },
    {
      "constant": true,
      "inputs": [
        {
          "name": "_address",
          "type": "address"
        },
        {
          "name": "_address",
          "type": "address"
        }
      ],
      "name": "getMaximumBorrowableAmount",
      "outputs": [
        {
          "name": "",
          "type": "uint256"
        }
      ],
      "payable": false,
      "stateMutability": "view",
      "type": "function"
    },
    {
      "constant": false,
      "inputs": [
        {
          "name": "token",
          "type": "address"
        },
        {
          "name": "dst",
          "type": "address"
        }
      ],
      "name": "push",
      "outputs": [
        {
          "name": "",
          "type": "address"
        }
      ],
      "payable": false,
      "stateMutability": "nonpayable",
      "type": "function"
    },
    {
      "constant": false,
      "inputs": [
        {
          "name": "token",
          "type": "address"
        },
        {
          "name": "guy",
          "type": "address"
        },
        {
          "name": "wad",
          "type": "uint256"
        },
        {
          "name": "_toAccountType",
          "type": "uint8"
        }
      ],
      "name": "start",
      "outputs": [
        {
          "name": "",
          "type": "bool"
        }
      ],
      "payable": false,
      "stateMutability": "nonpayable",
      "type": "function"
    },
    {
      "constant": true,
      "inputs": [
        {
          "name": "token",
          "type": "address"
        },
        {
          "name": "guy",
          "type": "address"
        },
        {
          "name": "wad",
          "type": "uint256"
        }
      ],
      "name": "authority",
      "outputs": [
        {
          "name": "",
          "type": "address"
        }
      ],
      "payable": false,
      "stateMutability": "view",
      "type": "function"
    },
    {
      "constant": false,
      "inputs": [
        {
          "name": "token",
          "type": "address"
        },
        {
          "name": "guy",
          "type": "address"
        },
        {
          "name": "wad",
          "type": "uint256"
        }
      ],
      "name": "mint",
      "outputs": [
        {
          "name": "",
          "type": "bool"
        }
      ],
      "payable": false,
      "stateMutability": "nonpayable",
      "type": "function"
    },
    {
      "anonymous": false,
      "inputs": [
        {
          "indexed": true,
          "name": "_address",
          "type": "address"
        }
      ],
      "name": "getMarginAccountBalance",
      "type": "function",
      "constant": true,
      "outputs": [
        {
          "name": "",
          "type": "uint256"
        }
      ],
      "payable": false,
      "stateMutability": "view"
    },
    {
      "anonymous": false,
      "inputs": [
        {
          "indexed": true,
          "name": "token",
          "type": "address"
        },
        {
          "name": "guy",
          "type": "address"
        },
        {
          "name": "wad",
          "type": "uint256"
        }
      ],
      "name": "burn",
      "type": "function",
      "constant": false,
      "outputs": [],
      "payable": false,
      "stateMutability": "nonpayable"
    },
    {
      "anonymous": true,
      "inputs": [
        {
          "indexed": true,
          "name": "sig",
          "type": "bytes4"
        },
        {
          "indexed": true,
          "name": "guy",
          "type": "address"
        },
        {
          "indexed": true,
          "name": "foo",
          "type": "bytes32"
        },
        {
          "indexed": true,
          "name": "bar",
          "type": "bytes32"
        },
        {
          "indexed": false,
          "name": "wad",
          "type": "uint256"
        },
        {
          "indexed": false,
          "name": "fax",
          "type": "bytes"
        }
      ],
      "name": "LogNote",
      "type": "fallback",
      "payable": false,
      "stateMutability": "nonpayable"
    },
    {
      "anonymous": false,
      "inputs": [
        {
          "indexed": true,
          "name": "authority",
          "type": "address"
        }
      ],
      "name": "LogSetAuthority",
      "type": "event"
    },
    {
      "anonymous": false,
      "inputs": [
        {
          "indexed": true,
          "name": "owner",
          "type": "address"
        }
      ],
      "name": "LogSetOwner",
      "type": "event"
    },
    {
      "anonymous": true,
      "inputs": [
        {
          "indexed": true,
          "name": "sig",
          "type": "bytes4"
        },
        {
          "indexed": true,
          "name": "guy",
          "type": "address"
        },
        {
          "indexed": true,
          "name": "foo",
          "type": "bytes32"
        },
        {
          "indexed": true,
          "name": "bar",
          "type": "bytes32"
        },
        {
          "indexed": false,
          "name": "wad",
          "type": "uint256"
        },
        {
          "indexed": false,
          "name": "fax",
          "type": "bytes"
        }
      ],
      "name": "LogNote",
      "type": "event"
    }
  ],
  "bytecode": "0x606060405233600160006101000a81548173ffffffffffffffffffffffffffffffffffffffff021916908373ffffffffffffffffffffffffffffffffffffffff1602179055503373ffffffffffffffffffffffffffffffffffffffff167fce241d7ca1f669fee44b6fc00b8eba2df3bb514eed0f6f668f8f89096e81ed9460405160405180910390a26125ae806100976000396000f30060606040526004361061015f576000357c0100000000000000000000000000000000000000000000000000000000900463ffffffff16806307da68f51461016f57806313af4035146101845780631f9f01ca146101bd57806326e8eda2146101df5780632703ee85146102405780633c40b3081461028d5780633fdd7ab5146102e757806340c10f19146103105780635792d30a146103525780635ac6d8ab1461039f5780636112fe2e1461040257806366b3bcb01461043d5780636f758140146104955780637372c2b5146104b757806375f12b21146105185780637a9e5e4b14610545578063885c43cd1461057e57806389afcb44146105cf5780638da5cb5b146106085780639dc29fac1461065d578063b11b97f51461069f578063b716ba67146106ec578063be9a655514610744578063bf7e214f14610759578063c6c3bbe6146107ae578063ebfe2f771461080f578063f6b911bc1461085c575b341561016a57600080fd5b600080fd5b341561017a57600080fd5b6101826108bd565b005b341561018f57600080fd5b6101bb600480803573ffffffffffffffffffffffffffffffffffffffff169060200190919050506109bf565b005b6101c5610aa1565b604051808215151515815260200191505060405180910390f35b34156101ea57600080fd5b61023e600480803573ffffffffffffffffffffffffffffffffffffffff1690602001909190803573ffffffffffffffffffffffffffffffffffffffff16906020019091908035906020019091905050610b8b565b005b341561024b57600080fd5b610277600480803573ffffffffffffffffffffffffffffffffffffffff16906020019091905050610c97565b6040518082815260200191505060405180910390f35b341561029857600080fd5b6102cd600480803573ffffffffffffffffffffffffffffffffffffffff16906020019091908035906020019091905050610cfc565b604051808215151515815260200191505060405180910390f35b34156102f257600080fd5b6102fa610e8a565b6040518082815260200191505060405180910390f35b341561031b57600080fd5b610350600480803573ffffffffffffffffffffffffffffffffffffffff16906020019091908035906020019091905050610eed565b005b341561035d57600080fd5b610389600480803573ffffffffffffffffffffffffffffffffffffffff16906020019091905050610fac565b6040518082815260200191505060405180910390f35b34156103aa57600080fd5b6103e8600480803573ffffffffffffffffffffffffffffffffffffffff16906020019091908035906020019091908035906020019091905050611150565b604051808215151515815260200191505060405180910390f35b341561040d57600080fd5b61042360048080359060200190919050506112df565b604051808215151515815260200191505060405180910390f35b341561044857600080fd5b610493600480803573ffffffffffffffffffffffffffffffffffffffff1690602001909190803573ffffffffffffffffffffffffffffffffffffffff169060200190919050506114cd565b005b61049d611599565b604051808215151515815260200191505060405180910390f35b34156104c257600080fd5b610516600480803573ffffffffffffffffffffffffffffffffffffffff1690602001909190803573ffffffffffffffffffffffffffffffffffffffff16906020019091908035906020019091905050611722565b005b341561052357600080fd5b61052b611862565b604051808215151515815260200191505060405180910390f35b341561055057600080fd5b61057c600480803573ffffffffffffffffffffffffffffffffffffffff16906020019091905050611875565b005b341561058957600080fd5b6105b5600480803573ffffffffffffffffffffffffffffffffffffffff16906020019091905050611955565b604051808215151515815260200191505060405180910390f35b34156105da57600080fd5b610606600480803573ffffffffffffffffffffffffffffffffffffffff169060200190919050506119f6565b005b341561061357600080fd5b61061b611b71565b604051808273ffffffffffffffffffffffffffffffffffffffff1673ffffffffffffffffffffffffffffffffffffffff16815260200191505060405180910390f35b341561066857600080fd5b61069d600480803573ffffffffffffffffffffffffffffffffffffffff16906020019091908035906020019091905050611b97565b005b34156106aa57600080fd5b6106d6600480803573ffffffffffffffffffffffffffffffffffffffff16906020019091905050611c56565b6040518082815260200191505060405180910390f35b34156106f757600080fd5b610742600480803573ffffffffffffffffffffffffffffffffffffffff1690602001909190803573ffffffffffffffffffffffffffffffffffffffff16906020019091905050611dfa565b005b341561074f57600080fd5b610757611ec6565b005b341561076457600080fd5b61076c611fc9565b604051808273ffffffffffffffffffffffffffffffffffffffff1673ffffffffffffffffffffffffffffffffffffffff16815260200191505060405180910390f35b34156107b957600080fd5b61080d600480803573ffffffffffffffffffffffffffffffffffffffff1690602001909190803573ffffffffffffffffffffffffffffffffffffffff16906020019091908035906020019091905050611fee565b005b341561081a57600080fd5b610846600480803573ffffffffffffffffffffffffffffffffffffffff169060200190919050506120e2565b6040518082815260200191505060405180910390f35b341561086757600080fd5b6108bb600480803573ffffffffffffffffffffffffffffffffffffffff1690602001909190803573ffffffffffffffffffffffffffffffffffffffff16906020019091908035906020019091905050612147565b005b6108eb336000357fffffffff000000000000000000000000000000000000000000000000000000001661223b565b15156108f657600080fd5b60008060043591506024359050806000191682600019163373ffffffffffffffffffffffffffffffffffffffff166000357fffffffff00000000000000000000000000000000000000000000000000000000167bffffffffffffffffffffffffffffffffffffffffffffffffffffffff19163460003660405180848152602001806020018281038252848482818152602001925080828437820191505094505050505060405180910390a460018060146101000a81548160ff0219169083151502179055505050565b6109ed336000357fffffffff000000000000000000000000000000000000000000000000000000001661223b565b15156109f857600080fd5b80600160006101000a81548173ffffffffffffffffffffffffffffffffffffffff021916908373ffffffffffffffffffffffffffffffffffffffff160217905550600160009054906101000a900473ffffffffffffffffffffffffffffffffffffffff1673ffffffffffffffffffffffffffffffffffffffff167fce241d7ca1f669fee44b6fc00b8eba2df3bb514eed0f6f668f8f89096e81ed9460405160405180910390a250565b6000600160149054906101000a900460ff16151515610abf57600080fd5b610aed336000357fffffffff000000000000000000000000000000000000000000000000000000001661223b565b1515610af857600080fd5b610b41600360003073ffffffffffffffffffffffffffffffffffffffff1673ffffffffffffffffffffffffffffffffffffffff168152602001908152602001600020543461249a565b600360003073ffffffffffffffffffffffffffffffffffffffff1673ffffffffffffffffffffffffffffffffffffffff168152602001908152602001600020819055506001905090565b610bb9336000357fffffffff000000000000000000000000000000000000000000000000000000001661223b565b1515610bc457600080fd5b8273ffffffffffffffffffffffffffffffffffffffff1663a9059cbb83836000604051602001526040518363ffffffff167c0100000000000000000000000000000000000000000000000000000000028152600401808373ffffffffffffffffffffffffffffffffffffffff1673ffffffffffffffffffffffffffffffffffffffff16815260200182815260200192505050602060405180830381600087803b1515610c6f57600080fd5b6102c65a03f11515610c8057600080fd5b505050604051805190501515610c9257fe5b505050565b6000600160149054906101000a900460ff16151515610cb557600080fd5b600460008373ffffffffffffffffffffffffffffffffffffffff1673ffffffffffffffffffffffffffffffffffffffff168152602001908152602001600020549050919050565b6000600160149054906101000a900460ff16151515610d1a57600080fd5b81600360003073ffffffffffffffffffffffffffffffffffffffff1673ffffffffffffffffffffffffffffffffffffffff1681526020019081526020016000205410151515610d6857600080fd5b610db1600360003073ffffffffffffffffffffffffffffffffffffffff1673ffffffffffffffffffffffffffffffffffffffff16815260200190815260200160002054836124b6565b600360003073ffffffffffffffffffffffffffffffffffffffff1673ffffffffffffffffffffffffffffffffffffffff16815260200190815260200160002081905550610e3d600560008573ffffffffffffffffffffffffffffffffffffffff1673ffffffffffffffffffffffffffffffffffffffff168152602001908152602001600020548361249a565b600560008573ffffffffffffffffffffffffffffffffffffffff1673ffffffffffffffffffffffffffffffffffffffff168152602001908152602001600020819055506001905092915050565b6000600160149054906101000a900460ff16151515610ea857600080fd5b600360003073ffffffffffffffffffffffffffffffffffffffff1673ffffffffffffffffffffffffffffffffffffffff16815260200190815260200160002054905090565b610f1b336000357fffffffff000000000000000000000000000000000000000000000000000000001661223b565b1515610f2657600080fd5b8173ffffffffffffffffffffffffffffffffffffffff1663a0712d68826040518263ffffffff167c010000000000000000000000000000000000000000000000000000000002815260040180828152602001915050600060405180830381600087803b1515610f9457600080fd5b6102c65a03f11515610fa557600080fd5b5050505050565b6000600160149054906101000a900460ff16151515610fca57600080fd5b611149610fd683610c97565b611144610fe2856120e2565b61113f600260009054906101000a900473ffffffffffffffffffffffffffffffffffffffff1673ffffffffffffffffffffffffffffffffffffffff1663079110526000604051602001526040518163ffffffff167c0100000000000000000000000000000000000000000000000000000000028152600401602060405180830381600087803b151561107357600080fd5b6102c65a03f1151561108457600080fd5b50505060405180519050600260009054906101000a900473ffffffffffffffffffffffffffffffffffffffff1673ffffffffffffffffffffffffffffffffffffffff1663313ce5676000604051602001526040518163ffffffff167c0100000000000000000000000000000000000000000000000000000000028152600401602060405180830381600087803b151561111c57600080fd5b6102c65a03f1151561112d57600080fd5b50505060405180519050600a0a6124d2565b6124d2565b6124b6565b9050919050565b6000600160149054906101000a900460ff1615151561116e57600080fd5b82600560008673ffffffffffffffffffffffffffffffffffffffff1673ffffffffffffffffffffffffffffffffffffffff16815260200190815260200160002054101515156111bc57600080fd5b611205600560008673ffffffffffffffffffffffffffffffffffffffff1673ffffffffffffffffffffffffffffffffffffffff16815260200190815260200160002054846124b6565b600560008673ffffffffffffffffffffffffffffffffffffffff1673ffffffffffffffffffffffffffffffffffffffff16815260200190815260200160002081905550611291600360003073ffffffffffffffffffffffffffffffffffffffff1673ffffffffffffffffffffffffffffffffffffffff168152602001908152602001600020548361249a565b600360003073ffffffffffffffffffffffffffffffffffffffff1673ffffffffffffffffffffffffffffffffffffffff16815260200190815260200160002081905550600190509392505050565b600080600160149054906101000a900460ff161515156112fe57600080fd5b600083118015611316575061131233610fac565b8311155b151561132157600080fd5b61136a600460003373ffffffffffffffffffffffffffffffffffffffff1673ffffffffffffffffffffffffffffffffffffffff16815260200190815260200160002054846124b6565b600460003373ffffffffffffffffffffffffffffffffffffffff1673ffffffffffffffffffffffffffffffffffffffff16815260200190815260200160002081905550600260009054906101000a900473ffffffffffffffffffffffffffffffffffffffff1673ffffffffffffffffffffffffffffffffffffffff1663fa7fdeb76000604051602001526040518163ffffffff167c010000000000000000000000000000000000000000000000000000000002815260040180807f572d4554480000000000000000000000000000000000000000000000000000008152506020019050602060405180830381600087803b151561146657600080fd5b6102c65a03f1151561147757600080fd5b5050506040518051905090503373ffffffffffffffffffffffffffffffffffffffff166108fc849081150290604051600060405180830381858888f1935050505015156114c357600080fd5b6001915050919050565b61159582828473ffffffffffffffffffffffffffffffffffffffff166370a08231856000604051602001526040518263ffffffff167c0100000000000000000000000000000000000000000000000000000000028152600401808273ffffffffffffffffffffffffffffffffffffffff1673ffffffffffffffffffffffffffffffffffffffff168152602001915050602060405180830381600087803b151561157557600080fd5b6102c65a03f1151561158657600080fd5b50505060405180519050611722565b5050565b600080600160149054906101000a900460ff161515156115b857600080fd5b600260009054906101000a900473ffffffffffffffffffffffffffffffffffffffff1673ffffffffffffffffffffffffffffffffffffffff1663fa7fdeb76000604051602001526040518163ffffffff167c010000000000000000000000000000000000000000000000000000000002815260040180807f572d4554480000000000000000000000000000000000000000000000000000008152506020019050602060405180830381600087803b151561167157600080fd5b6102c65a03f1151561168257600080fd5b5050506040518051905090506116d7600460003373ffffffffffffffffffffffffffffffffffffffff1673ffffffffffffffffffffffffffffffffffffffff168152602001908152602001600020543461249a565b600460003373ffffffffffffffffffffffffffffffffffffffff1673ffffffffffffffffffffffffffffffffffffffff16815260200190815260200160002081905550600191505090565b611750336000357fffffffff000000000000000000000000000000000000000000000000000000001661223b565b151561175b57600080fd5b8273ffffffffffffffffffffffffffffffffffffffff166323b872dd8330846000604051602001526040518463ffffffff167c0100000000000000000000000000000000000000000000000000000000028152600401808473ffffffffffffffffffffffffffffffffffffffff1673ffffffffffffffffffffffffffffffffffffffff1681526020018373ffffffffffffffffffffffffffffffffffffffff1673ffffffffffffffffffffffffffffffffffffffff1681526020018281526020019350505050602060405180830381600087803b151561183a57600080fd5b6102c65a03f1151561184b57600080fd5b50505060405180519050151561185d57fe5b505050565b600160149054906101000a900460ff1681565b6118a3336000357fffffffff000000000000000000000000000000000000000000000000000000001661223b565b15156118ae57600080fd5b806000806101000a81548173ffffffffffffffffffffffffffffffffffffffff021916908373ffffffffffffffffffffffffffffffffffffffff1602179055506000809054906101000a900473ffffffffffffffffffffffffffffffffffffffff1673ffffffffffffffffffffffffffffffffffffffff167f1abebea81bfa2637f28358c371278fb15ede7ea8dd28d2e03b112ff6d936ada460405160405180910390a250565b6000600160149054906101000a900460ff1615151561197357600080fd5b6119a1336000357fffffffff000000000000000000000000000000000000000000000000000000001661223b565b15156119ac57600080fd5b81600260006101000a81548173ffffffffffffffffffffffffffffffffffffffff021916908373ffffffffffffffffffffffffffffffffffffffff16021790555060019050919050565b611a24336000357fffffffff000000000000000000000000000000000000000000000000000000001661223b565b1515611a2f57600080fd5b8073ffffffffffffffffffffffffffffffffffffffff166342966c688273ffffffffffffffffffffffffffffffffffffffff166370a08231306000604051602001526040518263ffffffff167c0100000000000000000000000000000000000000000000000000000000028152600401808273ffffffffffffffffffffffffffffffffffffffff1673ffffffffffffffffffffffffffffffffffffffff168152602001915050602060405180830381600087803b1515611aee57600080fd5b6102c65a03f11515611aff57600080fd5b505050604051805190506040518263ffffffff167c010000000000000000000000000000000000000000000000000000000002815260040180828152602001915050600060405180830381600087803b1515611b5a57600080fd5b6102c65a03f11515611b6b57600080fd5b50505050565b600160009054906101000a900473ffffffffffffffffffffffffffffffffffffffff1681565b611bc5336000357fffffffff000000000000000000000000000000000000000000000000000000001661223b565b1515611bd057600080fd5b8173ffffffffffffffffffffffffffffffffffffffff166342966c68826040518263ffffffff167c010000000000000000000000000000000000000000000000000000000002815260040180828152602001915050600060405180830381600087803b1515611c3e57600080fd5b6102c65a03f11515611c4f57600080fd5b5050505050565b6000600160149054906101000a900460ff16151515611c7457600080fd5b611df3611de5611dd7600260009054906101000a900473ffffffffffffffffffffffffffffffffffffffff1673ffffffffffffffffffffffffffffffffffffffff1663079110526000604051602001526040518163ffffffff167c0100000000000000000000000000000000000000000000000000000000028152600401602060405180830381600087803b1515611d0b57600080fd5b6102c65a03f11515611d1c57600080fd5b50505060405180519050600260009054906101000a900473ffffffffffffffffffffffffffffffffffffffff1673ffffffffffffffffffffffffffffffffffffffff1663313ce5676000604051602001526040518163ffffffff167c0100000000000000000000000000000000000000000000000000000000028152600401602060405180830381600087803b1515611db457600080fd5b6102c65a03f11515611dc557600080fd5b50505060405180519050600a0a6124d2565b611de085610c97565b61250e565b611dee846120e2565b6124b6565b9050919050565b611ec282828473ffffffffffffffffffffffffffffffffffffffff166370a08231306000604051602001526040518263ffffffff167c0100000000000000000000000000000000000000000000000000000000028152600401808273ffffffffffffffffffffffffffffffffffffffff1673ffffffffffffffffffffffffffffffffffffffff168152602001915050602060405180830381600087803b1515611ea257600080fd5b6102c65a03f11515611eb357600080fd5b50505060405180519050610b8b565b5050565b611ef4336000357fffffffff000000000000000000000000000000000000000000000000000000001661223b565b1515611eff57600080fd5b60008060043591506024359050806000191682600019163373ffffffffffffffffffffffffffffffffffffffff166000357fffffffff00000000000000000000000000000000000000000000000000000000167bffffffffffffffffffffffffffffffffffffffffffffffffffffffff19163460003660405180848152602001806020018281038252848482818152602001925080828437820191505094505050505060405180910390a46000600160146101000a81548160ff0219169083151502179055505050565b6000809054906101000a900473ffffffffffffffffffffffffffffffffffffffff1681565b61201c336000357fffffffff000000000000000000000000000000000000000000000000000000001661223b565b151561202757600080fd5b8273ffffffffffffffffffffffffffffffffffffffff166340c10f1983836040518363ffffffff167c0100000000000000000000000000000000000000000000000000000000028152600401808373ffffffffffffffffffffffffffffffffffffffff1673ffffffffffffffffffffffffffffffffffffffff16815260200182815260200192505050600060405180830381600087803b15156120c957600080fd5b6102c65a03f115156120da57600080fd5b505050505050565b6000600160149054906101000a900460ff1615151561210057600080fd5b600560008373ffffffffffffffffffffffffffffffffffffffff1673ffffffffffffffffffffffffffffffffffffffff168152602001908152602001600020549050919050565b612175336000357fffffffff000000000000000000000000000000000000000000000000000000001661223b565b151561218057600080fd5b8273ffffffffffffffffffffffffffffffffffffffff16639dc29fac83836040518363ffffffff167c0100000000000000000000000000000000000000000000000000000000028152600401808373ffffffffffffffffffffffffffffffffffffffff1673ffffffffffffffffffffffffffffffffffffffff16815260200182815260200192505050600060405180830381600087803b151561222257600080fd5b6102c65a03f1151561223357600080fd5b505050505050565b60003073ffffffffffffffffffffffffffffffffffffffff168373ffffffffffffffffffffffffffffffffffffffff16141561227a5760019050612494565b600160009054906101000a900473ffffffffffffffffffffffffffffffffffffffff1673ffffffffffffffffffffffffffffffffffffffff168373ffffffffffffffffffffffffffffffffffffffff1614156122d95760019050612494565b600073ffffffffffffffffffffffffffffffffffffffff166000809054906101000a900473ffffffffffffffffffffffffffffffffffffffff1673ffffffffffffffffffffffffffffffffffffffff1614156123385760009050612494565b6000809054906101000a900473ffffffffffffffffffffffffffffffffffffffff1673ffffffffffffffffffffffffffffffffffffffff1663b70096138430856000604051602001526040518463ffffffff167c0100000000000000000000000000000000000000000000000000000000028152600401808473ffffffffffffffffffffffffffffffffffffffff1673ffffffffffffffffffffffffffffffffffffffff1681526020018373ffffffffffffffffffffffffffffffffffffffff1673ffffffffffffffffffffffffffffffffffffffff168152602001827bffffffffffffffffffffffffffffffffffffffffffffffffffffffff19167bffffffffffffffffffffffffffffffffffffffffffffffffffffffff191681526020019350505050602060405180830381600087803b151561247657600080fd5b6102c65a03f1151561248757600080fd5b5050506040518051905090505b92915050565b600082828401915081101515156124b057600080fd5b92915050565b600082828403915081111515156124cc57600080fd5b92915050565b6000816124fc6124ea85670de0b6b3a7640000612552565b6002858115156124f657fe5b0461249a565b81151561250557fe5b04905092915050565b6000670de0b6b3a76400006125406125268585612552565b6002670de0b6b3a764000081151561253a57fe5b0461249a565b81151561254957fe5b04905092915050565b6000808214806125715750828283850292508281151561256e57fe5b04145b151561257c57600080fd5b929150505600a165627a7a72305820ebfd998a32b4dda1fd88796f9d6f99ddec057b972341e2cbe4ae5586e4bca7c60029",
  "source": "pragma solidity 0.4.18;\r\n\r\nimport \"./math.sol\";\r\nimport \"./token.sol\";\r\nimport \"./stop.sol\";\r\nimport \"./multivault.sol\";\r\n\r\nimport \"./NetworkParameters.sol\";\r\n\r\ncontract Wallet is DSMultiVault, DSMath, DSStop {\r\n    \r\n    NetworkParameters LendroidNetworkParameters;\r\n\r\n    mapping (address => uint) fundingBalances; // Simple Funding balance tracker\r\n    mapping (address => uint) collateralBalances; // Simple Collateral balance tracker\r\n    mapping (address => uint) marginAccountBalances; // Simple margin account balance tracker\r\n    mapping (address => mapping (bytes32 => uint)) positionBalances; // Trade positions, keys are position hashes\r\n    mapping (address => uint) wranglerBalances; // Simple Wrangler balance tracker\r\n\r\n    /// @dev Throws if called by any account.\r\n    function() {\r\n        revert();\r\n    }\r\n\r\n    /// @dev Allows owner to set the NetworkParameters contract.\r\n    /// @param _address Address of the NetworkParameters contract.\r\n    function setLendroidNetworkParameters(address _address)\r\n        public \r\n        stoppable\r\n        auth// owner\r\n        returns (bool) \r\n    {\r\n        LendroidNetworkParameters = NetworkParameters(_address);\r\n        return true;\r\n    }\r\n    \r\n    // Deposit funds\r\n    function depositLendingFunds() \r\n        public\r\n        stoppable\r\n        payable\r\n        auth\r\n        returns (bool)\r\n    {\r\n        fundingBalances[address(this)] = add(fundingBalances[address(this)], msg.value);\r\n        return true;\r\n    }\r\n    \r\n    function getFundingBalance() \r\n        public\r\n        stoppable\r\n        constant\r\n        returns (uint)\r\n    {\r\n        return fundingBalances[address(this)];\r\n    }\r\n    \r\n    function depositCollateral() \r\n        public\r\n        stoppable\r\n        payable\r\n        returns (bool)\r\n    {\r\n        \r\n        address _token = LendroidNetworkParameters.getTokenAddressBySymbol(\"W-ETH\");\r\n        // pull\r\n        // pull(DSToken(_token), msg.sender, msg.value);\r\n        collateralBalances[msg.sender] = add(collateralBalances[msg.sender], msg.value);\r\n        return true;\r\n    }\r\n    \r\n    // Withdraw funds\r\n    function withdrawCollateral(uint _amount) \r\n        public\r\n        stoppable\r\n        returns (bool)\r\n    {\r\n        // TODO: Verify margin account is healthy\r\n        require(\r\n            (_amount > 0) &&\r\n            (_amount <= getMaximumWithdrawableAmount(msg.sender))\r\n        );\r\n        collateralBalances[msg.sender] = sub(collateralBalances[msg.sender], _amount);\r\n        address _token = LendroidNetworkParameters.getTokenAddressBySymbol(\"W-ETH\");\r\n        // push\r\n        // push(DSToken(_token), msg.sender, _amount);\r\n        msg.sender.transfer(_amount);\r\n        return true;\r\n    }\r\n\r\n    function getCollateralBalance(\r\n            address _address\r\n        ) \r\n        public\r\n        stoppable\r\n        constant\r\n        returns (uint)\r\n    {\r\n        return collateralBalances[_address];\r\n    }\r\n\r\n    function getMarginAccountBalance(\r\n            address _address\r\n        ) \r\n        public\r\n        stoppable\r\n        constant\r\n        returns (uint)\r\n    {\r\n        return marginAccountBalances[_address];\r\n    }\r\n\r\n    // Get maximum amount that can be borrowed\r\n    function getMaximumBorrowableAmount(\r\n            address _address\r\n        )\r\n        public\r\n        stoppable\r\n        constant\r\n        returns (uint)\r\n    {\r\n        return sub(\r\n            wmul(\r\n                wdiv(\r\n                    LendroidNetworkParameters.initialMarginLevel(),\r\n                    10 ** LendroidNetworkParameters.decimals()\r\n                ),\r\n                getCollateralBalance(_address)\r\n            ),\r\n            getMarginAccountBalance(_address)\r\n        );\r\n    }\r\n    \r\n    // Get maximum amount that can be borrowed\r\n    function getMaximumWithdrawableAmount(\r\n            address _address\r\n        )\r\n        public\r\n        stoppable\r\n        constant\r\n        returns (uint)\r\n    {\r\n        return sub(\r\n            getCollateralBalance(_address),\r\n            wdiv(\r\n                getMarginAccountBalance(_address),\r\n                wdiv(\r\n                    LendroidNetworkParameters.initialMarginLevel(),\r\n                    10 ** LendroidNetworkParameters.decimals()\r\n                )\r\n            )\r\n        );\r\n    }\r\n\r\n    // authorized call to reshuffle balances\r\n    function encumberCollateral(\r\n            address _borrower,\r\n            uint _loanTokenAmount\r\n        )\r\n        public\r\n        stoppable\r\n        // auth// loanmanager\r\n        returns (bool)\r\n    {\r\n        // Check eligibility\r\n        // lender has enough funds to lend loan\r\n        // require(this.balance >= _loanTokenAmount);\r\n        require(fundingBalances[address(this)] >= _loanTokenAmount);\r\n        // Update fundingBalances\r\n        fundingBalances[address(this)] = sub(fundingBalances[address(this)], _loanTokenAmount);\r\n        // Update marginAccountBalances\r\n        marginAccountBalances[_borrower] = add(marginAccountBalances[_borrower], _loanTokenAmount);\r\n        \r\n        return true;\r\n    }\r\n\r\n    // authorized call to reshuffle balances\r\n    function unEncumberCollateral(\r\n            address _borrower,\r\n            uint _loanTokenAmount,\r\n            uint _loanTokenAmountPaid\r\n        )\r\n        public\r\n        stoppable\r\n        // auth// loanmanager\r\n        returns (bool)\r\n    {\r\n        // Check eligibility\r\n        // borrower has enough funds to repay loan\r\n        require(marginAccountBalances[_borrower] >= _loanTokenAmount);\r\n        // Update loanBalances\r\n        marginAccountBalances[_borrower] = sub(marginAccountBalances[_borrower], _loanTokenAmount);\r\n        // Update fundingBalances\r\n        fundingBalances[address(this)] = add(fundingBalances[address(this)], _loanTokenAmountPaid);\r\n        \r\n        return true;\r\n    }\r\n\r\n}",
  "sourcePath": "C:\\work\\programming\\ethereum\\lendroid\\protocol-demo\\contracts\\Wallet.sol",
  "compiler": {
    "name": "solc",
    "version": "0.4.18+commit.9cf6e910.Emscripten.clang"
  },
  "schemaVersion": "1.0.1",
  "updatedAt": "2017-11-11T14:40:10.713Z"
}