{
  "contractName": "Wallet",
  "abi": [
    {
      "constant": false,
      "inputs": [],
      "name": "stop",
      "outputs": [],
      "payable": false,
      "stateMutability": "nonpayable",
      "type": "function"
    },
    {
      "constant": false,
      "inputs": [
        {
          "name": "owner_",
          "type": "address"
        }
      ],
      "name": "setOwner",
      "outputs": [
        {
          "name": "",
          "type": "uint256"
        }
      ],
      "payable": false,
      "stateMutability": "nonpayable",
      "type": "function"
    },
    {
      "constant": false,
      "inputs": [
        {
          "name": "_borrower",
          "type": "address"
        },
        {
          "name": "_positionAmount",
          "type": "uint256"
        },
        {
          "name": "wad",
          "type": "uint256"
        }
      ],
      "name": "openPosition",
      "outputs": [
        {
          "name": "",
          "type": "bool"
        }
      ],
      "payable": false,
      "stateMutability": "nonpayable",
      "type": "function"
    },
    {
      "constant": false,
      "inputs": [
        {
          "name": "_borrower",
          "type": "address"
        },
        {
          "name": "_positionAmount",
          "type": "uint256"
        },
        {
          "name": "wad",
          "type": "uint256"
        }
      ],
      "name": "depositLendingFunds",
      "outputs": [
        {
          "name": "",
          "type": "bool"
        },
        {
          "name": "",
          "type": "uint256"
        }
      ],
      "payable": true,
      "stateMutability": "payable",
      "type": "function"
    },
    {
      "constant": false,
      "inputs": [
        {
          "name": "token",
          "type": "address"
        },
        {
          "name": "dst",
          "type": "address"
        },
        {
          "name": "wad",
          "type": "uint256"
        }
      ],
      "name": "push",
      "outputs": [
        {
          "name": "",
          "type": "bool"
        }
      ],
      "payable": false,
      "stateMutability": "nonpayable",
      "type": "function"
    },
    {
      "constant": false,
      "inputs": [
        {
          "name": "_borrower",
          "type": "address"
        },
        {
          "name": "_loanTokenAmount",
          "type": "uint256"
        },
        {
          "name": "wad",
          "type": "uint256"
        }
      ],
      "name": "encumberCollateral",
      "outputs": [
        {
          "name": "",
          "type": "bool"
        }
      ],
      "payable": false,
      "stateMutability": "nonpayable",
      "type": "function"
    },
    {
      "constant": true,
      "inputs": [
        {
          "name": "_address",
          "type": "address"
        },
        {
          "name": "wad",
          "type": "uint256"
        },
        {
          "name": "_loanTokenAmount",
          "type": "uint256"
        },
        {
          "name": "_collateralTokenAmount",
          "type": "uint256"
        },
        {
          "name": "_repayAmount",
          "type": "uint256"
        },
        {
          "name": "_lender",
          "type": "address"
        },
        {
          "name": "_borrower",
          "type": "address"
        },
        {
          "name": "_loanHash",
          "type": "bytes32"
        }
      ],
      "name": "getFundingBalance",
      "outputs": [
        {
          "name": "",
          "type": "uint256"
        }
      ],
      "payable": false,
      "stateMutability": "view",
      "type": "function"
    },
    {
      "constant": false,
      "inputs": [
        {
          "name": "token",
          "type": "address"
        },
        {
          "name": "wad",
          "type": "uint256"
        },
        {
          "name": "_loanTokenAmountPaid",
          "type": "uint256"
        }
      ],
      "name": "mint",
      "outputs": [
        {
          "name": "",
          "type": "bool"
        }
      ],
      "payable": false,
      "stateMutability": "nonpayable",
      "type": "function"
    },
    {
      "constant": true,
      "inputs": [
        {
          "name": "_address",
          "type": "address"
        },
        {
          "name": "src",
          "type": "address"
        },
        {
          "name": "wad",
          "type": "uint256"
        }
      ],
      "name": "getCurrentMargin",
      "outputs": [
        {
          "name": "",
          "type": "uint256"
        }
      ],
      "payable": false,
      "stateMutability": "view",
      "type": "function"
    },
    {
      "constant": true,
      "inputs": [
        {
          "name": "_address",
          "type": "address"
        },
        {
          "name": "wad",
          "type": "uint256"
        },
        {
          "name": "_loanTokenAmountPaid",
          "type": "uint256"
        }
      ],
      "name": "getMaximumWithdrawableAmount",
      "outputs": [
        {
          "name": "",
          "type": "uint256"
        }
      ],
      "payable": false,
      "stateMutability": "view",
      "type": "function"
    },
    {
      "constant": false,
      "inputs": [
        {
          "name": "_borrower",
          "type": "address"
        },
        {
          "name": "_loanTokenAmount",
          "type": "uint256"
        },
        {
          "name": "_loanTokenAmountPaid",
          "type": "uint256"
        }
      ],
      "name": "unEncumberCollateral",
      "outputs": [
        {
          "name": "",
          "type": "bool"
        }
      ],
      "payable": false,
      "stateMutability": "nonpayable",
      "type": "function"
    },
    {
      "constant": false,
      "inputs": [
        {
          "name": "_amount",
          "type": "uint256"
        },
        {
          "name": "_loanTokenAmount",
          "type": "uint256"
        },
        {
          "name": "_loanTokenAmountPaid",
          "type": "uint256"
        }
      ],
      "name": "withdrawCollateral",
      "outputs": [
        {
          "name": "",
          "type": "bool"
        }
      ],
      "payable": false,
      "stateMutability": "nonpayable",
      "type": "function"
    },
    {
      "constant": false,
      "inputs": [
        {
          "name": "token",
          "type": "address"
        },
        {
          "name": "src",
          "type": "address"
        }
      ],
      "name": "pull",
      "outputs": [
        {
          "name": "",
          "type": "bool"
        }
      ],
      "payable": false,
      "stateMutability": "nonpayable",
      "type": "function"
    },
    {
      "constant": false,
      "inputs": [
        {
          "name": "token",
          "type": "address"
        },
        {
          "name": "src",
          "type": "address"
        },
        {
          "name": "wad",
          "type": "uint256"
        }
      ],
      "name": "depositCollateral",
      "outputs": [
        {
          "name": "",
          "type": "bool"
        }
      ],
      "payable": true,
      "stateMutability": "payable",
      "type": "function"
    },
    {
      "constant": false,
      "inputs": [
        {
          "name": "token",
          "type": "address"
        },
        {
          "name": "src",
          "type": "address"
        },
        {
          "name": "wad",
          "type": "uint256"
        }
      ],
      "name": "pull",
      "outputs": [
        {
          "name": "",
          "type": "bool"
        }
      ],
      "payable": false,
      "stateMutability": "nonpayable",
      "type": "function"
    },
    {
      "constant": false,
      "inputs": [
        {
          "name": "_borrower",
          "type": "address"
        },
        {
          "name": "_positionAmount",
          "type": "uint256"
        },
        {
          "name": "wad",
          "type": "uint256"
        }
      ],
      "name": "closePosition",
      "outputs": [
        {
          "name": "",
          "type": "bool"
        }
      ],
      "payable": false,
      "stateMutability": "nonpayable",
      "type": "function"
    },
    {
      "constant": true,
      "inputs": [
        {
          "name": "_borrower",
          "type": "address"
        },
        {
          "name": "_positionAmount",
          "type": "uint256"
        }
      ],
      "name": "stopped",
      "outputs": [
        {
          "name": "",
          "type": "bool"
        }
      ],
      "payable": false,
      "stateMutability": "view",
      "type": "function"
    },
    {
      "constant": false,
      "inputs": [
        {
          "name": "authority_",
          "type": "address"
        },
        {
          "name": "wad",
          "type": "uint256"
        }
      ],
      "name": "setAuthority",
      "outputs": [
        {
          "name": "",
          "type": "bool"
        }
      ],
      "payable": false,
      "stateMutability": "nonpayable",
      "type": "function"
    },
    {
      "constant": false,
      "inputs": [
        {
          "name": "_address",
          "type": "address"
        }
      ],
      "name": "setLendroidNetworkParameters",
      "outputs": [
        {
          "name": "",
          "type": "bool"
        }
      ],
      "payable": false,
      "stateMutability": "nonpayable",
      "type": "function"
    },
    {
      "constant": false,
      "inputs": [
        {
          "name": "token",
          "type": "address"
        },
        {
          "name": "wad",
          "type": "uint256"
        },
        {
          "name": "wad",
          "type": "uint256"
        }
      ],
      "name": "burn",
      "outputs": [
        {
          "name": "",
          "type": "bool"
        }
      ],
      "payable": false,
      "stateMutability": "nonpayable",
      "type": "function"
    },
    {
      "constant": true,
      "inputs": [
        {
          "name": "token",
          "type": "address"
        },
        {
          "name": "_address",
          "type": "address"
        }
      ],
      "name": "owner",
      "outputs": [
        {
          "name": "",
          "type": "address"
        }
      ],
      "payable": false,
      "stateMutability": "view",
      "type": "function"
    },
    {
      "constant": true,
      "inputs": [
        {
          "name": "_address",
          "type": "address"
        },
        {
          "name": "dst",
          "type": "address"
        }
      ],
      "name": "getMaximumPositionOpenableAmount",
      "outputs": [
        {
          "name": "",
          "type": "uint256"
        }
      ],
      "payable": false,
      "stateMutability": "view",
      "type": "function"
    },
    {
      "constant": true,
      "inputs": [
        {
          "name": "_address",
          "type": "address"
        },
        {
          "name": "guy",
          "type": "address"
        },
        {
          "name": "wad",
          "type": "uint256"
        },
        {
          "name": "_toAccountType",
          "type": "uint8"
        }
      ],
      "name": "getMarginValue",
      "outputs": [
        {
          "name": "",
          "type": "uint256"
        }
      ],
      "payable": false,
      "stateMutability": "view",
      "type": "function"
    },
    {
      "constant": false,
      "inputs": [
        {
          "name": "token",
          "type": "address"
        },
        {
          "name": "wad",
          "type": "uint256"
        },
        {
          "name": "wad",
          "type": "uint256"
        }
      ],
      "name": "burn",
      "outputs": [
        {
          "name": "",
          "type": "address"
        }
      ],
      "payable": false,
      "stateMutability": "nonpayable",
      "type": "function"
    },
    {
      "constant": true,
      "inputs": [
        {
          "name": "_address",
          "type": "address"
        },
        {
          "name": "guy",
          "type": "address"
        },
        {
          "name": "wad",
          "type": "uint256"
        }
      ],
      "name": "getTotalBorrowedValue",
      "outputs": [
        {
          "name": "",
          "type": "uint256"
        }
      ],
      "payable": false,
      "stateMutability": "view",
      "type": "function"
    },
    {
      "anonymous": false,
      "inputs": [
        {
          "indexed": true,
          "name": "_address",
          "type": "address"
        },
        {
          "name": "dst",
          "type": "address"
        }
      ],
      "name": "getNetValue",
      "type": "function",
      "constant": true,
      "outputs": [
        {
          "name": "",
          "type": "uint256"
        }
      ],
      "payable": false,
      "stateMutability": "view"
    },
    {
      "anonymous": false,
      "inputs": [
        {
          "indexed": true,
          "name": "_address",
          "type": "address"
        },
        {
          "name": "guy",
          "type": "address"
        },
        {
          "name": "wad",
          "type": "uint256"
        }
      ],
      "name": "getMaximumBorrowableAmount",
      "type": "function",
      "constant": true,
      "outputs": [
        {
          "name": "",
          "type": "uint256"
        }
      ],
      "payable": false,
      "stateMutability": "view"
    },
    {
      "anonymous": true,
      "inputs": [
        {
          "indexed": true,
          "name": "token",
          "type": "address"
        },
        {
          "indexed": true,
          "name": "dst",
          "type": "address"
        },
        {
          "indexed": true,
          "name": "foo",
          "type": "bytes32"
        },
        {
          "indexed": true,
          "name": "bar",
          "type": "bytes32"
        },
        {
          "indexed": false,
          "name": "wad",
          "type": "uint256"
        },
        {
          "indexed": false,
          "name": "fax",
          "type": "bytes"
        }
      ],
      "name": "push",
      "type": "function",
      "payable": false,
      "stateMutability": "nonpayable",
      "constant": false,
      "outputs": []
    },
    {
      "anonymous": false,
      "inputs": [
        {
          "indexed": true,
          "name": "authority",
          "type": "address"
        }
      ],
      "name": "start",
      "type": "function",
      "constant": false,
      "outputs": [
        {
          "name": "",
          "type": "address"
        }
      ],
      "payable": false,
      "stateMutability": "nonpayable"
    },
    {
      "anonymous": false,
      "inputs": [
        {
          "indexed": true,
          "name": "token",
          "type": "address"
        },
        {
          "name": "guy",
          "type": "address"
        },
        {
          "name": "wad",
          "type": "uint256"
        }
      ],
      "name": "authority",
      "type": "function",
      "constant": true,
      "outputs": [
        {
          "name": "",
          "type": "address"
        }
      ],
      "payable": false,
      "stateMutability": "view"
    },
    {
      "anonymous": true,
      "inputs": [
        {
          "indexed": true,
          "name": "token",
          "type": "address"
        },
        {
          "indexed": true,
          "name": "guy",
          "type": "address"
        },
        {
          "indexed": true,
          "name": "wad",
          "type": "uint256"
        },
        {
          "indexed": true,
          "name": "bar",
          "type": "bytes32"
        },
        {
          "indexed": false,
          "name": "wad",
          "type": "uint256"
        },
        {
          "indexed": false,
          "name": "fax",
          "type": "bytes"
        }
      ],
      "name": "mint",
      "type": "function",
      "constant": false,
      "outputs": [],
      "payable": false,
      "stateMutability": "nonpayable"
    },
    {
      "payable": false,
      "stateMutability": "nonpayable",
      "type": "function",
      "constant": false,
      "inputs": [
        {
          "name": "_address",
          "type": "address"
        }
      ],
      "name": "setLendroidPositionManager",
      "outputs": [
        {
          "name": "",
          "type": "bool"
        }
      ]
    },
    {
      "anonymous": false,
      "inputs": [
        {
          "indexed": true,
          "name": "_address",
          "type": "address"
        },
        {
          "name": "guy",
          "type": "address"
        },
        {
          "name": "wad",
          "type": "uint256"
        }
      ],
      "name": "isMarginAccountHealthy",
      "type": "function",
      "constant": true,
      "outputs": [
        {
          "name": "",
          "type": "bool"
        }
      ],
      "payable": false,
      "stateMutability": "view"
    },
    {
      "anonymous": false,
      "inputs": [
        {
          "indexed": true,
          "name": "_address",
          "type": "address"
        }
      ],
      "name": "setLendroidLoanManager",
      "type": "function",
      "payable": false,
      "stateMutability": "nonpayable",
      "constant": false,
      "outputs": [
        {
          "name": "",
          "type": "bool"
        }
      ]
    },
    {
      "anonymous": false,
      "inputs": [
        {
          "indexed": true,
          "name": "token",
          "type": "address"
        },
        {
          "indexed": true,
          "name": "guy",
          "type": "address"
        },
        {
          "indexed": true,
          "name": "wad",
          "type": "uint256"
        },
        {
          "indexed": true,
          "name": "bar",
          "type": "bytes32"
        },
        {
          "indexed": false,
          "name": "wad",
          "type": "uint256"
        },
        {
          "indexed": false,
          "name": "fax",
          "type": "bytes"
        }
      ],
      "name": "burn",
      "type": "function",
      "constant": false,
      "outputs": [],
      "payable": false,
      "stateMutability": "nonpayable"
    },
    {
      "anonymous": false,
      "inputs": [
        {
          "indexed": true,
          "name": "owner",
          "type": "address"
        }
      ],
      "name": "LogSetOwner",
      "type": "fallback",
      "payable": false,
      "stateMutability": "nonpayable"
    },
    {
      "anonymous": false,
      "inputs": [
        {
          "indexed": true,
          "name": "authority",
          "type": "address"
        },
        {
          "indexed": true,
          "name": "guy",
          "type": "address"
        },
        {
          "indexed": true,
          "name": "foo",
          "type": "bytes32"
        },
        {
          "indexed": true,
          "name": "bar",
          "type": "bytes32"
        },
        {
          "indexed": false,
          "name": "wad",
          "type": "uint256"
        },
        {
          "indexed": false,
          "name": "fax",
          "type": "bytes"
        }
      ],
      "name": "LogSetAuthority",
      "type": "event"
    },
    {
      "anonymous": false,
      "inputs": [
        {
          "indexed": true,
          "name": "owner",
          "type": "address"
        }
      ],
      "name": "LogSetOwner",
      "type": "event"
    },
    {
      "anonymous": true,
      "inputs": [
        {
          "indexed": true,
          "name": "sig",
          "type": "bytes4"
        },
        {
          "indexed": true,
          "name": "guy",
          "type": "address"
        },
        {
          "indexed": true,
          "name": "foo",
          "type": "bytes32"
        },
        {
          "indexed": true,
          "name": "bar",
          "type": "bytes32"
        },
        {
          "indexed": false,
          "name": "wad",
          "type": "uint256"
        },
        {
          "indexed": false,
          "name": "fax",
          "type": "bytes"
        }
      ],
      "name": "LogNote",
      "type": "event"
    }
  ],
  "bytecode": "0x606060405233600160006101000a81548173ffffffffffffffffffffffffffffffffffffffff021916908373ffffffffffffffffffffffffffffffffffffffff1602179055503373ffffffffffffffffffffffffffffffffffffffff167fce241d7ca1f669fee44b6fc00b8eba2df3bb514eed0f6f668f8f89096e81ed9460405160405180910390a261316f806100976000396000f3006060604052600436106101b7576000357c0100000000000000000000000000000000000000000000000000000000900463ffffffff16806307da68f5146101c757806313af4035146101dc578063197897fc146102155780631f9f01ca1461026f57806326e8eda2146102915780633c40b308146102f25780633fdd7ab51461034c57806340c10f191461037557806341204d88146103b75780635792d30a146104045780635ac6d8ab146104515780636112fe2e146104b457806366b3bcb0146104ef5780636f758140146105475780637372c2b514610569578063742fe1f8146105ca57806375f12b21146106245780637a9e5e4b14610651578063885c43cd1461068a57806389afcb44146106db5780638da5cb5b1461071457806390fde0051461076957806396d3a3aa146107b65780639dc29fac14610803578063a2b35d9d14610845578063a9fba73a14610892578063b11b97f5146108df578063b716ba671461092c578063be9a655514610984578063bf7e214f14610999578063c6c3bbe6146109ee578063d05e07e614610a4f578063d9fd46ba14610aa0578063e058a6d014610af1578063f6b911bc14610b42575b34156101c257600080fd5b600080fd5b34156101d257600080fd5b6101da610ba3565b005b34156101e757600080fd5b610213600480803573ffffffffffffffffffffffffffffffffffffffff16906020019091905050610ca5565b005b341561022057600080fd5b610255600480803573ffffffffffffffffffffffffffffffffffffffff16906020019091908035906020019091905050610d87565b604051808215151515815260200191505060405180910390f35b610277610f71565b604051808215151515815260200191505060405180910390f35b341561029c57600080fd5b6102f0600480803573ffffffffffffffffffffffffffffffffffffffff1690602001909190803573ffffffffffffffffffffffffffffffffffffffff1690602001909190803590602001909190505061105b565b005b34156102fd57600080fd5b610332600480803573ffffffffffffffffffffffffffffffffffffffff16906020019091908035906020019091905050611167565b604051808215151515815260200191505060405180910390f35b341561035757600080fd5b61035f611351565b6040518082815260200191505060405180910390f35b341561038057600080fd5b6103b5600480803573ffffffffffffffffffffffffffffffffffffffff169060200190919080359060200190919050506113b4565b005b34156103c257600080fd5b6103ee600480803573ffffffffffffffffffffffffffffffffffffffff16906020019091905050611473565b6040518082815260200191505060405180910390f35b341561040f57600080fd5b61043b600480803573ffffffffffffffffffffffffffffffffffffffff169060200190919050506114b2565b6040518082815260200191505060405180910390f35b341561045c57600080fd5b61049a600480803573ffffffffffffffffffffffffffffffffffffffff16906020019091908035906020019091908035906020019091905050611699565b604051808215151515815260200191505060405180910390f35b34156104bf57600080fd5b6104d56004808035906020019091905050611884565b604051808215151515815260200191505060405180910390f35b34156104fa57600080fd5b610545600480803573ffffffffffffffffffffffffffffffffffffffff1690602001909190803573ffffffffffffffffffffffffffffffffffffffff16906020019091905050611a72565b005b61054f611b3e565b604051808215151515815260200191505060405180910390f35b341561057457600080fd5b6105c8600480803573ffffffffffffffffffffffffffffffffffffffff1690602001909190803573ffffffffffffffffffffffffffffffffffffffff16906020019091908035906020019091905050611cc7565b005b34156105d557600080fd5b61060a600480803573ffffffffffffffffffffffffffffffffffffffff16906020019091908035906020019091905050611e07565b604051808215151515815260200191505060405180910390f35b341561062f57600080fd5b610637611fa3565b604051808215151515815260200191505060405180910390f35b341561065c57600080fd5b610688600480803573ffffffffffffffffffffffffffffffffffffffff16906020019091905050611fb6565b005b341561069557600080fd5b6106c1600480803573ffffffffffffffffffffffffffffffffffffffff16906020019091905050612096565b604051808215151515815260200191505060405180910390f35b34156106e657600080fd5b610712600480803573ffffffffffffffffffffffffffffffffffffffff16906020019091905050612137565b005b341561071f57600080fd5b6107276122b2565b604051808273ffffffffffffffffffffffffffffffffffffffff1673ffffffffffffffffffffffffffffffffffffffff16815260200191505060405180910390f35b341561077457600080fd5b6107a0600480803573ffffffffffffffffffffffffffffffffffffffff169060200190919050506122d8565b6040518082815260200191505060405180910390f35b34156107c157600080fd5b6107ed600480803573ffffffffffffffffffffffffffffffffffffffff1690602001909190505061233d565b6040518082815260200191505060405180910390f35b341561080e57600080fd5b610843600480803573ffffffffffffffffffffffffffffffffffffffff169060200190919080359060200190919050506123a2565b005b341561085057600080fd5b61087c600480803573ffffffffffffffffffffffffffffffffffffffff16906020019091905050612461565b6040518082815260200191505060405180910390f35b341561089d57600080fd5b6108c9600480803573ffffffffffffffffffffffffffffffffffffffff169060200190919050506124c6565b6040518082815260200191505060405180910390f35b34156108ea57600080fd5b610916600480803573ffffffffffffffffffffffffffffffffffffffff1690602001909190505061270c565b6040518082815260200191505060405180910390f35b341561093757600080fd5b610982600480803573ffffffffffffffffffffffffffffffffffffffff1690602001909190803573ffffffffffffffffffffffffffffffffffffffff169060200190919050506127fc565b005b341561098f57600080fd5b6109976128c8565b005b34156109a457600080fd5b6109ac6129cb565b604051808273ffffffffffffffffffffffffffffffffffffffff1673ffffffffffffffffffffffffffffffffffffffff16815260200191505060405180910390f35b34156109f957600080fd5b610a4d600480803573ffffffffffffffffffffffffffffffffffffffff1690602001909190803573ffffffffffffffffffffffffffffffffffffffff169060200190919080359060200190919050506129f0565b005b3415610a5a57600080fd5b610a86600480803573ffffffffffffffffffffffffffffffffffffffff16906020019091905050612ae4565b604051808215151515815260200191505060405180910390f35b3415610aab57600080fd5b610ad7600480803573ffffffffffffffffffffffffffffffffffffffff16906020019091905050612b85565b604051808215151515815260200191505060405180910390f35b3415610afc57600080fd5b610b28600480803573ffffffffffffffffffffffffffffffffffffffff16906020019091905050612c67565b604051808215151515815260200191505060405180910390f35b3415610b4d57600080fd5b610ba1600480803573ffffffffffffffffffffffffffffffffffffffff1690602001909190803573ffffffffffffffffffffffffffffffffffffffff16906020019091908035906020019091905050612d08565b005b610bd1336000357fffffffff0000000000000000000000000000000000000000000000000000000016612dfc565b1515610bdc57600080fd5b60008060043591506024359050806000191682600019163373ffffffffffffffffffffffffffffffffffffffff166000357fffffffff00000000000000000000000000000000000000000000000000000000167bffffffffffffffffffffffffffffffffffffffffffffffffffffffff19163460003660405180848152602001806020018281038252848482818152602001925080828437820191505094505050505060405180910390a460018060146101000a81548160ff0219169083151502179055505050565b610cd3336000357fffffffff0000000000000000000000000000000000000000000000000000000016612dfc565b1515610cde57600080fd5b80600160006101000a81548173ffffffffffffffffffffffffffffffffffffffff021916908373ffffffffffffffffffffffffffffffffffffffff160217905550600160009054906101000a900473ffffffffffffffffffffffffffffffffffffffff1673ffffffffffffffffffffffffffffffffffffffff167fce241d7ca1f669fee44b6fc00b8eba2df3bb514eed0f6f668f8f89096e81ed9460405160405180910390a250565b6000600160149054906101000a900460ff16151515610da557600080fd5b600460009054906101000a900473ffffffffffffffffffffffffffffffffffffffff1673ffffffffffffffffffffffffffffffffffffffff163373ffffffffffffffffffffffffffffffffffffffff16141515610e0157600080fd5b81600860008573ffffffffffffffffffffffffffffffffffffffff1673ffffffffffffffffffffffffffffffffffffffff1681526020019081526020016000205410151515610e4f57600080fd5b610e98600860008573ffffffffffffffffffffffffffffffffffffffff1673ffffffffffffffffffffffffffffffffffffffff168152602001908152602001600020548361305b565b600860008573ffffffffffffffffffffffffffffffffffffffff1673ffffffffffffffffffffffffffffffffffffffff16815260200190815260200160002081905550610f24600760008573ffffffffffffffffffffffffffffffffffffffff1673ffffffffffffffffffffffffffffffffffffffff1681526020019081526020016000205483613077565b600760008573ffffffffffffffffffffffffffffffffffffffff1673ffffffffffffffffffffffffffffffffffffffff168152602001908152602001600020819055506001905092915050565b6000600160149054906101000a900460ff16151515610f8f57600080fd5b610fbd336000357fffffffff0000000000000000000000000000000000000000000000000000000016612dfc565b1515610fc857600080fd5b611011600560003073ffffffffffffffffffffffffffffffffffffffff1673ffffffffffffffffffffffffffffffffffffffff1681526020019081526020016000205434613077565b600560003073ffffffffffffffffffffffffffffffffffffffff1673ffffffffffffffffffffffffffffffffffffffff168152602001908152602001600020819055506001905090565b611089336000357fffffffff0000000000000000000000000000000000000000000000000000000016612dfc565b151561109457600080fd5b8273ffffffffffffffffffffffffffffffffffffffff1663a9059cbb83836000604051602001526040518363ffffffff167c0100000000000000000000000000000000000000000000000000000000028152600401808373ffffffffffffffffffffffffffffffffffffffff1673ffffffffffffffffffffffffffffffffffffffff16815260200182815260200192505050602060405180830381600087803b151561113f57600080fd5b6102c65a03f1151561115057600080fd5b50505060405180519050151561116257fe5b505050565b6000600160149054906101000a900460ff1615151561118557600080fd5b600360009054906101000a900473ffffffffffffffffffffffffffffffffffffffff1673ffffffffffffffffffffffffffffffffffffffff163373ffffffffffffffffffffffffffffffffffffffff161415156111e157600080fd5b81600560003073ffffffffffffffffffffffffffffffffffffffff1673ffffffffffffffffffffffffffffffffffffffff168152602001908152602001600020541015151561122f57600080fd5b611278600560003073ffffffffffffffffffffffffffffffffffffffff1673ffffffffffffffffffffffffffffffffffffffff168152602001908152602001600020548361305b565b600560003073ffffffffffffffffffffffffffffffffffffffff1673ffffffffffffffffffffffffffffffffffffffff16815260200190815260200160002081905550611304600860008573ffffffffffffffffffffffffffffffffffffffff1673ffffffffffffffffffffffffffffffffffffffff1681526020019081526020016000205483613077565b600860008573ffffffffffffffffffffffffffffffffffffffff1673ffffffffffffffffffffffffffffffffffffffff168152602001908152602001600020819055506001905092915050565b6000600160149054906101000a900460ff1615151561136f57600080fd5b600560003073ffffffffffffffffffffffffffffffffffffffff1673ffffffffffffffffffffffffffffffffffffffff16815260200190815260200160002054905090565b6113e2336000357fffffffff0000000000000000000000000000000000000000000000000000000016612dfc565b15156113ed57600080fd5b8173ffffffffffffffffffffffffffffffffffffffff1663a0712d68826040518263ffffffff167c010000000000000000000000000000000000000000000000000000000002815260040180828152602001915050600060405180830381600087803b151561145b57600080fd5b6102c65a03f1151561146c57600080fd5b5050505050565b6000600160149054906101000a900460ff1615151561149157600080fd5b6114ab61149d836124c6565b6114a684612461565b613093565b9050919050565b6000600160149054906101000a900460ff161515156114d057600080fd5b60006114db83612461565b14156114f1576114ea8261233d565b9050611694565b6115a4600260009054906101000a900473ffffffffffffffffffffffffffffffffffffffff1673ffffffffffffffffffffffffffffffffffffffff16631029e85b6000604051602001526040518163ffffffff167c0100000000000000000000000000000000000000000000000000000000028152600401602060405180830381600087803b151561158257600080fd5b6102c65a03f1151561159357600080fd5b505050604051805190506064613093565b6115ad83611473565b111561168f576116886115bf836124c6565b6116836115cb85612461565b61167e600260009054906101000a900473ffffffffffffffffffffffffffffffffffffffff1673ffffffffffffffffffffffffffffffffffffffff16631029e85b6000604051602001526040518163ffffffff167c0100000000000000000000000000000000000000000000000000000000028152600401602060405180830381600087803b151561165c57600080fd5b6102c65a03f1151561166d57600080fd5b505050604051805190506064613093565b6130cf565b61305b565b9050611694565b600090505b919050565b6000600160149054906101000a900460ff161515156116b757600080fd5b600360009054906101000a900473ffffffffffffffffffffffffffffffffffffffff1673ffffffffffffffffffffffffffffffffffffffff163373ffffffffffffffffffffffffffffffffffffffff1614151561171357600080fd5b82600860008673ffffffffffffffffffffffffffffffffffffffff1673ffffffffffffffffffffffffffffffffffffffff168152602001908152602001600020541015151561176157600080fd5b6117aa600860008673ffffffffffffffffffffffffffffffffffffffff1673ffffffffffffffffffffffffffffffffffffffff168152602001908152602001600020548461305b565b600860008673ffffffffffffffffffffffffffffffffffffffff1673ffffffffffffffffffffffffffffffffffffffff16815260200190815260200160002081905550611836600560003073ffffffffffffffffffffffffffffffffffffffff1673ffffffffffffffffffffffffffffffffffffffff1681526020019081526020016000205483613077565b600560003073ffffffffffffffffffffffffffffffffffffffff1673ffffffffffffffffffffffffffffffffffffffff16815260200190815260200160002081905550600190509392505050565b600080600160149054906101000a900460ff161515156118a357600080fd5b6000831180156118bb57506118b7336114b2565b8311155b15156118c657600080fd5b61190f600660003373ffffffffffffffffffffffffffffffffffffffff1673ffffffffffffffffffffffffffffffffffffffff168152602001908152602001600020548461305b565b600660003373ffffffffffffffffffffffffffffffffffffffff1673ffffffffffffffffffffffffffffffffffffffff16815260200190815260200160002081905550600260009054906101000a900473ffffffffffffffffffffffffffffffffffffffff1673ffffffffffffffffffffffffffffffffffffffff1663fa7fdeb76000604051602001526040518163ffffffff167c010000000000000000000000000000000000000000000000000000000002815260040180807f572d4554480000000000000000000000000000000000000000000000000000008152506020019050602060405180830381600087803b1515611a0b57600080fd5b6102c65a03f11515611a1c57600080fd5b5050506040518051905090503373ffffffffffffffffffffffffffffffffffffffff166108fc849081150290604051600060405180830381858888f193505050501515611a6857600080fd5b6001915050919050565b611b3a82828473ffffffffffffffffffffffffffffffffffffffff166370a08231856000604051602001526040518263ffffffff167c0100000000000000000000000000000000000000000000000000000000028152600401808273ffffffffffffffffffffffffffffffffffffffff1673ffffffffffffffffffffffffffffffffffffffff168152602001915050602060405180830381600087803b1515611b1a57600080fd5b6102c65a03f11515611b2b57600080fd5b50505060405180519050611cc7565b5050565b600080600160149054906101000a900460ff16151515611b5d57600080fd5b600260009054906101000a900473ffffffffffffffffffffffffffffffffffffffff1673ffffffffffffffffffffffffffffffffffffffff1663fa7fdeb76000604051602001526040518163ffffffff167c010000000000000000000000000000000000000000000000000000000002815260040180807f572d4554480000000000000000000000000000000000000000000000000000008152506020019050602060405180830381600087803b1515611c1657600080fd5b6102c65a03f11515611c2757600080fd5b505050604051805190509050611c7c600660003373ffffffffffffffffffffffffffffffffffffffff1673ffffffffffffffffffffffffffffffffffffffff1681526020019081526020016000205434613077565b600660003373ffffffffffffffffffffffffffffffffffffffff1673ffffffffffffffffffffffffffffffffffffffff16815260200190815260200160002081905550600191505090565b611cf5336000357fffffffff0000000000000000000000000000000000000000000000000000000016612dfc565b1515611d0057600080fd5b8273ffffffffffffffffffffffffffffffffffffffff166323b872dd8330846000604051602001526040518463ffffffff167c0100000000000000000000000000000000000000000000000000000000028152600401808473ffffffffffffffffffffffffffffffffffffffff1673ffffffffffffffffffffffffffffffffffffffff1681526020018373ffffffffffffffffffffffffffffffffffffffff1673ffffffffffffffffffffffffffffffffffffffff1681526020018281526020019350505050602060405180830381600087803b1515611ddf57600080fd5b6102c65a03f11515611df057600080fd5b505050604051805190501515611e0257fe5b505050565b6000600160149054906101000a900460ff16151515611e2557600080fd5b600460009054906101000a900473ffffffffffffffffffffffffffffffffffffffff1673ffffffffffffffffffffffffffffffffffffffff163373ffffffffffffffffffffffffffffffffffffffff16141515611e8157600080fd5b611eca600860008573ffffffffffffffffffffffffffffffffffffffff1673ffffffffffffffffffffffffffffffffffffffff1681526020019081526020016000205483613077565b600860008573ffffffffffffffffffffffffffffffffffffffff1673ffffffffffffffffffffffffffffffffffffffff16815260200190815260200160002081905550611f56600760008573ffffffffffffffffffffffffffffffffffffffff1673ffffffffffffffffffffffffffffffffffffffff168152602001908152602001600020548361305b565b600760008573ffffffffffffffffffffffffffffffffffffffff1673ffffffffffffffffffffffffffffffffffffffff168152602001908152602001600020819055506001905092915050565b600160149054906101000a900460ff1681565b611fe4336000357fffffffff0000000000000000000000000000000000000000000000000000000016612dfc565b1515611fef57600080fd5b806000806101000a81548173ffffffffffffffffffffffffffffffffffffffff021916908373ffffffffffffffffffffffffffffffffffffffff1602179055506000809054906101000a900473ffffffffffffffffffffffffffffffffffffffff1673ffffffffffffffffffffffffffffffffffffffff167f1abebea81bfa2637f28358c371278fb15ede7ea8dd28d2e03b112ff6d936ada460405160405180910390a250565b6000600160149054906101000a900460ff161515156120b457600080fd5b6120e2336000357fffffffff0000000000000000000000000000000000000000000000000000000016612dfc565b15156120ed57600080fd5b81600260006101000a81548173ffffffffffffffffffffffffffffffffffffffff021916908373ffffffffffffffffffffffffffffffffffffffff16021790555060019050919050565b612165336000357fffffffff0000000000000000000000000000000000000000000000000000000016612dfc565b151561217057600080fd5b8073ffffffffffffffffffffffffffffffffffffffff166342966c688273ffffffffffffffffffffffffffffffffffffffff166370a08231306000604051602001526040518263ffffffff167c0100000000000000000000000000000000000000000000000000000000028152600401808273ffffffffffffffffffffffffffffffffffffffff1673ffffffffffffffffffffffffffffffffffffffff168152602001915050602060405180830381600087803b151561222f57600080fd5b6102c65a03f1151561224057600080fd5b505050604051805190506040518263ffffffff167c010000000000000000000000000000000000000000000000000000000002815260040180828152602001915050600060405180830381600087803b151561229b57600080fd5b6102c65a03f115156122ac57600080fd5b50505050565b600160009054906101000a900473ffffffffffffffffffffffffffffffffffffffff1681565b6000600160149054906101000a900460ff161515156122f657600080fd5b600860008373ffffffffffffffffffffffffffffffffffffffff1673ffffffffffffffffffffffffffffffffffffffff168152602001908152602001600020549050919050565b6000600160149054906101000a900460ff1615151561235b57600080fd5b600660008373ffffffffffffffffffffffffffffffffffffffff1673ffffffffffffffffffffffffffffffffffffffff168152602001908152602001600020549050919050565b6123d0336000357fffffffff0000000000000000000000000000000000000000000000000000000016612dfc565b15156123db57600080fd5b8173ffffffffffffffffffffffffffffffffffffffff166342966c68826040518263ffffffff167c010000000000000000000000000000000000000000000000000000000002815260040180828152602001915050600060405180830381600087803b151561244957600080fd5b6102c65a03f1151561245a57600080fd5b5050505050565b6000600160149054906101000a900460ff1615151561247f57600080fd5b600860008373ffffffffffffffffffffffffffffffffffffffff1673ffffffffffffffffffffffffffffffffffffffff168152602001908152602001600020549050919050565b6000600160149054906101000a900460ff161515156124e457600080fd5b6127056126c06124f38461233d565b6126bb600460009054906101000a900473ffffffffffffffffffffffffffffffffffffffff1673ffffffffffffffffffffffffffffffffffffffff16632d675684876000604051602001526040518263ffffffff167c0100000000000000000000000000000000000000000000000000000000028152600401808273ffffffffffffffffffffffffffffffffffffffff1673ffffffffffffffffffffffffffffffffffffffff168152602001915050602060405180830381600087803b15156125bb57600080fd5b6102c65a03f115156125cc57600080fd5b50505060405180519050600360009054906101000a900473ffffffffffffffffffffffffffffffffffffffff1673ffffffffffffffffffffffffffffffffffffffff16638f32a16c886000604051602001526040518263ffffffff167c0100000000000000000000000000000000000000000000000000000000028152600401808273ffffffffffffffffffffffffffffffffffffffff1673ffffffffffffffffffffffffffffffffffffffff168152602001915050602060405180830381600087803b151561269b57600080fd5b6102c65a03f115156126ac57600080fd5b50505060405180519050613077565b613077565b600760008573ffffffffffffffffffffffffffffffffffffffff1673ffffffffffffffffffffffffffffffffffffffff1681526020019081526020016000205461305b565b9050919050565b6000600160149054906101000a900460ff1615151561272a57600080fd5b6127f56127e7600260009054906101000a900473ffffffffffffffffffffffffffffffffffffffff1673ffffffffffffffffffffffffffffffffffffffff166329a260b86000604051602001526040518163ffffffff167c0100000000000000000000000000000000000000000000000000000000028152600401602060405180830381600087803b15156127be57600080fd5b6102c65a03f115156127cf57600080fd5b505050604051805190506127e28561233d565b6130ff565b6127f084612461565b61305b565b9050919050565b6128c482828473ffffffffffffffffffffffffffffffffffffffff166370a08231306000604051602001526040518263ffffffff167c0100000000000000000000000000000000000000000000000000000000028152600401808273ffffffffffffffffffffffffffffffffffffffff1673ffffffffffffffffffffffffffffffffffffffff168152602001915050602060405180830381600087803b15156128a457600080fd5b6102c65a03f115156128b557600080fd5b5050506040518051905061105b565b5050565b6128f6336000357fffffffff0000000000000000000000000000000000000000000000000000000016612dfc565b151561290157600080fd5b60008060043591506024359050806000191682600019163373ffffffffffffffffffffffffffffffffffffffff166000357fffffffff00000000000000000000000000000000000000000000000000000000167bffffffffffffffffffffffffffffffffffffffffffffffffffffffff19163460003660405180848152602001806020018281038252848482818152602001925080828437820191505094505050505060405180910390a46000600160146101000a81548160ff0219169083151502179055505050565b6000809054906101000a900473ffffffffffffffffffffffffffffffffffffffff1681565b612a1e336000357fffffffff0000000000000000000000000000000000000000000000000000000016612dfc565b1515612a2957600080fd5b8273ffffffffffffffffffffffffffffffffffffffff166340c10f1983836040518363ffffffff167c0100000000000000000000000000000000000000000000000000000000028152600401808373ffffffffffffffffffffffffffffffffffffffff1673ffffffffffffffffffffffffffffffffffffffff16815260200182815260200192505050600060405180830381600087803b1515612acb57600080fd5b6102c65a03f11515612adc57600080fd5b505050505050565b6000600160149054906101000a900460ff16151515612b0257600080fd5b612b30336000357fffffffff0000000000000000000000000000000000000000000000000000000016612dfc565b1515612b3b57600080fd5b81600460006101000a81548173ffffffffffffffffffffffffffffffffffffffff021916908373ffffffffffffffffffffffffffffffffffffffff16021790555060019050919050565b6000600160149054906101000a900460ff16151515612ba357600080fd5b612c56600260009054906101000a900473ffffffffffffffffffffffffffffffffffffffff1673ffffffffffffffffffffffffffffffffffffffff16632262697e6000604051602001526040518163ffffffff167c0100000000000000000000000000000000000000000000000000000000028152600401602060405180830381600087803b1515612c3457600080fd5b6102c65a03f11515612c4557600080fd5b505050604051805190506064613093565b612c5f83611473565b119050919050565b6000600160149054906101000a900460ff16151515612c8557600080fd5b612cb3336000357fffffffff0000000000000000000000000000000000000000000000000000000016612dfc565b1515612cbe57600080fd5b81600360006101000a81548173ffffffffffffffffffffffffffffffffffffffff021916908373ffffffffffffffffffffffffffffffffffffffff16021790555060019050919050565b612d36336000357fffffffff0000000000000000000000000000000000000000000000000000000016612dfc565b1515612d4157600080fd5b8273ffffffffffffffffffffffffffffffffffffffff16639dc29fac83836040518363ffffffff167c0100000000000000000000000000000000000000000000000000000000028152600401808373ffffffffffffffffffffffffffffffffffffffff1673ffffffffffffffffffffffffffffffffffffffff16815260200182815260200192505050600060405180830381600087803b1515612de357600080fd5b6102c65a03f11515612df457600080fd5b505050505050565b60003073ffffffffffffffffffffffffffffffffffffffff168373ffffffffffffffffffffffffffffffffffffffff161415612e3b5760019050613055565b600160009054906101000a900473ffffffffffffffffffffffffffffffffffffffff1673ffffffffffffffffffffffffffffffffffffffff168373ffffffffffffffffffffffffffffffffffffffff161415612e9a5760019050613055565b600073ffffffffffffffffffffffffffffffffffffffff166000809054906101000a900473ffffffffffffffffffffffffffffffffffffffff1673ffffffffffffffffffffffffffffffffffffffff161415612ef95760009050613055565b6000809054906101000a900473ffffffffffffffffffffffffffffffffffffffff1673ffffffffffffffffffffffffffffffffffffffff1663b70096138430856000604051602001526040518463ffffffff167c0100000000000000000000000000000000000000000000000000000000028152600401808473ffffffffffffffffffffffffffffffffffffffff1673ffffffffffffffffffffffffffffffffffffffff1681526020018373ffffffffffffffffffffffffffffffffffffffff1673ffffffffffffffffffffffffffffffffffffffff168152602001827bffffffffffffffffffffffffffffffffffffffffffffffffffffffff19167bffffffffffffffffffffffffffffffffffffffffffffffffffffffff191681526020019350505050602060405180830381600087803b151561303757600080fd5b6102c65a03f1151561304857600080fd5b5050506040518051905090505b92915050565b6000828284039150811115151561307157600080fd5b92915050565b6000828284019150811015151561308d57600080fd5b92915050565b6000816130bd6130ab85670de0b6b3a76400006130cf565b6002858115156130b757fe5b04613077565b8115156130c657fe5b04905092915050565b6000808214806130ee575082828385029250828115156130eb57fe5b04145b15156130f957600080fd5b92915050565b6000670de0b6b3a764000061313161311785856130cf565b6002670de0b6b3a764000081151561312b57fe5b04613077565b81151561313a57fe5b049050929150505600a165627a7a72305820e282e8be09177b2bd64f30f3d62963f1125dd7007cfe272c58648bef1b9175a30029",
  "source": "pragma solidity 0.4.18;\n\nimport \"./helpers/math.sol\";\nimport \"./helpers/token.sol\";\nimport \"./helpers/stop.sol\";\nimport \"./helpers/multivault.sol\";\n\nimport \"./NetworkParameters.sol\";\nimport \"./LoanManager.sol\";\nimport \"./PositionManager.sol\";\n\n\ncontract Wallet is DSMultiVault, DSMath, DSStop {\n\n    NetworkParameters LendroidNetworkParameters;\n    LoanManager LendroidLoanManager;\n    PositionManager LendroidPositionManager;\n\n    mapping (address => uint) fundingBalances; // Simple Funding balance tracker\n    mapping (address => uint) collateralBalances; // Simple Collateral balance tracker\n    mapping (address => uint) openPositionAmounts; // Simple balance tracker for position amounts opened\n    mapping (address => uint) loanBalances; // Simple balance tracker for loan amounts borrowed\n    mapping (address => uint) wranglerBalances; // Simple Wrangler balance tracker\n\n    modifier onlyLoanManager() {\n        require(msg.sender == address(LendroidLoanManager));\n        _;\n    }\n\n    modifier onlyPositionManager() {\n        require(msg.sender == address(LendroidPositionManager));\n        _;\n    }\n\n    /// @dev Throws if called by any account.\n    function() {\n        revert();\n    }\n\n    /// @dev Allows owner to set the NetworkParameters contract.\n    /// @param _address Address of the NetworkParameters contract.\n    function setLendroidNetworkParameters(address _address)\n        public\n        stoppable\n        auth// owner\n        returns (bool)\n    {\n        LendroidNetworkParameters = NetworkParameters(_address);\n        return true;\n    }\n\n    /// @dev Allows owner to set the LoanManager contract.\n    /// @param _address Address of the LoanManager contract.\n    function setLendroidLoanManager(address _address)\n        public\n        stoppable\n        auth// owner\n        returns (bool)\n    {\n        LendroidLoanManager = LoanManager(_address);\n        return true;\n    }\n\n    /// @dev Allows owner to set the PositionManager contract.\n    /// @param _address Address of the PositionManager contract.\n    function setLendroidPositionManager(address _address)\n        public\n        stoppable\n        auth// owner\n        returns (bool)\n    {\n        LendroidPositionManager = PositionManager(_address);\n        return true;\n    }\n\n    // Deposit funds\n    function depositLendingFunds()\n        public\n        stoppable\n        payable\n        auth\n        returns (bool)\n    {\n        fundingBalances[address(this)] = add(fundingBalances[address(this)], msg.value);\n        return true;\n    }\n\n    function getFundingBalance()\n        public\n        stoppable\n        constant\n        returns (uint)\n    {\n        return fundingBalances[address(this)];\n    }\n\n    function depositCollateral()\n        public\n        stoppable\n        payable\n        returns (bool)\n    {\n\n        address _token = LendroidNetworkParameters.getTokenAddressBySymbol(\"W-ETH\");\n        // pull\n        // pull(DSToken(_token), msg.sender, msg.value);\n        collateralBalances[msg.sender] = add(collateralBalances[msg.sender], msg.value);\n        return true;\n    }\n\n    // Withdraw funds\n    function withdrawCollateral(uint _amount)\n        public\n        stoppable\n        returns (bool)\n    {\n        // TODO: Verify margin account is healthy\n        require(\n            (_amount > 0) &&\n            (_amount <= getMaximumWithdrawableAmount(msg.sender))\n        );\n        collateralBalances[msg.sender] = sub(collateralBalances[msg.sender], _amount);\n        address _token = LendroidNetworkParameters.getTokenAddressBySymbol(\"W-ETH\");\n        // push\n        // push(DSToken(_token), msg.sender, _amount);\n        msg.sender.transfer(_amount);\n        return true;\n    }\n\n    function getMarginValue(\n            address _address\n        )\n        public\n        stoppable\n        constant\n        returns (uint)\n    {\n        return collateralBalances[_address];\n    }\n\n    function getNetValue(\n            address _address\n        )\n        public\n        stoppable\n        constant\n        returns (uint)\n    {\n        return sub(\n            add(\n                getMarginValue(_address),\n                add(\n                    LendroidPositionManager.unRealizedPLs(_address),\n                    LendroidLoanManager.unRealizedLendingFees(_address)\n                )\n            ),\n            openPositionAmounts[_address]\n        );\n    }\n\n    function getTotalBorrowedValue(\n            address _address\n        )\n        public\n        stoppable\n        constant\n        returns (uint)\n    {\n        return loanBalances[_address];\n    }\n\n    function getCurrentMargin(\n            address _address\n        )\n        public\n        stoppable\n        constant\n        returns (uint)\n    {\n        return wdiv(getNetValue(_address), getTotalBorrowedValue(_address));\n    }\n\n    function isMarginAccountHealthy(\n            address _address\n        )\n        public\n        stoppable\n        constant\n        returns (bool)\n    {\n        return getCurrentMargin(_address) > wdiv(LendroidNetworkParameters.liquidationMargin(), 100);\n    }\n\n    // Get maximum amount that can be borrowed\n    function getMaximumBorrowableAmount(\n            address _address\n        )\n        public\n        stoppable\n        constant\n        returns (uint)\n    {\n        return sub(\n            wmul(\n                LendroidNetworkParameters.borrowableLevel(),\n                getMarginValue(_address)\n            ),\n            getTotalBorrowedValue(_address)\n        );\n    }\n\n    // Get maximum collateral amount that can be withdrawn\n    function getMaximumWithdrawableAmount(\n            address _address\n        )\n        public\n        stoppable\n        constant\n        returns (uint)\n    {\n        if (getTotalBorrowedValue(_address) == 0) {\n            return getMarginValue(_address);\n        }\n        if (getCurrentMargin(_address) > wdiv(LendroidNetworkParameters.initialMargin(), 100)) {\n            return sub(\n                getNetValue(_address),\n                mul(\n                    getTotalBorrowedValue(_address),\n                    wdiv(\n                        LendroidNetworkParameters.initialMargin(),\n                        100\n                    )\n                )\n            );\n        }\n        else {\n            return 0;\n        }\n    }\n\n    // Get maximum position amount that can be opened\n    function getMaximumPositionOpenableAmount(\n            address _address\n        )\n        public\n        stoppable\n        constant\n        returns (uint)\n    {\n        return loanBalances[_address];\n    }\n\n    // authorized call to reshuffle balances\n    function encumberCollateral(\n            address _borrower,\n            uint _loanTokenAmount\n        )\n        public\n        stoppable\n        // auth// loanmanager\n        onlyLoanManager\n        returns (bool)\n    {\n        // Check eligibility\n        // lender has enough funds to lend loan\n        // require(this.balance >= _loanTokenAmount);\n        require(fundingBalances[address(this)] >= _loanTokenAmount);\n        // Update fundingBalances\n        fundingBalances[address(this)] = sub(fundingBalances[address(this)], _loanTokenAmount);\n        // Update loanBalances\n        loanBalances[_borrower] = add(loanBalances[_borrower], _loanTokenAmount);\n        return true;\n    }\n\n    // authorized call to reshuffle balances\n    function unEncumberCollateral(\n            address _borrower,\n            uint _loanTokenAmount,\n            uint _loanTokenAmountPaid\n        )\n        public\n        stoppable\n        // auth// loanmanager\n        onlyLoanManager\n        returns (bool)\n    {\n        // Check eligibility\n        // borrower has enough funds to repay loan\n        require(loanBalances[_borrower] >= _loanTokenAmount);\n        // Update marginAccountBalances\n        loanBalances[_borrower] = sub(loanBalances[_borrower], _loanTokenAmount);\n        // Update fundingBalances\n        fundingBalances[address(this)] = add(fundingBalances[address(this)], _loanTokenAmountPaid);\n        return true;\n    }\n\n    // authorized call to reshuffle balances\n    function openPosition(\n            address _borrower,\n            uint _positionAmount\n        )\n        public\n        stoppable\n        // auth// positionmanager\n        onlyPositionManager\n        returns (bool)\n    {\n        // Check eligibility\n        // borrower has enough margin account funds to open position\n        require(loanBalances[_borrower] >= _positionAmount);\n        // Update loanBalances\n        loanBalances[_borrower] = sub(loanBalances[_borrower], _positionAmount);\n        openPositionAmounts[_borrower] = add(openPositionAmounts[_borrower], _positionAmount);\n\n        return true;\n    }\n\n    // authorized call to reshuffle balances\n    function closePosition(\n            address _borrower,\n            uint _positionAmount\n        )\n        public\n        stoppable\n        // auth// positionmanager\n        onlyPositionManager\n        returns (bool)\n    {\n        // Check eligibility\n        // Update loanBalances\n        loanBalances[_borrower] = add(loanBalances[_borrower], _positionAmount);\n        openPositionAmounts[_borrower] = sub(openPositionAmounts[_borrower], _positionAmount);\n\n        return true;\n    }\n}\n",
  "sourcePath": "/Users/vii/Desktop/lendroid/development/protocol-demo/contracts/Wallet.sol",
  "compiler": {
    "name": "solc",
    "version": "0.4.18+commit.9cf6e910.Emscripten.clang"
  },
  "schemaVersion": "1.0.1",
  "updatedAt": "2017-11-16T08:46:43.366Z"
}