{
  "contractName": "Wallet",
  "abi": [
    {
      "constant": false,
      "inputs": [],
      "name": "stop",
      "outputs": [],
      "payable": false,
      "stateMutability": "nonpayable",
      "type": "function"
    },
    {
      "constant": false,
      "inputs": [
        {
          "name": "owner_",
          "type": "address"
        }
      ],
      "name": "setOwner",
      "outputs": [],
      "payable": false,
      "stateMutability": "nonpayable",
      "type": "function"
    },
    {
      "constant": false,
      "inputs": [
        {
          "name": "token",
          "type": "address"
        },
        {
          "name": "dst",
          "type": "address"
        },
        {
          "name": "wad",
          "type": "uint256"
        }
      ],
      "name": "depositLendingFunds",
      "outputs": [
        {
          "name": "",
          "type": "bool"
        }
      ],
      "payable": true,
      "stateMutability": "payable",
      "type": "function"
    },
    {
      "constant": false,
      "inputs": [
        {
          "name": "token",
          "type": "address"
        },
        {
          "name": "dst",
          "type": "address"
        },
        {
          "name": "wad",
          "type": "uint256"
        }
      ],
      "name": "push",
      "outputs": [
        {
          "name": "",
          "type": "bool"
        },
        {
          "name": "",
          "type": "uint256"
        }
      ],
      "payable": false,
      "stateMutability": "nonpayable",
      "type": "function"
    },
    {
      "constant": true,
      "inputs": [
        {
          "name": "_address",
          "type": "address"
        },
        {
          "name": "_address",
          "type": "address"
        }
      ],
      "name": "getCollateralBalance",
      "outputs": [
        {
          "name": "",
          "type": "uint256"
        }
      ],
      "payable": false,
      "stateMutability": "view",
      "type": "function"
    },
    {
      "constant": true,
      "inputs": [
        {
          "name": "_borrower",
          "type": "address"
        },
        {
          "name": "_loanTokenAmount",
          "type": "uint256"
        }
      ],
      "name": "encumberCollateral",
      "outputs": [
        {
          "name": "",
          "type": "bool"
        }
      ],
      "payable": false,
      "stateMutability": "view",
      "type": "function"
    },
    {
      "constant": false,
      "inputs": [
        {
          "name": "token",
          "type": "address"
        },
        {
          "name": "wad",
          "type": "uint256"
        },
        {
          "name": "_loanTokenAmount",
          "type": "uint256"
        },
        {
          "name": "_collateralTokenAmount",
          "type": "uint256"
        },
        {
          "name": "_repayAmount",
          "type": "uint256"
        },
        {
          "name": "_lender",
          "type": "address"
        },
        {
          "name": "_borrower",
          "type": "address"
        },
        {
          "name": "_loanHash",
          "type": "bytes32"
        }
      ],
      "name": "mint",
      "outputs": [
        {
          "name": "",
          "type": "bool"
        }
      ],
      "payable": false,
      "stateMutability": "nonpayable",
      "type": "function"
    },
    {
      "constant": true,
      "inputs": [
        {
          "name": "_borrower",
          "type": "address"
        },
        {
          "name": "_loanTokenAmount",
          "type": "uint256"
        },
        {
          "name": "_loanTokenAmountPaid",
          "type": "uint256"
        }
      ],
      "name": "unEncumberCollateral",
      "outputs": [
        {
          "name": "",
          "type": "bool"
        }
      ],
      "payable": false,
      "stateMutability": "view",
      "type": "function"
    },
    {
      "constant": false,
      "inputs": [
        {
          "name": "_amount",
          "type": "uint256"
        },
        {
          "name": "src",
          "type": "address"
        },
        {
          "name": "wad",
          "type": "uint256"
        }
      ],
      "name": "withdrawCollateral",
      "outputs": [
        {
          "name": "",
          "type": "bool"
        }
      ],
      "payable": false,
      "stateMutability": "nonpayable",
      "type": "function"
    },
    {
      "constant": false,
      "inputs": [
        {
          "name": "token",
          "type": "address"
        },
        {
          "name": "src",
          "type": "address"
        }
      ],
      "name": "pull",
      "outputs": [
        {
          "name": "",
          "type": "bool"
        }
      ],
      "payable": false,
      "stateMutability": "nonpayable",
      "type": "function"
    },
    {
      "constant": false,
      "inputs": [
        {
          "name": "authority_",
          "type": "address"
        }
      ],
      "name": "depositCollateral",
      "outputs": [
        {
          "name": "",
          "type": "bool"
        }
      ],
      "payable": true,
      "stateMutability": "payable",
      "type": "function"
    },
    {
      "constant": false,
      "inputs": [
        {
          "name": "token",
          "type": "address"
        },
        {
          "name": "src",
          "type": "address"
        },
        {
          "name": "wad",
          "type": "uint256"
        }
      ],
      "name": "pull",
      "outputs": [
        {
          "name": "",
          "type": "bool"
        }
      ],
      "payable": false,
      "stateMutability": "nonpayable",
      "type": "function"
    },
    {
      "constant": true,
      "inputs": [
        {
          "name": "token",
          "type": "address"
        }
      ],
      "name": "stopped",
      "outputs": [
        {
          "name": "",
          "type": "bool"
        }
      ],
      "payable": false,
      "stateMutability": "view",
      "type": "function"
    },
    {
      "constant": false,
      "inputs": [
        {
          "name": "authority_",
          "type": "address"
        }
      ],
      "name": "setAuthority",
      "outputs": [
        {
          "name": "",
          "type": "address"
        }
      ],
      "payable": false,
      "stateMutability": "nonpayable",
      "type": "function"
    },
    {
      "constant": false,
      "inputs": [
        {
          "name": "_address",
          "type": "address"
        },
        {
          "name": "wad",
          "type": "uint256"
        }
      ],
      "name": "setLendroidNetworkParameters",
      "outputs": [
        {
          "name": "",
          "type": "bool"
        }
      ],
      "payable": false,
      "stateMutability": "nonpayable",
      "type": "function"
    },
    {
      "constant": false,
      "inputs": [
        {
          "name": "token",
          "type": "address"
        },
        {
          "name": "_amount",
          "type": "uint256"
        },
        {
          "name": "_fromAccountType",
          "type": "uint8"
        }
      ],
      "name": "burn",
      "outputs": [
        {
          "name": "",
          "type": "bool"
        }
      ],
      "payable": false,
      "stateMutability": "nonpayable",
      "type": "function"
    },
    {
      "constant": true,
      "inputs": [
        {
          "name": "token",
          "type": "address"
        },
        {
          "name": "dst",
          "type": "address"
        }
      ],
      "name": "owner",
      "outputs": [
        {
          "name": "",
          "type": "address"
        }
      ],
      "payable": false,
      "stateMutability": "view",
      "type": "function"
    },
    {
      "constant": false,
      "inputs": [
        {
          "name": "token",
          "type": "address"
        },
        {
          "name": "wad",
          "type": "uint256"
        }
      ],
      "name": "burn",
      "outputs": [],
      "payable": false,
      "stateMutability": "nonpayable",
      "type": "function"
    },
    {
      "constant": true,
      "inputs": [
        {
          "name": "_address",
          "type": "address"
        }
      ],
      "name": "getMaximumBorrowableAmount",
      "outputs": [
        {
          "name": "",
          "type": "uint256"
        }
      ],
      "payable": false,
      "stateMutability": "view",
      "type": "function"
    },
    {
      "constant": false,
      "inputs": [
        {
          "name": "token",
          "type": "address"
        },
        {
          "name": "dst",
          "type": "address"
        },
        {
          "name": "wad",
          "type": "uint256"
        }
      ],
      "name": "push",
      "outputs": [],
      "payable": false,
      "stateMutability": "nonpayable",
      "type": "function"
    },
    {
      "constant": false,
      "inputs": [
        {
          "name": "_symbol",
          "type": "bytes32"
        },
        {
          "name": "_address",
          "type": "address"
        }
      ],
      "name": "start",
      "outputs": [
        {
          "name": "",
          "type": "uint256"
        }
      ],
      "payable": false,
      "stateMutability": "nonpayable",
      "type": "function"
    },
    {
      "constant": true,
      "inputs": [
        {
          "name": "_collateralSymbol",
          "type": "bytes32"
        },
        {
          "name": "_address",
          "type": "address"
        }
      ],
      "name": "authority",
      "outputs": [
        {
          "name": "",
          "type": "address"
        }
      ],
      "payable": false,
      "stateMutability": "view",
      "type": "function"
    },
    {
      "constant": false,
      "inputs": [
        {
          "name": "token",
          "type": "address"
        },
        {
          "name": "guy",
          "type": "address"
        },
        {
          "name": "wad",
          "type": "uint256"
        },
        {
          "name": "_toAccountType",
          "type": "uint8"
        }
      ],
      "name": "mint",
      "outputs": [
        {
          "name": "",
          "type": "bool"
        }
      ],
      "payable": false,
      "stateMutability": "nonpayable",
      "type": "function"
    },
    {
      "constant": false,
      "inputs": [
        {
          "name": "token",
          "type": "address"
        },
        {
          "name": "guy",
          "type": "address"
        },
        {
          "name": "wad",
          "type": "uint256"
        }
      ],
      "name": "burn",
      "outputs": [],
      "payable": false,
      "stateMutability": "nonpayable",
      "type": "function"
    },
    {
      "constant": false,
      "inputs": [
        {
          "name": "_symbol",
          "type": "bytes32"
        },
        {
          "name": "_amount",
          "type": "uint256"
        },
        {
          "name": "_toAccountType",
          "type": "uint8"
        }
      ],
      "name": "deposit",
      "outputs": [
        {
          "name": "",
          "type": "bool"
        }
      ],
      "payable": false,
      "stateMutability": "nonpayable",
      "type": "fallback"
    },
    {
      "anonymous": false,
      "inputs": [
        {
          "indexed": true,
          "name": "authority",
          "type": "address"
        }
      ],
      "name": "LogSetAuthority",
      "type": "event"
    },
    {
      "anonymous": false,
      "inputs": [
        {
          "indexed": true,
          "name": "owner",
          "type": "address"
        }
      ],
      "name": "LogSetOwner",
      "type": "event"
    },
    {
      "anonymous": true,
      "inputs": [
        {
          "indexed": true,
          "name": "sig",
          "type": "bytes4"
        },
        {
          "indexed": true,
          "name": "guy",
          "type": "address"
        },
        {
          "indexed": true,
          "name": "foo",
          "type": "bytes32"
        },
        {
          "indexed": true,
          "name": "bar",
          "type": "bytes32"
        },
        {
          "indexed": false,
          "name": "wad",
          "type": "uint256"
        },
        {
          "indexed": false,
          "name": "fax",
          "type": "bytes"
        }
      ],
      "name": "LogNote",
      "type": "event"
    }
  ],
  "bytecode": "0x606060405233600160006101000a81548173ffffffffffffffffffffffffffffffffffffffff021916908373ffffffffffffffffffffffffffffffffffffffff1602179055503373ffffffffffffffffffffffffffffffffffffffff167fce241d7ca1f669fee44b6fc00b8eba2df3bb514eed0f6f668f8f89096e81ed9460405160405180910390a2612024806100976000396000f30060606040526004361061013e576000357c0100000000000000000000000000000000000000000000000000000000900463ffffffff16806307da68f51461014e57806313af4035146101635780631f9f01ca1461019c57806326e8eda2146101be5780632703ee851461021f5780633c40b3081461026c57806340c10f19146102c65780635ac6d8ab146103085780636112fe2e1461036b57806366b3bcb0146103a65780636f758140146103fe5780637372c2b51461042057806375f12b21146104815780637a9e5e4b146104ae578063885c43cd146104e757806389afcb44146105385780638da5cb5b146105715780639dc29fac146105c6578063b11b97f514610608578063b716ba6714610655578063be9a6555146106ad578063bf7e214f146106c2578063c6c3bbe614610717578063f6b911bc14610778575b341561014957600080fd5b600080fd5b341561015957600080fd5b6101616107d9565b005b341561016e57600080fd5b61019a600480803573ffffffffffffffffffffffffffffffffffffffff169060200190919050506108db565b005b6101a46109bd565b604051808215151515815260200191505060405180910390f35b34156101c957600080fd5b61021d600480803573ffffffffffffffffffffffffffffffffffffffff1690602001909190803573ffffffffffffffffffffffffffffffffffffffff16906020019091908035906020019091905050610a65565b005b341561022a57600080fd5b610256600480803573ffffffffffffffffffffffffffffffffffffffff16906020019091905050610b71565b6040518082815260200191505060405180910390f35b341561027757600080fd5b6102ac600480803573ffffffffffffffffffffffffffffffffffffffff16906020019091908035906020019091905050610bd6565b604051808215151515815260200191505060405180910390f35b34156102d157600080fd5b610306600480803573ffffffffffffffffffffffffffffffffffffffff16906020019091908035906020019091905050610d3f565b005b341561031357600080fd5b610351600480803573ffffffffffffffffffffffffffffffffffffffff16906020019091908035906020019091908035906020019091905050610dfe565b604051808215151515815260200191505060405180910390f35b341561037657600080fd5b61038c6004808035906020019091905050610f42565b604051808215151515815260200191505060405180910390f35b34156103b157600080fd5b6103fc600480803573ffffffffffffffffffffffffffffffffffffffff1690602001909190803573ffffffffffffffffffffffffffffffffffffffff16906020019091905050611124565b005b6104066111f0565b604051808215151515815260200191505060405180910390f35b341561042b57600080fd5b61047f600480803573ffffffffffffffffffffffffffffffffffffffff1690602001909190803573ffffffffffffffffffffffffffffffffffffffff16906020019091908035906020019091905050611342565b005b341561048c57600080fd5b610494611482565b604051808215151515815260200191505060405180910390f35b34156104b957600080fd5b6104e5600480803573ffffffffffffffffffffffffffffffffffffffff16906020019091905050611495565b005b34156104f257600080fd5b61051e600480803573ffffffffffffffffffffffffffffffffffffffff16906020019091905050611575565b604051808215151515815260200191505060405180910390f35b341561054357600080fd5b61056f600480803573ffffffffffffffffffffffffffffffffffffffff16906020019091905050611616565b005b341561057c57600080fd5b610584611791565b604051808273ffffffffffffffffffffffffffffffffffffffff1673ffffffffffffffffffffffffffffffffffffffff16815260200191505060405180910390f35b34156105d157600080fd5b610606600480803573ffffffffffffffffffffffffffffffffffffffff169060200190919080359060200190919050506117b7565b005b341561061357600080fd5b61063f600480803573ffffffffffffffffffffffffffffffffffffffff16906020019091905050611876565b6040518082815260200191505060405180910390f35b341561066057600080fd5b6106ab600480803573ffffffffffffffffffffffffffffffffffffffff1690602001909190803573ffffffffffffffffffffffffffffffffffffffff16906020019091905050611955565b005b34156106b857600080fd5b6106c0611a21565b005b34156106cd57600080fd5b6106d5611b24565b604051808273ffffffffffffffffffffffffffffffffffffffff1673ffffffffffffffffffffffffffffffffffffffff16815260200191505060405180910390f35b341561072257600080fd5b610776600480803573ffffffffffffffffffffffffffffffffffffffff1690602001909190803573ffffffffffffffffffffffffffffffffffffffff16906020019091908035906020019091905050611b49565b005b341561078357600080fd5b6107d7600480803573ffffffffffffffffffffffffffffffffffffffff1690602001909190803573ffffffffffffffffffffffffffffffffffffffff16906020019091908035906020019091905050611c3d565b005b610807336000357fffffffff0000000000000000000000000000000000000000000000000000000016611d31565b151561081257600080fd5b60008060043591506024359050806000191682600019163373ffffffffffffffffffffffffffffffffffffffff166000357fffffffff00000000000000000000000000000000000000000000000000000000167bffffffffffffffffffffffffffffffffffffffffffffffffffffffff19163460003660405180848152602001806020018281038252848482818152602001925080828437820191505094505050505060405180910390a460018060146101000a81548160ff0219169083151502179055505050565b610909336000357fffffffff0000000000000000000000000000000000000000000000000000000016611d31565b151561091457600080fd5b80600160006101000a81548173ffffffffffffffffffffffffffffffffffffffff021916908373ffffffffffffffffffffffffffffffffffffffff160217905550600160009054906101000a900473ffffffffffffffffffffffffffffffffffffffff1673ffffffffffffffffffffffffffffffffffffffff167fce241d7ca1f669fee44b6fc00b8eba2df3bb514eed0f6f668f8f89096e81ed9460405160405180910390a250565b6000600160149054906101000a900460ff161515156109db57600080fd5b610a09336000357fffffffff0000000000000000000000000000000000000000000000000000000016611d31565b1515610a1457600080fd5b610a5d600360003073ffffffffffffffffffffffffffffffffffffffff1673ffffffffffffffffffffffffffffffffffffffff1681526020019081526020016000205434611f90565b506001905090565b610a93336000357fffffffff0000000000000000000000000000000000000000000000000000000016611d31565b1515610a9e57600080fd5b8273ffffffffffffffffffffffffffffffffffffffff1663a9059cbb83836000604051602001526040518363ffffffff167c0100000000000000000000000000000000000000000000000000000000028152600401808373ffffffffffffffffffffffffffffffffffffffff1673ffffffffffffffffffffffffffffffffffffffff16815260200182815260200192505050602060405180830381600087803b1515610b4957600080fd5b6102c65a03f11515610b5a57600080fd5b505050604051805190501515610b6c57fe5b505050565b6000600160149054906101000a900460ff16151515610b8f57600080fd5b600460008373ffffffffffffffffffffffffffffffffffffffff1673ffffffffffffffffffffffffffffffffffffffff168152602001908152602001600020549050919050565b6000600160149054906101000a900460ff16151515610bf457600080fd5b610c22336000357fffffffff0000000000000000000000000000000000000000000000000000000016611d31565b1515610c2d57600080fd5b813073ffffffffffffffffffffffffffffffffffffffff163110151515610c5357600080fd5b81600360003073ffffffffffffffffffffffffffffffffffffffff1673ffffffffffffffffffffffffffffffffffffffff1681526020019081526020016000205410151515610ca157600080fd5b610cea600360003073ffffffffffffffffffffffffffffffffffffffff1673ffffffffffffffffffffffffffffffffffffffff1681526020019081526020016000205483611fac565b50610d34600560008573ffffffffffffffffffffffffffffffffffffffff1673ffffffffffffffffffffffffffffffffffffffff1681526020019081526020016000205483611f90565b506001905092915050565b610d6d336000357fffffffff0000000000000000000000000000000000000000000000000000000016611d31565b1515610d7857600080fd5b8173ffffffffffffffffffffffffffffffffffffffff1663a0712d68826040518263ffffffff167c010000000000000000000000000000000000000000000000000000000002815260040180828152602001915050600060405180830381600087803b1515610de657600080fd5b6102c65a03f11515610df757600080fd5b5050505050565b6000600160149054906101000a900460ff16151515610e1c57600080fd5b610e4a336000357fffffffff0000000000000000000000000000000000000000000000000000000016611d31565b1515610e5557600080fd5b82600560008673ffffffffffffffffffffffffffffffffffffffff1673ffffffffffffffffffffffffffffffffffffffff1681526020019081526020016000205410151515610ea357600080fd5b610eec600560008673ffffffffffffffffffffffffffffffffffffffff1673ffffffffffffffffffffffffffffffffffffffff1681526020019081526020016000205484611fac565b50610f36600360003073ffffffffffffffffffffffffffffffffffffffff1673ffffffffffffffffffffffffffffffffffffffff1681526020019081526020016000205483611f90565b50600190509392505050565b600080600160149054906101000a900460ff16151515610f6157600080fd5b600460003373ffffffffffffffffffffffffffffffffffffffff1673ffffffffffffffffffffffffffffffffffffffff168152602001908152602001600020548310151515610faf57600080fd5b610ff8600460003373ffffffffffffffffffffffffffffffffffffffff1673ffffffffffffffffffffffffffffffffffffffff1681526020019081526020016000205484611fac565b50600260009054906101000a900473ffffffffffffffffffffffffffffffffffffffff1673ffffffffffffffffffffffffffffffffffffffff1663fa7fdeb76000604051602001526040518163ffffffff167c010000000000000000000000000000000000000000000000000000000002815260040180807f572d4554480000000000000000000000000000000000000000000000000000008152506020019050602060405180830381600087803b15156110b257600080fd5b6102c65a03f115156110c357600080fd5b5050506040518051905090506110da813385610a65565b3373ffffffffffffffffffffffffffffffffffffffff166108fc849081150290604051600060405180830381858888f19350505050151561111a57600080fd5b6001915050919050565b6111ec82828473ffffffffffffffffffffffffffffffffffffffff166370a08231856000604051602001526040518263ffffffff167c0100000000000000000000000000000000000000000000000000000000028152600401808273ffffffffffffffffffffffffffffffffffffffff1673ffffffffffffffffffffffffffffffffffffffff168152602001915050602060405180830381600087803b15156111cc57600080fd5b6102c65a03f115156111dd57600080fd5b50505060405180519050611342565b5050565b600080600160149054906101000a900460ff1615151561120f57600080fd5b600260009054906101000a900473ffffffffffffffffffffffffffffffffffffffff1673ffffffffffffffffffffffffffffffffffffffff1663fa7fdeb76000604051602001526040518163ffffffff167c010000000000000000000000000000000000000000000000000000000002815260040180807f572d4554480000000000000000000000000000000000000000000000000000008152506020019050602060405180830381600087803b15156112c857600080fd5b6102c65a03f115156112d957600080fd5b5050506040518051905090506112f0813334611342565b611339600460003373ffffffffffffffffffffffffffffffffffffffff1673ffffffffffffffffffffffffffffffffffffffff1681526020019081526020016000205434611f90565b50600191505090565b611370336000357fffffffff0000000000000000000000000000000000000000000000000000000016611d31565b151561137b57600080fd5b8273ffffffffffffffffffffffffffffffffffffffff166323b872dd8330846000604051602001526040518463ffffffff167c0100000000000000000000000000000000000000000000000000000000028152600401808473ffffffffffffffffffffffffffffffffffffffff1673ffffffffffffffffffffffffffffffffffffffff1681526020018373ffffffffffffffffffffffffffffffffffffffff1673ffffffffffffffffffffffffffffffffffffffff1681526020018281526020019350505050602060405180830381600087803b151561145a57600080fd5b6102c65a03f1151561146b57600080fd5b50505060405180519050151561147d57fe5b505050565b600160149054906101000a900460ff1681565b6114c3336000357fffffffff0000000000000000000000000000000000000000000000000000000016611d31565b15156114ce57600080fd5b806000806101000a81548173ffffffffffffffffffffffffffffffffffffffff021916908373ffffffffffffffffffffffffffffffffffffffff1602179055506000809054906101000a900473ffffffffffffffffffffffffffffffffffffffff1673ffffffffffffffffffffffffffffffffffffffff167f1abebea81bfa2637f28358c371278fb15ede7ea8dd28d2e03b112ff6d936ada460405160405180910390a250565b6000600160149054906101000a900460ff1615151561159357600080fd5b6115c1336000357fffffffff0000000000000000000000000000000000000000000000000000000016611d31565b15156115cc57600080fd5b81600260006101000a81548173ffffffffffffffffffffffffffffffffffffffff021916908373ffffffffffffffffffffffffffffffffffffffff16021790555060019050919050565b611644336000357fffffffff0000000000000000000000000000000000000000000000000000000016611d31565b151561164f57600080fd5b8073ffffffffffffffffffffffffffffffffffffffff166342966c688273ffffffffffffffffffffffffffffffffffffffff166370a08231306000604051602001526040518263ffffffff167c0100000000000000000000000000000000000000000000000000000000028152600401808273ffffffffffffffffffffffffffffffffffffffff1673ffffffffffffffffffffffffffffffffffffffff168152602001915050602060405180830381600087803b151561170e57600080fd5b6102c65a03f1151561171f57600080fd5b505050604051805190506040518263ffffffff167c010000000000000000000000000000000000000000000000000000000002815260040180828152602001915050600060405180830381600087803b151561177a57600080fd5b6102c65a03f1151561178b57600080fd5b50505050565b600160009054906101000a900473ffffffffffffffffffffffffffffffffffffffff1681565b6117e5336000357fffffffff0000000000000000000000000000000000000000000000000000000016611d31565b15156117f057600080fd5b8173ffffffffffffffffffffffffffffffffffffffff166342966c68826040518263ffffffff167c010000000000000000000000000000000000000000000000000000000002815260040180828152602001915050600060405180830381600087803b151561185e57600080fd5b6102c65a03f1151561186f57600080fd5b5050505050565b6000600160149054906101000a900460ff1615151561189457600080fd5b61194e600260009054906101000a900473ffffffffffffffffffffffffffffffffffffffff1673ffffffffffffffffffffffffffffffffffffffff1663079110526000604051602001526040518163ffffffff167c0100000000000000000000000000000000000000000000000000000000028152600401602060405180830381600087803b151561192557600080fd5b6102c65a03f1151561193657600080fd5b5050506040518051905061194984610b71565b611fc8565b9050919050565b611a1d82828473ffffffffffffffffffffffffffffffffffffffff166370a08231306000604051602001526040518263ffffffff167c0100000000000000000000000000000000000000000000000000000000028152600401808273ffffffffffffffffffffffffffffffffffffffff1673ffffffffffffffffffffffffffffffffffffffff168152602001915050602060405180830381600087803b15156119fd57600080fd5b6102c65a03f11515611a0e57600080fd5b50505060405180519050610a65565b5050565b611a4f336000357fffffffff0000000000000000000000000000000000000000000000000000000016611d31565b1515611a5a57600080fd5b60008060043591506024359050806000191682600019163373ffffffffffffffffffffffffffffffffffffffff166000357fffffffff00000000000000000000000000000000000000000000000000000000167bffffffffffffffffffffffffffffffffffffffffffffffffffffffff19163460003660405180848152602001806020018281038252848482818152602001925080828437820191505094505050505060405180910390a46000600160146101000a81548160ff0219169083151502179055505050565b6000809054906101000a900473ffffffffffffffffffffffffffffffffffffffff1681565b611b77336000357fffffffff0000000000000000000000000000000000000000000000000000000016611d31565b1515611b8257600080fd5b8273ffffffffffffffffffffffffffffffffffffffff166340c10f1983836040518363ffffffff167c0100000000000000000000000000000000000000000000000000000000028152600401808373ffffffffffffffffffffffffffffffffffffffff1673ffffffffffffffffffffffffffffffffffffffff16815260200182815260200192505050600060405180830381600087803b1515611c2457600080fd5b6102c65a03f11515611c3557600080fd5b505050505050565b611c6b336000357fffffffff0000000000000000000000000000000000000000000000000000000016611d31565b1515611c7657600080fd5b8273ffffffffffffffffffffffffffffffffffffffff16639dc29fac83836040518363ffffffff167c0100000000000000000000000000000000000000000000000000000000028152600401808373ffffffffffffffffffffffffffffffffffffffff1673ffffffffffffffffffffffffffffffffffffffff16815260200182815260200192505050600060405180830381600087803b1515611d1857600080fd5b6102c65a03f11515611d2957600080fd5b505050505050565b60003073ffffffffffffffffffffffffffffffffffffffff168373ffffffffffffffffffffffffffffffffffffffff161415611d705760019050611f8a565b600160009054906101000a900473ffffffffffffffffffffffffffffffffffffffff1673ffffffffffffffffffffffffffffffffffffffff168373ffffffffffffffffffffffffffffffffffffffff161415611dcf5760019050611f8a565b600073ffffffffffffffffffffffffffffffffffffffff166000809054906101000a900473ffffffffffffffffffffffffffffffffffffffff1673ffffffffffffffffffffffffffffffffffffffff161415611e2e5760009050611f8a565b6000809054906101000a900473ffffffffffffffffffffffffffffffffffffffff1673ffffffffffffffffffffffffffffffffffffffff1663b70096138430856000604051602001526040518463ffffffff167c0100000000000000000000000000000000000000000000000000000000028152600401808473ffffffffffffffffffffffffffffffffffffffff1673ffffffffffffffffffffffffffffffffffffffff1681526020018373ffffffffffffffffffffffffffffffffffffffff1673ffffffffffffffffffffffffffffffffffffffff168152602001827bffffffffffffffffffffffffffffffffffffffffffffffffffffffff19167bffffffffffffffffffffffffffffffffffffffffffffffffffffffff191681526020019350505050602060405180830381600087803b1515611f6c57600080fd5b6102c65a03f11515611f7d57600080fd5b5050506040518051905090505b92915050565b60008282840191508110151515611fa657600080fd5b92915050565b60008282840391508111151515611fc257600080fd5b92915050565b600080821480611fe757508282838502925082811515611fe457fe5b04145b1515611ff257600080fd5b929150505600a165627a7a723058204ef3e5124041192bff60d0a88cab95f1aa967c1b412d4aa758705172c395c34f0029",
  "source": "pragma solidity 0.4.18;\r\n\r\nimport \"./math.sol\";\r\nimport \"./token.sol\";\r\nimport \"./stop.sol\";\r\nimport \"./multivault.sol\";\r\n\r\nimport \"./NetworkParameters.sol\";\r\n\r\ncontract Wallet is DSMultiVault, DSMath, DSStop {\r\n    \r\n    NetworkParameters LendroidNetworkParameters;\r\n\r\n    mapping (address => uint) fundingBalances; // Simple Funding balance tracker\r\n    mapping (address => uint) collateralBalances; // Simple Collateral balance tracker\r\n    mapping (address => uint) marginAccountBalances; // Simple margin account balance tracker\r\n    mapping (address => mapping (bytes32 => uint)) positionBalances; // Trade positions, keys are position hashes\r\n    mapping (address => uint) wranglerBalances; // Simple Wrangler balance tracker\r\n\r\n    /// @dev Throws if called by any account.\r\n    function() {\r\n        revert();\r\n    }\r\n\r\n    /// @dev Allows owner to set the NetworkParameters contract.\r\n    /// @param _address Address of the NetworkParameters contract.\r\n    function setLendroidNetworkParameters(address _address)\r\n        public \r\n        stoppable\r\n        auth// owner\r\n        returns (bool) \r\n    {\r\n        LendroidNetworkParameters = NetworkParameters(_address);\r\n        return true;\r\n    }\r\n    \r\n    // Deposit funds\r\n    function depositLendingFunds() \r\n        public\r\n        stoppable\r\n        payable\r\n        auth\r\n        returns (bool)\r\n    {\r\n        add(fundingBalances[address(this)], msg.value);\r\n        return true;\r\n    }\r\n    \r\n    function depositCollateral() \r\n        public\r\n        stoppable\r\n        payable\r\n        returns (bool)\r\n    {\r\n        \r\n        address _token = LendroidNetworkParameters.getTokenAddressBySymbol(\"W-ETH\");\r\n        // pull\r\n        pull(DSToken(_token), msg.sender, msg.value);\r\n        add(collateralBalances[msg.sender], msg.value);\r\n        return true;\r\n    }\r\n    \r\n    // Withdraw funds\r\n    function withdrawCollateral(uint _amount) \r\n        public\r\n        stoppable\r\n        returns (bool)\r\n    {\r\n        // TODO: Verify margin account is healthy\r\n        require(_amount >= collateralBalances[msg.sender]);\r\n        sub(collateralBalances[msg.sender], _amount);\r\n        address _token = LendroidNetworkParameters.getTokenAddressBySymbol(\"W-ETH\");\r\n        // push\r\n        push(DSToken(_token), msg.sender, _amount);\r\n        msg.sender.transfer(_amount);\r\n        return true;\r\n    }\r\n\r\n    function getCollateralBalance(\r\n            address _address\r\n        ) \r\n        public\r\n        stoppable\r\n        constant\r\n        returns (uint)\r\n    {\r\n        return collateralBalances[_address];\r\n    }\r\n\r\n    // Get maximum amount that can be borrowed\r\n    function getMaximumBorrowableAmount(\r\n            address _address\r\n        )\r\n        public\r\n        stoppable\r\n        constant\r\n        returns (uint)\r\n    {\r\n        return mul(LendroidNetworkParameters.initialMarginLevel(), getCollateralBalance(_address));\r\n    }\r\n\r\n    // authorized call to reshuffle balances\r\n    function encumberCollateral(\r\n            address _borrower,\r\n            uint _loanTokenAmount\r\n        )\r\n        public\r\n        stoppable\r\n        auth// loanmanager\r\n        view\r\n        returns (bool)\r\n    {\r\n        // Check eligibility\r\n        // lender has enough funds to lend loan\r\n        require(this.balance >= _loanTokenAmount);\r\n        require(fundingBalances[address(this)] >= _loanTokenAmount);\r\n        // Update fundingBalances\r\n        sub(fundingBalances[address(this)], _loanTokenAmount);\r\n        // Update loanBalances\r\n        add(marginAccountBalances[_borrower], _loanTokenAmount);\r\n        \r\n        return true;\r\n    }\r\n\r\n    // authorized call to reshuffle balances\r\n    function unEncumberCollateral(\r\n            address _borrower,\r\n            uint _loanTokenAmount,\r\n            uint _loanTokenAmountPaid\r\n        )\r\n        public\r\n        stoppable\r\n        auth// loanmanager\r\n        view\r\n        returns (bool)\r\n    {\r\n        // Check eligibility\r\n        // borrower has enough funds to repay loan\r\n        require(marginAccountBalances[_borrower] >= _loanTokenAmount);\r\n        // Update loanBalances\r\n        sub(marginAccountBalances[_borrower], _loanTokenAmount);\r\n        // Update fundingBalances\r\n        add(fundingBalances[address(this)], _loanTokenAmountPaid);\r\n        \r\n        return true;\r\n    }\r\n\r\n}",
  "sourcePath": "C:\\work\\programming\\ethereum\\lendroid\\protocol-demo\\contracts\\Wallet.sol",
  "compiler": {
    "name": "solc",
    "version": "0.4.18+commit.9cf6e910.Emscripten.clang"
  },
  "schemaVersion": "1.0.1",
  "updatedAt": "2017-11-08T14:01:07.132Z"
}