{
  "contractName": "Wallet",
  "abi": [
    {
      "constant": false,
      "inputs": [],
      "name": "stop",
      "outputs": [],
      "payable": false,
      "stateMutability": "nonpayable",
      "type": "function"
    },
    {
      "constant": false,
      "inputs": [
        {
          "name": "owner_",
          "type": "address"
        }
      ],
      "name": "setOwner",
      "outputs": [
        {
          "name": "",
          "type": "uint256"
        }
      ],
      "payable": false,
      "stateMutability": "nonpayable",
      "type": "function"
    },
    {
      "constant": false,
      "inputs": [
        {
          "name": "_borrower",
          "type": "address"
        },
        {
          "name": "_positionAmount",
          "type": "uint256"
        },
        {
          "name": "wad",
          "type": "uint256"
        }
      ],
      "name": "openPosition",
      "outputs": [
        {
          "name": "",
          "type": "bool"
        }
      ],
      "payable": false,
      "stateMutability": "nonpayable",
      "type": "function"
    },
    {
      "constant": false,
      "inputs": [
        {
          "name": "_borrower",
          "type": "address"
        },
        {
          "name": "_positionAmount",
          "type": "uint256"
        },
        {
          "name": "wad",
          "type": "uint256"
        }
      ],
      "name": "depositLendingFunds",
      "outputs": [
        {
          "name": "",
          "type": "bool"
        },
        {
          "name": "",
          "type": "uint256"
        }
      ],
      "payable": true,
      "stateMutability": "payable",
      "type": "function"
    },
    {
      "constant": false,
      "inputs": [
        {
          "name": "token",
          "type": "address"
        },
        {
          "name": "dst",
          "type": "address"
        },
        {
          "name": "wad",
          "type": "uint256"
        }
      ],
      "name": "push",
      "outputs": [
        {
          "name": "",
          "type": "bool"
        }
      ],
      "payable": false,
      "stateMutability": "nonpayable",
      "type": "function"
    },
    {
      "constant": false,
      "inputs": [
        {
          "name": "_borrower",
          "type": "address"
        },
        {
          "name": "_loanTokenAmount",
          "type": "uint256"
        },
        {
          "name": "wad",
          "type": "uint256"
        }
      ],
      "name": "encumberCollateral",
      "outputs": [
        {
          "name": "",
          "type": "bool"
        }
      ],
      "payable": false,
      "stateMutability": "nonpayable",
      "type": "function"
    },
    {
      "constant": true,
      "inputs": [
        {
          "name": "_address",
          "type": "address"
        },
        {
          "name": "wad",
          "type": "uint256"
        },
        {
          "name": "_loanTokenAmount",
          "type": "uint256"
        },
        {
          "name": "_collateralTokenAmount",
          "type": "uint256"
        },
        {
          "name": "_repayAmount",
          "type": "uint256"
        },
        {
          "name": "_lender",
          "type": "address"
        },
        {
          "name": "_borrower",
          "type": "address"
        },
        {
          "name": "_loanHash",
          "type": "bytes32"
        }
      ],
      "name": "getFundingBalance",
      "outputs": [
        {
          "name": "",
          "type": "uint256"
        }
      ],
      "payable": false,
      "stateMutability": "view",
      "type": "function"
    },
    {
      "constant": false,
      "inputs": [
        {
          "name": "token",
          "type": "address"
        },
        {
          "name": "wad",
          "type": "uint256"
        },
        {
          "name": "_loanTokenAmountPaid",
          "type": "uint256"
        }
      ],
      "name": "mint",
      "outputs": [
        {
          "name": "",
          "type": "bool"
        }
      ],
      "payable": false,
      "stateMutability": "nonpayable",
      "type": "function"
    },
    {
      "constant": true,
      "inputs": [
        {
          "name": "_address",
          "type": "address"
        },
        {
          "name": "src",
          "type": "address"
        },
        {
          "name": "wad",
          "type": "uint256"
        }
      ],
      "name": "getCurrentMargin",
      "outputs": [
        {
          "name": "",
          "type": "uint256"
        }
      ],
      "payable": false,
      "stateMutability": "view",
      "type": "function"
    },
    {
      "constant": true,
      "inputs": [
        {
          "name": "_address",
          "type": "address"
        },
        {
          "name": "wad",
          "type": "uint256"
        },
        {
          "name": "_loanTokenAmountPaid",
          "type": "uint256"
        }
      ],
      "name": "getMaximumWithdrawableAmount",
      "outputs": [
        {
          "name": "",
          "type": "uint256"
        }
      ],
      "payable": false,
      "stateMutability": "view",
      "type": "function"
    },
    {
      "constant": false,
      "inputs": [
        {
          "name": "_borrower",
          "type": "address"
        },
        {
          "name": "_loanTokenAmount",
          "type": "uint256"
        },
        {
          "name": "_loanTokenAmountPaid",
          "type": "uint256"
        }
      ],
      "name": "unEncumberCollateral",
      "outputs": [
        {
          "name": "",
          "type": "bool"
        }
      ],
      "payable": false,
      "stateMutability": "nonpayable",
      "type": "function"
    },
    {
      "constant": false,
      "inputs": [
        {
          "name": "_amount",
          "type": "uint256"
        },
        {
          "name": "_loanTokenAmount",
          "type": "uint256"
        },
        {
          "name": "_loanTokenAmountPaid",
          "type": "uint256"
        }
      ],
      "name": "withdrawCollateral",
      "outputs": [
        {
          "name": "",
          "type": "bool"
        }
      ],
      "payable": false,
      "stateMutability": "nonpayable",
      "type": "function"
    },
    {
      "constant": false,
      "inputs": [
        {
          "name": "token",
          "type": "address"
        },
        {
          "name": "src",
          "type": "address"
        }
      ],
      "name": "pull",
      "outputs": [
        {
          "name": "",
          "type": "bool"
        }
      ],
      "payable": false,
      "stateMutability": "nonpayable",
      "type": "function"
    },
    {
      "constant": false,
      "inputs": [
        {
          "name": "token",
          "type": "address"
        },
        {
          "name": "src",
          "type": "address"
        },
        {
          "name": "wad",
          "type": "uint256"
        }
      ],
      "name": "depositCollateral",
      "outputs": [
        {
          "name": "",
          "type": "bool"
        }
      ],
      "payable": true,
      "stateMutability": "payable",
      "type": "function"
    },
    {
      "constant": false,
      "inputs": [
        {
          "name": "token",
          "type": "address"
        },
        {
          "name": "src",
          "type": "address"
        },
        {
          "name": "wad",
          "type": "uint256"
        }
      ],
      "name": "pull",
      "outputs": [
        {
          "name": "",
          "type": "bool"
        }
      ],
      "payable": false,
      "stateMutability": "nonpayable",
      "type": "function"
    },
    {
      "constant": false,
      "inputs": [
        {
          "name": "_borrower",
          "type": "address"
        },
        {
          "name": "_positionAmount",
          "type": "uint256"
        },
        {
          "name": "wad",
          "type": "uint256"
        }
      ],
      "name": "closePosition",
      "outputs": [
        {
          "name": "",
          "type": "bool"
        }
      ],
      "payable": false,
      "stateMutability": "nonpayable",
      "type": "function"
    },
    {
      "constant": true,
      "inputs": [
        {
          "name": "_borrower",
          "type": "address"
        },
        {
          "name": "_positionAmount",
          "type": "uint256"
        }
      ],
      "name": "stopped",
      "outputs": [
        {
          "name": "",
          "type": "bool"
        }
      ],
      "payable": false,
      "stateMutability": "view",
      "type": "function"
    },
    {
      "constant": false,
      "inputs": [
        {
          "name": "authority_",
          "type": "address"
        },
        {
          "name": "wad",
          "type": "uint256"
        }
      ],
      "name": "setAuthority",
      "outputs": [
        {
          "name": "",
          "type": "bool"
        }
      ],
      "payable": false,
      "stateMutability": "nonpayable",
      "type": "function"
    },
    {
      "constant": false,
      "inputs": [
        {
          "name": "_address",
          "type": "address"
        }
      ],
      "name": "setLendroidNetworkParameters",
      "outputs": [
        {
          "name": "",
          "type": "bool"
        }
      ],
      "payable": false,
      "stateMutability": "nonpayable",
      "type": "function"
    },
    {
      "constant": false,
      "inputs": [
        {
          "name": "token",
          "type": "address"
        },
        {
          "name": "wad",
          "type": "uint256"
        },
        {
          "name": "wad",
          "type": "uint256"
        }
      ],
      "name": "burn",
      "outputs": [
        {
          "name": "",
          "type": "bool"
        }
      ],
      "payable": false,
      "stateMutability": "nonpayable",
      "type": "function"
    },
    {
      "constant": true,
      "inputs": [
        {
          "name": "token",
          "type": "address"
        },
        {
          "name": "_address",
          "type": "address"
        }
      ],
      "name": "owner",
      "outputs": [
        {
          "name": "",
          "type": "address"
        }
      ],
      "payable": false,
      "stateMutability": "view",
      "type": "function"
    },
    {
      "constant": true,
      "inputs": [
        {
          "name": "_address",
          "type": "address"
        },
        {
          "name": "dst",
          "type": "address"
        }
      ],
      "name": "getMaximumPositionOpenableAmount",
      "outputs": [
        {
          "name": "",
          "type": "uint256"
        }
      ],
      "payable": false,
      "stateMutability": "view",
      "type": "function"
    },
    {
      "constant": true,
      "inputs": [
        {
          "name": "_address",
          "type": "address"
        },
        {
          "name": "guy",
          "type": "address"
        },
        {
          "name": "wad",
          "type": "uint256"
        },
        {
          "name": "_toAccountType",
          "type": "uint8"
        }
      ],
      "name": "getMarginValue",
      "outputs": [
        {
          "name": "",
          "type": "uint256"
        }
      ],
      "payable": false,
      "stateMutability": "view",
      "type": "function"
    },
    {
      "constant": false,
      "inputs": [
        {
          "name": "token",
          "type": "address"
        },
        {
          "name": "wad",
          "type": "uint256"
        },
        {
          "name": "wad",
          "type": "uint256"
        }
      ],
      "name": "burn",
      "outputs": [
        {
          "name": "",
          "type": "address"
        }
      ],
      "payable": false,
      "stateMutability": "nonpayable",
      "type": "function"
    },
    {
      "constant": true,
      "inputs": [
        {
          "name": "_address",
          "type": "address"
        },
        {
          "name": "guy",
          "type": "address"
        },
        {
          "name": "wad",
          "type": "uint256"
        }
      ],
      "name": "getTotalBorrowedValue",
      "outputs": [
        {
          "name": "",
          "type": "uint256"
        }
      ],
      "payable": false,
      "stateMutability": "view",
      "type": "function"
    },
    {
      "anonymous": false,
      "inputs": [
        {
          "indexed": true,
          "name": "_address",
          "type": "address"
        },
        {
          "name": "dst",
          "type": "address"
        }
      ],
      "name": "getNetValue",
      "type": "function",
      "constant": true,
      "outputs": [
        {
          "name": "",
          "type": "uint256"
        }
      ],
      "payable": false,
      "stateMutability": "view"
    },
    {
      "anonymous": false,
      "inputs": [
        {
          "indexed": true,
          "name": "_address",
          "type": "address"
        },
        {
          "name": "guy",
          "type": "address"
        },
        {
          "name": "wad",
          "type": "uint256"
        }
      ],
      "name": "getMaximumBorrowableAmount",
      "type": "function",
      "constant": true,
      "outputs": [
        {
          "name": "",
          "type": "uint256"
        }
      ],
      "payable": false,
      "stateMutability": "view"
    },
    {
      "anonymous": true,
      "inputs": [
        {
          "indexed": true,
          "name": "token",
          "type": "address"
        },
        {
          "indexed": true,
          "name": "dst",
          "type": "address"
        },
        {
          "indexed": true,
          "name": "foo",
          "type": "bytes32"
        },
        {
          "indexed": true,
          "name": "bar",
          "type": "bytes32"
        },
        {
          "indexed": false,
          "name": "wad",
          "type": "uint256"
        },
        {
          "indexed": false,
          "name": "fax",
          "type": "bytes"
        }
      ],
      "name": "push",
      "type": "function",
      "payable": false,
      "stateMutability": "nonpayable",
      "constant": false,
      "outputs": []
    },
    {
      "anonymous": false,
      "inputs": [
        {
          "indexed": true,
          "name": "authority",
          "type": "address"
        }
      ],
      "name": "start",
      "type": "function",
      "constant": false,
      "outputs": [
        {
          "name": "",
          "type": "address"
        }
      ],
      "payable": false,
      "stateMutability": "nonpayable"
    },
    {
      "anonymous": false,
      "inputs": [
        {
          "indexed": true,
          "name": "token",
          "type": "address"
        },
        {
          "name": "guy",
          "type": "address"
        },
        {
          "name": "wad",
          "type": "uint256"
        }
      ],
      "name": "authority",
      "type": "function",
      "constant": true,
      "outputs": [
        {
          "name": "",
          "type": "address"
        }
      ],
      "payable": false,
      "stateMutability": "view"
    },
    {
      "anonymous": true,
      "inputs": [
        {
          "indexed": true,
          "name": "token",
          "type": "address"
        },
        {
          "indexed": true,
          "name": "guy",
          "type": "address"
        },
        {
          "indexed": true,
          "name": "wad",
          "type": "uint256"
        },
        {
          "indexed": true,
          "name": "bar",
          "type": "bytes32"
        },
        {
          "indexed": false,
          "name": "wad",
          "type": "uint256"
        },
        {
          "indexed": false,
          "name": "fax",
          "type": "bytes"
        }
      ],
      "name": "mint",
      "type": "function",
      "constant": false,
      "outputs": [],
      "payable": false,
      "stateMutability": "nonpayable"
    },
    {
      "payable": false,
      "stateMutability": "nonpayable",
      "type": "function",
      "constant": false,
      "inputs": [
        {
          "name": "_address",
          "type": "address"
        }
      ],
      "name": "setLendroidPositionManager",
      "outputs": [
        {
          "name": "",
          "type": "bool"
        }
      ]
    },
    {
      "anonymous": false,
      "inputs": [
        {
          "indexed": true,
          "name": "_address",
          "type": "address"
        },
        {
          "name": "guy",
          "type": "address"
        },
        {
          "name": "wad",
          "type": "uint256"
        }
      ],
      "name": "isMarginAccountHealthy",
      "type": "function",
      "constant": true,
      "outputs": [
        {
          "name": "",
          "type": "bool"
        }
      ],
      "payable": false,
      "stateMutability": "view"
    },
    {
      "anonymous": false,
      "inputs": [
        {
          "indexed": true,
          "name": "_address",
          "type": "address"
        }
      ],
      "name": "setLendroidLoanManager",
      "type": "function",
      "payable": false,
      "stateMutability": "nonpayable",
      "constant": false,
      "outputs": [
        {
          "name": "",
          "type": "bool"
        }
      ]
    },
    {
      "anonymous": false,
      "inputs": [
        {
          "indexed": true,
          "name": "token",
          "type": "address"
        },
        {
          "indexed": true,
          "name": "guy",
          "type": "address"
        },
        {
          "indexed": true,
          "name": "wad",
          "type": "uint256"
        },
        {
          "indexed": true,
          "name": "bar",
          "type": "bytes32"
        },
        {
          "indexed": false,
          "name": "wad",
          "type": "uint256"
        },
        {
          "indexed": false,
          "name": "fax",
          "type": "bytes"
        }
      ],
      "name": "burn",
      "type": "function",
      "constant": false,
      "outputs": [],
      "payable": false,
      "stateMutability": "nonpayable"
    },
    {
      "anonymous": false,
      "inputs": [
        {
          "indexed": true,
          "name": "owner",
          "type": "address"
        }
      ],
      "name": "LogSetOwner",
      "type": "fallback",
      "payable": false,
      "stateMutability": "nonpayable"
    },
    {
      "anonymous": false,
      "inputs": [
        {
          "indexed": true,
          "name": "authority",
          "type": "address"
        },
        {
          "indexed": true,
          "name": "guy",
          "type": "address"
        },
        {
          "indexed": true,
          "name": "foo",
          "type": "bytes32"
        },
        {
          "indexed": true,
          "name": "bar",
          "type": "bytes32"
        },
        {
          "indexed": false,
          "name": "wad",
          "type": "uint256"
        },
        {
          "indexed": false,
          "name": "fax",
          "type": "bytes"
        }
      ],
      "name": "LogSetAuthority",
      "type": "event"
    },
    {
      "anonymous": false,
      "inputs": [
        {
          "indexed": true,
          "name": "owner",
          "type": "address"
        }
      ],
      "name": "LogSetOwner",
      "type": "event"
    },
    {
      "anonymous": true,
      "inputs": [
        {
          "indexed": true,
          "name": "sig",
          "type": "bytes4"
        },
        {
          "indexed": true,
          "name": "guy",
          "type": "address"
        },
        {
          "indexed": true,
          "name": "foo",
          "type": "bytes32"
        },
        {
          "indexed": true,
          "name": "bar",
          "type": "bytes32"
        },
        {
          "indexed": false,
          "name": "wad",
          "type": "uint256"
        },
        {
          "indexed": false,
          "name": "fax",
          "type": "bytes"
        }
      ],
      "name": "LogNote",
      "type": "event"
    }
  ],
  "bytecode": "0x606060405233600160006101000a81548173ffffffffffffffffffffffffffffffffffffffff021916908373ffffffffffffffffffffffffffffffffffffffff1602179055503373ffffffffffffffffffffffffffffffffffffffff167fce241d7ca1f669fee44b6fc00b8eba2df3bb514eed0f6f668f8f89096e81ed9460405160405180910390a261300f806100976000396000f3006060604052600436106101b7576000357c0100000000000000000000000000000000000000000000000000000000900463ffffffff16806307da68f5146101c757806313af4035146101dc578063197897fc146102155780631f9f01ca1461026f57806326e8eda2146102915780633c40b308146102f25780633fdd7ab51461034c57806340c10f191461037557806341204d88146103b75780635792d30a146104045780635ac6d8ab146104515780636112fe2e146104b457806366b3bcb0146104ef5780636f758140146105475780637372c2b514610569578063742fe1f8146105ca57806375f12b21146106245780637a9e5e4b14610651578063885c43cd1461068a57806389afcb44146106db5780638da5cb5b1461071457806390fde0051461076957806396d3a3aa146107b65780639dc29fac14610803578063a2b35d9d14610845578063a9fba73a14610892578063b11b97f5146108df578063b716ba671461092c578063be9a655514610984578063bf7e214f14610999578063c6c3bbe6146109ee578063d05e07e614610a4f578063d9fd46ba14610aa0578063e058a6d014610af1578063f6b911bc14610b42575b34156101c257600080fd5b600080fd5b34156101d257600080fd5b6101da610ba3565b005b34156101e757600080fd5b610213600480803573ffffffffffffffffffffffffffffffffffffffff16906020019091905050610ca5565b005b341561022057600080fd5b610255600480803573ffffffffffffffffffffffffffffffffffffffff16906020019091908035906020019091905050610d87565b604051808215151515815260200191505060405180910390f35b610277610ee5565b604051808215151515815260200191505060405180910390f35b341561029c57600080fd5b6102f0600480803573ffffffffffffffffffffffffffffffffffffffff1690602001909190803573ffffffffffffffffffffffffffffffffffffffff16906020019091908035906020019091905050610fcf565b005b34156102fd57600080fd5b610332600480803573ffffffffffffffffffffffffffffffffffffffff169060200190919080359060200190919050506110db565b604051808215151515815260200191505060405180910390f35b341561035757600080fd5b61035f6112c5565b6040518082815260200191505060405180910390f35b341561038057600080fd5b6103b5600480803573ffffffffffffffffffffffffffffffffffffffff16906020019091908035906020019091905050611328565b005b34156103c257600080fd5b6103ee600480803573ffffffffffffffffffffffffffffffffffffffff169060200190919050506113e7565b6040518082815260200191505060405180910390f35b341561040f57600080fd5b61043b600480803573ffffffffffffffffffffffffffffffffffffffff16906020019091905050611426565b6040518082815260200191505060405180910390f35b341561045c57600080fd5b61049a600480803573ffffffffffffffffffffffffffffffffffffffff1690602001909190803590602001909190803590602001909190505061160d565b604051808215151515815260200191505060405180910390f35b34156104bf57600080fd5b6104d560048080359060200190919050506117f8565b604051808215151515815260200191505060405180910390f35b34156104fa57600080fd5b610545600480803573ffffffffffffffffffffffffffffffffffffffff1690602001909190803573ffffffffffffffffffffffffffffffffffffffff169060200190919050506119e6565b005b61054f611ab2565b604051808215151515815260200191505060405180910390f35b341561057457600080fd5b6105c8600480803573ffffffffffffffffffffffffffffffffffffffff1690602001909190803573ffffffffffffffffffffffffffffffffffffffff16906020019091908035906020019091905050611c3b565b005b34156105d557600080fd5b61060a600480803573ffffffffffffffffffffffffffffffffffffffff16906020019091908035906020019091905050611d7b565b604051808215151515815260200191505060405180910390f35b341561062f57600080fd5b610637611e8b565b604051808215151515815260200191505060405180910390f35b341561065c57600080fd5b610688600480803573ffffffffffffffffffffffffffffffffffffffff16906020019091905050611e9e565b005b341561069557600080fd5b6106c1600480803573ffffffffffffffffffffffffffffffffffffffff16906020019091905050611f7e565b604051808215151515815260200191505060405180910390f35b34156106e657600080fd5b610712600480803573ffffffffffffffffffffffffffffffffffffffff1690602001909190505061201f565b005b341561071f57600080fd5b61072761219a565b604051808273ffffffffffffffffffffffffffffffffffffffff1673ffffffffffffffffffffffffffffffffffffffff16815260200191505060405180910390f35b341561077457600080fd5b6107a0600480803573ffffffffffffffffffffffffffffffffffffffff169060200190919050506121c0565b6040518082815260200191505060405180910390f35b34156107c157600080fd5b6107ed600480803573ffffffffffffffffffffffffffffffffffffffff16906020019091905050612225565b6040518082815260200191505060405180910390f35b341561080e57600080fd5b610843600480803573ffffffffffffffffffffffffffffffffffffffff1690602001909190803590602001909190505061228a565b005b341561085057600080fd5b61087c600480803573ffffffffffffffffffffffffffffffffffffffff16906020019091905050612349565b6040518082815260200191505060405180910390f35b341561089d57600080fd5b6108c9600480803573ffffffffffffffffffffffffffffffffffffffff169060200190919050506123ae565b6040518082815260200191505060405180910390f35b34156108ea57600080fd5b610916600480803573ffffffffffffffffffffffffffffffffffffffff169060200190919050506125ac565b6040518082815260200191505060405180910390f35b341561093757600080fd5b610982600480803573ffffffffffffffffffffffffffffffffffffffff1690602001909190803573ffffffffffffffffffffffffffffffffffffffff1690602001909190505061269c565b005b341561098f57600080fd5b610997612768565b005b34156109a457600080fd5b6109ac61286b565b604051808273ffffffffffffffffffffffffffffffffffffffff1673ffffffffffffffffffffffffffffffffffffffff16815260200191505060405180910390f35b34156109f957600080fd5b610a4d600480803573ffffffffffffffffffffffffffffffffffffffff1690602001909190803573ffffffffffffffffffffffffffffffffffffffff16906020019091908035906020019091905050612890565b005b3415610a5a57600080fd5b610a86600480803573ffffffffffffffffffffffffffffffffffffffff16906020019091905050612984565b604051808215151515815260200191505060405180910390f35b3415610aab57600080fd5b610ad7600480803573ffffffffffffffffffffffffffffffffffffffff16906020019091905050612a25565b604051808215151515815260200191505060405180910390f35b3415610afc57600080fd5b610b28600480803573ffffffffffffffffffffffffffffffffffffffff16906020019091905050612b07565b604051808215151515815260200191505060405180910390f35b3415610b4d57600080fd5b610ba1600480803573ffffffffffffffffffffffffffffffffffffffff1690602001909190803573ffffffffffffffffffffffffffffffffffffffff16906020019091908035906020019091905050612ba8565b005b610bd1336000357fffffffff0000000000000000000000000000000000000000000000000000000016612c9c565b1515610bdc57600080fd5b60008060043591506024359050806000191682600019163373ffffffffffffffffffffffffffffffffffffffff166000357fffffffff00000000000000000000000000000000000000000000000000000000167bffffffffffffffffffffffffffffffffffffffffffffffffffffffff19163460003660405180848152602001806020018281038252848482818152602001925080828437820191505094505050505060405180910390a460018060146101000a81548160ff0219169083151502179055505050565b610cd3336000357fffffffff0000000000000000000000000000000000000000000000000000000016612c9c565b1515610cde57600080fd5b80600160006101000a81548173ffffffffffffffffffffffffffffffffffffffff021916908373ffffffffffffffffffffffffffffffffffffffff160217905550600160009054906101000a900473ffffffffffffffffffffffffffffffffffffffff1673ffffffffffffffffffffffffffffffffffffffff167fce241d7ca1f669fee44b6fc00b8eba2df3bb514eed0f6f668f8f89096e81ed9460405160405180910390a250565b6000600160149054906101000a900460ff16151515610da557600080fd5b600460009054906101000a900473ffffffffffffffffffffffffffffffffffffffff1673ffffffffffffffffffffffffffffffffffffffff163373ffffffffffffffffffffffffffffffffffffffff16141515610e0157600080fd5b81600760008573ffffffffffffffffffffffffffffffffffffffff1673ffffffffffffffffffffffffffffffffffffffff1681526020019081526020016000205410151515610e4f57600080fd5b610e98600760008573ffffffffffffffffffffffffffffffffffffffff1673ffffffffffffffffffffffffffffffffffffffff1681526020019081526020016000205483612efb565b600760008573ffffffffffffffffffffffffffffffffffffffff1673ffffffffffffffffffffffffffffffffffffffff168152602001908152602001600020819055506001905092915050565b6000600160149054906101000a900460ff16151515610f0357600080fd5b610f31336000357fffffffff0000000000000000000000000000000000000000000000000000000016612c9c565b1515610f3c57600080fd5b610f85600560003073ffffffffffffffffffffffffffffffffffffffff1673ffffffffffffffffffffffffffffffffffffffff1681526020019081526020016000205434612f17565b600560003073ffffffffffffffffffffffffffffffffffffffff1673ffffffffffffffffffffffffffffffffffffffff168152602001908152602001600020819055506001905090565b610ffd336000357fffffffff0000000000000000000000000000000000000000000000000000000016612c9c565b151561100857600080fd5b8273ffffffffffffffffffffffffffffffffffffffff1663a9059cbb83836000604051602001526040518363ffffffff167c0100000000000000000000000000000000000000000000000000000000028152600401808373ffffffffffffffffffffffffffffffffffffffff1673ffffffffffffffffffffffffffffffffffffffff16815260200182815260200192505050602060405180830381600087803b15156110b357600080fd5b6102c65a03f115156110c457600080fd5b5050506040518051905015156110d657fe5b505050565b6000600160149054906101000a900460ff161515156110f957600080fd5b600360009054906101000a900473ffffffffffffffffffffffffffffffffffffffff1673ffffffffffffffffffffffffffffffffffffffff163373ffffffffffffffffffffffffffffffffffffffff1614151561115557600080fd5b81600560003073ffffffffffffffffffffffffffffffffffffffff1673ffffffffffffffffffffffffffffffffffffffff16815260200190815260200160002054101515156111a357600080fd5b6111ec600560003073ffffffffffffffffffffffffffffffffffffffff1673ffffffffffffffffffffffffffffffffffffffff1681526020019081526020016000205483612efb565b600560003073ffffffffffffffffffffffffffffffffffffffff1673ffffffffffffffffffffffffffffffffffffffff16815260200190815260200160002081905550611278600760008573ffffffffffffffffffffffffffffffffffffffff1673ffffffffffffffffffffffffffffffffffffffff1681526020019081526020016000205483612f17565b600760008573ffffffffffffffffffffffffffffffffffffffff1673ffffffffffffffffffffffffffffffffffffffff168152602001908152602001600020819055506001905092915050565b6000600160149054906101000a900460ff161515156112e357600080fd5b600560003073ffffffffffffffffffffffffffffffffffffffff1673ffffffffffffffffffffffffffffffffffffffff16815260200190815260200160002054905090565b611356336000357fffffffff0000000000000000000000000000000000000000000000000000000016612c9c565b151561136157600080fd5b8173ffffffffffffffffffffffffffffffffffffffff1663a0712d68826040518263ffffffff167c010000000000000000000000000000000000000000000000000000000002815260040180828152602001915050600060405180830381600087803b15156113cf57600080fd5b6102c65a03f115156113e057600080fd5b5050505050565b6000600160149054906101000a900460ff1615151561140557600080fd5b61141f611411836123ae565b61141a84612349565b612f33565b9050919050565b6000600160149054906101000a900460ff1615151561144457600080fd5b600061144f83612349565b14156114655761145e82612225565b9050611608565b611518600260009054906101000a900473ffffffffffffffffffffffffffffffffffffffff1673ffffffffffffffffffffffffffffffffffffffff16631029e85b6000604051602001526040518163ffffffff167c0100000000000000000000000000000000000000000000000000000000028152600401602060405180830381600087803b15156114f657600080fd5b6102c65a03f1151561150757600080fd5b505050604051805190506064612f33565b611521836113e7565b1115611603576115fc611533836123ae565b6115f761153f85612349565b6115f2600260009054906101000a900473ffffffffffffffffffffffffffffffffffffffff1673ffffffffffffffffffffffffffffffffffffffff16631029e85b6000604051602001526040518163ffffffff167c0100000000000000000000000000000000000000000000000000000000028152600401602060405180830381600087803b15156115d057600080fd5b6102c65a03f115156115e157600080fd5b505050604051805190506064612f33565b612f6f565b612efb565b9050611608565b600090505b919050565b6000600160149054906101000a900460ff1615151561162b57600080fd5b600360009054906101000a900473ffffffffffffffffffffffffffffffffffffffff1673ffffffffffffffffffffffffffffffffffffffff163373ffffffffffffffffffffffffffffffffffffffff1614151561168757600080fd5b82600760008673ffffffffffffffffffffffffffffffffffffffff1673ffffffffffffffffffffffffffffffffffffffff16815260200190815260200160002054101515156116d557600080fd5b61171e600760008673ffffffffffffffffffffffffffffffffffffffff1673ffffffffffffffffffffffffffffffffffffffff1681526020019081526020016000205484612efb565b600760008673ffffffffffffffffffffffffffffffffffffffff1673ffffffffffffffffffffffffffffffffffffffff168152602001908152602001600020819055506117aa600560003073ffffffffffffffffffffffffffffffffffffffff1673ffffffffffffffffffffffffffffffffffffffff1681526020019081526020016000205483612f17565b600560003073ffffffffffffffffffffffffffffffffffffffff1673ffffffffffffffffffffffffffffffffffffffff16815260200190815260200160002081905550600190509392505050565b600080600160149054906101000a900460ff1615151561181757600080fd5b60008311801561182f575061182b33611426565b8311155b151561183a57600080fd5b611883600660003373ffffffffffffffffffffffffffffffffffffffff1673ffffffffffffffffffffffffffffffffffffffff1681526020019081526020016000205484612efb565b600660003373ffffffffffffffffffffffffffffffffffffffff1673ffffffffffffffffffffffffffffffffffffffff16815260200190815260200160002081905550600260009054906101000a900473ffffffffffffffffffffffffffffffffffffffff1673ffffffffffffffffffffffffffffffffffffffff1663fa7fdeb76000604051602001526040518163ffffffff167c010000000000000000000000000000000000000000000000000000000002815260040180807f572d4554480000000000000000000000000000000000000000000000000000008152506020019050602060405180830381600087803b151561197f57600080fd5b6102c65a03f1151561199057600080fd5b5050506040518051905090503373ffffffffffffffffffffffffffffffffffffffff166108fc849081150290604051600060405180830381858888f1935050505015156119dc57600080fd5b6001915050919050565b611aae82828473ffffffffffffffffffffffffffffffffffffffff166370a08231856000604051602001526040518263ffffffff167c0100000000000000000000000000000000000000000000000000000000028152600401808273ffffffffffffffffffffffffffffffffffffffff1673ffffffffffffffffffffffffffffffffffffffff168152602001915050602060405180830381600087803b1515611a8e57600080fd5b6102c65a03f11515611a9f57600080fd5b50505060405180519050611c3b565b5050565b600080600160149054906101000a900460ff16151515611ad157600080fd5b600260009054906101000a900473ffffffffffffffffffffffffffffffffffffffff1673ffffffffffffffffffffffffffffffffffffffff1663fa7fdeb76000604051602001526040518163ffffffff167c010000000000000000000000000000000000000000000000000000000002815260040180807f572d4554480000000000000000000000000000000000000000000000000000008152506020019050602060405180830381600087803b1515611b8a57600080fd5b6102c65a03f11515611b9b57600080fd5b505050604051805190509050611bf0600660003373ffffffffffffffffffffffffffffffffffffffff1673ffffffffffffffffffffffffffffffffffffffff1681526020019081526020016000205434612f17565b600660003373ffffffffffffffffffffffffffffffffffffffff1673ffffffffffffffffffffffffffffffffffffffff16815260200190815260200160002081905550600191505090565b611c69336000357fffffffff0000000000000000000000000000000000000000000000000000000016612c9c565b1515611c7457600080fd5b8273ffffffffffffffffffffffffffffffffffffffff166323b872dd8330846000604051602001526040518463ffffffff167c0100000000000000000000000000000000000000000000000000000000028152600401808473ffffffffffffffffffffffffffffffffffffffff1673ffffffffffffffffffffffffffffffffffffffff1681526020018373ffffffffffffffffffffffffffffffffffffffff1673ffffffffffffffffffffffffffffffffffffffff1681526020018281526020019350505050602060405180830381600087803b1515611d5357600080fd5b6102c65a03f11515611d6457600080fd5b505050604051805190501515611d7657fe5b505050565b6000600160149054906101000a900460ff16151515611d9957600080fd5b600460009054906101000a900473ffffffffffffffffffffffffffffffffffffffff1673ffffffffffffffffffffffffffffffffffffffff163373ffffffffffffffffffffffffffffffffffffffff16141515611df557600080fd5b611e3e600760008573ffffffffffffffffffffffffffffffffffffffff1673ffffffffffffffffffffffffffffffffffffffff1681526020019081526020016000205483612f17565b600760008573ffffffffffffffffffffffffffffffffffffffff1673ffffffffffffffffffffffffffffffffffffffff168152602001908152602001600020819055506001905092915050565b600160149054906101000a900460ff1681565b611ecc336000357fffffffff0000000000000000000000000000000000000000000000000000000016612c9c565b1515611ed757600080fd5b806000806101000a81548173ffffffffffffffffffffffffffffffffffffffff021916908373ffffffffffffffffffffffffffffffffffffffff1602179055506000809054906101000a900473ffffffffffffffffffffffffffffffffffffffff1673ffffffffffffffffffffffffffffffffffffffff167f1abebea81bfa2637f28358c371278fb15ede7ea8dd28d2e03b112ff6d936ada460405160405180910390a250565b6000600160149054906101000a900460ff16151515611f9c57600080fd5b611fca336000357fffffffff0000000000000000000000000000000000000000000000000000000016612c9c565b1515611fd557600080fd5b81600260006101000a81548173ffffffffffffffffffffffffffffffffffffffff021916908373ffffffffffffffffffffffffffffffffffffffff16021790555060019050919050565b61204d336000357fffffffff0000000000000000000000000000000000000000000000000000000016612c9c565b151561205857600080fd5b8073ffffffffffffffffffffffffffffffffffffffff166342966c688273ffffffffffffffffffffffffffffffffffffffff166370a08231306000604051602001526040518263ffffffff167c0100000000000000000000000000000000000000000000000000000000028152600401808273ffffffffffffffffffffffffffffffffffffffff1673ffffffffffffffffffffffffffffffffffffffff168152602001915050602060405180830381600087803b151561211757600080fd5b6102c65a03f1151561212857600080fd5b505050604051805190506040518263ffffffff167c010000000000000000000000000000000000000000000000000000000002815260040180828152602001915050600060405180830381600087803b151561218357600080fd5b6102c65a03f1151561219457600080fd5b50505050565b600160009054906101000a900473ffffffffffffffffffffffffffffffffffffffff1681565b6000600160149054906101000a900460ff161515156121de57600080fd5b600760008373ffffffffffffffffffffffffffffffffffffffff1673ffffffffffffffffffffffffffffffffffffffff168152602001908152602001600020549050919050565b6000600160149054906101000a900460ff1615151561224357600080fd5b600660008373ffffffffffffffffffffffffffffffffffffffff1673ffffffffffffffffffffffffffffffffffffffff168152602001908152602001600020549050919050565b6122b8336000357fffffffff0000000000000000000000000000000000000000000000000000000016612c9c565b15156122c357600080fd5b8173ffffffffffffffffffffffffffffffffffffffff166342966c68826040518263ffffffff167c010000000000000000000000000000000000000000000000000000000002815260040180828152602001915050600060405180830381600087803b151561233157600080fd5b6102c65a03f1151561234257600080fd5b5050505050565b6000600160149054906101000a900460ff1615151561236757600080fd5b600760008373ffffffffffffffffffffffffffffffffffffffff1673ffffffffffffffffffffffffffffffffffffffff168152602001908152602001600020549050919050565b6000600160149054906101000a900460ff161515156123cc57600080fd5b6125a56123d883612225565b6125a0600460009054906101000a900473ffffffffffffffffffffffffffffffffffffffff1673ffffffffffffffffffffffffffffffffffffffff16632d675684866000604051602001526040518263ffffffff167c0100000000000000000000000000000000000000000000000000000000028152600401808273ffffffffffffffffffffffffffffffffffffffff1673ffffffffffffffffffffffffffffffffffffffff168152602001915050602060405180830381600087803b15156124a057600080fd5b6102c65a03f115156124b157600080fd5b50505060405180519050600360009054906101000a900473ffffffffffffffffffffffffffffffffffffffff1673ffffffffffffffffffffffffffffffffffffffff16638f32a16c876000604051602001526040518263ffffffff167c0100000000000000000000000000000000000000000000000000000000028152600401808273ffffffffffffffffffffffffffffffffffffffff1673ffffffffffffffffffffffffffffffffffffffff168152602001915050602060405180830381600087803b151561258057600080fd5b6102c65a03f1151561259157600080fd5b50505060405180519050612f17565b612f17565b9050919050565b6000600160149054906101000a900460ff161515156125ca57600080fd5b612695612687600260009054906101000a900473ffffffffffffffffffffffffffffffffffffffff1673ffffffffffffffffffffffffffffffffffffffff166329a260b86000604051602001526040518163ffffffff167c0100000000000000000000000000000000000000000000000000000000028152600401602060405180830381600087803b151561265e57600080fd5b6102c65a03f1151561266f57600080fd5b5050506040518051905061268285612225565b612f9f565b61269084612349565b612efb565b9050919050565b61276482828473ffffffffffffffffffffffffffffffffffffffff166370a08231306000604051602001526040518263ffffffff167c0100000000000000000000000000000000000000000000000000000000028152600401808273ffffffffffffffffffffffffffffffffffffffff1673ffffffffffffffffffffffffffffffffffffffff168152602001915050602060405180830381600087803b151561274457600080fd5b6102c65a03f1151561275557600080fd5b50505060405180519050610fcf565b5050565b612796336000357fffffffff0000000000000000000000000000000000000000000000000000000016612c9c565b15156127a157600080fd5b60008060043591506024359050806000191682600019163373ffffffffffffffffffffffffffffffffffffffff166000357fffffffff00000000000000000000000000000000000000000000000000000000167bffffffffffffffffffffffffffffffffffffffffffffffffffffffff19163460003660405180848152602001806020018281038252848482818152602001925080828437820191505094505050505060405180910390a46000600160146101000a81548160ff0219169083151502179055505050565b6000809054906101000a900473ffffffffffffffffffffffffffffffffffffffff1681565b6128be336000357fffffffff0000000000000000000000000000000000000000000000000000000016612c9c565b15156128c957600080fd5b8273ffffffffffffffffffffffffffffffffffffffff166340c10f1983836040518363ffffffff167c0100000000000000000000000000000000000000000000000000000000028152600401808373ffffffffffffffffffffffffffffffffffffffff1673ffffffffffffffffffffffffffffffffffffffff16815260200182815260200192505050600060405180830381600087803b151561296b57600080fd5b6102c65a03f1151561297c57600080fd5b505050505050565b6000600160149054906101000a900460ff161515156129a257600080fd5b6129d0336000357fffffffff0000000000000000000000000000000000000000000000000000000016612c9c565b15156129db57600080fd5b81600460006101000a81548173ffffffffffffffffffffffffffffffffffffffff021916908373ffffffffffffffffffffffffffffffffffffffff16021790555060019050919050565b6000600160149054906101000a900460ff16151515612a4357600080fd5b612af6600260009054906101000a900473ffffffffffffffffffffffffffffffffffffffff1673ffffffffffffffffffffffffffffffffffffffff16632262697e6000604051602001526040518163ffffffff167c0100000000000000000000000000000000000000000000000000000000028152600401602060405180830381600087803b1515612ad457600080fd5b6102c65a03f11515612ae557600080fd5b505050604051805190506064612f33565b612aff836113e7565b119050919050565b6000600160149054906101000a900460ff16151515612b2557600080fd5b612b53336000357fffffffff0000000000000000000000000000000000000000000000000000000016612c9c565b1515612b5e57600080fd5b81600360006101000a81548173ffffffffffffffffffffffffffffffffffffffff021916908373ffffffffffffffffffffffffffffffffffffffff16021790555060019050919050565b612bd6336000357fffffffff0000000000000000000000000000000000000000000000000000000016612c9c565b1515612be157600080fd5b8273ffffffffffffffffffffffffffffffffffffffff16639dc29fac83836040518363ffffffff167c0100000000000000000000000000000000000000000000000000000000028152600401808373ffffffffffffffffffffffffffffffffffffffff1673ffffffffffffffffffffffffffffffffffffffff16815260200182815260200192505050600060405180830381600087803b1515612c8357600080fd5b6102c65a03f11515612c9457600080fd5b505050505050565b60003073ffffffffffffffffffffffffffffffffffffffff168373ffffffffffffffffffffffffffffffffffffffff161415612cdb5760019050612ef5565b600160009054906101000a900473ffffffffffffffffffffffffffffffffffffffff1673ffffffffffffffffffffffffffffffffffffffff168373ffffffffffffffffffffffffffffffffffffffff161415612d3a5760019050612ef5565b600073ffffffffffffffffffffffffffffffffffffffff166000809054906101000a900473ffffffffffffffffffffffffffffffffffffffff1673ffffffffffffffffffffffffffffffffffffffff161415612d995760009050612ef5565b6000809054906101000a900473ffffffffffffffffffffffffffffffffffffffff1673ffffffffffffffffffffffffffffffffffffffff1663b70096138430856000604051602001526040518463ffffffff167c0100000000000000000000000000000000000000000000000000000000028152600401808473ffffffffffffffffffffffffffffffffffffffff1673ffffffffffffffffffffffffffffffffffffffff1681526020018373ffffffffffffffffffffffffffffffffffffffff1673ffffffffffffffffffffffffffffffffffffffff168152602001827bffffffffffffffffffffffffffffffffffffffffffffffffffffffff19167bffffffffffffffffffffffffffffffffffffffffffffffffffffffff191681526020019350505050602060405180830381600087803b1515612ed757600080fd5b6102c65a03f11515612ee857600080fd5b5050506040518051905090505b92915050565b60008282840391508111151515612f1157600080fd5b92915050565b60008282840191508110151515612f2d57600080fd5b92915050565b600081612f5d612f4b85670de0b6b3a7640000612f6f565b600285811515612f5757fe5b04612f17565b811515612f6657fe5b04905092915050565b600080821480612f8e57508282838502925082811515612f8b57fe5b04145b1515612f9957600080fd5b92915050565b6000670de0b6b3a7640000612fd1612fb78585612f6f565b6002670de0b6b3a7640000811515612fcb57fe5b04612f17565b811515612fda57fe5b049050929150505600a165627a7a72305820e1a15da770638bd6bdd6b11d27cd21767f814b7a4217f73bc9ce49ae90e964850029",
  "source": "pragma solidity 0.4.18;\r\n\r\nimport \"./math.sol\";\r\nimport \"./token.sol\";\r\nimport \"./stop.sol\";\r\nimport \"./multivault.sol\";\r\n\r\nimport \"./NetworkParameters.sol\";\r\nimport \"./LoanManager.sol\";\r\nimport \"./PositionManager.sol\";\r\n\r\n\r\ncontract Wallet is DSMultiVault, DSMath, DSStop {\r\n    \r\n    NetworkParameters LendroidNetworkParameters;\r\n    LoanManager LendroidLoanManager;\r\n    PositionManager LendroidPositionManager;\r\n\r\n    mapping (address => uint) fundingBalances; // Simple Funding balance tracker\r\n    mapping (address => uint) collateralBalances; // Simple Collateral balance tracker\r\n    mapping (address => uint) loanBalances; // Simple balance tracker for loan amounts borrowed\r\n    mapping (address => uint) wranglerBalances; // Simple Wrangler balance tracker\r\n\r\n    modifier onlyLoanManager() {\r\n        require(msg.sender == address(LendroidLoanManager));\r\n        _;\r\n    }\r\n\r\n    modifier onlyPositionManager() {\r\n        require(msg.sender == address(LendroidPositionManager));\r\n        _;\r\n    }\r\n\r\n    /// @dev Throws if called by any account.\r\n    function() {\r\n        revert();\r\n    }\r\n\r\n    /// @dev Allows owner to set the NetworkParameters contract.\r\n    /// @param _address Address of the NetworkParameters contract.\r\n    function setLendroidNetworkParameters(address _address)\r\n        public \r\n        stoppable\r\n        auth// owner\r\n        returns (bool) \r\n    {\r\n        LendroidNetworkParameters = NetworkParameters(_address);\r\n        return true;\r\n    }\r\n    \r\n    /// @dev Allows owner to set the LoanManager contract.\r\n    /// @param _address Address of the LoanManager contract.\r\n    function setLendroidLoanManager(address _address)\r\n        public \r\n        stoppable\r\n        auth// owner\r\n        returns (bool) \r\n    {\r\n        LendroidLoanManager = LoanManager(_address);\r\n        return true;\r\n    }\r\n    \r\n    /// @dev Allows owner to set the PositionManager contract.\r\n    /// @param _address Address of the PositionManager contract.\r\n    function setLendroidPositionManager(address _address)\r\n        public \r\n        stoppable\r\n        auth// owner\r\n        returns (bool) \r\n    {\r\n        LendroidPositionManager = PositionManager(_address);\r\n        return true;\r\n    }\r\n    \r\n    // Deposit funds\r\n    function depositLendingFunds() \r\n        public\r\n        stoppable\r\n        payable\r\n        auth\r\n        returns (bool)\r\n    {\r\n        fundingBalances[address(this)] = add(fundingBalances[address(this)], msg.value);\r\n        return true;\r\n    }\r\n    \r\n    function getFundingBalance() \r\n        public\r\n        stoppable\r\n        constant\r\n        returns (uint)\r\n    {\r\n        return fundingBalances[address(this)];\r\n    }\r\n    \r\n    function depositCollateral() \r\n        public\r\n        stoppable\r\n        payable\r\n        returns (bool)\r\n    {\r\n        \r\n        address _token = LendroidNetworkParameters.getTokenAddressBySymbol(\"W-ETH\");\r\n        // pull\r\n        // pull(DSToken(_token), msg.sender, msg.value);\r\n        collateralBalances[msg.sender] = add(collateralBalances[msg.sender], msg.value);\r\n        return true;\r\n    }\r\n    \r\n    // Withdraw funds\r\n    function withdrawCollateral(uint _amount) \r\n        public\r\n        stoppable\r\n        returns (bool)\r\n    {\r\n        // TODO: Verify margin account is healthy\r\n        require(\r\n            (_amount > 0) &&\r\n            (_amount <= getMaximumWithdrawableAmount(msg.sender))\r\n        );\r\n        collateralBalances[msg.sender] = sub(collateralBalances[msg.sender], _amount);\r\n        address _token = LendroidNetworkParameters.getTokenAddressBySymbol(\"W-ETH\");\r\n        // push\r\n        // push(DSToken(_token), msg.sender, _amount);\r\n        msg.sender.transfer(_amount);\r\n        return true;\r\n    }\r\n\r\n    function getMarginValue(\r\n            address _address\r\n        ) \r\n        public\r\n        stoppable\r\n        constant\r\n        returns (uint)\r\n    {\r\n        return collateralBalances[_address];\r\n    }\r\n\r\n    function getNetValue(\r\n            address _address\r\n        )\r\n        public\r\n        stoppable\r\n        constant\r\n        returns (uint)\r\n    {\r\n        return add(\r\n            getMarginValue(_address),\r\n            add(\r\n                LendroidPositionManager.unRealizedPLs(_address),\r\n                LendroidLoanManager.unRealizedLendingFees(_address)\r\n            )\r\n        );\r\n    }\r\n\r\n    function getTotalBorrowedValue(\r\n            address _address\r\n        ) \r\n        public\r\n        stoppable\r\n        constant\r\n        returns (uint)\r\n    {\r\n        return loanBalances[_address];\r\n    }\r\n\r\n    function getCurrentMargin(\r\n            address _address\r\n        ) \r\n        public\r\n        stoppable\r\n        constant\r\n        returns (uint)\r\n    {\r\n        return wdiv(getNetValue(_address), getTotalBorrowedValue(_address));\r\n    }\r\n\r\n    function isMarginAccountHealthy(\r\n            address _address\r\n        ) \r\n        public\r\n        stoppable\r\n        constant\r\n        returns (bool)\r\n    {\r\n        return getCurrentMargin(_address) > wdiv(LendroidNetworkParameters.liquidationMargin(), 100);\r\n    }\r\n\r\n    // Get maximum amount that can be borrowed\r\n    function getMaximumBorrowableAmount(\r\n            address _address\r\n        )\r\n        public\r\n        stoppable\r\n        constant\r\n        returns (uint)\r\n    {\r\n        return sub(\r\n            wmul(\r\n                LendroidNetworkParameters.borrowableLevel(),\r\n                getMarginValue(_address)\r\n            ),\r\n            getTotalBorrowedValue(_address)\r\n        );\r\n    }\r\n    \r\n    // Get maximum collateral amount that can be withdrawn\r\n    function getMaximumWithdrawableAmount(\r\n            address _address\r\n        )\r\n        public\r\n        stoppable\r\n        constant\r\n        returns (uint)\r\n    {\r\n        if (getTotalBorrowedValue(_address) == 0) {\r\n            return getMarginValue(_address);\r\n        }\r\n        if (getCurrentMargin(_address) > wdiv(LendroidNetworkParameters.initialMargin(), 100)) {\r\n            return sub(\r\n                getNetValue(_address),\r\n                mul(\r\n                    getTotalBorrowedValue(_address),\r\n                    wdiv(\r\n                        LendroidNetworkParameters.initialMargin(),\r\n                        100\r\n                    )\r\n                )\r\n            );\r\n        }\r\n        else {\r\n            return 0;\r\n        }\r\n    }\r\n\r\n    // Get maximum position amount that can be opened\r\n    function getMaximumPositionOpenableAmount(\r\n            address _address\r\n        )\r\n        public\r\n        stoppable\r\n        constant\r\n        returns (uint)\r\n    {\r\n        return loanBalances[_address];\r\n    }\r\n\r\n    // authorized call to reshuffle balances\r\n    function encumberCollateral(\r\n            address _borrower,\r\n            uint _loanTokenAmount\r\n        )\r\n        public\r\n        stoppable\r\n        // auth// loanmanager\r\n        onlyLoanManager\r\n        returns (bool)\r\n    {\r\n        // Check eligibility\r\n        // lender has enough funds to lend loan\r\n        // require(this.balance >= _loanTokenAmount);\r\n        require(fundingBalances[address(this)] >= _loanTokenAmount);\r\n        // Update fundingBalances\r\n        fundingBalances[address(this)] = sub(fundingBalances[address(this)], _loanTokenAmount);\r\n        // Update loanBalances\r\n        loanBalances[_borrower] = add(loanBalances[_borrower], _loanTokenAmount);\r\n        return true;\r\n    }\r\n\r\n    // authorized call to reshuffle balances\r\n    function unEncumberCollateral(\r\n            address _borrower,\r\n            uint _loanTokenAmount,\r\n            uint _loanTokenAmountPaid\r\n        )\r\n        public\r\n        stoppable\r\n        // auth// loanmanager\r\n        onlyLoanManager\r\n        returns (bool)\r\n    {\r\n        // Check eligibility\r\n        // borrower has enough funds to repay loan\r\n        require(loanBalances[_borrower] >= _loanTokenAmount);\r\n        // Update marginAccountBalances\r\n        loanBalances[_borrower] = sub(loanBalances[_borrower], _loanTokenAmount);\r\n        // Update fundingBalances\r\n        fundingBalances[address(this)] = add(fundingBalances[address(this)], _loanTokenAmountPaid);\r\n        return true;\r\n    }\r\n    \r\n    // authorized call to reshuffle balances\r\n    function openPosition(\r\n            address _borrower,\r\n            uint _positionAmount\r\n        )\r\n        public\r\n        stoppable\r\n        // auth// positionmanager\r\n        onlyPositionManager\r\n        returns (bool)\r\n    {\r\n        // Check eligibility\r\n        // borrower has enough margin account funds to open position\r\n        require(loanBalances[_borrower] >= _positionAmount);\r\n        // Update loanBalances\r\n        loanBalances[_borrower] = sub(loanBalances[_borrower], _positionAmount);\r\n        \r\n        return true;\r\n    }\r\n    \r\n    // authorized call to reshuffle balances\r\n    function closePosition(\r\n            address _borrower,\r\n            uint _positionAmount\r\n        )\r\n        public\r\n        stoppable\r\n        // auth// positionmanager\r\n        onlyPositionManager\r\n        returns (bool)\r\n    {\r\n        // Check eligibility\r\n        // Update loanBalances\r\n        loanBalances[_borrower] = add(loanBalances[_borrower], _positionAmount);\r\n        \r\n        return true;\r\n    }\r\n}",
  "sourcePath": "C:\\work\\programming\\ethereum\\lendroid\\protocol-demo\\contracts\\Wallet.sol",
  "compiler": {
    "name": "solc",
    "version": "0.4.18+commit.9cf6e910.Emscripten.clang"
  },
  "schemaVersion": "1.0.1",
  "updatedAt": "2017-11-13T21:05:58.054Z"
}