{
  "contractName": "Wallet",
  "abi": [
    {
      "constant": false,
      "inputs": [],
      "name": "stop",
      "outputs": [],
      "payable": false,
      "stateMutability": "nonpayable",
      "type": "function"
    },
    {
      "constant": true,
      "inputs": [
        {
          "name": "_address",
          "type": "address"
        }
      ],
      "name": "getPositionBalance",
      "outputs": [
        {
          "name": "",
          "type": "uint256"
        }
      ],
      "payable": false,
      "stateMutability": "view",
      "type": "function"
    },
    {
      "constant": false,
      "inputs": [
        {
          "name": "owner_",
          "type": "address"
        },
        {
          "name": "dst",
          "type": "address"
        },
        {
          "name": "wad",
          "type": "uint256"
        }
      ],
      "name": "setOwner",
      "outputs": [
        {
          "name": "",
          "type": "bool"
        }
      ],
      "payable": false,
      "stateMutability": "nonpayable",
      "type": "function"
    },
    {
      "constant": false,
      "inputs": [
        {
          "name": "_borrower",
          "type": "address"
        },
        {
          "name": "_positionAmount",
          "type": "uint256"
        },
        {
          "name": "wad",
          "type": "uint256"
        }
      ],
      "name": "openPosition",
      "outputs": [
        {
          "name": "",
          "type": "bool"
        },
        {
          "name": "",
          "type": "uint256"
        }
      ],
      "payable": false,
      "stateMutability": "nonpayable",
      "type": "function"
    },
    {
      "constant": false,
      "inputs": [
        {
          "name": "_address",
          "type": "address"
        },
        {
          "name": "_address",
          "type": "address"
        }
      ],
      "name": "depositLendingFunds",
      "outputs": [
        {
          "name": "",
          "type": "bool"
        }
      ],
      "payable": true,
      "stateMutability": "payable",
      "type": "function"
    },
    {
      "constant": false,
      "inputs": [
        {
          "name": "token",
          "type": "address"
        },
        {
          "name": "dst",
          "type": "address"
        },
        {
          "name": "wad",
          "type": "uint256"
        }
      ],
      "name": "push",
      "outputs": [
        {
          "name": "",
          "type": "bool"
        }
      ],
      "payable": false,
      "stateMutability": "nonpayable",
      "type": "function"
    },
    {
      "constant": true,
      "inputs": [
        {
          "name": "_address",
          "type": "address"
        },
        {
          "name": "wad",
          "type": "uint256"
        },
        {
          "name": "_loanTokenAmount",
          "type": "uint256"
        },
        {
          "name": "_collateralTokenAmount",
          "type": "uint256"
        },
        {
          "name": "_repayAmount",
          "type": "uint256"
        },
        {
          "name": "_lender",
          "type": "address"
        },
        {
          "name": "_borrower",
          "type": "address"
        },
        {
          "name": "_loanHash",
          "type": "bytes32"
        }
      ],
      "name": "getCollateralBalance",
      "outputs": [
        {
          "name": "",
          "type": "uint256"
        }
      ],
      "payable": false,
      "stateMutability": "view",
      "type": "function"
    },
    {
      "constant": false,
      "inputs": [
        {
          "name": "_borrower",
          "type": "address"
        },
        {
          "name": "_loanTokenAmount",
          "type": "uint256"
        },
        {
          "name": "_loanTokenAmountPaid",
          "type": "uint256"
        }
      ],
      "name": "encumberCollateral",
      "outputs": [
        {
          "name": "",
          "type": "bool"
        }
      ],
      "payable": false,
      "stateMutability": "nonpayable",
      "type": "function"
    },
    {
      "constant": true,
      "inputs": [
        {
          "name": "_address",
          "type": "address"
        },
        {
          "name": "src",
          "type": "address"
        },
        {
          "name": "wad",
          "type": "uint256"
        }
      ],
      "name": "getFundingBalance",
      "outputs": [
        {
          "name": "",
          "type": "uint256"
        }
      ],
      "payable": false,
      "stateMutability": "view",
      "type": "function"
    },
    {
      "constant": false,
      "inputs": [
        {
          "name": "token",
          "type": "address"
        },
        {
          "name": "wad",
          "type": "uint256"
        },
        {
          "name": "_loanTokenAmountPaid",
          "type": "uint256"
        }
      ],
      "name": "mint",
      "outputs": [
        {
          "name": "",
          "type": "bool"
        }
      ],
      "payable": false,
      "stateMutability": "nonpayable",
      "type": "function"
    },
    {
      "constant": true,
      "inputs": [
        {
          "name": "_address",
          "type": "address"
        }
      ],
      "name": "getMaximumWithdrawableAmount",
      "outputs": [
        {
          "name": "",
          "type": "uint256"
        }
      ],
      "payable": false,
      "stateMutability": "view",
      "type": "function"
    },
    {
      "constant": false,
      "inputs": [
        {
          "name": "_borrower",
          "type": "address"
        },
        {
          "name": "_loanTokenAmount",
          "type": "uint256"
        },
        {
          "name": "_loanTokenAmountPaid",
          "type": "uint256"
        }
      ],
      "name": "unEncumberCollateral",
      "outputs": [
        {
          "name": "",
          "type": "bool"
        }
      ],
      "payable": false,
      "stateMutability": "nonpayable",
      "type": "function"
    },
    {
      "constant": false,
      "inputs": [
        {
          "name": "_amount",
          "type": "uint256"
        }
      ],
      "name": "withdrawCollateral",
      "outputs": [
        {
          "name": "",
          "type": "bool"
        }
      ],
      "payable": false,
      "stateMutability": "nonpayable",
      "type": "function"
    },
    {
      "constant": false,
      "inputs": [
        {
          "name": "token",
          "type": "address"
        },
        {
          "name": "src",
          "type": "address"
        },
        {
          "name": "wad",
          "type": "uint256"
        }
      ],
      "name": "pull",
      "outputs": [
        {
          "name": "",
          "type": "address"
        }
      ],
      "payable": false,
      "stateMutability": "nonpayable",
      "type": "function"
    },
    {
      "constant": false,
      "inputs": [
        {
          "name": "_address",
          "type": "address"
        },
        {
          "name": "wad",
          "type": "uint256"
        }
      ],
      "name": "depositCollateral",
      "outputs": [
        {
          "name": "",
          "type": "bool"
        }
      ],
      "payable": true,
      "stateMutability": "payable",
      "type": "function"
    },
    {
      "constant": false,
      "inputs": [
        {
          "name": "token",
          "type": "address"
        },
        {
          "name": "src",
          "type": "address"
        },
        {
          "name": "wad",
          "type": "uint256"
        }
      ],
      "name": "pull",
      "outputs": [
        {
          "name": "",
          "type": "bool"
        }
      ],
      "payable": false,
      "stateMutability": "nonpayable",
      "type": "function"
    },
    {
      "constant": false,
      "inputs": [
        {
          "name": "_borrower",
          "type": "address"
        },
        {
          "name": "_positionAmount",
          "type": "uint256"
        }
      ],
      "name": "closePosition",
      "outputs": [
        {
          "name": "",
          "type": "bool"
        }
      ],
      "payable": false,
      "stateMutability": "nonpayable",
      "type": "function"
    },
    {
      "constant": true,
      "inputs": [
        {
          "name": "token",
          "type": "address"
        },
        {
          "name": "wad",
          "type": "uint256"
        }
      ],
      "name": "stopped",
      "outputs": [
        {
          "name": "",
          "type": "bool"
        }
      ],
      "payable": false,
      "stateMutability": "view",
      "type": "function"
    },
    {
      "constant": false,
      "inputs": [
        {
          "name": "authority_",
          "type": "address"
        }
      ],
      "name": "setAuthority",
      "outputs": [
        {
          "name": "",
          "type": "address"
        }
      ],
      "payable": false,
      "stateMutability": "nonpayable",
      "type": "function"
    },
    {
      "constant": false,
      "inputs": [
        {
          "name": "_address",
          "type": "address"
        },
        {
          "name": "wad",
          "type": "uint256"
        },
        {
          "name": "wad",
          "type": "uint256"
        }
      ],
      "name": "setLendroidNetworkParameters",
      "outputs": [
        {
          "name": "",
          "type": "bool"
        }
      ],
      "payable": false,
      "stateMutability": "nonpayable",
      "type": "function"
    },
    {
      "constant": false,
      "inputs": [
        {
          "name": "token",
          "type": "address"
        },
        {
          "name": "_address",
          "type": "address"
        }
      ],
      "name": "burn",
      "outputs": [
        {
          "name": "",
          "type": "uint256"
        }
      ],
      "payable": false,
      "stateMutability": "nonpayable",
      "type": "function"
    },
    {
      "constant": true,
      "inputs": [
        {
          "name": "token",
          "type": "address"
        },
        {
          "name": "dst",
          "type": "address"
        }
      ],
      "name": "owner",
      "outputs": [
        {
          "name": "",
          "type": "address"
        }
      ],
      "payable": false,
      "stateMutability": "view",
      "type": "function"
    },
    {
      "constant": true,
      "inputs": [
        {
          "name": "_address",
          "type": "address"
        },
        {
          "name": "guy",
          "type": "address"
        },
        {
          "name": "wad",
          "type": "uint256"
        },
        {
          "name": "_toAccountType",
          "type": "uint8"
        }
      ],
      "name": "getMaximumPositionOpenableAmount",
      "outputs": [
        {
          "name": "",
          "type": "uint256"
        }
      ],
      "payable": false,
      "stateMutability": "view",
      "type": "function"
    },
    {
      "constant": false,
      "inputs": [
        {
          "name": "token",
          "type": "address"
        },
        {
          "name": "wad",
          "type": "uint256"
        },
        {
          "name": "wad",
          "type": "uint256"
        }
      ],
      "name": "burn",
      "outputs": [
        {
          "name": "",
          "type": "address"
        }
      ],
      "payable": false,
      "stateMutability": "nonpayable",
      "type": "function"
    },
    {
      "constant": true,
      "inputs": [
        {
          "name": "_address",
          "type": "address"
        },
        {
          "name": "guy",
          "type": "address"
        },
        {
          "name": "wad",
          "type": "uint256"
        }
      ],
      "name": "getMaximumBorrowableAmount",
      "outputs": [
        {
          "name": "",
          "type": "uint256"
        }
      ],
      "payable": false,
      "stateMutability": "view",
      "type": "function"
    },
    {
      "anonymous": false,
      "inputs": [
        {
          "indexed": true,
          "name": "token",
          "type": "address"
        },
        {
          "name": "dst",
          "type": "address"
        }
      ],
      "name": "push",
      "type": "function",
      "constant": false,
      "outputs": [
        {
          "name": "",
          "type": "uint256"
        }
      ],
      "payable": false,
      "stateMutability": "nonpayable"
    },
    {
      "anonymous": false,
      "inputs": [
        {
          "indexed": true,
          "name": "_address",
          "type": "address"
        },
        {
          "name": "guy",
          "type": "address"
        },
        {
          "name": "wad",
          "type": "uint256"
        }
      ],
      "name": "getTradeAccountBalance",
      "type": "function",
      "constant": true,
      "outputs": [
        {
          "name": "",
          "type": "uint256"
        }
      ],
      "payable": false,
      "stateMutability": "view"
    },
    {
      "anonymous": true,
      "inputs": [
        {
          "indexed": true,
          "name": "sig",
          "type": "bytes4"
        },
        {
          "indexed": true,
          "name": "guy",
          "type": "address"
        },
        {
          "indexed": true,
          "name": "foo",
          "type": "bytes32"
        },
        {
          "indexed": true,
          "name": "bar",
          "type": "bytes32"
        },
        {
          "indexed": false,
          "name": "wad",
          "type": "uint256"
        },
        {
          "indexed": false,
          "name": "fax",
          "type": "bytes"
        }
      ],
      "name": "start",
      "type": "function",
      "payable": false,
      "stateMutability": "nonpayable",
      "constant": false,
      "outputs": []
    },
    {
      "anonymous": false,
      "inputs": [
        {
          "indexed": true,
          "name": "authority",
          "type": "address"
        }
      ],
      "name": "authority",
      "type": "function",
      "constant": true,
      "outputs": [
        {
          "name": "",
          "type": "address"
        }
      ],
      "payable": false,
      "stateMutability": "view"
    },
    {
      "anonymous": false,
      "inputs": [
        {
          "indexed": true,
          "name": "token",
          "type": "address"
        },
        {
          "name": "guy",
          "type": "address"
        },
        {
          "name": "wad",
          "type": "uint256"
        }
      ],
      "name": "mint",
      "type": "function",
      "constant": false,
      "outputs": [],
      "payable": false,
      "stateMutability": "nonpayable"
    },
    {
      "anonymous": true,
      "inputs": [
        {
          "indexed": true,
          "name": "token",
          "type": "address"
        },
        {
          "indexed": true,
          "name": "guy",
          "type": "address"
        },
        {
          "indexed": true,
          "name": "wad",
          "type": "uint256"
        },
        {
          "indexed": true,
          "name": "bar",
          "type": "bytes32"
        },
        {
          "indexed": false,
          "name": "wad",
          "type": "uint256"
        },
        {
          "indexed": false,
          "name": "fax",
          "type": "bytes"
        }
      ],
      "name": "burn",
      "type": "function",
      "constant": false,
      "outputs": [],
      "payable": false,
      "stateMutability": "nonpayable"
    },
    {
      "payable": false,
      "stateMutability": "nonpayable",
      "type": "fallback"
    },
    {
      "anonymous": false,
      "inputs": [
        {
          "indexed": true,
          "name": "authority",
          "type": "address"
        }
      ],
      "name": "LogSetAuthority",
      "type": "event"
    },
    {
      "anonymous": false,
      "inputs": [
        {
          "indexed": true,
          "name": "owner",
          "type": "address"
        }
      ],
      "name": "LogSetOwner",
      "type": "event"
    },
    {
      "anonymous": true,
      "inputs": [
        {
          "indexed": true,
          "name": "sig",
          "type": "bytes4"
        },
        {
          "indexed": true,
          "name": "guy",
          "type": "address"
        },
        {
          "indexed": true,
          "name": "foo",
          "type": "bytes32"
        },
        {
          "indexed": true,
          "name": "bar",
          "type": "bytes32"
        },
        {
          "indexed": false,
          "name": "wad",
          "type": "uint256"
        },
        {
          "indexed": false,
          "name": "fax",
          "type": "bytes"
        }
      ],
      "name": "LogNote",
      "type": "event"
    }
  ],
  "bytecode": "0x606060405233600160006101000a81548173ffffffffffffffffffffffffffffffffffffffff021916908373ffffffffffffffffffffffffffffffffffffffff1602179055503373ffffffffffffffffffffffffffffffffffffffff167fce241d7ca1f669fee44b6fc00b8eba2df3bb514eed0f6f668f8f89096e81ed9460405160405180910390a2612c4d806100976000396000f30060606040526004361061018b576000357c0100000000000000000000000000000000000000000000000000000000900463ffffffff16806307da68f51461019b5780630c3f7e7f146101b057806313af4035146101fd578063197897fc146102365780631f9f01ca1461029057806326e8eda2146102b25780632703ee85146103135780633c40b308146103605780633fdd7ab5146103ba57806340c10f19146103e35780635792d30a146104255780635ac6d8ab146104725780636112fe2e146104d557806366b3bcb0146105105780636f758140146105685780637372c2b51461058a578063742fe1f8146105eb57806375f12b21146106455780637a9e5e4b14610672578063885c43cd146106ab57806389afcb44146106fc5780638da5cb5b1461073557806390fde0051461078a5780639dc29fac146107d7578063b11b97f514610819578063b716ba6714610866578063b973d3c6146108be578063be9a65551461090b578063bf7e214f14610920578063c6c3bbe614610975578063f6b911bc146109d6575b341561019657600080fd5b600080fd5b34156101a657600080fd5b6101ae610a37565b005b34156101bb57600080fd5b6101e7600480803573ffffffffffffffffffffffffffffffffffffffff16906020019091905050610b39565b6040518082815260200191505060405180910390f35b341561020857600080fd5b610234600480803573ffffffffffffffffffffffffffffffffffffffff16906020019091905050610b9e565b005b341561024157600080fd5b610276600480803573ffffffffffffffffffffffffffffffffffffffff16906020019091908035906020019091905050610c80565b604051808215151515815260200191505060405180910390f35b610298610e0e565b604051808215151515815260200191505060405180910390f35b34156102bd57600080fd5b610311600480803573ffffffffffffffffffffffffffffffffffffffff1690602001909190803573ffffffffffffffffffffffffffffffffffffffff16906020019091908035906020019091905050610ef8565b005b341561031e57600080fd5b61034a600480803573ffffffffffffffffffffffffffffffffffffffff16906020019091905050611004565b6040518082815260200191505060405180910390f35b341561036b57600080fd5b6103a0600480803573ffffffffffffffffffffffffffffffffffffffff16906020019091908035906020019091905050611069565b604051808215151515815260200191505060405180910390f35b34156103c557600080fd5b6103cd6111f7565b6040518082815260200191505060405180910390f35b34156103ee57600080fd5b610423600480803573ffffffffffffffffffffffffffffffffffffffff1690602001909190803590602001909190505061125a565b005b341561043057600080fd5b61045c600480803573ffffffffffffffffffffffffffffffffffffffff16906020019091905050611319565b6040518082815260200191505060405180910390f35b341561047d57600080fd5b6104bb600480803573ffffffffffffffffffffffffffffffffffffffff169060200190919080359060200190919080359060200190919050506114bd565b604051808215151515815260200191505060405180910390f35b34156104e057600080fd5b6104f6600480803590602001909190505061164c565b604051808215151515815260200191505060405180910390f35b341561051b57600080fd5b610566600480803573ffffffffffffffffffffffffffffffffffffffff1690602001909190803573ffffffffffffffffffffffffffffffffffffffff1690602001909190505061183a565b005b610570611906565b604051808215151515815260200191505060405180910390f35b341561059557600080fd5b6105e9600480803573ffffffffffffffffffffffffffffffffffffffff1690602001909190803573ffffffffffffffffffffffffffffffffffffffff16906020019091908035906020019091905050611a8f565b005b34156105f657600080fd5b61062b600480803573ffffffffffffffffffffffffffffffffffffffff16906020019091908035906020019091905050611bcf565b604051808215151515815260200191505060405180910390f35b341561065057600080fd5b610658611d5d565b604051808215151515815260200191505060405180910390f35b341561067d57600080fd5b6106a9600480803573ffffffffffffffffffffffffffffffffffffffff16906020019091905050611d70565b005b34156106b657600080fd5b6106e2600480803573ffffffffffffffffffffffffffffffffffffffff16906020019091905050611e50565b604051808215151515815260200191505060405180910390f35b341561070757600080fd5b610733600480803573ffffffffffffffffffffffffffffffffffffffff16906020019091905050611ef1565b005b341561074057600080fd5b61074861206c565b604051808273ffffffffffffffffffffffffffffffffffffffff1673ffffffffffffffffffffffffffffffffffffffff16815260200191505060405180910390f35b341561079557600080fd5b6107c1600480803573ffffffffffffffffffffffffffffffffffffffff16906020019091905050612092565b6040518082815260200191505060405180910390f35b34156107e257600080fd5b610817600480803573ffffffffffffffffffffffffffffffffffffffff16906020019091908035906020019091905050612236565b005b341561082457600080fd5b610850600480803573ffffffffffffffffffffffffffffffffffffffff169060200190919050506122f5565b6040518082815260200191505060405180910390f35b341561087157600080fd5b6108bc600480803573ffffffffffffffffffffffffffffffffffffffff1690602001909190803573ffffffffffffffffffffffffffffffffffffffff16906020019091905050612499565b005b34156108c957600080fd5b6108f5600480803573ffffffffffffffffffffffffffffffffffffffff16906020019091905050612565565b6040518082815260200191505060405180910390f35b341561091657600080fd5b61091e6125ca565b005b341561092b57600080fd5b6109336126cd565b604051808273ffffffffffffffffffffffffffffffffffffffff1673ffffffffffffffffffffffffffffffffffffffff16815260200191505060405180910390f35b341561098057600080fd5b6109d4600480803573ffffffffffffffffffffffffffffffffffffffff1690602001909190803573ffffffffffffffffffffffffffffffffffffffff169060200190919080359060200190919050506126f2565b005b34156109e157600080fd5b610a35600480803573ffffffffffffffffffffffffffffffffffffffff1690602001909190803573ffffffffffffffffffffffffffffffffffffffff169060200190919080359060200190919050506127e6565b005b610a65336000357fffffffff00000000000000000000000000000000000000000000000000000000166128da565b1515610a7057600080fd5b60008060043591506024359050806000191682600019163373ffffffffffffffffffffffffffffffffffffffff166000357fffffffff00000000000000000000000000000000000000000000000000000000167bffffffffffffffffffffffffffffffffffffffffffffffffffffffff19163460003660405180848152602001806020018281038252848482818152602001925080828437820191505094505050505060405180910390a460018060146101000a81548160ff0219169083151502179055505050565b6000600160149054906101000a900460ff16151515610b5757600080fd5b600660008373ffffffffffffffffffffffffffffffffffffffff1673ffffffffffffffffffffffffffffffffffffffff168152602001908152602001600020549050919050565b610bcc336000357fffffffff00000000000000000000000000000000000000000000000000000000166128da565b1515610bd757600080fd5b80600160006101000a81548173ffffffffffffffffffffffffffffffffffffffff021916908373ffffffffffffffffffffffffffffffffffffffff160217905550600160009054906101000a900473ffffffffffffffffffffffffffffffffffffffff1673ffffffffffffffffffffffffffffffffffffffff167fce241d7ca1f669fee44b6fc00b8eba2df3bb514eed0f6f668f8f89096e81ed9460405160405180910390a250565b6000600160149054906101000a900460ff16151515610c9e57600080fd5b81600560008573ffffffffffffffffffffffffffffffffffffffff1673ffffffffffffffffffffffffffffffffffffffff1681526020019081526020016000205410151515610cec57600080fd5b610d35600560008573ffffffffffffffffffffffffffffffffffffffff1673ffffffffffffffffffffffffffffffffffffffff1681526020019081526020016000205483612b39565b600560008573ffffffffffffffffffffffffffffffffffffffff1673ffffffffffffffffffffffffffffffffffffffff16815260200190815260200160002081905550610dc1600660008573ffffffffffffffffffffffffffffffffffffffff1673ffffffffffffffffffffffffffffffffffffffff1681526020019081526020016000205483612b55565b600660008573ffffffffffffffffffffffffffffffffffffffff1673ffffffffffffffffffffffffffffffffffffffff168152602001908152602001600020819055506001905092915050565b6000600160149054906101000a900460ff16151515610e2c57600080fd5b610e5a336000357fffffffff00000000000000000000000000000000000000000000000000000000166128da565b1515610e6557600080fd5b610eae600360003073ffffffffffffffffffffffffffffffffffffffff1673ffffffffffffffffffffffffffffffffffffffff1681526020019081526020016000205434612b55565b600360003073ffffffffffffffffffffffffffffffffffffffff1673ffffffffffffffffffffffffffffffffffffffff168152602001908152602001600020819055506001905090565b610f26336000357fffffffff00000000000000000000000000000000000000000000000000000000166128da565b1515610f3157600080fd5b8273ffffffffffffffffffffffffffffffffffffffff1663a9059cbb83836000604051602001526040518363ffffffff167c0100000000000000000000000000000000000000000000000000000000028152600401808373ffffffffffffffffffffffffffffffffffffffff1673ffffffffffffffffffffffffffffffffffffffff16815260200182815260200192505050602060405180830381600087803b1515610fdc57600080fd5b6102c65a03f11515610fed57600080fd5b505050604051805190501515610fff57fe5b505050565b6000600160149054906101000a900460ff1615151561102257600080fd5b600460008373ffffffffffffffffffffffffffffffffffffffff1673ffffffffffffffffffffffffffffffffffffffff168152602001908152602001600020549050919050565b6000600160149054906101000a900460ff1615151561108757600080fd5b81600360003073ffffffffffffffffffffffffffffffffffffffff1673ffffffffffffffffffffffffffffffffffffffff16815260200190815260200160002054101515156110d557600080fd5b61111e600360003073ffffffffffffffffffffffffffffffffffffffff1673ffffffffffffffffffffffffffffffffffffffff1681526020019081526020016000205483612b39565b600360003073ffffffffffffffffffffffffffffffffffffffff1673ffffffffffffffffffffffffffffffffffffffff168152602001908152602001600020819055506111aa600560008573ffffffffffffffffffffffffffffffffffffffff1673ffffffffffffffffffffffffffffffffffffffff1681526020019081526020016000205483612b55565b600560008573ffffffffffffffffffffffffffffffffffffffff1673ffffffffffffffffffffffffffffffffffffffff168152602001908152602001600020819055506001905092915050565b6000600160149054906101000a900460ff1615151561121557600080fd5b600360003073ffffffffffffffffffffffffffffffffffffffff1673ffffffffffffffffffffffffffffffffffffffff16815260200190815260200160002054905090565b611288336000357fffffffff00000000000000000000000000000000000000000000000000000000166128da565b151561129357600080fd5b8173ffffffffffffffffffffffffffffffffffffffff1663a0712d68826040518263ffffffff167c010000000000000000000000000000000000000000000000000000000002815260040180828152602001915050600060405180830381600087803b151561130157600080fd5b6102c65a03f1151561131257600080fd5b5050505050565b6000600160149054906101000a900460ff1615151561133757600080fd5b6114b661134383611004565b6114b161134f85612565565b6114ac600260009054906101000a900473ffffffffffffffffffffffffffffffffffffffff1673ffffffffffffffffffffffffffffffffffffffff1663079110526000604051602001526040518163ffffffff167c0100000000000000000000000000000000000000000000000000000000028152600401602060405180830381600087803b15156113e057600080fd5b6102c65a03f115156113f157600080fd5b50505060405180519050600260009054906101000a900473ffffffffffffffffffffffffffffffffffffffff1673ffffffffffffffffffffffffffffffffffffffff1663313ce5676000604051602001526040518163ffffffff167c0100000000000000000000000000000000000000000000000000000000028152600401602060405180830381600087803b151561148957600080fd5b6102c65a03f1151561149a57600080fd5b50505060405180519050600a0a612b71565b612b71565b612b39565b9050919050565b6000600160149054906101000a900460ff161515156114db57600080fd5b82600560008673ffffffffffffffffffffffffffffffffffffffff1673ffffffffffffffffffffffffffffffffffffffff168152602001908152602001600020541015151561152957600080fd5b611572600560008673ffffffffffffffffffffffffffffffffffffffff1673ffffffffffffffffffffffffffffffffffffffff1681526020019081526020016000205484612b39565b600560008673ffffffffffffffffffffffffffffffffffffffff1673ffffffffffffffffffffffffffffffffffffffff168152602001908152602001600020819055506115fe600360003073ffffffffffffffffffffffffffffffffffffffff1673ffffffffffffffffffffffffffffffffffffffff1681526020019081526020016000205483612b55565b600360003073ffffffffffffffffffffffffffffffffffffffff1673ffffffffffffffffffffffffffffffffffffffff16815260200190815260200160002081905550600190509392505050565b600080600160149054906101000a900460ff1615151561166b57600080fd5b600083118015611683575061167f33611319565b8311155b151561168e57600080fd5b6116d7600460003373ffffffffffffffffffffffffffffffffffffffff1673ffffffffffffffffffffffffffffffffffffffff1681526020019081526020016000205484612b39565b600460003373ffffffffffffffffffffffffffffffffffffffff1673ffffffffffffffffffffffffffffffffffffffff16815260200190815260200160002081905550600260009054906101000a900473ffffffffffffffffffffffffffffffffffffffff1673ffffffffffffffffffffffffffffffffffffffff1663fa7fdeb76000604051602001526040518163ffffffff167c010000000000000000000000000000000000000000000000000000000002815260040180807f572d4554480000000000000000000000000000000000000000000000000000008152506020019050602060405180830381600087803b15156117d357600080fd5b6102c65a03f115156117e457600080fd5b5050506040518051905090503373ffffffffffffffffffffffffffffffffffffffff166108fc849081150290604051600060405180830381858888f19350505050151561183057600080fd5b6001915050919050565b61190282828473ffffffffffffffffffffffffffffffffffffffff166370a08231856000604051602001526040518263ffffffff167c0100000000000000000000000000000000000000000000000000000000028152600401808273ffffffffffffffffffffffffffffffffffffffff1673ffffffffffffffffffffffffffffffffffffffff168152602001915050602060405180830381600087803b15156118e257600080fd5b6102c65a03f115156118f357600080fd5b50505060405180519050611a8f565b5050565b600080600160149054906101000a900460ff1615151561192557600080fd5b600260009054906101000a900473ffffffffffffffffffffffffffffffffffffffff1673ffffffffffffffffffffffffffffffffffffffff1663fa7fdeb76000604051602001526040518163ffffffff167c010000000000000000000000000000000000000000000000000000000002815260040180807f572d4554480000000000000000000000000000000000000000000000000000008152506020019050602060405180830381600087803b15156119de57600080fd5b6102c65a03f115156119ef57600080fd5b505050604051805190509050611a44600460003373ffffffffffffffffffffffffffffffffffffffff1673ffffffffffffffffffffffffffffffffffffffff1681526020019081526020016000205434612b55565b600460003373ffffffffffffffffffffffffffffffffffffffff1673ffffffffffffffffffffffffffffffffffffffff16815260200190815260200160002081905550600191505090565b611abd336000357fffffffff00000000000000000000000000000000000000000000000000000000166128da565b1515611ac857600080fd5b8273ffffffffffffffffffffffffffffffffffffffff166323b872dd8330846000604051602001526040518463ffffffff167c0100000000000000000000000000000000000000000000000000000000028152600401808473ffffffffffffffffffffffffffffffffffffffff1673ffffffffffffffffffffffffffffffffffffffff1681526020018373ffffffffffffffffffffffffffffffffffffffff1673ffffffffffffffffffffffffffffffffffffffff1681526020018281526020019350505050602060405180830381600087803b1515611ba757600080fd5b6102c65a03f11515611bb857600080fd5b505050604051805190501515611bca57fe5b505050565b6000600160149054906101000a900460ff16151515611bed57600080fd5b81600660008573ffffffffffffffffffffffffffffffffffffffff1673ffffffffffffffffffffffffffffffffffffffff1681526020019081526020016000205410151515611c3b57600080fd5b611c84600660008573ffffffffffffffffffffffffffffffffffffffff1673ffffffffffffffffffffffffffffffffffffffff1681526020019081526020016000205483612b39565b600660008573ffffffffffffffffffffffffffffffffffffffff1673ffffffffffffffffffffffffffffffffffffffff16815260200190815260200160002081905550611d10600560008573ffffffffffffffffffffffffffffffffffffffff1673ffffffffffffffffffffffffffffffffffffffff1681526020019081526020016000205483612b55565b600560008573ffffffffffffffffffffffffffffffffffffffff1673ffffffffffffffffffffffffffffffffffffffff168152602001908152602001600020819055506001905092915050565b600160149054906101000a900460ff1681565b611d9e336000357fffffffff00000000000000000000000000000000000000000000000000000000166128da565b1515611da957600080fd5b806000806101000a81548173ffffffffffffffffffffffffffffffffffffffff021916908373ffffffffffffffffffffffffffffffffffffffff1602179055506000809054906101000a900473ffffffffffffffffffffffffffffffffffffffff1673ffffffffffffffffffffffffffffffffffffffff167f1abebea81bfa2637f28358c371278fb15ede7ea8dd28d2e03b112ff6d936ada460405160405180910390a250565b6000600160149054906101000a900460ff16151515611e6e57600080fd5b611e9c336000357fffffffff00000000000000000000000000000000000000000000000000000000166128da565b1515611ea757600080fd5b81600260006101000a81548173ffffffffffffffffffffffffffffffffffffffff021916908373ffffffffffffffffffffffffffffffffffffffff16021790555060019050919050565b611f1f336000357fffffffff00000000000000000000000000000000000000000000000000000000166128da565b1515611f2a57600080fd5b8073ffffffffffffffffffffffffffffffffffffffff166342966c688273ffffffffffffffffffffffffffffffffffffffff166370a08231306000604051602001526040518263ffffffff167c0100000000000000000000000000000000000000000000000000000000028152600401808273ffffffffffffffffffffffffffffffffffffffff1673ffffffffffffffffffffffffffffffffffffffff168152602001915050602060405180830381600087803b1515611fe957600080fd5b6102c65a03f11515611ffa57600080fd5b505050604051805190506040518263ffffffff167c010000000000000000000000000000000000000000000000000000000002815260040180828152602001915050600060405180830381600087803b151561205557600080fd5b6102c65a03f1151561206657600080fd5b50505050565b600160009054906101000a900473ffffffffffffffffffffffffffffffffffffffff1681565b6000600160149054906101000a900460ff161515156120b057600080fd5b61222f612221612213600260009054906101000a900473ffffffffffffffffffffffffffffffffffffffff1673ffffffffffffffffffffffffffffffffffffffff1663707344c76000604051602001526040518163ffffffff167c0100000000000000000000000000000000000000000000000000000000028152600401602060405180830381600087803b151561214757600080fd5b6102c65a03f1151561215857600080fd5b50505060405180519050600260009054906101000a900473ffffffffffffffffffffffffffffffffffffffff1673ffffffffffffffffffffffffffffffffffffffff1663313ce5676000604051602001526040518163ffffffff167c0100000000000000000000000000000000000000000000000000000000028152600401602060405180830381600087803b15156121f057600080fd5b6102c65a03f1151561220157600080fd5b50505060405180519050600a0a612b71565b61221c85611004565b612bad565b61222a84610b39565b612b39565b9050919050565b612264336000357fffffffff00000000000000000000000000000000000000000000000000000000166128da565b151561226f57600080fd5b8173ffffffffffffffffffffffffffffffffffffffff166342966c68826040518263ffffffff167c010000000000000000000000000000000000000000000000000000000002815260040180828152602001915050600060405180830381600087803b15156122dd57600080fd5b6102c65a03f115156122ee57600080fd5b5050505050565b6000600160149054906101000a900460ff1615151561231357600080fd5b612492612484612476600260009054906101000a900473ffffffffffffffffffffffffffffffffffffffff1673ffffffffffffffffffffffffffffffffffffffff1663079110526000604051602001526040518163ffffffff167c0100000000000000000000000000000000000000000000000000000000028152600401602060405180830381600087803b15156123aa57600080fd5b6102c65a03f115156123bb57600080fd5b50505060405180519050600260009054906101000a900473ffffffffffffffffffffffffffffffffffffffff1673ffffffffffffffffffffffffffffffffffffffff1663313ce5676000604051602001526040518163ffffffff167c0100000000000000000000000000000000000000000000000000000000028152600401602060405180830381600087803b151561245357600080fd5b6102c65a03f1151561246457600080fd5b50505060405180519050600a0a612b71565b61247f85611004565b612bad565b61248d84612565565b612b39565b9050919050565b61256182828473ffffffffffffffffffffffffffffffffffffffff166370a08231306000604051602001526040518263ffffffff167c0100000000000000000000000000000000000000000000000000000000028152600401808273ffffffffffffffffffffffffffffffffffffffff1673ffffffffffffffffffffffffffffffffffffffff168152602001915050602060405180830381600087803b151561254157600080fd5b6102c65a03f1151561255257600080fd5b50505060405180519050610ef8565b5050565b6000600160149054906101000a900460ff1615151561258357600080fd5b600560008373ffffffffffffffffffffffffffffffffffffffff1673ffffffffffffffffffffffffffffffffffffffff168152602001908152602001600020549050919050565b6125f8336000357fffffffff00000000000000000000000000000000000000000000000000000000166128da565b151561260357600080fd5b60008060043591506024359050806000191682600019163373ffffffffffffffffffffffffffffffffffffffff166000357fffffffff00000000000000000000000000000000000000000000000000000000167bffffffffffffffffffffffffffffffffffffffffffffffffffffffff19163460003660405180848152602001806020018281038252848482818152602001925080828437820191505094505050505060405180910390a46000600160146101000a81548160ff0219169083151502179055505050565b6000809054906101000a900473ffffffffffffffffffffffffffffffffffffffff1681565b612720336000357fffffffff00000000000000000000000000000000000000000000000000000000166128da565b151561272b57600080fd5b8273ffffffffffffffffffffffffffffffffffffffff166340c10f1983836040518363ffffffff167c0100000000000000000000000000000000000000000000000000000000028152600401808373ffffffffffffffffffffffffffffffffffffffff1673ffffffffffffffffffffffffffffffffffffffff16815260200182815260200192505050600060405180830381600087803b15156127cd57600080fd5b6102c65a03f115156127de57600080fd5b505050505050565b612814336000357fffffffff00000000000000000000000000000000000000000000000000000000166128da565b151561281f57600080fd5b8273ffffffffffffffffffffffffffffffffffffffff16639dc29fac83836040518363ffffffff167c0100000000000000000000000000000000000000000000000000000000028152600401808373ffffffffffffffffffffffffffffffffffffffff1673ffffffffffffffffffffffffffffffffffffffff16815260200182815260200192505050600060405180830381600087803b15156128c157600080fd5b6102c65a03f115156128d257600080fd5b505050505050565b60003073ffffffffffffffffffffffffffffffffffffffff168373ffffffffffffffffffffffffffffffffffffffff1614156129195760019050612b33565b600160009054906101000a900473ffffffffffffffffffffffffffffffffffffffff1673ffffffffffffffffffffffffffffffffffffffff168373ffffffffffffffffffffffffffffffffffffffff1614156129785760019050612b33565b600073ffffffffffffffffffffffffffffffffffffffff166000809054906101000a900473ffffffffffffffffffffffffffffffffffffffff1673ffffffffffffffffffffffffffffffffffffffff1614156129d75760009050612b33565b6000809054906101000a900473ffffffffffffffffffffffffffffffffffffffff1673ffffffffffffffffffffffffffffffffffffffff1663b70096138430856000604051602001526040518463ffffffff167c0100000000000000000000000000000000000000000000000000000000028152600401808473ffffffffffffffffffffffffffffffffffffffff1673ffffffffffffffffffffffffffffffffffffffff1681526020018373ffffffffffffffffffffffffffffffffffffffff1673ffffffffffffffffffffffffffffffffffffffff168152602001827bffffffffffffffffffffffffffffffffffffffffffffffffffffffff19167bffffffffffffffffffffffffffffffffffffffffffffffffffffffff191681526020019350505050602060405180830381600087803b1515612b1557600080fd5b6102c65a03f11515612b2657600080fd5b5050506040518051905090505b92915050565b60008282840391508111151515612b4f57600080fd5b92915050565b60008282840191508110151515612b6b57600080fd5b92915050565b600081612b9b612b8985670de0b6b3a7640000612bf1565b600285811515612b9557fe5b04612b55565b811515612ba457fe5b04905092915050565b6000670de0b6b3a7640000612bdf612bc58585612bf1565b6002670de0b6b3a7640000811515612bd957fe5b04612b55565b811515612be857fe5b04905092915050565b600080821480612c1057508282838502925082811515612c0d57fe5b04145b1515612c1b57600080fd5b929150505600a165627a7a7230582059aff98ba1f047f1692fcbbb5a9b5c181ef1110520363d4501942ee9dd74308c0029",
  "source": "pragma solidity 0.4.18;\r\n\r\nimport \"./math.sol\";\r\nimport \"./token.sol\";\r\nimport \"./stop.sol\";\r\nimport \"./multivault.sol\";\r\n\r\nimport \"./NetworkParameters.sol\";\r\n\r\n\r\ncontract Wallet is DSMultiVault, DSMath, DSStop {\r\n    \r\n    NetworkParameters LendroidNetworkParameters;\r\n\r\n    mapping (address => uint) fundingBalances; // Simple Funding balance tracker\r\n    mapping (address => uint) collateralBalances; // Simple Collateral balance tracker\r\n    mapping (address => uint) tradeAccountBalances; // Simple trade account balance tracker\r\n    mapping (address => uint) positionBalances; // Simple position balance tracker\r\n    mapping (address => uint) wranglerBalances; // Simple Wrangler balance tracker\r\n\r\n    /// @dev Throws if called by any account.\r\n    function() {\r\n        revert();\r\n    }\r\n\r\n    /// @dev Allows owner to set the NetworkParameters contract.\r\n    /// @param _address Address of the NetworkParameters contract.\r\n    function setLendroidNetworkParameters(address _address)\r\n        public \r\n        stoppable\r\n        auth// owner\r\n        returns (bool) \r\n    {\r\n        LendroidNetworkParameters = NetworkParameters(_address);\r\n        return true;\r\n    }\r\n    \r\n    // Deposit funds\r\n    function depositLendingFunds() \r\n        public\r\n        stoppable\r\n        payable\r\n        auth\r\n        returns (bool)\r\n    {\r\n        fundingBalances[address(this)] = add(fundingBalances[address(this)], msg.value);\r\n        return true;\r\n    }\r\n    \r\n    function getFundingBalance() \r\n        public\r\n        stoppable\r\n        constant\r\n        returns (uint)\r\n    {\r\n        return fundingBalances[address(this)];\r\n    }\r\n    \r\n    function depositCollateral() \r\n        public\r\n        stoppable\r\n        payable\r\n        returns (bool)\r\n    {\r\n        \r\n        address _token = LendroidNetworkParameters.getTokenAddressBySymbol(\"W-ETH\");\r\n        // pull\r\n        // pull(DSToken(_token), msg.sender, msg.value);\r\n        collateralBalances[msg.sender] = add(collateralBalances[msg.sender], msg.value);\r\n        return true;\r\n    }\r\n    \r\n    // Withdraw funds\r\n    function withdrawCollateral(uint _amount) \r\n        public\r\n        stoppable\r\n        returns (bool)\r\n    {\r\n        // TODO: Verify margin account is healthy\r\n        require(\r\n            (_amount > 0) &&\r\n            (_amount <= getMaximumWithdrawableAmount(msg.sender))\r\n        );\r\n        collateralBalances[msg.sender] = sub(collateralBalances[msg.sender], _amount);\r\n        address _token = LendroidNetworkParameters.getTokenAddressBySymbol(\"W-ETH\");\r\n        // push\r\n        // push(DSToken(_token), msg.sender, _amount);\r\n        msg.sender.transfer(_amount);\r\n        return true;\r\n    }\r\n\r\n    function getCollateralBalance(\r\n            address _address\r\n        ) \r\n        public\r\n        stoppable\r\n        constant\r\n        returns (uint)\r\n    {\r\n        return collateralBalances[_address];\r\n    }\r\n\r\n    function getTradeAccountBalance(\r\n            address _address\r\n        ) \r\n        public\r\n        stoppable\r\n        constant\r\n        returns (uint)\r\n    {\r\n        return tradeAccountBalances[_address];\r\n    }\r\n\r\n    function getPositionBalance(\r\n            address _address\r\n        ) \r\n        public\r\n        stoppable\r\n        constant\r\n        returns (uint)\r\n    {\r\n        return positionBalances[_address];\r\n    }\r\n\r\n    // Get maximum amount that can be borrowed\r\n    function getMaximumBorrowableAmount(\r\n            address _address\r\n        )\r\n        public\r\n        stoppable\r\n        constant\r\n        returns (uint)\r\n    {\r\n        return sub(\r\n            wmul(\r\n                wdiv(\r\n                    LendroidNetworkParameters.initialMarginLevel(),\r\n                    10 ** LendroidNetworkParameters.decimals()\r\n                ),\r\n                getCollateralBalance(_address)\r\n            ),\r\n            getTradeAccountBalance(_address)\r\n        );\r\n    }\r\n    \r\n    // Get maximum collateral amount that can be withdrawn\r\n    function getMaximumWithdrawableAmount(\r\n            address _address\r\n        )\r\n        public\r\n        stoppable\r\n        constant\r\n        returns (uint)\r\n    {\r\n        return sub(\r\n            getCollateralBalance(_address),\r\n            wdiv(\r\n                getTradeAccountBalance(_address),\r\n                wdiv(\r\n                    LendroidNetworkParameters.initialMarginLevel(),\r\n                    10 ** LendroidNetworkParameters.decimals()\r\n                )\r\n            )\r\n        );\r\n    }\r\n\r\n    // Get maximum position amount that can be opened\r\n    function getMaximumPositionOpenableAmount(\r\n            address _address\r\n        )\r\n        public\r\n        stoppable\r\n        constant\r\n        returns (uint)\r\n    {\r\n        return sub(\r\n            wmul(\r\n                wdiv(\r\n                    LendroidNetworkParameters.liquidationMarginLevel(),\r\n                    10 ** LendroidNetworkParameters.decimals()\r\n                ),\r\n                getCollateralBalance(_address)\r\n            ),\r\n            getPositionBalance(_address)\r\n        );\r\n    }\r\n\r\n    // authorized call to reshuffle balances\r\n    function encumberCollateral(\r\n            address _borrower,\r\n            uint _loanTokenAmount\r\n        )\r\n        public\r\n        stoppable\r\n        // auth// loanmanager\r\n        returns (bool)\r\n    {\r\n        // Check eligibility\r\n        // lender has enough funds to lend loan\r\n        // require(this.balance >= _loanTokenAmount);\r\n        require(fundingBalances[address(this)] >= _loanTokenAmount);\r\n        // Update fundingBalances\r\n        fundingBalances[address(this)] = sub(fundingBalances[address(this)], _loanTokenAmount);\r\n        // Update tradeAccountBalances\r\n        tradeAccountBalances[_borrower] = add(tradeAccountBalances[_borrower], _loanTokenAmount);\r\n        \r\n        return true;\r\n    }\r\n\r\n    // authorized call to reshuffle balances\r\n    function unEncumberCollateral(\r\n            address _borrower,\r\n            uint _loanTokenAmount,\r\n            uint _loanTokenAmountPaid\r\n        )\r\n        public\r\n        stoppable\r\n        // auth// loanmanager\r\n        returns (bool)\r\n    {\r\n        // Check eligibility\r\n        // borrower has enough funds to repay loan\r\n        require(tradeAccountBalances[_borrower] >= _loanTokenAmount);\r\n        // Update tradeAccountBalances\r\n        tradeAccountBalances[_borrower] = sub(tradeAccountBalances[_borrower], _loanTokenAmount);\r\n        // Update fundingBalances\r\n        fundingBalances[address(this)] = add(fundingBalances[address(this)], _loanTokenAmountPaid);\r\n        \r\n        return true;\r\n    }\r\n    \r\n    // authorized call to reshuffle balances\r\n    function openPosition(\r\n            address _borrower,\r\n            uint _positionAmount\r\n        )\r\n        public\r\n        stoppable\r\n        // auth// positionmanager\r\n        returns (bool)\r\n    {\r\n        // Check eligibility\r\n        // borrower has enough margin account funds to open position\r\n        require(tradeAccountBalances[_borrower] >= _positionAmount);\r\n        // Update tradeAccountBalances\r\n        tradeAccountBalances[_borrower] = sub(tradeAccountBalances[_borrower], _positionAmount);\r\n        // Update positionBalances\r\n        positionBalances[_borrower] = add(positionBalances[_borrower], _positionAmount);\r\n        \r\n        return true;\r\n    }\r\n    \r\n    // authorized call to reshuffle balances\r\n    function closePosition(\r\n            address _borrower,\r\n            uint _positionAmount\r\n        )\r\n        public\r\n        stoppable\r\n        // auth// positionmanager\r\n        returns (bool)\r\n    {\r\n        // Check eligibility\r\n        // borrower has enough margin account funds to close position\r\n        require(positionBalances[_borrower] >= _positionAmount);\r\n        // Update positionBalances\r\n        positionBalances[_borrower] = sub(positionBalances[_borrower], _positionAmount);\r\n        // Update tradeAccountBalances\r\n        tradeAccountBalances[_borrower] = add(tradeAccountBalances[_borrower], _positionAmount);\r\n        \r\n        return true;\r\n    }\r\n}",
  "sourcePath": "C:\\work\\programming\\ethereum\\lendroid\\protocol-demo\\contracts\\Wallet.sol",
  "compiler": {
    "name": "solc",
    "version": "0.4.18+commit.9cf6e910.Emscripten.clang"
  },
  "schemaVersion": "1.0.1",
  "updatedAt": "2017-11-12T15:12:16.915Z"
}