{
  "contractName": "Wallet",
  "abi": [
    {
      "constant": false,
      "inputs": [],
      "name": "stop",
      "outputs": [],
      "payable": false,
      "stateMutability": "nonpayable",
      "type": "function"
    },
    {
      "constant": false,
      "inputs": [
        {
          "name": "owner_",
          "type": "address"
        }
      ],
      "name": "setOwner",
      "outputs": [],
      "payable": false,
      "stateMutability": "nonpayable",
      "type": "function"
    },
    {
      "constant": false,
      "inputs": [
        {
          "name": "token",
          "type": "address"
        },
        {
          "name": "dst",
          "type": "address"
        },
        {
          "name": "wad",
          "type": "uint256"
        }
      ],
      "name": "push",
      "outputs": [],
      "payable": false,
      "stateMutability": "nonpayable",
      "type": "function"
    },
    {
      "constant": false,
      "inputs": [
        {
          "name": "_borrower",
          "type": "address"
        }
      ],
      "name": "encumberCollateral",
      "outputs": [
        {
          "name": "",
          "type": "bool"
        },
        {
          "name": "",
          "type": "uint256"
        }
      ],
      "payable": false,
      "stateMutability": "nonpayable",
      "type": "function"
    },
    {
      "constant": true,
      "inputs": [
        {
          "name": "_symbol",
          "type": "bytes32"
        },
        {
          "name": "_address",
          "type": "address"
        }
      ],
      "name": "getCollateralBalance",
      "outputs": [
        {
          "name": "",
          "type": "uint256"
        }
      ],
      "payable": false,
      "stateMutability": "view",
      "type": "function"
    },
    {
      "constant": false,
      "inputs": [
        {
          "name": "token",
          "type": "address"
        },
        {
          "name": "wad",
          "type": "uint256"
        }
      ],
      "name": "mint",
      "outputs": [],
      "payable": false,
      "stateMutability": "nonpayable",
      "type": "function"
    },
    {
      "constant": false,
      "inputs": [
        {
          "name": "_loanToken",
          "type": "address"
        },
        {
          "name": "_collateralToken",
          "type": "address"
        },
        {
          "name": "_loanTokenAmount",
          "type": "uint256"
        },
        {
          "name": "_collateralTokenAmount",
          "type": "uint256"
        },
        {
          "name": "_repayAmount",
          "type": "uint256"
        },
        {
          "name": "_lender",
          "type": "address"
        },
        {
          "name": "_borrower",
          "type": "address"
        },
        {
          "name": "_loanHash",
          "type": "bytes32"
        }
      ],
      "name": "closeLoan",
      "outputs": [
        {
          "name": "",
          "type": "bool"
        }
      ],
      "payable": false,
      "stateMutability": "nonpayable",
      "type": "function"
    },
    {
      "constant": false,
      "inputs": [
        {
          "name": "token",
          "type": "address"
        },
        {
          "name": "src",
          "type": "address"
        }
      ],
      "name": "pull",
      "outputs": [],
      "payable": false,
      "stateMutability": "nonpayable",
      "type": "function"
    },
    {
      "constant": false,
      "inputs": [
        {
          "name": "token",
          "type": "address"
        },
        {
          "name": "src",
          "type": "address"
        },
        {
          "name": "wad",
          "type": "uint256"
        }
      ],
      "name": "pull",
      "outputs": [],
      "payable": false,
      "stateMutability": "nonpayable",
      "type": "function"
    },
    {
      "constant": true,
      "inputs": [],
      "name": "stopped",
      "outputs": [
        {
          "name": "",
          "type": "bool"
        }
      ],
      "payable": false,
      "stateMutability": "view",
      "type": "function"
    },
    {
      "constant": false,
      "inputs": [
        {
          "name": "authority_",
          "type": "address"
        }
      ],
      "name": "setAuthority",
      "outputs": [],
      "payable": false,
      "stateMutability": "nonpayable",
      "type": "function"
    },
    {
      "constant": false,
      "inputs": [
        {
          "name": "_address",
          "type": "address"
        }
      ],
      "name": "setLendroidNetworkParameters",
      "outputs": [
        {
          "name": "",
          "type": "bool"
        }
      ],
      "payable": false,
      "stateMutability": "nonpayable",
      "type": "function"
    },
    {
      "constant": false,
      "inputs": [
        {
          "name": "token",
          "type": "address"
        }
      ],
      "name": "burn",
      "outputs": [],
      "payable": false,
      "stateMutability": "nonpayable",
      "type": "function"
    },
    {
      "constant": true,
      "inputs": [],
      "name": "owner",
      "outputs": [
        {
          "name": "",
          "type": "address"
        }
      ],
      "payable": false,
      "stateMutability": "view",
      "type": "function"
    },
    {
      "constant": false,
      "inputs": [
        {
          "name": "token",
          "type": "address"
        },
        {
          "name": "wad",
          "type": "uint256"
        }
      ],
      "name": "burn",
      "outputs": [],
      "payable": false,
      "stateMutability": "nonpayable",
      "type": "function"
    },
    {
      "constant": false,
      "inputs": [
        {
          "name": "_symbol",
          "type": "bytes32"
        },
        {
          "name": "_amount",
          "type": "uint256"
        },
        {
          "name": "_fromAccountType",
          "type": "uint8"
        }
      ],
      "name": "withdraw",
      "outputs": [
        {
          "name": "",
          "type": "bool"
        }
      ],
      "payable": false,
      "stateMutability": "nonpayable",
      "type": "function"
    },
    {
      "constant": false,
      "inputs": [
        {
          "name": "token",
          "type": "address"
        },
        {
          "name": "dst",
          "type": "address"
        }
      ],
      "name": "push",
      "outputs": [],
      "payable": false,
      "stateMutability": "nonpayable",
      "type": "function"
    },
    {
      "constant": false,
      "inputs": [],
      "name": "start",
      "outputs": [],
      "payable": false,
      "stateMutability": "nonpayable",
      "type": "function"
    },
    {
      "constant": true,
      "inputs": [],
      "name": "authority",
      "outputs": [
        {
          "name": "",
          "type": "address"
        }
      ],
      "payable": false,
      "stateMutability": "view",
      "type": "function"
    },
    {
      "constant": false,
      "inputs": [
        {
          "name": "token",
          "type": "address"
        },
        {
          "name": "guy",
          "type": "address"
        },
        {
          "name": "wad",
          "type": "uint256"
        }
      ],
      "name": "mint",
      "outputs": [],
      "payable": false,
      "stateMutability": "nonpayable",
      "type": "function"
    },
    {
      "constant": true,
      "inputs": [
        {
          "name": "_symbol",
          "type": "bytes32"
        },
        {
          "name": "_address",
          "type": "address"
        }
      ],
      "name": "getFundingBalance",
      "outputs": [
        {
          "name": "",
          "type": "uint256"
        }
      ],
      "payable": false,
      "stateMutability": "view",
      "type": "function"
    },
    {
      "constant": true,
      "inputs": [
        {
          "name": "_collateralSymbol",
          "type": "bytes32"
        },
        {
          "name": "_address",
          "type": "address"
        }
      ],
      "name": "getMaximumBorrowableAmount",
      "outputs": [
        {
          "name": "",
          "type": "uint256"
        }
      ],
      "payable": false,
      "stateMutability": "view",
      "type": "function"
    },
    {
      "constant": false,
      "inputs": [
        {
          "name": "_symbol",
          "type": "bytes32"
        },
        {
          "name": "_amount",
          "type": "uint256"
        },
        {
          "name": "_fromAccountType",
          "type": "uint8"
        },
        {
          "name": "_toAccountType",
          "type": "uint8"
        }
      ],
      "name": "transferToAccount",
      "outputs": [
        {
          "name": "",
          "type": "bool"
        }
      ],
      "payable": false,
      "stateMutability": "nonpayable",
      "type": "function"
    },
    {
      "constant": false,
      "inputs": [
        {
          "name": "token",
          "type": "address"
        },
        {
          "name": "guy",
          "type": "address"
        },
        {
          "name": "wad",
          "type": "uint256"
        }
      ],
      "name": "burn",
      "outputs": [],
      "payable": false,
      "stateMutability": "nonpayable",
      "type": "function"
    },
    {
      "constant": false,
      "inputs": [
        {
          "name": "_symbol",
          "type": "bytes32"
        },
        {
          "name": "_amount",
          "type": "uint256"
        },
        {
          "name": "_toAccountType",
          "type": "uint8"
        }
      ],
      "name": "deposit",
      "outputs": [
        {
          "name": "",
          "type": "bool"
        }
      ],
      "payable": false,
      "stateMutability": "nonpayable",
      "type": "function"
    },
    {
      "anonymous": false,
      "inputs": [
        {
          "indexed": true,
          "name": "authority",
          "type": "address"
        }
      ],
      "name": "LogSetAuthority",
      "type": "event"
    },
    {
      "anonymous": false,
      "inputs": [
        {
          "indexed": true,
          "name": "owner",
          "type": "address"
        }
      ],
      "name": "LogSetOwner",
      "type": "event"
    },
    {
      "anonymous": true,
      "inputs": [
        {
          "indexed": true,
          "name": "sig",
          "type": "bytes4"
        },
        {
          "indexed": true,
          "name": "guy",
          "type": "address"
        },
        {
          "indexed": true,
          "name": "foo",
          "type": "bytes32"
        },
        {
          "indexed": true,
          "name": "bar",
          "type": "bytes32"
        },
        {
          "indexed": false,
          "name": "wad",
          "type": "uint256"
        },
        {
          "indexed": false,
          "name": "fax",
          "type": "bytes"
        }
      ],
      "name": "LogNote",
      "type": "event"
    }
  ],
  "bytecode": "0x606060405233600160006101000a81548173ffffffffffffffffffffffffffffffffffffffff021916908373ffffffffffffffffffffffffffffffffffffffff1602179055503373ffffffffffffffffffffffffffffffffffffffff167fce241d7ca1f669fee44b6fc00b8eba2df3bb514eed0f6f668f8f89096e81ed9460405160405180910390a26130ba806100976000396000f300606060405260043610610149576000357c0100000000000000000000000000000000000000000000000000000000900463ffffffff16806307da68f51461014e57806313af40351461016357806326e8eda21461019c5780632814923c146101fd578063283add031461025557806340c10f19146102af57806356d39c49146102f157806366b3bcb0146103c75780637372c2b51461041f57806375f12b21146104805780637a9e5e4b146104ad578063885c43cd146104e657806389afcb44146105375780638da5cb5b146105705780639dc29fac146105c5578063b1fbf8cd14610607578063b716ba671461065b578063be9a6555146106b3578063bf7e214f146106c8578063c6c3bbe61461071d578063d693e9831461077e578063ed14ef5c146107d8578063ee3e60ed14610832578063f6b911bc14610892578063f867b5ff146108f3575b600080fd5b341561015957600080fd5b610161610947565b005b341561016e57600080fd5b61019a600480803573ffffffffffffffffffffffffffffffffffffffff16906020019091905050610a49565b005b34156101a757600080fd5b6101fb600480803573ffffffffffffffffffffffffffffffffffffffff1690602001909190803573ffffffffffffffffffffffffffffffffffffffff16906020019091908035906020019091905050610b2b565b005b341561020857600080fd5b610234600480803573ffffffffffffffffffffffffffffffffffffffff16906020019091905050610c37565b60405180831515151581526020018281526020019250505060405180910390f35b341561026057600080fd5b61029960048080356000191690602001909190803573ffffffffffffffffffffffffffffffffffffffff16906020019091905050610cf0565b6040518082815260200191505060405180910390f35b34156102ba57600080fd5b6102ef600480803573ffffffffffffffffffffffffffffffffffffffff16906020019091908035906020019091905050610e38565b005b34156102fc57600080fd5b6103ad600480803573ffffffffffffffffffffffffffffffffffffffff1690602001909190803573ffffffffffffffffffffffffffffffffffffffff1690602001909190803590602001909190803590602001909190803590602001909190803573ffffffffffffffffffffffffffffffffffffffff1690602001909190803573ffffffffffffffffffffffffffffffffffffffff1690602001909190803560001916906020019091905050610ef7565b604051808215151515815260200191505060405180910390f35b34156103d257600080fd5b61041d600480803573ffffffffffffffffffffffffffffffffffffffff1690602001909190803573ffffffffffffffffffffffffffffffffffffffff169060200190919050506113b7565b005b341561042a57600080fd5b61047e600480803573ffffffffffffffffffffffffffffffffffffffff1690602001909190803573ffffffffffffffffffffffffffffffffffffffff16906020019091908035906020019091905050611483565b005b341561048b57600080fd5b6104936115c3565b604051808215151515815260200191505060405180910390f35b34156104b857600080fd5b6104e4600480803573ffffffffffffffffffffffffffffffffffffffff169060200190919050506115d6565b005b34156104f157600080fd5b61051d600480803573ffffffffffffffffffffffffffffffffffffffff169060200190919050506116b6565b604051808215151515815260200191505060405180910390f35b341561054257600080fd5b61056e600480803573ffffffffffffffffffffffffffffffffffffffff16906020019091905050611757565b005b341561057b57600080fd5b6105836118d2565b604051808273ffffffffffffffffffffffffffffffffffffffff1673ffffffffffffffffffffffffffffffffffffffff16815260200191505060405180910390f35b34156105d057600080fd5b610605600480803573ffffffffffffffffffffffffffffffffffffffff169060200190919080359060200190919050506118f8565b005b341561061257600080fd5b61064160048080356000191690602001909190803590602001909190803560ff169060200190919050506119b7565b604051808215151515815260200191505060405180910390f35b341561066657600080fd5b6106b1600480803573ffffffffffffffffffffffffffffffffffffffff1690602001909190803573ffffffffffffffffffffffffffffffffffffffff16906020019091905050611d6b565b005b34156106be57600080fd5b6106c6611e37565b005b34156106d357600080fd5b6106db611f3a565b604051808273ffffffffffffffffffffffffffffffffffffffff1673ffffffffffffffffffffffffffffffffffffffff16815260200191505060405180910390f35b341561072857600080fd5b61077c600480803573ffffffffffffffffffffffffffffffffffffffff1690602001909190803573ffffffffffffffffffffffffffffffffffffffff16906020019091908035906020019091905050611f5f565b005b341561078957600080fd5b6107c260048080356000191690602001909190803573ffffffffffffffffffffffffffffffffffffffff16906020019091905050612053565b6040518082815260200191505060405180910390f35b34156107e357600080fd5b61081c60048080356000191690602001909190803573ffffffffffffffffffffffffffffffffffffffff1690602001909190505061219b565b6040518082815260200191505060405180910390f35b341561083d57600080fd5b61087860048080356000191690602001909190803590602001909190803560ff1690602001909190803560ff16906020019091905050612411565b604051808215151515815260200191505060405180910390f35b341561089d57600080fd5b6108f1600480803573ffffffffffffffffffffffffffffffffffffffff1690602001909190803573ffffffffffffffffffffffffffffffffffffffff169060200190919080359060200190919050506129a4565b005b34156108fe57600080fd5b61092d60048080356000191690602001909190803590602001909190803560ff16906020019091905050612a98565b604051808215151515815260200191505060405180910390f35b610975336000357fffffffff0000000000000000000000000000000000000000000000000000000016612da7565b151561098057600080fd5b60008060043591506024359050806000191682600019163373ffffffffffffffffffffffffffffffffffffffff166000357fffffffff00000000000000000000000000000000000000000000000000000000167bffffffffffffffffffffffffffffffffffffffffffffffffffffffff19163460003660405180848152602001806020018281038252848482818152602001925080828437820191505094505050505060405180910390a460018060146101000a81548160ff0219169083151502179055505050565b610a77336000357fffffffff0000000000000000000000000000000000000000000000000000000016612da7565b1515610a8257600080fd5b80600160006101000a81548173ffffffffffffffffffffffffffffffffffffffff021916908373ffffffffffffffffffffffffffffffffffffffff160217905550600160009054906101000a900473ffffffffffffffffffffffffffffffffffffffff1673ffffffffffffffffffffffffffffffffffffffff167fce241d7ca1f669fee44b6fc00b8eba2df3bb514eed0f6f668f8f89096e81ed9460405160405180910390a250565b610b59336000357fffffffff0000000000000000000000000000000000000000000000000000000016612da7565b1515610b6457600080fd5b8273ffffffffffffffffffffffffffffffffffffffff1663a9059cbb83836000604051602001526040518363ffffffff167c0100000000000000000000000000000000000000000000000000000000028152600401808373ffffffffffffffffffffffffffffffffffffffff1673ffffffffffffffffffffffffffffffffffffffff16815260200182815260200192505050602060405180830381600087803b1515610c0f57600080fd5b6102c65a03f11515610c2057600080fd5b505050604051805190501515610c3257fe5b505050565b6000806000600160149054906101000a900460ff16151515610c5857600080fd5b610c86336000357fffffffff0000000000000000000000000000000000000000000000000000000016612da7565b1515610c9157600080fd5b610cbb7f572d4554480000000000000000000000000000000000000000000000000000008561219b565b9050803073ffffffffffffffffffffffffffffffffffffffff163111151515610ce357600080fd5b6001819250925050915091565b6000600160149054906101000a900460ff16151515610d0e57600080fd5b82600260009054906101000a900473ffffffffffffffffffffffffffffffffffffffff1673ffffffffffffffffffffffffffffffffffffffff1663e19f86df826000604051602001526040518263ffffffff167c0100000000000000000000000000000000000000000000000000000000028152600401808260001916600019168152602001915050602060405180830381600087803b1515610db057600080fd5b6102c65a03f11515610dc157600080fd5b505050604051805190501515610dd657600080fd5b600460008473ffffffffffffffffffffffffffffffffffffffff1673ffffffffffffffffffffffffffffffffffffffff168152602001908152602001600020600085600019166000191681526020019081526020016000205491505092915050565b610e66336000357fffffffff0000000000000000000000000000000000000000000000000000000016612da7565b1515610e7157600080fd5b8173ffffffffffffffffffffffffffffffffffffffff1663a0712d68826040518263ffffffff167c010000000000000000000000000000000000000000000000000000000002815260040180828152602001915050600060405180830381600087803b1515610edf57600080fd5b6102c65a03f11515610ef057600080fd5b5050505050565b6000806000600160149054906101000a900460ff16151515610f1857600080fd5b610f46336000357fffffffff0000000000000000000000000000000000000000000000000000000016612da7565b1515610f5157600080fd5b600260009054906101000a900473ffffffffffffffffffffffffffffffffffffffff1673ffffffffffffffffffffffffffffffffffffffff1663667a5f9d8c6000604051602001526040518263ffffffff167c0100000000000000000000000000000000000000000000000000000000028152600401808273ffffffffffffffffffffffffffffffffffffffff1673ffffffffffffffffffffffffffffffffffffffff168152602001915050602060405180830381600087803b151561101657600080fd5b6102c65a03f1151561102757600080fd5b505050604051805190509150600260009054906101000a900473ffffffffffffffffffffffffffffffffffffffff1673ffffffffffffffffffffffffffffffffffffffff1663667a5f9d8b6000604051602001526040518263ffffffff167c0100000000000000000000000000000000000000000000000000000000028152600401808273ffffffffffffffffffffffffffffffffffffffff1673ffffffffffffffffffffffffffffffffffffffff168152602001915050602060405180830381600087803b15156110f857600080fd5b6102c65a03f1151561110957600080fd5b505050604051805190509050611177600360008873ffffffffffffffffffffffffffffffffffffffff1673ffffffffffffffffffffffffffffffffffffffff168152602001908152602001600020600084600019166000191681526020019081526020016000205488613006565b600360008873ffffffffffffffffffffffffffffffffffffffff1673ffffffffffffffffffffffffffffffffffffffff1681526020019081526020016000206000846000191660001916815260200190815260200160002081905550600360008773ffffffffffffffffffffffffffffffffffffffff1673ffffffffffffffffffffffffffffffffffffffff1681526020019081526020016000206000856000191660001916815260200190815260200160002060009055600560008673ffffffffffffffffffffffffffffffffffffffff1673ffffffffffffffffffffffffffffffffffffffff16815260200190815260200160002060008560001916600019168152602001908152602001600020600090556112ed600460008773ffffffffffffffffffffffffffffffffffffffff1673ffffffffffffffffffffffffffffffffffffffff168152602001908152602001600020600083600019166000191681526020019081526020016000205489613006565b600460008773ffffffffffffffffffffffffffffffffffffffff1673ffffffffffffffffffffffffffffffffffffffff1681526020019081526020016000206000836000191660001916815260200190815260200160002081905550600460008673ffffffffffffffffffffffffffffffffffffffff1673ffffffffffffffffffffffffffffffffffffffff168152602001908152602001600020600085600019166000191681526020019081526020016000206000905560019250505098975050505050505050565b61147f82828473ffffffffffffffffffffffffffffffffffffffff166370a08231856000604051602001526040518263ffffffff167c0100000000000000000000000000000000000000000000000000000000028152600401808273ffffffffffffffffffffffffffffffffffffffff1673ffffffffffffffffffffffffffffffffffffffff168152602001915050602060405180830381600087803b151561145f57600080fd5b6102c65a03f1151561147057600080fd5b50505060405180519050611483565b5050565b6114b1336000357fffffffff0000000000000000000000000000000000000000000000000000000016612da7565b15156114bc57600080fd5b8273ffffffffffffffffffffffffffffffffffffffff166323b872dd8330846000604051602001526040518463ffffffff167c0100000000000000000000000000000000000000000000000000000000028152600401808473ffffffffffffffffffffffffffffffffffffffff1673ffffffffffffffffffffffffffffffffffffffff1681526020018373ffffffffffffffffffffffffffffffffffffffff1673ffffffffffffffffffffffffffffffffffffffff1681526020018281526020019350505050602060405180830381600087803b151561159b57600080fd5b6102c65a03f115156115ac57600080fd5b5050506040518051905015156115be57fe5b505050565b600160149054906101000a900460ff1681565b611604336000357fffffffff0000000000000000000000000000000000000000000000000000000016612da7565b151561160f57600080fd5b806000806101000a81548173ffffffffffffffffffffffffffffffffffffffff021916908373ffffffffffffffffffffffffffffffffffffffff1602179055506000809054906101000a900473ffffffffffffffffffffffffffffffffffffffff1673ffffffffffffffffffffffffffffffffffffffff167f1abebea81bfa2637f28358c371278fb15ede7ea8dd28d2e03b112ff6d936ada460405160405180910390a250565b6000600160149054906101000a900460ff161515156116d457600080fd5b611702336000357fffffffff0000000000000000000000000000000000000000000000000000000016612da7565b151561170d57600080fd5b81600260006101000a81548173ffffffffffffffffffffffffffffffffffffffff021916908373ffffffffffffffffffffffffffffffffffffffff16021790555060019050919050565b611785336000357fffffffff0000000000000000000000000000000000000000000000000000000016612da7565b151561179057600080fd5b8073ffffffffffffffffffffffffffffffffffffffff166342966c688273ffffffffffffffffffffffffffffffffffffffff166370a08231306000604051602001526040518263ffffffff167c0100000000000000000000000000000000000000000000000000000000028152600401808273ffffffffffffffffffffffffffffffffffffffff1673ffffffffffffffffffffffffffffffffffffffff168152602001915050602060405180830381600087803b151561184f57600080fd5b6102c65a03f1151561186057600080fd5b505050604051805190506040518263ffffffff167c010000000000000000000000000000000000000000000000000000000002815260040180828152602001915050600060405180830381600087803b15156118bb57600080fd5b6102c65a03f115156118cc57600080fd5b50505050565b600160009054906101000a900473ffffffffffffffffffffffffffffffffffffffff1681565b611926336000357fffffffff0000000000000000000000000000000000000000000000000000000016612da7565b151561193157600080fd5b8173ffffffffffffffffffffffffffffffffffffffff166342966c68826040518263ffffffff167c010000000000000000000000000000000000000000000000000000000002815260040180828152602001915050600060405180830381600087803b151561199f57600080fd5b6102c65a03f115156119b057600080fd5b5050505050565b600080600160149054906101000a900460ff161515156119d657600080fd5b84600260009054906101000a900473ffffffffffffffffffffffffffffffffffffffff1673ffffffffffffffffffffffffffffffffffffffff1663e19f86df826000604051602001526040518263ffffffff167c0100000000000000000000000000000000000000000000000000000000028152600401808260001916600019168152602001915050602060405180830381600087803b1515611a7857600080fd5b6102c65a03f11515611a8957600080fd5b505050604051805190501515611a9e57600080fd5b60016004811115611aab57fe5b846004811115611ab757fe5b1480611ad9575060026004811115611acb57fe5b846004811115611ad757fe5b145b80611af95750600480811115611aeb57fe5b846004811115611af757fe5b145b1515611b0457600080fd5b60016004811115611b1157fe5b846004811115611b1d57fe5b1415611b8a5784600360003373ffffffffffffffffffffffffffffffffffffffff1673ffffffffffffffffffffffffffffffffffffffff16815260200190815260200160002060008860001916600019168152602001908152602001600020600082825403925050819055505b60026004811115611b9757fe5b846004811115611ba357fe5b1415611c105784600460003373ffffffffffffffffffffffffffffffffffffffff1673ffffffffffffffffffffffffffffffffffffffff16815260200190815260200160002060008860001916600019168152602001908152602001600020600082825403925050819055505b600480811115611c1c57fe5b846004811115611c2857fe5b1415611c955784600660003373ffffffffffffffffffffffffffffffffffffffff1673ffffffffffffffffffffffffffffffffffffffff16815260200190815260200160002060008860001916600019168152602001908152602001600020600082825403925050819055505b600260009054906101000a900473ffffffffffffffffffffffffffffffffffffffff1673ffffffffffffffffffffffffffffffffffffffff1663fa7fdeb7876000604051602001526040518263ffffffff167c0100000000000000000000000000000000000000000000000000000000028152600401808260001916600019168152602001915050602060405180830381600087803b1515611d3657600080fd5b6102c65a03f11515611d4757600080fd5b505050604051805190509150611d5e823387610b2b565b6001925050509392505050565b611e3382828473ffffffffffffffffffffffffffffffffffffffff166370a08231306000604051602001526040518263ffffffff167c0100000000000000000000000000000000000000000000000000000000028152600401808273ffffffffffffffffffffffffffffffffffffffff1673ffffffffffffffffffffffffffffffffffffffff168152602001915050602060405180830381600087803b1515611e1357600080fd5b6102c65a03f11515611e2457600080fd5b50505060405180519050610b2b565b5050565b611e65336000357fffffffff0000000000000000000000000000000000000000000000000000000016612da7565b1515611e7057600080fd5b60008060043591506024359050806000191682600019163373ffffffffffffffffffffffffffffffffffffffff166000357fffffffff00000000000000000000000000000000000000000000000000000000167bffffffffffffffffffffffffffffffffffffffffffffffffffffffff19163460003660405180848152602001806020018281038252848482818152602001925080828437820191505094505050505060405180910390a46000600160146101000a81548160ff0219169083151502179055505050565b6000809054906101000a900473ffffffffffffffffffffffffffffffffffffffff1681565b611f8d336000357fffffffff0000000000000000000000000000000000000000000000000000000016612da7565b1515611f9857600080fd5b8273ffffffffffffffffffffffffffffffffffffffff166340c10f1983836040518363ffffffff167c0100000000000000000000000000000000000000000000000000000000028152600401808373ffffffffffffffffffffffffffffffffffffffff1673ffffffffffffffffffffffffffffffffffffffff16815260200182815260200192505050600060405180830381600087803b151561203a57600080fd5b6102c65a03f1151561204b57600080fd5b505050505050565b6000600160149054906101000a900460ff1615151561207157600080fd5b82600260009054906101000a900473ffffffffffffffffffffffffffffffffffffffff1673ffffffffffffffffffffffffffffffffffffffff1663e19f86df826000604051602001526040518263ffffffff167c0100000000000000000000000000000000000000000000000000000000028152600401808260001916600019168152602001915050602060405180830381600087803b151561211357600080fd5b6102c65a03f1151561212457600080fd5b50505060405180519050151561213957600080fd5b600360008473ffffffffffffffffffffffffffffffffffffffff1673ffffffffffffffffffffffffffffffffffffffff168152602001908152602001600020600085600019166000191681526020019081526020016000205491505092915050565b600080600160149054906101000a900460ff161515156121ba57600080fd5b83600260009054906101000a900473ffffffffffffffffffffffffffffffffffffffff1673ffffffffffffffffffffffffffffffffffffffff1663e19f86df826000604051602001526040518263ffffffff167c0100000000000000000000000000000000000000000000000000000000028152600401808260001916600019168152602001915050602060405180830381600087803b151561225c57600080fd5b6102c65a03f1151561226d57600080fd5b50505060405180519050151561228257600080fd5b600260009054906101000a900473ffffffffffffffffffffffffffffffffffffffff1673ffffffffffffffffffffffffffffffffffffffff1663d12c7b10866000604051602001526040518263ffffffff167c0100000000000000000000000000000000000000000000000000000000028152600401808260001916600019168152602001915050602060405180830381600087803b151561232357600080fd5b6102c65a03f1151561233457600080fd5b505050604051805190509150612407600260009054906101000a900473ffffffffffffffffffffffffffffffffffffffff1673ffffffffffffffffffffffffffffffffffffffff16631029e85b6000604051602001526040518163ffffffff167c0100000000000000000000000000000000000000000000000000000000028152600401602060405180830381600087803b15156123d157600080fd5b6102c65a03f115156123e257600080fd5b505050604051805190506124026123f98888610cf0565b85600a0a613022565b61305e565b9250505092915050565b6000600160149054906101000a900460ff1615151561242f57600080fd5b84600260009054906101000a900473ffffffffffffffffffffffffffffffffffffffff1673ffffffffffffffffffffffffffffffffffffffff1663e19f86df826000604051602001526040518263ffffffff167c0100000000000000000000000000000000000000000000000000000000028152600401808260001916600019168152602001915050602060405180830381600087803b15156124d157600080fd5b6102c65a03f115156124e257600080fd5b5050506040518051905015156124f757600080fd5b82600481111561250357fe5b84600481111561250f57fe5b1415151561251c57600080fd5b60048081111561252857fe5b83600481111561253457fe5b14158061255857506003600481111561254957fe5b83600481111561255557fe5b14155b151561256357600080fd5b6001600481111561257057fe5b84600481111561257c57fe5b148061259e57506002600481111561259057fe5b84600481111561259c57fe5b145b806125be57506004808111156125b057fe5b8460048111156125bc57fe5b145b15156125c957600080fd5b600160048111156125d657fe5b8460048111156125e257fe5b14156126b657600360003373ffffffffffffffffffffffffffffffffffffffff1673ffffffffffffffffffffffffffffffffffffffff1681526020019081526020016000206000876000191660001916815260200190815260200160002054851015151561264f57600080fd5b84600360003373ffffffffffffffffffffffffffffffffffffffff1673ffffffffffffffffffffffffffffffffffffffff16815260200190815260200160002060008860001916600019168152602001908152602001600020600082825403925050819055505b600260048111156126c357fe5b8460048111156126cf57fe5b14156127a357600460003373ffffffffffffffffffffffffffffffffffffffff1673ffffffffffffffffffffffffffffffffffffffff1681526020019081526020016000206000876000191660001916815260200190815260200160002054851015151561273c57600080fd5b84600460003373ffffffffffffffffffffffffffffffffffffffff1673ffffffffffffffffffffffffffffffffffffffff16815260200190815260200160002060008860001916600019168152602001908152602001600020600082825403925050819055505b6004808111156127af57fe5b8460048111156127bb57fe5b141561288f57600660003373ffffffffffffffffffffffffffffffffffffffff1673ffffffffffffffffffffffffffffffffffffffff1681526020019081526020016000206000876000191660001916815260200190815260200160002054851015151561282857600080fd5b84600660003373ffffffffffffffffffffffffffffffffffffffff1673ffffffffffffffffffffffffffffffffffffffff16815260200190815260200160002060008860001916600019168152602001908152602001600020600082825403925050819055505b6001600481111561289c57fe5b8360048111156128a857fe5b14156129155784600360003373ffffffffffffffffffffffffffffffffffffffff1673ffffffffffffffffffffffffffffffffffffffff16815260200190815260200160002060008860001916600019168152602001908152602001600020600082825401925050819055505b6002600481111561292257fe5b83600481111561292e57fe5b141561299b5784600460003373ffffffffffffffffffffffffffffffffffffffff1673ffffffffffffffffffffffffffffffffffffffff16815260200190815260200160002060008860001916600019168152602001908152602001600020600082825401925050819055505b50949350505050565b6129d2336000357fffffffff0000000000000000000000000000000000000000000000000000000016612da7565b15156129dd57600080fd5b8273ffffffffffffffffffffffffffffffffffffffff16639dc29fac83836040518363ffffffff167c0100000000000000000000000000000000000000000000000000000000028152600401808373ffffffffffffffffffffffffffffffffffffffff1673ffffffffffffffffffffffffffffffffffffffff16815260200182815260200192505050600060405180830381600087803b1515612a7f57600080fd5b6102c65a03f11515612a9057600080fd5b505050505050565b600080600160149054906101000a900460ff16151515612ab757600080fd5b84600260009054906101000a900473ffffffffffffffffffffffffffffffffffffffff1673ffffffffffffffffffffffffffffffffffffffff1663e19f86df826000604051602001526040518263ffffffff167c0100000000000000000000000000000000000000000000000000000000028152600401808260001916600019168152602001915050602060405180830381600087803b1515612b5957600080fd5b6102c65a03f11515612b6a57600080fd5b505050604051805190501515612b7f57600080fd5b60016004811115612b8c57fe5b846004811115612b9857fe5b1480612bba575060026004811115612bac57fe5b846004811115612bb857fe5b145b1515612bc557600080fd5b60016004811115612bd257fe5b846004811115612bde57fe5b1415612c4b5784600360003373ffffffffffffffffffffffffffffffffffffffff1673ffffffffffffffffffffffffffffffffffffffff16815260200190815260200160002060008860001916600019168152602001908152602001600020600082825401925050819055505b60026004811115612c5857fe5b846004811115612c6457fe5b1415612cd15784600460003373ffffffffffffffffffffffffffffffffffffffff1673ffffffffffffffffffffffffffffffffffffffff16815260200190815260200160002060008860001916600019168152602001908152602001600020600082825401925050819055505b600260009054906101000a900473ffffffffffffffffffffffffffffffffffffffff1673ffffffffffffffffffffffffffffffffffffffff1663fa7fdeb7876000604051602001526040518263ffffffff167c0100000000000000000000000000000000000000000000000000000000028152600401808260001916600019168152602001915050602060405180830381600087803b1515612d7257600080fd5b6102c65a03f11515612d8357600080fd5b505050604051805190509150612d9a823387611483565b6001925050509392505050565b60003073ffffffffffffffffffffffffffffffffffffffff168373ffffffffffffffffffffffffffffffffffffffff161415612de65760019050613000565b600160009054906101000a900473ffffffffffffffffffffffffffffffffffffffff1673ffffffffffffffffffffffffffffffffffffffff168373ffffffffffffffffffffffffffffffffffffffff161415612e455760019050613000565b600073ffffffffffffffffffffffffffffffffffffffff166000809054906101000a900473ffffffffffffffffffffffffffffffffffffffff1673ffffffffffffffffffffffffffffffffffffffff161415612ea45760009050613000565b6000809054906101000a900473ffffffffffffffffffffffffffffffffffffffff1673ffffffffffffffffffffffffffffffffffffffff1663b70096138430856000604051602001526040518463ffffffff167c0100000000000000000000000000000000000000000000000000000000028152600401808473ffffffffffffffffffffffffffffffffffffffff1673ffffffffffffffffffffffffffffffffffffffff1681526020018373ffffffffffffffffffffffffffffffffffffffff1673ffffffffffffffffffffffffffffffffffffffff168152602001827bffffffffffffffffffffffffffffffffffffffffffffffffffffffff19167bffffffffffffffffffffffffffffffffffffffffffffffffffffffff191681526020019350505050602060405180830381600087803b1515612fe257600080fd5b6102c65a03f11515612ff357600080fd5b5050506040518051905090505b92915050565b6000828284019150811015151561301c57600080fd5b92915050565b60008161304c61303a85670de0b6b3a764000061305e565b60028581151561304657fe5b04613006565b81151561305557fe5b04905092915050565b60008082148061307d5750828283850292508281151561307a57fe5b04145b151561308857600080fd5b929150505600a165627a7a7230582097a0abb5a669b713dcd6d7dbe994ad4fba37b8c6bcdd7f073bea01bbfb83f04d0029",
  "source": "pragma solidity 0.4.18;\r\n\r\nimport \"./math.sol\";\r\nimport \"./token.sol\";\r\nimport \"./stop.sol\";\r\nimport \"./multivault.sol\";\r\n\r\nimport \"./NetworkParameters.sol\";\r\n\r\ncontract Wallet is DSMultiVault, DSMath, DSStop {\r\n    \r\n    NetworkParameters LendroidNetworkParameters;\r\n\r\n    enum AccountType {\r\n        NONE,               // Null\r\n        FUNDING_ACCOUNT,    // Lender account\r\n        COLLATERAL_ACCOUNT, // Trader account to manage collaterals\r\n        POSITION_ACCOUNT,   // Trade Positions\r\n        WRANGLER_ACCOUNT    // Wrangler\r\n    }\r\n    \r\n    mapping (address => mapping (bytes32 => uint)) fundingBalances; // Funding Account, keys are Token symbols\r\n    mapping (address => mapping (bytes32 => uint)) collateralBalances; // Collateral Account, keys are Token symbols\r\n    mapping (address => mapping (bytes32 => uint)) positionBalances; // Trade positions, keys are position hashes\r\n    mapping (address => mapping (bytes32 => uint)) wranglerBalances; // Wrangler Account, keys are Token symbols\r\n\r\n    // @dev Throws if symbol is not supported\r\n    modifier isValidSymbol(bytes32 _symbol) {\r\n        require(LendroidNetworkParameters.isValidSymbol(_symbol));\r\n        _;\r\n    }\r\n\r\n    /// @dev Allows owner to set the NetworkParameters contract.\r\n    /// @param _address Address of the NetworkParameters contract.\r\n    function setLendroidNetworkParameters(address _address)\r\n        public \r\n        stoppable\r\n        auth// owner\r\n        returns (bool) \r\n    {\r\n        LendroidNetworkParameters = NetworkParameters(_address);\r\n        return true;\r\n    }\r\n\r\n    function transferToAccount(\r\n        bytes32 _symbol,\r\n        uint _amount,\r\n        AccountType _fromAccountType,\r\n        AccountType _toAccountType) \r\n        public\r\n        stoppable\r\n        isValidSymbol(_symbol)\r\n        returns (bool)\r\n    {\r\n        require(_fromAccountType != _toAccountType);\r\n        require(_toAccountType != AccountType.WRANGLER_ACCOUNT || _toAccountType != AccountType.POSITION_ACCOUNT);\r\n        require((_fromAccountType == AccountType.FUNDING_ACCOUNT) || \r\n                (_fromAccountType == AccountType.COLLATERAL_ACCOUNT) || \r\n                (_fromAccountType == AccountType.WRANGLER_ACCOUNT));\r\n        // from\r\n        if (_fromAccountType == AccountType.FUNDING_ACCOUNT) {\r\n            require(_amount >= fundingBalances[msg.sender][_symbol]);\r\n            fundingBalances[msg.sender][_symbol] -= _amount;\r\n        }\r\n        if (_fromAccountType == AccountType.COLLATERAL_ACCOUNT) {\r\n            require(_amount >= collateralBalances[msg.sender][_symbol]);\r\n            collateralBalances[msg.sender][_symbol] -= _amount;\r\n        }\r\n        if (_fromAccountType == AccountType.WRANGLER_ACCOUNT) {\r\n            require(_amount >= wranglerBalances[msg.sender][_symbol]);\r\n            wranglerBalances[msg.sender][_symbol] -= _amount;\r\n        }\r\n        // to\r\n        if (_toAccountType == AccountType.FUNDING_ACCOUNT) {\r\n            fundingBalances[msg.sender][_symbol] += _amount;\r\n        }\r\n        if (_toAccountType == AccountType.COLLATERAL_ACCOUNT) {\r\n            collateralBalances[msg.sender][_symbol] += _amount;\r\n        }\r\n    }\r\n    \r\n    // Deposit funds\r\n    function deposit(\r\n            bytes32 _symbol,\r\n            uint _amount,\r\n            AccountType _toAccountType\r\n        ) \r\n        public\r\n        stoppable\r\n        isValidSymbol(_symbol)\r\n        returns (bool)\r\n    {\r\n        require(_toAccountType == AccountType.FUNDING_ACCOUNT || _toAccountType == AccountType.COLLATERAL_ACCOUNT);\r\n        if (_toAccountType == AccountType.FUNDING_ACCOUNT) {\r\n            fundingBalances[msg.sender][_symbol] += _amount;\r\n        }\r\n        if (_toAccountType == AccountType.COLLATERAL_ACCOUNT) {\r\n            collateralBalances[msg.sender][_symbol] += _amount;\r\n        }\r\n        address _token = LendroidNetworkParameters.getTokenAddressBySymbol(_symbol);\r\n        // pull\r\n        pull(DSToken(_token), msg.sender, _amount);\r\n        \r\n        return true;\r\n    }\r\n    \r\n    // Withdraw funds\r\n    function withdraw(\r\n            bytes32 _symbol,\r\n            uint _amount,\r\n            AccountType _fromAccountType\r\n        ) \r\n        public\r\n        stoppable\r\n        isValidSymbol(_symbol)\r\n        returns (bool)\r\n    {\r\n        require(_fromAccountType == AccountType.FUNDING_ACCOUNT || _fromAccountType == AccountType.COLLATERAL_ACCOUNT || _fromAccountType == AccountType.WRANGLER_ACCOUNT);\r\n        if (_fromAccountType == AccountType.FUNDING_ACCOUNT) {\r\n            fundingBalances[msg.sender][_symbol] -= _amount;\r\n        }\r\n        if (_fromAccountType == AccountType.COLLATERAL_ACCOUNT) {\r\n            collateralBalances[msg.sender][_symbol] -= _amount;\r\n        }\r\n        if (_fromAccountType == AccountType.WRANGLER_ACCOUNT) {\r\n            wranglerBalances[msg.sender][_symbol] -= _amount;\r\n        }\r\n        address _token = LendroidNetworkParameters.getTokenAddressBySymbol(_symbol);\r\n        // push\r\n        push(DSToken(_token), msg.sender, _amount);\r\n\r\n        return true;\r\n    }\r\n\r\n    function getFundingBalance(\r\n            bytes32 _symbol,\r\n            address _address\r\n        ) \r\n        public\r\n        stoppable\r\n        isValidSymbol(_symbol)\r\n        constant\r\n        returns (uint)\r\n    {\r\n        return fundingBalances[_address][_symbol];\r\n    }\r\n    \r\n    function getCollateralBalance(\r\n            bytes32 _symbol,\r\n            address _address\r\n        ) \r\n        public\r\n        stoppable\r\n        isValidSymbol(_symbol)\r\n        constant\r\n        returns (uint)\r\n    {\r\n        return collateralBalances[_address][_symbol];\r\n    }\r\n\r\n    // Get maximum amount that can be borrowed\r\n    function getMaximumBorrowableAmount(\r\n            bytes32 _collateralSymbol,\r\n            address _address\r\n        )\r\n        public\r\n        stoppable\r\n        isValidSymbol(_collateralSymbol)\r\n        constant\r\n        returns (uint)\r\n    {\r\n        uint collateralDecimals = LendroidNetworkParameters.getTokenDecimalsBySymbol(_collateralSymbol);\r\n        return mul(LendroidNetworkParameters.initialMargin(), (wdiv(getCollateralBalance(_collateralSymbol, _address), (10 ** collateralDecimals))));\r\n    }\r\n\r\n    // authorized called to reshuffle balances\r\n    function encumberCollateral(address _borrower)\r\n        public\r\n        stoppable\r\n        auth// loanmanager\r\n        returns (bool, uint)\r\n    {\r\n        // Check eligibility\r\n        // Check if borrower has enough funds to borrow loan\r\n        uint _loanTokenAmount = getMaximumBorrowableAmount(\"W-ETH\" ,_borrower);\r\n        // Check if lend has enough funds to lend loan\r\n        require(this.balance <= _loanTokenAmount);\r\n        \r\n        // // Update fundingBalances\r\n        // fundingBalances[_lender][_loanSymbol] = sub(fundingBalances[_lender][_loanSymbol], _loanTokenAmount);\r\n        // fundingBalances[_lender][_loanHash] = _loanTokenAmount;\r\n        // // Update positionBalances\r\n        // positionBalances[_borrower][_loanHash] = add(positionBalances[_borrower][_loanHash], _loanTokenAmount);\r\n        // // Update collateralBalances\r\n        // collateralBalances[_borrower][_collateralSymbol] = sub(collateralBalances[_borrower][_collateralSymbol], _collateralTokenAmount);\r\n        // collateralBalances[_borrower][_loanHash] = add(collateralBalances[_borrower][_loanHash], _collateralTokenAmount);\r\n        \r\n        return (true, _loanTokenAmount);\r\n    }\r\n\r\n    // authorized called to reshuffle balances\r\n    function closeLoan(\r\n            address _loanToken,\r\n            address _collateralToken,\r\n            uint _loanTokenAmount,\r\n            uint _collateralTokenAmount,\r\n            uint _repayAmount,\r\n            address _lender,\r\n            address _borrower,\r\n            bytes32 _loanHash\r\n        )\r\n        public\r\n        stoppable\r\n        auth// loanmanager\r\n        returns (bool)\r\n    {\r\n        bytes32 _loanSymbol = LendroidNetworkParameters.getTokenSymbolByAddress(_loanToken);\r\n        bytes32 _collateralSymbol = LendroidNetworkParameters.getTokenSymbolByAddress(_collateralToken);\r\n        // Update fundingBalances\r\n        fundingBalances[_lender][_loanSymbol] = add(fundingBalances[_lender][_loanSymbol], _repayAmount);\r\n        delete fundingBalances[_lender][_loanHash];\r\n        // Update positionBalances\r\n        delete positionBalances[_borrower][_loanHash];\r\n        // Update collateralBalances\r\n        collateralBalances[_borrower][_collateralSymbol] = add(collateralBalances[_borrower][_collateralSymbol], _collateralTokenAmount);\r\n        delete collateralBalances[_borrower][_loanHash];\r\n        \r\n        return true;\r\n    }\r\n\r\n}",
  "sourcePath": "C:\\work\\programming\\ethereum\\lendroid\\protocol-demo\\contracts\\Wallet.sol",
  "compiler": {
    "name": "solc",
    "version": "0.4.18+commit.9cf6e910.Emscripten.clang"
  },
  "schemaVersion": "1.0.1",
  "updatedAt": "2017-11-07T21:43:18.760Z"
}