{
  "contractName": "Wallet",
  "abi": [
    {
      "constant": false,
      "inputs": [],
      "name": "stop",
      "outputs": [],
      "payable": false,
      "stateMutability": "nonpayable",
      "type": "function"
    },
    {
      "constant": false,
      "inputs": [
        {
          "name": "owner_",
          "type": "address"
        }
      ],
      "name": "setOwner",
      "outputs": [
        {
          "name": "",
          "type": "uint256"
        }
      ],
      "payable": false,
      "stateMutability": "nonpayable",
      "type": "function"
    },
    {
      "constant": false,
      "inputs": [
        {
          "name": "_borrower",
          "type": "address"
        },
        {
          "name": "_positionAmount",
          "type": "uint256"
        },
        {
          "name": "wad",
          "type": "uint256"
        }
      ],
      "name": "openPosition",
      "outputs": [
        {
          "name": "",
          "type": "bool"
        }
      ],
      "payable": false,
      "stateMutability": "nonpayable",
      "type": "function"
    },
    {
      "constant": false,
      "inputs": [
        {
          "name": "_borrower",
          "type": "address"
        },
        {
          "name": "_positionAmount",
          "type": "uint256"
        },
        {
          "name": "wad",
          "type": "uint256"
        }
      ],
      "name": "depositLendingFunds",
      "outputs": [
        {
          "name": "",
          "type": "bool"
        },
        {
          "name": "",
          "type": "uint256"
        }
      ],
      "payable": true,
      "stateMutability": "payable",
      "type": "function"
    },
    {
      "constant": false,
      "inputs": [
        {
          "name": "token",
          "type": "address"
        },
        {
          "name": "dst",
          "type": "address"
        },
        {
          "name": "wad",
          "type": "uint256"
        }
      ],
      "name": "push",
      "outputs": [
        {
          "name": "",
          "type": "bool"
        }
      ],
      "payable": false,
      "stateMutability": "nonpayable",
      "type": "function"
    },
    {
      "constant": false,
      "inputs": [
        {
          "name": "_borrower",
          "type": "address"
        },
        {
          "name": "_loanTokenAmount",
          "type": "uint256"
        },
        {
          "name": "wad",
          "type": "uint256"
        }
      ],
      "name": "encumberCollateral",
      "outputs": [
        {
          "name": "",
          "type": "bool"
        }
      ],
      "payable": false,
      "stateMutability": "nonpayable",
      "type": "function"
    },
    {
      "constant": true,
      "inputs": [
        {
          "name": "_address",
          "type": "address"
        },
        {
          "name": "wad",
          "type": "uint256"
        },
        {
          "name": "_loanTokenAmount",
          "type": "uint256"
        },
        {
          "name": "_collateralTokenAmount",
          "type": "uint256"
        },
        {
          "name": "_repayAmount",
          "type": "uint256"
        },
        {
          "name": "_lender",
          "type": "address"
        },
        {
          "name": "_borrower",
          "type": "address"
        },
        {
          "name": "_loanHash",
          "type": "bytes32"
        }
      ],
      "name": "getFundingBalance",
      "outputs": [
        {
          "name": "",
          "type": "uint256"
        }
      ],
      "payable": false,
      "stateMutability": "view",
      "type": "function"
    },
    {
      "constant": false,
      "inputs": [
        {
          "name": "token",
          "type": "address"
        },
        {
          "name": "wad",
          "type": "uint256"
        },
        {
          "name": "_loanTokenAmountPaid",
          "type": "uint256"
        }
      ],
      "name": "mint",
      "outputs": [
        {
          "name": "",
          "type": "bool"
        }
      ],
      "payable": false,
      "stateMutability": "nonpayable",
      "type": "function"
    },
    {
      "constant": true,
      "inputs": [
        {
          "name": "_address",
          "type": "address"
        },
        {
          "name": "src",
          "type": "address"
        },
        {
          "name": "wad",
          "type": "uint256"
        }
      ],
      "name": "getCurrentMargin",
      "outputs": [
        {
          "name": "",
          "type": "uint256"
        }
      ],
      "payable": false,
      "stateMutability": "view",
      "type": "function"
    },
    {
      "constant": true,
      "inputs": [
        {
          "name": "_address",
          "type": "address"
        },
        {
          "name": "wad",
          "type": "uint256"
        },
        {
          "name": "_loanTokenAmountPaid",
          "type": "uint256"
        }
      ],
      "name": "getMaximumWithdrawableAmount",
      "outputs": [
        {
          "name": "",
          "type": "uint256"
        }
      ],
      "payable": false,
      "stateMutability": "view",
      "type": "function"
    },
    {
      "constant": false,
      "inputs": [
        {
          "name": "_borrower",
          "type": "address"
        },
        {
          "name": "_loanTokenAmount",
          "type": "uint256"
        },
        {
          "name": "_loanTokenAmountPaid",
          "type": "uint256"
        }
      ],
      "name": "unEncumberCollateral",
      "outputs": [
        {
          "name": "",
          "type": "bool"
        }
      ],
      "payable": false,
      "stateMutability": "nonpayable",
      "type": "function"
    },
    {
      "constant": false,
      "inputs": [
        {
          "name": "_amount",
          "type": "uint256"
        },
        {
          "name": "_loanTokenAmount",
          "type": "uint256"
        },
        {
          "name": "_loanTokenAmountPaid",
          "type": "uint256"
        }
      ],
      "name": "withdrawCollateral",
      "outputs": [
        {
          "name": "",
          "type": "bool"
        }
      ],
      "payable": false,
      "stateMutability": "nonpayable",
      "type": "function"
    },
    {
      "constant": false,
      "inputs": [
        {
          "name": "token",
          "type": "address"
        },
        {
          "name": "src",
          "type": "address"
        }
      ],
      "name": "pull",
      "outputs": [
        {
          "name": "",
          "type": "bool"
        }
      ],
      "payable": false,
      "stateMutability": "nonpayable",
      "type": "function"
    },
    {
      "constant": false,
      "inputs": [
        {
          "name": "token",
          "type": "address"
        },
        {
          "name": "src",
          "type": "address"
        },
        {
          "name": "wad",
          "type": "uint256"
        }
      ],
      "name": "depositCollateral",
      "outputs": [
        {
          "name": "",
          "type": "bool"
        }
      ],
      "payable": true,
      "stateMutability": "payable",
      "type": "function"
    },
    {
      "constant": false,
      "inputs": [
        {
          "name": "token",
          "type": "address"
        },
        {
          "name": "src",
          "type": "address"
        },
        {
          "name": "wad",
          "type": "uint256"
        }
      ],
      "name": "pull",
      "outputs": [
        {
          "name": "",
          "type": "bool"
        }
      ],
      "payable": false,
      "stateMutability": "nonpayable",
      "type": "function"
    },
    {
      "constant": false,
      "inputs": [
        {
          "name": "_borrower",
          "type": "address"
        },
        {
          "name": "_positionAmount",
          "type": "uint256"
        },
        {
          "name": "wad",
          "type": "uint256"
        }
      ],
      "name": "closePosition",
      "outputs": [
        {
          "name": "",
          "type": "bool"
        }
      ],
      "payable": false,
      "stateMutability": "nonpayable",
      "type": "function"
    },
    {
      "constant": true,
      "inputs": [
        {
          "name": "_borrower",
          "type": "address"
        },
        {
          "name": "_positionAmount",
          "type": "uint256"
        }
      ],
      "name": "stopped",
      "outputs": [
        {
          "name": "",
          "type": "bool"
        }
      ],
      "payable": false,
      "stateMutability": "view",
      "type": "function"
    },
    {
      "constant": false,
      "inputs": [
        {
          "name": "authority_",
          "type": "address"
        },
        {
          "name": "wad",
          "type": "uint256"
        }
      ],
      "name": "setAuthority",
      "outputs": [
        {
          "name": "",
          "type": "bool"
        }
      ],
      "payable": false,
      "stateMutability": "nonpayable",
      "type": "function"
    },
    {
      "constant": false,
      "inputs": [
        {
          "name": "_address",
          "type": "address"
        }
      ],
      "name": "setLendroidNetworkParameters",
      "outputs": [
        {
          "name": "",
          "type": "bool"
        }
      ],
      "payable": false,
      "stateMutability": "nonpayable",
      "type": "function"
    },
    {
      "constant": false,
      "inputs": [
        {
          "name": "token",
          "type": "address"
        },
        {
          "name": "wad",
          "type": "uint256"
        },
        {
          "name": "wad",
          "type": "uint256"
        }
      ],
      "name": "burn",
      "outputs": [
        {
          "name": "",
          "type": "bool"
        }
      ],
      "payable": false,
      "stateMutability": "nonpayable",
      "type": "function"
    },
    {
      "constant": true,
      "inputs": [
        {
          "name": "token",
          "type": "address"
        },
        {
          "name": "_address",
          "type": "address"
        }
      ],
      "name": "owner",
      "outputs": [
        {
          "name": "",
          "type": "address"
        }
      ],
      "payable": false,
      "stateMutability": "view",
      "type": "function"
    },
    {
      "constant": true,
      "inputs": [
        {
          "name": "_address",
          "type": "address"
        },
        {
          "name": "dst",
          "type": "address"
        }
      ],
      "name": "getMaximumPositionOpenableAmount",
      "outputs": [
        {
          "name": "",
          "type": "uint256"
        }
      ],
      "payable": false,
      "stateMutability": "view",
      "type": "function"
    },
    {
      "constant": true,
      "inputs": [
        {
          "name": "_address",
          "type": "address"
        },
        {
          "name": "guy",
          "type": "address"
        },
        {
          "name": "wad",
          "type": "uint256"
        },
        {
          "name": "_toAccountType",
          "type": "uint8"
        }
      ],
      "name": "getMarginValue",
      "outputs": [
        {
          "name": "",
          "type": "uint256"
        }
      ],
      "payable": false,
      "stateMutability": "view",
      "type": "function"
    },
    {
      "constant": false,
      "inputs": [
        {
          "name": "token",
          "type": "address"
        },
        {
          "name": "wad",
          "type": "uint256"
        },
        {
          "name": "wad",
          "type": "uint256"
        }
      ],
      "name": "burn",
      "outputs": [
        {
          "name": "",
          "type": "address"
        }
      ],
      "payable": false,
      "stateMutability": "nonpayable",
      "type": "function"
    },
    {
      "constant": true,
      "inputs": [
        {
          "name": "_address",
          "type": "address"
        },
        {
          "name": "guy",
          "type": "address"
        },
        {
          "name": "wad",
          "type": "uint256"
        }
      ],
      "name": "getTotalBorrowedValue",
      "outputs": [
        {
          "name": "",
          "type": "uint256"
        }
      ],
      "payable": false,
      "stateMutability": "view",
      "type": "function"
    },
    {
      "anonymous": false,
      "inputs": [
        {
          "indexed": true,
          "name": "_address",
          "type": "address"
        },
        {
          "name": "dst",
          "type": "address"
        }
      ],
      "name": "getNetValue",
      "type": "function",
      "constant": true,
      "outputs": [
        {
          "name": "",
          "type": "uint256"
        }
      ],
      "payable": false,
      "stateMutability": "view"
    },
    {
      "anonymous": false,
      "inputs": [
        {
          "indexed": true,
          "name": "_address",
          "type": "address"
        },
        {
          "name": "guy",
          "type": "address"
        },
        {
          "name": "wad",
          "type": "uint256"
        }
      ],
      "name": "getMaximumBorrowableAmount",
      "type": "function",
      "constant": true,
      "outputs": [
        {
          "name": "",
          "type": "uint256"
        }
      ],
      "payable": false,
      "stateMutability": "view"
    },
    {
      "anonymous": true,
      "inputs": [
        {
          "indexed": true,
          "name": "token",
          "type": "address"
        },
        {
          "indexed": true,
          "name": "dst",
          "type": "address"
        },
        {
          "indexed": true,
          "name": "foo",
          "type": "bytes32"
        },
        {
          "indexed": true,
          "name": "bar",
          "type": "bytes32"
        },
        {
          "indexed": false,
          "name": "wad",
          "type": "uint256"
        },
        {
          "indexed": false,
          "name": "fax",
          "type": "bytes"
        }
      ],
      "name": "push",
      "type": "function",
      "payable": false,
      "stateMutability": "nonpayable",
      "constant": false,
      "outputs": []
    },
    {
      "anonymous": false,
      "inputs": [
        {
          "indexed": true,
          "name": "authority",
          "type": "address"
        }
      ],
      "name": "start",
      "type": "function",
      "constant": false,
      "outputs": [
        {
          "name": "",
          "type": "address"
        }
      ],
      "payable": false,
      "stateMutability": "nonpayable"
    },
    {
      "anonymous": false,
      "inputs": [
        {
          "indexed": true,
          "name": "token",
          "type": "address"
        },
        {
          "name": "guy",
          "type": "address"
        },
        {
          "name": "wad",
          "type": "uint256"
        }
      ],
      "name": "authority",
      "type": "function",
      "constant": true,
      "outputs": [
        {
          "name": "",
          "type": "address"
        }
      ],
      "payable": false,
      "stateMutability": "view"
    },
    {
      "anonymous": true,
      "inputs": [
        {
          "indexed": true,
          "name": "token",
          "type": "address"
        },
        {
          "indexed": true,
          "name": "guy",
          "type": "address"
        },
        {
          "indexed": true,
          "name": "wad",
          "type": "uint256"
        },
        {
          "indexed": true,
          "name": "bar",
          "type": "bytes32"
        },
        {
          "indexed": false,
          "name": "wad",
          "type": "uint256"
        },
        {
          "indexed": false,
          "name": "fax",
          "type": "bytes"
        }
      ],
      "name": "mint",
      "type": "function",
      "constant": false,
      "outputs": [],
      "payable": false,
      "stateMutability": "nonpayable"
    },
    {
      "payable": false,
      "stateMutability": "view",
      "type": "function",
      "constant": true,
      "inputs": [
        {
          "name": "_address",
          "type": "address"
        }
      ],
      "name": "isMarginAccountHealthy",
      "outputs": [
        {
          "name": "",
          "type": "bool"
        }
      ]
    },
    {
      "anonymous": false,
      "inputs": [
        {
          "indexed": true,
          "name": "token",
          "type": "address"
        },
        {
          "name": "guy",
          "type": "address"
        },
        {
          "name": "wad",
          "type": "uint256"
        }
      ],
      "name": "burn",
      "type": "function",
      "constant": false,
      "outputs": [],
      "payable": false,
      "stateMutability": "nonpayable"
    },
    {
      "anonymous": false,
      "inputs": [
        {
          "indexed": true,
          "name": "owner",
          "type": "address"
        }
      ],
      "name": "LogSetOwner",
      "type": "fallback",
      "payable": false,
      "stateMutability": "nonpayable"
    },
    {
      "anonymous": false,
      "inputs": [
        {
          "indexed": true,
          "name": "authority",
          "type": "address"
        },
        {
          "indexed": true,
          "name": "guy",
          "type": "address"
        },
        {
          "indexed": true,
          "name": "foo",
          "type": "bytes32"
        },
        {
          "indexed": true,
          "name": "bar",
          "type": "bytes32"
        },
        {
          "indexed": false,
          "name": "wad",
          "type": "uint256"
        },
        {
          "indexed": false,
          "name": "fax",
          "type": "bytes"
        }
      ],
      "name": "LogSetAuthority",
      "type": "event"
    },
    {
      "anonymous": false,
      "inputs": [
        {
          "indexed": true,
          "name": "owner",
          "type": "address"
        }
      ],
      "name": "LogSetOwner",
      "type": "event"
    },
    {
      "anonymous": true,
      "inputs": [
        {
          "indexed": true,
          "name": "sig",
          "type": "bytes4"
        },
        {
          "indexed": true,
          "name": "guy",
          "type": "address"
        },
        {
          "indexed": true,
          "name": "foo",
          "type": "bytes32"
        },
        {
          "indexed": true,
          "name": "bar",
          "type": "bytes32"
        },
        {
          "indexed": false,
          "name": "wad",
          "type": "uint256"
        },
        {
          "indexed": false,
          "name": "fax",
          "type": "bytes"
        }
      ],
      "name": "LogNote",
      "type": "event"
    }
  ],
  "bytecode": "0x606060405233600160006101000a81548173ffffffffffffffffffffffffffffffffffffffff021916908373ffffffffffffffffffffffffffffffffffffffff1602179055503373ffffffffffffffffffffffffffffffffffffffff167fce241d7ca1f669fee44b6fc00b8eba2df3bb514eed0f6f668f8f89096e81ed9460405160405180910390a2612c9f806100976000396000f3006060604052600436106101a1576000357c0100000000000000000000000000000000000000000000000000000000900463ffffffff16806307da68f5146101b157806313af4035146101c6578063197897fc146101ff5780631f9f01ca1461025957806326e8eda21461027b5780633c40b308146102dc5780633fdd7ab51461033657806340c10f191461035f57806341204d88146103a15780635792d30a146103ee5780635ac6d8ab1461043b5780636112fe2e1461049e57806366b3bcb0146104d95780636f758140146105315780637372c2b514610553578063742fe1f8146105b457806375f12b211461060e5780637a9e5e4b1461063b578063885c43cd1461067457806389afcb44146106c55780638da5cb5b146106fe57806390fde0051461075357806396d3a3aa146107a05780639dc29fac146107ed578063a2b35d9d1461082f578063a9fba73a1461087c578063b11b97f5146108c9578063b716ba6714610916578063be9a65551461096e578063bf7e214f14610983578063c6c3bbe6146109d8578063d9fd46ba14610a39578063f6b911bc14610a8a575b34156101ac57600080fd5b600080fd5b34156101bc57600080fd5b6101c4610aeb565b005b34156101d157600080fd5b6101fd600480803573ffffffffffffffffffffffffffffffffffffffff16906020019091905050610bed565b005b341561020a57600080fd5b61023f600480803573ffffffffffffffffffffffffffffffffffffffff16906020019091908035906020019091905050610ccf565b604051808215151515815260200191505060405180910390f35b610261610e2d565b604051808215151515815260200191505060405180910390f35b341561028657600080fd5b6102da600480803573ffffffffffffffffffffffffffffffffffffffff1690602001909190803573ffffffffffffffffffffffffffffffffffffffff16906020019091908035906020019091905050610f17565b005b34156102e757600080fd5b61031c600480803573ffffffffffffffffffffffffffffffffffffffff16906020019091908035906020019091905050611023565b604051808215151515815260200191505060405180910390f35b341561034157600080fd5b61034961120d565b6040518082815260200191505060405180910390f35b341561036a57600080fd5b61039f600480803573ffffffffffffffffffffffffffffffffffffffff16906020019091908035906020019091905050611270565b005b34156103ac57600080fd5b6103d8600480803573ffffffffffffffffffffffffffffffffffffffff1690602001909190505061132f565b6040518082815260200191505060405180910390f35b34156103f957600080fd5b610425600480803573ffffffffffffffffffffffffffffffffffffffff1690602001909190505061136e565b6040518082815260200191505060405180910390f35b341561044657600080fd5b610484600480803573ffffffffffffffffffffffffffffffffffffffff169060200190919080359060200190919080359060200190919050506113cf565b604051808215151515815260200191505060405180910390f35b34156104a957600080fd5b6104bf60048080359060200190919050506115ba565b604051808215151515815260200191505060405180910390f35b34156104e457600080fd5b61052f600480803573ffffffffffffffffffffffffffffffffffffffff1690602001909190803573ffffffffffffffffffffffffffffffffffffffff169060200190919050506117a8565b005b610539611874565b604051808215151515815260200191505060405180910390f35b341561055e57600080fd5b6105b2600480803573ffffffffffffffffffffffffffffffffffffffff1690602001909190803573ffffffffffffffffffffffffffffffffffffffff169060200190919080359060200190919050506119fd565b005b34156105bf57600080fd5b6105f4600480803573ffffffffffffffffffffffffffffffffffffffff16906020019091908035906020019091905050611b3d565b604051808215151515815260200191505060405180910390f35b341561061957600080fd5b610621611c4d565b604051808215151515815260200191505060405180910390f35b341561064657600080fd5b610672600480803573ffffffffffffffffffffffffffffffffffffffff16906020019091905050611c60565b005b341561067f57600080fd5b6106ab600480803573ffffffffffffffffffffffffffffffffffffffff16906020019091905050611d40565b604051808215151515815260200191505060405180910390f35b34156106d057600080fd5b6106fc600480803573ffffffffffffffffffffffffffffffffffffffff16906020019091905050611de1565b005b341561070957600080fd5b610711611f5c565b604051808273ffffffffffffffffffffffffffffffffffffffff1673ffffffffffffffffffffffffffffffffffffffff16815260200191505060405180910390f35b341561075e57600080fd5b61078a600480803573ffffffffffffffffffffffffffffffffffffffff16906020019091905050611f82565b6040518082815260200191505060405180910390f35b34156107ab57600080fd5b6107d7600480803573ffffffffffffffffffffffffffffffffffffffff16906020019091905050611fe7565b6040518082815260200191505060405180910390f35b34156107f857600080fd5b61082d600480803573ffffffffffffffffffffffffffffffffffffffff1690602001909190803590602001909190505061204c565b005b341561083a57600080fd5b610866600480803573ffffffffffffffffffffffffffffffffffffffff1690602001909190505061210b565b6040518082815260200191505060405180910390f35b341561088757600080fd5b6108b3600480803573ffffffffffffffffffffffffffffffffffffffff16906020019091905050612170565b6040518082815260200191505060405180910390f35b34156108d457600080fd5b610900600480803573ffffffffffffffffffffffffffffffffffffffff1690602001909190505061237e565b6040518082815260200191505060405180910390f35b341561092157600080fd5b61096c600480803573ffffffffffffffffffffffffffffffffffffffff1690602001909190803573ffffffffffffffffffffffffffffffffffffffff1690602001909190505061246e565b005b341561097957600080fd5b61098161253a565b005b341561098e57600080fd5b61099661263d565b604051808273ffffffffffffffffffffffffffffffffffffffff1673ffffffffffffffffffffffffffffffffffffffff16815260200191505060405180910390f35b34156109e357600080fd5b610a37600480803573ffffffffffffffffffffffffffffffffffffffff1690602001909190803573ffffffffffffffffffffffffffffffffffffffff16906020019091908035906020019091905050612662565b005b3415610a4457600080fd5b610a70600480803573ffffffffffffffffffffffffffffffffffffffff16906020019091905050612756565b604051808215151515815260200191505060405180910390f35b3415610a9557600080fd5b610ae9600480803573ffffffffffffffffffffffffffffffffffffffff1690602001909190803573ffffffffffffffffffffffffffffffffffffffff16906020019091908035906020019091905050612838565b005b610b19336000357fffffffff000000000000000000000000000000000000000000000000000000001661292c565b1515610b2457600080fd5b60008060043591506024359050806000191682600019163373ffffffffffffffffffffffffffffffffffffffff166000357fffffffff00000000000000000000000000000000000000000000000000000000167bffffffffffffffffffffffffffffffffffffffffffffffffffffffff19163460003660405180848152602001806020018281038252848482818152602001925080828437820191505094505050505060405180910390a460018060146101000a81548160ff0219169083151502179055505050565b610c1b336000357fffffffff000000000000000000000000000000000000000000000000000000001661292c565b1515610c2657600080fd5b80600160006101000a81548173ffffffffffffffffffffffffffffffffffffffff021916908373ffffffffffffffffffffffffffffffffffffffff160217905550600160009054906101000a900473ffffffffffffffffffffffffffffffffffffffff1673ffffffffffffffffffffffffffffffffffffffff167fce241d7ca1f669fee44b6fc00b8eba2df3bb514eed0f6f668f8f89096e81ed9460405160405180910390a250565b6000600160149054906101000a900460ff16151515610ced57600080fd5b600460009054906101000a900473ffffffffffffffffffffffffffffffffffffffff1673ffffffffffffffffffffffffffffffffffffffff163373ffffffffffffffffffffffffffffffffffffffff16141515610d4957600080fd5b81600760008573ffffffffffffffffffffffffffffffffffffffff1673ffffffffffffffffffffffffffffffffffffffff1681526020019081526020016000205410151515610d9757600080fd5b610de0600760008573ffffffffffffffffffffffffffffffffffffffff1673ffffffffffffffffffffffffffffffffffffffff1681526020019081526020016000205483612b8b565b600760008573ffffffffffffffffffffffffffffffffffffffff1673ffffffffffffffffffffffffffffffffffffffff168152602001908152602001600020819055506001905092915050565b6000600160149054906101000a900460ff16151515610e4b57600080fd5b610e79336000357fffffffff000000000000000000000000000000000000000000000000000000001661292c565b1515610e8457600080fd5b610ecd600560003073ffffffffffffffffffffffffffffffffffffffff1673ffffffffffffffffffffffffffffffffffffffff1681526020019081526020016000205434612ba7565b600560003073ffffffffffffffffffffffffffffffffffffffff1673ffffffffffffffffffffffffffffffffffffffff168152602001908152602001600020819055506001905090565b610f45336000357fffffffff000000000000000000000000000000000000000000000000000000001661292c565b1515610f5057600080fd5b8273ffffffffffffffffffffffffffffffffffffffff1663a9059cbb83836000604051602001526040518363ffffffff167c0100000000000000000000000000000000000000000000000000000000028152600401808373ffffffffffffffffffffffffffffffffffffffff1673ffffffffffffffffffffffffffffffffffffffff16815260200182815260200192505050602060405180830381600087803b1515610ffb57600080fd5b6102c65a03f1151561100c57600080fd5b50505060405180519050151561101e57fe5b505050565b6000600160149054906101000a900460ff1615151561104157600080fd5b600360009054906101000a900473ffffffffffffffffffffffffffffffffffffffff1673ffffffffffffffffffffffffffffffffffffffff163373ffffffffffffffffffffffffffffffffffffffff1614151561109d57600080fd5b81600560003073ffffffffffffffffffffffffffffffffffffffff1673ffffffffffffffffffffffffffffffffffffffff16815260200190815260200160002054101515156110eb57600080fd5b611134600560003073ffffffffffffffffffffffffffffffffffffffff1673ffffffffffffffffffffffffffffffffffffffff1681526020019081526020016000205483612b8b565b600560003073ffffffffffffffffffffffffffffffffffffffff1673ffffffffffffffffffffffffffffffffffffffff168152602001908152602001600020819055506111c0600760008573ffffffffffffffffffffffffffffffffffffffff1673ffffffffffffffffffffffffffffffffffffffff1681526020019081526020016000205483612ba7565b600760008573ffffffffffffffffffffffffffffffffffffffff1673ffffffffffffffffffffffffffffffffffffffff168152602001908152602001600020819055506001905092915050565b6000600160149054906101000a900460ff1615151561122b57600080fd5b600560003073ffffffffffffffffffffffffffffffffffffffff1673ffffffffffffffffffffffffffffffffffffffff16815260200190815260200160002054905090565b61129e336000357fffffffff000000000000000000000000000000000000000000000000000000001661292c565b15156112a957600080fd5b8173ffffffffffffffffffffffffffffffffffffffff1663a0712d68826040518263ffffffff167c010000000000000000000000000000000000000000000000000000000002815260040180828152602001915050600060405180830381600087803b151561131757600080fd5b6102c65a03f1151561132857600080fd5b5050505050565b6000600160149054906101000a900460ff1615151561134d57600080fd5b61136761135983612170565b6113628461210b565b612bc3565b9050919050565b6000600160149054906101000a900460ff1615151561138c57600080fd5b61139582612170565b61139e83611fe7565b11156113c5576113be6113b083611fe7565b6113b984612170565b612b8b565b90506113ca565b600090505b919050565b6000600160149054906101000a900460ff161515156113ed57600080fd5b600360009054906101000a900473ffffffffffffffffffffffffffffffffffffffff1673ffffffffffffffffffffffffffffffffffffffff163373ffffffffffffffffffffffffffffffffffffffff1614151561144957600080fd5b82600760008673ffffffffffffffffffffffffffffffffffffffff1673ffffffffffffffffffffffffffffffffffffffff168152602001908152602001600020541015151561149757600080fd5b6114e0600760008673ffffffffffffffffffffffffffffffffffffffff1673ffffffffffffffffffffffffffffffffffffffff1681526020019081526020016000205484612b8b565b600760008673ffffffffffffffffffffffffffffffffffffffff1673ffffffffffffffffffffffffffffffffffffffff1681526020019081526020016000208190555061156c600560003073ffffffffffffffffffffffffffffffffffffffff1673ffffffffffffffffffffffffffffffffffffffff1681526020019081526020016000205483612ba7565b600560003073ffffffffffffffffffffffffffffffffffffffff1673ffffffffffffffffffffffffffffffffffffffff16815260200190815260200160002081905550600190509392505050565b600080600160149054906101000a900460ff161515156115d957600080fd5b6000831180156115f157506115ed3361136e565b8311155b15156115fc57600080fd5b611645600660003373ffffffffffffffffffffffffffffffffffffffff1673ffffffffffffffffffffffffffffffffffffffff1681526020019081526020016000205484612b8b565b600660003373ffffffffffffffffffffffffffffffffffffffff1673ffffffffffffffffffffffffffffffffffffffff16815260200190815260200160002081905550600260009054906101000a900473ffffffffffffffffffffffffffffffffffffffff1673ffffffffffffffffffffffffffffffffffffffff1663fa7fdeb76000604051602001526040518163ffffffff167c010000000000000000000000000000000000000000000000000000000002815260040180807f572d4554480000000000000000000000000000000000000000000000000000008152506020019050602060405180830381600087803b151561174157600080fd5b6102c65a03f1151561175257600080fd5b5050506040518051905090503373ffffffffffffffffffffffffffffffffffffffff166108fc849081150290604051600060405180830381858888f19350505050151561179e57600080fd5b6001915050919050565b61187082828473ffffffffffffffffffffffffffffffffffffffff166370a08231856000604051602001526040518263ffffffff167c0100000000000000000000000000000000000000000000000000000000028152600401808273ffffffffffffffffffffffffffffffffffffffff1673ffffffffffffffffffffffffffffffffffffffff168152602001915050602060405180830381600087803b151561185057600080fd5b6102c65a03f1151561186157600080fd5b505050604051805190506119fd565b5050565b600080600160149054906101000a900460ff1615151561189357600080fd5b600260009054906101000a900473ffffffffffffffffffffffffffffffffffffffff1673ffffffffffffffffffffffffffffffffffffffff1663fa7fdeb76000604051602001526040518163ffffffff167c010000000000000000000000000000000000000000000000000000000002815260040180807f572d4554480000000000000000000000000000000000000000000000000000008152506020019050602060405180830381600087803b151561194c57600080fd5b6102c65a03f1151561195d57600080fd5b5050506040518051905090506119b2600660003373ffffffffffffffffffffffffffffffffffffffff1673ffffffffffffffffffffffffffffffffffffffff1681526020019081526020016000205434612ba7565b600660003373ffffffffffffffffffffffffffffffffffffffff1673ffffffffffffffffffffffffffffffffffffffff16815260200190815260200160002081905550600191505090565b611a2b336000357fffffffff000000000000000000000000000000000000000000000000000000001661292c565b1515611a3657600080fd5b8273ffffffffffffffffffffffffffffffffffffffff166323b872dd8330846000604051602001526040518463ffffffff167c0100000000000000000000000000000000000000000000000000000000028152600401808473ffffffffffffffffffffffffffffffffffffffff1673ffffffffffffffffffffffffffffffffffffffff1681526020018373ffffffffffffffffffffffffffffffffffffffff1673ffffffffffffffffffffffffffffffffffffffff1681526020018281526020019350505050602060405180830381600087803b1515611b1557600080fd5b6102c65a03f11515611b2657600080fd5b505050604051805190501515611b3857fe5b505050565b6000600160149054906101000a900460ff16151515611b5b57600080fd5b600460009054906101000a900473ffffffffffffffffffffffffffffffffffffffff1673ffffffffffffffffffffffffffffffffffffffff163373ffffffffffffffffffffffffffffffffffffffff16141515611bb757600080fd5b611c00600760008573ffffffffffffffffffffffffffffffffffffffff1673ffffffffffffffffffffffffffffffffffffffff1681526020019081526020016000205483612ba7565b600760008573ffffffffffffffffffffffffffffffffffffffff1673ffffffffffffffffffffffffffffffffffffffff168152602001908152602001600020819055506001905092915050565b600160149054906101000a900460ff1681565b611c8e336000357fffffffff000000000000000000000000000000000000000000000000000000001661292c565b1515611c9957600080fd5b806000806101000a81548173ffffffffffffffffffffffffffffffffffffffff021916908373ffffffffffffffffffffffffffffffffffffffff1602179055506000809054906101000a900473ffffffffffffffffffffffffffffffffffffffff1673ffffffffffffffffffffffffffffffffffffffff167f1abebea81bfa2637f28358c371278fb15ede7ea8dd28d2e03b112ff6d936ada460405160405180910390a250565b6000600160149054906101000a900460ff16151515611d5e57600080fd5b611d8c336000357fffffffff000000000000000000000000000000000000000000000000000000001661292c565b1515611d9757600080fd5b81600260006101000a81548173ffffffffffffffffffffffffffffffffffffffff021916908373ffffffffffffffffffffffffffffffffffffffff16021790555060019050919050565b611e0f336000357fffffffff000000000000000000000000000000000000000000000000000000001661292c565b1515611e1a57600080fd5b8073ffffffffffffffffffffffffffffffffffffffff166342966c688273ffffffffffffffffffffffffffffffffffffffff166370a08231306000604051602001526040518263ffffffff167c0100000000000000000000000000000000000000000000000000000000028152600401808273ffffffffffffffffffffffffffffffffffffffff1673ffffffffffffffffffffffffffffffffffffffff168152602001915050602060405180830381600087803b1515611ed957600080fd5b6102c65a03f11515611eea57600080fd5b505050604051805190506040518263ffffffff167c010000000000000000000000000000000000000000000000000000000002815260040180828152602001915050600060405180830381600087803b1515611f4557600080fd5b6102c65a03f11515611f5657600080fd5b50505050565b600160009054906101000a900473ffffffffffffffffffffffffffffffffffffffff1681565b6000600160149054906101000a900460ff16151515611fa057600080fd5b600760008373ffffffffffffffffffffffffffffffffffffffff1673ffffffffffffffffffffffffffffffffffffffff168152602001908152602001600020549050919050565b6000600160149054906101000a900460ff1615151561200557600080fd5b600660008373ffffffffffffffffffffffffffffffffffffffff1673ffffffffffffffffffffffffffffffffffffffff168152602001908152602001600020549050919050565b61207a336000357fffffffff000000000000000000000000000000000000000000000000000000001661292c565b151561208557600080fd5b8173ffffffffffffffffffffffffffffffffffffffff166342966c68826040518263ffffffff167c010000000000000000000000000000000000000000000000000000000002815260040180828152602001915050600060405180830381600087803b15156120f357600080fd5b6102c65a03f1151561210457600080fd5b5050505050565b6000600160149054906101000a900460ff1615151561212957600080fd5b600760008373ffffffffffffffffffffffffffffffffffffffff1673ffffffffffffffffffffffffffffffffffffffff168152602001908152602001600020549050919050565b600080600080600160149054906101000a900460ff1615151561219257600080fd5b61219b85611fe7565b9250600460009054906101000a900473ffffffffffffffffffffffffffffffffffffffff1673ffffffffffffffffffffffffffffffffffffffff16632d675684866000604051602001526040518263ffffffff167c0100000000000000000000000000000000000000000000000000000000028152600401808273ffffffffffffffffffffffffffffffffffffffff1673ffffffffffffffffffffffffffffffffffffffff168152602001915050602060405180830381600087803b151561226257600080fd5b6102c65a03f1151561227357600080fd5b505050604051805190509150600360009054906101000a900473ffffffffffffffffffffffffffffffffffffffff1673ffffffffffffffffffffffffffffffffffffffff16638f32a16c866000604051602001526040518263ffffffff167c0100000000000000000000000000000000000000000000000000000000028152600401808273ffffffffffffffffffffffffffffffffffffffff1673ffffffffffffffffffffffffffffffffffffffff168152602001915050602060405180830381600087803b151561234457600080fd5b6102c65a03f1151561235557600080fd5b5050506040518051905090506123748361236f8484612ba7565b612ba7565b9350505050919050565b6000600160149054906101000a900460ff1615151561239c57600080fd5b612467612459600260009054906101000a900473ffffffffffffffffffffffffffffffffffffffff1673ffffffffffffffffffffffffffffffffffffffff166329a260b86000604051602001526040518163ffffffff167c0100000000000000000000000000000000000000000000000000000000028152600401602060405180830381600087803b151561243057600080fd5b6102c65a03f1151561244157600080fd5b5050506040518051905061245485611fe7565b612bff565b6124628461210b565b612b8b565b9050919050565b61253682828473ffffffffffffffffffffffffffffffffffffffff166370a08231306000604051602001526040518263ffffffff167c0100000000000000000000000000000000000000000000000000000000028152600401808273ffffffffffffffffffffffffffffffffffffffff1673ffffffffffffffffffffffffffffffffffffffff168152602001915050602060405180830381600087803b151561251657600080fd5b6102c65a03f1151561252757600080fd5b50505060405180519050610f17565b5050565b612568336000357fffffffff000000000000000000000000000000000000000000000000000000001661292c565b151561257357600080fd5b60008060043591506024359050806000191682600019163373ffffffffffffffffffffffffffffffffffffffff166000357fffffffff00000000000000000000000000000000000000000000000000000000167bffffffffffffffffffffffffffffffffffffffffffffffffffffffff19163460003660405180848152602001806020018281038252848482818152602001925080828437820191505094505050505060405180910390a46000600160146101000a81548160ff0219169083151502179055505050565b6000809054906101000a900473ffffffffffffffffffffffffffffffffffffffff1681565b612690336000357fffffffff000000000000000000000000000000000000000000000000000000001661292c565b151561269b57600080fd5b8273ffffffffffffffffffffffffffffffffffffffff166340c10f1983836040518363ffffffff167c0100000000000000000000000000000000000000000000000000000000028152600401808373ffffffffffffffffffffffffffffffffffffffff1673ffffffffffffffffffffffffffffffffffffffff16815260200182815260200192505050600060405180830381600087803b151561273d57600080fd5b6102c65a03f1151561274e57600080fd5b505050505050565b6000600160149054906101000a900460ff1615151561277457600080fd5b612827600260009054906101000a900473ffffffffffffffffffffffffffffffffffffffff1673ffffffffffffffffffffffffffffffffffffffff16632262697e6000604051602001526040518163ffffffff167c0100000000000000000000000000000000000000000000000000000000028152600401602060405180830381600087803b151561280557600080fd5b6102c65a03f1151561281657600080fd5b505050604051805190506064612bc3565b6128308361132f565b119050919050565b612866336000357fffffffff000000000000000000000000000000000000000000000000000000001661292c565b151561287157600080fd5b8273ffffffffffffffffffffffffffffffffffffffff16639dc29fac83836040518363ffffffff167c0100000000000000000000000000000000000000000000000000000000028152600401808373ffffffffffffffffffffffffffffffffffffffff1673ffffffffffffffffffffffffffffffffffffffff16815260200182815260200192505050600060405180830381600087803b151561291357600080fd5b6102c65a03f1151561292457600080fd5b505050505050565b60003073ffffffffffffffffffffffffffffffffffffffff168373ffffffffffffffffffffffffffffffffffffffff16141561296b5760019050612b85565b600160009054906101000a900473ffffffffffffffffffffffffffffffffffffffff1673ffffffffffffffffffffffffffffffffffffffff168373ffffffffffffffffffffffffffffffffffffffff1614156129ca5760019050612b85565b600073ffffffffffffffffffffffffffffffffffffffff166000809054906101000a900473ffffffffffffffffffffffffffffffffffffffff1673ffffffffffffffffffffffffffffffffffffffff161415612a295760009050612b85565b6000809054906101000a900473ffffffffffffffffffffffffffffffffffffffff1673ffffffffffffffffffffffffffffffffffffffff1663b70096138430856000604051602001526040518463ffffffff167c0100000000000000000000000000000000000000000000000000000000028152600401808473ffffffffffffffffffffffffffffffffffffffff1673ffffffffffffffffffffffffffffffffffffffff1681526020018373ffffffffffffffffffffffffffffffffffffffff1673ffffffffffffffffffffffffffffffffffffffff168152602001827bffffffffffffffffffffffffffffffffffffffffffffffffffffffff19167bffffffffffffffffffffffffffffffffffffffffffffffffffffffff191681526020019350505050602060405180830381600087803b1515612b6757600080fd5b6102c65a03f11515612b7857600080fd5b5050506040518051905090505b92915050565b60008282840391508111151515612ba157600080fd5b92915050565b60008282840191508110151515612bbd57600080fd5b92915050565b600081612bed612bdb85670de0b6b3a7640000612c43565b600285811515612be757fe5b04612ba7565b811515612bf657fe5b04905092915050565b6000670de0b6b3a7640000612c31612c178585612c43565b6002670de0b6b3a7640000811515612c2b57fe5b04612ba7565b811515612c3a57fe5b04905092915050565b600080821480612c6257508282838502925082811515612c5f57fe5b04145b1515612c6d57600080fd5b929150505600a165627a7a72305820824fbe71a998901f471ccc41a9b9efe96b90207047378cdb306471f5cf0d00db0029",
  "source": "pragma solidity 0.4.18;\r\n\r\nimport \"./math.sol\";\r\nimport \"./token.sol\";\r\nimport \"./stop.sol\";\r\nimport \"./multivault.sol\";\r\n\r\nimport \"./NetworkParameters.sol\";\r\nimport \"./LoanManager.sol\";\r\nimport \"./PositionManager.sol\";\r\n\r\n\r\ncontract Wallet is DSMultiVault, DSMath, DSStop {\r\n    \r\n    NetworkParameters LendroidNetworkParameters;\r\n    LoanManager LendroidLoanManager;\r\n    PositionManager LendroidPositionManager;\r\n\r\n    mapping (address => uint) fundingBalances; // Simple Funding balance tracker\r\n    mapping (address => uint) collateralBalances; // Simple Collateral balance tracker\r\n    mapping (address => uint) loanBalances; // Simple balance tracker for loan amounts borrowed\r\n    mapping (address => uint) wranglerBalances; // Simple Wrangler balance tracker\r\n\r\n    modifier onlyLoanManager() {\r\n        require(msg.sender == address(LendroidLoanManager));\r\n        _;\r\n    }\r\n\r\n    modifier onlyPositionManager() {\r\n        require(msg.sender == address(LendroidPositionManager));\r\n        _;\r\n    }\r\n\r\n    /// @dev Throws if called by any account.\r\n    function() {\r\n        revert();\r\n    }\r\n\r\n    /// @dev Allows owner to set the NetworkParameters contract.\r\n    /// @param _address Address of the NetworkParameters contract.\r\n    function setLendroidNetworkParameters(address _address)\r\n        public \r\n        stoppable\r\n        auth// owner\r\n        returns (bool) \r\n    {\r\n        LendroidNetworkParameters = NetworkParameters(_address);\r\n        return true;\r\n    }\r\n    \r\n    // Deposit funds\r\n    function depositLendingFunds() \r\n        public\r\n        stoppable\r\n        payable\r\n        auth\r\n        returns (bool)\r\n    {\r\n        fundingBalances[address(this)] = add(fundingBalances[address(this)], msg.value);\r\n        return true;\r\n    }\r\n    \r\n    function getFundingBalance() \r\n        public\r\n        stoppable\r\n        constant\r\n        returns (uint)\r\n    {\r\n        return fundingBalances[address(this)];\r\n    }\r\n    \r\n    function depositCollateral() \r\n        public\r\n        stoppable\r\n        payable\r\n        returns (bool)\r\n    {\r\n        \r\n        address _token = LendroidNetworkParameters.getTokenAddressBySymbol(\"W-ETH\");\r\n        // pull\r\n        // pull(DSToken(_token), msg.sender, msg.value);\r\n        collateralBalances[msg.sender] = add(collateralBalances[msg.sender], msg.value);\r\n        return true;\r\n    }\r\n    \r\n    // Withdraw funds\r\n    function withdrawCollateral(uint _amount) \r\n        public\r\n        stoppable\r\n        returns (bool)\r\n    {\r\n        // TODO: Verify margin account is healthy\r\n        require(\r\n            (_amount > 0) &&\r\n            (_amount <= getMaximumWithdrawableAmount(msg.sender))\r\n        );\r\n        collateralBalances[msg.sender] = sub(collateralBalances[msg.sender], _amount);\r\n        address _token = LendroidNetworkParameters.getTokenAddressBySymbol(\"W-ETH\");\r\n        // push\r\n        // push(DSToken(_token), msg.sender, _amount);\r\n        msg.sender.transfer(_amount);\r\n        return true;\r\n    }\r\n\r\n    function getMarginValue(\r\n            address _address\r\n        ) \r\n        public\r\n        stoppable\r\n        constant\r\n        returns (uint)\r\n    {\r\n        return collateralBalances[_address];\r\n    }\r\n\r\n    function getNetValue(\r\n            address _address\r\n        )\r\n        public\r\n        stoppable\r\n        constant\r\n        returns (uint)\r\n    {\r\n        uint marginValue = getMarginValue(_address);\r\n        uint unRealizedPLs = LendroidPositionManager.unRealizedPLs(_address);\r\n        uint unRealizedLendingFees = LendroidLoanManager.unRealizedLendingFees(_address);\r\n        return add(marginValue, add(unRealizedPLs, unRealizedLendingFees));\r\n    }\r\n\r\n    function getTotalBorrowedValue(\r\n            address _address\r\n        ) \r\n        public\r\n        stoppable\r\n        constant\r\n        returns (uint)\r\n    {\r\n        return loanBalances[_address];\r\n    }\r\n\r\n    function getCurrentMargin(\r\n            address _address\r\n        ) \r\n        public\r\n        stoppable\r\n        constant\r\n        returns (uint)\r\n    {\r\n        return wdiv(getNetValue(_address), getTotalBorrowedValue(_address));\r\n    }\r\n\r\n    function isMarginAccountHealthy(\r\n            address _address\r\n        ) \r\n        public\r\n        stoppable\r\n        constant\r\n        returns (bool)\r\n    {\r\n        return getCurrentMargin(_address) > wdiv(LendroidNetworkParameters.liquidationMargin(), 100);\r\n    }\r\n\r\n    // Get maximum amount that can be borrowed\r\n    function getMaximumBorrowableAmount(\r\n            address _address\r\n        )\r\n        public\r\n        stoppable\r\n        constant\r\n        returns (uint)\r\n    {\r\n        return sub(\r\n            wmul(\r\n                LendroidNetworkParameters.borrowableLevel(),\r\n                getMarginValue(_address)\r\n            ),\r\n            getTotalBorrowedValue(_address)\r\n        );\r\n    }\r\n    \r\n    // Get maximum collateral amount that can be withdrawn\r\n    function getMaximumWithdrawableAmount(\r\n            address _address\r\n        )\r\n        public\r\n        stoppable\r\n        constant\r\n        returns (uint)\r\n    {\r\n        if (getMarginValue(_address) > getNetValue(_address)) {\r\n            return sub(getMarginValue(_address), getNetValue(_address));\r\n        }\r\n        else {\r\n            return 0;\r\n        }\r\n    }\r\n\r\n    // Get maximum position amount that can be opened\r\n    function getMaximumPositionOpenableAmount(\r\n            address _address\r\n        )\r\n        public\r\n        stoppable\r\n        constant\r\n        returns (uint)\r\n    {\r\n        return loanBalances[_address];\r\n    }\r\n\r\n    // authorized call to reshuffle balances\r\n    function encumberCollateral(\r\n            address _borrower,\r\n            uint _loanTokenAmount\r\n        )\r\n        public\r\n        stoppable\r\n        // auth// loanmanager\r\n        onlyLoanManager\r\n        returns (bool)\r\n    {\r\n        // Check eligibility\r\n        // lender has enough funds to lend loan\r\n        // require(this.balance >= _loanTokenAmount);\r\n        require(fundingBalances[address(this)] >= _loanTokenAmount);\r\n        // Update fundingBalances\r\n        fundingBalances[address(this)] = sub(fundingBalances[address(this)], _loanTokenAmount);\r\n        // Update loanBalances\r\n        loanBalances[_borrower] = add(loanBalances[_borrower], _loanTokenAmount);\r\n        return true;\r\n    }\r\n\r\n    // authorized call to reshuffle balances\r\n    function unEncumberCollateral(\r\n            address _borrower,\r\n            uint _loanTokenAmount,\r\n            uint _loanTokenAmountPaid\r\n        )\r\n        public\r\n        stoppable\r\n        // auth// loanmanager\r\n        onlyLoanManager\r\n        returns (bool)\r\n    {\r\n        // Check eligibility\r\n        // borrower has enough funds to repay loan\r\n        require(loanBalances[_borrower] >= _loanTokenAmount);\r\n        // Update marginAccountBalances\r\n        loanBalances[_borrower] = sub(loanBalances[_borrower], _loanTokenAmount);\r\n        // Update fundingBalances\r\n        fundingBalances[address(this)] = add(fundingBalances[address(this)], _loanTokenAmountPaid);\r\n        return true;\r\n    }\r\n    \r\n    // authorized call to reshuffle balances\r\n    function openPosition(\r\n            address _borrower,\r\n            uint _positionAmount\r\n        )\r\n        public\r\n        stoppable\r\n        // auth// positionmanager\r\n        onlyPositionManager\r\n        returns (bool)\r\n    {\r\n        // Check eligibility\r\n        // borrower has enough margin account funds to open position\r\n        require(loanBalances[_borrower] >= _positionAmount);\r\n        // Update loanBalances\r\n        loanBalances[_borrower] = sub(loanBalances[_borrower], _positionAmount);\r\n        \r\n        return true;\r\n    }\r\n    \r\n    // authorized call to reshuffle balances\r\n    function closePosition(\r\n            address _borrower,\r\n            uint _positionAmount\r\n        )\r\n        public\r\n        stoppable\r\n        // auth// positionmanager\r\n        onlyPositionManager\r\n        returns (bool)\r\n    {\r\n        // Check eligibility\r\n        // Update loanBalances\r\n        loanBalances[_borrower] = add(loanBalances[_borrower], _positionAmount);\r\n        \r\n        return true;\r\n    }\r\n}",
  "sourcePath": "C:\\work\\programming\\ethereum\\lendroid\\protocol-demo\\contracts\\Wallet.sol",
  "compiler": {
    "name": "solc",
    "version": "0.4.18+commit.9cf6e910.Emscripten.clang"
  },
  "schemaVersion": "1.0.1",
  "updatedAt": "2017-11-13T01:09:07.977Z"
}